:020000040800F2
:1000000000000220799D0008E59D0008E59D00089C
:10001000E59D0008E59D0008E59D00080000000042
:100020000000000000000000000000003D0A010880
:10003000E59D000800000000510A01087D0D01083F
:10004000E59D0008E59D0008E59D0008E59D000888
:10005000E59D0008E59D00084DAD000871AD000864
:1000600095AD0008B9AD0008DDAD0008E59D0008BC
:1000700019D00008E59D000841CF0008E59D000863
:10008000D1CF00080D4D0008E59D0008E59D000852
:10009000E59D0008E59D0008E59D000801AE00080B
:1000A000E59D0008E59D0008E59D0008E59D000828
:1000B000E59D0008E59D0008E59D0008E59D000818
:1000C000E59D0008E59D0008E59D0008E59D000808
:1000D000E59D000869CE000881CE000899CE000891
:1000E0005DAE0008E59D0008E59D0008E59D00085F
:1000F000E59D0008E59D0008E59D0008E59D0008D8
:10010000E59D0008E59D0008490B0108E59D0008F4
:10011000B1CE0008C9CE0008E59D00082D0F0108EA
:10012000E59D0008454D0008E59D0008E59D000897
:10013000E59D0008E59D0008E59D0008E59D000897
:10014000E59D0008E59D0008E59D0008E59D000887
:1001500089CF0008E59D0008F9CE0008E1CE00082F
:10016000E59D0008E59D0008E59D0008E59D000867
:10017000E59D0008E59D0008AD4D0008E59D0008DF
:0C018000E59D0008E59D00080000000857
:1001900081F0004102E000BF83F0004330B54FEA38
:1001A00041044FEA430594EA050F08BF90EA020FA5
:1001B0001FBF54EA000C55EA020C7FEA645C7FEA38
:1001C000655C00F0E2804FEA5454D4EB5555B8BF5B
:1001D0006D420CDD2C4480EA020281EA030382EACC
:1001E000000083EA010180EA020281EA0303362D5E
:1001F00088BF30BD11F0004F4FEA01314FF4801C31
:100200004CEA113102D0404261EB410113F0004F42
:100210004FEA03334CEA133302D0524263EB4303F9
:1002200094EA050F00F0A780A4F10104D5F1200E97
:100230000DDB02FA0EFC22FA05F2801841F10001F2
:1002400003FA0EF2801843FA05F359410EE0A5F1C6
:1002500020050EF1200E012A03FA0EFC28BF4CF0F7
:10026000020C43FA05F3C01851EBE37101F00045AD
:1002700007D54FF0000EDCF1000C7EEB00006EEBBA
:100280000101B1F5801F1BD3B1F5001F0CD3490844
:100290005FEA30004FEA3C0C04F101044FEA44529B
:1002A00012F5800F80F09A80BCF1004F08BF5FEA22
:1002B000500C50F1000041EB045141EA050130BD02
:1002C0005FEA4C0C404141EB010111F4801FA4F1A5
:1002D0000104E9D191F0000F04BF01460020B1FAFA
:1002E00081F308BF2033A3F10B03B3F120020CDA32
:1002F0000C3208DD02F1140CC2F10C0201FA0CF010
:1003000021FA02F10CE002F11402D8BFC2F1200C74
:1003100001FA02F120FA0CFCDCBF41EA0C0190402A
:10032000E41AA2BF01EB0451294330BD6FEA040473
:100330001F3C1CDA0C340EDC04F11404C4F120025E
:1003400020FA04F001FA02F340EA030021FA04F370
:1003500045EA030130BDC4F10C04C4F1200220FAC7
:1003600002F001FA04F340EA0300294630BD21FA05
:1003700004F0294630BD94F0000F83F4801306BFCB
:1003800081F480110134013D4EE77FEA645C18BFBF
:100390007FEA655C29D094EA050F08BF90EA020F56
:1003A00005D054EA000C04BF1946104630BD91EA4E
:1003B000030F1EBF0021002030BD5FEA545C05D151
:1003C0004000494128BF41F0004130BD14F5800490
:1003D0003CBF01F5801130BD01F0004545F0FE4104
:1003E00041F470014FF0000030BD7FEA645C1ABF39
:1003F000194610467FEA655C1CBF0B46024650EA70
:10040000013406BF52EA033591EA030F41F400219B
:1004100030BD00BF90F0000F04BF0021704730B521
:100420004FF4806404F132044FF000054FF00001F6
:1004300050E700BF90F0000F04BF0021704730B5B7
:100440004FF4806404F1320410F0004548BF40428C
:100450004FF000013EE700BF42004FEAE2014FEAE1
:1004600031014FEA02701FBF12F07F4393F07F4FBC
:1004700081F06051704792F0000F14BF93F07F4FEE
:10048000704730B54FF4607401F0004521F0004131
:1004900020E700BF50EA010208BF704730B54FF0B7
:1004A00000050AE050EA010208BF704730B511F0BC
:1004B000004502D5404261EB41014FF4806404F1F4
:1004C00032045FEA915C3FF4DCAE4FF003025FEA76
:1004D000DC0C18BF03325FEADC0C18BF033202EBFE
:1004E000DC02C2F1200300FA03FC20FA02F001FA58
:1004F00003FE40EA0E0021FA02F11444C1E600BFF7
:1005000070B54FF0FF0C4CF4E06C1CEA11541DBFA9
:100510001CEA135594EA0C0F95EA0C0F00F0DEF874
:100520002C4481EA030621EA4C5123EA4C5350EA59
:10053000013518BF52EA033541F4801143F48013AA
:1005400038D0A0FB02CE4FF00005E1FB02E506F03B
:100550000042E0FB03E54FF00006E1FB03569CF090
:10056000000F18BF4EF0010EA4F1FF04B6F5007F96
:1005700064F5407404D25FEA4E0E6D4146EB060608
:1005800042EAC62141EA55514FEAC52040EA5E5091
:100590004FEACE2EB4F1FD0C88BFBCF5E06F1ED83B
:1005A000BEF1004F08BF5FEA500E50F1000041EB72
:1005B000045170BD06F0004646EA010140EA02001F
:1005C00081EA0301B4EB5C04C2BFD4EB0C0541EA41
:1005D000045170BD41F480114FF0000E013C00F356
:1005E000AB8014F1360FDEBF002001F0004170BD7A
:1005F000C4F10004203C35DA0C341BDC04F1140493
:10060000C4F1200500FA05F320FA04F001FA05F21E
:1006100040EA020001F0004221F0004110EBD370EB
:1006200021FA04F642EB06015EEA430E08BF20EA17
:10063000D37070BDC4F10C04C4F1200500FA04F3BA
:1006400020FA05F001FA04F240EA020001F000414C
:1006500010EBD37041F100015EEA430E08BF20EABF
:10066000D37070BDC4F1200500FA05F24EEA020E07
:1006700020FA04F301FA05F243EA020321FA04F036
:1006800001F0004121FA04F220EA020000EBD370ED
:100690005EEA430E08BF20EAD37070BD94F0000FED
:1006A0000FD101F00046400041EB010111F4801F21
:1006B00008BF013CF7D041EA060195F0000F18BFD2
:1006C000704703F00046520043EB030313F4801F0E
:1006D00008BF013DF7D043EA0603704794EA0C0FC8
:1006E0000CEA135518BF95EA0C0F0CD050EA4106DE
:1006F00018BF52EA4306D1D181EA030101F000415B
:100700004FF0000070BD50EA410606BF1046194682
:1007100052EA430619D094EA0C0F02D150EA01368E
:1007200013D195EA0C0F05D152EA03361CBF1046CF
:1007300019460AD181EA030101F0004141F0FE416E
:1007400041F470014FF0000070BD41F0FE4141F4F2
:10075000780170BD70B54FF0FF0C4CF4E06C1CEAF2
:1007600011541DBF1CEA135594EA0C0F95EA0C0FA7
:1007700000F0A7F8A4EB050481EA030E52EA033562
:100780004FEA013100F088804FEA03334FF0805583
:1007900045EA131343EA12634FEA022245EA1115B0
:1007A00045EA10654FEA00260EF000419D4208BF61
:1007B000964244F1FD0404F5407402D25B084FEA0E
:1007C0003202B61A65EB03055B084FEA32024FF4BA
:1007D00080104FF4002CB6EB020E75EB030E22BF17
:1007E000B61A754640EA0C005B084FEA3202B6EBD7
:1007F000020E75EB030E22BFB61A754640EA5C0086
:100800005B084FEA3202B6EB020E75EB030E22BF15
:10081000B61A754640EA9C005B084FEA3202B6EB16
:10082000020E75EB030E22BFB61A754640EADC00D5
:1008300055EA060E18D04FEA051545EA16754FEA37
:1008400006164FEAC30343EA52734FEAC2025FEA55
:100850001C1CC0D111F4801F0BD141EA00014FF0E4
:1008600000004FF0004CB6E711F4801F04BF0143B5
:100870000020B4F1FD0C88BFBCF5E06F3FF6AFAED1
:10088000B5EB030C04BFB6EB020C5FEA500C50F161
:10089000000041EB045170BD0EF0004E4EEA1131E4
:1008A00014EB5C04C2BFD4EB0C0541EA045170BDEB
:1008B00041F480114FF0000E013C90E645EA060E2F
:1008C0008DE60CEA135594EA0C0F08BF95EA0C0F5D
:1008D0003FF43BAF94EA0C0F0AD150EA01347FF4A5
:1008E00034AF95EA0C0F7FF425AF104619462CE77C
:1008F00095EA0C0F06D152EA03353FF4FDAE1046DF
:10090000194622E750EA410618BF52EA43067FF42F
:10091000C5AE50EA41047FF40DAF52EA43057FF4BF
:10092000EBAE12E74FF0FF3C06E000BF4FF0010CCA
:1009300002E000BF4FF0010C4DF804CD4FEA410C2E
:100940007FEA6C5C4FEA430C18BF7FEA6C5C1BD0FB
:1009500001B050EA410C0CBF52EA430C91EA030F7C
:1009600002BF90EA020F0020704710F1000F91EAD9
:10097000030F58BF994208BF90422CBFD8176FEAA7
:10098000E37040F0010070474FEA410C7FEA6C5C75
:1009900002D150EA013C07D14FEA430C7FEA6C5C7C
:1009A000D6D152EA033CD3D05DF8040B704700BFA8
:1009B0008446104662468C461946634600E000BFF6
:1009C00001B5FFF7B7FF002848BF10F1000F01BDC8
:1009D0004DF808EDFFF7F4FF0CBF012000205DF893
:1009E00008FB00BF4DF808EDFFF7EAFF34BF012018
:1009F00000205DF808FB00BF4DF808EDFFF7E0FFB1
:100A000094BF012000205DF808FB00BF4DF808ED01
:100A1000FFF7CEFF94BF012000205DF808FB00BF68
:100A20004DF808EDFFF7C4FF34BF012000205DF84A
:100A300008FB00BF4FEA410212F5001215D211D592
:100A40006FF47873B3EB625212D94FEAC12343F0CB
:100A5000004343EA505311F0004F23FA02F018BF4D
:100A6000404270474FF00000704750EA013005D116
:100A700011F0004008BF6FF0004070474FF00000D9
:100A8000704700BF4A0011D212F5001211D20DD5E5
:100A90006FF47873B3EB62520ED44FEAC12343F084
:100AA000004343EA505323FA02F070474FF000002E
:100AB000704750EA013002D14FF0FF3070474FF0DD
:100AC000000070474FEA4102B2F1E04324BFB3F5A2
:100AD000001CDCF1FE5C0DD901F0004C4FEAC002B5
:100AE0004CEA5070B2F1004F40EB830008BF20F099
:100AF0000100704711F0804F21D113F13872BCBF53
:100B000001F00040704741F480114FEA5252C2F1A7
:100B10001802C2F1200C10FA0CF320FA02F018BFF0
:100B200040F001004FEAC1234FEAD32303FA0CFC43
:100B300040EA0C0023FA02F34FEA4303CCE77FEAD2
:100B4000625307D150EA01331EBF4FF0FE4040F41C
:100B50004000704701F0004040F0FE4040F40000CB
:100B6000704700BF80F0004002E000BF81F000410C
:100B700042001FBF5FEA410392EA030F7FEA226C43
:100B80007FEA236C6AD04FEA1262D2EB1363C1BFD3
:100B9000D218414048404140B8BF5B42192B88BF42
:100BA000704710F0004F40F4000020F07F4018BF65
:100BB000404211F0004F41F4000121F07F4118BF85
:100BC000494292EA030F3FD0A2F1010241FA03FC2D
:100BD00010EB0C00C3F1200301FA03F100F0004315
:100BE00002D5494260EB4000B0F5000F13D3B0F1DD
:100BF000807F06D340084FEA310102F10102FE2A4C
:100C000051D2B1F1004F40EBC25008BF20F00100BB
:100C100040EA03007047490040EB000010F4000F69
:100C2000A2F10102EDD1B0FA80FCACF1080CB2EBFC
:100C30000C0200FA0CF0AABF00EBC250524218435B
:100C4000BCBFD0401843704792F0000F81F4000100
:100C500006BF80F400000132013BB5E74FEA4103D3
:100C60007FEA226C18BF7FEA236C21D092EA030F3F
:100C700004D092F0000F08BF0846704790EA010FB9
:100C80001CBF0020704712F07F4F04D1400028BFE6
:100C900040F00040704712F100723CBF00F50000C8
:100CA000704700F0004343F0FE4040F400007047FE
:100CB0007FEA226216BF08467FEA236301464202AA
:100CC00006BF5FEA412390EA010F40F480007047BD
:100CD0004FF0000304E000BF10F0004348BF404263
:100CE0005FEA000C08BF704743F0964301464FF09F
:100CF00000001CE050EA010208BF70474FF00003FB
:100D00000AE000BF50EA010208BF704711F000433B
:100D100002D5404261EB41015FEA010C02BF84460B
:100D20000146002043F0B64308BFA3F18053A3F56A
:100D30000003BCFA8CF2083AA3EBC25310DB01FAB1
:100D400002FC634400FA02FCC2F12002BCF1004F35
:100D500020FA02F243EB020008BF20F001007047C6
:100D600002F1200201FA02FCC2F1200250EA4C001A
:100D700021FA02F243EB020008BF20EADC70704760
:100D800073B96AB9002908BF0028BCBF00204FF022
:100D90000041C4BF6FF000414FF0FF3000F08CB84D
:100DA00082B0EC462DE9005000F056F8DDF804E082
:100DB00002B00CBC704700BF4BB942B9002908BF54
:100DC000002802D04FF0FF31084600F075B882B01D
:100DD000EC462DE9005000F057F8DDF804E002B0D1
:100DE0000CBC704738B50022002304460D46FFF7BF
:100DF000F9FD28B920462946BDE8384000F00AB878
:100E0000204605F1004100F005F8404261EB410148
:100E100038BD00BF70B500220D4B04460D46FFF7EC
:100E20006FFBFFF72FFE0646FFF7F4FA0022094B8F
:100E3000FFF766FB02460B4620462946FFF7ACF952
:100E4000FFF720FE002242EA00042046314670BD32
:100E50000000F03D0000F0412DE97043069E14466D
:100E60001D468046894600F029F804FB01F300FB8B
:100E70000533A4FB00451D44B8EB040469EB0505EC
:100E8000C6E90045BDE870832DE97043069E14460F
:100E9000804689461D4600F05DF900FB05F504FB20
:100EA0000153A0FB04451D44B8EB040469EB0505A0
:100EB000C6E90045BDE87083704700BF00292DE9F1
:100EC000F00FC0F29F800024002BC0F296801546E0
:100ED00006460F46002B3ED18A4257D9B2FA82F31A
:100EE0004BB1C3F1200201FA03F720FA02F29D4050
:100EF000174300FA03F6290CB7FBF1F2330C01FBA0
:100F0000127CA8B243EA0C4700FB02F3BB4209D9AA
:100F10007F1902F1FF3C80F00181BB4240F2FE806C
:100F2000023A2F44FF1AB7FBF1F3B6B201FB13717B
:100F300046EA014100FB03F0884208D9491903F150
:100F4000FF3780F0ED80884240F2EA80023B43EABE
:100F50000242002303E08B420AD900231A461046BE
:100F6000194614B1404261EB4101BDE8F00F7047F2
:100F7000B3FA83F8B8F1000F40F084808B4202D3BB
:100F8000824200F2DE8000230122E8E712B9012349
:100F9000B3FBF2F5B5FA85F2002A39D17F1B280C94
:100FA0001FFA85FC0123B7FBF0F1320C00FB11772F
:100FB00042EA07470CFB01F2BA4207D97F1901F157
:100FC000FF3802D2BA4200F2C1804146BF1AB7FBD5
:100FD000F0F2B6B200FB127046EA00400CFB02FCD5
:100FE000844507D9401902F1FF3702D2844500F247
:100FF000AB803A4642EA0142B1E7E443524263EB36
:10100000430364E7404261EB41014FF0FF345BE78B
:101010009540C2F1200327FA03F1280C26FA03F3C6
:101020009740B1FBF0F81F433B0C00FB18111FFA6F
:1010300085FC43EA01410CFB08F38B4206FA02F6F9
:1010400008D9491908F1FF3279D28B4277D9A8F132
:1010500002082944C91AB1FBF0F3BFB200FB131117
:1010600047EA01470CFB03F2BA4207D97F1903F1A3
:10107000FF3160D2BA425ED9023B2F44BF1A43EA25
:10108000084390E7C8F1200203FA08FC25FA02F3AE
:1010900043EA0C0C4FEA1C4921FA02F301FA08F763
:1010A00020FA02F2B3FBF9F1174309FB11333A0CB2
:1010B0001FFA8CFB42EA03430BFB01FA9A4505FA3F
:1010C00008F008D913EB0C0301F1FF3235D29A4531
:1010D00033D902396344CAEB0303B3FBF9F209FBCA
:1010E0001233BFB247EA03470BFB02F9B94508D9EF
:1010F00017EB0C0702F1FF331BD2B94519D9023A9D
:10110000674442EA0145A5FB0001C9EB07078F428E
:101110004FF000030AD305D02A4620E7624601E7D4
:101120003B4614E706FA08F68642F5D26A1E00230B
:1011300015E71A46E5E70B46A0E71146CBE79046D0
:1011400088E7434642460AE7023A53E702392F440A
:101150003CE700BF2DE9F00F144605460E46002B74
:1011600043D18A4253D9B2FA82F757B1C7F1200668
:1011700020FA06F601FA07F302FA07F41E4300FA12
:1011800007F5210CB6FBF1F22B0C01FB1267A0B2A4
:1011900043EA074600FB02F3B34209D9361902F1CC
:1011A000FF3780F0F680B34240F2F380023A2644E3
:1011B000F61AB6FBF1F3ADB201FB136145EA01414A
:1011C00000FB03F0884208D9091903F1FF3680F0CB
:1011D000E280884240F2DF80023B43EA0242002381
:1011E00010461946BDE8F00F70478B424AD8B3FA53
:1011F00083F6002E4DD18B4202D3824200F2D6807C
:101200000023012210461946BDE8F00F704712B9BD
:101210000124B4FBF2F4B4FA84F2002A7CD1091B55
:10122000260CA7B20123B1FBF6F02A0C06FB101125
:1012300042EA014107FB00F28A4207D9091900F18D
:10124000FF3C02D28A4200F2C3806046891AB1FB99
:10125000F6F2ADB206FB121145EA014507FB02F7B3
:10126000AF4208D92C1902F1FF3180F09680A742D5
:1012700040F29380023A42EA004210461946BDE825
:10128000F00F704700231A4610461946BDE8F00FCC
:101290007047C6F1200522FA05F4B3401C434FEA1B
:1012A000144821FA05F301FA06F720FA05F5B3FB15
:1012B000F8FC2F4308FB1C333D0C1FFA84FA45EA67
:1012C00003430AFB0CF9994502FA06FB04D91B19E2
:1012D0000CF1FF326DD39446C9EB0303B3FBF8F571
:1012E00008FB1533BFB247EA03470AFB05F8B845C8
:1012F00004D93F1905F1FF3361D31D4645EA0C4C73
:10130000ACFB0B23C8EB07079F424FF0000549D306
:1013100045D062462B4663E79440C2F1200321FA90
:1013200003FC260C20FA03F301FA02F5BCFBF6F8E5
:1013300043EA05010B0C06FB18CCA7B243EA0C4CA0
:1013400007FB08F3634500FA02F509D91CEB040C0E
:1013500008F1FF323AD2634538D9A8F10208A44413
:10136000C3EB0C0CBCFBF6F389B206FB13CC41EAD1
:101370000C4107FB03F28A4207D9091903F1FF3038
:1013800022D28A4220D9023B2144891A43EA0843E7
:1013900049E73A460CE733461FE70A466BE7B04099
:1013A0009042B6D20CF1FF32002319E733463246A1
:1013B00016E799458FD9ACF1020C23448CE7B84568
:1013C0009BD9023D274499E70346DEE79046C7E7ED
:1013D000023821443AE700BF80B582B000AF7860A0
:1013E00039607B68012B10D13A684FF6FF739A423F
:1013F0000BD107483C2109F061FA06483D2109F06C
:101400005DFA05483E2109F059FA0837BD4680BD0E
:10141000380A0020540A0020700A002080B500AF6E
:1014200001204FF6FF71FFF7D7FF80BD80B582B076
:1014300000AF78607B680A4A1A600A4807F0F2FA3F
:101440007B680433184607F063FC0023002B02D0AE
:10145000786807F073FD7B6818460837BD4680BD85
:10146000F0940108F078010880B582B000AF786090
:101470007868FFF7DBFF786807F060FD7B68184647
:101480000837BD4680BD00BF80B582B000AF786030
:101490007B68064A1A600023002B02D0786807F0A8
:1014A0004DFD7B6818460837BD4680BDA0910108F8
:1014B00080B582B000AF78607868FFF7E5FF7868A4
:1014C00007F03CFD7B6818460837BD4680BD00BF6D
:1014D00080B584B000AFF860B9607A603B600448C2
:1014E00007F0A0FA002318461037BD4680BD00BFA4
:1014F0000479010880B483B000AF78607B684FF056
:1015000000021A607B684FF000025A607B684FF05F
:1015100000029A607B68154ADA607B68144A1A6197
:101520007B68144A5A617B68134ADA627B684FF021
:1015300000021A627B684FF000025A627B684FF02B
:1015400000029A617B684FF000029A627B684FF05C
:101550000002DA617B684FF000021A637B6818466C
:101560000C37BD465DF8047B704700BFCDCC05420B
:101570006D564D3FF62874C00AD7233C2DE9B04F75
:101580008AB006AF78607B6830336148194600F056
:10159000E5F97B6893ED0C7A7B68D3ED0A7A77EEF8
:1015A000677AC7ED037A97ED037ADFED5A7AB4EEE6
:1015B000E77AF1EE10FA08DD97ED037ADFED567A5F
:1015C00077EE677AC7ED037A10E097ED037ADFEDE7
:1015D000537AB4EEE77AF1EE10FA07D597ED037A75
:1015E000DFED4D7A77EE277AC7ED037AD7ED037AF0
:1015F000B0EEE77AF1EE047AB4EEE77AF1EE10FAA3
:101600000EDD7B6893ED087A7B68D3ED0B6AD7ED2E
:10161000037A66EEA77A77EE277A7B68C3ED087ABD
:101620007B68D3ED067A97ED037A37EE677A7B68AD
:10163000D3ED0B7AC7EE277A7B68C3ED097A7B6816
:1016400093ED037AD7ED037A67EE277A7B68C3EDD3
:10165000007A7B6893ED047A7B68D3ED087A67EEB5
:10166000277A7B68C3ED017A7B6893ED057A7B6806
:10167000D3ED097A67EE277A7B68C3ED027A7B683F
:1016800093ED007A7B68D3ED017A37EE277A7B6899
:10169000D3ED027A77EE277A7B68C3ED077A7B6811
:1016A000FA689A617B68D3ED077AFDEEE77A17EE68
:1016B000903A9BB21BB21A48194602F077FC7B683D
:1016C000DB691846FEF7C8FE04460D46F868FEF7CB
:1016D000C3FE82468B467B689B6A1846FEF7BCFEBB
:1016E000804689467B681B6B1846FEF7B5FE0246AE
:1016F0000B46CDE900ABCDE90289CDE904230948C9
:1017000022462B4608F0E6FA1037BD46BDE8B08FFA
:101710008C0A0020000034430000B443000034C3AE
:10172000D82200208C79010880B483B000AF7860A3
:101730007B68D3ED077AFDEEE77A17EE903A9BB21D
:101740001BB218460C37BD465DF8047B704700BFDE
:10175000B0B584B002AF786039607B683A689A624D
:101760007B68D3ED0A7AF5EEC07AF1EE10FA13D564
:1017700009E07B6893ED0A7ADFED227A77EE277A2B
:101780007B68C3ED0A7A7B68D3ED0A7AF5EEC07AFE
:10179000F1EE10FAEDD41EE07B6893ED0A7ADFEDEE
:1017A000197AB4EEE77AF1EE10FA14DD09E07B68FD
:1017B00093ED0A7ADFED137A77EE677A7B68C3EDF3
:1017C0000A7A7B6893ED0A7ADFED0E7AB4EEE77A57
:1017D000F1EE10FAEBDC7B689B6A1846FEF73CFEE4
:1017E00004460D463868FEF737FE02460B46CDE943
:1017F0000023054822462B4608F06CFA0837BD4600
:10180000B0BD00BF0000B443BC79010880B483B010
:1018100000AF786039607B683A68DA620C37BD46A1
:101820005DF8047B704700BF80B582B000AF786080
:1018300039607B683A681A60084B1B78002B09D026
:101840007B681B681846FEF707FE02460B460448F5
:1018500008F040FA0837BD4680BD00BF6401002093
:10186000DC79010880B582B000AF786039607B68B0
:101870003A685A60084B1B78002B09D07B685B687C
:101880001846FEF7E9FD02460B46044808F022FA26
:101890000837BD4680BD00BF64010020F47901080F
:1018A00080B582B000AF786039607B683A689A6032
:1018B000084B1B78002B09D07B689B681846FEF705
:1018C000CBFD02460B46044808F004FA0837BD4633
:1018D00080BD00BF640100200C7A010880B483B091
:1018E00000AF78607B689B6918460C37BD465DF891
:1018F000047B704780B483B000AF78607B68DB699D
:1019000018460C37BD465DF8047B704780B483B041
:1019100000AF78607B68044A1A607B6818460C3711
:10192000BD465DF8047B7047A091010880B582B088
:1019300000AF78607B681846FFF7E8FF7B68064ACF
:101940001A607B680022DA617B6800229A617B68FA
:1019500018460837BD4680BD8891010880B582B021
:1019600000AF786039607B68DA697B689B699A426E
:1019700014BF00230123DBB2002B01D0002311E0B0
:101980007B68DB697A689B0013445A683B681A607D
:101990007B68DB697868194600F008F802467B68C6
:1019A000DA61012318460837BD4680BD80B483B094
:1019B00000AF786039603B68032B02DC3B68013381
:1019C00000E0002318460C37BD465DF8047B7047E5
:1019D00080B582B000AF78607B68084A1A607B6887
:1019E0001846FFF751FD0023002B02D0786807F05E
:1019F000A5FA7B6818460837BD4680BD8891010866
:101A000080B582B000AF78607868FFF7E1FF786852
:101A100007F094FA7B6818460837BD4680BD00BFC2
:101A200080B584B002AF786039607B68012B19D132
:101A30003A684FF6FF739A4214D10C48FFF776FFCD
:101A40000A480B490B4A10F091FD002300930A4805
:101A50000A49064A0A4B07F07BFA07480949054A32
:101A600010F084FD0837BD4680BD00BF8C0A002001
:101A7000D11900081CCB0020AC0A0020080C002063
:101A8000247A01082D14000880B584B000AFF860F6
:101A9000B9607A603B607B68042B04D9064806F085
:101AA000C1FF002304E0F868396800F007F8034636
:101AB00018461037BD4680BD407A010880B584B015
:101AC00000AF786039607B689B6978681946FFF7DA
:101AD0006DFFF8607B68DA69FB689A4214BF0023E7
:101AE0000123DBB2002B01D000230BE07B689B6954
:101AF0003A68126879689B000B445A607B68FA6800
:101B00009A61012318461037BD4680BD80B500AFED
:101B100001204FF6FF71FFF783FF80BD80B483B0D3
:101B200000AF78607B684FF000021A607B684FF06E
:101B300000025A607B684FF000029A607B68114A8D
:101B4000DA607B68104A1A617B68104A5A617B68C8
:101B50004FF000021A627B684FF000025A627B6805
:101B60004FF000029A617B6800221A857B684FF073
:101B70000002DA617B6818460C37BD465DF8047BCD
:101B8000704700BF1F859BC06666A3C28A02AD3E38
:101B90002DE9F0438BB006AF78607B683033514855
:101BA000194600F071F97B6893ED0E7A7B681B8D06
:101BB0001BB206EE903AF8EEE67A77EE677AC7ED5A
:101BC000037AD7ED037AB0EEE77AF1EE047AB4EE59
:101BD000E77AF1EE10FA0EDD7B6893ED087A7B6808
:101BE000D3ED0B6AD7ED037A66EEA77A77EE277A04
:101BF0007B68C3ED087A7B68D3ED067A97ED037AAC
:101C000037EE677A7B68D3ED0B7AC7EE277A7B686D
:101C1000C3ED097A7B6893ED037AD7ED037A67EE1B
:101C2000277A7B68C3ED007A7B6893ED047A7B6842
:101C3000D3ED087A67EE277A7B68C3ED017A7B687B
:101C400093ED057A7B68D3ED097A67EE277A7B6896
:101C5000C3ED027A7B6893ED007A7B68D3ED017A5D
:101C600037EE277A7B68D3ED027A77EE277A7B68A6
:101C7000C3ED077A7B68FA689A617B68D3ED077ACF
:101C8000FDEEE77A17EE903A9BB21BB21648194662
:101C900002F08CF9154B1B78002B1FD07B68DB6999
:101CA0001846FEF7D9FB04460D46F868FEF7D4FB4C
:101CB000804689467B681B8D1EB27B689B6B1846ED
:101CC000FEF7CAFB02460B46CDE900890296CDE934
:101CD0000423074822462B4607F0FCFF1437BD4675
:101CE000BDE8F083DC0A0020D82200206401002037
:101CF000EC7A010880B582B000AF78600B46FB70CB
:101D000097F903309AB27B681A85074B1B78002B32
:101D100006D07B681B8D1BB20448194607F0DAFF1A
:101D20000837BD4680BD00BF640100201C7B010850
:101D300080B582B000AF786039607B683A681A601D
:101D4000084B1B78002B09D07B681B681846FEF7F0
:101D500083FB02460B46044807F0BCFF0837BD462C
:101D600080BD00BF64010020347B010880B582B0D3
:101D700000AF786039607B683A685A60084B1B781E
:101D8000002B09D07B685B681846FEF765FB0246AE
:101D90000B46044807F09EFF0837BD4680BD00BFD4
:101DA000640100204C7B010880B582B000AF7860F0
:101DB00039607B683A689A60084B1B78002B09D021
:101DC0007B689B681846FEF747FB02460B460448B3
:101DD00007F080FF0837BD4680BD00BF64010020CA
:101DE000647B010880B483B000AF78607B68D3ED7A
:101DF000077AFCEEE77A17EE903A9BB29BB21BB2E1
:101E000018460C37BD465DF8047B704780B483B03C
:101E100000AF786039607B683A68DA620C37BD469B
:101E20005DF8047B704700BF80B483B000AF78607A
:101E30007B68DB6918460C37BD465DF8047B70474C
:101E400080B483B000AF78607B689B6918460C371C
:101E5000BD465DF8047B704780B582B000AF786006
:101E60007B681846FFF752FD7B68064A1A607B685C
:101E700000225A647B6800221A647B68184608377F
:101E8000BD4680BDB891010880B582B000AF7860D2
:101E900039607B685A6C7B681B6C9A4214BF0023C4
:101EA0000123DBB2002B01D0002317E07B685A6CC2
:101EB0003968786813465B0013449B00C2180B46D0
:101EC000043207CA83E807007B685B6C78681946B0
:101ED00000F008F802467B685A6401231846083768
:101EE000BD4680BD80B483B000AF786039603B6888
:101EF000032B02DC3B68013300E0002318460C375B
:101F0000BD465DF8047B704780B582B000AF786055
:101F10007B68084A1A607B681846FFF7B5FA002309
:101F2000002B02D0786807F009F87B68184608375C
:101F3000BD4680BDB891010880B582B000AF786021
:101F40007868FFF7E1FF786806F0F8FF7B681846CD
:101F50000837BD4680BD00BF80B584B002AF786051
:101F600039607B68012B19D13A684FF6FF739A42AA
:101F700014D10C48FFF770FF0A480B490B4A10F0C8
:101F8000F5FA002300930A480A49064A0A4B06F06C
:101F9000DFFF07480949054A10F0E8FA0837BD464F
:101FA00080BD00BFDC0A0020091F00081CCB0020F8
:101FB000240B00209C0B00207C7B01082D140008C2
:101FC00080B584B000AFF860B9607A603B607B6830
:101FD0000C2B04D9064806F025FD002304E0F86820
:101FE000396800F007F8034618461037BD4680BD33
:101FF000947B010880B584B000AF786039607B685D
:102000001B6C78681946FFF76DFFF8607B685A6CA7
:10201000FB689A4214BF00230123DBB2002B01D0DE
:10202000002310E07B681A6C796813465B00134448
:102030009B000B443A68043307CA83E807007B68B7
:10204000FA681A64012318461037BD4680BD00BFE8
:1020500080B500AF01204FF6FF71FFF77DFF80BD17
:102060000FB480B400AF00231846BD465DF8047B72
:1020700004B0704780B483B000AF786039603B68CB
:102080005A687B685A603B689A687B689A603B68CC
:10209000DA687B68DA603B681A697B681A613B68BA
:1020A0005A697B685A617B6818460C37BD465DF8F3
:1020B000047B704780B582B000AF786039607A6881
:1020C0003B6810461946FFF7D5FF3B689A697B6865
:1020D0009A617B6818460837BD4680BD90B58DB0C3
:1020E00002AF78607B681B7883F00103DBB2002BC2
:1020F00007D17B6804331846FFF7B2FF0346002B75
:1021000001D1012300E00023002B15D07B681C1DAA
:1021100007F10C031846202108F0D0FB07F10C034F
:1021200020461946FFF7C6FF7B6804331846012195
:102130000122012308F0F6FB7B6801221A707B68FC
:10214000202283F820207B68572283F821207B6897
:1021500020337A6823320092012201926F481D21B8
:102160001A46022309F0C0F802467B681A637B68AE
:102170001B6B002B03DA6A4807F0ACFDCAE07B68F2
:10218000242283F820207B68F42283F821207B68B6
:1021900020337A6823320092012201925F481D2188
:1021A0001A46022309F0A0F802467B681A637B688E
:1021B0001B6B002B03DA5A4807F08CFDAAE07B6802
:1021C0000F2283F820207B6820337A682332009224
:1021D0000122019251481D211A46012309F084F879
:1021E00002467B681A637B681B6B002B04DB7B68F1
:1021F00093F82330492B03D04A4807F06BFD89E060
:102200007B68252283F820207B68002283F8212028
:102210007B6820337A6823320092012201923F4882
:102220001D211A46022309F05FF802467B681A63F3
:102230007B681B6B002B03DA394807F04BFD69E024
:102240007B68262283F820207B68002283F82120E7
:102250007B68203331481D211A46022309F010F80B
:102260000346DB0FDBB2002B03D02C482E4908F0CD
:1022700027FF7B68232283F820207B68042283F8D1
:1022800021207B68203325481D211A46022308F0AF
:10229000F7FF0346DB0FDBB2002B03D01F482249B8
:1022A00008F00EFF7B68122283F820207B68092249
:1022B00083F821207B68203318481D211A46022309
:1022C00008F0DEFF0346DB0FDBB2002B03D0134820
:1022D000154908F0F5FE7B680022A3F842207B68D0
:1022E0000022A3F844207B680022A3F846207B68E4
:1022F0000022A3F84E207B680022A3F850207B68C0
:102300000022A3F852207B68002283F83A20074875
:1023100007F0E0FC2C37BD4690BD00BF9C2000209C
:10232000A47B0108BC7B0108A0860100D47B0108C6
:1023300080B584B002AF78607B68233318460021F3
:10234000062206F039FD7B6820331846002103225F
:1023500006F032FD7B68A82283F820207B682033BA
:102360007A68233200920622019260481D211A46A3
:10237000012308F0B9FF02467B681A637B681B6B78
:10238000002B0DDA5A4807F0A5FC5848594908F0C7
:1023900097FE7B68233318460021062206F00CFDC9
:1023A0007B6893F824301B029AB27B6893F8233041
:1023B00019467B68B3F842309BB2CB1A9BB29BB2F2
:1023C00013439AB27B689A877B6893F826301B0286
:1023D0009AB27B6893F8253019467B68B3F844308D
:1023E0009BB2CB1A9BB29BB213439AB27B68DA873B
:1023F0007B6893F828301B029AB27B6893F82730E9
:1024000019467B68B3F846309BB2CB1A9BB29BB29D
:1024100013439AB27B68A3F840207B68882283F834
:1024200020207B6820337A682332009206220192B2
:102430002E481D211A46012308F056FF02467B68EC
:102440001A637B681B6B002B0DDA2B4807F042FCEC
:102450002648284908F034FE7B68233318460021BB
:10246000062206F0A9FC7B6893F824301B029AB27E
:102470007B6893F8233019467B68B3F84E309BB2E3
:10248000CB1A9BB29BB213439AB27B68A3F8482045
:102490007B6893F826301B029AB27B6893F825304C
:1024A00019467B68B3F850309BB2CB1A9BB29BB2F3
:1024B00013439AB27B68A3F84A207B6893F82830CC
:1024C0001B029AB27B6893F8273019467B68B3F8F1
:1024D00052309BB2CB1A9BB29BB213439AB27B6829
:1024E000A3F84C200837BD4680BD00BF9C200020CB
:1024F000E47B0108A0860100147C010880B485B04B
:1025000000AFF86079813A81FB807A89FB68A3F893
:1025100042203A89FB68A3F84420FA88FB68A3F8B4
:102520004620FB68012283F83A201437BD465DF847
:10253000047B704780B483B000AF78607B689B8F6A
:102540009AB27B68B3F842309BB2D31A9BB29BB26B
:102550001BB218460C37BD465DF8047B704700BFC0
:1025600080B483B000AF78607B68DB8F9AB27B6801
:10257000B3F844309BB2D31A9BB29BB21BB218463D
:102580000C37BD465DF8047B704700BF80B483B054
:1025900000AF78607B68B3F840309AB27B68B3F8DC
:1025A00046309BB2D31A9BB29BB21BB218460C3773
:1025B000BD465DF8047B704780B483B000AF78609F
:1025C0007B68B3F848309AB27B68B3F84E309BB260
:1025D000D31A9BB29BB21BB218460C37BD465DF8AE
:1025E000047B704780B483B000AF78607B68B3F839
:1025F0004A309AB27B68B3F850309BB2D31A9BB280
:102600009BB21BB218460C37BD465DF8047B704781
:1026100080B483B000AF78607B68B3F84C309AB276
:102620007B68B3F852309BB2D31A9BB29BB21BB2F9
:1026300018460C37BD465DF8047B704780B483B004
:1026400000AF78607B68B3F842301BB218460C3795
:10265000BD465DF8047B704780B483B000AF7860FE
:102660007B68B3F844301BB218460C37BD465DF8A2
:10267000047B704780B483B000AF78607B68B3F8A8
:1026800046301BB218460C37BD465DF8047B7047D8
:1026900080B483B000AF78607B68B3F84E301BB273
:1026A00018460C37BD465DF8047B704780B483B094
:1026B00000AF78607B68B3F850301BB218460C3717
:1026C000BD465DF8047B704780B483B000AF78608E
:1026D0007B68B3F852301BB218460C37BD465DF824
:1026E000047B704790B58BB000AF78607B681B7837
:1026F00083F00103DBB2002B07D17B68043318465B
:10270000FFF7AEFC0346002B01D1012300E00023BC
:10271000002B15D07B681C1D07F10C0318461221F5
:1027200008F0CCF807F10C0320461946FFF7C2FC6D
:102730007B680433184601210122012308F0F2F8D6
:102740007B6801221A707B68202283F820207B6836
:102750000F2283F821207B6820333E486B211A46E4
:10276000022308F08DFD0346DB0FDBB2002B03D004
:102770003848394908F0A4FC7B68212283F82020DE
:102780007B68002283F821207B68203331486B214D
:102790001A46022308F074FD0346DB0FDBB2002B60
:1027A00003D02C482C4908F08BFC7B68222283F84C
:1027B00020207B68002283F821207B682033254875
:1027C0006B211A46022308F05BFD0346DB0FDBB2E8
:1027D000002B03D01F48204908F072FC7B6823229D
:1027E00083F820207B68202283F821207B681B4A05
:1027F000DA637B68203317486B211A46022308F0FE
:102800003FFD0346DB0FDBB2002B03D0114812491A
:1028100008F056FC7B68242283F820207B68002285
:1028200083F821207B6820330A486B211A46022353
:1028300008F026FD0346DB0FDBB2002B03D0054872
:10284000054908F03DFC064807F044FA2C37BD4620
:1028500090BD00BF9C200020A0860100295C8F3D18
:10286000447C010880B485B000AFF86079813A817A
:10287000FB807A89FB68A3F846203A89FB68A3F8B5
:102880004820FA88FB68A3F84A201437BD465DF853
:10289000047B704780B584B002AF78607B682333D7
:1028A00018460021062206F087FA7B682033184676
:1028B0000021032206F080FA7B68A82283F82020FA
:1028C0007B6820337A6823320092062201922E48D8
:1028D0006B211A46012308F007FD02467B681A6344
:1028E0007B681B6B002B0DDA284807F0F3F92648AC
:1028F000274908F0E5FB7B682333184600210622B0
:1029000006F05AFA7B6893F824301B029AB27B686F
:1029100093F8233019467B68B3F846309BB2CB1A44
:102920009BB29BB213439AB27B68A3F840207B68AA
:1029300093F826301B029AB27B6893F8253019462B
:102940007B68B3F848309BB2CB1A9BB29BB213435F
:102950009AB27B68A3F842207B6893F828301B0268
:102960009AB27B6893F8273019467B68B3F84A30EF
:102970009BB2CB1A9BB29BB213439AB27B68A3F86B
:1029800044200837BD4680BD9C200020747C01088F
:10299000A086010080B483B000AF78607B68B3F894
:1029A00040301BB206EE903AB8EEE67A7B68D3ED83
:1029B0000F7A27EE277A7B68B3F846301BB206EE13
:1029C000903AF8EEE67A77EE677A17EE903A184684
:1029D0000C37BD465DF8047B704700BF80B483B000
:1029E00000AF78607B68B3F842301BB206EE903AD5
:1029F000B8EEE67A7B68D3ED0F7A27EE277A7B680C
:102A0000B3F848301BB206EE903AF8EEE67A77EE6D
:102A1000677A17EE903A18460C37BD465DF8047B8E
:102A2000704700BF80B483B000AF78607B68B3F8B4
:102A300044301BB206EE903AB8EEE67A7B68D3EDEE
:102A40000F7A27EE277A7B68B3F84A301BB206EE7E
:102A5000903AF8EEE67A77EE677A17EE903A1846F3
:102A60000C37BD465DF8047B704700BF80B483B06F
:102A700000AF78607B68B3F846301BB218460C375D
:102A8000BD465DF8047B704780B483B000AF7860CA
:102A90007B68B3F848301BB218460C37BD465DF86A
:102AA000047B704780B483B000AF78607B68B3F874
:102AB0004A301BB218460C37BD465DF8047B7047A0
:102AC00080B582B000AF78607B680A4A1A600A4815
:102AD00005F0A8FF7B680433184606F019F90023B7
:102AE000002B02D0786806F029FA7B681846083770
:102AF000BD4680BD18920108A47C010880B582B053
:102B000000AF78607868FFF7DBFF786806F016FAA8
:102B10007B6818460837BD4680BD00BF80B483B0CF
:102B200000AF02460B46FA80BB80B7F90620B7F922
:102B300004309A4201DDBB8800E0FB881BB21846D6
:102B40000C37BD465DF8047B704700BF80B483B08E
:102B500000AF02460B46FA80BB80B7F90620B7F9F2
:102B600004309A4201DDFB8800E0BB881BB21846A6
:102B70000C37BD465DF8047B704700BF80B582B05E
:102B800000AF78607B6804331846002107F096FE9A
:102B90007B6818460837BD4680BD00BF80B582B04F
:102BA00000AF78607B6804331846002107F086FE8A
:102BB0007B6818460837BD4680BD00BF80B584B02D
:102BC00000AFF860B960C7E90023FB681846B96830
:102BD00064224FF4FA630EF0BBFDFB68124A1A60E0
:102BE000FB6858331846002107F068FEFB68743311
:102BF0001846002107F062FEFB6890331846FFF785
:102C0000BDFFFB68DC331846FFF7C8FFF968D7E95A
:102C10000023C1E91423FB68002283F83421FB68F8
:102C200018461037BD4680BD0092010880B483B0BD
:102C300000AF78600B46FB707B68FA7883F834212C
:102C40000C37BD465DF8047B704700BF80B582B08D
:102C500000AF786039603B681A787B681A707B68CF
:102C60001A1D3B68043310461946FFF723FA7B68A8
:102C70003A68203320321268114619800233120C50
:102C80001A707B683A68233323321168196092887E
:102C90009A807B683A682A332A32116819609288D0
:102CA0009A807B683A683033303292E8030083E8D8
:102CB00003003B681A8F7B681A873B68DA6B7B6876
:102CC000DA633B68B3F840207B68A3F840203B6898
:102CD000B3F842207B68A3F842203B68B3F8442055
:102CE0007B68A3F844203B68B3F846207B68A3F8D0
:102CF00046203B68B3F848207B68A3F848203B682F
:102D0000B3F84A207B68A3F84A207B681846083746
:102D1000BD4680BD80B582B000AF786039603B6849
:102D20001A787B681A707B681A1D3B68043310465A
:102D30001946FFF7BFF97B683A68203320321268E2
:102D4000114619800233120C1A707B683A682333DB
:102D500023321168196092889A807B683A682A3316
:102D60002A321168196092889A807B683A683033F9
:102D7000303292E8030083E803003B681A8F7B68D7
:102D80001A873B6893F83A207B6883F83A203B68BF
:102D90009A8F7B689A873B68DA8F7B68DA873B6813
:102DA000B3F840207B68A3F840203B68B3F842208A
:102DB0007B68A3F842203B68B3F844207B68A3F803
:102DC00044203B68B3F846207B68A3F846203B6864
:102DD000B3F848207B68A3F848203B68B3F84A2042
:102DE0007B68A3F84A203B68B3F84C207B68A3F8C3
:102DF0004C203B68B3F84E207B68A3F84E203B681C
:102E0000B3F850207B68A3F850203B68B3F85220F9
:102E10007B68A3F852203B68B3F854207B68A3F882
:102E200054207B6818460837BD4680BD90B5B5B0C4
:102E300000AF78607B68D3E91423324806F04AFF7C
:102E40007B6803F1580407F10C031846372107F09B
:102E500035FD07F10C0320461946FFF72BF97B6877
:102E60005833184601210122012307F05BFD264853
:102E7000264908F025F9C7F8CC00D7F8CC30002B4C
:102E800003D1234806F026FF02E0224806F022FF85
:102E90007B6803F1900407F128024C2310460021BF
:102EA0001A4605F089FF07F128031846FFF766FE6A
:102EB00007F1280320461946FFF7C8FE7B689033C8
:102EC0001846FFF70FFC7B6803F1DC0407F174027E
:102ED0005823104600211A4605F06EFF07F17403CF
:102EE0001846FFF75BFE07F1740320461946FFF70B
:102EF00011FF7B68DC331846FFF7F0F8D437BD4686
:102F000090BD00BFB47C01089C200020A086010079
:102F1000CC7C0108F07C0108B0B58CB000AF7860C3
:102F20000023FB620023BB6200237B6200233B6221
:102F30000023FB610023BB6100237B6100233B6115
:102F40000023FB600023FB7288E07B689033184607
:102F5000FFF7A0FC7B6890331846FFF71BFD07EED8
:102F6000100AFB6A06EE903AF8EEE67A77EE877A78
:102F7000FDEEE77A17EE903AFB627B6890331846D5
:102F8000FFF72CFD07EE100ABB6A06EE903AF8EE4A
:102F9000E67A77EE877AFDEEE77A17EE903ABB6233
:102FA0007B6890331846FFF73DFD07EE100A7B6AF9
:102FB00006EE903AF8EEE67A77EE877AFDEEE77A5B
:102FC00017EE903A7B627B68DC331846FFF7B0F966
:102FD0007B68DC331846FFF7ADFA03463A6A1344C0
:102FE0003B627B68DC331846FFF7BAFA0346FA699E
:102FF0001344FB617B68DC331846FFF7C7FA0346CE
:10300000BA691344BB617B68DC331846FFF7D4FA16
:1030100003467A6913447B617B68DC331846FFF70B
:10302000E1FA03463A6913443B617B68DC33184696
:10303000FFF7EEFA0346FA681344FB6006F0EEF879
:103040004E4A4FF00003121843EB01031046194695
:1030500000220EF0CDFCFB7A0133FB72FB7A632B6E
:103060007FF673AF7B6803F19000FB6A444A82FBF2
:1030700003125211DB17D31A99B2BB6A404A82FB82
:1030800003C25211DB17D31A9AB27B6A3C4C84FB01
:1030900003C46411DB17E31A9BB2FFF7E3FB7B6801
:1030A00003F1DC003B6A364A82FB03125211DB1744
:1030B000D31A99B2FB69324A82FB03C25211DB1761
:1030C000D31A9AB2BB692E4C84FB03C46411DB177C
:1030D000E31A9BB2FFF712FA2A4B1B78002B4AD057
:1030E0007B6890331846FFF7C1FC03461D467B689A
:1030F00090331846FFF7C8FC03461C467B689033A4
:103100001846FFF7CFFC03461F482946224606F023
:10311000E1FD7B68DC331846FFF790FA03461D4655
:103120007B68DC331846FFF797FA03461C467B683A
:10313000DC331846FFF79EFA034614482946224618
:1031400006F0C8FD7B68DC331846FFF7A1FA03469A
:103150001D467B68DC331846FFF7A8FA03461C4679
:103160007B68DC331846FFF7AFFA03460848294668
:10317000224606F0AFFD3037BD46B0BD80969800C0
:103180001F85EB5164010020347D0108507D01084A
:103190006C7D010880B584B000AFF860C7E90023FA
:1031A000F968D7E90023C1E91423064B1B78002BEB
:1031B00005D0FB68D3E91423034806F08BFD1037D4
:1031C000BD4680BD64010020887D0108000000002C
:1031D0002DE9B0438EB004AF78607868FFF79CFEAD
:1031E00006F01CF802460B46104619467B68D3E9E8
:1031F0001423121843EB01031046194600220EF067
:10320000F7FB7B6890331846FFF744FB7B689033ED
:103210001846FFF7BFFB0346BB607B689033184638
:10322000FFF7DCFB0346FB607B6890331846FFF733
:10323000F9FB03463B617B68DC331846FFF778F8FF
:103240007B68DC331846FFF775F90346BB837B6860
:10325000DC331846FFF784F90346FB837B68DC33D5
:103260001846FFF793F903463B847B68DC33184626
:10327000FFF7A2F903461A46934B1A807B68DC33AA
:103280001846FFF7AFF903461A468F4B5A807B6802
:10329000DC331846FFF7BCF903461A468A4B9A807E
:1032A0007B6893F83431002B6BD0874B1A88874B9F
:1032B0001B8812B21BB210461946FFF72FFC0346BB
:1032C0001A46824B1A80804B5A88804B5B8812B218
:1032D0001BB210461946FFF721FC03461A467B4BEA
:1032E0005A80794B9A88794B9B8812B21BB2104650
:1032F0001946FFF713FC03461A46744B9A80724B2B
:103300001A88734B1B8812B21BB210461946FFF77E
:103310001DFC03461A466E4B1A806B4B5A886C4B49
:103320005B8812B21BB210461946FFF70FFC03462A
:103330001A46674B5A80644B9A88654B9B8812B239
:103340001BB210461946FFF701FC03461A46604BB4
:103350009A805E4B1B8819B25C4B5B881AB25B4B40
:103360009B881BB25B4806F0B5FC594B1B8819B211
:10337000574B5B881AB2564B9B881BB2564806F0D7
:10338000A9FCBB8A1AB2504B1B881BB2D31A002B64
:10339000B8BF5B421E2B2ADCFB8A1AB24A4B5B8801
:1033A0001BB2D31A002BB8BF5B421E2B1FDC3B8B1A
:1033B0001AB2454B9B881BB2D31A002BB8BF5B4295
:1033C0001E2B14DC7B68DC331846FFF7F5F8034648
:1033D000BB827B68DC331846FFF704F90346FB82A7
:1033E0007B68DC331846FFF713F903463B83D7EDC0
:1033F000047AFDEEE77A17EE903A002BB8BF5B42F5
:10340000012B3ADD7B6890331846FFF70BFB034630
:103410001846FDF721F804460D467B68D3E91423CE
:1034200010461946FDF736F802460B461046194677
:1034300023A3D3E90023FDF78DF902460B4620466E
:103440002946FDF75DF802460B4614461D46234B00
:103450001B681846FDF700F802460B461046194651
:1034600022462B46FCF79AFE02460B4610461946AA
:10347000FDF728FB0246194B1A60194B1B78002BED
:103480004AD0BB681846FCF7E7FF04460D46FB68C8
:103490001846FCF7E1FF804689463B691846FCF771
:1034A000DBFF02460B46CDE90089CDE902230D483A
:1034B00022462B4606F00EFCBB8B19B214E000BF6F
:1034C0000000000065CDCD412C0C00200000002044
:1034D00008000020A47D0108B87D0108340C0020FC
:1034E000A0C60020CC7D0108FB8B1AB23B8C1BB21E
:1034F0000A4806F0EFFBBB8A19B2FB8A1AB23B8B73
:103500001BB2074806F0E6FB786AFCF7A5FF024607
:103510000B46044806F0DEFB62E600BFDC7D0108D6
:10352000EC7D0108FC7D010880B584B000AFF86037
:10353000B9607A60FB681846B96806227B6805F0B6
:10354000D9FEFB68034A1A60FB6818461037BD466F
:1035500080BD00BFF091010880B584B000AFF86075
:10356000B9607A60FB681846B9680C227B6805F080
:10357000C1FEFB68034A1A60FB6818461037BD4657
:1035800080BD00BFE091010880B584B000AFF86055
:10359000B9607A60FB681846B96804227B6805F058
:1035A000A9FEFB68034A1A60FB6818461037BD463F
:1035B00080BD00BFD091010880B582B000AF7860B7
:1035C0007B68084A1A607B6818460EF02FF90023C2
:1035D000002B02D0786805F0B1FC7B6818460837EC
:1035E000BD4680BD0092010880B582B000AF786012
:1035F0007868FFF7E1FF786805F0A0FC7B68184663
:103600000837BD4680BD00BF80B582B000AF78608E
:1036100039607B68012B46D13A684FF6FF739A42B6
:1036200041D122484FF0FF31214AFFF77DFF1F486B
:103630002049214A0EF09AFF20484FF0FF31204ADE
:10364000FFF772FF1D481B491B4A0EF08FFF1D48F4
:103650004FF0FF311C4AFFF77FFF1A481B49164AFB
:103660000EF084FF1A484FF0FF311A4AFFF78CFF23
:1036700017481949104A0EF079FF18484FF0FF31EA
:10368000174AFFF781FF154813490B4A0EF06EFFEA
:1036900014484FF0FF31144AFFF776FF11480E49E6
:1036A000054A0EF063FF0837BD4680BD540B00206D
:1036B000087E0108A53700081CCB0020780B0020ED
:1036C000187E01089C0B0020287E0108493700085D
:1036D000C00B0020307E0108ED360008E40B00200E
:1036E0003C7E0108080C0020487E010880B582B0AD
:1036F00000AF78607B680A4A1A600A4805F092F9C0
:103700007B681846FFF7DCF90023002B02D07868AD
:1037100005F014FC7B6818460837BD4680BD00BF25
:10372000D0910108587E010880B582B000AF786062
:103730007868FFF7DBFF786805F000FC7B681846C7
:103740000837BD4680BD00BF80B582B000AF78604D
:103750007B680A4A1A600A4805F064F97B681846D3
:10376000FFF7AEF90023002B02D0786805F0E6FBE6
:103770007B6818460837BD4680BD00BFE091010850
:10378000587E010880B582B000AF78607868FFF796
:10379000DBFF786805F0D2FB7B6818460837BD462A
:1037A00080BD00BF80B582B000AF78607B680A4AF8
:1037B0001A600A4805F036F97B681846FFF780F969
:1037C0000023002B02D0786805F0B8FB7B68184610
:1037D0000837BD4680BD00BFF0910108587E010842
:1037E00080B582B000AF78607868FFF7DBFF78685B
:1037F00005F0A4FB7B6818460837BD4680BD00BFB6
:1038000080B500AF01204FF6FF71FFF7FDFE80BDD0
:1038100080B584B000AFF860B9607A60FB68184684
:10382000B96864224FF4FA630DF092FFFB68164A00
:103830001A60FB687A681A65D7E906230EA1D1E9F8
:103840000001994208BF904206D3F9680CA3D3E95E
:103850000023C1E9162304E0F968D7E90623C1E98A
:103860001623FB68012283F86020FB681846103796
:10387000BD4680BDAFF30080FFE0F505000000000D
:1038800000E1F5050000000038920108AFF3008068
:1038900080B483B000AF78607B68012283F8602039
:1038A0000C37BD465DF8047B704700BF80B483B021
:1038B00000AF78607B68002283F860200C37BD463B
:1038C0005DF8047B704700BF80B58AB002AF7860B6
:1038D0007B681B6D1846254907F0F2FBF861FB6910
:1038E000002B03D1224806F0F5F902E0214806F04A
:1038F000F1F900233B7503237B7500233B747B6840
:103900001A6D07F1140307F11001009101210191D3
:10391000104629211A46022307F0E6FCB861164832
:10392000B96906F0D7F93B7C1A463B7C032B14BFE0
:1039300000230123DBB211481146032206F0CAF925
:1039400081233B7300237B737B681A6D07F10C03A3
:10395000104629211A46022307F092FCB861084854
:10396000B96906F0B7F92037BD4680BDA0860100D1
:10397000787E0108987E0108A87E0108D07E0108A3
:10398000F87E010880B58CB002AF78600023FB613F
:1039900000233B6200233B830023BB820023FB8484
:1039A0000023BB84AC233B74AE233B730023BB607A
:1039B00005F034FC02460B46104619467B68D3E9F5
:1039C0001623121843EB01031046194600220EF08D
:1039D0000FF87B6893F86030002B52D07B681A6D2B
:1039E00007F1100307F1180100910221019110461F
:1039F00029211A46012307F077FC0346FB617B6807
:103A00001A6D07F10C0307F11401009102210191D5
:103A1000104629211A46012307F066FC03463B6243
:103A20003B6A002B1FDDFB69002B1CD03B7E1B0279
:103A30009AB27B7E1344FB843B7D1B029AB27B7D52
:103A40001344BB84FA8CBB8C786811461A4600F08C
:103A500021F80346BB6007F108030A481946012212
:103A600000F0DCF80DE0084B1B78002B09D007486C
:103A700006F030F9FA693B6A054811461A4606F025
:103A800029F995E7380C002064010020187F01080F
:103A9000387F010880B48DB000AF786013460A46C5
:103AA0007A803B8047F217533B627B883A6A02FB7D
:103AB00003F39B0AFB613B883A6A02FB03F39B0A10
:103AC000BB610023FB62FB69002B05D0BB699A0236
:103AD000FB69B2FBF3F3FB62FB6A01335B087B61BA
:103AE0007B69432B06D84FF40173BB6240F2AD13E0
:103AF0007B6247E07B69852B06D84FF40A73BB6273
:103B000040F2C1237B623DE07B69C82B06D840F2BE
:103B10005323BB6240F263337B6233E07B69B3F5CE
:103B2000857F06D840F28223BB6240F2DF337B629E
:103B300028E07B69B3F5A77F06D240F27713BB621A
:103B400040F2DD137B621DE07B69B3F5CD7F06D8C3
:103B500040F20113BB6240F227137B6212E07A69E4
:103B600040F29A239A4204D83723BB622B237B620C
:103B700008E07A6940F29A239A4203D90023BB6293
:103B800000237B62FB69BA6A02FB03F2BB69796AB4
:103B900001FB03F3D31A3B613B6903F500533B611F
:103BA0003B699B0BFB60FB6818463437BD465DF8EC
:103BB000047B704780B584B000AFF860C7E900238C
:103BC000F968D7E90023C1E91623064B1B78002BBF
:103BD00005D0FB68D3E91623034806F07BF81037BD
:103BE000BD4680BD640100204C7F010880B584B0D3
:103BF00000AFF860B9607A60FB681846B9680422C3
:103C00007B6805F077FBFB68034A1A60FB6818467F
:103C10001037BD4680BD00BF2892010880B584B032
:103C200000AFF860B9601346FB71FA68FB79104683
:103C3000B9681A46002305F0CDFB03461846103735
:103C4000BD4680BD80B582B000AF78607B68084A11
:103C50001A607B6818460DF0E9FD0023002B02D0A6
:103C6000786805F06BF97B6818460837BD4680BD5B
:103C70003892010880B582B000AF78607868FFF7AD
:103C8000E1FF786805F05AF97B6818460837BD46A9
:103C900080BD00BF80B582B000AF786039607B68BE
:103CA000012B0FD13A684FF6FF739A420AD10748A9
:103CB0004FF0FF31064AFFF799FF04480549064ACD
:103CC0000EF054FC0837BD4680BD00BF380C002004
:103CD000707F0108DD3C00081CCB002080B582B05D
:103CE00000AF78607B680A4A1A600A4804F09AFEBE
:103CF0007B681846FEF7E4FE0023002B02D07868AC
:103D000005F01CF97B6818460837BD4680BD00BF2A
:103D1000289201087C7F010880B582B000AF7860EE
:103D20007868FFF7DBFF786805F008F97B681846CC
:103D30000837BD4680BD00BF80B500AF01204FF6FB
:103D4000FF71FFF7A7FF80BD80B582B000AF78603C
:103D5000144801210122012306F0E4FD124801214B
:103D60000122002306F0DEFD10480021012200237D
:103D700006F0D8FD0E4801210122002306F0D2FDF5
:103D80000C484FF47A714FF47A7207F0F3FF094848
:103D9000322108F051FC7B6800221A800837BD46AA
:103DA00080BD00BF5C0C0020780C0020940C00202B
:103DB000B00C0020CC0C002080B582B000AF786041
:103DC0000448012106F0BCFE034B01221A7008379B
:103DD000BD4680BDB00C0020E80C002080B582B04C
:103DE00000AF78600B467B801C4B1B7883F001038F
:103DF000DBB2002B02D07868FFF7DEFFB7F90230A4
:103E0000B3F5967F02DD4FF496737B80B7F90230ED
:103E100013F5967F02DA4FF6D4637B80B7F9023050
:103E20007868194600F022F8B7F90230002BB8BFC5
:103E30005B420B48194608F0FFFB7B687A881A80C2
:103E4000084B1B78002B05D0B7F9023006481946FD
:103E500005F040FF0837BD4680BD00BFE80C0020DC
:103E6000CC0C002064010020987F010880B582B04E
:103E700000AF78600B467B80B7F90230002B08DD7D
:103E80000948012106F05CFE0848002106F058FEB2
:103E900007E00548002106F053FE0448012106F022
:103EA0004FFE0837BD4680BD5C0C0020780C00201A
:103EB00080B483B000AF78607B681B881BB2184663
:103EC0000C37BD465DF8047B704700BF80B582B0FB
:103ED00000AF786039607B68012B18D13A684FF6E3
:103EE000FF739A4213D10B48242106F0E7FC0A48DD
:103EF000112106F0E3FC09483C2106F0DFFC0848EC
:103F0000422106F0DBFC07480C2107F009FF0837C7
:103F1000BD4680BD5C0C0020780C0020940C002075
:103F2000B00C0020CC0C002080B500AF01204FF673
:103F3000FF71FFF7CBFF80BD80B582B000AF786026
:103F400039607B681846396864224FF4FA630DF0D3
:103F5000FFFB7B68034A1A607B6818460837BD463A
:103F600080BD00BF7892010880B582B000AF786054
:103F70007B6850331846FFF7E7FE054B1B78002B94
:103F800002D0044805F0A6FE0837BD4680BD00BF3C
:103F9000640100208480010880B483B000AF7860A1
:103FA0000C37BD465DF8047B704700BF80B582B01A
:103FB00000AF78600B467B807B6803F15002B7F955
:103FC000023010461946FFF709FF7B685033184648
:103FD000FFF76EFF03461A46084B1A800848074948
:103FE000012200F041F8054B1B881BB20548194619
:103FF00005F070FE0837BD4680BD00BF500D0020A3
:10400000EC0C00209480010880B584B000AFF8600B
:10401000B9607A60FB681846B96802227B6805F0CF
:1040200069F9FB68034A1A60FB6818461037BD46F9
:1040300080BD00BF6892010880B582B000AF786093
:104040007B681846FDF762FC7B68064A1A607B684D
:104050000022DA607B6800229A607B681846083785
:10406000BD4680BD5092010880B584B000AFF860B5
:10407000B9601346FB71FA68FB791046B9681A46B5
:10408000002305F0A7F9034618461037BD4680BD4A
:1040900080B582B000AF78607B68084A1A607B68A0
:1040A0001846FDF7F1F90023002B02D0786804F0E0
:1040B00045FF7B6818460837BD4680BD5092010811
:1040C00080B582B000AF78607868FFF7E1FF78686C
:1040D00004F034FF7B6818460837BD4680BD00BF3A
:1040E00080B582B000AF78607B68084A1A607B6850
:1040F00018460DF09BFB0023002B02D0786804F0DB
:104100001DFF7B6818460837BD4680BD78920108C0
:1041100080B582B000AF78607868FFF7E1FF78681B
:1041200004F00CFF7B6818460837BD4680BD00BF11
:1041300080B584B002AF786039607B68012B24D1F0
:104140003A684FF6FF739A421FD111484FF0FF3182
:10415000104AFFF759FF0E480F49104A0EF006FAB1
:104160000F48FFF769FF0E480E490C4A0EF0FEF9A2
:10417000002300930C480649094A0C4B04F0E8FE62
:1041800009480B49054A0EF0F1F90837BD4680BDD4
:10419000EC0C0020A4800108E94100081CCB0020A1
:1041A000100D002091400008200D0020B48001086F
:1041B0002D14000880B584B000AFF860B9607A6053
:1041C0003B607B68022B04D9064804F02BFC0023DB
:1041D00004E0F868396800F035F8034618461037EF
:1041E000BD4680BDCC80010880B582B000AF78604C
:1041F0007B680A4A1A600A4804F014FC7B68184677
:10420000FEF75EFC0023002B02D0786804F096FED7
:104210007B6818460837BD4680BD00BF689201081C
:10422000DC80010880B582B000AF78607868FFF765
:10423000DBFF786804F082FE7B6818460837BD46CD
:1042400080BD00BF80B584B000AF786039607B6806
:104250009B687868194600F01DF8F8607B68DA689A
:10426000FB689A4214BF00230123DBB2002B01D06C
:1042700000230BE07B689B683A68128879685B00D2
:104280000B449A807B68FA689A60012318461037BD
:10429000BD4680BD80B483B000AF786039603B68B4
:1042A000002B02DC3B68013300E0002318460C378A
:1042B000BD465DF8047B704780B500AF01204FF626
:1042C000FF71FFF735FF80BD80B584B000AFF860A7
:1042D000B960C7E90023FB681846B96864224FF447
:1042E000FA630DF035FAFB68094A1A60F968D7E9F4
:1042F0000023C1E91623FB68012283F86020FB68D4
:10430000BA691A65FB6818461037BD4680BD00BF04
:104310009092010880B582B000AF78607B681B6D19
:104320001846002105F00EFE0837BD4680BD00BFCF
:1043300080B584B000AF78607B6893F86030002B64
:104340001CD004F06BFF02460B46104619467B68F2
:10435000D3E91623121843EB010310461946002235
:104360000DF046FB786800F01FF80346FB6007F18C
:104370000C0303481946012200F056F8DCE700BFA1
:10438000540D002080B582B000AF78607B681B6D53
:104390001846002105F09AFE034618460837BD4628
:1043A00080BD00BF0000000080B582B000AF786023
:1043B0007868FFF7E7FF03461846FCF73BF802462C
:1043C0000B461046194612A3D3E90023FCF7C2F9A5
:1043D00002460B46104619460FA3D3E90023FCF70B
:1043E0008FF802460B46104619460DA3D3E9002369
:1043F000FCF786F802460B4610461946FCF762FBAE
:10440000034618460837BD4680BD00BFAFF30080A5
:104410000000000000FEAF400000006066660A4039
:10442000000000A099990D4080B584B000AFF860FD
:10443000B9601346FB71FA68FB791046B9681A46F1
:10444000002304F0C7FF034618461037BD4680BD61
:1044500080B582B000AF78607B68084A1A607B68DC
:1044600018460DF0E3F90023002B02D0786804F021
:1044700065FD7B6818460837BD4680BD90920108EF
:1044800080B582B000AF78607868FFF7E1FF7868A8
:1044900004F054FD7B6818460837BD4680BD00BF58
:1044A00080B582B000AF786039607B68012B0FD196
:1044B0003A684FF6FF739A420AD107484FF0FF312E
:1044C000064AFFF761F804480549064A0EF04EF81F
:1044D0000837BD4680BD00BF540D0020FC80010898
:1044E000ED3600081CCB002080B500AF01204FF650
:1044F000FF71FFF7D5FF80BD80B584B000AFF860D5
:10450000B9607A60FB681846B96801227B6804F0DC
:10451000F1FEFB68034A1A60FB6818461037BD4677
:1045200080BD00BFA892010880B584B000AFF860DC
:10453000B9601346FB71FA68FB791046B9681A46F0
:10454000002304F047FF034618461037BD4680BDE0
:1045500080B582B000AF786039607B68012B0FD1E5
:104560003A684FF6FF739A420AD1074848F207713A
:10457000064AFFF7C1FF04480549064A0DF0F6FF59
:104580000837BD4680BD00BF780D0020308101088E
:10459000994500081CCB002080B582B000AF786040
:1045A0007B680A4A1A600A4804F03CFA7B6818469D
:1045B000FEF786FA0023002B02D0786804F0BEFCD8
:1045C0007B6818460837BD4680BD00BFA892010829
:1045D0003C81010880B582B000AF78607868FFF751
:1045E000DBFF786804F0AAFC7B6818460837BD46F4
:1045F00080BD00BF80B500AF01204FF6FF71FFF70F
:10460000A7FF80BD80B483B000AF7860054A7B68A7
:1046100043F0BF6343F40033D3600C37BD465DF80D
:10462000047B704700ED00E080B485B000AF786097
:104630000023FB730023BB730F237B737B68DB7842
:10464000002B37D0254BDB68DB4303F4E0631B0A08
:10465000FB73FB7BC3F10403BB737A7BFB7B42FAE6
:1046600003F37B737B685B781A46BB7B02FA03F328
:10467000FB737B689A787B7B1340DAB2FB7B134336
:10468000FB73FB7B1B01FB73154A7B681B78134490
:10469000FA7B83F80023124B7A6812785209D2B25F
:1046A0007968097801F01F01012000FA01F143F84F
:1046B00022100EE00A4B7A6812785209D2B2796859
:1046C000097801F01F01012000FA01F1203243F8BE
:1046D00022101437BD465DF8047B704700ED00E002
:1046E00000E100E080B485B000AFF860B9607A60A6
:1046F0007B80FB68BA681A60FB687A685A60FB685E
:104700007A881A81FB683A8B5A81FB6818461437FD
:10471000BD465DF8047B704780B584B000AF78601B
:10472000172001210AF0C8FE414806210D220AF097
:1047300031FB3F4804210D220AF02CFB3D480721A4
:104740000D220AF027FB3C4806210D220AF022FB2D
:10475000394807210D220AF01DFB384800210D229F
:104760000AF018FB354801210D220AF013FB3348EB
:1047700004210D220AF00EFB2E4806210D220AF01C
:1047800009FB2E4805210D220AF004FB2B480621C7
:104790000D220AF0FFFA5023BB6002233B73032370
:1047A0007B730023BB730123FB7307F108032048CD
:1047B00019460AF01DFAC023BB6002233B73002395
:1047C000BB7307F108031B4819460AF011FAC0230E
:1047D000BB6007F10803184819460AF009FA732369
:1047E000BB6007F10803154819460AF001FA0120D9
:1047F00001210AF061FE0E48082100220AF0CAFADF
:104800004FF48073BB6002233B7303237B7300234D
:10481000FB730023BB7307F10803054819460AF030
:10482000E7F9002000210AF07FFD1037BD4680BD6A
:104830000000024000040240000802400010024054
:1048400080B598B000AF7860012001210AF052FED7
:1048500009F0E0FD7B685B89A7F850300023A7F8DA
:1048600052302023A7F854308023A7F85630402335
:10487000A7F858307B681B89A7F85A300023A7F89F
:104880005C304FF4800001210AF016FE334809F035
:10489000A5FE4FF00073BB60314BFB607B685B682B
:1048A0003B6100237B617B681B689B08BB61002325
:1048B000FB614FF480633B624FF480537B624FF4A3
:1048C0008043BB624FF48073FB624FF440333B6321
:1048D00004237B630323BB630023FB6300233B644C
:1048E00007F15003184609F0B3FD07F108031B4810
:1048F000194609F045FF1948102101220AF006F86F
:104900001648042101220AF001F84FF4C060FFF7B5
:1049100079FE4E2387F84C30022387F84D3002236E
:1049200087F84E30012387F84F3007F14C031846C3
:10493000FFF77AFE392387F84C30012387F84D3092
:10494000012387F84E30012387F84F3007F14C03DD
:104950001846FFF769FE6037BD4680BD28640240F7
:104960002800055080B582B000AF78600820012192
:1049700009F0E4FD1020012109F0E0FD01200121F2
:1049800009F0DCFD0220012109F0D8FD04200121FD
:1049900009F0D4FD0448012109F048FF012009F085
:1049A00095FD0837BD4680BD2864024080B588B0BB
:1049B00000AF78604FF4001001210AF0B9FD022029
:1049C00001210AF079FD07F1180318460AF09EF953
:1049D0004FF44073BB6102233B7700237B770123B5
:1049E000BB770123FB7707F118031E4819460AF02D
:1049F000FFF81C48082104220AF0CCF919480921C3
:104A000004220AF0C7F907F1080318460AF004FB6C
:104A100015480AF005FA144801210AF01BFB00238F
:104A2000BB814BF6FF73FB8100233B824FF4806315
:104A30007B824FF48043BB820C4BBB600A484FF42F
:104A4000807101220AF0C2FB07F1080306481946EB
:104A50000AF020FA044801210AF0FCFA2037BD468A
:104A600080BD00BF0004024000540040A086010049
:104A700080B584B000AFF860B960FA71BB7100E036
:104A800000BFB8684FF400310AF0F4FB0346002B76
:104A90000CBF00230123DBB2002BF1D1B868012148
:104AA0000AF0F8FA00E000BFB8681C490AF0B2FB4F
:104AB0000346002B14BF00230123DBB2002BF2D1ED
:104AC000FA79BB79B86811461A460AF023FBBB791C
:104AD000002B0ED100E000BFB86811490AF09AFB24
:104AE0000346002B14BF00230123DBB2002BF2D1BD
:104AF00010E0BB79012B0DD100E000BFB868094977
:104B00000AF088FB0346002B14BF00230123DBB20D
:104B1000002BF2D11037BD4680BD00BF010003005D
:104B2000820007000200030080B584B000AFF86087
:104B3000B9601346FB71FB79B86819460AF028FB87
:104B400000E000BFB86807490AF064FB0346002B89
:104B500014BF00230123DBB2002BF2D11037BD4676
:104B600080BD00BF8400070080B584B000AF7860CE
:104B70003960386800210AF0EBFA00E000BF3868BD
:104B80000A490AF047FB0346002B14BF0023012308
:104B9000DBB2002BF2D138680AF00AFB0346FB7344
:104BA000FB7B18461037BD4680BD00BF40000300A8
:104BB00080B582B000AF78603960386801210AF0B2
:104BC00089FA0837BD4680BD80B584B000AF7860F3
:104BD0000B46FB700023FB7378684FF47A7100F08A
:104BE00083F87868204942220023FFF741FF786864
:104BF0004FF47A7100F078F8FB7878681A491A4611
:104C0000FFF792FF78684FF47A7100F06DF87868DA
:104C10001549FFF7CDFF78684FF47A7100F064F81A
:104C20007868114943220123FFF722FF78684FF487
:104C30007A7100F059F878680B49FFF795FF034641
:104C4000FB7378684FF47A7100F04EF87868064983
:104C5000FFF7AEFF78684FF47A7100F045F8FB7B00
:104C600018461037BD4680BD0054004080B582B064
:104C700000AF786013460A46FA70BB7078684FF44C
:104C80007A7100F031F87868164942220023FFF764
:104C9000EFFE78684FF47A7100F026F8FB787868B8
:104CA00010491A46FFF740FF78684FF47A7100F018
:104CB0001BF8BB7878680B491A46FFF735FF786810
:104CC0004FF47A7100F010F878680649FFF770FF2A
:104CD00078684FF47A7100F007F800231846083717
:104CE000BD4680BD0054004080B483B000AF786002
:104CF000396003E03B68013B3B6000BF3B68012B30
:104D0000F8D80C37BD465DF8047B704780B500AF1E
:104D1000094804F0DFFF0948094909F031FE03465C
:104D2000012B14BF00230123DBB2002B03D0034867
:104D3000034909F0BDFD80BD4C810108A06002401F
:104D40000080202080B500AF1348144909F018FEF8
:104D50000346012B14BF00230123DBB2002B06D036
:104D60000F4800F09DFC0C480C4909F0A1FD0A48D1
:104D70000C4909F005FE0346012B14BF0023012353
:104D8000DBB2002B06D0084804F0A4FF0248054916
:104D900009F08EFD80BD00BF28640240008800102D
:104DA000F8230020002200105C81010880B500AFCC
:104DB000082009F0F3FB0346012B14BF0023012355
:104DC000DBB2002B0ED02F4B1B68002B03D12D4BD9
:104DD00001221A6002E02B4B00221A60082009F021
:104DE000CDFB4DE0102009F0D9FB0346012B14BF89
:104DF00000230123DBB2002B10D0224B1B68012BB8
:104E000005D1214B1B685A1C1F4B1A6002E01E4B38
:104E100000221A60102009F0B1FB31E0012009F0F6
:104E2000BDFB0346012B14BF00230123DBB2002B83
:104E300003D0012009F0A2FB22E0042009F0AEFB20
:104E40000346012B14BF00230123DBB2002B06D045
:104E50000E4804F03FFF042009F090FB10E0022010
:104E600009F09CFB0346012B14BF00230123DBB296
:104E7000002B05D0064804F02DFF022009F07EFB30
:104E800080BD00BF600100209C0D002068810108EA
:104E90007C81010880B483B000AF786039607B68A2
:104EA0000E4A1A603B685A687B685A603B689A6889
:104EB0007B689A603B68DA687B68DA603B681A69ED
:104EC0007B681A613B685A697B685A617B6818463F
:104ED0000C37BD465DF8047B704700BFB0940108F5
:104EE00080B582B000AF786039607A683B68104660
:104EF0001946FFF7CFFF7B68054A1A603B689A693D
:104F00007B689A617B6818460837BD4680BD00BF44
:104F10008896010880B586B002AFF860B9607A6003
:104F2000FB681846B96864224FF4FA630CF010FC71
:104F3000FB68204A1A60FB6803F15002FB68B43337
:104F400002210091104649F240711A460023FFF7F2
:104F5000C9FBFB68603318463D2105F0AFFCFB68D8
:104F60007C3318460A2105F0A9FCFB6898331846E3
:104F7000212105F0A3FCFB6803F51743F83318461D
:104F80007968FFF7ADFFFB6803F51843163300227D
:104F90001A70FB6803F51843143300221A70FB687B
:104FA00003F51843153300221A70FB6818461037B2
:104FB000BD4680BDC892010880B588B002AF786058
:104FC000354804F087FE0023FB8200233B617B68A9
:104FD0005C33184612218022FFF748FE03463B61EE
:104FE0007B685C33184612210022FFF73FFE034620
:104FF0003B613EE0FB8A2948194604F06BFE7B6862
:1050000003F15C01FA8A264B13F81220FB8A24482C
:105010005B0003445B78084611461A46FFF726FEFC
:1050200003463B617B6803F15C02F98A1C4B13F871
:10503000113010461946FFF7C7FD0346FB73F98A86
:10504000FA8A174B13F812301A46FB8A14485B0091
:1050500003445B78F87B0090124804F03BFE3B6908
:10506000002B03D01048396904F034FEFB8A013369
:10507000FB82FA8A0A4B13F81230FF2B06D0FB8A08
:10508000074A5B0013445B78FF2BB3D1074804F059
:1050900021FE1837BD4680BD98810108B481010802
:1050A00010000020D0810108F88101080882010861
:1050B00080B582B000AF7860364804F00BFE7B68A4
:1050C0006033184601210122002305F02BFC7B6888
:1050D0007C33184601210122002305F023FC7B6864
:1050E0009833184601210122002305F01BFC7B6840
:1050F0007C331846012105F023FD7B689833184660
:10510000002105F01DFD244804F0E4FD7B685033C8
:105110001846FFF701FB214804F0DCFD204804F0AD
:10512000D9FD7B6850331846FFF78AFB1B4804F013
:10513000D1FD1C4804F0CEFD78684FF47A7100F080
:105140004BFB7B685C331846FFF730FC134804F0D8
:10515000C1FD154804F0BEFD78684FF47A7100F087
:105160003BFB7868FFF728FF0C4804F0B3FD0F48BD
:1051700004F0B0FD78684FF47A7100F02DFB7B6885
:1051800050331846FFF7EEFB094804F0A3FD08373B
:10519000BD4680BD2482010838820108488201088A
:1051A00050820108608201086C8201087C8201083B
:1051B0008C82010880B483B000AF78607B6803F50F
:1051C0001843163301221A700C37BD465DF8047B74
:1051D000704700BF80B582B000AF7860012009F051
:1051E00091F90837BD4680BD80B5ADF5966D00AF2D
:1051F0003B1D18600023C7F8AC340BE007F5F873CB
:10520000D7F8AC24002143F82210D7F8AC3401338E
:10521000C7F8AC34D7F8AC349F2BEFDD0023C7F8C8
:10522000A8340BE007F10C03D7F8A824002143F8B9
:105230002210D7F8A8340133C7F8A834D7F8A83417
:10524000782BEFDD0023C7F8A4346EE00023C7F805
:10525000A03461E0D7F8A42413469B0013445B01FB
:105260001A46D7F8A03413445B003A1D1268134461
:1052700093F8B430C82B4AD907F5F873D7F8A024AF
:1052800053F82210D7F8A42413469B0013445B0163
:105290001A46D7F8A03413445B003A1D1268134431
:1052A00093F8B430194407F5F873D7F8A02443F8FD
:1052B000221007F10C03D7F8A42453F82210D7F8D2
:1052C000A42413469B0013445B011A46D7F8A0346C
:1052D00013445B003A1D1268134493F8B430194428
:1052E00007F10C03D7F8A42443F82210D7F8A4241C
:1052F00013469B0013445B011A46D7F8A0341344AD
:105300005B003A1D12681344FF2283F8B420D7F8DB
:10531000A0340133C7F8A034D7F8A0349F2B99DD0F
:10532000D7F8A4340133C7F8A434D7F8A434782BC1
:105330008CDD0023C7F89C340023C7F89834002381
:10534000C7F894340023C7F890340FE007F5F873DA
:10535000D7F8902453F82230D7F898241344C7F88C
:105360009834D7F890340133C7F89034D7F8903494
:105370009F2BEBDD0023C7F88C340023C7F888345B
:105380000023C7F884340023C7F8783466E007F5B3
:10539000F873D7F89C2453F82230D7F89424134498
:1053A000C7F89434D7F89C340133C7F89C34D7F845
:1053B000983406EE903AB8EEE67AF5EE007A27EEEB
:1053C000277AD7F8943406EE903AF8EEE67AB4EEFF
:1053D000E77AF1EE10FA07D5D7F88C34002B03D119
:1053E000D7F89C34C7F88C34D7F8983407EE903A45
:1053F000B8EEE77AF6EE007A27EE277AD7F89434FB
:1054000006EE903AF8EEE67AB4EEE77AF1EE10FAAC
:1054100007D5D7F88434002B03D1D7F89C34C7F8CC
:105420008434D7F8983407EE903AB8EEE77AF6EE7F
:10543000087A27EE277AD7F8943406EE903AF8EEF9
:10544000E67AB4EEE77AF1EE10FA07D5D7F88834A9
:10545000002B03D1D7F89C34C7F88834D7F894349C
:1054600007EE903AB8EEE77AD7F8983407EE903A1C
:10547000F8EEE76AF6EE087A66EEA77AB4EEE77A17
:10548000F1EE10FA83D4D7F88824D7F88C34D31AE5
:10549000C7F878340023C7F89C340023C7F8983441
:1054A0000023C7F894340023C7F880340FE007F1D5
:1054B0000C03D7F8802453F82230D7F898241344EB
:1054C000C7F89834D7F880340133C7F88034D7F858
:1054D0008034782BEBDD0023C7F88C340023C7F829
:1054E00088340023C7F87C340023C7F8743466E09E
:1054F00007F10C03D7F89C2453F82230D7F89424F2
:105500001344C7F89434D7F89C340133C7F89C345B
:10551000D7F8983406EE903AB8EEE67AF5EE007ACF
:1055200027EE277AD7F8943406EE903AF8EEE67A2A
:10553000B4EEE77AF1EE10FA07D5D7F88C34002BE9
:1055400003D1D7F89C34C7F88C34D7F8983407EED9
:10555000903AB8EEE77AF6EE007A27EE277AD7F897
:10556000943406EE903AF8EEE67AB4EEE77AF1EE8D
:1055700010FA07D5D7F87C34002B03D1D7F89C3428
:10558000C7F87C34D7F8983407EE903AB8EEE77A4B
:10559000F6EE087A27EE277AD7F8943406EE903A9A
:1055A000F8EEE67AB4EEE77AF1EE10FA07D5D7F81E
:1055B0008834002B03D1D7F89C34C7F88834D7F847
:1055C000943407EE903AB8EEE77AD7F8983407EEBD
:1055D000903AF8EEE76AF6EE087A66EEA77AB4EE4D
:1055E000E77AF1EE10FA83D4D7F88824D7F88C3410
:1055F000D31AC7F87434D7F874345A00D7F878340B
:105600009A42ACBF00230123DBB287F87334D7F88A
:1056100084349AB23B1D1B6803F51743F6331A8096
:10562000D7F87C349AB23B1D1B6803F51743F4335B
:105630001A803B1D1B6803F51743F43314481946C1
:10564000012200F01BF907F27343124819460122A8
:10565000FEF76AFF3B1D1B6803F51743F4331B88F5
:105660001AB23B1D1B6803F51743F6331B881BB2A8
:10567000094811461A4604F02DFB97F87334074881
:10568000194604F027FB07F59667BD4680BD00BFAD
:10569000A00D0020C40D0020A4820108B8820108DA
:1056A00080B483B000AF78607B6803F5184315338E
:1056B00001221A700C37BD465DF8047B704700BFAD
:1056C00080B584B000AF78607B6803F5184315336C
:1056D0001B78002B71D07B6803F5184316331B78B9
:1056E000002B4AD0384802F001FC7B6803F51743D1
:1056F000F83318463549062207F080FD0023FB6089
:1057000027E07A68FB681344B0331B7907F108027D
:1057100010462F491A460CF037FF7B6803F51743F4
:10572000F83307F1080218461146042207F066FD17
:1057300000BF7B6803F51743F833184607F02AFECD
:10574000034683F00103DBB2002BF2D1FB68023386
:10575000FB60FA6849F23F739A42D2DD7B6803F539
:105760001743F83318461B49062207F047FD7B68AC
:1057700003F51843163300221A707B6803F51843AB
:10578000153300221A707868FFF72EFD7B6803F549
:10579000184314331B78002B02D07868FFF71AFDEA
:1057A00003F03CFD06A3D3E90023121843EB0103E9
:1057B0001046194600220CF01BF985E7AFF3008074
:1057C00000C2EB0B0000000010BC0020C4820108E6
:1057D000CC820108D482010880B483B000AF786025
:1057E000396003E03B68013B3B6000BF3B68012B35
:1057F000F8D80C37BD465DF8047B704780B582B0A1
:1058000000AF78607B6803F51843143301221A70E7
:10581000044804F05FFA7868FFF7DCFC0837BD46FF
:1058200080BD00BFDC82010880B582B000AF786027
:105830007B6803F51843143300221A70024804F001
:1058400049FA0837BD4680BDE882010880B584B0BA
:1058500000AFF860B9607A60FB681846B968042246
:105860007B6803F047FDFB68034A1A60FB68184633
:105870001037BD4680BD00BFB892010880B584B026
:1058800000AFF860B9601346FB71FA68FB79104607
:10589000B9681A46002303F09DFD034618461037E9
:1058A000BD4680BD80B582B000AF78607B68084A95
:1058B0001A607B6818460BF0B9FF0023002B02D05A
:1058C000786803F03BFB7B6818460837BD4680BD0F
:1058D000C892010880B582B000AF78607868FFF7A1
:1058E000E1FF786803F02AFB7B6818460837BD465D
:1058F00080BD00BF80B582B000AF786039607B6842
:10590000012B1AD13A684FF6FF739A4215D10C4811
:105910004FF0FF310B4AFFF799FF09480A490B4A3C
:105920000CF024FE0A484FF0FF310A4AFEF7E4FD6E
:1059300007480949054A0CF019FE0837BD4680BDE5
:10594000A00D0020F88201085D5900081CCB002042
:10595000C40D0020088301089945000880B582B075
:1059600000AF78607B680A4A1A600A4803F05AF868
:105970007B681846FDF7A4F80023002B02D0786856
:1059800003F0DCFA7B6818460837BD4680BD00BFCF
:10599000B89201081483010880B582B000AF786026
:1059A0007868FFF7DBFF786803F0C8FA7B68184671
:1059B0000837BD4680BD00BF80B500AF01204FF65F
:1059C000FF71FFF797FF80BD80B584B000AFF8602E
:1059D000B9607A60FB681846B96864224FF4FA63CC
:1059E0000BF0B6FEFB68074A1A60F968D7E9062390
:1059F000C1E91623FB687A681A65FB6818461037F8
:105A0000BD4680BD0893010880B582B000AF7860C4
:105A10007B681B6D18464FF4E13107F021FB083716
:105A2000BD4680BD90B5A9B002AF78600023C7F82D
:105A3000943079687B68D3E91623CDE900230846C2
:105A40004FF000024FF0000303F068FB60E07B685A
:105A50001B6D1B6818331B687A68126D10469847D7
:105A60000346002B28D07B681A6D07F10C03104603
:105A70001946402207F054FBC7F8940007F10C02C6
:105A800007F14C0378681146D7F8942000F060F8CD
:105A90000346002B06D007F14C0322481946012289
:105AA00000F00AF907F14C0207F14C0307331E48D6
:105AB00011461A4604F00EF907F14C031B4819462B
:105AC00000F00EF90346002B1AD007F10C0207F183
:105AD0004C03786811461A46002300F097F87B685B
