:020000040800F2
:10000000000002200D9300087993000879930008FE
:1000100079930008799300087993000800000000A4
:1000200000000000000000000000000065F400086F
:10003000799300080000000079F40008A5F7000893
:100040007993000879930008799300087993000860
:10005000799300087993000879930008299B000898
:100060004D9B0008719B0008959B00087993000840
:10007000D1BD000879930008F9BC00087993000805
:1000800089BD0008B54B00087993000879930008F2
:10009000799300087993000879930008B99B0008C8
:1000A0007993000879930008799300087993000800
:1000B00079930008799300087993000879930008F0
:1000C00079930008799300087993000879930008E0
:1000D0007993000821BC000839BC000851BC000815
:1000E000159C00087993000879930008799300081B
:1000F00079930008799300087993000879930008B0
:10010000799300087993000871F500087993000845
:1001100069BC000881BC00087993000855F9000803
:1001200079930008ED4B0008799300087993000853
:10013000799300087993000879930008799300086F
:10014000799300087993000879930008799300085F
:1001500041BD000879930008B1BC000899BC0008B3
:10016000799300087993000879930008799300083F
:100170007993000879930008554C0008799300089A
:0C01800079930008799300080000000843
:1001900081F0004102E000BF83F0004330B54FEA38
:1001A00041044FEA430594EA050F08BF90EA020FA5
:1001B0001FBF54EA000C55EA020C7FEA645C7FEA38
:1001C000655C00F0E2804FEA5454D4EB5555B8BF5B
:1001D0006D420CDD2C4480EA020281EA030382EACC
:1001E000000083EA010180EA020281EA0303362D5E
:1001F00088BF30BD11F0004F4FEA01314FF4801C31
:100200004CEA113102D0404261EB410113F0004F42
:100210004FEA03334CEA133302D0524263EB4303F9
:1002200094EA050F00F0A780A4F10104D5F1200E97
:100230000DDB02FA0EFC22FA05F2801841F10001F2
:1002400003FA0EF2801843FA05F359410EE0A5F1C6
:1002500020050EF1200E012A03FA0EFC28BF4CF0F7
:10026000020C43FA05F3C01851EBE37101F00045AD
:1002700007D54FF0000EDCF1000C7EEB00006EEBBA
:100280000101B1F5801F1BD3B1F5001F0CD3490844
:100290005FEA30004FEA3C0C04F101044FEA44529B
:1002A00012F5800F80F09A80BCF1004F08BF5FEA22
:1002B000500C50F1000041EB045141EA050130BD02
:1002C0005FEA4C0C404141EB010111F4801FA4F1A5
:1002D0000104E9D191F0000F04BF01460020B1FAFA
:1002E00081F308BF2033A3F10B03B3F120020CDA32
:1002F0000C3208DD02F1140CC2F10C0201FA0CF010
:1003000021FA02F10CE002F11402D8BFC2F1200C74
:1003100001FA02F120FA0CFCDCBF41EA0C0190402A
:10032000E41AA2BF01EB0451294330BD6FEA040473
:100330001F3C1CDA0C340EDC04F11404C4F120025E
:1003400020FA04F001FA02F340EA030021FA04F370
:1003500045EA030130BDC4F10C04C4F1200220FAC7
:1003600002F001FA04F340EA0300294630BD21FA05
:1003700004F0294630BD94F0000F83F4801306BFCB
:1003800081F480110134013D4EE77FEA645C18BFBF
:100390007FEA655C29D094EA050F08BF90EA020F56
:1003A00005D054EA000C04BF1946104630BD91EA4E
:1003B000030F1EBF0021002030BD5FEA545C05D151
:1003C0004000494128BF41F0004130BD14F5800490
:1003D0003CBF01F5801130BD01F0004545F0FE4104
:1003E00041F470014FF0000030BD7FEA645C1ABF39
:1003F000194610467FEA655C1CBF0B46024650EA70
:10040000013406BF52EA033591EA030F41F400219B
:1004100030BD00BF90F0000F04BF0021704730B521
:100420004FF4806404F132044FF000054FF00001F6
:1004300050E700BF90F0000F04BF0021704730B5B7
:100440004FF4806404F1320410F0004548BF40428C
:100450004FF000013EE700BF42004FEAE2014FEAE1
:1004600031014FEA02701FBF12F07F4393F07F4FBC
:1004700081F06051704792F0000F14BF93F07F4FEE
:10048000704730B54FF4607401F0004521F0004131
:1004900020E700BF50EA010208BF704730B54FF0B7
:1004A00000050AE050EA010208BF704730B511F0BC
:1004B000004502D5404261EB41014FF4806404F1F4
:1004C00032045FEA915C3FF4DCAE4FF003025FEA76
:1004D000DC0C18BF03325FEADC0C18BF033202EBFE
:1004E000DC02C2F1200300FA03FC20FA02F001FA58
:1004F00003FE40EA0E0021FA02F11444C1E600BFF7
:1005000070B54FF0FF0C4CF4E06C1CEA11541DBFA9
:100510001CEA135594EA0C0F95EA0C0F00F0DEF874
:100520002C4481EA030621EA4C5123EA4C5350EA59
:10053000013518BF52EA033541F4801143F48013AA
:1005400038D0A0FB02CE4FF00005E1FB02E506F03B
:100550000042E0FB03E54FF00006E1FB03569CF090
:10056000000F18BF4EF0010EA4F1FF04B6F5007F96
:1005700064F5407404D25FEA4E0E6D4146EB060608
:1005800042EAC62141EA55514FEAC52040EA5E5091
:100590004FEACE2EB4F1FD0C88BFBCF5E06F1ED83B
:1005A000BEF1004F08BF5FEA500E50F1000041EB72
:1005B000045170BD06F0004646EA010140EA02001F
:1005C00081EA0301B4EB5C04C2BFD4EB0C0541EA41
:1005D000045170BD41F480114FF0000E013C00F356
:1005E000AB8014F1360FDEBF002001F0004170BD7A
:1005F000C4F10004203C35DA0C341BDC04F1140493
:10060000C4F1200500FA05F320FA04F001FA05F21E
:1006100040EA020001F0004221F0004110EBD370EB
:1006200021FA04F642EB06015EEA430E08BF20EA17
:10063000D37070BDC4F10C04C4F1200500FA04F3BA
:1006400020FA05F001FA04F240EA020001F000414C
:1006500010EBD37041F100015EEA430E08BF20EABF
:10066000D37070BDC4F1200500FA05F24EEA020E07
:1006700020FA04F301FA05F243EA020321FA04F036
:1006800001F0004121FA04F220EA020000EBD370ED
:100690005EEA430E08BF20EAD37070BD94F0000FED
:1006A0000FD101F00046400041EB010111F4801F21
:1006B00008BF013CF7D041EA060195F0000F18BFD2
:1006C000704703F00046520043EB030313F4801F0E
:1006D00008BF013DF7D043EA0603704794EA0C0FC8
:1006E0000CEA135518BF95EA0C0F0CD050EA4106DE
:1006F00018BF52EA4306D1D181EA030101F000415B
:100700004FF0000070BD50EA410606BF1046194682
:1007100052EA430619D094EA0C0F02D150EA01368E
:1007200013D195EA0C0F05D152EA03361CBF1046CF
:1007300019460AD181EA030101F0004141F0FE416E
:1007400041F470014FF0000070BD41F0FE4141F4F2
:10075000780170BD70B54FF0FF0C4CF4E06C1CEAF2
:1007600011541DBF1CEA135594EA0C0F95EA0C0FA7
:1007700000F0A7F8A4EB050481EA030E52EA033562
:100780004FEA013100F088804FEA03334FF0805583
:1007900045EA131343EA12634FEA022245EA1115B0
:1007A00045EA10654FEA00260EF000419D4208BF61
:1007B000964244F1FD0404F5407402D25B084FEA0E
:1007C0003202B61A65EB03055B084FEA32024FF4BA
:1007D00080104FF4002CB6EB020E75EB030E22BF17
:1007E000B61A754640EA0C005B084FEA3202B6EBD7
:1007F000020E75EB030E22BFB61A754640EA5C0086
:100800005B084FEA3202B6EB020E75EB030E22BF15
:10081000B61A754640EA9C005B084FEA3202B6EB16
:10082000020E75EB030E22BFB61A754640EADC00D5
:1008300055EA060E18D04FEA051545EA16754FEA37
:1008400006164FEAC30343EA52734FEAC2025FEA55
:100850001C1CC0D111F4801F0BD141EA00014FF0E4
:1008600000004FF0004CB6E711F4801F04BF0143B5
:100870000020B4F1FD0C88BFBCF5E06F3FF6AFAED1
:10088000B5EB030C04BFB6EB020C5FEA500C50F161
:10089000000041EB045170BD0EF0004E4EEA1131E4
:1008A00014EB5C04C2BFD4EB0C0541EA045170BDEB
:1008B00041F480114FF0000E013C90E645EA060E2F
:1008C0008DE60CEA135594EA0C0F08BF95EA0C0F5D
:1008D0003FF43BAF94EA0C0F0AD150EA01347FF4A5
:1008E00034AF95EA0C0F7FF425AF104619462CE77C
:1008F00095EA0C0F06D152EA03353FF4FDAE1046DF
:10090000194622E750EA410618BF52EA43067FF42F
:10091000C5AE50EA41047FF40DAF52EA43057FF4BF
:10092000EBAE12E74FF0FF3C06E000BF4FF0010CCA
:1009300002E000BF4FF0010C4DF804CD4FEA410C2E
:100940007FEA6C5C4FEA430C18BF7FEA6C5C1BD0FB
:1009500001B050EA410C0CBF52EA430C91EA030F7C
:1009600002BF90EA020F0020704710F1000F91EAD9
:10097000030F58BF994208BF90422CBFD8176FEAA7
:10098000E37040F0010070474FEA410C7FEA6C5C75
:1009900002D150EA013C07D14FEA430C7FEA6C5C7C
:1009A000D6D152EA033CD3D05DF8040B704700BFA8
:1009B0008446104662468C461946634600E000BFF6
:1009C00001B5FFF7B7FF002848BF10F1000F01BDC8
:1009D0004DF808EDFFF7F4FF0CBF012000205DF893
:1009E00008FB00BF4DF808EDFFF7EAFF34BF012018
:1009F00000205DF808FB00BF4DF808EDFFF7E0FFB1
:100A000094BF012000205DF808FB00BF4DF808ED01
:100A1000FFF7CEFF94BF012000205DF808FB00BF68
:100A20004DF808EDFFF7C4FF34BF012000205DF84A
:100A300008FB00BF4FEA410212F5001215D211D592
:100A40006FF47873B3EB625212D94FEAC12343F0CB
:100A5000004343EA505311F0004F23FA02F018BF4D
:100A6000404270474FF00000704750EA013005D116
:100A700011F0004008BF6FF0004070474FF00000D9
:100A8000704700BF4A0011D212F5001211D20DD5E5
:100A90006FF47873B3EB62520ED44FEAC12343F084
:100AA000004343EA505323FA02F070474FF000002E
:100AB000704750EA013002D14FF0FF3070474FF0DD
:100AC000000070474FEA4102B2F1E04324BFB3F5A2
:100AD000001CDCF1FE5C0DD901F0004C4FEAC002B5
:100AE0004CEA5070B2F1004F40EB830008BF20F099
:100AF0000100704711F0804F21D113F13872BCBF53
:100B000001F00040704741F480114FEA5252C2F1A7
:100B10001802C2F1200C10FA0CF320FA02F018BFF0
:100B200040F001004FEAC1234FEAD32303FA0CFC43
:100B300040EA0C0023FA02F34FEA4303CCE77FEAD2
:100B4000625307D150EA01331EBF4FF0FE4040F41C
:100B50004000704701F0004040F0FE4040F40000CB
:100B6000704700BF80F0004002E000BF81F000410C
:100B700042001FBF5FEA410392EA030F7FEA226C43
:100B80007FEA236C6AD04FEA1262D2EB1363C1BFD3
:100B9000D218414048404140B8BF5B42192B88BF42
:100BA000704710F0004F40F4000020F07F4018BF65
:100BB000404211F0004F41F4000121F07F4118BF85
:100BC000494292EA030F3FD0A2F1010241FA03FC2D
:100BD00010EB0C00C3F1200301FA03F100F0004315
:100BE00002D5494260EB4000B0F5000F13D3B0F1DD
:100BF000807F06D340084FEA310102F10102FE2A4C
:100C000051D2B1F1004F40EBC25008BF20F00100BB
:100C100040EA03007047490040EB000010F4000F69
:100C2000A2F10102EDD1B0FA80FCACF1080CB2EBFC
:100C30000C0200FA0CF0AABF00EBC250524218435B
:100C4000BCBFD0401843704792F0000F81F4000100
:100C500006BF80F400000132013BB5E74FEA4103D3
:100C60007FEA226C18BF7FEA236C21D092EA030F3F
:100C700004D092F0000F08BF0846704790EA010FB9
:100C80001CBF0020704712F07F4F04D1400028BFE6
:100C900040F00040704712F100723CBF00F50000C8
:100CA000704700F0004343F0FE4040F400007047FE
:100CB0007FEA226216BF08467FEA236301464202AA
:100CC00006BF5FEA412390EA010F40F480007047BD
:100CD0004FF0000304E000BF10F0004348BF404263
:100CE0005FEA000C08BF704743F0964301464FF09F
:100CF00000001CE050EA010208BF70474FF00003FB
:100D00000AE000BF50EA010208BF704711F000433B
:100D100002D5404261EB41015FEA010C02BF84460B
:100D20000146002043F0B64308BFA3F18053A3F56A
:100D30000003BCFA8CF2083AA3EBC25310DB01FAB1
:100D400002FC634400FA02FCC2F12002BCF1004F35
:100D500020FA02F243EB020008BF20F001007047C6
:100D600002F1200201FA02FCC2F1200250EA4C001A
:100D700021FA02F243EB020008BF20EADC70704760
:100D800073B96AB9002908BF0028BCBF00204FF022
:100D90000041C4BF6FF000414FF0FF3000F08CB84D
:100DA00082B0EC462DE9005000F056F8DDF804E082
:100DB00002B00CBC704700BF4BB942B9002908BF54
:100DC000002802D04FF0FF31084600F075B882B01D
:100DD000EC462DE9005000F057F8DDF804E002B0D1
:100DE0000CBC704738B50022002304460D46FFF7BF
:100DF000F9FD28B920462946BDE8384000F00AB878
:100E0000204605F1004100F005F8404261EB410148
:100E100038BD00BF70B500220D4B04460D46FFF7EC
:100E20006FFBFFF72FFE0646FFF7F4FA0022094B8F
:100E3000FFF766FB02460B4620462946FFF7ACF952
:100E4000FFF720FE002242EA00042046314670BD32
:100E50000000F03D0000F0412DE97043069E14466D
:100E60001D468046894600F029F804FB01F300FB8B
:100E70000533A4FB00451D44B8EB040469EB0505EC
:100E8000C6E90045BDE870832DE97043069E14460F
:100E9000804689461D4600F05DF900FB05F504FB20
:100EA0000153A0FB04451D44B8EB040469EB0505A0
:100EB000C6E90045BDE87083704700BF00292DE9F1
:100EC000F00FC0F29F800024002BC0F296801546E0
:100ED00006460F46002B3ED18A4257D9B2FA82F31A
:100EE0004BB1C3F1200201FA03F720FA02F29D4050
:100EF000174300FA03F6290CB7FBF1F2330C01FBA0
:100F0000127CA8B243EA0C4700FB02F3BB4209D9AA
:100F10007F1902F1FF3C80F00181BB4240F2FE806C
:100F2000023A2F44FF1AB7FBF1F3B6B201FB13717B
:100F300046EA014100FB03F0884208D9491903F150
:100F4000FF3780F0ED80884240F2EA80023B43EABE
:100F50000242002303E08B420AD900231A461046BE
:100F6000194614B1404261EB4101BDE8F00F7047F2
:100F7000B3FA83F8B8F1000F40F084808B4202D3BB
:100F8000824200F2DE8000230122E8E712B9012349
:100F9000B3FBF2F5B5FA85F2002A39D17F1B280C94
:100FA0001FFA85FC0123B7FBF0F1320C00FB11772F
:100FB00042EA07470CFB01F2BA4207D97F1901F157
:100FC000FF3802D2BA4200F2C1804146BF1AB7FBD5
:100FD000F0F2B6B200FB127046EA00400CFB02FCD5
:100FE000844507D9401902F1FF3702D2844500F247
:100FF000AB803A4642EA0142B1E7E443524263EB36
:10100000430364E7404261EB41014FF0FF345BE78B
:101010009540C2F1200327FA03F1280C26FA03F3C6
:101020009740B1FBF0F81F433B0C00FB18111FFA6F
:1010300085FC43EA01410CFB08F38B4206FA02F6F9
:1010400008D9491908F1FF3279D28B4277D9A8F132
:1010500002082944C91AB1FBF0F3BFB200FB131117
:1010600047EA01470CFB03F2BA4207D97F1903F1A3
:10107000FF3160D2BA425ED9023B2F44BF1A43EA25
:10108000084390E7C8F1200203FA08FC25FA02F3AE
:1010900043EA0C0C4FEA1C4921FA02F301FA08F763
:1010A00020FA02F2B3FBF9F1174309FB11333A0CB2
:1010B0001FFA8CFB42EA03430BFB01FA9A4505FA3F
:1010C00008F008D913EB0C0301F1FF3235D29A4531
:1010D00033D902396344CAEB0303B3FBF9F209FBCA
:1010E0001233BFB247EA03470BFB02F9B94508D9EF
:1010F00017EB0C0702F1FF331BD2B94519D9023A9D
:10110000674442EA0145A5FB0001C9EB07078F428E
:101110004FF000030AD305D02A4620E7624601E7D4
:101120003B4614E706FA08F68642F5D26A1E00230B
:1011300015E71A46E5E70B46A0E71146CBE79046D0
:1011400088E7434642460AE7023A53E702392F440A
:101150003CE700BF2DE9F00F144605460E46002B74
:1011600043D18A4253D9B2FA82F757B1C7F1200668
:1011700020FA06F601FA07F302FA07F41E4300FA12
:1011800007F5210CB6FBF1F22B0C01FB1267A0B2A4
:1011900043EA074600FB02F3B34209D9361902F1CC
:1011A000FF3780F0F680B34240F2F380023A2644E3
:1011B000F61AB6FBF1F3ADB201FB136145EA01414A
:1011C00000FB03F0884208D9091903F1FF3680F0CB
:1011D000E280884240F2DF80023B43EA0242002381
:1011E00010461946BDE8F00F70478B424AD8B3FA53
:1011F00083F6002E4DD18B4202D3824200F2D6807C
:101200000023012210461946BDE8F00F704712B9BD
:101210000124B4FBF2F4B4FA84F2002A7CD1091B55
:10122000260CA7B20123B1FBF6F02A0C06FB101125
:1012300042EA014107FB00F28A4207D9091900F18D
:10124000FF3C02D28A4200F2C3806046891AB1FB99
:10125000F6F2ADB206FB121145EA014507FB02F7B3
:10126000AF4208D92C1902F1FF3180F09680A742D5
:1012700040F29380023A42EA004210461946BDE825
:10128000F00F704700231A4610461946BDE8F00FCC
:101290007047C6F1200522FA05F4B3401C434FEA1B
:1012A000144821FA05F301FA06F720FA05F5B3FB15
:1012B000F8FC2F4308FB1C333D0C1FFA84FA45EA67
:1012C00003430AFB0CF9994502FA06FB04D91B19E2
:1012D0000CF1FF326DD39446C9EB0303B3FBF8F571
:1012E00008FB1533BFB247EA03470AFB05F8B845C8
:1012F00004D93F1905F1FF3361D31D4645EA0C4C73
:10130000ACFB0B23C8EB07079F424FF0000549D306
:1013100045D062462B4663E79440C2F1200321FA90
:1013200003FC260C20FA03F301FA02F5BCFBF6F8E5
:1013300043EA05010B0C06FB18CCA7B243EA0C4CA0
:1013400007FB08F3634500FA02F509D91CEB040C0E
:1013500008F1FF323AD2634538D9A8F10208A44413
:10136000C3EB0C0CBCFBF6F389B206FB13CC41EAD1
:101370000C4107FB03F28A4207D9091903F1FF3038
:1013800022D28A4220D9023B2144891A43EA0843E7
:1013900049E73A460CE733461FE70A466BE7B04099
:1013A0009042B6D20CF1FF32002319E733463246A1
:1013B00016E799458FD9ACF1020C23448CE7B84568
:1013C0009BD9023D274499E70346DEE79046C7E7ED
:1013D000023821443AE700BF80B582B000AF7860A0
:1013E00039607B68012B10D13A684FF6FF739A423F
:1013F0000BD107483C2108F04FF906483D2108F081
:101400004BF905483E2108F047F90837BD4680BD35
:10141000380A0020540A0020700A002080B500AF6E
:1014200001204FF6FF71FFF7D7FF80BD80B582B076
:1014300000AF78607B680A4A1A600A4806F0BCFD73
:101440007B680433184606F02DFF0023002B02D0E2
:10145000786807F03DF87B6818460837BD4680BDC0
:10146000A87C01081863010880B582B000AF7860DD
:101470007868FFF7DBFF786807F02AF87B68184682
:101480000837BD4680BD00BF80B582B000AF786030
:101490007B68064A1A600023002B02D0786807F0A8
:1014A00017F87B6818460837BD4680BDA07901084B
:1014B00080B582B000AF78607868FFF7E5FF7868A4
:1014C00007F006F87B6818460837BD4680BD00BFA8
:1014D00080B584B000AFF860B9607A603B600448C2
:1014E00006F06AFD002318461037BD4680BD00BFD8
:1014F0002C63010880B483B000AF78607B684FF044
:1015000000021A607B684FF000025A607B684FF05F
:1015100000029A607B68154ADA607B68144A1A6197
:101520007B68144A5A617B68134ADA627B684FF021
:1015300000021A627B684FF000025A627B684FF02B
:1015400000029A617B684FF000029A627B684FF05C
:101550000002DA617B684FF000021A637B6818466C
:101560000C37BD465DF8047B704700BF5396EBC156
:10157000D57869BDCE487942CDCCCC3D2DE9B04F70
:101580008AB006AF78607B6830335B48194600F05C
:10159000BDF97B6893ED0C7A7B68D3ED0A7A77EE20
:1015A000677AC7ED037A97ED037ADFED547AB4EEEC
:1015B000E77AF1EE10FA08DD97ED037ADFED507A65
:1015C00077EE677AC7ED037A10E097ED037ADFEDE7
:1015D0004D7AB4EEE77AF1EE10FA07D597ED037A7B
:1015E000DFED477A77EE277AC7ED037AD7ED037AF6
:1015F000B0EEE77AF1EE047AB4EEE77AF1EE10FAA3
:101600000EDD7B6893ED087A7B68D3ED0B6AD7ED2E
:10161000037A66EEA77A77EE277A7B68C3ED087ABD
:101620007B68D3ED067A97ED037A37EE677A7B68AD
:10163000D3ED0B7AC7EE277A7B68C3ED097A7B6816
:1016400093ED037AD7ED037A67EE277A7B68C3EDD3
:10165000007A7B6893ED047A7B68D3ED087A67EEB5
:10166000277A7B68C3ED017A7B6893ED057A7B6806
:10167000D3ED097A67EE277A7B68C3ED027A7B683F
:1016800093ED007A7B68D3ED017A37EE277A7B6899
:10169000D3ED027A77EE277A7B68C3ED077A7B6811
:1016A000FA689A617B68DB691846FEF7D5FE044646
:1016B0000D46F868FEF7D0FE82468B467B689B6A33
:1016C0001846FEF7C9FE804689467B681B6B1846A4
:1016D000FEF7C2FE02460B46CDE900ABCDE902891A
:1016E000CDE90423084822462B4607F0BDFD1037FC
:1016F000BD46BDE8B08F00BF8C0A00200000344317
:101700000000B443000034C3B463010880B483B064
:1017100000AF78607B68D3ED077AFCEEE77A17EECE
:10172000903A9BB218460C37BD465DF8047B704773
:10173000B0B584B002AF786039607B683A689A626D
:101740007B68D3ED0A7AF5EEC07AF1EE10FA13D584
:1017500009E07B6893ED0A7ADFED227A77EE277A4B
:101760007B68C3ED0A7A7B68D3ED0A7AF5EEC07A1E
:10177000F1EE10FAEDD41EE07B6893ED0A7ADFED0E
:10178000197AB4EEE77AF1EE10FA14DD09E07B681D
:1017900093ED0A7ADFED137A77EE677A7B68C3ED13
:1017A0000A7A7B6893ED0A7ADFED0E7AB4EEE77A77
:1017B000F1EE10FAEBDC7B689B6A1846FEF74CFEF4
:1017C00004460D463868FEF747FE02460B46CDE953
:1017D0000023054822462B4607F046FD0837BD4644
:1017E000B0BD00BF0000B443E463010880B483B01F
:1017F00000AF786039607B683A68DA620C37BD46C2
:101800005DF8047B704700BF80B582B000AF7860A0
:1018100039607B683A681A60084B1B78002B09D046
:101820007B681B681846FEF717FE02460B46044805
:1018300007F01AFD0837BD4680BD00BF64010020D7
:101840000464010880B582B000AF786039607B68BD
:101850003A685A60084B1B78002B09D07B685B689C
:101860001846FEF7F9FD02460B46044807F0FCFC5B
:101870000837BD4680BD00BF640100201C6401081C
:1018800080B582B000AF786039607B683A689A6052
:10189000084B1B78002B09D07B689B681846FEF725
:1018A000DBFD02460B46044807F0DEFC0837BD4668
:1018B00080BD00BF640100203464010880B483B09F
:1018C00000AF78607B68044A1A607B6818460C3762
:1018D000BD465DF8047B7047A079010880B582B0F1
:1018E00000AF78607B681846FFF7E8FF7B68064A20
:1018F0001A607B680022DA617B6800229A617B684B
:1019000018460837BD4680BD8879010880B582B089
:1019100000AF786039607B68DA697B689B699A42BE
:1019200014BF00230123DBB2002B01D0002311E000
:101930007B68DB697A689B0013445A683B681A60CD
:101940007B68DB697868194600F008F802467B6816
:10195000DA61012318460837BD4680BD80B483B0E4
:1019600000AF786039603B68032B02DC3B680133D1
:1019700000E0002318460C37BD465DF8047B704735
:1019800080B582B000AF78607B68084A1A607B68D7
:101990001846FFF779FD0023002B02D0786806F087
:1019A00097FD7B6818460837BD4680BD88790108D9
:1019B00080B582B000AF78607868FFF7E1FF7868A3
:1019C00006F086FD7B6818460837BD4680BD00BF1F
:1019D00080B584B002AF786039607B68012B19D183
:1019E0003A684FF6FF739A4214D10C48FFF776FF1E
:1019F0000A480B490B4A0FF0CDFA002300930A481E
:101A00000A49064A0A4B06F06DFD07480949054A8E
:101A10000FF0C0FA0837BD4680BD00BF8C0A002019
:101A20008119000834C80020AC0A0020E40B002013
:101A30004C6401082D14000880B584B000AFF86034
:101A4000B9607A603B607B68042B04D9064806F0D5
:101A5000B3FA002304E0F868396800F007F8034699
:101A600018461037BD4680BD6864010880B584B053
:101A700000AF786039607B689B6978681946FFF72A
:101A80006DFFF8607B68DA69FB689A4214BF002337
:101A90000123DBB2002B01D000230BE07B689B69A4
:101AA0003A68126879689B000B445A607B68FA6850
:101AB0009A61012318461037BD4680BD80B500AF3E
:101AC00001204FF6FF71FFF783FF80BD80B483B024
:101AD00000AF78607B684FF000021A607B684FF0BF
:101AE00000025A607B684FF000029A607B68114ADE
:101AF000DA607B68104A1A617B68104A5A617B6819
:101B00004FF000021A627B684FF000025A627B6855
:101B10004FF000029A617B6800221A857B684FF0C3
:101B20000002DA617B6818460C37BD465DF8047B1D
:101B3000704700BFFDB6FAC2CE8D85BF984C794282
:101B40002DE9F0438BB006AF78607B6830334648B0
:101B5000194600F03FF97B6893ED0E7A7B681B8D88
:101B60001BB206EE903AF8EEE67A77EE677AC7EDAA
:101B7000037AD7ED037AB0EEE77AF1EE047AB4EEA9
:101B8000E77AF1EE10FA09DD7B6893ED087AD7ED7C
:101B9000037A77EE277A7B68C3ED087A7B68D3ED0A
:101BA000067A97ED037A77EE677A7B68C3ED097A58
:101BB0007B6893ED037AD7ED037A67EE277A7B682B
:101BC000C3ED007A7B6893ED047A7B68D3ED087AE5
:101BD00067EE277A7B68C3ED017A7B6893ED057A1F
:101BE0007B68D3ED097A67EE277A7B68C3ED027ACA
:101BF0007B6893ED007A7B68D3ED017A37EE277A24
:101C00007B68D3ED027A77EE277A7B68C3ED077A9B
:101C10007B68FA689A61154B1B78002B1FD07B6894
:101C2000DB691846FEF718FC04460D46F868FEF717
:101C300013FC804689467B681B8D1EB27B689B6BBC
:101C40001846FEF709FC02460B46CDE900890296CC
:101C5000CDE90423064822462B4607F005FB14373E
:101C6000BD46BDE8F08300BFDC0A0020640100200F
:101C70001465010880B582B000AF78600B46FB7038
:101C800097F903309AB27B681A85074B1B78002BB3
:101C900006D07B681B8D1BB20448194607F0E4FA96
:101CA0000837BD4680BD00BF6401002044650108BF
:101CB00080B582B000AF786039607B683A681A609E
:101CC000084B1B78002B09D07B681B681846FEF771
:101CD000C3FB02460B46044807F0C6FA0837BD4668
:101CE00080BD00BF640100205C65010880B582B042
:101CF00000AF786039607B683A685A60084B1B789F
:101D0000002B09D07B685B681846FEF7A5FB0246EE
:101D10000B46044807F0A8FA0837BD4680BD00BF4F
:101D2000640100207465010880B582B000AF78605E
:101D300039607B683A689A60084B1B78002B09D0A1
:101D40007B689B681846FEF787FB02460B460448F3
:101D500007F08AFA0837BD4680BD00BF6401002045
:101D60008C65010880B483B000AF78607B68D3EDE8
:101D7000077AFCEEE77A17EE903A9BB218460C37DA
:101D8000BD465DF8047B704780B483B000AF7860D7
:101D900039607B683A68DA620C37BD465DF8047BCF
:101DA000704700BF80B582B000AF78607B6818468E
:101DB000FFF784FD7B68064A1A607B6800225A643C
:101DC0007B6800221A647B6818460837BD4680BDD0
:101DD000B879010880B582B000AF786039607B685F
:101DE0005A6C7B681B6C9A4214BF00230123DBB240
:101DF000002B01D0002317E07B685A6C39687868A3
:101E000013465B0013449B00C2180B46043207CAFA
:101E100083E807007B685B6C7868194600F008F877
:101E200002467B685A64012318460837BD4680BDC8
:101E300080B483B000AF786039603B68032B02DC6C
:101E40003B68013300E0002318460C37BD465DF8BF
:101E5000047B704780B582B000AF78607B68084A29
:101E60001A607B681846FFF70FFB0023002B02D097
:101E7000786806F02DFB7B6818460837BD4680BDA4
:101E8000B879010880B582B000AF78607868FFF754
:101E9000E1FF786806F01CFB7B6818460837BD46F2
:101EA00080BD00BF80B584B002AF786039607B68C8
:101EB000012B19D13A684FF6FF739A4214D10C489E
:101EC000FFF770FF0A480B490B4A0FF063F8002335
:101ED00000930A480A49064A0A4B06F003FB0748E2
:101EE0000949054A0FF056F80837BD4680BD00BFC6
:101EF000DC0A0020551E000834C80020240B0020F6
:101F00009C0B0020A46501082D14000880B584B046
:101F100000AFF860B9607A603B607B680C2B04D935
:101F2000064806F049F8002304E0F868396800F034
:101F300007F8034618461037BD4680BDBC6501084A
:101F400080B584B000AF786039607B681B6C7868BE
:101F50001946FFF76DFFF8607B685A6CFB689A4280
:101F600014BF00230123DBB2002B01D0002310E0BB
:101F70007B681A6C796813465B0013449B000B4422
:101F80003A68043307CA83E807007B68FA681A6472
:101F9000012318461037BD4680BD00BF80B500AF95
:101FA00001204FF6FF71FFF77DFF80BD0FB480B4B5
:101FB00000AF00231846BD465DF8047B04B07047AF
:101FC00080B483B000AF786039603B685A687B6842
:101FD0005A603B689A687B689A603B68DA687B68FD
:101FE000DA603B681A697B681A613B685A697B68EA
:101FF0005A617B6818460C37BD465DF8047B704714
:1020000080B582B000AF786039607A683B6810466E
:102010001946FFF7D5FF3B689A697B689A617B6830
:1020200018460837BD4680BD90B58DB002AF7860C8
:102030007B681B7883F00103DBB2002B07D17B6840
:1020400004331846FFF7B2FF0346002B01D10123EA
:1020500000E00023002B15D07B681C1D07F10C034A
:102060001846202107F018FB07F10C0320461946FB
:10207000FFF7C6FF7B6804331846012101220123C4
:1020800007F03EFB7B6801221A707B68202283F8F0
:1020900020207B68572283F821207B6820337A68D0
:1020A00023320092012201926F481D211A46022319
:1020B00007F0F6FF02467B681A637B681B6B002BF8
:1020C00003DA6A4807F0D0F8CAE07B68242283F874
:1020D00020207B68F42283F821207B6820337A68F3
:1020E00023320092012201925F481D211A460223E9
:1020F00007F0D6FF02467B681A637B681B6B002BD8
:1021000003DA5A4807F0B0F8AAE07B680F2283F898
:1021100020207B6820337A682332009201220192CA
:1021200051481D211A46012307F0BAFF02467B6879
:102130001A637B681B6B002B04DB7B6893F82330EE
:10214000492B03D04A4807F08FF889E07B682522A5
:1021500083F820207B68002283F821207B682033CD
:102160007A6823320092012201923F481D211A46CB
:10217000022307F095FF02467B681A637B681B6B9E
:10218000002B03DA394807F06FF869E07B682622F4
:1021900083F820207B68002283F821207B6820338D
:1021A00031481D211A46022307F046FF0346DB0F84
:1021B000DBB2002B03D02C482E4907F05DFE7B6874
:1021C000232283F820207B68042283F821207B6867
:1021D000203325481D211A46022307F02DFF034610
:1021E000DB0FDBB2002B03D01F48224907F044FE6F
:1021F0007B68122283F820207B68092283F8212043
:102200007B68203318481D211A46022307F014FF6B
:102210000346DB0FDBB2002B03D01348154907F050
:102220002BFE7B680022A3F842207B680022A3F8E3
:1022300044207B680022A3F846207B680022A3F894
:102240004E207B680022A3F850207B680022A3F870
:1022500052207B68002283F83A20074807F004F8F0
:102260002C37BD4690BD00BF8C200020CC650108F6
:10227000E4650108A0860100FC65010880B584B012
:1022800002AF78607B68233318460021062206F0EF
:102290005DF87B68203318460021032206F056F8CB
:1022A0007B68A82283F820207B6820337A68233259
:1022B00000920622019260481D211A46012307F070
:1022C000EFFE02467B681A637B681B6B002B0DDAFE
:1022D0005A4806F0C9FF5848594907F0CDFD7B68B8
:1022E000233318460021062206F030F87B6893F865
:1022F00024301B029AB27B6893F8233019467B681E
:10230000B3F842309BB2CB1A9BB29BB213439AB242
:102310007B689A877B6893F826301B029AB27B68A9
:1023200093F8253019467B68B3F844309BB2CB1A3A
:102330009BB29BB213439AB27B68DA877B6893F8AF
:1023400028301B029AB27B6893F8273019467B68C5
:10235000B3F846309BB2CB1A9BB29BB213439AB2EE
:102360007B68A3F840207B68882283F820207B6864
:1023700020337A6823320092062201922E481D21D2
:102380001A46012307F08CFE02467B681A637B68BD
:102390001B6B002B0DDA2B4806F066FF26482849F8
:1023A00007F06AFD7B68233318460021062205F0FA
:1023B000CDFF7B6893F824301B029AB27B6893F8B8
:1023C000233019467B68B3F84E309BB2CB1A9BB2D0
:1023D0009BB213439AB27B68A3F848207B6893F8BA
:1023E00026301B029AB27B6893F8253019467B6829
:1023F000B3F850309BB2CB1A9BB29BB213439AB244
:102400007B68A3F84A207B6893F828301B029AB2B5
:102410007B6893F8273019467B68B3F852309BB23B
:10242000CB1A9BB29BB213439AB27B68A3F84C20A1
:102430000837BD4680BD00BF8C2000200C66010817
:10244000A08601003C66010880B485B000AFF8604A
:1024500079813A81FB807A89FB68A3F842203A8926
:10246000FB68A3F84420FA88FB68A3F84620FB68C1
:10247000012283F83A201437BD465DF8047B70478B
:1024800080B483B000AF78607B689B8F9AB27B6822
:10249000B3F842309BB2D31A9BB29BB21BB2184620
:1024A0000C37BD465DF8047B704700BF80B483B035
:1024B00000AF78607B68DB8F9AB27B68B3F84430FA
:1024C0009BB2D31A9BB29BB21BB218460C37BD46C7
:1024D0005DF8047B704700BF80B483B000AF7860C4
:1024E0007B68B3F840309AB27B68B3F846309BB251
:1024F000D31A9BB29BB21BB218460C37BD465DF88F
:10250000047B704780B483B000AF78607B68B3F819
:1025100048309AB27B68B3F84E309BB2D31A9BB264
:102520009BB21BB218460C37BD465DF8047B704762
:1025300080B483B000AF78607B68B3F84A309AB259
:102540007B68B3F850309BB2D31A9BB29BB21BB2DC
:1025500018460C37BD465DF8047B704780B483B0E5
:1025600000AF78607B68B3F84C309AB27B68B3F800
:1025700052309BB2D31A9BB29BB21BB218460C3797
:10258000BD465DF8047B704780B483B000AF7860CF
:102590007B68B3F842301BB218460C37BD465DF875
:1025A000047B704780B483B000AF78607B68B3F879
:1025B00044301BB218460C37BD465DF8047B7047AB
:1025C00080B483B000AF78607B68B3F846301BB24C
:1025D00018460C37BD465DF8047B704780B483B065
:1025E00000AF78607B68B3F84E301BB218460C37EA
:1025F000BD465DF8047B704780B483B000AF78605F
:102600007B68B3F850301BB218460C37BD465DF8F6
:10261000047B704780B483B000AF78607B68B3F808
:1026200052301BB218460C37BD465DF8047B70472C
:1026300090B58BB000AF78607B681B7883F00103A6
:10264000DBB2002B07D17B6804331846FFF7AEFCE2
:102650000346002B01D1012300E00023002B15D0FD
:102660007B681C1D07F10C031846122107F014F8B3
:1026700007F10C0320461946FFF7C2FC7B680433C0
:10268000184601210122012307F03AF87B68012254
:102690001A707B68202283F820207B680F2283F841
:1026A00021207B6820333E486B211A46022307F025
:1026B000C3FC0346DB0FDBB2002B03D0384839499B
:1026C00007F0DAFB7B68212283F820207B68002258
:1026D00083F821207B68203331486B211A4602237E
:1026E00007F0AAFC0346DB0FDBB2002B03D02C481B
:1026F0002C4907F0C1FB7B68222283F820207B68ED
:10270000002283F821207B68203325486B211A465C
:10271000022307F091FC0346DB0FDBB2002B03D052
:102720001F48204907F0A8FB7B68232283F820205C
:102730007B68202283F821207B681B4ADA637B6850
:10274000203317486B211A46022307F075FC034615
:10275000DB0FDBB2002B03D01148124907F08CFBD2
:102760007B68242283F820207B68002283F82120C4
:102770007B6820330A486B211A46022307F05CFC71
:102780000346DB0FDBB2002B03D00548054907F0F9
:1027900073FB064806F068FD2C37BD4690BD00BFB0
:1027A0008C200020A0860100295C8F3D6C6601080A
:1027B00080B485B000AFF86079813A81FB807A8976
:1027C000FB68A3F846203A89FB68A3F84820FA88FA
:1027D000FB68A3F84A201437BD465DF8047B7047B8
:1027E00080B584B002AF78607B682333184600213F
:1027F000062205F0ABFD7B6820331846002103223A
:1028000005F0A4FD7B68A82283F820207B68203394
:102810007A6823320092062201922E486B211A46D2
:10282000012307F03DFC02467B681A637B681B6B43
:10283000002B0DDA284806F017FD2648274907F037
:102840001BFB7B68233318460021062205F07EFD22
:102850007B6893F824301B029AB27B6893F823308C
:1028600019467B68B3F846309BB2CB1A9BB29BB239
:1028700013439AB27B68A3F840207B6893F8263014
:102880001B029AB27B6893F8253019467B68B3F82F
:1028900048309BB2CB1A9BB29BB213439AB27B686F
:1028A000A3F842207B6893F828301B029AB27B6819
:1028B00093F8273019467B68B3F84A309BB2CB1A9D
:1028C0009BB29BB213439AB27B68A3F844200837AB
:1028D000BD4680BD8C2000209C660108A0860100BA
:1028E00080B483B000AF78607B68B3F840301BB22F
:1028F00006EE903AB8EEE67A7B68D3ED0F7A27EED3
:10290000277A7B68B3F846301BB206EE903AF8EEB1
:10291000E67A77EE677A17EE903A18460C37BD469E
:102920005DF8047B704700BF80B483B000AF78606F
:102930007B68B3F842301BB206EE903AB8EEE67A06
:102940007B68D3ED0F7A27EE277A7B68B3F848309F
:102950001BB206EE903AF8EEE67A77EE677A17EE5B
:10296000903A18460C37BD465DF8047B704700BFAF
:1029700080B483B000AF78607B68B3F844301BB29A
:1029800006EE903AB8EEE67A7B68D3ED0F7A27EE42
:10299000277A7B68B3F84A301BB206EE903AF8EE1D
:1029A000E67A77EE677A17EE903A18460C37BD460E
:1029B0005DF8047B704700BF80B483B000AF7860DF
:1029C0007B68B3F846301BB218460C37BD465DF83D
:1029D000047B704780B483B000AF78607B68B3F845
:1029E00048301BB218460C37BD465DF8047B704773
:1029F00080B483B000AF78607B68B3F84A301BB214
:102A000018460C37BD465DF8047B704780B582B030
:102A100000AF78607B680A4A1A600A4805F0CCFA71
:102A20007B680433184605F03DFC0023002B02D0E0
:102A3000786805F04DFD7B6818460837BD4680BDB7
:102A4000187A0108CC66010880B582B000AF7860C2
:102A50007868FFF7DBFF786805F03AFD7B68184679
:102A60000837BD4680BD00BF80B483B000AF0246CA
:102A70000B46FA80BB80B7F90620B7F904309A42BA
:102A800001DDBB8800E0FB881BB218460C37BD4651
:102A90005DF8047B704700BF80B483B000AF02468E
:102AA0000B46FA80BB80B7F90620B7F904309A428A
:102AB00001DDFB8800E0BB881BB218460C37BD4621
:102AC0005DF8047B704700BF80B582B000AF7860CE
:102AD0007B6804331846002106F0DEFD7B6818464B
:102AE0000837BD4680BD00BF80B582B000AF7860BA
:102AF0007B6804331846002106F0CEFD7B6818463B
:102B00000837BD4680BD00BF80B584B000AFF86017
:102B1000B960C7E90023FB681846B96864224FF41E
:102B2000FA630DF029FBFB68124A1A60FB68583300
:102B30001846002106F0B0FDFB68743318460021EA
:102B400006F0AAFDFB6890331846FFF7BDFFFB684F
:102B5000DC331846FFF7C8FFF968D7E90023C1E95D
:102B60001423FB68002283F83421FB6818461037D1
:102B7000BD4680BD007A010880B483B000AF7860A4
:102B80000B46FB707B68FA7883F834210C37BD461E
:102B90005DF8047B704700BF80B582B000AF7860FD
:102BA00039603B681A787B681A707B681A1D3B682D
:102BB000043310461946FFF723FA7B683A6820333E
:102BC00020321268114619800233120C1A707B6889
:102BD0003A68233323321168196092889A807B689F
:102BE0003A682A332A321168196092889A807B6881
:102BF0003A683033303292E8030083E803003B68E0
:102C00001A8F7B681A873B68DA6B7B68DA633B68EC
:102C1000B3F840207B68A3F840203B68B3F842201B
:102C20007B68A3F842203B68B3F844207B68A3F894
:102C300044203B68B3F846207B68A3F846203B68F5
:102C4000B3F848207B68A3F848203B68B3F84A20D3
:102C50007B68A3F84A207B6818460837BD4680BDCC
:102C600080B582B000AF786039603B681A787B68C5
:102C70001A707B681A1D3B68043310461946FFF72B
:102C8000BFF97B683A6820332032126811461980F8
:102C90000233120C1A707B683A68233323321168AE
:102CA000196092889A807B683A682A332A321168C0
:102CB000196092889A807B683A683033303292E8A3
:102CC000030083E803003B681A8F7B681A873B6820
:102CD00093F83A207B6883F83A203B689A8F7B68A8
:102CE0009A873B68DA8F7B68DA873B68B3F84020C5
:102CF0007B68A3F840203B68B3F842207B68A3F8C8
:102D000042203B68B3F844207B68A3F844203B682A
:102D1000B3F846207B68A3F846203B68B3F8482008
:102D20007B68A3F848203B68B3F84A207B68A3F887
:102D30004A203B68B3F84C207B68A3F84C203B68E2
:102D4000B3F84E207B68A3F84E203B68B3F85020C0
:102D50007B68A3F850203B68B3F852207B68A3F847
:102D600052203B68B3F854207B68A3F854207B685A
:102D700018460837BD4680BD90B5B5B000AF786045
:102D80007B68D3E91423324806F06EFA7B6803F1BE
:102D9000580407F10C031846372106F07DFC07F1B3
:102DA0000C0320461946FFF72BF97B685833184669
:102DB00001210122012306F0A3FC2648264907F041
:102DC0005BF8C7F8CC00D7F8CC30002B03D12348F0
:102DD00006F04AFA02E0224806F046FA7B6803F160
:102DE000900407F128024C23104600211A4605F0F2
:102DF000ADFA07F128031846FFF766FE07F128032E
:102E000020461946FFF7C8FE7B6890331846FFF747
:102E10000FFC7B6803F1DC0407F1740258231046B1
:102E200000211A4605F092FA07F174031846FFF7DD
:102E30005BFE07F1740320461946FFF711FF7B681C
:102E4000DC331846FFF7F0F8D437BD4690BD00BF1D
:102E5000DC6601088C200020A0860100F4660108D1
:102E600018670108B0B58CB000AF78600023FB6232
:102E70000023BB6200237B6200233B620023FB61D3
:102E80000023BB6100237B6100233B610023FB60C7
:102E90000023FB7288E07B6890331846FFF7A0FCA4
:102EA0007B6890331846FFF71BFD07EE100AFB6A9C
:102EB00006EE903AF8EEE67A77EE877AFDEEE77A5C
:102EC00017EE903AFB627B6890331846FFF72CFDB3
:102ED00007EE100ABB6A06EE903AF8EEE67A77EE55
:102EE000877AFDEEE77A17EE903ABB627B68903303
:102EF0001846FFF73DFD07EE100A7B6A06EE903A92
:102F0000F8EEE67A77EE877AFDEEE77A17EE903AFA
:102F10007B627B68DC331846FFF7B0F97B68DC33F3
:102F20001846FFF7ADFA03463A6A13443B627B68E2
:102F3000DC331846FFF7BAFA0346FA691344FB611B
:102F40007B68DC331846FFF7C7FA0346BA691344B7
:102F5000BB617B68DC331846FFF7D4FA03467A6915
:102F600013447B617B68DC331846FFF7E1FA0346C4
:102F70003A6913443B617B68DC331846FFF7EEFA8D
:102F80000346FA681344FB6005F012FC4E4A4FF00A
:102F90000003121843EB01031046194600220DF0FE
:102FA0003BFAFB7A0133FB72FB7A632B7FF673AF3C
:102FB0007B6803F19000FB6A444A82FB03125211C2
:102FC000DB17D31A99B2BB6A404A82FB03C2521183
:102FD000DB17D31A9AB27B6A3C4C84FB03C464119E
:102FE000DB17E31A9BB2FFF7E3FB7B6803F1DC001E
:102FF0003B6A364A82FB03125211DB17D31A99B28D
:10300000FB69324A82FB03C25211DB17D31A9AB210
:10301000BB692E4C84FB03C46411DB17E31A9BB21B
:10302000FFF712FA2A4B1B78002B4AD07B689033AB
:103030001846FFF7C1FC03461D467B6890331846CF
:10304000FFF7C8FC03461C467B6890331846FFF721
:10305000CFFC03461F482946224606F005F97B6847
:10306000DC331846FFF790FA03461D467B68DC33D5
:103070001846FFF797FA03461C467B68DC33184670
:10308000FFF79EFA034614482946224606F0ECF85C
:103090007B68DC331846FFF7A1FA03461D467B68C0
:1030A000DC331846FFF7A8FA03461C467B68DC337E
:1030B0001846FFF7AFFA034608482946224606F0AD
:1030C000D3F83037BD46B0BD809698001F85EB51D0
:1030D000640100205C6701087867010894670108B3
:1030E00080B584B000AFF860C7E90023F968D7E97C
:1030F0000023C1E91423064B1B78002B05D0FB6885
:10310000D3E91423034806F0AFF81037BD4680BD5D
:1031100064010020B06701082DE9B0438EB004AF10
:1031200078607868FFF79EFE05F042FB02460B468A
:10313000104619467B68D3E91423121843EB0103A8
:103140001046194600220DF067F97B689033184647
:10315000FFF746FB7B6890331846FFF7C1FB034639
:10316000BB607B6890331846FFF7DEFB0346FB60CD
:103170007B6890331846FFF7FBFB03463B617B6897
:10318000DC331846FFF77AF87B68DC331846FFF724
:1031900077F90346BB837B68DC331846FFF786F973
:1031A0000346FB837B68DC331846FFF795F903463B
:1031B0003B847B68DC331846FFF7A4F903461A46C4
:1031C000934B1A807B68DC331846FFF7B1F903464E
:1031D0001A468F4B5A807B68DC331846FFF7BEF9DE
:1031E00003461A468A4B9A807B6893F83431002B49
:1031F0006BD0874B1A88874B1B8812B21BB21046C4
:103200001946FFF731FC03461A46824B1A80804B61
:103210005A88804B5B8812B21BB210461946FFF7E2
:1032200023FC03461A467B4B5A80794B9A88794B8C
:103230009B8812B21BB210461946FFF715FC0346D5
:103240001A46744B9A80724B1A88734B1B8812B2C1
:103250001BB210461946FFF71FFC03461A466E4B79
:103260001A806B4B5A886C4B5B8812B21BB21046AB
:103270001946FFF711FC03461A46674B5A80644B08
:103280009A88654B9B8812B21BB210461946FFF70D
:1032900003FC03461A46604B9A805E4B1B8819B2AA
:1032A0005C4B5B881AB25B4B9B881BB25B4805F09A
:1032B000DBFF594B1B8819B2574B5B881AB2564B30
:1032C0009B881BB2564805F0CFFFBB8A1AB2504B01
:1032D0001B881BB2D31A002BB8BF5B421E2B2ADC03
:1032E000FB8A1AB24A4B5B881BB2D31A002BB8BFB9
:1032F0005B421E2B1FDC3B8B1AB2454B9B881BB2DB
:10330000D31A002BB8BF5B421E2B14DC7B68DC3366
:103310001846FFF7F7F80346BB827B68DC33184694
:10332000FFF706F90346FB827B68DC331846FFF79C
:1033300015F903463B83D7ED047AFDEEE77A17EEE5
:10334000903A002BB8BF5B42012B3ADD7B6890338B
:103350001846FFF70DFB03461846FDF77DF80446B7
:103360000D467B68D3E9142310461946FDF792F801
:1033700002460B461046194623A3D3E90023FDF766
:10338000E9F902460B4620462946FDF7B9F8024600
:103390000B4614461D46234B1B681846FDF75CF888
:1033A00002460B461046194622462B46FCF7F6FE0F
:1033B00002460B4610461946FDF784FB0246194BA0
:1033C0001A60194B1B78002B4AD0BB681846FDF7D2
:1033D00043F804460D46FB681846FDF73DF8804665
:1033E00089463B691846FDF737F802460B46CDE99A
:1033F0000089CDE902230D4822462B4605F034FF13
:10340000BB8B19B214E000BF0000000065CDCD41B8
:103410002C0C00200000002008000020CC670108D0
:10342000E0670108340C002094C40020F467010810
:10343000FB8B1AB23B8C1BB20A4805F015FFBB8A06
:1034400019B2FB8A1AB23B8B1BB2074805F00CFF7E
:10345000786AFDF701F802460B46044805F004FFC0
:1034600062E600BF046801081468010824680108C6
:1034700080B584B000AFF860B9607A60FB68184628
:10348000B96806227B6805F0FFF9FB68034A1A60F9
:10349000FB6818461037BD4680BD00BFF0790108B3
:1034A00080B584B000AFF860B9607A60FB681846F8
:1034B000B9680C227B6805F0E7F9FB68034A1A60DB
:1034C000FB6818461037BD4680BD00BFE079010893
:1034D00080B584B000AFF860B9607A60FB681846C8
:1034E000B96804227B6805F0CFF9FB68034A1A60CB
:1034F000FB6818461037BD4680BD00BFD079010873
:1035000080B582B000AF78607B68084A1A607B683B
:1035100018460CF09FFE0023002B02D0786804F0C0
:10352000D7FF7B6818460837BD4680BD007A010882
:1035300080B582B000AF78607868FFF7E1FF786807
:1035400004F0C6FF7B6818460837BD4680BD00BF43
:1035500080B582B000AF786039607B68012B46D1BE
:103560003A684FF6FF739A4241D122484FF0FF313B
:10357000214AFFF77DFF1F482049214A0DF00AFD2F
:1035800020484FF0FF31204AFFF772FF1D481B49CA
:103590001B4A0DF0FFFC1D484FF0FF311C4AFFF79E
:1035A0007FFF1A481B49164A0DF0F4FC1A484FF0E9
:1035B000FF311A4AFFF78CFF17481949104A0DF0DE
:1035C000E9FC18484FF0FF31174AFFF781FF154813
:1035D00013490B4A0DF0DEFC14484FF0FF31144A3A
:1035E000FFF776FF11480E49054A0DF0D3FC083766
:1035F000BD4680BD540B002030680108ED36000840
:1036000034C80020780B0020406801089C0B002083
:103610005068010891360008C00B00205868010866
:1036200035360008E40B002064680108080C00200F
:103630007068010880B582B000AF78607B680A4A84
:103640001A600A4804F0B8FC7B681846FFF7DEF9F8
:103650000023002B02D0786804F03AFF7B681846FC
:103660000837BD4680BD00BFD079010880680108D9
:1036700080B582B000AF78607868FFF7DBFF7868CC
:1036800004F026FF7B6818460837BD4680BD00BFA2
:1036900080B582B000AF78607B680A4A1A600A4839
:1036A00004F08AFC7B681846FFF7B0F90023002B72
:1036B00002D0786804F00CFF7B6818460837BD46D6
:1036C00080BD00BFE07901088068010880B582B044
:1036D00000AF78607868FFF7DBFF786804F0F8FEE9
:1036E0007B6818460837BD4680BD00BF80B582B0F4
:1036F00000AF78607B680A4A1A600A4804F05CFCF4
:103700007B681846FFF782F90023002B02D0786807
:1037100004F0DEFE7B6818460837BD4680BD00BF5A
:10372000F07901088068010880B582B000AF786048
:103730007868FFF7DBFF786804F0CAFE7B681846FC
:103740000837BD4680BD00BF80B500AF01204FF6F1
:10375000FF71FFF7FDFE80BD80B584B000AFF8605B
:10376000B9607A60FB681846B96864224FF4FA635E
:103770000CF002FDFB68164A1A60FB687A681A654D
:10378000D7E906230EA1D1E90001994208BF904272
:1037900006D3F9680CA3D3E90023C1E9162304E09A
:1037A000F968D7E90623C1E91623FB68012283F8EB
:1037B0006020FB6818461037BD4680BDAFF300801F
:1037C000FFE0F5050000000000E1F5050000000045
:1037D000387A0108AFF3008080B483B000AF78601E
:1037E0007B68012283F860200C37BD465DF8047BBE
:1037F000704700BF80B483B000AF78607B68002260
:1038000083F860200C37BD465DF8047B704700BF2D
:1038100080B58AB002AF78607B681B6D1846254979
:1038200006F02AFBF861FB69002B03D1224805F062
:103830001BFD02E0214805F017FD00233B75032323
:103840007B7500233B747B681A6D07F1140307F145
:103850001001009101210191104629211A460223ED
:1038600006F01EFCB8611648B96905F0FDFC3B7C0A
:103870001A463B7C032B14BF00230123DBB2114803
:103880001146032205F0F0FC81233B7300237B7378
:103890007B681A6D07F10C03104629211A46022392
:1038A00006F0CAFBB8610848B96905F0DDFC2037AD
:1038B000BD4680BDA0860100A0680108C06801085F
:1038C000D0680108F86801082069010880B58CB04B
:1038D00002AF78600023FB6100233B6200233B833F
:1038E0000023BB820023FB840023BB84AC233B74F6
:1038F000AE233B730023BB6004F05AFF02460B4625
:10390000104619467B68D3E91623121843EB0103CE
:103910001046194600220CF07FFD7B6893F860305A
:10392000002B4CD07B681A6D07F1100307F11801CA
:10393000009102210191104629211A46012306F027
:10394000AFFB0346FB617B681A6D07F10C0307F1BF
:103950001401009102210191104629211A460123E8
:1039600006F09EFB03463B623B6A002B27DDFB69AA
:10397000002B24D03B7E1B029AB27B7E1344FB8437
:103980003B7D1B029AB27B7D1344BB84FA8CBB8CBB
:10399000786811461A4600F019F80346BB6007F133
:1039A000080307481946012200F0D4F8054B1B789C
:1039B000002B04D0BB680448194605F055FC9BE772
:1039C000380C002094C400204069010880B48DB0F8
:1039D00000AF786013460A467A803B8047F217535F
:1039E0003B627B883A6A02FB03F39B0AFB613B88DC
:1039F0003A6A02FB03F39B0ABB610023FB62FB698B
:103A0000002B05D0BB699A02FB69B2FBF3F3FB62A2
:103A1000FB6A01335B087B617B69432B06D84FF45B
:103A20000173BB6240F2AD137B6247E07B69852B7B
:103A300006D84FF40A73BB6240F2C1237B623DE0BB
:103A40007B69C82B06D840F25323BB6240F2633334
:103A50007B6233E07B69B3F5857F06D840F2822331
:103A6000BB6240F2DF337B6228E07B69B3F5A77F5E
:103A700006D240F27713BB6240F2DD137B621DE099
:103A80007B69B3F5CD7F06D840F20113BB6240F2EB
:103A900027137B6212E07A6940F29A239A4204D893
:103AA0003723BB622B237B6208E07A6940F29A23BA
:103AB0009A4203D90023BB6200237B62FB69BA6A86
:103AC00002FB03F2BB69796A01FB03F3D31A3B6182
:103AD0003B6903F500533B613B699B0BFB60FB6853
:103AE00018463437BD465DF8047B704780B584B016
:103AF00000AFF860C7E90023F968D7E90023C1E9FE
:103B00001623064B1B78002B05D0FB68D3E9162340
:103B1000034805F0A9FB1037BD4680BD64010020B5
:103B20004C69010880B584B000AFF860B9607A6074
:103B3000FB681846B96804227B6804F0A5FEFB68A0
:103B4000034A1A60FB6818461037BD4680BD00BFA7
:103B5000287A010880B584B000AFF860B9601346D8
:103B6000FB71FA68FB791046B9681A46002304F025
:103B7000FBFE034618461037BD4680BD80B582B0B7
:103B800000AF78607B68084A1A607B6818460CF0C2
:103B900061FB0023002B02D0786804F099FC7B685D
:103BA00018460837BD4680BD387A010880B582B016
:103BB00000AF78607868FFF7E1FF786804F088FC70
:103BC0007B6818460837BD4680BD00BF80B582B00F
:103BD00000AF786039607B68012B0FD13A684FF6EF
:103BE000FF739A420AD107484FF0FF31064AFFF7A8
:103BF00099FF04480549064A0DF0CCF90837BD463F
:103C000080BD00BF380C002070690108153C000819
:103C100034C8002080B582B000AF78607B680A4A63
:103C20001A600A4804F0C8F97B681846FEF7EEFEF1
:103C30000023002B02D0786804F04AFC7B68184609
:103C40000837BD4680BD00BF287A01087C6901089D
:103C500080B582B000AF78607868FFF7DBFF7868E6
:103C600004F036FC7B6818460837BD4680BD00BFAF
:103C700080B500AF01204FF6FF71FFF7A7FF80BDB1
:103C800080B582B000AF7860124801210122012383
:103C900005F036FD104801210122002305F030FD1A
:103CA0000E4800210122002305F02AFD0C480121C5
:103CB0000122002305F024FD0A484FF47A714FF4E5
:103CC0007A7206F033FF0748322107F091FB08377C
:103CD000BD4680BD5C0C0020780C0020940C0020B8
:103CE000B00C0020CC0C002080B582B000AF786012
:103CF0000448012105F012FE034B01221A70083717
:103D0000BD4680BDB00C0020E80C002080B582B01C
:103D100000AF78600648002105F000FE054B002248
:103D20001A70054805F0A0FA0837BD4680BD00BFEF
:103D3000B00C0020E80C00208C69010880B582B02E
:103D400000AF78600B467B807B88002B02D17868BF
:103D5000FFF7DCFF104B1B7883F00103DBB2002B75
:103D600002D07868FFF7C0FF7B88B3F57A7F02D96D
:103D70004FF47A737B807B880848194607F038FB3C
:103D8000074B1B78002B04D07B880648194605F0AA
:103D90006BFA0837BD4680BDE80C0020CC0C002033
:103DA000640100209869010880B582B000AF786096
:103DB00039607B68012B18D13A684FF6FF739A423D
:103DC00013D10B48242105F067FC0A48112105F0A6
:103DD00063FC09483C2105F05FFC0848422105F0DE
:103DE0005BFC07480C2106F077FE0837BD4680BD16
:103DF0005C0C0020780C0020940C0020B00C0020FB
:103E0000CC0C002080B500AF01204FF6FF71FFF70A
:103E1000CBFF80BD80B582B000AF786039607B6831
:103E20001846396864224FF4FA630CF0A5F97B68F0
:103E3000034A1A607B6818460837BD4680BD00BF3C
:103E4000907A010880B582B000AF78607B6850330B
:103E50001846FFF715FF054B1B78002B02D00448CE
:103E600005F002FA0837BD4680BD00BF640100209E
:103E7000846A010880B584B000AF78604FF0FF30ED
:103E80006FF0004100220CF0C7FA07F10E0307485B
:103E900019464FF000024FF0000300F073F8FB8961
:103EA0007868194600F004F8E8E700BF100D00201C
:103EB00080B582B000AF78600B467B807B6803F1F1
:103EC00050027B8810461946FFF738FF0837BD4679
:103ED00080BD00BF80B584B000AFF860B9607A6083
:103EE000FB681846B96802227B6804F0CDFCFB68C9
:103EF000034A1A60FB6818461037BD4680BD00BFF4
:103F0000807A010880B582B000AF78607B68084A8B
:103F10001A607B681846FDF7B7FA0023002B02D021
:103F2000786804F0D5FA7B6818460837BD4680BD2E
:103F3000687A010880B582B000AF78607868FFF7D2
:103F4000E1FF786804F0C4FA7B6818460837BD467C
:103F500080BD00BF80B582B000AF78607B68184636
:103F600000F08AF87B68064A1A607B6800221A62B1
:103F70007B6800225A627B6818460837BD4680BDC0
:103F8000507A010880B588B000AFF860B960C7E921
:103F900000230023FB7740F2EB3004F0D1FB034613
:103FA0000133BB6134E0FB681846B96800F07CF867
:103FB0000346FB77FB7F83F00103DBB2002B20D0AD
:103FC0000CF002FA0246FB681A62D7E9002352EAB3
:103FD000030107D14FF0FF306FF0004100220CF0D9
:103FE0001BFA0BE004F0E4FBD7E90023121843EBC3
:103FF00001031046194600220CF00EFAFB6800225D
:104000001A62BB69013B184604F09AFB0023BB61AE
:10401000BB69002BC7D1FB7F83F00103DBB2002B10
:1040200006D0FB681846B96800F03EF80346FB77F7
:10403000FB7F002B1AD040F2EB3004F081FB0346EB
:1040400001337B610FE0FB685B6A002B04D0FB68E7
:104050005B6A18460CF0C4F97B69013B184604F012
:104060006FFB00237B617B69002BECD1FB7F184643
:104070002037BD4680BD00BF80B582B000AF7860FC
:104080007B681846FDF71AFC7B68064A1A607B6855
:104090000022DA617B6800229A617B681846083743
:1040A000BD4680BD687A010880B582B000AF7860F7
:1040B00039607B68DA697B689B699A4214BF002388
:1040C0000123DBB2002B01D0002311E07B68DB6908
:1040D0007A685B0013449A883B681A807B68DB69C6
:1040E0007868194600F008F802467B68DA61012317
:1040F00018460837BD4680BD80B483B000AF7860F5
:1041000039603B68082B02DC3B68013300E0002388
:1041100018460C37BD465DF8047B704780B582B009
:1041200000AF78607B68084A1A607B681846FFF722
:10413000E9FE0023002B02D0786804F0C9F97B68FF
:1041400018460837BD4680BD507A010880B582B058
:1041500000AF78607868FFF7E1FF786804F0B8F99D
:104160007B6818460837BD4680BD00BF80B582B069
:1041700000AF78607B68084A1A607B6818460CF0CC
:1041800069F80023002B02D0786804F0A1F97B685D
:1041900018460837BD4680BD907A010880B582B0C8
:1041A00000AF78607868FFF7E1FF786804F090F975
:1041B0007B6818460837BD4680BD00BF80B584B017
:1041C00002AF786039607B68012B24D13A684FF6E2
:1041D000FF739A421FD111484FF0FF31104AFFF789
:1041E00079FE0E480F49104A0CF0D4FE0F48FFF735
:1041F000B1FE0E480E490C4A0CF0CCFE0023009391
:104200000C480649094A0C4B04F06CF909480B4963
:10421000054A0CF0BFFE0837BD4680BDEC0C0020FF
:10422000946A0108E542000834C80020100D0020FF
:104230001D410008380D0020A46A01082D14000853
:1042400080B586B000AFF860B9607A603B607B688B
:10425000022B04D9154803F0AFFE002322E0FB68CF
:104260001846396800F06CF80346FB7440F2EB30F6
:1042700004F066FA034601337B610FE0FB681B6ABA
:10428000002B04D0FB681B6A18460CF0A9F87B6968
:10429000013B184604F054FA00237B617B69002B34
:1042A000ECD1FB7C18461837BD4680BDBC6A0108BE
:1042B00080B584B000AFF860B9607A603B607B681D
:1042C000022B04D9064803F077FE002304E0F868C7
:1042D000396800F035F8034618461037BD4680BDF2
:1042E000D06A010880B582B000AF78607B680A4A66
:1042F0001A600A4803F060FE7B681846FEF786FBEA
:104300000023002B02D0786804F0E2F87B6818469E
:104310000837BD4680BD00BF807A0108E06A010809
:1043200080B582B000AF78607868FFF7DBFF78680F
:1043300004F0CEF87B6818460837BD4680BD00BF44
:1043400080B584B000AF786039607B689B6978681D
:104350001946FFF7D1FEF8607B68DA69FB689A427C
:1043600014BF00230123DBB2002B01D000230BE09C
:104370007B689B693A68128879685B000B449A8075
:104380007B68FA689A61012318461037BD4680BDE4
:1043900080B500AF01204FF6FF71FFF70FFF80BD22
:1043A00080B584B000AFF860B9607A60FB681846E9
:1043B000B96801227B6804F067FAFB68034A1A6057
:1043C000FB6818461037BD4680BD00BFA87A0108BB
:1043D00080B584B000AFF860B9601346FB71FA682D
:1043E000FB791046B9681A46002304F0BDFA03466B
:1043F00018461037BD4680BD80B582B000AF7860EA
:1044000039607B68012B0FD13A684FF6FF739A42EF
:104410000AD1074848F20771064AFFF7C1FF04486E
:104420000549064A0CF0B6FD0837BD4680BD00BF01
:10443000680D0020006B01084144000834C80020CA
:1044400080B582B000AF78607B680A4A1A600A487B
:1044500003F0B2FD7B681846FEF7D8FA0023002B64
:1044600002D0786804F034F87B6818460837BD46F7
:1044700080BD00BFA87A01080C6B010880B582B02E
:1044800000AF78607868FFF7DBFF786804F020F809
:104490007B6818460837BD4680BD00BF80B500AFB9
:1044A00001204FF6FF71FFF7A7FF80BD80B483B0F6
:1044B00000AF7860054A7B6843F0BF6343F4003384
:1044C000D3600C37BD465DF8047B704700ED00E01B
:1044D00080B485B000AF78600023FB730023BB730A
:1044E0000F237B737B68DB78002B37D0254BDB6891
:1044F000DB4303F4E0631B0AFB73FB7BC3F10403A0
:10450000BB737A7BFB7B42FA03F37B737B685B783C
:104510001A46BB7B02FA03F3FB737B689A787B7BBA
:104520001340DAB2FB7B1343FB73FB7B1B01FB7372
:10453000154A7B681B781344FA7B83F80023124BDF
:104540007A6812785209D2B27968097801F01F01AD
:10455000012000FA01F143F822100EE00A4B7A68BC
:1045600012785209D2B27968097801F01F0101204E
:1045700000FA01F1203243F822101437BD465DF8ED
:10458000047B704700ED00E000E100E080B485B0FE
:1045900000AFF860B9607A607B80FB68BA681A6027
:1045A000FB687A685A60FB687A881A81FB683A8BE4
:1045B0005A81FB6818461437BD465DF8047B704786
:1045C00080B584B000AF78601720012109F088FC25
:1045D000414806210D2209F0F1F83F4804210D223F
:1045E00009F0ECF83D4807210D2209F0E7F83C48B6
:1045F00006210D2209F0E2F8394807210D2209F0C1
:10460000DDF8384800210D2209F0D8F8354801219D
:104610000D2209F0D3F8334804210D2209F0CEF819
:104620002E4806210D2209F0C9F82E4805210D2239
:1046300009F0C4F82B4806210D2209F0BFF85023D9
:10464000BB6002233B7303237B730023BB730123F3
:10465000FB7307F108032048194608F0DDFFC0236B
:10466000BB6002233B730023BB7307F108031B48A5
:10467000194608F0D1FFC023BB6007F108031848B2
:10468000194608F0C9FF7323BB6007F108031548FA
:10469000194608F0C1FF0120012109F021FC0E4854
:1046A0000821002209F08AF84FF48073BB600223CE
:1046B0003B7303237B730023FB730023BB7307F15E
:1046C00008030548194608F0A7FF0020002109F05B
:1046D0003FFB1037BD4680BD000002400004024091
:1046E000000802400010024080B598B000AF78602A
:1046F0000120012109F012FC08F0A0FB7B685B8916
:10470000A7F850300023A7F852302023A7F85430E0
:104710008023A7F856304023A7F858307B681B89C0
:10472000A7F85A300023A7F85C304FF4800001212D
:1047300009F0D6FB334808F065FC4FF00073BB600E
:10474000314BFB607B685B683B6100237B617B686E
:104750001B689B08BB610023FB614FF480633B62D5
:104760004FF480537B624FF48043BB624FF48073FD
:10477000FB624FF440333B6304237B630323BB633F
:104780000023FB6300233B6407F15003184608F045
:1047900073FB07F108031B48194608F005FD19488B
:1047A0001021012208F0C6FD16480421012208F05C
:1047B000C1FD4FF4C060FFF779FE4E2387F84C30FF
:1047C000022387F84D30022387F84E30012387F803
:1047D0004F3007F14C031846FFF77AFE392387F86C
:1047E0004C30012387F84D30012387F84E300123E8
:1047F00087F84F3007F14C031846FFF769FE603722
:10480000BD4680BD286402402800055080B582B0B6
:1048100000AF78600820012108F0A4FB10200121DE
:1048200008F0A0FB0120012108F09CFB02200121DF
:1048300008F098FB0420012108F094FB04480121B2
:1048400008F008FD012008F055FB0837BD4680BD83
:104850002864024080B588B000AF78604FF4001043
:10486000012109F079FB0220012109F039FB07F150
:104870001803184608F05EFF4FF44073BB61022333
:104880003B7700237B770123BB770123FB7707F17D
:1048900018031E48194608F0BFFE1C4808210422D0
:1048A00008F08CFF19480921042208F087FF07F15E
:1048B0000803184609F0C4F8154808F0C5FF144865
:1048C000012109F0DBF80023BB814BF6FF73FB816C
:1048D00000233B824FF480637B824FF48043BB8292
:1048E0000C4BBB600A484FF48071012209F082F939
:1048F00007F108030648194608F0E0FF04480121C3
:1049000009F0BCF82037BD4680BD00BF000402405E
:1049100000540040A086010080B584B000AFF8606C
:10492000B960FA71BB7100E000BFB8684FF40031A4
:1049300009F0B4F90346002B0CBF00230123DBB2BE
:10494000002BF1D1B868012109F0B8F800E000BFF0
:10495000B8681C4909F072F90346002B14BF002304
:104960000123DBB2002BF2D1FA79BB79B86811468A
:104970001A4609F0E3F8BB79002B0ED100E000BF26
:10498000B868114909F05AF90346002B14BF0023F7
:104990000123DBB2002BF2D110E0BB79012B0DD14A
:1049A00000E000BFB868094909F048F90346002B48
:1049B00014BF00230123DBB2002BF2D11037BD4618
:1049C00080BD00BF01000300820007000200030059
:1049D00080B584B000AFF860B9601346FB71FB7915
:1049E000B868194609F0E8F800E000BFB868074960
:1049F00009F024F90346002B14BF00230123DBB286
:104A0000002BF2D11037BD4680BD00BF84000700E7
:104A100080B584B000AF786039603868002109F053
:104A2000ABF800E000BF38680A4909F007F903460F
:104A3000002B14BF00230123DBB2002BF2D1386816
:104A400009F0CAF80346FB73FB7B18461037BD46D6
:104A500080BD00BF4000030080B582B000AF786029
:104A600039603868012109F049F80837BD4680BD32
:104A700080B584B000AF78600B46FB700023FB73F9
:104A800078684FF47A7100F083F878682049422200
:104A90000023FFF741FF78684FF47A7100F078F84F
:104AA000FB7878681A491A46FFF792FF78684FF446
:104AB0007A7100F06DF878681549FFF7CDFF7868D6
:104AC0004FF47A7100F064F87868114943220123A9
:104AD000FFF722FF78684FF47A7100F059F8786890
:104AE0000B49FFF795FF0346FB7378684FF47A7123
:104AF00000F04EF878680649FFF7AEFF78684FF48B
:104B00007A7100F045F8FB7B18461037BD4680BD32
:104B10000054004080B582B000AF786013460A466A
:104B2000FA70BB7078684FF47A7100F031F87868E9
:104B3000164942220023FFF7EFFE78684FF47A719E
:104B400000F026F8FB78786810491A46FFF740FF16
:104B500078684FF47A7100F01BF8BB7878680B49DD
:104B60001A46FFF735FF78684FF47A7100F010F8B5
:104B700078680649FFF770FF78684FF47A7100F0A3
:104B800007F8002318460837BD4680BD0054004092
:104B900080B483B000AF7860396003E03B68013BCC
:104BA0003B6000BF3B68012BF8D80C37BD465DF871
:104BB000047B704780B500AF094804F055FB0948F5
:104BC000094908F0F1FB0346012B14BF0023012320
:104BD000DBB2002B03D00348034908F07DFB80BD06
:104BE0001C6B0108A06002400080202080B500AF4F
:104BF0001348144908F0D8FB0346012B14BF0023C7
:104C00000123DBB2002B06D00F4800F09DFC0C48BE
:104C10000C4908F061FB0A480C4908F0C5FB034643
:104C2000012B14BF00230123DBB2002B06D0084860
:104C300004F01AFB0248054908F04EFB80BD00BF96
:104C40002864024000880010002300200022001089
:104C50002C6B010880B500AF082008F0B3F90346BB
:104C6000012B14BF00230123DBB2002B0ED02F4BEE
:104C70001B68002B03D12D4B01221A6002E02B4B45
:104C800000221A60082008F08DF94DE0102008F08D
:104C900099F90346012B14BF00230123DBB2002B3B
:104CA00010D0224B1B68012B05D1214B1B685A1CCD
:104CB0001F4B1A6002E01E4B00221A60102008F001
:104CC00071F931E0012008F07DF90346012B14BF92
:104CD00000230123DBB2002B03D0012008F062F98E
:104CE00022E0042008F06EF90346012B14BF0023D4
:104CF0000123DBB2002B06D00E4804F0B5FA0420E5
:104D000008F050F910E0022008F05CF90346012B8E
:104D100014BF00230123DBB2002B05D0064804F0AA
:104D2000A3FA022008F03EF980BD00BF6001002018
:104D30008C0D0020386B01084C6B010880B483B0E7
:104D400000AF786039607B680E4A1A603B685A6829
:104D50007B685A603B689A687B689A603B68DA684F
:104D60007B68DA603B681A697B681A613B685A693C
:104D70007B685A617B6818460C37BD465DF8047B3A
:104D8000704700BF687C010880B582B000AF7860D2
:104D900039607A683B6810461946FFF7CFFF7B6899
:104DA000054A1A603B689A697B689A617B68184675
:104DB0000837BD4680BD00BF007E010880B586B0C3
:104DC00002AFF860B9607A60FB681846B96864227F
:104DD0004FF4FA630BF0D0F9FB68204A1A60FB68C5
:104DE00003F15002FB68B43302210091104649F2EE
:104DF00040711A460023FFF7C9FBFB686033184671
:104E00003D2104F049FCFB687C3318460A2104F07C
:104E100043FCFB6898331846212104F03DFCFB68F5
:104E200003F51743F83318467968FFF7ADFFFB68C1
:104E300003F51843163300221A70FB6803F5184374
:104E4000143300221A70FB6803F51843153300224F
:104E50001A70FB6818461037BD4680BDC87A010835
:104E600080B588B002AF7860354804F0FDF90023C2
:104E7000FB8200233B617B685C3318461221802251
:104E8000FFF748FE03463B617B685C3318461221FE
:104E90000022FFF73FFE03463B613EE0FB8A2948C4
:104EA000194604F0E1F97B6803F15C01FA8A264BAC
:104EB00013F81220FB8A24485B0003445B78084601
:104EC00011461A46FFF726FE03463B617B6803F155
:104ED0005C02F98A1C4B13F8113010461946FFF793
:104EE000C7FD0346FB73F98AFA8A174B13F8123091
:104EF0001A46FB8A14485B0003445B78F87B0090F9
:104F0000124804F0B1F93B69002B03D0104839690D
:104F100004F0AAF9FB8A0133FB82FA8A0A4B13F8E0
:104F20001230FF2B06D0FB8A074A5B0013445B78E4
:104F3000FF2BB3D1074804F097F91837BD4680BD61
:104F4000686B0108846B010810000020A06B010849
:104F5000C86B0108D86B010880B582B000AF7860DB
:104F6000364804F081F97B6860331846012101223C
:104F7000002304F0C5FB7B687C3318460121012225
:104F8000002304F0BDFB7B68983318460121012201
:104F9000002304F0B5FB7B687C331846012104F044
:104FA000BDFC7B6898331846002104F0B7FC244808
:104FB00004F05AF97B6850331846FFF701FB21488B
:104FC00004F052F9204804F04FF97B68503318463A
:104FD000FFF78AFB1B4804F047F91C4804F044F92A
:104FE00078684FF47A7100F04BFB7B685C331846AD
:104FF000FFF730FC134804F037F9154804F034F992
:1050000078684FF47A7100F03BFB7868FFF728FF6F
:105010000C4804F029F90F4804F026F978684FF499
:105020007A7100F02DFB7B6850331846FFF7EEFBDA
:10503000094804F019F90837BD4680BDF46B010832
:10504000086C0108186C0108206C0108306C01081C
:105050003C6C01084C6C01085C6C010880B483B0A6
:1050600000AF78607B6803F51843163301221A708D
:105070000C37BD465DF8047B704700BF80B582B039
:1050800000AF7860012007F051FF0837BD4680BDB2
:1050900080B5ADF5966D00AF3B1D18600023C7F8D5
:1050A000AC340BE007F5F873D7F8AC24002143F8D3
:1050B0002210D7F8AC340133C7F8AC34D7F8AC348D
:1050C0009F2BEFDD0023C7F8A8340BE007F10C039A
:1050D000D7F8A824002143F82210D7F8A8340133C8
:1050E000C7F8A834D7F8A834782BEFDD0023C7F829
:1050F000A4346EE00023C7F8A03461E0D7F8A424FC
:1051000013469B0013445B011A46D7F8A03413449E
:105110005B003A1D1268134493F8B430C82B4AD987
:1051200007F5F873D7F8A02453F82210D7F8A42471
:1051300013469B0013445B011A46D7F8A03413446E
:105140005B003A1D1268134493F8B430194407F514
:10515000F873D7F8A02443F8221007F10C03D7F80E
:10516000A42453F82210D7F8A42413469B00134418
:105170005B011A46D7F8A03413445B003A1D12684D
:10518000134493F8B430194407F10C03D7F8A4245E
:1051900043F82210D7F8A42413469B0013445B0164
:1051A0001A46D7F8A03413445B003A1D1268134422
:1051B000FF2283F8B420D7F8A0340133C7F8A03415
:1051C000D7F8A0349F2B99DDD7F8A4340133C7F862
:1051D000A434D7F8A434782B8CDD0023C7F89C3492
:1051E0000023C7F898340023C7F894340023C7F885
:1051F00090340FE007F5F873D7F8902453F8223075
:10520000D7F898241344C7F89834D7F8903401336A
:10521000C7F89034D7F890349F2BEBDD0023C7F804
:105220008C340023C7F888340023C7F88434002363
:10523000C7F8783466E007F5F873D7F89C2453F87C
:105240002230D7F894241344C7F89434D7F89C3408
:105250000133C7F89C34D7F8983406EE903AB8EE8C
:10526000E67AF5EE007A27EE277AD7F8943406EE40
:10527000903AF8EEE67AB4EEE77AF1EE10FA07D556
:10528000D7F88C34002B03D1D7F89C34C7F88C3472
:10529000D7F8983407EE903AB8EEE77AF6EE007A4F
:1052A00027EE277AD7F8943406EE903AF8EEE67AAD
:1052B000B4EEE77AF1EE10FA07D5D7F88434002B74
:1052C00003D1D7F89C34C7F88434D7F8983407EE64
:1052D000903AB8EEE77AF6EE087A27EE277AD7F812
:1052E000943406EE903AF8EEE67AB4EEE77AF1EE10
:1052F00010FA07D5D7F88834002B03D1D7F89C349F
:10530000C7F88834D7F8943407EE903AB8EEE77AC5
:10531000D7F8983407EE903AF8EEE76AF6EE087A96
:1053200066EEA77AB4EEE77AF1EE10FA83D4D7F8F6
:105330008824D7F88C34D31AC7F878340023C7F8F8
:105340009C340023C7F898340023C7F89434002312
:10535000C7F880340FE007F10C03D7F8802453F826
:105360002230D7F898241344C7F89834D7F88034FB
:105370000133C7F88034D7F88034782BEBDD002375
:10538000C7F88C340023C7F888340023C7F87C346E
:105390000023C7F8743466E007F10C03D7F89C24A7
:1053A00053F82230D7F894241344C7F89434D7F82C
:1053B0009C340133C7F89C34D7F8983406EE903A01
:1053C000B8EEE67AF5EE007A27EE277AD7F894342D
:1053D00006EE903AF8EEE67AB4EEE77AF1EE10FADD
:1053E00007D5D7F88C34002B03D1D7F89C34C7F8F5
:1053F0008C34D7F8983407EE903AB8EEE77AF6EEA8
:10540000007A27EE277AD7F8943406EE903AF8EE31
:10541000E67AB4EEE77AF1EE10FA07D5D7F87C34E5
:10542000002B03D1D7F89C34C7F87C34D7F89834D4
:1054300007EE903AB8EEE77AF6EE087A27EE277A8A
:10544000D7F8943406EE903AF8EEE67AB4EEE77ABE
:10545000F1EE10FA07D5D7F88834002B03D1D7F82E
:105460009C34C7F88834D7F8943407EE903AB8EEF5
:10547000E77AD7F8983407EE903AF8EEE76AF6EE56
:10548000087A66EEA77AB4EEE77AF1EE10FA83D4E2
:10549000D7F88824D7F88C34D31AC7F87434D7F8DF
:1054A00074345A00D7F878349A42ACBF00230123F1
:1054B000DBB287F87334D7F884349AB23B1D1B688B
:1054C00003F51743F6331A80D7F87C349AB23B1DA4
:1054D0001B6803F51743F4331A803B1D1B6803F563
:1054E0001743F43314481946012200F01BF907F260
:1054F0007343124819460122FEF76AFF3B1D1B68E1
:1055000003F51743F4331B881AB23B1D1B6803F5E0
:105510001743F6331B881BB2094811461A4603F09D
:10552000A3FE97F873340748194603F09DFE07F56C
:105530009667BD4680BD00BF900D0020B40D0020D1
:10554000746C0108886C010880B483B000AF786087
:105550007B6803F51843153301221A700C37BD46DA
:105560005DF8047B704700BF80B584B000AF786001
:105570007B6803F5184315331B78002B71D07B68CB
:1055800003F5184316331B78002B4AD0384802F035
:105590001FF87B6803F51743F83318463549062290
:1055A00006F008FD0023FB6027E07A68FB681344DF
:1055B000B0331B7907F1080210462F491A460BF049
:1055C000F7FC7B6803F51743F83307F10802184628
:1055D0001146042206F0EEFC00BF7B6803F517437A
:1055E000F833184606F0B2FD034683F00103DBB240
:1055F000002BF2D1FB680233FB60FA6849F23F737B
:105600009A42D2DD7B6803F51743F83318461B49ED
:10561000062206F0CFFC7B6803F518431633002200
:105620001A707B6803F51843153300221A707868E6
:10563000FFF72EFD7B6803F5184314331B78002B0E
:1056400002D07868FFF71AFD03F0B2F806A3D3E999
:105650000023121843EB01031046194600220AF0FA
:10566000DBFE85E7AFF3008000C2EB0B000000001B
:1056700018BB0020946C01089C6C0108A46C010804
:1056800080B483B000AF7860396003E03B68013BD1
:105690003B6000BF3B68012BF8D80C37BD465DF876
:1056A000047B704780B582B000AF78607B6803F5FB
:1056B0001843143301221A70044803F0D5FD7868AA
:1056C000FFF7DCFC0837BD4680BD00BFAC6C0108AD
:1056D00080B582B000AF78607B6803F5184314335F
:1056E00000221A70024803F0BFFD0837BD4680BD96
:1056F000B86C010880B584B000AFF860B9607A601A
:10570000FB681846B96804227B6803F0BDF8FB68A3
:10571000034A1A60FB6818461037BD4680BD00BFBB
:10572000B87A010880B584B000AFF860B96013465C
:10573000FB71FA68FB791046B9681A46002303F03A
:1057400013F9034618461037BD4680BD80B582B0B8
:1057500000AF78607B68084A1A607B6818460AF0D8
:1057600079FD0023002B02D0786802F0B1FE7B683F
:1057700018460837BD4680BDC87A010880B582B09A
:1057800000AF78607868FFF7E1FF786802F0A0FE6C
:105790007B6818460837BD4680BD00BF80B582B023
:1057A00000AF786039607B68012B1AD13A684FF6F8
:1057B000FF739A4215D10C484FF0FF310B4AFFF7A7
:1057C00099FF09480A490B4A0BF0E4FB0A484FF0DD
:1057D000FF310A4AFEF7E4FD07480949054A0BF084
:1057E000D9FB0837BD4680BD900D0020C86C01086C
:1057F0000558000834C80020B40D0020D86C0108FA
:105800004144000880B582B000AF78607B680A4AE6
:105810001A600A4802F0D0FB7B681846FDF7F6F8DC
:105820000023002B02D0786802F052FE7B681846F5
:105830000837BD4680BD00BFB87A0108E46C010896
:1058400080B582B000AF78607868FFF7DBFF7868DA
:1058500002F03EFE7B6818460837BD4680BD00BF9B
:1058600080B500AF01204FF6FF71FFF797FF80BDB5
:1058700080B584B000AFF860B9607A60FB68184604
:10588000B96864224FF4FA630AF076FCFB68074AB1
:105890001A60F968D7E90623C1E91623FB687A681C
:1058A0001A65FB6818461037BD4680BD087B0108A5
:1058B00080B582B000AF78607B681B6D18464FF4EE
:1058C000E13106F0A9FA0837BD4680BD90B5A9B010
:1058D00002AF78600023C7F8943079687B68D3E919
:1058E0001623CDE9002308464FF000024FF00003D5
:1058F00002F0DEFE56E07B681B6D1B6818331B68E8
:105900007A68126D104698470346002B1ED07B68BC
:105910001A6D07F10C0310461946402206F0DCFA16
:10592000C7F8940007F10C0207F14C0378681146A0
:10593000D7F8942000F054F80346002B06D007F166
:105940004C031D481946012200F0FEF807F14C03F4
:105950001A48194600F00CF90346002B1AD007F13B
:105960000C0207F14C03786811461A46002300F038
:1059700095F87B681C6D07F14C030733184602F05D
:105980009FFC0346083307F10C02204611461A46D5
:1059900006F010FB07F14C024723104600211A467F
:1059A00002F0D4FC7B68184602F098FE0123002B1D
:1059B000A1D19C37BD4690BDD80D0020200E0020FF
:1059C00080B582B000AF786039603B681B6D786845
:1059D0001946FFF7D9F978680837BD4680BD00BF82
:1059E0002DE9F04389B000AFF860B9607A603B60A0
:1059F000B86802F065FC0346063BBB613B6818468D
:105A00002549BA680BF0D4FABB69002B3DD06B4630
:105A10001E46BB69591E79610B4601331A464FF089
:105A200000034FEAC30949EA52794FEAC2080B461C
:105A300001331A464FF00003DD0045EA5275D400E9
:105A40000B4601330733DB08DB00ADEB030D6B4680
:105A500000333B610023FB770BE03A69FB7F134483
:105A6000FA7F0632B9680A4412781A70FB7F013354
:105A7000FB77FA7FBB699A42EFD33B68DA1D3B693B
:105A80001046194602F03AFCB54601231846243761
:105A9000BD46BDE8F08300BFA06D010880B584B0AD
:105AA00000AFF860B9607A60FB70FB78002B07D01C
:105AB0007A687B680733B86806490BF079FA06E024
:105AC0007A687B680733B86803490BF071FA1037BE
:105AD000BD4680BDA86D0108B86D010880B584B0D1
