:020000040800F2
:100000000000022065690008D1690008D169000874
:10001000D1690008D1690008D1690008000000001A
:1000200000000000000000000000000091C5000872
:10003000D169000800000000A5C50008D1C800086B
:10004000D1690008D1690008D1690008D1690008A8
:10005000D1690008D1690008E5710008097200083B
:100060002D7200085172000875720008D1690008ED
:10007000E1940008D169000809940008D1690008DA
:1000800099940008D1690008D1690008D169000875
:10009000D1690008D1690008D16900089972000887
:1000A000D1690008D1690008D1690008D169000848
:1000B000D1690008D1690008D1690008D169000838
:1000C000D1690008D1690008D1690008D169000828
:1000D000D169000831930008499300086193000832
:1000E000F5720008D1690008D1690008D1690008DB
:1000F000D1690008D1690008D1690008D1690008F8
:10010000D1690008D16900089DC60008D1690008BE
:100110007993000891930008D169000881CA00080A
:10012000D1690008D1690008D1690008D1690008C7
:10013000D1690008D1690008D1690008D1690008B7
:10014000D1690008D1690008D1690008D1690008A7
:1001500051940008D1690008C1930008A9930008D0
:10016000D1690008D1690008D1690008D169000887
:10017000D1690008D1690008D1690008D169000877
:0C018000D1690008D169000800000008E7
:1001900081F0004102E000BF83F0004330B54FEA38
:1001A00041044FEA430594EA050F08BF90EA020FA5
:1001B0001FBF54EA000C55EA020C7FEA645C7FEA38
:1001C000655C00F0E2804FEA5454D4EB5555B8BF5B
:1001D0006D420CDD2C4480EA020281EA030382EACC
:1001E000000083EA010180EA020281EA0303362D5E
:1001F00088BF30BD11F0004F4FEA01314FF4801C31
:100200004CEA113102D0404261EB410113F0004F42
:100210004FEA03334CEA133302D0524263EB4303F9
:1002200094EA050F00F0A780A4F10104D5F1200E97
:100230000DDB02FA0EFC22FA05F2801841F10001F2
:1002400003FA0EF2801843FA05F359410EE0A5F1C6
:1002500020050EF1200E012A03FA0EFC28BF4CF0F7
:10026000020C43FA05F3C01851EBE37101F00045AD
:1002700007D54FF0000EDCF1000C7EEB00006EEBBA
:100280000101B1F5801F1BD3B1F5001F0CD3490844
:100290005FEA30004FEA3C0C04F101044FEA44529B
:1002A00012F5800F80F09A80BCF1004F08BF5FEA22
:1002B000500C50F1000041EB045141EA050130BD02
:1002C0005FEA4C0C404141EB010111F4801FA4F1A5
:1002D0000104E9D191F0000F04BF01460020B1FAFA
:1002E00081F308BF2033A3F10B03B3F120020CDA32
:1002F0000C3208DD02F1140CC2F10C0201FA0CF010
:1003000021FA02F10CE002F11402D8BFC2F1200C74
:1003100001FA02F120FA0CFCDCBF41EA0C0190402A
:10032000E41AA2BF01EB0451294330BD6FEA040473
:100330001F3C1CDA0C340EDC04F11404C4F120025E
:1003400020FA04F001FA02F340EA030021FA04F370
:1003500045EA030130BDC4F10C04C4F1200220FAC7
:1003600002F001FA04F340EA0300294630BD21FA05
:1003700004F0294630BD94F0000F83F4801306BFCB
:1003800081F480110134013D4EE77FEA645C18BFBF
:100390007FEA655C29D094EA050F08BF90EA020F56
:1003A00005D054EA000C04BF1946104630BD91EA4E
:1003B000030F1EBF0021002030BD5FEA545C05D151
:1003C0004000494128BF41F0004130BD14F5800490
:1003D0003CBF01F5801130BD01F0004545F0FE4104
:1003E00041F470014FF0000030BD7FEA645C1ABF39
:1003F000194610467FEA655C1CBF0B46024650EA70
:10040000013406BF52EA033591EA030F41F400219B
:1004100030BD00BF90F0000F04BF0021704730B521
:100420004FF4806404F132044FF000054FF00001F6
:1004300050E700BF90F0000F04BF0021704730B5B7
:100440004FF4806404F1320410F0004548BF40428C
:100450004FF000013EE700BF42004FEAE2014FEAE1
:1004600031014FEA02701FBF12F07F4393F07F4FBC
:1004700081F06051704792F0000F14BF93F07F4FEE
:10048000704730B54FF4607401F0004521F0004131
:1004900020E700BF50EA010208BF704730B54FF0B7
:1004A00000050AE050EA010208BF704730B511F0BC
:1004B000004502D5404261EB41014FF4806404F1F4
:1004C00032045FEA915C3FF4DCAE4FF003025FEA76
:1004D000DC0C18BF03325FEADC0C18BF033202EBFE
:1004E000DC02C2F1200300FA03FC20FA02F001FA58
:1004F00003FE40EA0E0021FA02F11444C1E600BFF7
:1005000070B54FF0FF0C4CF4E06C1CEA11541DBFA9
:100510001CEA135594EA0C0F95EA0C0F00F0DEF874
:100520002C4481EA030621EA4C5123EA4C5350EA59
:10053000013518BF52EA033541F4801143F48013AA
:1005400038D0A0FB02CE4FF00005E1FB02E506F03B
:100550000042E0FB03E54FF00006E1FB03569CF090
:10056000000F18BF4EF0010EA4F1FF04B6F5007F96
:1005700064F5407404D25FEA4E0E6D4146EB060608
:1005800042EAC62141EA55514FEAC52040EA5E5091
:100590004FEACE2EB4F1FD0C88BFBCF5E06F1ED83B
:1005A000BEF1004F08BF5FEA500E50F1000041EB72
:1005B000045170BD06F0004646EA010140EA02001F
:1005C00081EA0301B4EB5C04C2BFD4EB0C0541EA41
:1005D000045170BD41F480114FF0000E013C00F356
:1005E000AB8014F1360FDEBF002001F0004170BD7A
:1005F000C4F10004203C35DA0C341BDC04F1140493
:10060000C4F1200500FA05F320FA04F001FA05F21E
:1006100040EA020001F0004221F0004110EBD370EB
:1006200021FA04F642EB06015EEA430E08BF20EA17
:10063000D37070BDC4F10C04C4F1200500FA04F3BA
:1006400020FA05F001FA04F240EA020001F000414C
:1006500010EBD37041F100015EEA430E08BF20EABF
:10066000D37070BDC4F1200500FA05F24EEA020E07
:1006700020FA04F301FA05F243EA020321FA04F036
:1006800001F0004121FA04F220EA020000EBD370ED
:100690005EEA430E08BF20EAD37070BD94F0000FED
:1006A0000FD101F00046400041EB010111F4801F21
:1006B00008BF013CF7D041EA060195F0000F18BFD2
:1006C000704703F00046520043EB030313F4801F0E
:1006D00008BF013DF7D043EA0603704794EA0C0FC8
:1006E0000CEA135518BF95EA0C0F0CD050EA4106DE
:1006F00018BF52EA4306D1D181EA030101F000415B
:100700004FF0000070BD50EA410606BF1046194682
:1007100052EA430619D094EA0C0F02D150EA01368E
:1007200013D195EA0C0F05D152EA03361CBF1046CF
:1007300019460AD181EA030101F0004141F0FE416E
:1007400041F470014FF0000070BD41F0FE4141F4F2
:10075000780170BD70B54FF0FF0C4CF4E06C1CEAF2
:1007600011541DBF1CEA135594EA0C0F95EA0C0FA7
:1007700000F0A7F8A4EB050481EA030E52EA033562
:100780004FEA013100F088804FEA03334FF0805583
:1007900045EA131343EA12634FEA022245EA1115B0
:1007A00045EA10654FEA00260EF000419D4208BF61
:1007B000964244F1FD0404F5407402D25B084FEA0E
:1007C0003202B61A65EB03055B084FEA32024FF4BA
:1007D00080104FF4002CB6EB020E75EB030E22BF17
:1007E000B61A754640EA0C005B084FEA3202B6EBD7
:1007F000020E75EB030E22BFB61A754640EA5C0086
:100800005B084FEA3202B6EB020E75EB030E22BF15
:10081000B61A754640EA9C005B084FEA3202B6EB16
:10082000020E75EB030E22BFB61A754640EADC00D5
:1008300055EA060E18D04FEA051545EA16754FEA37
:1008400006164FEAC30343EA52734FEAC2025FEA55
:100850001C1CC0D111F4801F0BD141EA00014FF0E4
:1008600000004FF0004CB6E711F4801F04BF0143B5
:100870000020B4F1FD0C88BFBCF5E06F3FF6AFAED1
:10088000B5EB030C04BFB6EB020C5FEA500C50F161
:10089000000041EB045170BD0EF0004E4EEA1131E4
:1008A00014EB5C04C2BFD4EB0C0541EA045170BDEB
:1008B00041F480114FF0000E013C90E645EA060E2F
:1008C0008DE60CEA135594EA0C0F08BF95EA0C0F5D
:1008D0003FF43BAF94EA0C0F0AD150EA01347FF4A5
:1008E00034AF95EA0C0F7FF425AF104619462CE77C
:1008F00095EA0C0F06D152EA03353FF4FDAE1046DF
:10090000194622E750EA410618BF52EA43067FF42F
:10091000C5AE50EA41047FF40DAF52EA43057FF4BF
:10092000EBAE12E74FF0FF3C06E000BF4FF0010CCA
:1009300002E000BF4FF0010C4DF804CD4FEA410C2E
:100940007FEA6C5C4FEA430C18BF7FEA6C5C1BD0FB
:1009500001B050EA410C0CBF52EA430C91EA030F7C
:1009600002BF90EA020F0020704710F1000F91EAD9
:10097000030F58BF994208BF90422CBFD8176FEAA7
:10098000E37040F0010070474FEA410C7FEA6C5C75
:1009900002D150EA013C07D14FEA430C7FEA6C5C7C
:1009A000D6D152EA033CD3D05DF8040B704700BFA8
:1009B0008446104662468C461946634600E000BFF6
:1009C00001B5FFF7B7FF002848BF10F1000F01BDC8
:1009D0004DF808EDFFF7F4FF0CBF012000205DF893
:1009E00008FB00BF4DF808EDFFF7EAFF34BF012018
:1009F00000205DF808FB00BF4DF808EDFFF7E0FFB1
:100A000094BF012000205DF808FB00BF4DF808ED01
:100A1000FFF7CEFF94BF012000205DF808FB00BF68
:100A20004DF808EDFFF7C4FF34BF012000205DF84A
:100A300008FB00BF4FEA410212F5001215D211D592
:100A40006FF47873B3EB625212D94FEAC12343F0CB
:100A5000004343EA505311F0004F23FA02F018BF4D
:100A6000404270474FF00000704750EA013005D116
:100A700011F0004008BF6FF0004070474FF00000D9
:100A8000704700BF4A0011D212F5001211D20DD5E5
:100A90006FF47873B3EB62520ED44FEAC12343F084
:100AA000004343EA505323FA02F070474FF000002E
:100AB000704750EA013002D14FF0FF3070474FF0DD
:100AC000000070474FEA4102B2F1E04324BFB3F5A2
:100AD000001CDCF1FE5C0DD901F0004C4FEAC002B5
:100AE0004CEA5070B2F1004F40EB830008BF20F099
:100AF0000100704711F0804F21D113F13872BCBF53
:100B000001F00040704741F480114FEA5252C2F1A7
:100B10001802C2F1200C10FA0CF320FA02F018BFF0
:100B200040F001004FEAC1234FEAD32303FA0CFC43
:100B300040EA0C0023FA02F34FEA4303CCE77FEAD2
:100B4000625307D150EA01331EBF4FF0FE4040F41C
:100B50004000704701F0004040F0FE4040F40000CB
:100B6000704700BF73B96AB9002908BF0028BCBF2D
:100B700000204FF00041C4BF6FF000414FF0FF3044
:100B800000F08CB882B0EC462DE9005000F056F829
:100B9000DDF804E002B00CBC704700BF4BB942B9AD
:100BA000002908BF002802D04FF0FF31084600F0AE
:100BB00075B882B0EC462DE9005000F057F8DDF82A
:100BC00004E002B00CBC704738B500220023044694
:100BD0000D46FFF707FF28B920462946BDE83840F3
:100BE00000F00AB8204605F1004100F005F8404247
:100BF00061EB410138BD00BF70B500220D4B0446CA
:100C00000D46FFF77DFCFFF73DFF0646FFF702FCB0
:100C10000022094BFFF774FC02460B46204629468A
:100C2000FFF7BAFAFFF72EFF002242EA000420463F
:100C3000314670BD0000F03D0000F0412DE97043E9
:100C4000069E14461D468046894600F029F804FB9E
:100C500001F300FB0533A4FB00451D44B8EB04047D
:100C600069EB0505C6E90045BDE870832DE97043D1
:100C7000069E1446804689461D4600F05DF900FB3D
:100C800005F504FB0153A0FB04451D44B8EB040427
:100C900069EB0505C6E90045BDE87083704700BFF4
:100CA00000292DE9F00FC0F29F800024002BC0F234
:100CB0009680154606460F46002B3ED18A4257D9EC
:100CC000B2FA82F34BB1C3F1200201FA03F720FA22
:100CD00002F29D40174300FA03F6290CB7FBF1F22C
:100CE000330C01FB127CA8B243EA0C4700FB02F371
:100CF000BB4209D97F1902F1FF3C80F00181BB4260
:100D000040F2FE80023A2F44FF1AB7FBF1F3B6B26D
:100D100001FB137146EA014100FB03F0884208D948
:100D2000491903F1FF3780F0ED80884240F2EA80F4
:100D3000023B43EA0242002303E08B420AD900232C
:100D40001A461046194614B1404261EB4101BDE814
:100D5000F00F7047B3FA83F8B8F1000F40F08480C9
:100D60008B4202D3824200F2DE8000230122E8E7B8
:100D700012B90123B3FBF2F5B5FA85F2002A39D195
:100D80007F1B280C1FFA85FC0123B7FBF0F1320C06
:100D900000FB117742EA07470CFB01F2BA4207D980
:100DA0007F1901F1FF3802D2BA4200F2C1804146F8
:100DB000BF1AB7FBF0F2B6B200FB127046EA004071
:100DC0000CFB02FC844507D9401902F1FF3702D21F
:100DD000844500F2AB803A4642EA0142B1E7E4437F
:100DE000524263EB430364E7404261EB41014FF041
:100DF000FF345BE79540C2F1200327FA03F1280C8A
:100E000026FA03F39740B1FBF0F81F433B0C00FBBD
:100E100018111FFA85FC43EA01410CFB08F38B42D1
:100E200006FA02F608D9491908F1FF3279D28B4245
:100E300077D9A8F102082944C91AB1FBF0F3BFB26F
:100E400000FB131147EA01470CFB03F2BA4207D932
:100E50007F1903F1FF3160D2BA425ED9023B2F44C1
:100E6000BF1A43EA084390E7C8F1200203FA08FCDE
:100E700025FA02F343EA0C0C4FEA1C4921FA02F36B
:100E800001FA08F720FA02F2B3FBF9F1174309FB64
:100E900011333A0C1FFA8CFB42EA03430BFB01FAB5
:100EA0009A4505FA08F008D913EB0C0301F1FF325B
:100EB00035D29A4533D902396344CAEB0303B3FBF5
:100EC000F9F209FB1233BFB247EA03470BFB02F901
:100ED000B94508D917EB0C0702F1FF331BD2B9450E
:100EE00019D9023A674442EA0145A5FB0001C9EB62
:100EF00007078F424FF000030AD305D02A4620E7A8
:100F0000624601E73B4614E706FA08F68642F5D248
:100F10006A1E002315E71A46E5E70B46A0E71146CF
:100F2000CBE7904688E7434642460AE7023A53E752
:100F300002392F443CE700BF2DE9F00F1446054667
:100F40000E46002B43D18A4253D9B2FA82F757B1E9
:100F5000C7F1200620FA06F601FA07F302FA07F4B1
:100F60001E4300FA07F5210CB6FBF1F22B0C01FB36
:100F70001267A0B243EA074600FB02F3B34209D965
:100F8000361902F1FF3780F0F680B34240F2F38069
:100F9000023A2644F61AB6FBF1F3ADB201FB136137
:100FA00045EA014100FB03F0884208D9091903F121
:100FB000FF3680F0E280884240F2DF80023B43EA65
:100FC0000242002310461946BDE8F00F70478B42DD
:100FD0004AD8B3FA83F6002E4DD18B4202D3824217
:100FE00000F2D6800023012210461946BDE8F00F1A
:100FF000704712B90124B4FBF2F4B4FA84F2002A67
:101000007CD1091B260CA7B20123B1FBF6F02A0CF8
:1010100006FB101142EA014107FB00F28A4207D9A0
:10102000091900F1FF3C02D28A4200F2C3806046F7
:10103000891AB1FBF6F2ADB206FB121145EA014581
:1010400007FB02F7AF4208D92C1902F1FF3180F0FB
:101050009680A74240F29380023A42EA004210464C
:101060001946BDE8F00F704700231A46104619468E
:10107000BDE8F00F7047C6F1200522FA05F4B34031
:101080001C434FEA144821FA05F301FA06F720FA47
:1010900005F5B3FBF8FC2F4308FB1C333D0C1FFA8E
:1010A00084FA45EA03430AFB0CF9994502FA06FB68
:1010B00004D91B190CF1FF326DD39446C9EB03031D
:1010C000B3FBF8F508FB1533BFB247EA03470AFB49
:1010D00005F8B84504D93F1905F1FF3361D31D4622
:1010E00045EA0C4CACFB0B23C8EB07079F424FF0C3
:1010F000000549D345D062462B4663E79440C2F1D0
:10110000200321FA03FC260C20FA03F301FA02F56E
:10111000BCFBF6F843EA05010B0C06FB18CCA7B2A2
:1011200043EA0C4C07FB08F3634500FA02F509D9C2
:101130001CEB040C08F1FF323AD2634538D9A8F110
:101140000208A444C3EB0C0CBCFBF6F389B206FB0B
:1011500013CC41EA0C4107FB03F28A4207D9091973
:1011600003F1FF3022D28A4220D9023B2144891A5E
:1011700043EA084349E73A460CE733461FE70A4685
:101180006BE7B0409042B6D20CF1FF32002319E772
:101190003346324616E799458FD9ACF1020C234409
:1011A0008CE7B8459BD9023D274499E70346DEE723
:1011B0009046C7E7023821443AE700BF80B582B0C5
:1011C00000AF786039607B68012B10D13A684FF628
:1011D000FF739A420BD107483C2105F0BBFD06483E
:1011E0003D2105F0B7FD05483E2105F0B3FD083768
:1011F000BD4680BDE0080020FC0800201809002042
:1012000080B500AF01204FF6FF71FFF7D7FF80BD1B
:1012100080B582B000AF78607B680A4A1A600A48DD
:1012200004F0BCFA7B680433184604F037FB002353
:10123000002B02D0786804F077FC7B6818460837EA
:10124000BD4680BDC0500108E03D010880B582B0B8
:1012500000AF78607868FFF7DBFF786804F064FC23
:101260007B6818460837BD4680BD00BF80B582B098
:1012700000AF78607B68064A1A600023002B02D01A
:10128000786804F051FC7B6818460837BD4680BD7D
:10129000E84E010880B582B000AF78607868FFF74B
:1012A000E5FF786804F040FC7B6818460837BD46C7
:1012B00080BD00BF80B584B000AFF860B9607A60CF
:1012C0003B60044804F06AFA002318461037BD4614
:1012D00080BD00BFF43D010880B483B000AF7860EA
:1012E0007B684FF000021A607B684FF000025A6082
:1012F0007B684FF000029A607B68124ADA607B6874
:10130000114A1A617B684FF07E525A617B684FF038
:1013100000021A627B684FF000025A627B684FF04D
:1013200000029A617B684FF000029A627B684FF07E
:101330000002DA617B6818460C37BD465DF8047B15
:10134000704700BF1F856B3E17B7D1382DE9B04FEE
:101350008AB006AF78605848584900F097F9574B63
:1013600093ED007A7B68D3ED0A7A77EE677AC7ED62
:10137000037A97ED037ADFED527AB4EEE77AF1EE75
:1013800010FA08DD97ED037ADFED4E7A77EE677A93
:10139000C7ED037A10E097ED037ADFED4B7AB4EEF8
:1013A000E77AF1EE10FA07D597ED037ADFED457A8B
:1013B00077EE277AC7ED037AD7ED037AB0EEE77AB6
:1013C000F1EE047AB4EEE77AF1EE10FA09DD7B680B
:1013D00093ED087AD7ED037A77EE277A7B68C3ED31
:1013E000087A7B68D3ED067A97ED037A77EE677A11
:1013F0007B68C3ED097A7B6893ED037AD7ED037AB6
:1014000067EE277A7B68C3ED007A7B6893ED047AF8
:101410007B68D3ED087A67EE277A7B68C3ED017AA3
:101420007B6893ED057A7B68D3ED097A67EE277ABE
:101430007B68C3ED027A7B6893ED007A7B68D3ED1D
:10144000017A37EE277A7B68D3ED027A77EE277A36
:101450007B68C3ED077A7B68FA689A611B4B1B783F
:10146000002B24D07B68DB691846FEF7F5FF0446A5
:101470000D46F868FEF7F0FF82468B467B689B6A54
:101480001846FEF7E9FF804689460C4B1B68184654
:10149000FEF7E2FF02460B46CDE900ABCDE902893B
:1014A000CDE904230A4822462B4605F009FA1037F5
:1014B000BD46BDE8B08F00BF34090020840900207C
:1014C000000034430000B443000034C30000002097
:1014D0007C3E010880B582B000AF786039607B68DF
:1014E0003A689A627B68D3ED0A7AF5EEC07AF1EE3B
:1014F00010FA13D509E07B6893ED0A7ADFED1F7AC5
:1015000077EE277A7B68C3ED0A7A7B68D3ED0A7A97
:10151000F5EEC07AF1EE10FAEDD41EE07B6893EDA3
:101520000A7ADFED167AB4EEE77AF1EE10FA14DDFE
:1015300009E07B6893ED0A7ADFED107A77EE677A3F
:101540007B68C3ED0A7A7B6893ED0A7ADFED0B7A4C
:10155000B4EEE77AF1EE10FAEBDC094B1B78002BC6
:1015600009D07B689B6A1846FEF776FF02460B4659
:10157000044805F0A5F90837BD4680BD0000B44316
:1015800000000020A43E010880B582B000AF786062
:1015900039607B683A681A60084B1B78002B09D0C9
:1015A0007B681B681846FEF757FF02460B46044847
:1015B00005F086F90837BD4680BD00BF0000002059
:1015C000BC3E010880B582B000AF786039607B68AE
:1015D0003A685A60084B1B78002B09D07B685B681F
:1015E0001846FEF739FF02460B46044805F068F935
:1015F0000837BD4680BD00BF00000020D43E010872
:1016000080B582B000AF786039607B683A689A60D4
:10161000084B1B78002B09D07B689B681846FEF7A7
:101620001BFF02460B46044805F04AF90837BD4641
:1016300080BD00BF00000020EC3E010880B483B0F4
:1016400000AF78607B68044A1A607B6818460C37E4
:10165000BD465DF8047B7047E84E010880B582B056
:1016600000AF78607B681846FFF7E8FF7B68064AA2
:101670001A607B680022DA617B6800229A617B68CD
:1016800018460837BD4680BDD04E010880B582B0EF
:1016900000AF786039607B68DA697B689B699A4241
:1016A00014BF00230123DBB2002B01D0002311E083
:1016B0007B68DB697A689B0013445A683B681A6050
:1016C0007B68DB697868194600F008F802467B6899
:1016D000DA61012318460837BD4680BD80B483B067
:1016E00000AF786039603B68032B02DC3B68013354
:1016F00000E0002318460C37BD465DF8047B7047B8
:1017000080B582B000AF78607B68084A1A607B6859
:101710001846FFF7ABFD0023002B02D0786804F0D9
:1017200003FA7B6818460837BD4680BDD04E0108D5
:1017300080B582B000AF78607868FFF7E1FF786825
:1017400004F0F2F97B6818460837BD4680BD00BF3B
:1017500080B584B002AF786039607B68012B19D105
:101760003A684FF6FF739A4214D10C48FFF776FFA0
:101770000A480B490B4A0DF06DF9002300930A4803
:101780000A49064A0A4B04F0D9F907480949054AAB
:101790000DF060F90837BD4680BD00BF3409002058
:1017A000011700089C26002054090020180A002078
:1017B000043F01081112000880B584B000AFF86042
:1017C000B9607A603B607B68042B04D9064803F05B
:1017D000E5FF002304E0F868396800F007F80346E5
:1017E00018461037BD4680BD203F010880B584B043
:1017F00000AF786039607B689B6978681946FFF7AD
:101800006DFFF8607B68DA69FB689A4214BF0023B9
:101810000123DBB2002B01D000230BE07B689B6926
:101820003A68126879689B000B445A607B68FA68D2
:101830009A61012318461037BD4680BD80B500AFC0
:1018400001204FF6FF71FFF783FF80BD80B483B0A6
:1018500000AF78607B684FF000021A607B684FF041
:1018600000025A607B684FF000029A607B684FF07C
:101870000002DA607B6800221A747B6818460C3715
:10188000BD465DF8047B704780B483B000AF7860DC
:101890000C37BD465DF8047B704700BF0FB480B4C1
:1018A00000AF00231846BD465DF8047B04B07047C6
:1018B00080B483B000AF786039603B685A687B6859
:1018C0005A603B689A687B689A603B68DA687B6814
:1018D000DA603B681A697B681A613B685A697B6801
:1018E0005A617B6818460C37BD465DF8047B70472B
:1018F00080B582B000AF786039607A683B68104686
:101900001946FFF7D5FF3B689A697B689A617B6847
:1019100018460837BD4680BD90B58DB002AF7860DF
:101920007B681B7883F00103DBB2002B07D17B6857
:1019300004331846FFF7B2FF0346002B01D1012301
:1019400000E00023002B15D07B681C1D07F10C0361
:101950001846202105F0FEF907F10C032046194630
:10196000FFF7C6FF7B6804331846012101220123DB
:1019700005F024FA7B6801221A707B68202283F824
:1019800020207B68572283F821207B6820337A68E7
:1019900023320092012201926F481D211A46022330
:1019A00005F0FAFE02467B681A637B681B6B002B0E
:1019B00003DA6A4804F084FFCAE07B68242283F8D3
:1019C00020207B68F42283F821207B6820337A680A
:1019D00023320092012201925F481D211A46022300
:1019E00005F0DAFE02467B681A637B681B6B002BEE
:1019F00003DA5A4804F064FFAAE07B680F2283F8F8
:101A000020207B6820337A682332009201220192E1
:101A100051481D211A46012305F0BEFE02467B688F
:101A20001A637B681B6B002B04DB7B6893F8233005
:101A3000492B03D04A4804F043FF89E07B68252204
:101A400083F820207B68002283F821207B682033E4
:101A50007A6823320092012201923F481D211A46E2
:101A6000022305F099FE02467B681A637B681B6BB4
:101A7000002B03DA394804F023FF69E07B68262253
:101A800083F820207B68002283F821207B682033A4
:101A900031481D211A46022305F04AFE0346DB0F9A
:101AA000DBB2002B03D02C482E4905F061FD7B688A
:101AB000232283F820207B68042283F821207B687E
:101AC000203325481D211A46022305F031FE034626
:101AD000DB0FDBB2002B03D01F48224905F048FD85
:101AE0007B68122283F820207B68092283F821205A
:101AF0007B68203318481D211A46022305F018FE82
:101B00000346DB0FDBB2002B03D01348154905F069
:101B10002FFD7B680022A3F842207B680022A3F8F7
:101B200044207B680022A3F846207B680022A3F8AB
:101B30004E207B680022A3F850207B680022A3F887
:101B400052207B68002283F83A20074804F0B8FE50
:101B50002C37BD4690BD00BFAC1D0020303F0108B2
:101B6000483F0108A0860100603F010880B584B0AD
:101B700002AF78607B68233318460021062203F009
:101B8000E1FE7B68203318460021032203F0DAFED1
:101B90007B68A82283F820207B6820337A68233270
:101BA0000092062201925C481D211A46012305F08D
:101BB000F3FD02467B681A637B681B6B002B09DA16
:101BC000564804F07DFE7B68233318460021062228
:101BD00003F0B8FE7B6893F824301B029AB27B684E
:101BE00093F8233019467B68B3F842309BB2CB1A86
:101BF0009BB29BB213439AB27B689A877B6893F837
:101C000026301B029AB27B6893F8253019467B6810
:101C1000B3F844309BB2CB1A9BB29BB213439AB237
:101C20007B68DA877B6893F828301B029AB27B685E
:101C300093F8273019467B68B3F846309BB2CB1A2D
:101C40009BB29BB213439AB27B68A3F840207B6897
:101C5000882283F820207B6820337A682332009220
:101C6000062201922C481D211A46012305F094FDFD
:101C700002467B681A637B681B6B002B09DA2848D5
:101C800004F01EFE7B68233318460021062203F071
:101C900059FE7B6893F824301B029AB27B6893F854
:101CA000233019467B68B3F84E309BB2CB1A9BB2F7
:101CB0009BB213439AB27B68A3F848207B6893F8E1
:101CC00026301B029AB27B6893F8253019467B6850
:101CD000B3F850309BB2CB1A9BB29BB213439AB26B
:101CE0007B68A3F84A207B6893F828301B029AB2DD
:101CF0007B6893F8273019467B68B3F852309BB263
:101D0000CB1A9BB29BB213439AB27B68A3F84C20C8
:101D10000837BD4680BD00BFAC1D0020703F0108E4
:101D2000A03F010880B485B000AFF86079813A81A6
:101D3000FB807A89FB68A3F842203A89FB68A3F804
:101D40004420FA88FB68A3F84620FB68012283F848
:101D50003A201437BD465DF8047B704780B485B0E7
:101D600000AFF86079813A81FB807A89FB68A3F83B
:101D70004E203A89FB68A3F85020FA88FB68A3F844
:101D80005220FB68012283F83A201437BD465DF8E3
:101D9000047B704780B483B000AF78607B68B3F891
:101DA000543018460C37BD465DF8047B704700BFC1
:101DB00080B483B000AF78607B689B8F9AB27B68F9
:101DC000B3F842309BB2D31A9BB29BB21BB21846F7
:101DD0000C37BD465DF8047B704700BF80B483B00C
:101DE00000AF78607B68DB8F9AB27B68B3F84430D1
:101DF0009BB2D31A9BB29BB21BB218460C37BD469E
:101E00005DF8047B704700BF80B483B000AF78609A
:101E10007B68B3F840309AB27B68B3F846309BB227
:101E2000D31A9BB29BB21BB218460C37BD465DF865
:101E3000047B704780B483B000AF78607B68B3F8F0
:101E400048309AB27B68B3F84E309BB2D31A9BB23B
:101E50009BB21BB218460C37BD465DF8047B704739
:101E600080B483B000AF78607B68B3F84A309AB230
:101E70007B68B3F850309BB2D31A9BB29BB21BB2B3
:101E800018460C37BD465DF8047B704780B483B0BC
:101E900000AF78607B68B3F84C309AB27B68B3F8D7
:101EA00052309BB2D31A9BB29BB21BB218460C376E
:101EB000BD465DF8047B704780B483B000AF7860A6
:101EC0007B68B3F842301BB218460C37BD465DF84C
:101ED000047B704780B483B000AF78607B68B3F850
:101EE00044301BB218460C37BD465DF8047B704782
:101EF00080B483B000AF78607B68B3F846301BB223
:101F000018460C37BD465DF8047B704780B483B03B
:101F100000AF78607B68B3F84E301BB218460C37C0
:101F2000BD465DF8047B704780B483B000AF786035
:101F30007B68B3F850301BB218460C37BD465DF8CD
:101F4000047B704780B483B000AF78607B68B3F8DF
:101F500052301BB218460C37BD465DF8047B704703
:101F600080B485B000AFF860B9607A60FB6893ED2B
:101F7000017ABB68D3ED027A27EE277AFB68D3EDAE
:101F8000026ABB68D3ED017A66EEA77A77EE677ACC
:101F90007B68C3ED007AFB6893ED027ABB68D3EDF2
:101FA000007A27EE277AFB68D3ED006ABB68D3ED91
:101FB000027A66EEA77A77EE677A7B68C3ED017ADC
:101FC000FB6893ED007ABB68D3ED017A27EE277AA0
:101FD000FB68D3ED016ABB68D3ED007A66EEA77AA1
:101FE00077EE677A7B68C3ED027A1437BD465DF8F9
:101FF000047B704780B483B000AF786039607B6841
:1020000093ED007A3B68D3ED007A27EE277A7B6860
:10201000D3ED016A3B68D3ED017A66EEA77A37EE1D
:10202000277A7B68D3ED026A3B68D3ED027A66EECD
:10203000A77A77EE277A17EE903A18460C37BD4606
:102040005DF8047B704700BF80B584B000AF786056
:1020500078687968FFF7CEFF03461846FEF7FCF96B
:1020600002460B46104619460CF010F902460B4684
:1020700010461946FEF726FD0346FB607B6893ED8C
:10208000007AD7ED037AC7EE277A7B68C3ED007A32
:102090007B6893ED017AD7ED037AC7EE277A7B68E8
:1020A000C3ED017A7B6893ED027AD7ED037AC7EE30
:1020B000277A7B68C3ED027A1037BD4680BD00BF2A
:1020C000B0B594B000AF78607868FFF7B3FE034610
:1020D00007EE103AF8EEC77AC7ED0F7A7868FFF787
:1020E000BFFE034607EE103AF8EEC77AC7ED107A46
:1020F0007868FFF7CBFE034607EE103AF8EEC77A92
:10210000C7ED117A7868FFF753FE034607EE103AE1
:10211000F8EEC77AC7ED0C7A7868FFF75FFE0346E2
:1021200007EE103AF8EEC77AC7ED0D7A7868FFF738
:102130006BFE034607EE103AF8EEC77AC7ED0E7A4B
:102140004FF000037B625A4BBB624FF00003FB620F
:1021500097ED0F7ADFED577A37EE277ADFED567A73
:10216000C7EE277A37EEA77AF7EE007A77EE677A2E
:10217000C7ED0F7A97ED107ADFED507A37EE277AB8
:10218000DFED4F7AC7EE277A37EEA77AF7EE007ABF
:1021900077EE677AC7ED107A97ED117ADFED497A1D
:1021A00037EE277ADFED487AC7EE277A37EEA77A3F
:1021B000F7EE007A77EE677AC7ED117A07F1300310
:1021C0001846FFF741FF07F13C0107F1300207F124
:1021D0001803084611461A46FFF7C2FE07F1180316
:1021E0001846FFF731FF07F1300107F1180207F138
:1021F0000C03084611461A46FFF7B2FE07F1180213
:1022000007F1240310461946FFF7F4FE034618466B
:10221000FEF722F904460D4607F10C0207F12403EC
:1022200010461946FFF7E6FE03461846FEF714F976
:1022300002460B46204629460CF026F802460B467D
:10224000104619464FF00002204BFEF759F902469E
:102250000B461046194614A3D3E90023FEF77AFA79
:1022600002460B46C7E91223D7E912014FF00002DC
:102270004FF00003FEF7B6FB0346002B0AD0D7E968
:1022800012014FF00002124BFDF788FF02460B4689
:10229000C7E91223D7E91201FEF714FC03461846DA
:1022A0005037BD46B0BD00BF182D4454FB21094036
:1022B000000080BF00001644000053440000A54306
:1022C00000406F440040244400C06D4400806640DC
:1022D00000807640AFF3008090B58BB000AF78609F
:1022E0007B681B7883F00103DBB2002B07D17B688E
:1022F00004331846FFF7D2FA0346002B01D101231D
:1023000000E00023002B15D07B681C1D07F10C0397
:102310001846122104F01EFD07F10C032046194651
:10232000FFF7E6FA7B6804331846012101220123F6
:1023300004F044FD7B6801221A707B68202283F838
:1023400020207B680F2283F821207B6820333E48C1
:102350006B211A46022305F0EBF90346DB0FDBB2D3
:10236000002B03D03848394905F002F97B68212257
:1023700083F820207B68002283F821207B682033AB
:1023800031486B211A46022305F0D2F90346DB0FD0
:10239000DBB2002B03D02C482C4905F0E9F87B6810
:1023A000222283F820207B68882283F821207B6802
:1023B000203325486B211A46022305F0B9F903465C
:1023C000DB0FDBB2002B03D01F48204905F0D0F80B
:1023D0007B68232283F820207B68202283F8212039
:1023E0007B681B4ADA637B68203317486B211A46E7
:1023F000022305F09DF90346DB0FDBB2002B03D06F
:102400001148124905F0B4F87B68242283F8202093
:102410007B68002283F821207B6820330A486B21E7
:102420001A46022305F084F90346DB0FDBB2002BCA
:1024300003D00548054905F09BF8064804F040FA2A
:102440002C37BD4690BD00BFAC1D0020A08601000A
:10245000295C8F3DD03F010880B485B000AFF860A3
:1024600079813A81FB807A89FB68A3F846203A8912
:10247000FB68A3F84820FA88FB68A3F84A201437C1
:10248000BD465DF8047B704780B584B002AF7860CC
:102490007B68233318460021062203F053FA7B6839
:1024A000203318460021032203F04CFA7B68A8224F
:1024B00083F820207B6820337A682332009206223A
:1024C00001922C486B211A46012305F065F902465A
:1024D0007B681A637B681B6B002B09DA264804F0C3
:1024E000EFF97B68233318460021062203F02AFA0D
:1024F0007B6893F824301B029AB27B6893F82330F0
:1025000019467B68B3F846309BB2CB1A9BB29BB29C
:1025100013439AB27B68A3F840207B6893F8263077
:102520001B029AB27B6893F8253019467B68B3F892
:1025300048309BB2CB1A9BB29BB213439AB27B68D2
:10254000A3F842207B6893F828301B029AB27B687C
:1025500093F8273019467B68B3F84A309BB2CB1A00
:102560009BB29BB213439AB27B68A3F8442008370E
:10257000BD4680BDAC1D00200040010880B483B082
:1025800000AF78607B68B3F840301BB206EE903A3B
:10259000B8EEE67ADFED0F7A37EE277A7B68D3ED77
:1025A0000F7A27EE277A7B68B3F846301BB206EE27
:1025B000903AF8EEE67A77EE677AFDEEE77A17EE74
:1025C000903A9BB21BB218460C37BD465DF8047BAF
:1025D000704700BFE8F40A4180B483B000AF786070
:1025E0007B68B3F842301BB206EE903AB8EEE67A5A
:1025F000DFED0F7A37EE277A7B68D3ED0F7A27EE7F
:10260000277A7B68B3F848301BB206EE903AF8EEB2
:10261000E67A77EE677AFDEEE77A17EE903A9BB2AC
:102620001BB218460C37BD465DF8047B704700BFEF
:10263000E8F40A4180B483B000AF78607B68B3F8F7
:1026400044301BB206EE903AB8EEE67ADFED0F7A30
:1026500037EE277A7B68D3ED0F7A27EE277A7B68EF
:10266000B3F84A301BB206EE903AF8EEE67A77EE0F
:10267000677AFDEEE77A17EE903A9BB21BB21846E6
:102680000C37BD465DF8047B704700BFE8F40A4193
:1026900080B483B000AF78607B68B3F846301BB27B
:1026A00018460C37BD465DF8047B704780B483B094
:1026B00000AF78607B68B3F848301BB218460C371F
:1026C000BD465DF8047B704780B483B000AF78608E
:1026D0007B68B3F84A301BB218460C37BD465DF82C
:1026E000047B704780B582B000AF78607B680A4A8F
:1026F0001A600A4803F052F87B680433184603F066
:10270000CDF80023002B02D0786803F00DFA7B6827
:1027100018460837BD4680BD384F010830400108D3
:1027200080B582B000AF78607868FFF7DBFF78682B
:1027300003F0FAF97B6818460837BD4680BD00BF34
:1027400080B582B000AF78607B6804331846002102
:1027500004F000FB7B6818460837BD4680BD00BF0B
:1027600080B582B000AF78607B68043318460021E2
:1027700004F0F0FA7B6818460837BD4680BD00BFFC
:1027800080B584B000AFF860B960C7E90023FB688A
:102790001846B96864224FF4FA630AF085FDFB68B5
:1027A000104A1A60FB6858331846002104F0D2FA28
:1027B000FB6874331846002104F0CCFAFB689033B0
:1027C0001846FFF7BDFFFB68DC331846FFF7C8FF6C
:1027D000F968D7E90023C1E91423FB6818461037CC
:1027E000BD4680BD204F010880B582B000AF786043
:1027F00039603B681A787B681A707B681A1D3B68E1
:10280000043310461946FFF773F87B683A682033A3
:1028100020321268114619800233120C1A707B683C
:102820003A68233323321168196092889A807B6852
:102830003A682A332A321168196092889A807B6834
:102840003A683033303292E8030083E803003B6893
:102850001A8F7B681A873B68DA6B7B68DA633B68A0
:10286000B3F840207B68A3F840203B68B3F84220CF
:102870007B68A3F842203B68B3F844207B68A3F848
:1028800044203B68B3F846207B68A3F846203B68A9
:10289000B3F848207B68A3F848203B68B3F84A2087
:1028A0007B68A3F84A207B6818460837BD4680BD80
:1028B00080B582B000AF786039603B681A787B6879
:1028C0001A707B681A1D3B68043310461946FFF7DF
:1028D0000FF87B683A68203320321268114619805D
:1028E0000233120C1A707B683A6823332332116862
:1028F000196092889A807B683A682A332A32116874
:10290000196092889A807B683A683033303292E856
:10291000030083E803003B681A8F7B681A873B68D3
:1029200093F83A207B6883F83A203B689A8F7B685B
:102930009A873B68DA8F7B68DA873B68B3F8402078
:102940007B68A3F840203B68B3F842207B68A3F87B
:1029500042203B68B3F844207B68A3F844203B68DE
:10296000B3F846207B68A3F846203B68B3F84820BC
:102970007B68A3F848203B68B3F84A207B68A3F83B
:102980004A203B68B3F84C207B68A3F84C203B6896
:10299000B3F84E207B68A3F84E203B68B3F8502074
:1029A0007B68A3F850203B68B3F852207B68A3F8FB
:1029B00052203B68B3F854207B68A3F854207B680E
:1029C00018460837BD4680BD90B5B5B000AF7860F9
:1029D0007B6803F1580407F10C031846372104F013
:1029E000B9F907F10C0320461946FEF781FF7B6811
:1029F0005833184601210122012304F0DFF925484C
:102A0000254904F0B5FDC7F8CC00D7F8CC30002B31
:102A100003D1224803F054FF02E0214803F050FFA5
:102A20007B6803F1900407F128024C231046002133
:102A30001A4602F087FF07F128031846FFF780FEC9
:102A400007F1280320461946FFF7CEFE7B68903336
:102A50001846FFF741FC7B6803F1DC0407F17402C0
:102A60005823104600211A4602F06CFF07F1740348
:102A70001846FFF775FE07F1740320461946FFF765
:102A800017FF7B68DC331846FEF746FFD437BD4698
:102A900090BD00BFAC1D0020A08601004040010891
:102AA00064400108B0B58CB000AF78600023FB62D1
:102AB0000023BB6200237B6200233B620023FB6197
:102AC0000023BB6100237B6100233B610023FB608B
:102AD0000023FB726AE07B6890331846FFF7D4FC52
:102AE0007B6890331846FFF749FD0346FA6A1344A2
:102AF000FB627B6890331846FFF76EFD0346BA6AA7
:102B00001344BB627B6890331846FFF793FD03467E
:102B10007A6A13447B627B68DC331846FFF726F839
:102B20007B68DC331846FFF743F903463A6A1344DF
:102B30003B627B68DC331846FFF750F90346FA69BD
:102B40001344FB617B68DC331846FFF75DF90346ED
:102B5000BA691344BB617B68DC331846FFF76AF936
:102B600003467A6913447B617B68DC331846FFF7C0
:102B700077F903463A6913443B617B68DC331846B6
:102B8000FFF784F90346FA681344FB6003F03CF94D
:102B90005C4A4FF00003121843EB0103104619463C
:102BA00000220AF0D1FCFB7A0133FB72FB7A632B23
:102BB00091D97B6803F19000FB6A534A82FB0312B0
:102BC0005211DB17D31A99B2BB6A4F4A82FB03C278
:102BD0005211DB17D31A9AB27B6A4B4C84FB03C4A5
:102BE0006411DB17E31A9BB2FFF736FC7B6803F135
:102BF000DC003B6A444A82FB03125211DB17D31AF2
:102C000099B2FB69404A82FB03C25211DB17D31A07
:102C10009AB2BB693C4C84FB03C46411DB17E31A12
:102C20009BB2FFF77FF87B6803F1DC007B69364AD3
:102C300082FB03125211DB17D31A99B23B69324A55
:102C400082FB03C25211DB17D31A9AB2FB682E4CD7
:102C500084FB03C46411DB17E31A9BB2FFF77EF811
:102C60002A4B1B78002B4AD07B6890331846FFF71D
:102C70000FFD03461D467B6890331846FFF716FD8F
:102C800003461C467B6890331846FFF71DFD03463C
:102C90001F482946224603F013FE7B68DC331846A2
:102CA000FFF70AF903461D467B68DC331846FFF739
:102CB00011F903461C467B68DC331846FFF718F908
:102CC000034614482946224603F0FAFD7B68DC33AC
:102CD0001846FFF71BF903461D467B68DC33184690
:102CE000FFF722F903461C467B68DC331846FFF7E2
:102CF00029F9034608482946224603F0E1FD30370A
:102D0000BD46B0BD809698001F85EB5100000020A5
:102D1000A8400108C4400108E040010880B584B023
:102D200000AFF860C7E90023F968D7E90023C1E9DB
:102D30001423064B1B78002B05D0FB68D3E9142322
:102D4000034803F0BDFD1037BD4680BD00000020E4
:102D5000FC40010880B58AB000AF786003F054F8F9
:102D600002460B46104619467B68D3E91423121815
:102D700043EB01031046194600220AF0E5FB7B688D
:102D800090331846FFF780FB7B6890331846FFF7B7
:102D9000F5FB03463B847B6890331846FFF71CFC29
:102DA00003467B847B6890331846FFF743FC034659
:102DB000BB847B68DC331846FEF7D8FE7B68DC33C7
:102DC0001846FEF7F5FF03463B837B68DC33184665
:102DD000FFF704F803467B837B68DC331846FFF774
:102DE00013F80346BB837B68DC331846FFF722F8F1
:102DF00003463B827B68DC331846FFF731F8034615
:102E00007B827B68DC331846FFF740F80346BB82C1
:102E10007B68DC331846FFF753F90346BB607B68D9
:102E2000DC331846FEF7B6FF034607EE103AF8EE1D
:102E3000477AC7ED037A07F118032948194601229A
:102E400000F094F807F1200326481946012200F00B
:102E50008DF807F1100324481946012200F086F886
:102E600007F1080321481946012200F093F807F101
:102E70000C031F481946012200F08CF81D4B1B78EB
:102E8000002B2CD03B8C19B27B8C1AB2BB8C1BB2A2
:102E9000194803F015FD3B8B19B27B8B1AB2BB8B23
:102EA0001BB2164803F00CFD3B8A19B27B8A1AB29A
:102EB000BB8A1BB2124803F003FDBB681846FDF73E
:102EC000CBFA02460B460F4803F0FAFCFB681846A3
:102ED000FDF7C2FA02460B460B4803F0F1FC3DE752
:102EE00088090020D0090020AC090020180A002021
:102EF000F40900202023002018410108284101087E
:102F000038410108484101085441010880B584B0A6
:102F100000AFF860B9607A60FB681846B9680622AD
:102F20007B6802F0DDFFFB68034A1A60FB68184605
:102F30001037BD4680BD00BF104F010880B584B07A
:102F400000AFF860B9607A60FB681846B96804227F
:102F50007B6802F0C5FFFB68034A1A60FB681846ED
:102F60001037BD4680BD00BF004F010880B584B05A
:102F700000AFF860B9601346FB71FA68FB79104640
:102F8000B9681A46002303F01BF8034618461037A9
:102F9000BD4680BD80B584B000AFF860B96013460F
:102FA000FB71FA68FB791046B9681A46002303F0F2
:102FB00007F8034618461037BD4680BD80B582B07D
:102FC00000AF78607B68084A1A607B6818460AF090
:102FD000D9F90023002B02D0786802F0A5FD7B68A8
:102FE00018460837BD4680BD204F010880B582B025
:102FF00000AF78607868FFF7E1FF786802F094FD31
:103000007B6818460837BD4680BD00BF80B582B0DA
:1030100000AF786039607B68012B3BD13A684FF68E
:10302000FF739A4236D11D484FF0FF311C4AFFF71B
:103030006DFF1A481B491C4A0BF00CFD1B484FF052
:10304000FF311B4AFFF762FF18481649164A0BF07A
:1030500001FD18484FF0FF31174AFFF757FF154899
:103060001049114A0BF0F6FC14484FF0FF31144A96
:10307000FFF764FF114813490B4A0BF0EBFC1248B1
:103080004FF0FF31114AFFF759FF0F480D49064A2B
:103090000BF0E0FC0837BD4680BD00BF880900206A
:1030A000604101082D3100089C260020AC09002059
:1030B00070410108D009002080410108F409002076
:1030C00088410108D1300008180A00209441010805
:1030D00080B582B000AF78607B680A4A1A600A48FF
:1030E00002F05CFB7B681846FFF7FCFA0023002B1C
:1030F00002D0786802F018FD7B6818460837BD4694
:1031000080BD00BF004F0108A041010880B582B01A
:1031100000AF78607868FFF7DBFF786802F004FDA5
:103120007B6818460837BD4680BD00BF80B582B0B9
:1031300000AF78607B680A4A1A600A4802F02EFBEA
:103140007B681846FFF7CEFA0023002B02D0786880
:1031500002F0EAFC7B6818460837BD4680BD00BF18
:10316000104F0108A041010880B582B000AF78601F
:103170007868FFF7DBFF786802F0D6FC7B681846BA
:103180000837BD4680BD00BF80B500AF01204FF6B7
:10319000FF71FFF73BFF80BD80B584B000AFF860E2
:1031A000B9607A60FB681846B96864224FF4FA6324
:1031B0000AF07AF8FB68164A1A60FB687A681A65A2
:1031C000D7E906230EA1D1E90001994208BF904238
:1031D00006D3F9680CA3D3E90023C1E9162304E060
:1031E000F968D7E90623C1E91623FB68012283F8B1
:1031F0006020FB6818461037BD4680BDAFF30080E5
:10320000FFE0F5050000000000E1F505000000000A
:10321000584F0108AFF3008080B483B000AF7860EE
:103220007B68012283F860200C37BD465DF8047B83
:10323000704700BF80B483B000AF78607B68002225
:1032400083F860200C37BD465DF8047B704700BFF3
:1032500080B58AB002AF78607B681B6D184625493F
:1032600004F086F9F861FB69002B03D1224803F0D2
:1032700027FB02E0214803F023FB00233B750323D7
:103280007B7500233B747B681A6D07F1140307F10B
:103290001001009101210191104629211A460223B3
:1032A00004F07AFAB8611648B96903F009FB3B7C6F
:1032B0001A463B7C032B14BF00230123DBB21148C9
:1032C0001146032203F0FCFA81233B7300237B7336
:1032D0007B681A6D07F10C03104629211A46022358
:1032E00004F026FAB8610848B96903F0E9FA203712
:1032F000BD4680BDA0860100C0410108E041010833
:10330000F0410108184201084042010880B58CB024
:1033100002AF78600023FB6100233B6200233B8304
:103320000023BB820023FB840023BB84AC233B74BB
:10333000AE233B730023BB6002F066FD02460B46E2
:10334000104619467B68D3E91623121843EB010394
:103350001046194600220AF0F7F87B6893F86030AF
:10336000002B4CD07B681A6D07F1100307F1180190
:10337000009102210191104629211A46012304F0EF
:103380000BFA0346FB617B681A6D07F10C0307F12A
:103390001401009102210191104629211A460123AE
:1033A00004F0FAF903463B623B6A002B27DDFB6918
:1033B000002B24D03B7E1B029AB27B7E1344FB84FD
:1033C0003B7D1B029AB27B7D1344BB84FA8CBB8C81
:1033D000786811461A4600F019F80346BB6007F1F9
:1033E000080307481946012200F0D4F8054B1B7862
:1033F000002B04D0BB680448194603F061FA9BE730
:103400003C0A0020202300206042010880B48DB0D7
:1034100000AF786013460A467A803B8047F2175324
:103420003B627B883A6A02FB03F39B0AFB613B88A1
:103430003A6A02FB03F39B0ABB610023FB62FB6950
:10344000002B05D0BB699A02FB69B2FBF3F3FB6268
:10345000FB6A01335B087B617B69432B06D84FF421
:103460000173BB6240F2AD137B6247E07B69852B41
:1034700006D84FF40A73BB6240F2C1237B623DE081
:103480007B69C82B06D840F25323BB6240F26333FA
:103490007B6233E07B69B3F5857F06D840F28223F7
:1034A000BB6240F2DF337B6228E07B69B3F5A77F24
:1034B00006D240F27713BB6240F2DD137B621DE05F
:1034C0007B69B3F5CD7F06D840F20113BB6240F2B1
:1034D00027137B6212E07A6940F29A239A4204D859
:1034E0003723BB622B237B6208E07A6940F29A2380
:1034F0009A4203D90023BB6200237B62FB69BA6A4C
:1035000002FB03F2BB69796A01FB03F3D31A3B6147
:103510003B6903F500533B613B699B0BFB60FB6818
:1035200018463437BD465DF8047B704780B584B0DB
:1035300000AFF860C7E90023F968D7E90023C1E9C3
:103540001623064B1B78002B05D0FB68D3E9162306
:10355000034803F0B5F91037BD4680BD00000020D8
:103560006C42010880B584B000AFF860B9607A6041
:10357000FB681846B96804227B6802F0B1FCFB685E
:10358000034A1A60FB6818461037BD4680BD00BF6D
:10359000484F010880B584B000AFF860B9601346A9
:1035A000FB71FA68FB791046B9681A46002302F0ED
:1035B00007FD034618461037BD4680BD80B582B072
:1035C00000AF78607B68084A1A607B68184609F08B
:1035D000D9FE0023002B02D0786802F0A5FA7B68A0
:1035E00018460837BD4680BD584F010880B582B0E7
:1035F00000AF78607868FFF7E1FF786802F094FA2E
:103600007B6818460837BD4680BD00BF80B582B0D4
:1036100000AF786039607B68012B0FD13A684FF6B4
:10362000FF739A420AD107484FF0FF31064AFFF76D
:1036300099FF04480549064A0BF00CFA0837BD46C5
:1036400080BD00BF3C0A00209042010855360008AA
:103650009C26002080B582B000AF78607B680A4A63
:103660001A600A4802F09AF87B681846FFF73AF8A1
:103670000023002B02D0786802F056FA7B681846C7
:103680000837BD4680BD00BF484F01089C42010875
:1036900080B582B000AF78607868FFF7DBFF7868AC
:1036A00002F042FA7B6818460837BD4680BD00BF6D
:1036B00080B500AF01204FF6FF71FFF7A7FF80BD77
:1036C00080B582B000AF7860124801210122012349
:1036D00003F074FB104801210122002303F06EFB6C
:1036E0000E4800210122002303F068FB0C48012151
:1036F0000122002303F062FB0A484FF47A7164222E
:1037000004F09CFD0748322105F0FAF90837BD4660
:1037100080BD00BF600A00207C0A0020980A0020BB
:10372000B40A0020D00A002080B582B000AF7860D3
:103730000448012103F050FC034B01221A700837A2
:10374000BD4680BDB40A0020EC0A002080B582B0DE
:1037500000AF78600648002103F03EFC054B0022D4
:103760001A70054803F0ACF80837BD4680BD00BFAD
:10377000B40A0020EC0A0020AC42010880B582B0F7
:1037800000AF78600B46FB70FB78642B00D91DE01E
:10379000FB78002B02D17868FFF7D8FF0D4B1B7820
:1037A00083F00103DBB2002B02D07868FFF7BCFF87
:1037B000FB780948194605F0A3F9084B1B78002B44
:1037C00004D0FB780648194603F07AF80837BD465E
:1037D00080BD00BFEC0A0020D00A002000000020BD
:1037E000B842010880B582B000AF786039607B686C
:1037F000012B18D13A684FF6FF739A4213D10B4848
:10380000242103F0A7FA0A48112103F0A3FA09487A
:103810003C2103F09FFA0848422103F09BFA074835
:103820000C2104F0E1FC0837BD4680BD600A002091
:103830007C0A0020980A0020B40A0020D00A002048
:1038400080B500AF01204FF6FF71FFF7CBFF80BDC1
:1038500080B582B000AF786039607B6818463968FF
:1038600064224FF4FA6309F01FFD7B68034A1A6073
:103870007B6818460837BD4680BD00BF704F010801
:1038800080B582B000AF78607B6850331846FFF790
:1038900017FF054B1B78002B02D0044803F010F8EB
:1038A0000837BD4680BD00BF00000020F842010877
:1038B00080B582B000AF78604FF0FF306FF000410C
:1038C000002209F041FEF7E780B582B000AF7860D2
:1038D0000B46FB707B6803F15002FB7810461946DB
:1038E000FFF74CFF0837BD4680BD00BF80B582B0F2
:1038F00000AF78607B68084A1A607B68184609F058
:1039000041FD0023002B02D0786802F00DF97B689E
:1039100018460837BD4680BD704F010880B582B09B
:1039200000AF78607868FFF7E1FF786802F0FCF894
:103930007B6818460837BD4680BD00BF80B584B09F
:1039400000AFF860B9607A60FB681846B968012278
:103950007B6802F0C5FAFB68034A1A60FB681846E8
:103960001037BD4680BD00BF884F010880B582B0CA
:1039700000AF786039607B68012B0FD13A684FF651
:10398000FF739A420AD1074848F20771064AFFF7C7
:10399000D5FF04480549064A0BF05CF80837BD46D8
:1039A00080BD00BFF00A002018430108B5390008A7
:1039B0009C26002080B582B000AF78607B680A4A00
:1039C0001A600A4801F0EAFE7B681846FEF78AFE94
:1039D0000023002B02D0786802F0A6F87B68184616
:1039E0000837BD4680BD00BF884F01082443010849
:1039F00080B582B000AF78607868FFF7DBFF786849
:103A000002F092F87B6818460837BD4680BD00BFBB
:103A100080B500AF01204FF6FF71FFF7A7FF80BD13
:103A200080B584B000AFF860B9607A60FB68184672
:103A3000B96864224FF4FA6309F036FCFB68074A60
:103A40001A60F968D7E90623C1E91623FB687A688A
:103A50001A65FB6818461037BD4680BDC04F010887
:103A600080B582B000AF78607B681B6D18464FF45C
:103A7000E13105F059FD0837BD4680BD90B5A9B0CC
:103A800002AF78600023C7F8943079687B68D3E987
:103A90001623CDE9002308464FF000024FF0000343
:103AA00002F032F955E07B681B6D1B6818331B6808
:103AB0007A68126D104698470346002B1ED07B682B
:103AC0001A6D07F10C0310461946402205F08CFDD3
:103AD000C7F8940007F10C0207F14C03786811460F
:103AE000D7F8942000F044F80346002B06D007F1E5
:103AF0004C031D481946012200F0EAF807F14C0377
:103B00001A48194600F0F8F80346002B19D007F1BF
:103B10000C0207F14C03786811461A4600F090F841
:103B20007B681C6D07F14C030733184601F0C4FE97
:103B30000346083307F10C02204611461A4605F0E9
:103B4000C1FD07F14C024723104600211A4601F03F
:103B5000F9FE7B68184602F0EDF80123002BA2D194
:103B60009C37BD4690BD00BF140B00205C0B0020AD
:103B70002DE9F04389B000AFF860B9607A603B602E
:103B80007B68062B07DCB86801F096FE0346062B1F
:103B900001D800234DE0B86801F08EFE0346063BD5
:103BA000BB613B6818462549BA680AF067FFBB69E4
:103BB000002B3DD06B461E46BB69591E79610B46F2
:103BC00001331A464FF000034FEAC30949EA52791C
:103BD0004FEAC2080B4601331A464FF00003DD00DE
:103BE00045EA5275D4000B4601330733DB08DB008E
:103BF000ADEB030D6B4600333B610023FB770BE01D
:103C00003A69FB7F1344FA7F0632B9680A44127896
:103C10001A70FB7F0133FB77FA7FBB699A42EFD3BF
:103C20003B68DA1D3B691046194601F063FEB54654
:103C3000012318462437BD46BDE8F083E043010860
:103C400080B584B000AFF860B9607A607A687B684C
:103C50000733B86802490AF011FF1037BD4680BD2E
:103C6000E843010880B584B000AFF860B9607A60BD
:103C7000FB681846B96847227B6802F031F9FB6897
:103C8000034A1A60FB6818461037BD4680BD00BF66
:103C9000B04F010880B582B000AF78607B681846ED
:103CA000FDF7CCFC7B68094A1A607B6803F58E53EC
:103CB000083300221A607B6803F58E530433002218
:103CC0001A607B6818460837BD4680BD984F0108CA
:103CD00080B584B000AFF860B9601346FB71FA6834
:103CE000FB791046B9681A46002302F069F90346C9
:103CF00018461037BD4680BD80B582B000AF7860F1
:103D000039607B6803F58E5308331A687B6803F5C6
:103D10008E5304331B689A4214BF00230123DBB285
:103D2000002B01D0002323E07B6803F58E5308337A
:103D30001A68396878681346DB001344DB009B1A65
:103D400003441A1D4723084611461A4601F01CFE7B
:103D50007B6803F58E5308331B687868194600F0BA
:103D60000BF802467B6803F58E5308331A60012373
:103D700018460837BD4680BD80B483B000AF786078
:103D800039603B683E2B02DC3B68013300E00023D6
:103D900018460C37BD465DF8047B704780B582B08D
:103DA00000AF78607B68084A1A607B681846FDF7A8
:103DB0005DFA0023002B02D0786801F0B5FE7B6825
:103DC00018460837BD4680BD984F010880B582B0BF
:103DD00000AF78607868FFF7E1FF786801F0A4FE33
:103DE0007B6818460837BD4680BD00BF80B582B0ED
:103DF00000AF78607B68084A1A607B68184609F053
:103E0000C1FA0023002B02D0786801F08DFE7B6898
:103E100018460837BD4680BDC04F010880B582B046
:103E200000AF78607868FFF7E1FF786801F07CFE0A
:103E30007B6818460837BD4680BD00BF80B584B09A
:103E400002AF786039607B68012B2FD13A684FF65A
:103E5000FF739A422AD117484FF0FF31164AFFF7F5
:103E600001FF14481549164A0AF0F4FD15484FF0B1
:103E7000FF31154AFFF7F6FE12481049104A0AF0C2
:103E8000E9FD1248FFF706FF104811490C4A0AF0F5
:103E9000E1FD002300930F480A490C4A0E4B01F044
:103EA0004DFE0C480D49064A0AF0D4FD0837BD46C0
:103EB00080BD00BF140B0020F4430108153F00082B
:103EC0009C260020380B0020F84301085C0B0020E2
:103ED0009D3D0008281D0020FC4301081112000828
:103EE00080B584B000AFF860B9607A603B607B68F1
:103EF000472B04D9064801F051FC002304E0F86880
:103F0000396800F035F8034618461037BD4680BDC5
:103F10000444010880B582B000AF78607B680A4A2B
:103F20001A600A4801F03AFC7B681846FEF7DAFB93
:103F30000023002B02D0786801F0F6FD7B6818465C
:103F40000837BD4680BD00BFB04F010814440108CA
:103F500080B582B000AF78607868FFF7DBFF7868E3
:103F600001F0E2FD7B6818460837BD4680BD00BF02
:103F700080B584B000AF786039607B6803F58E53FC
:103F800004331B6878681946FFF7F6FEF8607B6813
:103F900003F58E5308331A68FB689A4214BF002356
:103FA0000123DBB2002B01D000231BE07B6803F56B
:103FB0008E5304331A6879681346DB001344DB0020
:103FC0009B1ACA183B68111D1A464723084611461A
:103FD0001A4601F0D9FC7B6803F58E530433FA6866
:103FE0001A60012318461037BD4680BD80B500AF6A
:103FF00001204FF6FF71FFF721FF80BD80B582B031
:1040000000AF78607B68084A1A607B68184609F040
:10401000B9F90023002B02D0786801F085FD7B6898
:1040200018460837BD4680BD7050010880B582B083
:1040300000AF78607868FFF7E1FF786801F074FD01
:104040007B6818460837BD4680BD00BF80B582B08A
:1040500000AF78607B680C4A1A607B680B4A1A656F
:104060007B6850331846FDF7D3F87B68184609F093
:1040700089F90023002B02D0786801F055FD7B6898
:1040800018460837BD4680BD085001082450010875
:10409000A0F15000FFF7DABF80B582B000AF7860C2
:1040A0007868FFF7D3FF786801F03EFD7B6818461B
:1040B0000837BD4680BD00BFA0F15000ECE700BF4F
:1040C00080B582B000AF78607B68084A1A607B6870
:1040D000184609F057F90023002B02D0786801F048
:1040E00023FD7B6818460837BD4680BDD84F0108C0
:1040F00080B582B000AF78607868FFF7E1FF78683C
:1041000001F012FD7B6818460837BD4680BD00BF30
:1041100080B584B002AF786039607B68012B73D1C1
:104120003A684FF6FF739A426ED14148414940F2D6
:10413000D17201F003FA3E483F49404A0AF08AFC36
:104140003F48032104F07CFF3E48032103F028F997
:104150003D48022103F024F92DA3D3E90023CDE942
:1041600000233A483A49364AFFF75AFC374839495A
:10417000324A0AF06FFC3848384927A3D3E90023B4
:10418000FEF7FEFA344836492C4A0AF063FC24A3B1
:10419000D3E90023CDE9002332483349294AFEF709
:1041A000FBFF30483149254A0AF054FC3048314978
:1041B000FFF74EFB2E483049204A0AF04BFC2F48AF
:1041C0002F4919A3D3E9002300F0E0FD2B482D4926
:1041D0001A4A0AF03FFC264B00932B482B491E4AF3
:1041E000204B00F093F928482949144A0AF032FC80
:1041F000284829490AA3D3E9002300F059F82548A3
:1042000026490E4A0AF026FC0837BD4680BD00BF8D
:1042100080F0FA02000000000065CD1D00000000E3
:1042200000E1F5050000000000CA9A3B0000000014
:10423000581D0020384401087D5500089C260020A8
:10424000741D0020901D0020AC1D0020C81D002002
:1042500044440108ED3D0008281E00205044010898
:10426000BD2F0008601F002054440108BD35000820
:10427000C81F002060440108ED38000820200020FD
:104280006C440108FD3F00088020002078440108AC
:104290004D4000081021002084440108C14000085E
:1042A00080B500AF01204FF6FF71FFF731FF80BDF1
:1042B000B0B594B000AFF860B960C7E90023FB68FF
:1042C0001846B96864224FF4FA6308F0EDFFFB6802
:1042D0002B4A1A60FB685C331846FCF7FDFFFB684D
:1042E00088331846FDF7B2FAD7E9002320A1D1E9B7
:1042F0000001994208BF904206D3F9681EA3D3E992
:104300000023C1E9142304E0F968D7E90023C1E9D7
:104310001423FB68002283F8582007F11003184685
:10432000FCF7DAFFFB6803F15C0407F110050FCD21
:104330000FC40FCD0FC495E8070084E8070007F10C
:104340003C031846FDF782FAFB6803F1880507F184
:104350003C040FCC28606960AA60EB6023782B7462
:10436000FB6818465037BD46B0BD00BFAFF30080B4
:10437000FFE0F5050000000000E1F5050000000089
:10438000D84F0108AFF3008080B483B000AF7860ED
:104390000C37BD465DF8047B704700BF80B582B026
:1043A00000AF78600B46FB707B6893F85830022BA7
:1043B0000BD17B685C33FA7807EE102AF8EE477A67
:1043C000184617EE901AFDF785F80837BD4680BDF0
:1043D00080B582B000AF786001F016FD02460B4652
:1043E000104619467B68D3E91423121843EB0103E6
:1043F00010461946002209F0A7F8786800F002F884
:10440000EAE700BF80B582B000AF78607B6893F8C0
:104410005830012B03D0022B07D0002B0BE07B6818
:1044200088331846FDF730FA05E07B685C331846A0
:10443000FCF78CFF00BF0837BD4680BD80B582B059
:1044400000AF78600B46FB707B6893F85830FA78C1
:104450009A4200D106E07B68FA7883F858207868A1
:1044600000F004F80837BD4680BD00BF80B582B0BB
:1044700000AF78607B6893F85830042B0CD801A209
:1044800052F823F099440008994400089944000820
:104490009944000899440008064B1B78002B06D06D
:1044A0007B6893F858300448194602F009FA083737
:1044B000BD4680BD00000020B044010880B584B036
:1044C00000AFF8600B467A60FB72FB7A012B0BD0D1
:1044D000022B10D0002B00D014E0FB685C33184690
:1044E0007968FDF751F80DE0FB685C331846796890
:1044F000FDF768F806E0FB685C3318467968FDF75D
:104500007FF800BF1037BD4680BD00BF80B584B0C6
:1045100000AFF860B9607A603B60FB6818461249EA
:1045200064224FF4FA6308F0BFFEFB68503318466C
:104530000E49BA6801F034FBFB680D4A1A60FB684B
:104540000C4A1A65FB687A68C3F88020FB683A68F1
:10455000C3F88420FB68BA69C3F88820FB68184652
:104560001037BD4680BD00BF64450108140B002014
:10457000085001082450010880B584B000AFF860ED
:10458000B9607A603B600648396800F019FBFB6847
:10459000184608F0BDFF012318461037BD4680BD00
:1045A000B0210020A0F15000FFF7E6BF80B483B037
:1045B00000AF78600C37BD465DF8047B704700BFE4
:1045C00080B594B000AF78604FF0FF306FF00041DD
:1045D000002208F0B9FF07F108030948194600F066
:1045E00025FB07F108037868194600F00BF807F17E
:1045F00008024723104600211A4601F0A3F9E3E719
:10460000B02100202DE9904F8BB000AF7862396265
:10461000AD4B1B78002B07D03A6A3B6A0733AB4897
:1046200011461A4602F04CF9786A396AA84A00F035
:1046300081FA0346002B0ED07B6AD3F888403B6A90
:10464000073318460AF010FA0346DBB22046194633
:10465000FFF73AF943E2786A396A9E4A00F06AFA4B
:104660000346002B0BD03B6A073318460AF0FCF9CF
:104670000346DBB298481946FFF790FE2FE2786AAE
:10468000396A964A00F056FA0346002B03D0944844
:1046900002F016F923E2786A396A924A00F04AFA7F
:1046A0000346002B47D07B6AD3F880403B6A073330
:1046B00018460AF0D9F9034618464FEAE071024657
:1046C0000B464FEA432CC7F81CC0D7F81CC04CEA75
:1046D000D25CC7F81CC04FEA422CC7F818C0D7E913
:1046E00006234FEA431B4BEAD26B4FEA421ABAEB5E
:1046F000020A6BEB030B1AEB000A4BEB010B4FEAC0
:104700008B127A617B6943EA9A637B614FEA8A1C68
:10471000C7F810C0D7E90423B2EB0A0263EB0B031E
:10472000C7E90423D7E90423121843EB0103204609
:10473000FEF7F4FAD3E1786A396A6B4A00F0FAF9C5
:104740000346002B47D07B6AD3F884403B6A07338B
:1047500018460AF089F9034618464FEAE071024606
:104760000B464FEA432CC7F80CC0D7F80CC04CEAF4
:10477000D25CC7F80CC04FEA422CC7F808C0D7E992
:1047800002234FEA431949EAD2694FEA4218B8EBCB
:10479000020869EB030918EB000849EB01094FEA2D
:1047A00089127A607B6843EA98637B604FEA881CD1
:1047B000C7F800C0D7E90023B2EB080263EB090396
:1047C000C7E90023D7E90023121843EB0103204671
:1047D000FEF7ACFE83E1786A396A444A00F0AAF930
:1047E0000346002B0BD07B6AD3F880301B680C3358
:1047F0001B687A6AD2F88020104698476FE1786A81
:10480000396A3B4A00F096F90346002B06D07B6AD2
:10481000D3F880301846FEF745F960E1786A396AC6
:10482000344A00F087F90346002B0BD07B6AD3F89B
:1048300088301B680C331B687A6AD2F888201046CF
:1048400098474CE1786A396A2B4A00F073F90346BD
:10485000002B0ED07B6AD3F884301846FEF7EAFCB2
:10486000194B1B78002B00F03A81244802F028F8FD
:1048700035E1786A396A224A00F05CF90346002B78
:104880000ED07B6AD3F884301846FEF7C5FC0E4B79
:104890001B78002B00F023811A4802F011F81EE16A
:1048A000786A396A184A00F045F90346002B31D07E
:1048B000164800F0BBFB044B1B78002B00F00F8167
:1048C000134801F0FDFF0AE10000002074450108D3
:1048D0008C45010894450108102100209C450108E1
:1048E000A4450108B0450108B8450108C0450108C4
:1048F000C8450108D0450108D8450108E045010830
:10490000F84501080046010818460108202000204B
:1049100020460108786A396A734A00F00BF90346A9
:10492000002B0BD0714800F073FB714B1B78002BF0
:1049300000F0D5806F4801F0C3FFD0E0786A396A93
:104940006D4A00F0F7F80346002B1AD0786A396AEE
:104950006A4A00F005F90346002B03D0684B012298
:104960001A7002E0664B00221A70614B1B78002B14
:1049700000F0B580624B1B786248194601F0A0FF39
:10498000ADE0786A396A604A00F0D4F80346002B3B
:104990000FD0786A396A594A00F0E2F80346002BD2
:1049A00003D0534B01221A7099E0514B00221A7028
:1049B00095E0786A396A554A00F0BCF80346002B46
:1049C00004D053480021FFF739FD88E0786A396A3E
:1049D000504A00F0AFF80346002B04D04C480121A8
:1049E000FFF72CFD7BE0786A396A4B4A00F0A2F8A9
:1049F0000346002B04D046480221FFF71FFD6EE05E
:104A0000786A396A454A00F095F80346002B04D0CD
:104A10003F480321FFF712FD61E0786A396A404A96
:104A200000F088F80346002B04D039480421FFF732
:104A300005FD54E0786A396A3A4A00F07BF803468B
:104A4000002B11D03B6A073318460AF009F80246DA
:104A50000B4610461946FCF735F803462C48002152
:104A60001A46FFF72BFD3AE0786A396A2E4A00F0C1
:104A700061F80346002B11D03B6A0733184609F052
:104A8000EFFF02460B4610461946FCF71BF803469B
:104A90001F4801211A46FFF711FD20E0786A396AA4
:104AA000224A00F047F80346002B11D03B6A073337
:104AB000184609F0D5FF02460B4610461946FCF78A
:104AC00001F80346124802211A46FFF7F7FC06E0F8
:104AD000074B1B78002B02D0154801F0F1FE2C3754
:104AE000BD46BDE8908F00BF2C4601082020002065
:104AF00000000020344601084046010848460108ED
:104B0000202300204C4601085C4601086446010849
:104B1000102100206C460108744601087C460108FB
:104B2000844601088C460108944601089C46010809
:104B3000A446010880B584B000AFF860B9607A601F
:104B4000BB681846796800F079FF0346002B14BF54
:104B500000230123DBB218461037BD4680BD00BFDD
:104B600080B584B000AFF860B9607A60BB68073385
:104B70001846796800F062FF0346002B14BF00233B
:104B80000123DBB218461037BD4680BD80B582B028
:104B900000AF78607B681846FCF750FD7B68074AD9
:104BA0001A607B680022C3F86C217B680022C3F87E
:104BB00068217B6818460837BD4680BDF04F010864
:104BC00080B584B000AF786039607B68D3F8683115
:104BD0007868194600F060F8F8607B68D3F86C21BB
:104BE000FB689A4214BF00230123DBB2002B01D0E3
:104BF000002317E07B68D3F8682179681346DB004F
:104C00001344DB009B1ACA183B68111D1A46472340
:104C1000084611461A4600F0B7FE7B68FA68C3F8EA
:104C20006821012318461037BD4680BD80B582B08B
:104C300000AF786039607B68D3F86C217B68D3F86B
:104C400068319A4214BF00230123DBB2002B01D04C
:104C500000231DE07B68D3F86C213968786813461F
:104C6000DB001344DB009B1A03441A1D472308464C
:104C700011461A4600F088FE7B68D3F86C317868DC
:104C8000194600F009F802467B68C3F86C2101233D
:104C900018460837BD4680BD80B483B000AF786049
:104CA00039603B68032B02DC3B68013300E00023E2
:104CB00018460C37BD465DF8047B704780B582B05E
:104CC00000AF78607B68084A1A607B681846FCF77A
:104CD000CDFA0023002B02D0786800F025FF7B6816
:104CE00018460837BD4680BDF04F010880B582B038
:104CF00000AF78607868FFF7E1FF786800F014FF94
:104D00007B6818460837BD4680BD00BF80B582B0BD
:104D100000AF786039607B68012B0CD13A684FF6A0
:104D2000FF739A4207D10548FFF730FF0348044953
:104D3000044A09F08FFE0837BD4680BDB02100202F
:104D4000BD4C00089C26002080B584B000AFF86000
:104D5000B9607A603B607B68472B04D9064800F055
:104D60001DFD002304E0F8683968FFF729FF0346BA
:104D700018461037BD4680BDC046010880B500AF5B
:104D800001204FF6FF71FFF7C1FF80BD80B584B0F1
:104D900000AFF860B960C7E90023FB681846B9683E
:104DA00064224FF4FA6308F07FFAFB68074A1A603E
:104DB000F968D7E90023C1E91423FB68012283F8CD
:104DC0005820FB6818461037BD4680BD705001085A
:104DD00080B483B000AF78600C37BD465DF8047BCB
:104DE000704700BF80B582B000AF786001F00CF86A
:104DF00002460B46104619467B68D3E91423121865
:104E000043EB010310461946002208F09DFB7B6826
:104E100093F85830002B02D0786800F043F8E5E7AB
:104E200080B584B002AF786039603B681B881AB2E5
:104E30003B685B881BB23968898809B20091786841
:104E4000024909F01BFE0837BD4680BD7C470108BA
:104E500080B586B002AF786039603B681B881AB2B3
:104E60003B685B881BB23968898809B200910B489E
:104E70000B4909F003FE094800F01EFDF860FB68CD
:104E8000002B00D106E07B68073318460349FA6817
:104E900000F0A4FD1037BD4680BD00BF28250020CE
:104EA0008847010880B598B000AF786007F15803D3
:104EB0004A48194600F0F8F807F10803184648492F
:104EC000484A09F0DBFD07F1080207F158031046D4
:104ED0001946FFF7BDFF07F10803434819460122B1
:104EE000FEF7F6FE07F158034048194600F0DCF8DB
:104EF00007F1080318463A493D4A09F0BFFD07F19A
:104F00000803DA1D07F1580310461946FFF788FF1A
:104F100007F10803344819460122FEF7D9FE07F1CC
:104F200058033448194600F0BFF807F10803184643
:104F30002B49314A09F0A2FD07F10803DA1D07F1F8
:104F4000580310461946FFF76BFF07F10803264880
:104F500019460122FEF7BCFE07F150032748194607
:104F6000FCF794FB07F1080318461D49244A09F091
:104F700085FD3B6D1846FBF76FFA02460B4607F1BD
:104F80000801073108461F4909F078FD07F10803B9
:104F9000154819460122FEF79BFE07F154031A48F3
:104FA000194600F0B1F807F1080318460C49174AF2
:104FB00009F064FD7B6D07F10802073210461149C4
:104FC0001A4609F05BFD07F108030748194601225C
:104FD000FEF77EFE6037BD4680BD00BF9C230020EB
:104FE000944701089C470108380B00204423002007
:104FF000A447010870230020AC470108E8230020E3
:10500000B4470108BC47010824230020C447010815
:1050100080B483B000AF78607B68012283F85820A9
:105020000C37BD465DF8047B704700BF80B483B089
:1050300000AF78607B68002283F858200C37BD46AB
:105040005DF8047B704700BF80B582B000AF786028
:105050007B681846FCF7F2FA7B68064A1A607B68A0
:105060000022DA617B6800229A617B681846083763
:10507000BD4680BD5850010880B582B000AF786051
:105080007B681846FCF7DAFA7B68064A1A607B6888
:1050900000229A627B6800225A627B6818460837B1
:1050A000BD4680BD4050010880B582B000AF786039
:1050B00039607B689A6A7B685B6A9A4214BF0023F6
:1050C0000123DBB2002B01D0002318E07B689A6A31
:1050D0003968786813465B0013445B00C2180B46BE
:1050E00004321168196092889A807B689B6A78689C
:1050F000194600F031F802467B689A62012318468F
:105100000837BD4680BD00BF80B582B000AF786073
:1051100039607B68DA697B689B699A4214BF002317
:105120000123DBB2002B01D0002311E07B68DB6997
:105130007A689B0013445A683B681A607B68DB6995
:105140007868194600F01AF802467B68DA61012394
:1051500018460837BD4680BD80B483B000AF786084
:1051600039603B68032B02DC3B68013300E000231D
:1051700018460C37BD465DF8047B704780B483B099
:1051800000AF786039603B68032B02DC3B68013379
:1051900000E0002318460C37BD465DF8047B7047DD
:1051A00080B582B000AF78607B68084A1A607B687F
:1051B0001846FCF75BF80023002B02D0786800F05B
:1051C000B3FC7B6818460837BD4680BD40500108D7
:1051D00080B582B000AF78607868FFF7E1FF78684B
:1051E00000F0A2FC7B6818460837BD4680BD00BFB2
:1051F00080B582B000AF78607B68084A1A607B682F
:105200001846FCF733F80023002B02D0786800F032
:105210008BFC7B6818460837BD4680BD5850010896
:1052200080B582B000AF78607868FFF7E1FF7868FA
:1052300000F07AFC7B6818460837BD4680BD00BF89
:1052400080B584B002AF786039607B68012B40F094
:1052500083803A684FF6FF739A427DD14048FFF74A
:10526000F3FE3F483F49404A09F0F4FB3F48FFF74F
:1052700003FF3E483E493C4A09F0ECFB3D48FFF73E
:10528000FBFE3C483A49384A09F0E4FB3A48FFF74C
:10529000F3FE39483649344A09F0DCFB3748FCF75D
:1052A000DDF936483649304A09F0D4FB3548FCF779
:1052B000D5F9344832492C4A09F0CCFB002300933D
:1052C00031483249264A324B00F038FC2E483149E9
:1052D000254A09F0BFFB002300932F482F49234A9A
:1052E0002F4B00F02BFC2C482A491F4A09F0B2FB37
:1052F000002300932B482C491E4A2C4B00F01EFC27
:1053000028482449184A09F0A5FB0023009328489F
:105310002849194A284B00F011FC25481D49124A1A
:1053200009F098FB0023009324482549134A254B94
:1053300000F004FC214817490B4A09F08BFB0023BD
:105340000093214821490F4A214B00F0F7FB1E48EA
:105350001049054A09F07EFB0837BD4680BD00BFF5
:1053600024230020F15100089C2600204423002023
:10537000A1510008702300209C230020C823002096
:1053800001170008E8230020082400203C0A002020
:10539000F04701081112000838240020D00900202D
:1053A000FC470108682400208809002004480108FF
:1053B00098240020AC0900200C480108C8240020D3
:1053C000F409002014480108F8240020180A0020DD
:1053D0001C48010880B584B000AFF860B9607A60FD
:1053E0003B607B68062B04D9064800F0D7F9002300
:1053F00004E0F868396800F021F8034618461037D1
:10540000BD4680BD2C48010880B584B000AFF8606F
:10541000B9607A603B607B68042B04D9064800F0D1
:10542000BDF9002304E0F868396800F035F8034658
:1054300018461037BD4680BD2C48010880B584B0A1
:1054400000AF786039607B685B6A78681946FFF75F
:1054500083FEF8607B689A6AFB689A4214BF002357
:105460000123DBB2002B01D0002311E07B685A6AD4
:10547000796813465B0013445B000B443A680433BD
:105480001168196092889A807B68FA685A620123D1
:1054900018461037BD4680BD80B584B000AF786037
:1054A00039607B689B6978681946FFF767FEF8608A
:1054B0007B68DA69FB689A4214BF00230123DBB2E0
:1054C000002B01D000230BE07B689B693A681268CF
:1054D00079689B000B445A607B68FA689A610123E3
:1054E00018461037BD4680BD80B500AF01204FF68D
:1054F000FF71FFF7A5FE80BD80B483B000AF786078
:105500007B681B6818460C37BD465DF8047B704706
:1055100080B483B000AF78607B685B6818460C3756
:10552000BD465DF8047B704780B483B000AF7860FF
:105530000C37BD465DF8047B704700BF80B584B072
:1055400000AFF860B9607A60FB6804331846094917
:10555000BA68002300F05AF9FB68074A1A60FB6832
:105560007A685A61FB6801221A76FB681846103780
:10557000BD4680BD682500208850010880B582B0F6
:1055800000AF78607B680A4A1A600A4800F006F9A2
:105590007B680433184600F081F90023002B02D009
:1055A000786800F0C1FA7B6818460837BD4680BDB0
:1055B000885001083C48010880B582B000AF78608F
:1055C0007868FFF7DBFF786800F0AEFA7B68184672
:1055D0000837BD4680BD00BF80B483B000AF78609F
:1055E0007B6801221A760C37BD465DF8047B704754
:1055F00080B483B000AF78607B6800221A760C37E5
:10560000BD465DF8047B704780B485B000AFF8609C
:10561000B9607A603B604FF0FF3318461437BD46DF
:105620005DF8047B704700BF90B583B000AF154BA9
:105630001B68002B03D0134B1B68043B00E00023C6
:105640007B6018E07B685C697B6804331846FFF771
:105650005FFF03460C4821461A4600F059F87B6864
:1056600004331846FFF748FF0346002B01D0043BE4
:1056700000E000237B607B68002BE3D10C37BD4644
:1056800090BD00BF682500205048010880B582B059
:1056900000AF78607B68064A1A600023002B02D0B6
:1056A000786800F041FA7B6818460837BD4680BD2F
:1056B000A850010880B582B000AF78607868FFF725
:1056C000E5FF786800F030FA7B6818460837BD4679
:1056D00080BD00BF80B582B000AF78600B46FB7024
:1056E00097F90330184607F0F9FA0837BD4680BD30
:1056F00080B483B000AF78607B68044A1A607B682E
:1057000018460C37BD465DF8047B7047A850010869
:105710000FB480B582B000AF1C4B1B68002B2FD09C
:105720003B461846FFF7E4FF07F114037B60184B74
:105730001B68002B05D0164B1B681648194601F054
:10574000BFF807F0B7FC034683F00103DBB2002B80
:1057500005D03B461846396900F040FE0AE00E4885
:1057600007F0F6FC3B461846396900F037FE0A4858
:1057700007F04CFD07F0F4FA3B461846FFF786FFAA
:105780000837BD46BDE8804004B0704708000020DF
:105790006C2500206C4801087025002080B582B07F
:1057A00000AF7860074B7A681A6007487968FFF79E
:1057B000AFFF064B1B685A1C044B1A600837BD46E6
:1057C00080BD00BF04000020804801086C25002037
:1057D00080B582B000AF786039607B68012B07D15B
:1057E0003A684FF6FF739A4202D1034807F098FCDB
:1057F0000837BD4680BD00BF7025002080B500AFD2
:1058000001204FF6FF71FFF7E3FF80BD80B584B044
:1058100000AFF860B9607A603B60FB683A68DA60B4
:10582000FB687A685A60084B1B68591C064A11606D
:10583000FA689360F868B96800F008F8FB681846E1
:105840001037BD4680BD00BF8025002080B582B0E6
:1058500000AF786039603B681A687B681A603B6803
:105860007A681A600A4B1B68002B0CBF00230123C7
:10587000DBB2002B08D00748FFF790FF7B685B681E
:1058800005481946FFF744FF0837BD4680BD00BFF5
:1058900074380020AC480108E048010880B582B0A7
:1058A00000AF78600348FFF779FF7B681846083738
:1058B000BD4680BD0449010880B485B000AF786062
:1058C0000023FB607B68002B01D100230BE005E087
:1058D000FB680133FB607B6801337B607B681B786E
:1058E000002BF5D1FB6818461437BD465DF8047BE4
:1058F000704700BF80B485B000AF786039607B68C6
:10590000FB603B68002B02D0FB68002B01D17B6859
:1059100012E009E03B681A78FB681A70FB680133F3
:10592000FB603B6801333B603B681B78002BF1D187
:10593000FB6800221A707B6818461437BD465DF874
:10594000047B704780B487B000AFF860B9607A60BC
:10595000FB68002B01D1FB6810E0FB687B6109E06C
:10596000BB68DAB27B691A707B6901337B617B6843
:10597000013B7B607B68002BF2D1FB6818461C372B
:10598000BD465DF8047B704780B487B000AFF86017
:10599000B9607A60FB687B61BB683B617B69002B07
:1059A00002D03B69002B01D1002311E00CE03B69E0
:1059B0001A787B691A707B68013B7B603B69013315
:1059C0003B617B6901337B617B68002BEFD1FB6816
:1059D00018461C37BD465DF8047B704780B487B01D
:1059E00000AFF860B9607A60FB687B617B69002B6F
:1059F00002D0BB68002B01D1002319E011E0BB6885
:105A00001A787B691A70BB681B78002B00D10BE0F9
:105A1000BB680133BB607B6901337B617B68013B01
:105A20007B607B68002BEAD17B6900221A70FB68DF
:105A300018461C37BD465DF8047B704780B485B0BE
:105A400000AF786039607B68002B07D13B68002B82
:105A500001D1002301E04FF0FF331FE03B68002B32
:105A600001D101231AE07B685A1C7A601B78FB7312
:105A70003B685A1C3A601B78BB73FA7BBB7B9A422B
:105A800002D24FF0FF3309E0FA7BBB7B9A4201D987
:105A9000012303E0FB7B002BE5D1002318461437DC
:105AA000BD465DF8047B704780B487B000AFF860F6
:105AB000B9607A60FB68002B07D1BB68002B01D16D
:105AC000002301E04FF0FF3327E0BB68002B01D13A
:105AD000012322E0FB685A1CFA601B78FB75BB6847
