:020000040800F2
:1000000000000220956200080163000801630008F7
:10001000016300080163000801630008000000009C
:10002000000000000000000000000000D1BD00083A
:100030000163000800000000E5BD000811C10008D0
:100040000163000801630008016300080163000800
:100050000163000801630008156B0008396B000894
:100060005D6B0008816B0008A56B00080163000848
:10007000118E000801630008398D00080163000833
:10008000C98D0008016300080163000801630008CE
:10009000016300080163000801630008C96B0008E0
:1000A00001630008016300080163000801630008A0
:1000B0000163000801630008016300080163000890
:1000C0000163000801630008016300080163000880
:1000D00001630008618C0008798C0008918C00088D
:1000E000256C000801630008016300080163000833
:1000F0000163000801630008016300080163000850
:100100000163000801630008DDBE00080163000808
:10011000A98C0008C18C000801630008C1C2000856
:10012000016300080163000801630008016300081F
:10013000016300080163000801630008016300080F
:1001400001630008016300080163000801630008FF
:10015000818D000801630008F18C0008D98C00082B
:1001600001630008016300080163000801630008DF
:1001700001630008016300080163000801630008CF
:0C01800001630008016300080000000893
:1001900081F0004102E000BF83F0004330B54FEA38
:1001A00041044FEA430594EA050F08BF90EA020FA5
:1001B0001FBF54EA000C55EA020C7FEA645C7FEA38
:1001C000655C00F0E2804FEA5454D4EB5555B8BF5B
:1001D0006D420CDD2C4480EA020281EA030382EACC
:1001E000000083EA010180EA020281EA0303362D5E
:1001F00088BF30BD11F0004F4FEA01314FF4801C31
:100200004CEA113102D0404261EB410113F0004F42
:100210004FEA03334CEA133302D0524263EB4303F9
:1002200094EA050F00F0A780A4F10104D5F1200E97
:100230000DDB02FA0EFC22FA05F2801841F10001F2
:1002400003FA0EF2801843FA05F359410EE0A5F1C6
:1002500020050EF1200E012A03FA0EFC28BF4CF0F7
:10026000020C43FA05F3C01851EBE37101F00045AD
:1002700007D54FF0000EDCF1000C7EEB00006EEBBA
:100280000101B1F5801F1BD3B1F5001F0CD3490844
:100290005FEA30004FEA3C0C04F101044FEA44529B
:1002A00012F5800F80F09A80BCF1004F08BF5FEA22
:1002B000500C50F1000041EB045141EA050130BD02
:1002C0005FEA4C0C404141EB010111F4801FA4F1A5
:1002D0000104E9D191F0000F04BF01460020B1FAFA
:1002E00081F308BF2033A3F10B03B3F120020CDA32
:1002F0000C3208DD02F1140CC2F10C0201FA0CF010
:1003000021FA02F10CE002F11402D8BFC2F1200C74
:1003100001FA02F120FA0CFCDCBF41EA0C0190402A
:10032000E41AA2BF01EB0451294330BD6FEA040473
:100330001F3C1CDA0C340EDC04F11404C4F120025E
:1003400020FA04F001FA02F340EA030021FA04F370
:1003500045EA030130BDC4F10C04C4F1200220FAC7
:1003600002F001FA04F340EA0300294630BD21FA05
:1003700004F0294630BD94F0000F83F4801306BFCB
:1003800081F480110134013D4EE77FEA645C18BFBF
:100390007FEA655C29D094EA050F08BF90EA020F56
:1003A00005D054EA000C04BF1946104630BD91EA4E
:1003B000030F1EBF0021002030BD5FEA545C05D151
:1003C0004000494128BF41F0004130BD14F5800490
:1003D0003CBF01F5801130BD01F0004545F0FE4104
:1003E00041F470014FF0000030BD7FEA645C1ABF39
:1003F000194610467FEA655C1CBF0B46024650EA70
:10040000013406BF52EA033591EA030F41F400219B
:1004100030BD00BF90F0000F04BF0021704730B521
:100420004FF4806404F132044FF000054FF00001F6
:1004300050E700BF90F0000F04BF0021704730B5B7
:100440004FF4806404F1320410F0004548BF40428C
:100450004FF000013EE700BF42004FEAE2014FEAE1
:1004600031014FEA02701FBF12F07F4393F07F4FBC
:1004700081F06051704792F0000F14BF93F07F4FEE
:10048000704730B54FF4607401F0004521F0004131
:1004900020E700BF50EA010208BF704730B54FF0B7
:1004A00000050AE050EA010208BF704730B511F0BC
:1004B000004502D5404261EB41014FF4806404F1F4
:1004C00032045FEA915C3FF4DCAE4FF003025FEA76
:1004D000DC0C18BF03325FEADC0C18BF033202EBFE
:1004E000DC02C2F1200300FA03FC20FA02F001FA58
:1004F00003FE40EA0E0021FA02F11444C1E600BFF7
:1005000070B54FF0FF0C4CF4E06C1CEA11541DBFA9
:100510001CEA135594EA0C0F95EA0C0F00F0DEF874
:100520002C4481EA030621EA4C5123EA4C5350EA59
:10053000013518BF52EA033541F4801143F48013AA
:1005400038D0A0FB02CE4FF00005E1FB02E506F03B
:100550000042E0FB03E54FF00006E1FB03569CF090
:10056000000F18BF4EF0010EA4F1FF04B6F5007F96
:1005700064F5407404D25FEA4E0E6D4146EB060608
:1005800042EAC62141EA55514FEAC52040EA5E5091
:100590004FEACE2EB4F1FD0C88BFBCF5E06F1ED83B
:1005A000BEF1004F08BF5FEA500E50F1000041EB72
:1005B000045170BD06F0004646EA010140EA02001F
:1005C00081EA0301B4EB5C04C2BFD4EB0C0541EA41
:1005D000045170BD41F480114FF0000E013C00F356
:1005E000AB8014F1360FDEBF002001F0004170BD7A
:1005F000C4F10004203C35DA0C341BDC04F1140493
:10060000C4F1200500FA05F320FA04F001FA05F21E
:1006100040EA020001F0004221F0004110EBD370EB
:1006200021FA04F642EB06015EEA430E08BF20EA17
:10063000D37070BDC4F10C04C4F1200500FA04F3BA
:1006400020FA05F001FA04F240EA020001F000414C
:1006500010EBD37041F100015EEA430E08BF20EABF
:10066000D37070BDC4F1200500FA05F24EEA020E07
:1006700020FA04F301FA05F243EA020321FA04F036
:1006800001F0004121FA04F220EA020000EBD370ED
:100690005EEA430E08BF20EAD37070BD94F0000FED
:1006A0000FD101F00046400041EB010111F4801F21
:1006B00008BF013CF7D041EA060195F0000F18BFD2
:1006C000704703F00046520043EB030313F4801F0E
:1006D00008BF013DF7D043EA0603704794EA0C0FC8
:1006E0000CEA135518BF95EA0C0F0CD050EA4106DE
:1006F00018BF52EA4306D1D181EA030101F000415B
:100700004FF0000070BD50EA410606BF1046194682
:1007100052EA430619D094EA0C0F02D150EA01368E
:1007200013D195EA0C0F05D152EA03361CBF1046CF
:1007300019460AD181EA030101F0004141F0FE416E
:1007400041F470014FF0000070BD41F0FE4141F4F2
:10075000780170BD70B54FF0FF0C4CF4E06C1CEAF2
:1007600011541DBF1CEA135594EA0C0F95EA0C0FA7
:1007700000F0A7F8A4EB050481EA030E52EA033562
:100780004FEA013100F088804FEA03334FF0805583
:1007900045EA131343EA12634FEA022245EA1115B0
:1007A00045EA10654FEA00260EF000419D4208BF61
:1007B000964244F1FD0404F5407402D25B084FEA0E
:1007C0003202B61A65EB03055B084FEA32024FF4BA
:1007D00080104FF4002CB6EB020E75EB030E22BF17
:1007E000B61A754640EA0C005B084FEA3202B6EBD7
:1007F000020E75EB030E22BFB61A754640EA5C0086
:100800005B084FEA3202B6EB020E75EB030E22BF15
:10081000B61A754640EA9C005B084FEA3202B6EB16
:10082000020E75EB030E22BFB61A754640EADC00D5
:1008300055EA060E18D04FEA051545EA16754FEA37
:1008400006164FEAC30343EA52734FEAC2025FEA55
:100850001C1CC0D111F4801F0BD141EA00014FF0E4
:1008600000004FF0004CB6E711F4801F04BF0143B5
:100870000020B4F1FD0C88BFBCF5E06F3FF6AFAED1
:10088000B5EB030C04BFB6EB020C5FEA500C50F161
:10089000000041EB045170BD0EF0004E4EEA1131E4
:1008A00014EB5C04C2BFD4EB0C0541EA045170BDEB
:1008B00041F480114FF0000E013C90E645EA060E2F
:1008C0008DE60CEA135594EA0C0F08BF95EA0C0F5D
:1008D0003FF43BAF94EA0C0F0AD150EA01347FF4A5
:1008E00034AF95EA0C0F7FF425AF104619462CE77C
:1008F00095EA0C0F06D152EA03353FF4FDAE1046DF
:10090000194622E750EA410618BF52EA43067FF42F
:10091000C5AE50EA41047FF40DAF52EA43057FF4BF
:10092000EBAE12E74FF0FF3C06E000BF4FF0010CCA
:1009300002E000BF4FF0010C4DF804CD4FEA410C2E
:100940007FEA6C5C4FEA430C18BF7FEA6C5C1BD0FB
:1009500001B050EA410C0CBF52EA430C91EA030F7C
:1009600002BF90EA020F0020704710F1000F91EAD9
:10097000030F58BF994208BF90422CBFD8176FEAA7
:10098000E37040F0010070474FEA410C7FEA6C5C75
:1009900002D150EA013C07D14FEA430C7FEA6C5C7C
:1009A000D6D152EA033CD3D05DF8040B704700BFA8
:1009B0008446104662468C461946634600E000BFF6
:1009C00001B5FFF7B7FF002848BF10F1000F01BDC8
:1009D0004DF808EDFFF7F4FF0CBF012000205DF893
:1009E00008FB00BF4DF808EDFFF7EAFF34BF012018
:1009F00000205DF808FB00BF4DF808EDFFF7E0FFB1
:100A000094BF012000205DF808FB00BF4DF808ED01
:100A1000FFF7CEFF94BF012000205DF808FB00BF68
:100A20004DF808EDFFF7C4FF34BF012000205DF84A
:100A300008FB00BF4FEA410212F5001215D211D592
:100A40006FF47873B3EB625212D94FEAC12343F0CB
:100A5000004343EA505311F0004F23FA02F018BF4D
:100A6000404270474FF00000704750EA013005D116
:100A700011F0004008BF6FF0004070474FF00000D9
:100A8000704700BF4A0011D212F5001211D20DD5E5
:100A90006FF47873B3EB62520ED44FEAC12343F084
:100AA000004343EA505323FA02F070474FF000002E
:100AB000704750EA013002D14FF0FF3070474FF0DD
:100AC000000070474FEA4102B2F1E04324BFB3F5A2
:100AD000001CDCF1FE5C0DD901F0004C4FEAC002B5
:100AE0004CEA5070B2F1004F40EB830008BF20F099
:100AF0000100704711F0804F21D113F13872BCBF53
:100B000001F00040704741F480114FEA5252C2F1A7
:100B10001802C2F1200C10FA0CF320FA02F018BFF0
:100B200040F001004FEAC1234FEAD32303FA0CFC43
:100B300040EA0C0023FA02F34FEA4303CCE77FEAD2
:100B4000625307D150EA01331EBF4FF0FE4040F41C
:100B50004000704701F0004040F0FE4040F40000CB
:100B6000704700BF73B96AB9002908BF0028BCBF2D
:100B700000204FF00041C4BF6FF000414FF0FF3044
:100B800000F08CB882B0EC462DE9005000F056F829
:100B9000DDF804E002B00CBC704700BF4BB942B9AD
:100BA000002908BF002802D04FF0FF31084600F0AE
:100BB00075B882B0EC462DE9005000F057F8DDF82A
:100BC00004E002B00CBC704738B500220023044694
:100BD0000D46FFF707FF28B920462946BDE83840F3
:100BE00000F00AB8204605F1004100F005F8404247
:100BF00061EB410138BD00BF70B500220D4B0446CA
:100C00000D46FFF77DFCFFF73DFF0646FFF702FCB0
:100C10000022094BFFF774FC02460B46204629468A
:100C2000FFF7BAFAFFF72EFF002242EA000420463F
:100C3000314670BD0000F03D0000F0412DE97043E9
:100C4000069E14461D468046894600F029F804FB9E
:100C500001F300FB0533A4FB00451D44B8EB04047D
:100C600069EB0505C6E90045BDE870832DE97043D1
:100C7000069E1446804689461D4600F05DF900FB3D
:100C800005F504FB0153A0FB04451D44B8EB040427
:100C900069EB0505C6E90045BDE87083704700BFF4
:100CA00000292DE9F00FC0F29F800024002BC0F234
:100CB0009680154606460F46002B3ED18A4257D9EC
:100CC000B2FA82F34BB1C3F1200201FA03F720FA22
:100CD00002F29D40174300FA03F6290CB7FBF1F22C
:100CE000330C01FB127CA8B243EA0C4700FB02F371
:100CF000BB4209D97F1902F1FF3C80F00181BB4260
:100D000040F2FE80023A2F44FF1AB7FBF1F3B6B26D
:100D100001FB137146EA014100FB03F0884208D948
:100D2000491903F1FF3780F0ED80884240F2EA80F4
:100D3000023B43EA0242002303E08B420AD900232C
:100D40001A461046194614B1404261EB4101BDE814
:100D5000F00F7047B3FA83F8B8F1000F40F08480C9
:100D60008B4202D3824200F2DE8000230122E8E7B8
:100D700012B90123B3FBF2F5B5FA85F2002A39D195
:100D80007F1B280C1FFA85FC0123B7FBF0F1320C06
:100D900000FB117742EA07470CFB01F2BA4207D980
:100DA0007F1901F1FF3802D2BA4200F2C1804146F8
:100DB000BF1AB7FBF0F2B6B200FB127046EA004071
:100DC0000CFB02FC844507D9401902F1FF3702D21F
:100DD000844500F2AB803A4642EA0142B1E7E4437F
:100DE000524263EB430364E7404261EB41014FF041
:100DF000FF345BE79540C2F1200327FA03F1280C8A
:100E000026FA03F39740B1FBF0F81F433B0C00FBBD
:100E100018111FFA85FC43EA01410CFB08F38B42D1
:100E200006FA02F608D9491908F1FF3279D28B4245
:100E300077D9A8F102082944C91AB1FBF0F3BFB26F
:100E400000FB131147EA01470CFB03F2BA4207D932
:100E50007F1903F1FF3160D2BA425ED9023B2F44C1
:100E6000BF1A43EA084390E7C8F1200203FA08FCDE
:100E700025FA02F343EA0C0C4FEA1C4921FA02F36B
:100E800001FA08F720FA02F2B3FBF9F1174309FB64
:100E900011333A0C1FFA8CFB42EA03430BFB01FAB5
:100EA0009A4505FA08F008D913EB0C0301F1FF325B
:100EB00035D29A4533D902396344CAEB0303B3FBF5
:100EC000F9F209FB1233BFB247EA03470BFB02F901
:100ED000B94508D917EB0C0702F1FF331BD2B9450E
:100EE00019D9023A674442EA0145A5FB0001C9EB62
:100EF00007078F424FF000030AD305D02A4620E7A8
:100F0000624601E73B4614E706FA08F68642F5D248
:100F10006A1E002315E71A46E5E70B46A0E71146CF
:100F2000CBE7904688E7434642460AE7023A53E752
:100F300002392F443CE700BF2DE9F00F1446054667
:100F40000E46002B43D18A4253D9B2FA82F757B1E9
:100F5000C7F1200620FA06F601FA07F302FA07F4B1
:100F60001E4300FA07F5210CB6FBF1F22B0C01FB36
:100F70001267A0B243EA074600FB02F3B34209D965
:100F8000361902F1FF3780F0F680B34240F2F38069
:100F9000023A2644F61AB6FBF1F3ADB201FB136137
:100FA00045EA014100FB03F0884208D9091903F121
:100FB000FF3680F0E280884240F2DF80023B43EA65
:100FC0000242002310461946BDE8F00F70478B42DD
:100FD0004AD8B3FA83F6002E4DD18B4202D3824217
:100FE00000F2D6800023012210461946BDE8F00F1A
:100FF000704712B90124B4FBF2F4B4FA84F2002A67
:101000007CD1091B260CA7B20123B1FBF6F02A0CF8
:1010100006FB101142EA014107FB00F28A4207D9A0
:10102000091900F1FF3C02D28A4200F2C3806046F7
:10103000891AB1FBF6F2ADB206FB121145EA014581
:1010400007FB02F7AF4208D92C1902F1FF3180F0FB
:101050009680A74240F29380023A42EA004210464C
:101060001946BDE8F00F704700231A46104619468E
:10107000BDE8F00F7047C6F1200522FA05F4B34031
:101080001C434FEA144821FA05F301FA06F720FA47
:1010900005F5B3FBF8FC2F4308FB1C333D0C1FFA8E
:1010A00084FA45EA03430AFB0CF9994502FA06FB68
:1010B00004D91B190CF1FF326DD39446C9EB03031D
:1010C000B3FBF8F508FB1533BFB247EA03470AFB49
:1010D00005F8B84504D93F1905F1FF3361D31D4622
:1010E00045EA0C4CACFB0B23C8EB07079F424FF0C3
:1010F000000549D345D062462B4663E79440C2F1D0
:10110000200321FA03FC260C20FA03F301FA02F56E
:10111000BCFBF6F843EA05010B0C06FB18CCA7B2A2
:1011200043EA0C4C07FB08F3634500FA02F509D9C2
:101130001CEB040C08F1FF323AD2634538D9A8F110
:101140000208A444C3EB0C0CBCFBF6F389B206FB0B
:1011500013CC41EA0C4107FB03F28A4207D9091973
:1011600003F1FF3022D28A4220D9023B2144891A5E
:1011700043EA084349E73A460CE733461FE70A4685
:101180006BE7B0409042B6D20CF1FF32002319E772
:101190003346324616E799458FD9ACF1020C234409
:1011A0008CE7B8459BD9023D274499E70346DEE723
:1011B0009046C7E7023821443AE700BF80B582B0C5
:1011C00000AF786039607B68012B10D13A684FF628
:1011D000FF739A420BD107483C2105F053FA0648A9
:1011E0003D2105F04FFA05483E2105F04BFA08373E
:1011F000BD4680BDE0080020FC0800201809002042
:1012000080B500AF01204FF6FF71FFF7D7FF80BD1B
:1012100080B582B000AF78607B680A4A1A600A48DD
:1012200003F0BCFF7B680433184604F037F8002352
:10123000002B02D0786804F00FF97B681846083755
:10124000BD4680BD982E0108B01C010880B582B053
:1012500000AF78607868FFF7DBFF786804F0FCF88F
:101260007B6818460837BD4680BD00BF80B582B098
:1012700000AF78607B68064A1A600023002B02D01A
:10128000786804F0E9F87B6818460837BD4680BDE9
:10129000C02C010880B582B000AF78607868FFF795
:1012A000E5FF786804F0D8F87B6818460837BD4633
:1012B00080BD00BF80B584B000AFF860B9607A60CF
:1012C0003B60044803F06AFF002318461037BD4610
:1012D00080BD00BFC41C010880B483B000AF78603B
:1012E0007B684FF000021A607B684FF000025A6082
:1012F0007B684FF000029A607B684FF00002DA6072
:101300007B6800221A747B6818460C37BD465DF86E
:10131000047B704780B584B000AF78601B481C49DF
:1013200000F066F81A4B93ED007A7B681B7C06EEA2
:10133000903AF8EEE67A77EE677AC7ED037A97EDA2
:10134000037ADFED147AB4EEE77AF1EE10FA08DDF5
:1013500097ED037ADFED107A77EE677AC7ED037ABF
:1013600010E097ED037ADFED0D7AB4EEE77AF1EE57
:1013700010FA07D597ED037ADFED077A77EE277A33
:10138000C7ED037A1037BD4680BD00BF3409002089
:1013900084090020000034430000B443000034C33B
:1013A00080B483B000AF78607B68044A1A607B68C1
:1013B00018460C37BD465DF8047B7047C02C010809
:1013C00080B582B000AF78607B681846FFF7E8FF11
:1013D0007B68064A1A607B680022DA617B6800221B
:1013E0009A617B6818460837BD4680BDA82C010865
:1013F00080B582B000AF786039607B68DA697B685D
:101400009B699A4214BF00230123DBB2002B01D059
:10141000002311E07B68DB697A689B0013445A68FB
:101420003B681A607B68DB697868194600F008F849
:1014300002467B68DA61012318460837BD4680BD45
:1014400080B483B000AF786039603B68032B02DC66
:101450003B68013300E0002318460C37BD465DF8B9
:10146000047B704780B582B000AF78607B68084A23
:101470001A607B681846FFF7F9FE0023002B02D0A4
:10148000786803F0E9FF7B6818460837BD4680BDE1
:10149000A82C010880B582B000AF78607868FFF7AB
:1014A000E1FF786803F0D8FF7B6818460837BD462F
:1014B00080BD00BF80B584B002AF786039607B68C2
:1014C000012B19D13A684FF6FF739A4214D10C4898
:1014D000FFF776FF0A480B490B4A0CF0DBFE0023AE
:1014E00000930A480A49064A0A4B03F0BFFF07481F
:1014F0000949054A0CF0CEFE0837BD4680BD00BF45
:101500003409002065140008F42500205409002047
:10151000180A00204C1D01081112000880B584B083
:1015200000AFF860B9607A603B607B68042B04D937
:10153000064803F033FE002304E0F868396800F041
:1015400007F8034618461037BD4680BD681D0108E0
:1015500080B584B000AF786039607B689B6978683B
:101560001946FFF76DFFF8607B68DA69FB689A42FD
:1015700014BF00230123DBB2002B01D000230BE0BA
:101580007B689B693A68126879689B000B445A60D3
:101590007B68FA689A61012318461037BD4680BD02
:1015A00080B500AF01204FF6FF71FFF783FF80BDCC
:1015B00080B483B000AF78607B684FF000021A609F
:1015C0007B684FF000025A607B684FF000029A601F
:1015D0007B684FF00002DA607B6800221A747B6837
:1015E00018460C37BD465DF8047B704780B483B065
:1015F00000AF78600C37BD465DF8047B704700BFD4
:101600000FB480B400AF00231846BD465DF8047BDC
:1016100004B0704780B483B000AF786039603B6835
:101620005A687B685A603B689A687B689A603B6836
:10163000DA687B68DA603B681A697B681A613B6824
:101640005A697B685A617B6818460C37BD465DF85D
:10165000047B704780B582B000AF786039607A68EB
:101660003B6810461946FFF7D5FF3B689A697B68CF
:101670009A617B6818460837BD4680BD90B58DB02D
:1016800002AF78607B681B7883F00103DBB2002B2C
:1016900007D17B6804331846FFF7B2FF0346002BDF
:1016A00001D1012300E00023002B15D07B681C1D15
:1016B00007F10C031846202104F0E4FF07F10C03A6
:1016C00020461946FFF7C6FF7B6804331846012100
:1016D0000122012305F00AF87B6801221A707B6859
:1016E000202283F820207B68572283F821207B6802
:1016F00020337A6823320092012201926F481D2123
:101700001A46022305F0E0FC02467B681A637B68F8
:101710001B6B002B03DA6A4804F06AFDCAE07B68A1
:10172000242283F820207B68F42283F821207B6820
:1017300020337A6823320092012201925F481D21F2
:101740001A46022305F0C0FC02467B681A637B68D8
:101750001B6B002B03DA5A4804F04AFDAAE07B68B1
:101760000F2283F820207B6820337A68233200928E
:101770000122019251481D211A46012305F0A4FCC3
:1017800002467B681A637B681B6B002B04DB7B685B
:1017900093F82330492B03D04A4804F029FD89E00F
:1017A0007B68252283F820207B68002283F8212093
:1017B0007B6820337A6823320092012201923F48ED
:1017C0001D211A46022305F07FFC02467B681A633E
:1017D0007B681B6B002B03DA394804F009FD69E0D4
:1017E0007B68262283F820207B68002283F8212052
:1017F0007B68203331481D211A46022305F030FC56
:101800000346DB0FDBB2002B03D02C482E4905F03A
:1018100047FB7B68232283F820207B68042283F81F
:1018200021207B68203325481D211A46022305F01C
:1018300017FC0346DB0FDBB2002B03D01F48224905
:1018400005F02EFB7B68122283F820207B6809229A
:1018500083F821207B68203318481D211A46022373
:1018600005F0FEFB0346DB0FDBB2002B03D0134871
:10187000154905F015FB7B680022A3F842207B6820
:101880000022A3F844207B680022A3F846207B684E
:101890000022A3F84E207B680022A3F850207B682A
:1018A0000022A3F852207B68002283F83A200748E0
:1018B00004F09EFC2C37BD4690BD00BF6C1D00207F
:1018C000781D0108901D0108A0860100A81D0108CF
:1018D00080B584B002AF78607B682333184600215E
:1018E000062203F007FD7B682033184600210322FF
:1018F00003F000FD7B68A82283F820207B6820335A
:101900007A6823320092062201925C481D211A4611
:10191000012305F0D9FB02467B681A637B681B6BC9
:10192000002B09DA564804F063FC7B682333184621
:101930000021062203F0DEFC7B6893F824301B02B2
:101940009AB27B6893F8233019467B68B3F842302B
:101950009BB2CB1A9BB29BB213439AB27B689A8715
:101960007B6893F826301B029AB27B6893F8253087
:1019700019467B68B3F844309BB2CB1A9BB29BB23A
:1019800013439AB27B68DA877B6893F828301B028E
:101990009AB27B6893F8273019467B68B3F84630D3
:1019A0009BB2CB1A9BB29BB213439AB27B68A3F84B
:1019B00040207B68882283F820207B6820337A6867
:1019C00023320092062201922C481D211A4601233F
:1019D00005F07AFB02467B681A637B681B6B002B61
:1019E00009DA284804F004FC7B68233318460021F8
:1019F000062203F07FFC7B6893F824301B029AB226
:101A00007B6893F8233019467B68B3F84E309BB25D
:101A1000CB1A9BB29BB213439AB27B68A3F84820BF
:101A20007B6893F826301B029AB27B6893F82530C6
:101A300019467B68B3F850309BB2CB1A9BB29BB26D
:101A400013439AB27B68A3F84A207B6893F8283046
:101A50001B029AB27B6893F8273019467B68B3F86B
:101A600052309BB2CB1A9BB29BB213439AB27B68A3
:101A7000A3F84C200837BD4680BD00BF6C1D002078
:101A8000B81D0108E81D010880B485B000AFF860FA
:101A900079813A81FB807A89FB68A3F842203A89F0
:101AA000FB68A3F84420FA88FB68A3F84620FB688B
:101AB000012283F83A201437BD465DF8047B704755
:101AC00080B485B000AFF86079813A81FB807A8973
:101AD000FB68A3F84E203A89FB68A3F85020FA88E7
:101AE000FB68A3F85220FB68012283F83A201437E0
:101AF000BD465DF8047B704780B483B000AF78606A
:101B00007B68B3F8543018460C37BD465DF8047B4B
:101B1000704700BF80B483B000AF78607B689B8F54
:101B20009AB27B68B3F842309BB2D31A9BB29BB295
:101B30001BB218460C37BD465DF8047B704700BFEA
:101B400080B483B000AF78607B68DB8F9AB27B682B
:101B5000B3F844309BB2D31A9BB29BB21BB2184667
:101B60000C37BD465DF8047B704700BF80B483B07E
:101B700000AF78607B68B3F840309AB27B68B3F806
:101B800046309BB2D31A9BB29BB21BB218460C379D
:101B9000BD465DF8047B704780B483B000AF7860C9
:101BA0007B68B3F848309AB27B68B3F84E309BB28A
:101BB000D31A9BB29BB21BB218460C37BD465DF8D8
:101BC000047B704780B483B000AF78607B68B3F863
:101BD0004A309AB27B68B3F850309BB2D31A9BB2AA
:101BE0009BB21BB218460C37BD465DF8047B7047AC
:101BF00080B483B000AF78607B68B3F84C309AB2A1
:101C00007B68B3F852309BB2D31A9BB29BB21BB223
:101C100018460C37BD465DF8047B704780B483B02E
:101C200000AF78607B68B3F842301BB218460C37BF
:101C3000BD465DF8047B704780B483B000AF786028
:101C40007B68B3F844301BB218460C37BD465DF8CC
:101C5000047B704780B483B000AF78607B68B3F8D2
:101C600046301BB218460C37BD465DF8047B704702
:101C700080B483B000AF78607B68B3F84E301BB29D
:101C800018460C37BD465DF8047B704780B483B0BE
:101C900000AF78607B68B3F850301BB218460C3741
:101CA000BD465DF8047B704780B483B000AF7860B8
:101CB0007B68B3F852301BB218460C37BD465DF84E
:101CC000047B704780B485B000AFF860B9607A607B
:101CD000FB6893ED017ABB68D3ED027A27EE277A91
:101CE000FB68D3ED026ABB68D3ED017A66EEA77A92
:101CF00077EE677A7B68C3ED007AFB6893ED027A32
:101D0000BB68D3ED007A27EE277AFB68D3ED006A33
:101D1000BB68D3ED027A66EEA77A77EE677A7B68C6
:101D2000C3ED017AFB6893ED007ABB68D3ED017ACD
:101D300027EE277AFB68D3ED016ABB68D3ED007A02
:101D400066EEA77A77EE677A7B68C3ED027A14377E
:101D5000BD465DF8047B704780B483B000AF786007
:101D600039607B6893ED007A3B68D3ED007A27EE0B
:101D7000277A7B68D3ED016A3B68D3ED017A66EE82
:101D8000A77A37EE277A7B68D3ED026A3B68D3EDFA
:101D9000027A66EEA77A77EE277A17EE903A18461F
:101DA0000C37BD465DF8047B704700BF80B584B03A
:101DB00000AF786078687968FFF7CEFF0346184671
:101DC000FEF74AFB02460B46104619460BF07EFE14
:101DD00002460B4610461946FEF774FE0346FB60AA
:101DE0007B6893ED007AD7ED037AC7EE277A7B689C
:101DF000C3ED007A7B6893ED017AD7ED037AC7EEE5
:101E0000277A7B68C3ED017A7B6893ED027AD7ED80
:101E1000037AC7EE277A7B68C3ED027A1037BD4696
:101E200080BD00BF00000000B0B594B000AF786086
:101E30007868FFF7B1FE034607EE103AF8EEC77A6E
:101E4000C7ED0F7A7868FFF7BDFE034607EE103A3C
:101E5000F8EEC77AC7ED107A7868FFF7C9FE034637
:101E600007EE103AF8EEC77AC7ED117A7868FFF7F7
:101E700051FE034607EE103AF8EEC77AC7ED0C7A2A
:101E80007868FFF75DFE034607EE103AF8EEC77A72
:101E9000C7ED0D7A7868FFF769FE034607EE103A42
:101EA000F8EEC77AC7ED0E7A4FF000037B625A4B0B
:101EB000BB624FF00003FB6297ED0F7ADFED577ABC
:101EC00037EE277ADFED567AC7EE277A37EEA77A14
:101ED000F7EE007A77EE677AC7ED0F7A97ED107A12
:101EE000DFED507A37EE277ADFED4F7AC7EE277AAB
:101EF00037EEA77AF7EE007A77EE677AC7ED107AB9
:101F000097ED117ADFED497A37EE277ADFED487ADF
:101F1000C7EE277A37EEA77AF7EE007A77EE677A80
:101F2000C7ED117A07F130031846FFF73FFF07F1BD
:101F30003C0107F1300207F11803084611461A4622
:101F4000FFF7C0FE07F118031846FFF72FFF07F150
:101F5000300107F1180207F10C03084611461A4632
:101F6000FFF7B0FE07F1180207F1240310461946E7
:101F7000FFF7F2FE03461846FEF76EFA04460D46DA
:101F800007F10C0207F1240310461946FFF7E4FE9F
:101F900003461846FEF760FA02460B4620462946DD
:101FA0000BF092FD02460B46104619464FF0000218
:101FB000204BFEF7A5FA02460B461046194614A31D
:101FC000D3E90023FEF7C6FB02460B46C7E91223FE
:101FD000D7E912014FF000024FF00003FEF702FDB7
:101FE0000346002B0AD0D7E912014FF00002124B32
:101FF000FEF7D4F802460B46C7E91223D7E91201CF
:10200000FEF760FD034618465037BD46B0BD00BF21
:10201000182D4454FB210940000080BF00001644E5
:10202000000053440000A54300406F440040244496
:1020300000C06D440080664000807640AFF30080B1
:1020400090B58BB000AF78607B681B7883F001039C
:10205000DBB2002B07D17B6804331846FFF7D0FAB8
:102060000346002B01D1012300E00023002B15D0F3
:102070007B681C1D07F10C031846122104F002FBBB
:1020800007F10C0320461946FFF7E4FA7B68043396
:10209000184601210122012304F028FB7B6801225C
:1020A0001A707B68202283F820207B680F2283F837
:1020B00021207B6820333E486B211A46022304F01E
:1020C000CFFF0346DB0FDBB2002B03D03848394982
:1020D00004F0E6FE7B68212283F820207B68002242
:1020E00083F821207B68203331486B211A46022374
:1020F00004F0B6FF0346DB0FDBB2002B03D02C4805
:102100002C4904F0CDFE7B68222283F820207B68D6
:10211000882283F821207B68203325486B211A46CA
:10212000022304F09DFF0346DB0FDBB2002B03D03C
:102130001F48204904F0B4FE7B68232283F8202046
:102140007B68202283F821207B681B4ADA637B6846
:10215000203317486B211A46022304F081FF0346FF
:10216000DB0FDBB2002B03D01148124904F098FEBC
:102170007B68242283F820207B68002283F82120BA
:102180007B6820330A486B211A46022304F068FF5B
:102190000346DB0FDBB2002B03D00548054904F0F2
:1021A0007FFE064804F024F82C37BD4690BD00BFE2
:1021B0006C1D0020A0860100295C8F3D181E0108BF
:1021C00080B485B000AFF86079813A81FB807A896C
:1021D000FB68A3F846203A89FB68A3F84820FA88F0
:1021E000FB68A3F84A201437BD465DF8047B7047AE
:1021F00080B584B002AF78607B6823331846002135
:10220000062203F077F87B6820331846002103226A
:1022100003F070F87B68A82283F820207B682033C5
:102220007A6823320092062201922C486B211A46CA
:10223000012304F049FF02467B681A637B681B6B2D
:10224000002B09DA264803F0D3FF7B6823331846B6
:102250000021062203F04EF87B6893F824301B021D
:102260009AB27B6893F8233019467B68B3F84630FE
:102270009BB2CB1A9BB29BB213439AB27B68A3F872
:1022800040207B6893F826301B029AB27B6893F853
:10229000253019467B68B3F848309BB2CB1A9BB205
:1022A0009BB213439AB27B68A3F842207B6893F8F1
:1022B00028301B029AB27B6893F8273019467B6856
:1022C000B3F84A309BB2CB1A9BB29BB213439AB27B
:1022D0007B68A3F844200837BD4680BD6C1D0020F4
:1022E000481E010880B483B000AF78607B68B3F803
:1022F00040301BB206EE903AB8EEE67ADFED0F7A88
:1023000037EE277A7B68D3ED0F7A27EE277A7B6842
:10231000B3F846301BB206EE903AF8EEE67A77EE66
:10232000677AFDEEE77A17EE903A9BB21BB2184639
:102330000C37BD465DF8047B704700BFE8F40A41E6
:1023400080B483B000AF78607B68B3F842301BB2D2
:1023500006EE903AB8EEE67ADFED0F7A37EE277A9E
:102360007B68D3ED0F7A27EE277A7B68B3F8483085
:102370001BB206EE903AF8EEE67A77EE677AFDEE5B
:10238000E77A17EE903A9BB21BB218460C37BD465F
:102390005DF8047B704700BFE8F40A4180B483B065
:1023A00000AF78607B68B3F844301BB206EE903A19
:1023B000B8EEE67ADFED0F7A37EE277A7B68D3ED59
:1023C0000F7A27EE277A7B68B3F84A301BB206EE05
:1023D000903AF8EEE67A77EE677AFDEEE77A17EE56
:1023E000903A9BB21BB218460C37BD465DF8047B91
:1023F000704700BFE8F40A4180B483B000AF786052
:102400007B68B3F846301BB218460C37BD465DF802
:10241000047B704780B483B000AF78607B68B3F80A
:1024200048301BB218460C37BD465DF8047B704738
:1024300080B483B000AF78607B68B3F84A301BB2D9
:1024400018460C37BD465DF8047B704780B582B0F6
:1024500000AF78607B680A4A1A600A4802F09EFE64
:102460007B680433184602F019FF0023002B02D0CA
:10247000786802F0F1FF7B6818460837BD4680BDDA
:10248000102D0108781E010880B582B000AF786079
:102490007868FFF7DBFF786802F0DEFF7B6818469C
:1024A0000837BD4680BD00BF80B582B000AF786000
:1024B0007B6804331846002104F0E4F87B68184672
:1024C0000837BD4680BD00BF80B582B000AF7860E0
:1024D0007B6804331846002104F0D4F87B68184662
:1024E0000837BD4680BD00BF80B584B000AFF8603E
:1024F000B960C7E90023FB681846B96864224FF445
:10250000FA630AF0F1FAFB68104A1A60FB68583364
:102510001846002104F0B6F8FB6874331846002111
:1025200004F0B0F8FB6890331846FFF7BDFFFB6876
:10253000DC331846FFF7C8FFF968D7E90023C1E983
:102540001423FB6818461037BD4680BDF82C0108DF
:1025500080B582B000AF786039603B681A787B68DC
:102560001A707B681A1D3B68043310461946FFF742
:1025700071F87B683A68203320321268114619805E
:102580000233120C1A707B683A68233323321168C5
:10259000196092889A807B683A682A332A321168D7
:1025A000196092889A807B683A683033303292E8BA
:1025B000030083E803003B681A8F7B681A873B6837
:1025C000DA6B7B68DA633B68B3F840207B68A3F87A
:1025D00040203B68B3F842207B68A3F842203B6868
:1025E000B3F844207B68A3F844203B68B3F8462046
:1025F0007B68A3F846203B68B3F848207B68A3F8C3
:1026000048203B68B3F84A207B68A3F84A207B68DF
:1026100018460837BD4680BD80B582B000AF7860EF
:1026200039603B681A787B681A707B681A1D3B68B2
:10263000043310461946FFF70DF87B683A682033DB
:1026400020321268114619800233120C1A707B680E
:102650003A68233323321168196092889A807B6824
:102660003A682A332A321168196092889A807B6806
:102670003A683033303292E8030083E803003B6865
:102680001A8F7B681A873B6893F83A207B6883F837
:102690003A203B689A8F7B689A873B68DA8F7B6821
:1026A000DA873B68B3F840207B68A3F840203B689A
:1026B000B3F842207B68A3F842203B68B3F844207B
:1026C0007B68A3F844203B68B3F846207B68A3F8F6
:1026D00046203B68B3F848207B68A3F848203B6855
:1026E000B3F84A207B68A3F84A203B68B3F84C2033
:1026F0007B68A3F84C203B68B3F84E207B68A3F8B6
:102700004E203B68B3F850207B68A3F850203B680C
:10271000B3F852207B68A3F852203B68B3F85420EA
:102720007B68A3F854207B6818460837BD4680BDF7
:1027300090B5B5B000AF78607B6803F1580407F13D
:102740000C031846372103F09DFF07F10C032046C8
:102750001946FEF77FFF7B68583318460121012296
:10276000012303F0C3FF2548254904F099FBC7F86E
:10277000CC00D7F8CC30002B03D1224803F038FD31
:1027800002E0214803F034FD7B6803F1900407F177
:1027900028024C23104600211A4602F0ABFD07F137
:1027A00028031846FFF780FE07F128032046194644
:1027B000FFF7CEFE7B6890331846FFF741FC7B683D
:1027C00003F1DC0407F174025823104600211A4675
:1027D00002F090FD07F174031846FFF775FE07F14C
:1027E000740320461946FFF717FF7B68DC33184651
:1027F000FEF744FFD437BD4690BD00BF6C1D0020DE
:10280000A0860100881E0108AC1E0108B0B58CB07E
:1028100000AF78600023FB620023BB6200237B6271
:1028200000233B620023FB610023BB6100237B612B
:1028300000233B610023FB600023FB726AE07B689E
:1028400090331846FFF7D4FC7B6890331846FFF7A7
:1028500049FD0346FA6A1344FB627B6890331846CD
:10286000FFF76EFD0346BA6A1344BB627B68903380
:102870001846FFF793FD03467A6A13447B627B6830
:10288000DC331846FFF724F87B68DC331846FFF783
:1028900041F903463A6A13443B627B68DC331846CD
:1028A000FFF74EF90346FA691344FB617B68DC339A
:1028B0001846FFF75BF90346BA691344BB617B68AE
:1028C000DC331846FFF768F903467A6913447B61E5
:1028D0007B68DC331846FFF775F903463A69134401
:1028E0003B617B68DC331846FFF782F90346FA68E0
:1028F0001344FB6002F020FF5C4A4FF00003121803
:1029000043EB01031046194600220AF03DFAFB7A18
:102910000133FB72FB7A632B91D97B6803F1900042
:10292000FB6A534A82FB03125211DB17D31A99B286
:10293000BB6A4F4A82FB03C25211DB17D31A9AB209
:102940007B6A4B4C84FB03C46411DB17E31A9BB214
:10295000FFF736FC7B6803F1DC003B6A444A82FBEC
:1029600003125211DB17D31A99B2FB69404A82FB5A
:1029700003C25211DB17D31A9AB2BB693C4C84FBD9
:1029800003C46411DB17E31A9BB2FFF77DF87B6881
:1029900003F1DC007B69364A82FB03125211DB171C
:1029A000D31A99B23B69324A82FB03C25211DB1738
:1029B000D31A9AB2FB682E4C84FB03C46411DB1754
:1029C000E31A9BB2FFF77CF82A4B1B78002B4AD006
:1029D0007B6890331846FFF70FFD03461D467B6862
:1029E00090331846FFF716FD03461C467B6890336C
:1029F0001846FFF71DFD03461F482946224603F0EF
:102A0000F7FB7B68DC331846FFF708F903461D46E1
:102A10007B68DC331846FFF70FF903461C467B68DA
:102A2000DC331846FFF716F90346144829462246B8
:102A300003F0DEFB7B68DC331846FFF719F9034629
:102A40001D467B68DC331846FFF720F903461C4619
:102A50007B68DC331846FFF727F903460848294608
:102A6000224603F0C5FB3037BD46B0BD80969800C6
:102A70001F85EB5100000020F01E01080C1F01080B
:102A8000281F010880B584B000AFF860C7E90023B3
:102A9000F968D7E90023C1E91423064B1B78002B02
:102AA00005D0FB68D3E91423034803F0A1FB1037DA
:102AB000BD4680BD00000020441F010880B58AB0DB
:102AC00000AF786002F038FE02460B461046194609
:102AD0007B68D3E91423121843EB0103104619460F
:102AE00000220AF051F97B6890331846FFF780FB0B
:102AF0007B6890331846FFF7F5FB03463B847B6801
:102B000090331846FFF71CFC03467B847B689033A8
:102B10001846FFF743FC0346BB847B68DC3318464A
:102B2000FEF7D6FE7B68DC331846FEF7F3FF03465C
:102B30003B837B68DC331846FFF702F803467B8350
:102B40007B68DC331846FFF711F80346BB837B68CC
:102B5000DC331846FFF720F803463B827B68DC3302
:102B60001846FFF72FF803467B827B68DC33184654
:102B7000FFF73EF80346BB827B68DC331846FFF75D
:102B800053F90346BB607B68DC331846FEF7B4FF9D
:102B9000034607EE103AF8EE477AC7ED037A07F1DD
:102BA000180329481946012200F094F807F1200380
:102BB00026481946012200F08DF807F11003244839
:102BC0001946012200F086F807F10803214819464A
:102BD000012200F093F807F10C031F481946012267
:102BE00000F08CF81D4B1B78002B2CD03B8C19B2BD
:102BF0007B8C1AB2BB8C1BB2194803F0F9FA3B8BE1
:102C000019B27B8B1AB2BB8B1BB2164803F0F0FAD9
:102C10003B8A19B27B8A1AB2BB8A1BB2124803F0F4
:102C2000E7FABB681846FDF717FC02460B460F484B
:102C300003F0DEFAFB681846FDF70EFC02460B4671
:102C40000B4803F0D5FA3DE788090020D0090020A1
:102C5000AC090020180A0020F4090020BC22002042
:102C6000601F0108701F0108801F0108901F0108E4
:102C70009C1F010880B584B000AFF860B9607A602D
:102C8000FB681846B96806227B6802F0C1FDFB6844
:102C9000034A1A60FB6818461037BD4680BD00BF66
:102CA000E82C010880B584B000AFF860B9607A60A4
:102CB000FB681846B96804227B6802F0A9FDFB682E
:102CC000034A1A60FB6818461037BD4680BD00BF36
:102CD000D82C010880B584B000AFF860B960134605
:102CE000FB71FA68FB791046B9681A46002302F0B6
:102CF000FFFD034618461037BD4680BD80B584B041
:102D000000AFF860B9601346FB71FA68FB791046B2
:102D1000B9681A46002302F0EBFD03461846103747
:102D2000BD4680BD80B582B000AF78607B68084A40
:102D30001A607B68184609F045FF0023002B02D07B
:102D4000786802F089FB7B6818460837BD4680BD6D
:102D5000F82C010880B582B000AF78607868FFF782
:102D6000E1FF786802F078FB7B6818460837BD46BB
:102D700080BD00BF80B582B000AF786039607B68ED
:102D8000012B3BD13A684FF6FF739A4236D11D486A
:102D90004FF0FF311C4AFFF76DFF1A481B491C4AD0
:102DA0000BF078FA1B484FF0FF311B4AFFF762FF28
:102DB00018481649164A0BF06DFA18484FF0FF31C3
:102DC000174AFFF757FF15481049114A0BF062FAEE
:102DD00014484FF0FF31144AFFF764FF11481349BC
:102DE0000B4A0BF057FA12484FF0FF31114AFFF728
:102DF00059FF0F480D49064A0BF04CFA0837BD46FB
:102E000080BD00BF88090020A81F0108952E00087A
:102E1000F4250020AC090020B81F0108D0090020CB
:102E2000C81F0108F4090020D01F0108392E00082E
:102E3000180A0020DC1F010880B582B000AF78605E
:102E40007B680A4A1A600A4802F0A8F97B681846AB
:102E5000FFF7FCFA0023002B02D0786802F0FCFA9E
:102E60007B6818460837BD4680BD00BFD82C0108D6
:102E7000E81F010880B582B000AF78607868FFF77E
:102E8000DBFF786802F0E8FA7B6818460837BD4631
:102E900080BD00BF80B582B000AF78607B680A4A11
:102EA0001A600A4802F07AF97B681846FFF7CEFAF2
:102EB0000023002B02D0786802F0CEFA7B68184617
:102EC0000837BD4680BD00BFE82C0108E81F010897
:102ED00080B582B000AF78607868FFF7DBFF786874
:102EE00002F0BAFA7B6818460837BD4680BD00BFBD
:102EF00080B500AF01204FF6FF71FFF73BFF80BDAB
:102F000080B584B000AFF860B9607A60FB6818469D
:102F1000B96864224FF4FA6309F0E6FDFB68144ACD
:102F20001A60FB687A681A65D7E906230CA1D1E913
:102F30000001994208BF904206D3F9680AA3D3E979
:102F40000023C1E9162304E0F968D7E90623C1E9A3
:102F50001623FB6818461037BD4680BDAFF30080CE
:102F6000FFE0F5050000000000E1F50500000000AD
:102F7000302D0108AFF3008080B58AB002AF7860D1
:102F80007B681B6D1846254903F08AFFF861FB69D1
:102F9000002B03D1224803F02BF902E0214803F073
:102FA00027F900233B7503237B7500233B747B6863
:102FB0001A6D07F1140307F110010091012101912D
:102FC000104629211A46022304F07EF8B8611648FB
:102FD000B96903F00DF93B7C1A463B7C032B14BF07
:102FE00000230123DBB211481146032203F000F94C
:102FF00081233B7300237B737B681A6D07F10C03FD
:10300000104629211A46022304F02AF8B86108481C
:10301000B96903F0EDF82037BD4680BDA0860100F8
:103020000820010828200108382001086020010834
:103030008820010880B58CB002AF78600023FB6166
:1030400000233B6200233B830023BB820023FB84DD
:103050000023BB84AC233B74AE233B730023BB60D3
:1030600002F06AFB02460B46104619467B68D3E91C
:103070001623121843EB010310461946002209F0EB
:1030800083FE7B681A6D07F1100307F118010091A8
:1030900002210191104629211A46012304F014F857
:1030A0000346FB617B681A6D07F10C0307F11401FD
:1030B000009102210191104629211A46012304F0B2
:1030C00003F803463B623B6A002B27DDFB69002BBC
:1030D00024D03B7E1B029AB27B7E1344FB843B7D53
:1030E0001B029AB27B7D1344BB84FA8CBB8C78683C
:1030F00011461A4600F01AF80346BB6007F10803B0
:1031000007481946012200F0D5F8064B1B78002B22
:1031100004D0BB680448194603F06AF8A0E700BF72
:103120003C0A0020BC220020A820010880B48DB0F9
:1031300000AF786013460A467A803B8047F2175307
:103140003B627B883A6A02FB03F39B0AFB613B8884
:103150003A6A02FB03F39B0ABB610023FB62FB6933
:10316000002B05D0BB699A02FB69B2FBF3F3FB624B
:10317000FB6A01335B087B617B69432B06D84FF404
:103180000173BB6240F2AD137B6247E07B69852B24
:1031900006D84FF40A73BB6240F2C1237B623DE064
:1031A0007B69C82B06D840F25323BB6240F26333DD
:1031B0007B6233E07B69B3F5857F06D840F28223DA
:1031C000BB6240F2DF337B6228E07B69B3F5A77F07
:1031D00006D240F27713BB6240F2DD137B621DE042
:1031E0007B69B3F5CD7F06D840F20113BB6240F294
:1031F00027137B6212E07A6940F29A239A4204D83C
:103200003723BB622B237B6208E07A6940F29A2362
:103210009A4203D90023BB6200237B62FB69BA6A2E
:1032200002FB03F2BB69796A01FB03F3D31A3B612A
:103230003B6903F500533B613B699B0BFB60FB68FB
:1032400018463437BD465DF8047B704780B584B0BE
:1032500000AFF860C7E90023F968D7E90023C1E9A6
:103260001623064B1B78002B05D0FB68D3E91623E9
:10327000034802F0BDFF1037BD4680BD00000020AE
:10328000B420010880B584B000AFF860B9607A60FE
:10329000FB681846B96804227B6802F0B9FAFB683B
:1032A000034A1A60FB6818461037BD4680BD00BF50
:1032B000202D010880B584B000AFF860B9601346D6
:1032C000FB71FA68FB791046B9681A46002302F0D0
:1032D0000FFB034618461037BD4680BD80B582B04F
:1032E00000AF78607B68084A1A607B68184609F06E
:1032F00069FC0023002B02D0786802F0ADF87B68EF
:1033000018460837BD4680BD302D010880B582B013
:1033100000AF78607868FFF7E1FF786802F09CF80A
:103320007B6818460837BD4680BD00BF80B582B0B7
:1033300000AF786039607B68012B0FD13A684FF697
:10334000FF739A420AD107484FF0FF31064AFFF750
:1033500099FF04480549064A0AF09CFF0837BD4614
:1033600080BD00BF3C0A0020D8200108753300084A
:10337000F425002080B582B000AF78607B680A4AEF
:103380001A600A4801F00AFF7B681846FFF75EF8EA
:103390000023002B02D0786802F05EF87B681846A4
:1033A0000837BD4680BD00BF202D0108E42001087C
:1033B00080B582B000AF78607868FFF7DBFF78688F
:1033C00002F04AF87B6818460837BD4680BD00BF4A
:1033D00080B500AF01204FF6FF71FFF7A7FF80BD5A
:1033E00080B582B000AF786012480121012201232C
:1033F00003F07CF9104801210122002303F076F943
:103400000E4800210122002303F070F90C4801212D
:103410000122002303F06AF90A484FF47A7164220A
:1034200004F0A4FB0748322105F002F80837BD4636
:1034300080BD00BF600A00207C0A0020980A00209E
:10344000B40A0020D00A002080B582B000AF7860B6
:103450000448012103F058FA034B01221A7008377F
:10346000BD4680BDB40A0020EC0A002080B582B0C1
:1034700000AF78600648002103F046FA054B0022B1
:103480001A70054802F0B4FE0837BD4680BD00BF83
:10349000B40A0020EC0A0020F420010880B582B0B4
:1034A00000AF78600B46FB70FB78642B00D91DE001
:1034B000FB78002B02D17868FFF7D8FF0D4B1B7803
:1034C00083F00103DBB2002B02D07868FFF7BCFF6A
:1034D000FB780948194604F0ABFF084B1B78002B1A
:1034E00004D0FB780648194602F082FE0837BD4634
:1034F00080BD00BFEC0A0020D00A002000000020A0
:103500000021010880B582B000AF786039607B6827
:10351000012B18D13A684FF6FF739A4213D10B482A
:10352000242103F0AFF80A48112103F0ABF8094851
:103530003C2103F0A7F80848422103F0A3F807480C
:103540000C2104F0E9FA0837BD4680BD600A00206E
:103550007C0A0020980A0020B40A0020D00A00202B
:1035600080B500AF01204FF6FF71FFF7CBFF80BDA4
:1035700080B582B000AF786039607B6818463968E2
:1035800064224FF4FA6309F0AFFA7B68034A1A60C9
:103590007B6818460837BD4680BD00BF482D01082E
:1035A00080B582B000AF78607B6850331846FFF773
:1035B00017FF054B1B78002B02D0044802F018FEC1
:1035C0000837BD4680BD00BF000000204021010833
:1035D00080B582B000AF78604FF0FF306FF00041EF
:1035E000002209F0D1FBF7E780B582B000AF786028
:1035F0000B46FB707B6803F15002FB7810461946BE
:10360000FFF74CFF0837BD4680BD00BF80B582B0D4
:1036100000AF78607B68084A1A607B68184609F03A
:10362000D1FA0023002B02D0786801F015FF7B68E7
:1036300018460837BD4680BD482D010880B582B0C8
:1036400000AF78607868FFF7E1FF786801F004FF69
:103650007B6818460837BD4680BD00BF80B584B082
:1036600000AFF860B9607A60FB681846B96801225B
:103670007B6802F0CDF8FB68034A1A60FB681846C5
:103680001037BD4680BD00BF602D010880B582B0F7
:1036900000AF786039607B68012B0FD13A684FF634
:1036A000FF739A420AD1074848F20771064AFFF7AA
:1036B000D5FF04480549064A0AF0ECFD0837BD4627
:1036C00080BD00BFF00A002060210108D536000847
:1036D000F425002080B582B000AF78607B680A4A8C
:1036E0001A600A4801F05AFD7B681846FEF7AEFEE4
:1036F0000023002B02D0786801F0AEFE7B681846EC
:103700000837BD4680BD00BF602D01086C2101084F
:1037100080B582B000AF78607868FFF7DBFF78682B
:1037200001F09AFE7B6818460837BD4680BD00BF91
:1037300080B500AF01204FF6FF71FFF7A7FF80BDF6
:1037400080B584B000AFF860B9607A60FB68184655
:10375000B96864224FF4FA6309F0C6F9FB68074AB6
:103760001A60F968D7E90623C1E91623FB687A686D
:103770001A65FB6818461037BD4680BD982D0108B4
:1037800080B582B000AF78607B681B6D18464FF43F
:10379000E13105F061FB0837BD4680BD80B5A8B0BA
:1037A00002AF78600023C7F8943079687B68D3E96A
:1037B0001623CDE9002308464FF000024FF0000326
:1037C00001F03AFF44E07B681B6D1B6818331B68EF
:1037D0007A68126D104698470346002B1ED07B680E
:1037E0001A6D07F10C0310461946402205F094FBB0
:1037F000C7F8940007F10C0207F14C0378681146F2
:10380000D7F8942000F032F80346002B06D007F1D9
:103810004C0314481946012200F0C6F807F14C0386
:103820001148194600F0D4F80346002B08D007F1E0
:103830000C0207F14C03786811461A4600F06AF84A
:1038400007F14C024623104600211A4601F052FDB2
:103850007B68184601F006FF0123002BB3D198378F
:10386000BD4680BD140B00205C0B002090B587B0D6
:1038700000AFF860B9607A603B607B68062B07DCBC
:10388000B86801F019FD0346062B01D800233AE081
:103890003B6818461E49BA680AF0B4FF7B68063BCD
:1038A00018460AF007FD03463B617B68073B3A690F
:1038B000134400221A700023FB750623BB750DE02C
:1038C000FB7D3A691344BA7DB9680A4412781A70CC
:1038D000FB7D0133FB75BB7D0133BB75BC7DB868D7
:1038E00001F0EAFC03469C42EAD33B689C1D3B681E
:1038F0000633184601F0E0FC0346204639691A46B3
:1039000001F044FD012318461C37BD4690BD00BFA1
:103910002822010880B584B000AFF860B9607A60F1
:103920007A687B680633044811461A4602F060FC48
:103930001037BD4680BD00BF3022010880B584B07D
:1039400000AFF860B9607A60FB681846B968462233
:103950007B6801F05DFFFB68034A1A60FB6818464C
:103960001037BD4680BD00BF882D010880B582B0EC
:1039700000AF78607B681846FDF712FD7B68094A46
:103980001A607B6803F58C53083300221A607B6849
:1039900003F58C53043300221A607B6818460837FD
:1039A000BD4680BD702D010880B584B000AFF860C1
:1039B000B9601346FB71FA68FB791046B9681A467C
:1039C000002301F095FF034618461037BD4680BD21
:1039D00080B582B000AF786039607B6803F58C53A6
:1039E00008331A687B6803F58C5304331B689A42CA
:1039F00014BF00230123DBB2002B01D0002322E0FF
:103A00007B6803F58C5308331B683A687968462055
:103A100000FB03F30B4411461A1D462308461146CA
:103A20001A4601F089FC7B6803F58C5308331B6848
:103A30007868194600F00CF802467B6803F58C5351
:103A400008331A60012318460837BD4680BD00BF01
:103A500080B483B000AF786039603B683E2B02DCF5
:103A60003B68013300E0002318460C37BD465DF883
:103A7000047B704780B582B000AF78607B68084AED
:103A80001A607B681846FDF7F1FB0023002B02D07B
:103A9000786801F0E1FC7B6818460837BD4680BDB8
:103AA000702D010880B582B000AF78607868FFF7AC
:103AB000E1FF786801F0D0FC7B6818460837BD4606
:103AC00080BD00BF80B582B000AF78607B68084AD7
:103AD0001A607B68184609F075F80023002B02D0A5
:103AE000786801F0B9FC7B6818460837BD4680BD90
:103AF000982D010880B582B000AF78607868FFF734
:103B0000E1FF786801F0A8FC7B6818460837BD46DD
:103B100080BD00BF80B584B002AF786039607B683B
:103B2000012B2FD13A684FF6FF739A422AD11748DA
:103B30004FF0FF31164AFFF701FF14481549164AA6
:103B40000AF0A8FB15484FF0FF31154AFFF7F6FEC3
:103B500012481049104A0AF09DFB1248FFF706FF71
:103B6000104811490C4A0AF095FB002300930F48B6
:103B70000A490C4A0E4B01F079FC0C480D49064AE3
:103B80000AF088FB0837BD4680BD00BF140B00203B
:103B900044220108ED3B0008F4250020380B0020EA
:103BA000482201085C0B0020753A0008E81C002040
:103BB0004C2201081112000880B584B000AFF860F3
:103BC000B9607A603B607B68462B04D9064801F0F7
:103BD000E5FA002304E0F868396800F035F8034698
:103BE00018461037BD4680BD5422010880B582B00A
:103BF00000AF78607B680A4A1A600A4801F0CEFA82
:103C00007B681846FEF722FC0023002B02D0786860
:103C100001F022FC7B6818460837BD4680BD00BF16
:103C2000882D01086422010880B582B000AF786059
:103C30007868FFF7DBFF786801F00EFC7B681846B8
:103C40000837BD4680BD00BF80B584B000AF786046
:103C500039607B6803F58C5304331B687868194618
:103C6000FFF7F6FEF8607B6803F58C5308331A689B
:103C7000FB689A4214BF00230123DBB2002B01D062
:103C8000002319E07B6803F58C5304331B687A68C2
:103C9000462101FB03F31A443B68111D1A464623D3
:103CA000084611461A4601F047FB7B6803F58C5322
:103CB0000433FA681A60012318461037BD4680BDE8
:103CC00080B500AF01204FF6FF71FFF723FF80BDE5
:103CD00080B582B000AF78607B68084A1A607B6864
:103CE000184608F06FFF0023002B02D0786801F01F
:103CF000B3FB7B6818460837BD4680BD482E0108D7
:103D000080B582B000AF78607868FFF7E1FF78682F
:103D100001F0A2FB7B6818460837BD4680BD00BF96
:103D200080B582B000AF78607B680C4A1A607B680F
:103D30000B4A1A657B6850331846FDF769FA7B68B1
:103D4000184608F03FFF0023002B02D0786801F0EE
:103D500083FB7B6818460837BD4680BDE02D01080F
:103D6000FC2D0108A0F15000FFF7DABF80B582B04A
:103D700000AF78607868FFF7D3FF786801F06CFBDC
:103D80007B6818460837BD4680BD00BFA0F15000D3
:103D9000ECE700BF80B582B000AF78607B68084A6E
:103DA0001A607B68184608F00DFF0023002B02D034
:103DB000786801F051FB7B6818460837BD4680BD26
:103DC000B02D010880B582B000AF78607868FFF749
:103DD000E1FF786801F040FB7B6818460837BD4674
:103DE00080BD00BF0000000080B584B002AF7860E5
:103DF00039607B68012B73D13A684FF6FF739A42A2
:103E00006ED14148414940F2D17201F097F83E48E5
:103E10003F49404A0AF03EFA3F48032104F0A8FD1A
:103E20003E48032102F054FF3D48022102F050FFBA
:103E30002DA3D3E90023CDE900233A483A49364A75
:103E4000FFF77EFC37483949324A0AF023FA3848EE
:103E5000384927A3D3E90023FEF746FB3448364907
:103E60002C4A0AF017FA24A3D3E90023CDE9002352
:103E700032483349294AFFF743F830483149254A47
:103E80000AF008FA30483149FFF772FB2E483049F2
:103E9000204A0AF0FFF92F482F4919A3D3E900233C
:103EA00000F0AAFC2B482D491A4A0AF0F3F9264BD8
:103EB00000932B482B491E4A204B00F00DF928484F
:103EC0002949144A0AF0E6F9284829490AA3D3E9FE
:103ED000002300F059F8254826490E4A0AF0DAF97D
:103EE0000837BD4680BD00BF80F0FA020000000028
:103EF0000065CD1D0000000000E1F5050000000098
:103F000000CA9A3B00000000181D0020882201080A
:103F10007D4F0008F4250020341D0020501D002096
:103F20006C1D0020881D002094220108C53A00085D
:103F3000E81D0020A0220108252D0008201F0020D8
:103F4000A4220108DD320008801F0020B0220108F1
:103F50000D360008D81F0020BC220108D13C000803
:103F600038200020C8220108213D0008C820002078
:103F7000D4220108953D000880B500AF01204FF61E
:103F8000FF71FFF731FF80BDB0B58EB000AFF860B4
:103F9000B960C7E90023FB681846B96864224FF48A
:103FA000FA6308F0A1FDFB68294A1A60FB685C33DC
:103FB0001846FDF791F9FB6870331846FDF7F8FADB
:103FC000D7E900231EA1D1E90001994208BF904220
:103FD00006D3F9681CA3D3E90023C1E9142304E044
:103FE000F968D7E90023C1E91423FB68002283F8AC
:103FF000582007F110031846FDF76EF9FB6803F12E
:104000005C0507F110040FCC28606960AA60EB60C2
:1040100023782B7407F124031846FDF7C9FAFB68CF
:1040200003F1700507F124040FCC28606960AA60D1
:10403000EB6023782B74FB6818463837BD46B0BD5B
:10404000FFE0F5050000000000E1F50500000000BC
:10405000B02D0108AFF3008080B483B000AF78606A
:104060000C37BD465DF8047B704700BF80B582B059
:1040700000AF786001F060FB02460B46104619461F
:104080007B68D3E91423121843EB01031046194649
:10409000002208F079FE786800F002F8EAE700BF35
:1040A00080B582B000AF78607B6893F85830012B00
:1040B00003D0022B07D0002B0BE07B68703318462F
:1040C000FDF794FA05E07B685C331846FDF722F9AA
:1040D00000BF0837BD4680BD80B584B000AFF86032
:1040E000B9607A603B60FB681846124964224FF45D
:1040F000FA6308F0F9FCFB68503318460E49BA68B9
:1041000001F0E6F9FB680D4A1A60FB680C4A1A6573
:10411000FB687A68C3F88020FB683A68C3F884209B
:10412000FB68BA69C3F88820FB6818461037BD469B
:1041300080BD00BF78230108140B0020E02D01088A
:10414000FC2D010880B584B000AFF860B9607A60DA
:104150003B600648396800F06BFAFB68184608F0C7
:10416000F7FD012318461037BD4680BD50210020C1
:10417000A0F15000FFF7E6BF80B483B000AF7860D5
:104180000C37BD465DF8047B704700BF80B594B026
:1041900000AF78604FF0FF306FF00041002208F070
:1041A000F3FD07F108030948194600F075FA07F115
:1041B00008037868194600F00BF807F10802462357
:1041C000104600211A4601F095F8E3E7502100203F
:1041D0002DE9904F8BB000AF78623962A94B1B7804
:1041E000002B07D03A6A3B6A0633A74811461A46A5
:1041F00001F0FEFF786A396AA44A00F0D3F9034659
:10420000002B0ED07B6AD3F888403B6A06331846F1
:104210000AF046F80346DBB220461946FFF7E4F9F8
:10422000A8E1786A396A9A4A00F0BCF90346002B83
:1042300003D0984801F0DCFF9CE1786A396A964A1D
:1042400000F0B0F90346002B03D0924801F0D0FFF4
:1042500090E1786A396A914A00F0A4F90346002B8C
:1042600047D07B6AD3F880403B6A063318460AF091
:1042700017F8034618464FEAE07102460B464FEA2C
:10428000432CC7F81CC0D7F81CC04CEAD25CC7F856
:104290001CC04FEA422CC7F818C0D7E906234FEAE2
:1042A000431B4BEAD26B4FEA421ABAEB020A6BEBA2
:1042B000030B1AEB000A4BEB010B4FEA8B127A61EE
:1042C0007B6943EA9A637B614FEA8A1CC7F810C096
:1042D000D7E90423B2EB0A0263EB0B03C7E904231B
:1042E000D7E90423121843EB01032046FEF7CAFB6B
:1042F00040E1786A396A6A4A00F054F90346002BB3
:1043000047D07B6AD3F884403B6A0633184609F0ED
:10431000C7FF034618464FEAE07102460B464FEAD4
:10432000432CC7F80CC0D7F80CC04CEAD25CC7F8D5
:104330000CC04FEA422CC7F808C0D7E902234FEA65
:10434000431949EAD2694FEA4218B8EB020869EB0F
:10435000030918EB000849EB01094FEA89127A605A
:104360007B6843EA98637B604FEA881CC7F800C00B
:10437000D7E90023B2EB080263EB0903C7E9002386
:10438000D7E90023121843EB01032046FEF75EFF36
:10439000F0E0786A396A434A00F004F90346002BDA
:1043A0000BD07B6AD3F880301B680C331B687A6AA9
:1043B000D2F8802010469847DCE0786A396A3A4A99
:1043C00000F0F0F80346002B06D07B6AD3F880306B
:1043D0001846FEF71BFACDE0786A396A334A00F0D6
:1043E000E1F80346002B0BD07B6AD3F888301B68BA
:1043F0000C331B687A6AD2F8882010469847B9E0D7
:10440000786A396A2A4A00F0CDF80346002B0FD0AB
:104410004FF0FF306FF00041002208F0B5FC194B5F
:104420001B78002B00F0A680224801F0E1FEA1E0FD
:10443000786A396A204A00F0B5F80346002B0ED09E
:104440007B6AD3F88430184608F082FC0D4B1B7849
:10445000002B00F08F80194801F0CAFE8AE0786ACC
:10446000396A174A00F09EF80346002B2ED01548F3
:1044700000F0DCFA034B1B78002B7BD0124801F0D4
:10448000B7FE77E00000002088230108A023010880
:10449000A8230108B0230108BC230108C423010894
:1044A000CC230108D4230108DC230108E4230108FC
:1044B000EC230108F42301080C240108142401084A
:1044C0002C240108D81F002034240108786A396A96
:1044D0002A4A00F067F80346002B0AD0284800F06B
:1044E00097FA284B1B78002B44D0274801F080FE18
:1044F00040E0786A396A254A00F054F80346002BF8
:1045000019D0786A396A224A00F062F80346002B13
:1045100003D0204B01221A7002E01E4B00221A70B9
:10452000184B1B78002B25D01A4B1B781A481946BC
:1045300001F05EFE1EE0786A396A184A00F032F82F
:104540000346002B0FD0786A396A114A00F040F810
:104550000346002B03D00B4B01221A700AE0094BD3
:1045600000221A7006E0074B1B78002B02D00C4883
:1045700001F03EFE2C37BD46BDE8908F4024010877
:10458000D81F0020000000204824010854240108FE
:104590005C240108BC22002060240108702401086A
:1045A0007824010880B584B000AFF860B9607A6003
:1045B000BB681846796800F019FF0346002B14BF4A
:1045C00000230123DBB218461037BD4680BD00BF73
:1045D00080B584B000AFF860B9607A60BB6806331C
:1045E0001846796800F002FF0346002B14BF002331
:1045F0000123DBB218461037BD4680BD80B582B0BE
:1046000000AF78607B681846FCF7CAFE7B68074AF3
:104610001A607B680022C3F868217B680022C3F817
:1046200064217B6818460837BD4680BDC82D010847
:1046300080B584B000AF786039607B68D3F86431AE
:104640007868194600F05EF8F8607B68D3F8682156
:10465000FB689A4214BF00230123DBB2002B01D078
:10466000002315E07B68D3F864317A68462101FBAA
:1046700003F31A443B68111D1A46462308461146A7
:104680001A4600F059FE7B68FA68C3F864210123DA
:1046900018461037BD4680BD80B582B000AF786047
:1046A00039607B68D3F868217B68D3F864319A421B
:1046B00014BF00230123DBB2002B01D000231CE038
:1046C0007B68D3F868313A687968462000FB03F3C9
:1046D0000B4411461A1D4623084611461A4600F09F
:1046E0002BFE7B68D3F868317868194600F00AF829
:1046F00002467B68C3F86821012318460837BD4687
:1047000080BD00BF80B483B000AF786039603B6883
:10471000032B02DC3B68013300E0002318460C3712
:10472000BD465DF8047B704780B582B000AF78600D
:104730007B68084A1A607B681846FCF797FD0023DF
:10474000002B02D0786800F087FE7B681846083797
:10475000BD4680BDC82D010880B582B000AF78602D
:104760007868FFF7E1FF786800F076FE7B6818460E
:104770000837BD4680BD00BF80B582B000AF78600D
:1047800039607B68012B0CD13A684FF6FF739A426F
:1047900007D10548FFF732FF03480449044A09F0EE
:1047A00079FD0837BD4680BD50210020294700080B
:1047B000F425002080B584B000AFF860B9607A605D
:1047C0003B607B68462B04D9064800F0E7FC0023D9
:1047D00004E0F8683968FFF72BFF034618461037E6
:1047E000BD4680BD9424010880B500AF01204FF67E
:1047F000FF71FFF7C1FF80BD80B584B000AFF860E6
:10480000B960C7E90023FB681846B96864224FF411
:10481000FA6308F069F9FB68074A1A60F968D7E992
:104820000023C1E91423FB68012283F85820FB68A8
:1048300018461037BD4680BD482E010880B483B0AD
:1048400000AF78600C37BD465DF8047B704700BF51
:1048500080B594B000AF786000F06EFF02460B4662
:10486000104619467B68D3E91423121843EB010361
:1048700010461946002208F087FA7B6893F85830F2
:10488000002B02D0786800F019F8E5E780B584B015
:1048900002AF786039603B681B881AB23B685B885E
:1048A0001BB23968898809B200917868024909F019
:1048B000A9FF0837BD4680BD5025010880B598B0D6
:1048C00000AF786007F158034448194600F0ECF84F
:1048D00007F1080318464249424A09F093FF07F1DD
:1048E00008039A1D07F1580310461946FFF7CEFF3B
:1048F00007F108033C4819460122FFF755F807F174
:1049000058033A48194600F0CFF807F10803184653
:104910003349374A09F076FF07F108039A1D07F17A
:10492000580310461946FFF7B1FF07F108032E4858
:1049300019460122FFF738F807F158032D481946A8
:1049400000F0B2F807F10803184625492A4A09F091
:1049500059FF07F108039A1D07F15803104619463D
:10496000FFF794FF07F108031F4819460122FFF7DC
:104970001BF807F1500321481946FCF739FD07F1F0
:104980000803184616491E4A09F03CFF07F10803C0
:10499000154819460122FFF707F807F15403194893
:1049A000194600F0B1F807F1080318460C49164AF9
:1049B00009F028FF7B6D07F1080206321046134903
:1049C0001A4609F01FFF07F108030748194601229C
:1049D000FEF7EAFF6037BD4680BD00BF38230020E8
:1049E0006825010870250108380B0020E02200200E
:1049F000782501080C23002080250108842300204D
:104A000088250108C022002090250108982501086A
:104A100080B483B000AF78607B68012283F85820AF
:104A20000C37BD465DF8047B704700BF80B483B08F
:104A300000AF78607B68002283F858200C37BD46B1
:104A40005DF8047B704700BF80B582B000AF78602E
:104A50007B681846FCF7A4FC7B68064A1A607B68F2
:104A60000022DA617B6800229A617B681846083769
:104A7000BD4680BD302E010880B582B000AF7860A1
:104A80007B681846FCF78CFC7B68064A1A607B68DA
:104A900000229A627B6800225A627B6818460837B7
:104AA000BD4680BD182E010880B582B000AF786089
:104AB00039607B689A6A7B685B6A9A4214BF0023FC
:104AC0000123DBB2002B01D0002318E07B689A6A37
:104AD0003968786813465B0013445B00C2180B46C4
:104AE00004321168196092889A807B689B6A7868A2
:104AF000194600F031F802467B689A620123184695
:104B00000837BD4680BD00BF80B582B000AF786079
:104B100039607B68DA697B689B699A4214BF00231D
:104B20000123DBB2002B01D0002311E07B68DB699D
:104B30007A689B0013445A683B681A607B68DB699B
:104B40007868194600F01AF802467B68DA6101239A
:104B500018460837BD4680BD80B483B000AF78608A
:104B600039603B68032B02DC3B68013300E0002323
:104B700018460C37BD465DF8047B704780B483B09F
:104B800000AF786039603B68032B02DC3B6801337F
:104B900000E0002318460C37BD465DF8047B7047E3
:104BA00080B582B000AF78607B68084A1A607B6885
:104BB0001846FCF75BFB0023002B02D0786800F05E
:104BC0004BFC7B6818460837BD4680BD182E01088F
:104BD00080B582B000AF78607868FFF7E1FF786851
:104BE00000F03AFC7B6818460837BD4680BD00BF20
:104BF00080B582B000AF78607B68084A1A607B6835
:104C00001846FCF733FB0023002B02D0786800F035
:104C100023FC7B6818460837BD4680BD302E01084E
:104C200080B582B000AF78607868FFF7E1FF786800
:104C300000F012FC7B6818460837BD4680BD00BFF7
:104C400080B584B002AF786039607B68012B40F09A
:104C500083803A684FF6FF739A427DD14048FFF750
:104C6000F3FE3F483F49404A09F014FB3F48FFF735
:104C700003FF3E483E493C4A09F00CFB3D48FFF724
:104C8000FBFE3C483A49384A09F004FB3A48FFF732
:104C9000F3FE39483649344A09F0FCFA3748FCF744
:104CA0008FFB36483649304A09F0F4FA3548FCF7AC
:104CB00087FB344832492C4A09F0ECFA0023009370
:104CC00031483249264A324B00F0D0FB2E48314958
:104CD000254A09F0DFFA002300932F482F49234A81
:104CE0002F4B00F0C3FB2C482A491F4A09F0D2FA87
:104CF000002300932B482C491E4A2C4B00F0B6FB96
:104D000028482449184A09F0C5FA00230093284886
:104D10002849194A284B00F0A9FB25481D49124A89
:104D200009F0B8FA0023009324482549134A254B7B
:104D300000F09CFB214817490B4A09F0ABFA00230D
:104D40000093214821490F4A214B00F08FFB1E4858
:104D50001049054A09F09EFA0837BD4680BD00BFDC
:104D6000C0220020F14B0008F4250020E0220020A2
:104D7000A14B00080C2300203823002064230020CE
:104D80006514000884230020A42300203C0A00208E
:104D9000C425010811120008D4230020D0090020E6
:104DA000D02501080424002088090020D825010806
:104DB00034240020AC090020E025010864240020F0
:104DC000F4090020E825010894240020180A002096
:104DD000F025010880B584B000AFF860B9607A6052
:104DE0003B607B68062B04D9064800F0D7F9002306
:104DF00004E0F868396800F021F8034618461037D7
:104E0000BD4680BD0026010880B584B000AFF860C3
:104E1000B9607A603B607B68042B04D9064800F0D7
:104E2000BDF9002304E0F868396800F035F803465E
:104E300018461037BD4680BD0026010880B584B0F5
:104E400000AF786039607B685B6A78681946FFF765
:104E500083FEF8607B689A6AFB689A4214BF00235D
:104E60000123DBB2002B01D0002311E07B685A6ADA
:104E7000796813465B0013445B000B443A680433C3
:104E80001168196092889A807B68FA685A620123D7
:104E900018461037BD4680BD80B584B000AF78603D
:104EA00039607B689B6978681946FFF767FEF86090
:104EB0007B68DA69FB689A4214BF00230123DBB2E6
:104EC000002B01D000230BE07B689B693A681268D5
:104ED00079689B000B445A607B68FA689A610123E9
:104EE00018461037BD4680BD80B500AF01204FF693
:104EF000FF71FFF7A5FE80BD80B483B000AF78607E
:104F00007B681B6818460C37BD465DF8047B70470C
:104F100080B483B000AF78607B685B6818460C375C
:104F2000BD465DF8047B704780B483B000AF786005
:104F30000C37BD465DF8047B704700BF80B584B078
:104F400000AFF860B9607A60FB680433184609491D
:104F5000BA68002300F05AF9FB68074A1A60FB6838
:104F60007A685A61FB6801221A76FB681846103786
:104F7000BD4680BDC4240020602E010880B582B0EB
:104F800000AF78607B680A4A1A600A4800F006F9A8
:104F90007B680433184600F081F90023002B02D00F
:104FA000786800F059FA7B6818460837BD4680BD1E
:104FB000602E01081026010880B582B000AF78602D
:104FC0007868FFF7DBFF786800F046FA7B681846E0
:104FD0000837BD4680BD00BF80B483B000AF7860A5
:104FE0007B6801221A760C37BD465DF8047B70475A
:104FF00080B483B000AF78607B6800221A760C37EB
:10500000BD465DF8047B704780B485B000AFF860A2
:10501000B9607A603B604FF0FF3318461437BD46E5
:105020005DF8047B704700BF90B583B000AF154BAF
:105030001B68002B03D0134B1B68043B00E00023CC
:105040007B6018E07B685C697B6804331846FFF777
:105050005FFF03460C4821461A4600F059F87B686A
:1050600004331846FFF748FF0346002B01D0043BEA
:1050700000E000237B607B68002BE3D10C37BD464A
:1050800090BD00BFC42400202426010880B582B052
:1050900000AF78607B68064A1A600023002B02D0BC
:1050A000786800F0D9F97B6818460837BD4680BD9E
:1050B000802E010880B582B000AF78607868FFF775
:1050C000E5FF786800F0C8F97B6818460837BD46E8
:1050D00080BD00BF80B582B000AF78600B46FB702A
:1050E00097F90330184607F019FA0837BD4680BD16
:1050F00080B483B000AF78607B68044A1A607B6834
:1051000018460C37BD465DF8047B7047802E0108B9
:105110000FB480B582B000AF1C4B1B68002B2FD0A2
:105120003B461846FFF7E4FF07F114037B60184B7A
:105130001B68002B05D0164B1B681648194601F05A
:1051400057F807F0D7FB034683F00103DBB2002BCF
:1051500005D03B461846396900F0D8FD0AE00E48F4
:1051600007F016FC3B461846396900F0CFFD0A48A7
:1051700007F06CFC07F014FA3B461846FFF786FF71
:105180000837BD46BDE8804004B0704708000020E5
:10519000C824002040260108CC24002080B582B01D
:1051A00000AF7860074B7A681A6007487968FFF7A4
:1051B000AFFF064B1B685A1C044B1A600837BD46EC
:1051C00080BD00BF0400002054260108C824002030
:1051D00080B582B000AF786039607B68012B07D161
:1051E0003A684FF6FF739A4202D1034807F0B8FBC2
:1051F0000837BD4680BD00BFCC24002080B500AF7D
:1052000001204FF6FF71FFF7E3FF80BD80B584B04A
:1052100000AFF860B9607A603B60FB683A68DA60BA
:10522000FB687A685A60084B1B68591C064A116073
:10523000FA689360F868B96800F008F8FB681846E7
:105240001037BD4680BD00BFDC24002080B582B091
:1052500000AF786039603B681A687B681A603B6809
:105260007A681A600A4B1B68002B0CBF00230123CD
:10527000DBB2002B08D00748FFF790FF7B685B6824
:1052800005481946FFF744FF0837BD4680BD00BFFB
:10529000CC37002080260108B426010880B582B0F2
:1052A00000AF78600348FFF779FF7B68184608373E
:1052B000BD4680BDD826010880B485B000AF7860B7
:1052C0000023FB607B68002B01D100230BE005E08D
:1052D000FB680133FB607B6801337B607B681B7874
:1052E000002BF5D1FB6818461437BD465DF8047BEA
:1052F000704700BF80B487B000AFF860B9607A60D3
:10530000FB68002B01D1FB6810E0FB687B6109E0C2
:10531000BB68DAB27B691A707B6901337B617B6899
:10532000013B7B607B68002BF2D1FB6818461C3781
:10533000BD465DF8047B704780B487B000AFF8606D
:10534000B9607A60FB687B61BB683B617B69002B5D
:1053500002D03B69002B01D1002311E00CE03B6936
:105360001A787B691A707B68013B7B603B6901336B
:105370003B617B6901337B617B68002BEFD1FB686C
:1053800018461C37BD465DF8047B704780B487B073
:1053900000AFF860B9607A60FB687B617B69002BC5
:1053A00002D0BB68002B01D1002319E011E0BB68DB
:1053B0001A787B691A70BB681B78002B00D10BE050
:1053C000BB680133BB607B6901337B617B68013B58
:1053D0007B607B68002BEAD17B6900221A70FB6836
:1053E00018461C37BD465DF8047B704780B485B015
:1053F00000AF786039607B68002B07D13B68002BD9
:1054000001D1002301E04FF0FF331FE03B68002B88
:1054100001D101231AE07B685A1C7A601B78FB7368
:105420003B685A1C3A601B78BB73FA7BBB7B9A4281
:1054300002D24FF0FF3309E0FA7BBB7B9A4201D9DD
:10544000012303E0FB7B002BE5D100231846143732
:10545000BD465DF8047B704780B483B000AF7860D0
:105460000C37BD465DF8047B704700BF80B584B043
:1054700000AFF860B9607A603B60FB68043318469F
:105480001049114A0023FFF7C1FEFB680F4A1A605A
:10549000FB68BA685A61FB682033184607F060FA67
:1054A000FB683A7E1A77FB6801225A77FB683A68F4
:1054B0009A60FB687A689A61FB6818461037BD46A7
:1054C00080BD00BF9038002000270108982E0108F9
:1054D00080B584B000AFF860B9607A60FB680433CF
:1054E00018461049104A0023FFF790FEFB680F4A48
:1054F0001A60FB68BA685A61FB682033184607F0E7
:105500002FFAFB6800221A77FB6801225A77FB68A2
:105510007A689A60FB6800229A61FB681846103727
:10552000BD4680BD9038002000270108982E010854
:1055300080B485B000AFF860B9607A603B60034B1F
:1055400018461437BD465DF8047B704715CD5B07E0
:1055500090B587B002AFF860B9607A603B60FB68D5
:105560005B7F83F00103DBB2002B01D000233DE021
:10557000FB682033184607F00BFAFB689B69002B89
:105580000FD0FB689B691B6808331C68FB689A692D
:105590007B68396A00911046B9681A463B68A04793
:1055A00018E0FB681B681C683B6A5B690093F8683D
:1055B000B9687A683B68A04702460E4B9A420CBF16
:1055C00000230123DBB2002B04D00B48FFF7E6FDDC
:1055D00001230BE0FB682033184607F037FAFB681D
:1055E0009B69002B01D0012300E0002318461437EB
:1055F000BD4690BD15CD5B070C27010890B58DB059
:1056000002AFF860B9607A603B60FB689B69002B71
:105610000FD0FB689B691B6808331C68FB689A699C
:105620003B6807F1100100911046B9681A467B6883
:10563000A0472C37BD4690BD80B485B000AFF86060
:10564000C7E90023F968D7E90023C1E90E23F96807
:10565000D7E90623C1E910231437BD465DF8047B62
:10566000704700BFB0B586B002AF786006E04FF07B
:10567000FF306FF00041002207F086FB7B68D3E922
:10568000102352EA0301F2D07B68D3E90E231046BF
:105690001946002207F078FB00F04EF8C7E9020136
:1056A0007B68D3E90E017B68D3E91023D7E9024573
:1056B000CDE9004500F04AF802460B467968C1E999
:1056C0000E231037BD46B0BD80B584B000AF786002
:1056D00007F032FBF860F86807F014FBB860F86870
:1056E000796807F01BFBBB6818461037BD4680BDC4
:1056F00080B483B000AF786079684FF000024FF05B
:105700000003C1E9002379684FF000024FF0000365
:10571000C1E9022379684FF000024FF00003C1E9AC
:1057200004237B680F229A617B6818460C37BD46BC
:105730005DF8047B704700BF80B500AF06F030FE17
:1057400002460B461046194680BD00BF80B584B0A6
:1057500000AFC7E90201C7E90023D7E90223D7E96F
:105760000601904271EB030C02DAD7E902232CE028
:10577000D7E9002352EA030104D14FF0FF326FF062
:10578000004322E0D7E90601D7E90223821A61EB40
:10579000030310461946D7E90023FBF7E3F9024655
:1057A0000B46013243F10003396803FB01F07968CD
:1057B00002FB01F101443868A0FB022319440B46A7
:1057C000D7E90201121843EB0103104619461037BE
:1057D000BD4680BD80B582B000AF786039607B681F
:1057E000012B07D13A684FF6FF739A4202D1034862
:1057F000FFF77EFF0837BD4680BD00BFE0240020D4
:1058000080B500AF01204FF6FF71FFF7E3FF80BDC9
:1058100080B586B000AFF860B9607A603B60FB6825
:10582000043318462E493A680023FFF7EFFCFB6863
:105830002C4A1A60FB6800225A61FB68BA68DA6178
:10584000FB687A681A62FB6800229A61FB68DB6970
:10585000B3F1FF3F11D1386807F02CFD03461A461B
:10586000FB68DA61FB68DB69B3F57A7F05DAFB6810
:10587000DB6903F57A72FB68DA61194B1B68002B50
:1058800003D0174B1B68043B00E000237B611EE044
:105890007B69DA69BB689A420DD17A69FB689A42E2
:1058A00009D01148FFF77AFC7B699B680F48B968FB
:1058B0003A68FFF72DFC7B6904331846FFF71CFBA1
:1058C0000346002B01D0043B00E000237B617B6991
:1058D000002BDDD1FB6818461837BD4680BD00BFE0
:1058E000A0380020102D01086C270108802701082E
:1058F00080B586B002AFF860B9603B601346FB71BB
:10590000FB681B6A1A46FB7939680091F868B96828
:1059100000F006F8034618461037BD4680BD00BFAC
:1059200090B591B002AFF860B9607A60FB70002367
:105930007B63BB6C002B12D100237B62FFF7FCFE64
:1059400002460B46C7E9062307F0A8FD03463B6164
:1059500007F0F2F903463B6207F11003BB64FB68F2
:105960009B69002B0FD0FB689B691B681C68FB6858
:105970009969FB68DA697B68B86C00900846114643
:105980001A46BB68A047FB685B69002B03D0FB6825
:105990005B69043B00E000233B631DE03B6B1B683D
:1059A00004331C68FB68DA697B68B96C0091386B5A
:1059B00011461A46BB68A04703467A6B13447B63C3
:1059C0003B6B04331846FFF797FA0346002B01D0D0
:1059D000043B00E000233B633B6B002BDED1FB78F4
:1059E00083F00103DBB2002B01D07B6B2CE0184B62
:1059F0005B69002B03D0164B5B69043B00E000237E
:105A0000FB621DE0FB6A1B6804331C68FB68DA69F3
:105A10007B68B96C0091F86A11461A46BB68A047CA
:105A200003467A6B13447B63FB6A04331846FFF723
:105A300063FA0346002B01D0043B00E00023FB6225
:105A4000FB6A002BDED17B6B18463C37BD4690BD10
:105A50001C25002080B582B000AF78607B680A4AC0
:105A60001A600A48FFF79AFB7B681846FCF7EEFCC1
:105A70000023002B02D07868FFF7EEFC7B68184605
:105A80000837BD4680BD00BFD82E0108F8270108A1
:105A900080B582B000AF78607868FFF7DBFF786888
:105AA000FFF7DAFC7B6818460837BD4680BD00BFAB
:105AB00080B584B000AFF860B9607A60FB681846C2
:105AC000B9680C227B68FFF7A3FEFB68034A1A60E3
:105AD000FB6818461037BD4680BD00BFD82E0108B0
