:020000040800F2
:1000000000000220CD5F0008396000083960000858
:1000100039600008396000083960000800000000FD
:1000200000000000000000000000000009BB000804
:1000300039600008000000001DBB000849BE000830
:10004000396000083960000839600008396000082C
:1000500039600008396000084D68000871680008C0
:1000600095680008B9680008DD6800083960000874
:10007000498B000839600008718A0008396000085F
:10008000018B0008396000083960000839600008F9
:10009000396000083960000839600008016900080B
:1000A00039600008396000083960000839600008CC
:1000B00039600008396000083960000839600008BC
:1000C00039600008396000083960000839600008AC
:1000D0003960000899890008B1890008C9890008B9
:1000E0005D6900083960000839600008396000085F
:1000F000396000083960000839600008396000087C
:10010000396000083960000815BC00083960000833
:10011000E1890008F989000839600008F9BF000882
:10012000396000083960000839600008396000084B
:10013000396000083960000839600008396000083B
:10014000396000083960000839600008396000082B
:10015000B98A000839600008298A0008118A000855
:10016000396000083960000839600008396000080B
:1001700039600008396000083960000839600008FB
:0C01800039600008396000080000000829
:1001900081F0004102E000BF83F0004330B54FEA38
:1001A00041044FEA430594EA050F08BF90EA020FA5
:1001B0001FBF54EA000C55EA020C7FEA645C7FEA38
:1001C000655C00F0E2804FEA5454D4EB5555B8BF5B
:1001D0006D420CDD2C4480EA020281EA030382EACC
:1001E000000083EA010180EA020281EA0303362D5E
:1001F00088BF30BD11F0004F4FEA01314FF4801C31
:100200004CEA113102D0404261EB410113F0004F42
:100210004FEA03334CEA133302D0524263EB4303F9
:1002200094EA050F00F0A780A4F10104D5F1200E97
:100230000DDB02FA0EFC22FA05F2801841F10001F2
:1002400003FA0EF2801843FA05F359410EE0A5F1C6
:1002500020050EF1200E012A03FA0EFC28BF4CF0F7
:10026000020C43FA05F3C01851EBE37101F00045AD
:1002700007D54FF0000EDCF1000C7EEB00006EEBBA
:100280000101B1F5801F1BD3B1F5001F0CD3490844
:100290005FEA30004FEA3C0C04F101044FEA44529B
:1002A00012F5800F80F09A80BCF1004F08BF5FEA22
:1002B000500C50F1000041EB045141EA050130BD02
:1002C0005FEA4C0C404141EB010111F4801FA4F1A5
:1002D0000104E9D191F0000F04BF01460020B1FAFA
:1002E00081F308BF2033A3F10B03B3F120020CDA32
:1002F0000C3208DD02F1140CC2F10C0201FA0CF010
:1003000021FA02F10CE002F11402D8BFC2F1200C74
:1003100001FA02F120FA0CFCDCBF41EA0C0190402A
:10032000E41AA2BF01EB0451294330BD6FEA040473
:100330001F3C1CDA0C340EDC04F11404C4F120025E
:1003400020FA04F001FA02F340EA030021FA04F370
:1003500045EA030130BDC4F10C04C4F1200220FAC7
:1003600002F001FA04F340EA0300294630BD21FA05
:1003700004F0294630BD94F0000F83F4801306BFCB
:1003800081F480110134013D4EE77FEA645C18BFBF
:100390007FEA655C29D094EA050F08BF90EA020F56
:1003A00005D054EA000C04BF1946104630BD91EA4E
:1003B000030F1EBF0021002030BD5FEA545C05D151
:1003C0004000494128BF41F0004130BD14F5800490
:1003D0003CBF01F5801130BD01F0004545F0FE4104
:1003E00041F470014FF0000030BD7FEA645C1ABF39
:1003F000194610467FEA655C1CBF0B46024650EA70
:10040000013406BF52EA033591EA030F41F400219B
:1004100030BD00BF90F0000F04BF0021704730B521
:100420004FF4806404F132044FF000054FF00001F6
:1004300050E700BF90F0000F04BF0021704730B5B7
:100440004FF4806404F1320410F0004548BF40428C
:100450004FF000013EE700BF42004FEAE2014FEAE1
:1004600031014FEA02701FBF12F07F4393F07F4FBC
:1004700081F06051704792F0000F14BF93F07F4FEE
:10048000704730B54FF4607401F0004521F0004131
:1004900020E700BF50EA010208BF704730B54FF0B7
:1004A00000050AE050EA010208BF704730B511F0BC
:1004B000004502D5404261EB41014FF4806404F1F4
:1004C00032045FEA915C3FF4DCAE4FF003025FEA76
:1004D000DC0C18BF03325FEADC0C18BF033202EBFE
:1004E000DC02C2F1200300FA03FC20FA02F001FA58
:1004F00003FE40EA0E0021FA02F11444C1E600BFF7
:1005000070B54FF0FF0C4CF4E06C1CEA11541DBFA9
:100510001CEA135594EA0C0F95EA0C0F00F0DEF874
:100520002C4481EA030621EA4C5123EA4C5350EA59
:10053000013518BF52EA033541F4801143F48013AA
:1005400038D0A0FB02CE4FF00005E1FB02E506F03B
:100550000042E0FB03E54FF00006E1FB03569CF090
:10056000000F18BF4EF0010EA4F1FF04B6F5007F96
:1005700064F5407404D25FEA4E0E6D4146EB060608
:1005800042EAC62141EA55514FEAC52040EA5E5091
:100590004FEACE2EB4F1FD0C88BFBCF5E06F1ED83B
:1005A000BEF1004F08BF5FEA500E50F1000041EB72
:1005B000045170BD06F0004646EA010140EA02001F
:1005C00081EA0301B4EB5C04C2BFD4EB0C0541EA41
:1005D000045170BD41F480114FF0000E013C00F356
:1005E000AB8014F1360FDEBF002001F0004170BD7A
:1005F000C4F10004203C35DA0C341BDC04F1140493
:10060000C4F1200500FA05F320FA04F001FA05F21E
:1006100040EA020001F0004221F0004110EBD370EB
:1006200021FA04F642EB06015EEA430E08BF20EA17
:10063000D37070BDC4F10C04C4F1200500FA04F3BA
:1006400020FA05F001FA04F240EA020001F000414C
:1006500010EBD37041F100015EEA430E08BF20EABF
:10066000D37070BDC4F1200500FA05F24EEA020E07
:1006700020FA04F301FA05F243EA020321FA04F036
:1006800001F0004121FA04F220EA020000EBD370ED
:100690005EEA430E08BF20EAD37070BD94F0000FED
:1006A0000FD101F00046400041EB010111F4801F21
:1006B00008BF013CF7D041EA060195F0000F18BFD2
:1006C000704703F00046520043EB030313F4801F0E
:1006D00008BF013DF7D043EA0603704794EA0C0FC8
:1006E0000CEA135518BF95EA0C0F0CD050EA4106DE
:1006F00018BF52EA4306D1D181EA030101F000415B
:100700004FF0000070BD50EA410606BF1046194682
:1007100052EA430619D094EA0C0F02D150EA01368E
:1007200013D195EA0C0F05D152EA03361CBF1046CF
:1007300019460AD181EA030101F0004141F0FE416E
:1007400041F470014FF0000070BD41F0FE4141F4F2
:10075000780170BD70B54FF0FF0C4CF4E06C1CEAF2
:1007600011541DBF1CEA135594EA0C0F95EA0C0FA7
:1007700000F0A7F8A4EB050481EA030E52EA033562
:100780004FEA013100F088804FEA03334FF0805583
:1007900045EA131343EA12634FEA022245EA1115B0
:1007A00045EA10654FEA00260EF000419D4208BF61
:1007B000964244F1FD0404F5407402D25B084FEA0E
:1007C0003202B61A65EB03055B084FEA32024FF4BA
:1007D00080104FF4002CB6EB020E75EB030E22BF17
:1007E000B61A754640EA0C005B084FEA3202B6EBD7
:1007F000020E75EB030E22BFB61A754640EA5C0086
:100800005B084FEA3202B6EB020E75EB030E22BF15
:10081000B61A754640EA9C005B084FEA3202B6EB16
:10082000020E75EB030E22BFB61A754640EADC00D5
:1008300055EA060E18D04FEA051545EA16754FEA37
:1008400006164FEAC30343EA52734FEAC2025FEA55
:100850001C1CC0D111F4801F0BD141EA00014FF0E4
:1008600000004FF0004CB6E711F4801F04BF0143B5
:100870000020B4F1FD0C88BFBCF5E06F3FF6AFAED1
:10088000B5EB030C04BFB6EB020C5FEA500C50F161
:10089000000041EB045170BD0EF0004E4EEA1131E4
:1008A00014EB5C04C2BFD4EB0C0541EA045170BDEB
:1008B00041F480114FF0000E013C90E645EA060E2F
:1008C0008DE60CEA135594EA0C0F08BF95EA0C0F5D
:1008D0003FF43BAF94EA0C0F0AD150EA01347FF4A5
:1008E00034AF95EA0C0F7FF425AF104619462CE77C
:1008F00095EA0C0F06D152EA03353FF4FDAE1046DF
:10090000194622E750EA410618BF52EA43067FF42F
:10091000C5AE50EA41047FF40DAF52EA43057FF4BF
:10092000EBAE12E74FF0FF3C06E000BF4FF0010CCA
:1009300002E000BF4FF0010C4DF804CD4FEA410C2E
:100940007FEA6C5C4FEA430C18BF7FEA6C5C1BD0FB
:1009500001B050EA410C0CBF52EA430C91EA030F7C
:1009600002BF90EA020F0020704710F1000F91EAD9
:10097000030F58BF994208BF90422CBFD8176FEAA7
:10098000E37040F0010070474FEA410C7FEA6C5C75
:1009900002D150EA013C07D14FEA430C7FEA6C5C7C
:1009A000D6D152EA033CD3D05DF8040B704700BFA8
:1009B0008446104662468C461946634600E000BFF6
:1009C00001B5FFF7B7FF002848BF10F1000F01BDC8
:1009D0004DF808EDFFF7F4FF0CBF012000205DF893
:1009E00008FB00BF4DF808EDFFF7EAFF34BF012018
:1009F00000205DF808FB00BF4DF808EDFFF7E0FFB1
:100A000094BF012000205DF808FB00BF4DF808ED01
:100A1000FFF7CEFF94BF012000205DF808FB00BF68
:100A20004DF808EDFFF7C4FF34BF012000205DF84A
:100A300008FB00BF4FEA410212F5001215D211D592
:100A40006FF47873B3EB625212D94FEAC12343F0CB
:100A5000004343EA505311F0004F23FA02F018BF4D
:100A6000404270474FF00000704750EA013005D116
:100A700011F0004008BF6FF0004070474FF00000D9
:100A8000704700BF4A0011D212F5001211D20DD5E5
:100A90006FF47873B3EB62520ED44FEAC12343F084
:100AA000004343EA505323FA02F070474FF000002E
:100AB000704750EA013002D14FF0FF3070474FF0DD
:100AC000000070474FEA4102B2F1E04324BFB3F5A2
:100AD000001CDCF1FE5C0DD901F0004C4FEAC002B5
:100AE0004CEA5070B2F1004F40EB830008BF20F099
:100AF0000100704711F0804F21D113F13872BCBF53
:100B000001F00040704741F480114FEA5252C2F1A7
:100B10001802C2F1200C10FA0CF320FA02F018BFF0
:100B200040F001004FEAC1234FEAD32303FA0CFC43
:100B300040EA0C0023FA02F34FEA4303CCE77FEAD2
:100B4000625307D150EA01331EBF4FF0FE4040F41C
:100B50004000704701F0004040F0FE4040F40000CB
:100B6000704700BF73B96AB9002908BF0028BCBF2D
:100B700000204FF00041C4BF6FF000414FF0FF3044
:100B800000F08CB882B0EC462DE9005000F056F829
:100B9000DDF804E002B00CBC704700BF4BB942B9AD
:100BA000002908BF002802D04FF0FF31084600F0AE
:100BB00075B882B0EC462DE9005000F057F8DDF82A
:100BC00004E002B00CBC704738B500220023044694
:100BD0000D46FFF707FF28B920462946BDE83840F3
:100BE00000F00AB8204605F1004100F005F8404247
:100BF00061EB410138BD00BF70B500220D4B0446CA
:100C00000D46FFF77DFCFFF73DFF0646FFF702FCB0
:100C10000022094BFFF774FC02460B46204629468A
:100C2000FFF7BAFAFFF72EFF002242EA000420463F
:100C3000314670BD0000F03D0000F0412DE97043E9
:100C4000069E14461D468046894600F029F804FB9E
:100C500001F300FB0533A4FB00451D44B8EB04047D
:100C600069EB0505C6E90045BDE870832DE97043D1
:100C7000069E1446804689461D4600F05DF900FB3D
:100C800005F504FB0153A0FB04451D44B8EB040427
:100C900069EB0505C6E90045BDE87083704700BFF4
:100CA00000292DE9F00FC0F29F800024002BC0F234
:100CB0009680154606460F46002B3ED18A4257D9EC
:100CC000B2FA82F34BB1C3F1200201FA03F720FA22
:100CD00002F29D40174300FA03F6290CB7FBF1F22C
:100CE000330C01FB127CA8B243EA0C4700FB02F371
:100CF000BB4209D97F1902F1FF3C80F00181BB4260
:100D000040F2FE80023A2F44FF1AB7FBF1F3B6B26D
:100D100001FB137146EA014100FB03F0884208D948
:100D2000491903F1FF3780F0ED80884240F2EA80F4
:100D3000023B43EA0242002303E08B420AD900232C
:100D40001A461046194614B1404261EB4101BDE814
:100D5000F00F7047B3FA83F8B8F1000F40F08480C9
:100D60008B4202D3824200F2DE8000230122E8E7B8
:100D700012B90123B3FBF2F5B5FA85F2002A39D195
:100D80007F1B280C1FFA85FC0123B7FBF0F1320C06
:100D900000FB117742EA07470CFB01F2BA4207D980
:100DA0007F1901F1FF3802D2BA4200F2C1804146F8
:100DB000BF1AB7FBF0F2B6B200FB127046EA004071
:100DC0000CFB02FC844507D9401902F1FF3702D21F
:100DD000844500F2AB803A4642EA0142B1E7E4437F
:100DE000524263EB430364E7404261EB41014FF041
:100DF000FF345BE79540C2F1200327FA03F1280C8A
:100E000026FA03F39740B1FBF0F81F433B0C00FBBD
:100E100018111FFA85FC43EA01410CFB08F38B42D1
:100E200006FA02F608D9491908F1FF3279D28B4245
:100E300077D9A8F102082944C91AB1FBF0F3BFB26F
:100E400000FB131147EA01470CFB03F2BA4207D932
:100E50007F1903F1FF3160D2BA425ED9023B2F44C1
:100E6000BF1A43EA084390E7C8F1200203FA08FCDE
:100E700025FA02F343EA0C0C4FEA1C4921FA02F36B
:100E800001FA08F720FA02F2B3FBF9F1174309FB64
:100E900011333A0C1FFA8CFB42EA03430BFB01FAB5
:100EA0009A4505FA08F008D913EB0C0301F1FF325B
:100EB00035D29A4533D902396344CAEB0303B3FBF5
:100EC000F9F209FB1233BFB247EA03470BFB02F901
:100ED000B94508D917EB0C0702F1FF331BD2B9450E
:100EE00019D9023A674442EA0145A5FB0001C9EB62
:100EF00007078F424FF000030AD305D02A4620E7A8
:100F0000624601E73B4614E706FA08F68642F5D248
:100F10006A1E002315E71A46E5E70B46A0E71146CF
:100F2000CBE7904688E7434642460AE7023A53E752
:100F300002392F443CE700BF2DE9F00F1446054667
:100F40000E46002B43D18A4253D9B2FA82F757B1E9
:100F5000C7F1200620FA06F601FA07F302FA07F4B1
:100F60001E4300FA07F5210CB6FBF1F22B0C01FB36
:100F70001267A0B243EA074600FB02F3B34209D965
:100F8000361902F1FF3780F0F680B34240F2F38069
:100F9000023A2644F61AB6FBF1F3ADB201FB136137
:100FA00045EA014100FB03F0884208D9091903F121
:100FB000FF3680F0E280884240F2DF80023B43EA65
:100FC0000242002310461946BDE8F00F70478B42DD
:100FD0004AD8B3FA83F6002E4DD18B4202D3824217
:100FE00000F2D6800023012210461946BDE8F00F1A
:100FF000704712B90124B4FBF2F4B4FA84F2002A67
:101000007CD1091B260CA7B20123B1FBF6F02A0CF8
:1010100006FB101142EA014107FB00F28A4207D9A0
:10102000091900F1FF3C02D28A4200F2C3806046F7
:10103000891AB1FBF6F2ADB206FB121145EA014581
:1010400007FB02F7AF4208D92C1902F1FF3180F0FB
:101050009680A74240F29380023A42EA004210464C
:101060001946BDE8F00F704700231A46104619468E
:10107000BDE8F00F7047C6F1200522FA05F4B34031
:101080001C434FEA144821FA05F301FA06F720FA47
:1010900005F5B3FBF8FC2F4308FB1C333D0C1FFA8E
:1010A00084FA45EA03430AFB0CF9994502FA06FB68
:1010B00004D91B190CF1FF326DD39446C9EB03031D
:1010C000B3FBF8F508FB1533BFB247EA03470AFB49
:1010D00005F8B84504D93F1905F1FF3361D31D4622
:1010E00045EA0C4CACFB0B23C8EB07079F424FF0C3
:1010F000000549D345D062462B4663E79440C2F1D0
:10110000200321FA03FC260C20FA03F301FA02F56E
:10111000BCFBF6F843EA05010B0C06FB18CCA7B2A2
:1011200043EA0C4C07FB08F3634500FA02F509D9C2
:101130001CEB040C08F1FF323AD2634538D9A8F110
:101140000208A444C3EB0C0CBCFBF6F389B206FB0B
:1011500013CC41EA0C4107FB03F28A4207D9091973
:1011600003F1FF3022D28A4220D9023B2144891A5E
:1011700043EA084349E73A460CE733461FE70A4685
:101180006BE7B0409042B6D20CF1FF32002319E772
:101190003346324616E799458FD9ACF1020C234409
:1011A0008CE7B8459BD9023D274499E70346DEE723
:1011B0009046C7E7023821443AE700BF80B582B0C5
:1011C00000AF786039607B68012B10D13A684FF628
:1011D000FF739A420BD107483C2105F0EFF806480F
:1011E0003D2105F0EBF805483E2105F0E7F808370A
:1011F000BD4680BDE0080020FC0800201809002042
:1012000080B500AF01204FF6FF71FFF7D7FF80BD1B
:101210000FB480B400AF00231846BD465DF8047BD0
:1012200004B0704780B483B000AF786039603B6829
:101230005A687B685A603B689A687B689A603B682A
:10124000DA687B68DA603B681A697B681A613B6818
:101250005A697B685A617B6818460C37BD465DF851
:10126000047B704780B582B000AF786039607A68DF
:101270003B6810461946FFF7D5FF3B689A697B68C3
:101280009A617B6818460837BD4680BD90B58DB021
:1012900002AF78607B681B7883F00103DBB2002B20
:1012A00007D17B6804331846FFF7B2FF0346002BD3
:1012B00001D1012300E00023002B15D07B681C1D09
:1012C00007F10C031846202105F078F807F10C030C
:1012D00020461946FFF7C6FF7B68043318460121F4
:1012E0000122012305F09EF87B6801221A707B68B9
:1012F000202283F820207B68572283F821207B68F6
:1013000020337A6823320092012201926F481D2116
:101310001A46022305F074FD02467B681A637B6857
:101320001B6B002B03DA6A4804F0FEFDCAE07B6801
:10133000242283F820207B68F42283F821207B6814
:1013400020337A6823320092012201925F481D21E6
:101350001A46022305F054FD02467B681A637B6837
:101360001B6B002B03DA5A4804F0DEFDAAE07B6811
:101370000F2283F820207B6820337A682332009282
:101380000122019251481D211A46012305F038FD22
:1013900002467B681A637B681B6B002B04DB7B684F
:1013A00093F82330492B03D04A4804F0BDFD89E06F
:1013B0007B68252283F820207B68002283F8212087
:1013C0007B6820337A6823320092012201923F48E1
:1013D0001D211A46022305F013FD02467B681A639D
:1013E0007B681B6B002B03DA394804F09DFD69E034
:1013F0007B68262283F820207B68002283F8212046
:101400007B68203331481D211A46022305F0C4FCB5
:101410000346DB0FDBB2002B03D02C482E4905F02E
:10142000DBFB7B68232283F820207B68042283F87F
:1014300021207B68203325481D211A46022305F010
:10144000ABFC0346DB0FDBB2002B03D01F48224965
:1014500005F0C2FB7B68122283F820207B680922FA
:1014600083F821207B68203318481D211A46022367
:1014700005F092FC0346DB0FDBB2002B03D01348D0
:10148000154905F0A9FB7B680022A3F842207B6880
:101490000022A3F844207B680022A3F846207B6842
:1014A0000022A3F84E207B680022A3F850207B681E
:1014B0000022A3F852207B68002283F83A200748D4
:1014C00004F032FD2C37BD4690BD00BF980E0020C1
:1014D000D8190108F0190108A0860100081A0108AE
:1014E00080B584B002AF78607B6823331846002152
:1014F000062203F09BFD7B6820331846002103225F
:1015000003F094FD7B68A82283F820207B682033B9
:101510007A6823320092062201925C481D211A4605
:10152000012305F06DFC02467B681A637B681B6B28
:10153000002B09DA564804F0F7FC7B682333184681
:101540000021062203F072FD7B6893F824301B0211
:101550009AB27B6893F8233019467B68B3F842301F
:101560009BB2CB1A9BB29BB213439AB27B689A8709
:101570007B6893F826301B029AB27B6893F825307B
:1015800019467B68B3F844309BB2CB1A9BB29BB22E
:1015900013439AB27B68DA877B6893F828301B0282
:1015A0009AB27B6893F8273019467B68B3F84630C7
:1015B0009BB2CB1A9BB29BB213439AB27B68A3F83F
:1015C00040207B68882283F820207B6820337A685B
:1015D00023320092062201922C481D211A46012333
:1015E00005F00EFC02467B681A637B681B6B002BC0
:1015F00009DA284804F098FC7B6823331846002158
:10160000062203F013FD7B6893F824301B029AB284
:101610007B6893F8233019467B68B3F84E309BB251
:10162000CB1A9BB29BB213439AB27B68A3F84820B3
:101630007B6893F826301B029AB27B6893F82530BA
:1016400019467B68B3F850309BB2CB1A9BB29BB261
:1016500013439AB27B68A3F84A207B6893F828303A
:101660001B029AB27B6893F8273019467B68B3F85F
:1016700052309BB2CB1A9BB29BB213439AB27B6897
:10168000A3F84C200837BD4680BD00BF980E00204F
:10169000181A0108481A010880B485B000AFF86034
:1016A00079813A81FB807A89FB68A3F842203A89E4
:1016B000FB68A3F84420FA88FB68A3F84620FB687F
:1016C000012283F83A201437BD465DF8047B704749
:1016D00080B485B000AFF86079813A81FB807A8967
:1016E000FB68A3F84E203A89FB68A3F85020FA88DB
:1016F000FB68A3F85220FB68012283F83A201437D4
:10170000BD465DF8047B704780B483B000AF78605D
:101710007B68B3F8543018460C37BD465DF8047B3F
:10172000704700BF80B483B000AF78607B689B8F48
:101730009AB27B68B3F842309BB2D31A9BB29BB289
:101740001BB218460C37BD465DF8047B704700BFDE
:1017500080B483B000AF78607B68DB8F9AB27B681F
:10176000B3F844309BB2D31A9BB29BB21BB218465B
:101770000C37BD465DF8047B704700BF80B483B072
:1017800000AF78607B68B3F840309AB27B68B3F8FA
:1017900046309BB2D31A9BB29BB21BB218460C3791
:1017A000BD465DF8047B704780B483B000AF7860BD
:1017B0007B68B3F848309AB27B68B3F84E309BB27E
:1017C000D31A9BB29BB21BB218460C37BD465DF8CC
:1017D000047B704780B483B000AF78607B68B3F857
:1017E0004A309AB27B68B3F850309BB2D31A9BB29E
:1017F0009BB21BB218460C37BD465DF8047B7047A0
:1018000080B483B000AF78607B68B3F84C309AB294
:101810007B68B3F852309BB2D31A9BB29BB21BB217
:1018200018460C37BD465DF8047B704780B483B022
:1018300000AF78607B68B3F842301BB218460C37B3
:10184000BD465DF8047B704780B483B000AF78601C
:101850007B68B3F844301BB218460C37BD465DF8C0
:10186000047B704780B483B000AF78607B68B3F8C6
:1018700046301BB218460C37BD465DF8047B7047F6
:1018800080B483B000AF78607B68B3F84E301BB291
:1018900018460C37BD465DF8047B704780B483B0B2
:1018A00000AF78607B68B3F850301BB218460C3735
:1018B000BD465DF8047B704780B483B000AF7860AC
:1018C0007B68B3F852301BB218460C37BD465DF842
:1018D000047B704780B485B000AFF860B9607A606F
:1018E000FB6893ED017ABB68D3ED027A27EE277A85
:1018F000FB68D3ED026ABB68D3ED017A66EEA77A86
:1019000077EE677A7B68C3ED007AFB6893ED027A25
:10191000BB68D3ED007A27EE277AFB68D3ED006A27
:10192000BB68D3ED027A66EEA77A77EE677A7B68BA
:10193000C3ED017AFB6893ED007ABB68D3ED017AC1
:1019400027EE277AFB68D3ED016ABB68D3ED007AF6
:1019500066EEA77A77EE677A7B68C3ED027A143772
:10196000BD465DF8047B704780B483B000AF7860FB
:1019700039607B6893ED007A3B68D3ED007A27EEFF
:10198000277A7B68D3ED016A3B68D3ED017A66EE76
:10199000A77A37EE277A7B68D3ED026A3B68D3EDEE
:1019A000027A66EEA77A77EE277A17EE903A184613
:1019B0000C37BD465DF8047B704700BF80B584B02E
:1019C00000AF786078687968FFF7CEFF0346184665
:1019D000FEF742FD02460B46104619460BF012FF79
:1019E00002460B4610461946FFF76CF80346FB60AB
:1019F0007B6893ED007AD7ED037AC7EE277A7B6890
:101A0000C3ED007A7B6893ED017AD7ED037AC7EED8
:101A1000277A7B68C3ED017A7B6893ED027AD7ED74
:101A2000037AC7EE277A7B68C3ED027A1037BD468A
:101A300080BD00BF00000000B0B594B000AF78607A
:101A40007868FFF7B1FE034607EE103AF8EEC77A62
:101A5000C7ED0F7A7868FFF7BDFE034607EE103A30
:101A6000F8EEC77AC7ED107A7868FFF7C9FE03462B
:101A700007EE103AF8EEC77AC7ED117A7868FFF7EB
:101A800051FE034607EE103AF8EEC77AC7ED0C7A1E
:101A90007868FFF75DFE034607EE103AF8EEC77A66
:101AA000C7ED0D7A7868FFF769FE034607EE103A36
:101AB000F8EEC77AC7ED0E7A4FF000037B625A4BFF
:101AC000BB624FF00003FB6297ED0F7ADFED577AB0
:101AD00037EE277ADFED567AC7EE277A37EEA77A08
:101AE000F7EE007A77EE677AC7ED0F7A97ED107A06
:101AF000DFED507A37EE277ADFED4F7AC7EE277A9F
:101B000037EEA77AF7EE007A77EE677AC7ED107AAC
:101B100097ED117ADFED497A37EE277ADFED487AD3
:101B2000C7EE277A37EEA77AF7EE007A77EE677A74
:101B3000C7ED117A07F130031846FFF73FFF07F1B1
:101B40003C0107F1300207F11803084611461A4616
:101B5000FFF7C0FE07F118031846FFF72FFF07F144
:101B6000300107F1180207F10C03084611461A4626
:101B7000FFF7B0FE07F1180207F1240310461946DB
:101B8000FFF7F2FE03461846FEF766FC04460D46D4
:101B900007F10C0207F1240310461946FFF7E4FE93
:101BA00003461846FEF758FC02460B4620462946D7
:101BB0000BF026FE02460B46104619464FF0000277
:101BC000204BFEF79DFC02460B461046194614A317
:101BD000D3E90023FEF7BEFD02460B46C7E91223F8
:101BE000D7E912014FF000024FF00003FEF7FAFEB2
:101BF0000346002B0AD0D7E912014FF00002124B26
:101C0000FEF7CCFA02460B46C7E91223D7E91201C8
:101C1000FEF758FF034618465037BD46B0BD00BF1B
:101C2000182D4454FB210940000080BF00001644D9
:101C3000000053440000A54300406F44004024448A
:101C400000C06D440080664000807640AFF30080A5
:101C500090B58BB000AF78607B681B7883F0010390
:101C6000DBB2002B07D17B6804331846FFF7D0FAAC
:101C70000346002B01D1012300E00023002B15D0E7
:101C80007B681C1D07F10C031846122104F096FB1B
:101C900007F10C0320461946FFF7E4FA7B6804338A
:101CA000184601210122012304F0BCFB7B680122BC
:101CB0001A707B68202283F820207B680F2283F82B
:101CC00021207B6820333E486B211A46022305F011
:101CD00063F80346DB0FDBB2002B03D038483949E9
:101CE00004F07AFF7B68212283F820207B680022A1
:101CF00083F821207B68203331486B211A46022368
:101D000005F04AF80346DB0FDBB2002B03D02C486A
:101D10002C4904F061FF7B68222283F820207B6835
:101D2000882283F821207B68203325486B211A46BE
:101D3000022305F031F80346DB0FDBB2002B03D0A2
:101D40001F48204904F048FF7B68232283F82020A5
:101D50007B68202283F821207B681B4ADA637B683A
:101D6000203317486B211A46022305F015F8034665
:101D7000DB0FDBB2002B03D01148124904F02CFF1B
:101D80007B68242283F820207B68002283F82120AE
:101D90007B6820330A486B211A46022304F0FCFFBB
:101DA0000346DB0FDBB2002B03D00548054904F0E6
:101DB00013FF064804F0B8F82C37BD4690BD00BFAD
:101DC000980E0020A0860100295C8F3D781A01083A
:101DD00080B485B000AFF86079813A81FB807A8960
:101DE000FB68A3F846203A89FB68A3F84820FA88E4
:101DF000FB68A3F84A201437BD465DF8047B7047A2
:101E000080B584B002AF78607B6823331846002128
:101E1000062203F00BF97B682033184600210322C9
:101E200003F004F97B68A82283F820207B68203324
:101E30007A6823320092062201922C486B211A46BE
:101E4000012304F0DDFF02467B681A637B681B6B8D
:101E5000002B09DA264804F067F87B68233318461C
:101E60000021062203F0E2F87B6893F824301B027D
:101E70009AB27B6893F8233019467B68B3F84630F2
:101E80009BB2CB1A9BB29BB213439AB27B68A3F866
:101E900040207B6893F826301B029AB27B6893F847
:101EA000253019467B68B3F848309BB2CB1A9BB2F9
:101EB0009BB213439AB27B68A3F842207B6893F8E5
:101EC00028301B029AB27B6893F8273019467B684A
:101ED000B3F84A309BB2CB1A9BB29BB213439AB26F
:101EE0007B68A3F844200837BD4680BD980E0020CB
:101EF000A81A010880B483B000AF78607B68B3F89B
:101F000040301BB206EE903AB8EEE67ADFED0F7A7B
:101F100037EE277A7B68D3ED0F7A27EE277A7B6836
:101F2000B3F846301BB206EE903AF8EEE67A77EE5A
:101F3000677AFDEEE77A17EE903A9BB21BB218462D
:101F40000C37BD465DF8047B704700BFE8F40A41DA
:101F500080B483B000AF78607B68B3F842301BB2C6
:101F600006EE903AB8EEE67ADFED0F7A37EE277A92
:101F70007B68D3ED0F7A27EE277A7B68B3F8483079
:101F80001BB206EE903AF8EEE67A77EE677AFDEE4F
:101F9000E77A17EE903A9BB21BB218460C37BD4653
:101FA0005DF8047B704700BFE8F40A4180B483B059
:101FB00000AF78607B68B3F844301BB206EE903A0D
:101FC000B8EEE67ADFED0F7A37EE277A7B68D3ED4D
:101FD0000F7A27EE277A7B68B3F84A301BB206EEF9
:101FE000903AF8EEE67A77EE677AFDEEE77A17EE4A
:101FF000903A9BB21BB218460C37BD465DF8047B85
:10200000704700BFE8F40A4180B483B000AF786045
:102010007B68B3F846301BB218460C37BD465DF8F6
:10202000047B704780B483B000AF78607B68B3F8FE
:1020300048301BB218460C37BD465DF8047B70472C
:1020400080B483B000AF78607B68B3F84A301BB2CD
:1020500018460C37BD465DF8047B704780B582B0EA
:1020600000AF78607B680A4A1A600A4802F032FFC3
:102070007B680433184602F0ADFF0023002B02D02A
:10208000786803F085F87B6818460837BD4680BD40
:1020900000290108D81A010880B582B000AF786025
:1020A0007868FFF7DBFF786803F072F87B68184602
:1020B0000837BD4680BD00BF80B582B000AF7860F4
:1020C0007B6804331846002104F078F97B681846D1
:1020D0000837BD4680BD00BF80B582B000AF7860D4
:1020E0007B6804331846002104F068F97B681846C1
:1020F0000837BD4680BD00BF80B584B000AFF86032
:10210000B960C7E90023FB681846B96864224FF438
:10211000FA630AF085FBFB68104A1A60FB685833C3
:102120001846002104F04AF9FB6874331846002170
:1021300004F044F9FB6890331846FFF7BDFFFB68D5
:10214000DC331846FFF7C8FFF968D7E90023C1E977
:102150001423FB6818461037BD4680BDE8280108E7
:1021600080B582B000AF786039603B681A787B68D0
:102170001A707B681A1D3B68043310461946FFF736
:1021800071F87B683A682033203212681146198052
:102190000233120C1A707B683A68233323321168B9
:1021A000196092889A807B683A682A332A321168CB
:1021B000196092889A807B683A683033303292E8AE
:1021C000030083E803003B681A8F7B681A873B682B
:1021D000DA6B7B68DA633B68B3F840207B68A3F86E
:1021E00040203B68B3F842207B68A3F842203B685C
:1021F000B3F844207B68A3F844203B68B3F846203A
:102200007B68A3F846203B68B3F848207B68A3F8B6
:1022100048203B68B3F84A207B68A3F84A207B68D3
:1022200018460837BD4680BD80B582B000AF7860E3
:1022300039603B681A787B681A707B681A1D3B68A6
:10224000043310461946FFF70DF87B683A682033CF
:1022500020321268114619800233120C1A707B6802
:102260003A68233323321168196092889A807B6818
:102270003A682A332A321168196092889A807B68FA
:102280003A683033303292E8030083E803003B6859
:102290001A8F7B681A873B6893F83A207B6883F82B
:1022A0003A203B689A8F7B689A873B68DA8F7B6815
:1022B000DA873B68B3F840207B68A3F840203B688E
:1022C000B3F842207B68A3F842203B68B3F844206F
:1022D0007B68A3F844203B68B3F846207B68A3F8EA
:1022E00046203B68B3F848207B68A3F848203B6849
:1022F000B3F84A207B68A3F84A203B68B3F84C2027
:102300007B68A3F84C203B68B3F84E207B68A3F8A9
:102310004E203B68B3F850207B68A3F850203B6800
:10232000B3F852207B68A3F852203B68B3F85420DE
:102330007B68A3F854207B6818460837BD4680BDEB
:1023400090B5B5B000AF78607B6803F1580407F131
:102350000C031846372104F031F807F10C0320462E
:102360001946FEF77FFF7B6858331846012101228A
:10237000012304F057F82548254904F02DFCC7F83F
:10238000CC00D7F8CC30002B03D1224803F0CCFD91
:1023900002E0214803F0C8FD7B6803F1900407F1D7
:1023A00028024C23104600211A4602F03FFE07F196
:1023B00028031846FFF780FE07F128032046194638
:1023C000FFF7CEFE7B6890331846FFF741FC7B6831
:1023D00003F1DC0407F174025823104600211A4669
:1023E00002F024FE07F174031846FFF775FE07F1AB
:1023F000740320461946FFF717FF7B68DC33184645
:10240000FEF744FFD437BD4690BD00BF980E0020B4
:10241000A0860100E81A01080C1B0108B0B58CB0B9
:1024200000AF78600023FB620023BB6200237B6265
:1024300000233B620023FB610023BB6100237B611F
:1024400000233B610023FB600023FB726AE07B6892
:1024500090331846FFF7D4FC7B6890331846FFF79B
:1024600049FD0346FA6A1344FB627B6890331846C1
:10247000FFF76EFD0346BA6A1344BB627B68903374
:102480001846FFF793FD03467A6A13447B627B6824
:10249000DC331846FFF724F87B68DC331846FFF777
:1024A00041F903463A6A13443B627B68DC331846C1
:1024B000FFF74EF90346FA691344FB617B68DC338E
:1024C0001846FFF75BF90346BA691344BB617B68A2
:1024D000DC331846FFF768F903467A6913447B61D9
:1024E0007B68DC331846FFF775F903463A691344F5
:1024F0003B617B68DC331846FFF782F90346FA68D4
:102500001344FB6002F0B4FF5A4A4FF00003121864
:1025100043EB01031046194600220AF0D1FAFB7A78
:102520000133FB72FB7A632B91D97B6803F1900036
:10253000FB6A514A82FB03125211DB17D31A99B27C
:10254000BB6A4D4A82FB03C25211DB17D31A9AB2FF
:102550007B6A494C84FB03C46411DB17E31A9BB20A
:10256000FFF736FC7B6803F1DC003B6A424A82FBE2
:1025700003125211DB17D31A99B2FB693E4A82FB50
:1025800003C25211DB17D31A9AB2BB693A4C84FBCF
:1025900003C46411DB17E31A9BB2FFF77DF87B6875
:1025A00003F1DC007B69344A82FB03125211DB1712
:1025B000D31A99B23B69304A82FB03C25211DB172E
:1025C000D31A9AB2FB682C4C84FB03C46411DB174A
:1025D000E31A9BB2FFF77CF87B6890331846FFF74D
:1025E00013FD03461D467B6890331846FFF71AFD1E
:1025F00003461C467B6890331846FFF721FD0346CF
:102600001E482946224603F08FFC7B68DC331846BF
:10261000FFF70CF903461D467B68DC331846FFF7CD
:1026200013F903461C467B68DC331846FFF71AF99A
:10263000034613482946224603F076FC7B68DC33C8
:102640001846FFF71DF903461D467B68DC33184624
:10265000FFF724F903461C467B68DC331846FFF776
:102660002BF9034607482946224603F05DFC303724
:10267000BD46B0BD809698001F85EB51501B0108E8
:102680006C1B0108881B010880B584B000AFF8609E
:10269000C7E90023F968D7E90023C1E91423FB68DF
:1026A000D3E91423024803F03FFC1037BD4680BD38
:1026B000A41B010880B58AB000AF786002F0D8FE94
:1026C00002460B46104619467B68D3E914231218BC
:1026D00043EB01031046194600220AF0F1F97B682A
:1026E00090331846FFF78CFB7B6890331846FFF752
:1026F00001FC03463B847B6890331846FFF728FCB7
:1027000003467B847B6890331846FFF74FFC0346F3
:10271000BB84534B1B78002B08D03B8C19B27B8CAD
:102720001AB2BB8C1BB24F4803F0FEFB7B68DC3354
:102730001846FEF7D5FE7B68DC331846FEF7F2FF3D
:1027400003463B837B68DC331846FFF701F80346FA
:102750007B837B68DC331846FFF710F80346BB83A6
:102760003F4B1B78002B08D03B8B19B27B8B1AB2E6
:10277000BB8B1BB23C4803F0D7FB7B68DC331846AD
:10278000FFF712F803463B827B68DC331846FFF7FD
:1027900021F803467B827B68DC331846FFF730F86C
:1027A0000346BB822E4B1B78002B08D03B8A19B204
:1027B0007B8A1AB2BB8A1BB22C4803F0B5FB7B683C
:1027C000DC331846FFF738F90346BB607B68DC331F
:1027D0001846FEF799FF034607EE103AF8EE477ADF
:1027E000C7ED037A07F1180321481946012200F0CA
:1027F0007DF807F120031F481946012200F076F802
:1028000007F110031C481946012200F06FF807F188
:1028100008031A481946012200F07CF807F10C035E
:1028200017481946012200F075F80D4B1B78002B54
:1028300008D0BB681846FDF70FFE02460B4611484C
:1028400003F072FB064B1B78002B08D0FB68184680
:10285000FDF702FE02460B460B4803F065FB2DE731
:10286000A0120020C01B0108D01B0108E01B0108BA
:10287000340900207C09002058090020C4090020E8
:10288000A0090020F01B0108FC1B010880B584B0E2
:1028900000AFF860B9607A60FB681846B968062234
:1028A0007B6802F051FEFB68034A1A60FB68184619
:1028B0001037BD4680BD00BFD828010880B584B060
:1028C00000AFF860B9607A60FB681846B968042206
:1028D0007B6802F039FEFB68034A1A60FB68184601
:1028E0001037BD4680BD00BFC828010880B584B040
:1028F00000AFF860B9601346FB71FA68FB791046C7
:10290000B9681A46002302F08FFE034618461037B6
:10291000BD4680BD80B584B000AFF860B960134695
:10292000FB71FA68FB791046B9681A46002302F079
:102930007BFE034618461037BD4680BD80B582B089
:1029400000AF78607B68084A1A607B68184609F017
:10295000D5FF0023002B02D0786802F019FC7B68B9
:1029600018460837BD4680BDE828010880B582B00A
:1029700000AF78607868FFF7E1FF786802F008FC44
:102980007B6818460837BD4680BD00BF80B582B061
:1029900000AF786039607B68012B3BD13A684FF615
:1029A000FF739A4236D11D484FF0FF311C4AFFF7A2
:1029B0006DFF1A481B491C4A0BF008FB1B484FF0DF
:1029C000FF311B4AFFF762FF18481649164A0BF001
:1029D000FDFA18484FF0FF31174AFFF757FF154827
:1029E0001049114A0BF0F2FA14484FF0FF31144A23
:1029F000FFF764FF114813490B4A0BF0E7FA12483E
:102A00004FF0FF31114AFFF759FF0F480D49064AB1
:102A10000BF0DCFA0837BD4680BD00BF340900204A
:102A2000081C0108AD2A0008641500205809002080
:102A3000181C01087C090020281C0108A00900209E
:102A4000301C0108512A0008C40900203C1C010860
:102A500080B582B000AF78607B680A4A1A600A4885
:102A600002F038FA7B681846FFF7F8FA0023002BCB
:102A700002D0786802F08CFB7B6818460837BD46A8
:102A800080BD00BFC8280108481C010880B582B07D
:102A900000AF78607868FFF7DBFF786802F078FBBA
:102AA0007B6818460837BD4680BD00BF80B582B040
:102AB00000AF78607B680A4A1A600A4802F00AFA96
:102AC0007B681846FFF7CAFA0023002B02D078680B
:102AD00002F05EFB7B6818460837BD4680BD00BF2C
:102AE000D8280108481C010880B582B000AF786082
:102AF0007868FFF7DBFF786802F04AFB7B681846CE
:102B00000837BD4680BD00BF80B500AF01204FF63D
:102B1000FF71FFF73BFF80BD80B584B000AFF86068
:102B2000B9607A60FB681846174964224FF4FA636B
:102B300009F076FEFB68154A1A60FB687A681A6528
:102B4000D7E906230CA1D1E90001994208BF9042C0
:102B500006D3F9680AA3D3E90023C1E9162304E0E8
:102B6000F968D7E90623C1E91623FB681846103730
:102B7000BD4680BDAFF30080FFE0F505000000001A
:102B800000E1F50500000000681C0108202901088B
:102B900080B58AB002AF78607B681B6D1846254906
:102BA00004F01AF8F861FB69002B03D1224803F006
:102BB000BBF902E0214803F0B7F900233B7503237A
:102BC0007B7500233B747B681A6D07F1140307F1D2
:102BD0001001009101210191104629211A4602237A
:102BE00004F00EF9B8611648B96903F09DF93B7C11
:102BF0001A463B7C032B14BF00230123DBB2114890
:102C00001146032203F090F981233B7300237B7369
:102C10007B681A6D07F10C03104629211A4602231E
:102C200004F0BAF8B8610848B96903F07DF92037B3
:102C3000BD4680BDA0860100781C0108981C0108D3
:102C4000A81C0108D01C0108F81C010880B58CB034
:102C500002AF78600023FB6100233B6200233B83CB
:102C60000023BB820023FB840023BB84AC233B7482
:102C7000AE233B730023BB6002F0FAFB02460B4617
:102C8000104619467B68D3E91623121843EB01035B
:102C900010461946002209F013FF7B681A6D07F1F0
:102CA000100307F11801009102210191104629211A
:102CB0001A46012304F0A4F80346FB617B681A6DF1
:102CC00007F10C0307F11401009102210191104654
:102CD00029211A46012304F093F803463B623B6A1C
:102CE000002B27DDFB69002B24D03B7E1B029AB210
:102CF0007B7E1344FB843B7D1B029AB27B7D134495
:102D0000BB84FA8CBB8C786811461A4600F01AF81E
:102D10000346BB6007F1080307481946012200F08B
:102D2000D5F8064B1B78002B04D0BB680448194625
:102D300003F0FAF8A0E700BFE8090020A012002085
:102D4000181D010880B48DB000AF786013460A46A4
:102D50007A803B8047F217533B627B883A6A02FBDA
:102D600003F39B0AFB613B883A6A02FB03F39B0A6D
:102D7000BB610023FB62FB69002B05D0BB699A0293
:102D8000FB69B2FBF3F3FB62FB6A01335B087B6117
:102D90007B69432B06D84FF40173BB6240F2AD133D
:102DA0007B6247E07B69852B06D84FF40A73BB62D0
:102DB00040F2C1237B623DE07B69C82B06D840F21C
:102DC0005323BB6240F263337B6233E07B69B3F52C
:102DD000857F06D840F28223BB6240F2DF337B62FC
:102DE00028E07B69B3F5A77F06D240F27713BB6278
:102DF00040F2DD137B621DE07B69B3F5CD7F06D821
:102E000040F20113BB6240F227137B6212E07A6941
:102E100040F29A239A4204D83723BB622B237B6269
:102E200008E07A6940F29A239A4203D90023BB62F0
:102E300000237B62FB69BA6A02FB03F2BB69796A11
:102E400001FB03F3D31A3B613B6903F500533B617C
:102E50003B699B0BFB60FB6818463437BD465DF849
:102E6000047B704780B584B000AFF860C7E90023E9
:102E7000F968D7E90023C1E91623064B1B78002B1C
:102E800005D0FB68D3E91623034803F04DF810374B
:102E9000BD4680BD00000020241D010880B584B01F
:102EA00000AFF860B9607A60FB681846B968042220
:102EB0007B6802F049FBFB68034A1A60FB6818460E
:102EC0001037BD4680BD00BF1029010880B584B011
:102ED00000AFF860B9601346FB71FA68FB791046E1
:102EE000B9681A46002302F09FFB034618461037C4
:102EF000BD4680BD80B582B000AF78607B68084A6F
:102F00001A607B68184609F0F9FC0023002B02D0F8
:102F1000786802F03DF97B6818460837BD4680BDE9
:102F20002029010880B582B000AF78607868FFF78B
:102F3000E1FF786802F02CF97B6818460837BD4637
:102F400080BD00BF80B582B000AF786039607B681B
:102F5000012B0FD13A684FF6FF739A420AD1074806
:102F60004FF0FF31064AFFF799FF04480549064A2A
:102F70000BF02CF80837BD4680BD00BFE8090020E3
:102F8000481D01088D2F00086415002080B582B00F
:102F900000AF78607B680A4A1A600A4801F09AFF1D
:102FA0007B681846FFF75AF80023002B02D0786898
:102FB00002F0EEF87B6818460837BD4680BD00BFBA
:102FC00010290108541D010880B582B000AF786057
:102FD0007868FFF7DBFF786802F0DAF87B6818465C
:102FE0000837BD4680BD00BF80B500AF01204FF659
:102FF000FF71FFF7A7FF80BD80B582B000AF78609A
:10300000124801210122012303F00CFA104801218A
:103010000122002303F006FA0E48002101220023BA
:1030200003F000FA0C4801210122002303F0FAF911
:103030000A484FF47A71642204F034FC07483221C4
:1030400005F092F80837BD4680BD00BF0C0A00208D
:10305000280A0020440A0020600A00207C0A002080
:1030600080B582B000AF78600448012103F0E8FA2F
:10307000034B01221A700837BD4680BD600A00204C
:10308000980A002080B582B000AF78600648002121
:1030900003F0D6FA054B00221A70054802F044FFEF
:1030A0000837BD4680BD00BF600A0020980A002096
:1030B000641D010880B582B000AF78600B46FB70DC
:1030C000FB78642B00D91DE0FB78002B02D17868D7
:1030D000FFF7D8FF0D4B1B7883F00103DBB2002B09
:1030E00002D07868FFF7BCFFFB780948194605F065
:1030F0003BF8084B1B78002B04D0FB780648194698
:1031000002F012FF0837BD4680BD00BF980A0020BC
:103110007C0A002000000020701D010880B582B0EC
:1031200000AF786039607B68012B18D13A684FF6A0
:10313000FF739A4213D10B48242103F03FF90A4848
:10314000112103F03BF909483C2103F037F9084805
:10315000422103F033F907480C2104F079FB0837CA
:10316000BD4680BD0C0A0020280A0020440A002029
:10317000600A00207C0A002080B500AF01204FF6D5
:10318000FF71FFF7CBFF80BD80B582B000AF7860E4
:1031900039607B681846396864224FF4FA6309F095
:1031A0003FFB7B68034A1A607B6818460837BD46B8
:1031B00080BD00BF3829010880B582B000AF7860BB
:1031C0007B6850331846FFF717FF054B1B78002B21
:1031D00002D0044802F0A8FE0837BD4680BD00BFFB
:1031E00000000020B01D010880B582B000AF7860FB
:1031F0004FF0FF306FF00041002209F061FCF7E76B
:1032000080B582B000AF78600B46FB707B6803F13D
:103210005002FB7810461946FFF74CFF0837BD46B1
:1032200080BD00BF80B582B000AF78607B68084A7F
:103230001A607B68184609F061FB0023002B02D05E
:10324000786801F0A5FF7B6818460837BD4680BD49
:103250003829010880B582B000AF78607868FFF740
:10326000E1FF786801F094FF7B6818460837BD4697
:1032700080BD00BF80B584B000AFF860B9607A60EF
:10328000FB681846B96801227B6802F05DF9FB68AB
:10329000034A1A60FB6818461037BD4680BD00BF60
:1032A0005029010880B582B000AF786039607B6832
:1032B000012B0FD13A684FF6FF739A420AD10748A3
:1032C00048F20771064AFFF7D5FF04480549064A48
:1032D0000AF07CFE0837BD4680BD00BF9C0A002076
:1032E000D01D0108ED3200086415002080B582B0C1
:1032F00000AF78607B680A4A1A600A4801F0EAFD6C
:103300007B681846FEF7AAFE0023002B02D07868DF
:1033100001F03EFF7B6818460837BD4680BD00BF00
:1033200050290108DC1D010880B582B000AF78602B
:103330007868FFF7DBFF786801F02AFF7B681846A2
:103340000837BD4680BD00BF80B500AF01204FF6F5
:10335000FF71FFF7A7FF80BD80B582B000AF786036
:103360007B680A4A1A600A4801F0B4FD7B6804339E
:10337000184601F02FFE0023002B02D0786801F0E0
:1033800007FF7B6818460837BD4680BDB82A01088C
:10339000FC1D010880B582B000AF78607868FFF747
:1033A000DBFF786801F0F4FE7B6818460837BD46FD
:1033B00080BD00BF80B582B000AF78607B68064AF0
:1033C0001A600023002B02D0786801F0E1FE7B68D0
:1033D00018460837BD4680BDA029010880B582B0D7
:1033E00000AF78607868FFF7E5FF786801F0D0FEFD
:1033F0007B6818460837BD4680BD00BF80B584B0E5
:1034000000AFF860B9607A603B60044801F062FD8B
:10341000002318461037BD4680BD00BF101E0108AE
:1034200080B584B000AFF860B9607A60FB68184678
:10343000B96864224FF4FA6309F0F2F9FB68074AAD
:103440001A60F968D7E90623C1E91623FB687A6890
:103450001A65FB6818461037BD4680BD88290108EB
:1034600080B582B000AF78607B681B6D18464FF462
:10347000E13105F08DFB0837BD4680BD80B5C8B091
:1034800002AF3B1D18600023C7F814313B1D1968BB
:103490003B1D1B68D3E91623CDE9002308464FF0F6
:1034A00000024FF0000301F063FF3EE03B1D1B688C
:1034B0001B6D1B6818331B683A1D1268126D10468D
:1034C00098470346002B21D03B1D1B681A6D07F15E
:1034D0000803104619464FF4807205F0B9FBC7F88F
:1034E0001401391D07F1080207F5847308681146B5
:1034F000D7F8142100F02AF80346002B06D007F570
:10350000847310481946012200F08CF80E4800F030
:103510009DF8034683F00103DBB2002B05D007F5CD
:1035200084730948194600F0A7F83B1D1B6818462C
:1035300001F034FF0123002BB8D107F58C77BD468D
:1035400080BD00BFC00A0020080B002080B584B0F9
:1035500000AFF860B9607A603B607B68062B07DCDF
:10356000B86801F045FD0346062B01D8002311E0A1
:103570003B6818460949BA680AF038FD3B68996803
:10358000BB689A1D7B68063B084611461A4601F047
:1035900099FD012318461037BD4680BD981E0108CD
:1035A00080B584B000AFF860B9607A60FB681846F7
:1035B000B9680C227B6801F0C7FFFB68034A1A60F8
:1035C000FB6818461037BD4680BD00BF782901084A
:1035D00080B483B000AF78607B68044A1A607B686F
:1035E00018460C37BD465DF8047B7047A0290108DA
:1035F00080B582B000AF78607B681846FFF7E8FFBF
:103600007B68074A1A607B680022C3F808237B683E
:103610000022C3F804237B6818460837BD4680BDE6
:103620006029010880B584B000AFF860B960134626
:10363000FB71FA68FB791046B9681A46002301F05D
:10364000F3FF034618461037BD4680BD80B483B0F3
:1036500000AF78607B68D3F808237B68D3F8043325
:103660009A4214BF00230123DBB218460C37BD4633
:103670005DF8047B704700BF80B582B000AF786012
:1036800039607B68D3F808237B68D3F804339A4207
:1036900014BF00230123DBB2002B01D000231AE06A
:1036A0007B68D3F808233968786813465B001344B5
:1036B0009B00C2180B46043207CA83E807007B68E8
:1036C000D3F808337868194600F00AF802467B6898
:1036D000C3F80823012318460837BD4680BD00BF44
:1036E00080B483B000AF786039603B683E2B02DC69
:1036F0003B68013300E0002318460C37BD465DF8F7
:10370000047B704780B582B000AF78607B68084A60
:103710001A607B681846FFF74DFE0023002B02D08D
:10372000786801F035FD7B6818460837BD4680BDD6
:103730006029010880B582B000AF78607868FFF733
:10374000E1FF786801F024FD7B6818460837BD4624
:1037500080BD00BF80B582B000AF78607B68084A4A
:103760001A607B68184609F0C9F80023002B02D0C4
:10377000786801F00DFD7B6818460837BD4680BDAE
:103780008829010880B582B000AF78607868FFF7BB
:10379000E1FF786801F0FCFC7B6818460837BD46FD
:1037A00080BD00BF80B584B002AF786039607B68AF
:1037B000012B2FD13A684FF6FF739A422AD117484E
:1037C0004FF0FF31164AFFF7EBFE14481549164A31
:1037D0000AF0FCFB15484FF0FF31154AFFF7E0FEF9
:1037E00012481049104A0AF0F1FB1248FFF700FF97
:1037F000104811490C4A0AF0E9FB002300930F48D6
:103800000A490C4A0E4B01F0CDFC0C480D49064A02
:103810000AF0DCFB0837BD4680BD00BFC00A0020AF
:10382000B81E01087D38000864150020E40A002055
:10383000BC1E0108080B002005370008140E0020EC
:10384000C01E01085933000880B584B000AFF8608D
:10385000B9607A603B607B680C2B04D9064801F0A4
:1038600039FB002304E0F868396800F035F80346B6
:1038700018461037BD4680BDC81E010880B582B00D
:1038800000AF78607B680A4A1A600A4801F022FBA0
:103890007B681846FEF7E2FB0023002B02D0786815
:1038A00001F076FC7B6818460837BD4680BD00BF36
:1038B00078290108D81E010880B582B000AF786071
:1038C0007868FFF7DBFF786801F062FC7B681846D8
:1038D0000837BD4680BD00BF80B584B000AF7860BA
:1038E00039607B68D3F8043378681946FFF7F8FE2F
:1038F000F8607B68D3F80823FB689A4214BF002362
:103900000123DBB2002B01D0002312E07B68D3F847
:103910000423796813465B0013449B000B443A6808
:10392000043307CA83E807007B68FA68C3F80423F6
:10393000012318461037BD4680BD00BF80B500AFDB
:1039400001204FF6FF71FFF72DFF80BD80B582B0DB
:1039500000AF78607B68084A1A607B68184608F0F8
:10396000CDFF0023002B02D0786801F011FC7B68AA
:1039700018460837BD4680BD682A010880B582B068
:1039800000AF78607868FFF7E1FF786801F000FC2D
:103990007B6818460837BD4680BD00BF80B582B041
:1039A00000AF78607B680C4A1A607B680B4A1A6526
:1039B0007B6850331846FFF7CFFC7B68184608F049
:1039C0009DFF0023002B02D0786801F0E1FB7B68AB
:1039D00018460837BD4680BDE8290108042A0108B9
:1039E000A0F15000FFF7DABF80B582B000AF786079
:1039F0007868FFF7D3FF786801F0CAFB7B68184648
:103A00000837BD4680BD00BFA0F15000ECE700BF05
:103A100080B582B000AF78607B68084A1A607B6826
:103A2000184608F06BFF0023002B02D0786801F0E5
:103A3000AFFB7B6818460837BD4680BDB829010832
:103A400080B582B000AF78607868FFF7E1FF7868F2
:103A500001F09EFB7B6818460837BD4680BD00BF5D
:103A600080B584B002AF786039607B68012B73D178
:103A70003A684FF6FF739A426ED13F483F4940F291
:103A8000D17201F0F7F83C483D493E4A0AF09EFAEF
:103A90003D48032104F008FE3C48032102F0B4FF36
:103AA0003B48022102F0B0FF2DA3D3E90023CDE96A
:103AB000002338483849344AFFF7B2FC35483749C3
:103AC000304A0AF083FA3648364927A3D3E900235F
:103AD000FEF712FB324834492A4A0AF077FA20A34B
:103AE000D3E90023CDE9002330483149274AFFF7C5
:103AF00013F82E482F49234A0AF068FA2E482F4916
:103B0000FFF742FB2C482E491E4A0AF05FFA2D4867
:103B10002D4917A3D3E9002300F04AFC29482B497B
:103B2000184A0AF053FA244B0093294829491C4AA1
:103B30001E4B00F0C3F826482749124A0AF046FAFD
:103B40002648274906A3D3E9002300F055F8234867
:103B500024490C4A0AF03AFA0837BD4680BD00BF36
:103B600000E1F505000000000065CD1D000000002B
:103B700000CA9A3B00000000440E0020FC1E010811
:103B8000B54C000864150020600E00207C0E00205B
:103B9000980E0020B80E0020081F010855370008B5
:103BA000180F0020141F01083D29000850100020A4
:103BB000181F0108F52E0008B0100020241F01086E
:103BC0002532000808110020301F01084D39000877
:103BD000681100203C1F01089D390008F8110020E1
:103BE000481F0108113A000880B500AF01204FF6C8
:103BF000FF71FFF735FF80BD80B584B000AFF8607E
:103C0000B960C7E90023FB681846B96864224FF41D
:103C1000FA6308F005FEFB68134A1A60D7E900232F
:103C20000DA1D1E90001994208BF904206D3F9687D
:103C30000BA3D3E90023C1E9142304E0F968D7E911
:103C40000023C1E91423FB68002283F85820FB6895
:103C500018461037BD4680BDFFE0F50500000000A6
:103C600000E1F50500000000B8290108AFF300806D
:103C700080B483B000AF78600C37BD465DF8047B3C
:103C8000704700BF80B582B000AF786001F0F0FBF4
:103C900002460B46104619467B68D3E914231218D6
:103CA00043EB010310461946002208F009FF0248C1
:103CB00000F0A6FCEAE700BF0811002080B584B040
:103CC00000AFF860B9607A603B60FB681846124943
:103CD00064224FF4FA6308F0A3FDFB6850331846E2
:103CE0000E49BA6801F090FAFB680D4A1A60FB6849
:103CF0000C4A1A65FB687A68C3F88020FB683A684A
:103D0000C3F88420FB68BA69C3F88820FB681846AA
:103D10001037BD4680BD00BFEC1F0108C00A00205F
:103D2000E8290108042A010880B584B000AFF860D2
:103D3000B9607A603B600648396800F063FAFB6856
:103D4000184608F0A1FE012318461037BD4680BD75
:103D500058120020A0F15000FFF7E6BF80B483B0F6
:103D600000AF78600C37BD465DF8047B704700BF3C
:103D700080B586B000AF78604FF0FF306FF0004143
:103D8000002208F09DFE07F10C030C48194600F0D4
:103D900067FA07F10C037868194600F011F8002360
:103DA00007F118021A44002102F80C1C052B01D05F
:103DB0000133F5E700237B61DEE700BF58120020E6
:103DC0002DE9904F8BB000AF78623962A94B1B7818
:103DD000002B07D03A6A3B6A9B68A74811461A46EF
:103DE00002F0A2F8786A396AA44A00F0C7F90346DB
:103DF000002B0ED07B6AD3F888403B6A9B6818463C
:103E00000AF0EAF80346DBB220461946FFF7F8F954
:103E10009EE1786A396A9A4A00F0B0F90346002BAD
:103E200003D0984802F080F892E1786A396A964A9D
:103E300000F0A4F90346002B03D0924802F074F876
:103E400086E1786A396A914A00F098F90346002BB6
:103E500047D07B6AD3F880403B6A9B6818460AF0DB
:103E6000BBF8034618464FEAE07102460B464FEA9C
:103E7000432CC7F81CC0D7F81CC04CEAD25CC7F86A
:103E80001CC04FEA422CC7F818C0D7E906234FEAF6
:103E9000431B4BEAD26B4FEA421ABAEB020A6BEBB6
:103EA000030B1AEB000A4BEB010B4FEA8B127A6102
:103EB0007B6943EA9A637B614FEA8A1CC7F810C0AA
:103EC000D7E90423B2EB0A0263EB0B03C7E904232F
:103ED000D7E90423121843EB01032046FEF7D4FB75
:103EE00036E1786A396A6A4A00F048F90346002BDD
:103EF00047D07B6AD3F884403B6A9B6818460AF037
:103F00006BF8034618464FEAE07102460B464FEA4B
:103F1000432CC7F80CC0D7F80CC04CEAD25CC7F8E9
:103F20000CC04FEA422CC7F808C0D7E902234FEA79
:103F3000431949EAD2694FEA4218B8EB020869EB23
:103F4000030918EB000849EB01094FEA89127A606E
:103F50007B6843EA98637B604FEA881CC7F800C01F
:103F6000D7E90023B2EB080263EB0903C7E900239A
:103F7000D7E90023121843EB01032046FEF772FF36
:103F8000E6E0786A396A434A00F0F8F80346002B05
:103F90000BD07B6AD3F880301B680C331B687A6ABD
:103FA000D2F8802010469847D2E0786A396A3A4AB7
:103FB00000F0E4F80346002B06D07B6AD3F880308B
:103FC0001846FEF72BFAC3E0786A396A334A00F0E4
:103FD000D5F80346002B0BD07B6AD3F888301B68DA
:103FE0000C331B687A6AD2F8882010469847AFE0F5
:103FF000786A396A2A4A00F0C1F80346002B0FD0CC
:104000004FF0FF306FF00041002208F059FD194BCE
:104010001B78002B00F09C80224801F085FF97E080
:10402000786A396A204A00F0A9F80346002B0ED0BE
:104030007B6AD3F88430184608F026FD0D4B1B78B8
:10404000002B00F08580194801F06EFF80E0786A4F
:10405000396A174A00F092F80346002B2ED0154813
:1040600000F0C0FA034B1B78002B71D0124801F00E
:104070005BFF6DE000000020FC1F01081420010818
:104080001C200108242001083020010838200108E4
:10409000402001084820010850200108582001084C
:1040A000602001086820010880200108882001089C
:1040B000A020010808110020A8200108786A396AA8
:1040C000254A00F05BF80346002B0AD0234800F095
:1040D0007BFA234B1B78002B3AD0224801F024FFB7
:1040E00036E0786A396A204A00F048F80346002B27
:1040F0000FD0786A396A1D4A00F056F80346002B43
:1041000003D01B4B01221A7022E0194B00221A70B7
:104110001EE0786A396A174A00F030F80346002B2F
:104120000FD0786A396A114A00F03EF80346002B36
:1041300003D00B4B01221A700AE0094B00221A70BF
:1041400006E0074B1B78002B02D00B4801F0ECFE79
:104150002C37BD46BDE8908FB4200108081100201F
:1041600000000020BC200108C8200108D020010860
:10417000A0120020D4200108DC20010880B584B002
:1041800000AFF860B9607A60BB681846796800F0E3
:10419000C9FF0346002B14BF00230123DBB21846DE
:1041A0001037BD4680BD00BF80B584B000AFF86059
:1041B000B9607A60BB689B681846796800F0B2FF06
:1041C0000346002B14BF00230123DBB2184610372F
:1041D000BD4680BD80B582B000AF78607B68184670
:1041E000FFF7F6F97B68064A1A607B6800225A647A
:1041F0007B6800221A647B6818460837BD4680BD7C
:10420000D029010880B584B000AF786039607B6840
:104210001B6C7868194600F051F8F8607B685A6C9E
:10422000FB689A4214BF00230123DBB2002B01D0AC
:10423000002310E07B681A6C796813465B00134416
:104240009B000B443A68043307CA83E807007B6885
:10425000FA681A64012318461037BD4680BD00BFB6
:1042600080B582B000AF786039607B685A6C7B683B
:104270001B6C9A4214BF00230123DBB2002B01D038
:10428000002317E07B685A6C3968786813465B0036
:1042900013449B00C2180B46043207CA83E8070088
:1042A0007B685B6C7868194600F008F802467B680A
:1042B0005A64012318460837BD4680BD80B483B0D8
:1042C00000AF786039603B68032B02DC3B68013348
:1042D00000E0002318460C37BD465DF8047B7047AC
:1042E00080B582B000AF78607B68084A1A607B684E
:1042F0001846FFF75FF80023002B02D0786800F023
:1043000047FF7B6818460837BD4680BDD0290108A5
:1043100080B582B000AF78607868FFF7E1FF786819
:1043200000F036FF7B6818460837BD4680BD00BFE9
:1043300080B582B000AF786039607B68012B0CD10A
:104340003A684FF6FF739A4207D10548FFF742FFDC
:1043500003480449044A09F039FE0837BD4680BDC8
:1043600058120020E14200086415002080B584B096
:1043700000AFF860B9607A603B607B680C2B04D9B1
:10438000064800F0A7FD002304E0F8683968FFF74D
:1043900039FF034618461037BD4680BDF820010896
:1043A00080B500AF01204FF6FF71FFF7C1FF80BD60
:1043B00080B584B000AFF860B960C7E90023FB683E
:1043C0001846B96864224FF4FA6308F029FAFB68CA
:1043D000074A1A60F968D7E90023C1E91423FB688A
:1043E000012283F85820FB6818461037BD4680BD6F
:1043F000682A010880B483B000AF78600C37BD46EE
:104400005DF8047B704700BF80B586B000AF786070
:1044100001F02EF802460B46104619467B68D3E998
:104420001423121843EB010310461946002208F02A
:1044300047FB7B6893F85830002B02D0786800F077
:1044400019F8E5E780B584B002AF786039603B6861
:104450001B881AB23B685B881BB23968898809B22D
:1044600000917868024909F0C1FD0837BD4680BD5A
:10447000B421010890B58BB000AF786007F1140348
:104480004548194600F012F907F11C031846434944
:10449000434A09F0ABFD7A6A07F114031046194646
:1044A000FFF7D0FF07F11C033E4819460122FFF732
:1044B000B9F807F114033C48194600F0F7F807F182
:1044C0001C0318463549394A09F090FD7A6A07F10C
:1044D000140310461946FFF7B5FF07F11C033148D6
:1044E00019460122FFF79EF807F1140330481946D8
:1044F00000F0DCF807F11C03184628492B4A09F0A4
:1045000075FD7A6A07F1140310461946FFF79AFF02
:1045100007F11C03234819460122FFF783F807F12E
:104520000C032448194600F0F1F807F11C03184663
:104530001A49214A09F05AFD7C6AFB681846FBF7C4
:104540008BFF02460B4620461C4909F04FFD07F140
:104550001C03144819460122FFF764F807F1100301
:104560001748194600F0FAF807F11C0318460B49E2
:10457000144A09F03BFD7A6A3B6910460F491A4616
:1045800009F034FD07F11C03064819460122FFF724
:1045900049F82C37BD4690BDDC120020C02101082F
:1045A000C8210108E40A0020B4120020D02101082B
:1045B000C812002000130020D8210108E0210108C2
:1045C000A4120020E821010880B483B000AF786015
:1045D0007B68012283F858200C37BD465DF8047BC8
:1045E000704700BF80B483B000AF78607B68002262
:1045F00083F858200C37BD465DF8047B704700BF38
:1046000080B483B000AF78607B6893F85830184668
:104610000C37BD465DF8047B704700BF80B582B0A3
:1046200000AF78607B681846FEF7D2FF7B68064AC9
:104630001A607B680022DA607B6800229A607B68DF
:1046400018460837BD4680BD502A010880B582B0A3
:1046500000AF78607B681846FEF7BAFF7B68064AB1
:104660001A607B6800221A617B680022DA607B682E
:1046700018460837BD4680BD382A010880B582B08B
:1046800000AF78607B681846FEF7A2FF7B68064A99
:104690001A607B680022DA607B6800229A607B687F
:1046A00018460837BD4680BD202A010880B582B073
:1046B00000AF786039607B681A697B68DB689A4272
:1046C00014BF00230123DBB2002B01D0002318E02C
:1046D0007B681A693968786813465B0013445B008D
:1046E000C2180B4604321168196092889A807B6860
:1046F0001B697868194600F059F802467B681A6110
:10470000012318460837BD4680BD00BF80B582B082
:1047100000AF786039607B68DA687B689B689A4292
:1047200014BF00230123DBB2002B01D0002311E0D2
:104730007B68DB687A689B0013445A683B681A60A0
:104740007B68DB687868194600F042F802467B68AF
:10475000DA60012318460837BD4680BD80B582B0B7
:1047600000AF786039607B68DA687B689B689A4242
:1047700014BF00230123DBB2002B01D0002311E082
:104780007B68DB687A689B0013445A683B681A6050
:104790007B68DB687868194600F02CF802467B6875
:1047A000DA60012318460837BD4680BD80B483B067
:1047B00000AF786039603B68002B02DA3B68013358
:1047C00000E0002318460C37BD465DF8047B7047B7
:1047D00080B483B000AF786039603B68002B02DAA8
:1047E0003B68013300E0002318460C37BD465DF8F6
:1047F000047B704780B483B000AF786039603B6859
:10480000002B02DA3B68013300E0002318460C3726
:10481000BD465DF8047B704780B582B000AF78601C
:104820007B68084A1A607B681846FEF7C3FD0023C0
:10483000002B02D0786800F0ABFC7B681846083784
:10484000BD4680BD202A010880B582B000AF7860E7
:104850007868FFF7E1FF786800F09AFC7B681846FB
:104860000837BD4680BD00BF80B582B000AF78601C
:104870007B68084A1A607B681846FEF79BFD002398
:10488000002B02D0786800F083FC7B68184608375C
:10489000BD4680BD382A010880B582B000AF78607F
:1048A0007868FFF7E1FF786800F072FC7B681846D3
:1048B0000837BD4680BD00BF80B582B000AF7860CC
:1048C0007B68084A1A607B681846FEF773FD002370
:1048D000002B02D0786800F05BFC7B681846083734
:1048E000BD4680BD502A010880B582B000AF786017
:1048F0007868FFF7E1FF786800F04AFC7B681846AB
:104900000837BD4680BD00BF80B584B002AF786077
:1049100039607B68012B40F083803A684FF6FF7363
:104920009A427DD14048FFF779FE3F483F49404ACF
:1049300009F04CFB3F48FFF789FE3E483E493C4AA0
:1049400009F044FB3D48FFF781FE3C483A49384AAC
:1049500009F03CFB3A48FFF779FE39483649344ABA
:1049600009F034FB3748FFF789FE36483649304AAC
:1049700009F02CFB3548FFF781FE344832492C4AB8
:1049800009F024FB0023009331483249264A324B78
:1049900000F008FC2E483149254A09F017FB002396
:1049A00000932F482F49234A2B4B00F0FBFB2C4848
:1049B0002A491F4A09F00AFB002300932A482B4981
:1049C0001E4A254B00F0EEFB27482449184A09F0FF
:1049D000FDFA0023009326482649194A1E4B00F091
:1049E000E1FB23481D49124A09F0F0FA0023009325
:1049F00021482249134A184B00F0D4FB1E4817499E
:104A00000B4A09F0E3FA002300931D481D490F4AA1
:104A1000114B00F0C7FB1A481049054A09F0D6FAB5
:104A20000837BD4680BD00BFA4120020B948000869
:104A300064150020B412002069480008C812002044
:104A4000DC120020F012002019480008001300209A
:104A500010130020E809002014220108593300082F
:104A6000401300207C09002070130020340900202E
:104A7000A013002058090020D0130020A009002016
:104A800000140020C409002080B584B000AFF86095
:104A9000B9607A603B607B68042B04D9064800F05B
:104AA00019FA002304E0F868396800F03BF803467F
:104AB00018461037BD4680BD2022010880B584B05D
:104AC00000AFF860B9607A603B607B68062B04D960
:104AD000064800F0FFF9002304E0F868396800F0A8
:104AE00049F8034618461037BD4680BD202201080C
:104AF00080B584B000AFF860B9607A603B607B68D5
:104B0000042B04D9064800F0E5F9002304E0F86816
:104B1000396800F05DF8034618461037BD4680BD81
:104B20002022010880B584B000AF786039607B68CE
:104B30009B6878681946FFF74BFEF8607B68DA6877
:104B4000FB689A4214BF00230123DBB2002B01D083
:104B500000230BE07B689B683A68126879689B00C9
:104B60000B445A607B68FA689A6001231846103734
:104B7000BD4680BD80B584B000AF786039607B6889
:104B8000DB6878681946FFF711FEF8607B681A69E0
:104B9000FB689A4214BF00230123DBB2002B01D033
:104BA000002311E07B68DA68796813465B001344E0
:104BB0005B000B443A6804331168196092889A804C
:104BC0007B68FA68DA60012318461037BD4680BD5D
:104BD00080B584B000AF786039607B689B68786886
:104BE0001946FFF707FEF8607B68DA68FB689A42AF
:104BF00014BF00230123DBB2002B01D000230BE004
:104C00007B689B683A68126879689B000B445A601D
:104C10007B68FA689A60012318461037BD4680BD4C
:104C200080B500AF01204FF6FF71FFF76DFE80BD2C
:104C300080B483B000AF78607B681B6818460C377F
:104C4000BD465DF8047B704780B483B000AF7860E8
:104C50007B685B6818460C37BD465DF8047B70477F
:104C600080B483B000AF78600C37BD465DF8047B3C
:104C7000704700BF80B584B000AFF860B9607A605B
:104C8000FB68043318460949BA68002300F05AF952
:104C9000FB68074A1A60FB687A685A61FB68012260
:104CA0001A76FB6818461037BD4680BD30140020C8
:104CB000802A010880B582B000AF78607B680A4A1C
:104CC0001A600A4800F006F97B680433184600F0C1
:104CD00081F90023002B02D0786800F059FA7B6834
:104CE00018460837BD4680BD802A010830220108D9
:104CF00080B582B000AF78607868FFF7DBFF786836
:104D000000F046FA7B6818460837BD4680BD00BFF4
:104D100080B483B000AF78607B6801221A760C37CC
:104D2000BD465DF8047B704780B483B000AF786007
:104D30007B6800221A760C37BD465DF8047B70470D
:104D400080B485B000AFF860B9607A603B604FF026
:104D5000FF3318461437BD465DF8047B704700BF2B
:104D600090B583B000AF154B1B68002B03D0134BDD
:104D70001B68043B00E000237B6018E07B685C69F3
:104D80007B6804331846FFF75FFF03460C48214653
:104D90001A4600F059F87B6804331846FFF748FFBD
:104DA0000346002B01D0043B00E000237B607B68BE
:104DB000002BE3D10C37BD4690BD00BF301400205E
:104DC0004422010880B582B000AF78607B68064A53
:104DD0001A600023002B02D0786800F0D9F97B68B4
:104DE00018460837BD4680BDA02A010880B582B0AC
:104DF00000AF78607868FFF7E5FF786800F0C8F9E1
:104E00007B6818460837BD4680BD00BF80B582B0BC
:104E100000AF78600B46FB7097F90330184607F037
:104E200019FA0837BD4680BD80B483B000AF786002
:104E30007B68044A1A607B6818460C37BD465DF8EB
:104E4000047B7047A02A01080FB480B582B000AF80
:104E50001C4B1B68002B2FD03B461846FFF7E4FF86
:104E600007F114037B60184B1B68002B05D0164B11
:104E70001B681648194601F057F807F0D7FB0346A0
:104E800083F00103DBB2002B05D03B46184639699D
:104E900000F0D8FD0AE00E4807F016FC3B46184625
:104EA000396900F0CFFD0A4807F06CFC07F014FAEE
:104EB0003B461846FFF786FF0837BD46BDE88040F1
:104EC00004B070470800002034140020602201085C
:104ED0003814002080B582B000AF7860074B7A6844
:104EE0001A6007487968FFF7AFFF064B1B685A1C2A
:104EF000044B1A600837BD4680BD00BF0400002087
:104F0000742201083414002080B582B000AF7860AC
:104F100039607B68012B07D13A684FF6FF739A42DC
:104F200002D1034807F0B8FB0837BD4680BD00BF7B
:104F30003814002080B500AF01204FF6FF71FFF755
:104F4000E3FF80BD80B584B000AFF860B9607A60DF
:104F50003B60FB683A68DA60FB687A685A60084B25
:104F60001B68591C064A1160FA689360F868B968B2
:104F700000F008F8FB6818461037BD4680BD00BF3A
:104F80004814002080B582B000AF786039603B687B
:104F90001A687B681A603B687A681A600A4B1B685B
:104FA000002B0CBF00230123DBB2002B08D00748E5
:104FB000FFF790FF7B685B6805481946FFF744FFE1
:104FC0000837BD4680BD00BF3C270020A022010855
:104FD000D422010880B582B000AF78600348FFF7A3
:104FE00079FF7B6818460837BD4680BDF822010866
:104FF00080B485B000AF78600023FB607B68002B35
:1050000001D100230BE005E0FB680133FB607B6806
:1050100001337B607B681B78002BF5D1FB68184659
:105020001437BD465DF8047B704700BF80B487B07D
:1050300000AFF860B9607A60FB68002B01D1FB68B3
:1050400010E0FB687B6109E0BB68DAB27B691A702B
:105050007B6901337B617B68013B7B607B68002B54
:10506000F2D1FB6818461C37BD465DF8047B7047DB
:1050700080B487B000AFF860B9607A60FB687B618C
:10508000BB683B617B69002B02D03B69002B01D1DF
:10509000002311E00CE03B691A787B691A707B6889
:1050A000013B7B603B6901333B617B6901337B6181
:1050B0007B68002BEFD1FB6818461C37BD465DF8B6
:1050C000047B704780B487B000AFF860B9607A6045
:1050D000FB687B617B69002B02D0BB68002B01D190
:1050E000002319E011E0BB681A787B691A70BB686D
:1050F0001B78002B00D10BE0BB680133BB607B69E0
:1051000001337B617B68013B7B607B68002BEAD1CC
:105110007B6900221A70FB6818461C37BD465DF893
:10512000047B704780B485B000AF786039607B68DD
:10513000002B07D13B68002B01D1002301E04FF089
:10514000FF331FE03B68002B01D101231AE07B688D
:105150005A1C7A601B78FB733B685A1C3A601B78B8
:10516000BB73FA7BBB7B9A4202D24FF0FF3309E05C
:10517000FA7BBB7B9A4201D9012303E0FB7B002B26
:10518000E5D1002318461437BD465DF8047B70470F
:1051900080B483B000AF78600C37BD465DF8047B07
:1051A000704700BF80B584B000AFF860B9607A6026
:1051B0003B60FB68043318461049114A0023FFF78F
:1051C000C1FEFB680F4A1A60FB68BA685A61FB6847
:1051D0002033184607F060FAFB683A7E1A77FB68BE
:1051E00001225A77FB683A689A60FB687A689A618C
:1051F000FB6818461037BD4680BD00BF0028002060
:1052000020230108B82A010880B584B000AFF860F7
:10521000B9607A60FB68043318461049104A0023CD
:10522000FFF790FEFB680F4A1A60FB68BA685A6184
:10523000FB682033184607F02FFAFB6800221A7724
:10524000FB6801225A77FB687A689A60FB68002243
:105250009A61FB6818461037BD4680BD00280020C3
:1052600020230108B82A010880B485B000AFF86097
:10527000B9607A603B60034B18461437BD465DF851
:10528000047B704715CD5B0790B587B002AFF8601F
:10529000B9607A603B60FB685B7F83F00103DBB23F
:1052A000002B01D000233DE0FB682033184607F0B7
:1052B0000BFAFB689B69002B0FD0FB689B691B688E
:1052C00008331C68FB689A697B68396A009110464C
:1052D000B9681A463B68A04718E0FB681B681C6861
:1052E0003B6A5B690093F868B9687A683B68A047D5
:1052F00002460E4B9A420CBF00230123DBB2002B67
:1053000004D00B48FFF7E6FD01230BE0FB682033D8
:10531000184607F037FAFB689B69002B01D0012380
:1053200000E0002318461437BD4690BD15CD5B073D
:105330002C23010890B58DB002AFF860B9607A6097
:105340003B60FB689B69002B0FD0FB689B691B6867
:1053500008331C68FB689A693B6807F110010091EB
:105360001046B9681A467B68A0472C37BD4690BDE9
:1053700080B485B000AFF860C7E90023F968D7E9C9
:105380000023C1E90E23F968D7E90623C1E91023F8
:105390001437BD465DF8047B704700BFB0B586B0DA
:1053A00002AF786006E04FF0FF306FF0004100225E
:1053B00007F086FB7B68D3E9102352EA0301F2D0A1
:1053C0007B68D3E90E2310461946002207F078FBCC
:1053D00000F04EF8C7E902017B68D3E90E017B6853
:1053E000D3E91023D7E90245CDE9004500F04AF89A
:1053F00002460B467968C1E90E231037BD46B0BDA1
:1054000080B584B000AF786007F032FBF860F868D0
:1054100007F014FBB860F868796807F01BFBBB68FD
:1054200018461037BD4680BD80B483B000AF7860A9
:1054300079684FF000024FF00003C1E9002379685A
:105440004FF000024FF00003C1E9022379684FF0EA
:1054500000024FF00003C1E904237B680F229A6128
:105460007B6818460C37BD465DF8047B704700BF6B
:1054700080B500AF06F030FE02460B4610461946D6
:1054800080BD00BF80B584B000AFC7E90201C7E9A5
:105490000023D7E90223D7E90601904271EB030C00
:1054A00002DAD7E902232CE0D7E9002352EA03010C
:1054B00004D14FF0FF326FF0004322E0D7E906013C
:1054C000D7E90223821A61EB030310461946D7E994
:1054D0000023FBF747FB02460B46013243F1000372
:1054E000396803FB01F0796802FB01F10144386877
:1054F000A0FB022319440B46D7E90201121843EB23
:105500000103104619461037BD4680BD80B582B0F4
:1055100000AF786039607B68012B07D13A684FF69D
:10552000FF739A4202D10348FFF77EFF0837BD465A
:1055300080BD00BF5014002080B500AF01204FF6A1
:10554000FF71FFF7E3FF80BD80B586B000AFF86064
:10555000B9607A603B60FB68043318462E493A68AC
:105560000023FFF7EFFCFB682C4A1A60FB6800225F
:105570005A61FB68BA68DA61FB687A681A62FB688C
:1055800000229A61FB68DB69B3F1FF3F11D13868F3
:1055900007F02CFD03461A46FB68DA61FB68DB69FD
:1055A000B3F57A7F05DAFB68DB6903F57A72FB688D
:1055B000DA61194B1B68002B03D0174B1B68043BA7
:1055C00000E000237B611EE07B69DA69BB689A42D8
:1055D0000DD17A69FB689A4209D01148FFF77AFC2D
:1055E0007B699B680F48B9683A68FFF72DFC7B69B7
:1055F00004331846FFF71CFB0346002B01D0043B85
:1056000000E000237B617B69002BDDD1FB6818463D
:105610001837BD4680BD00BF1028002000290108B2
:105620008C230108A023010880B586B002AFF86082
:10563000B9603B601346FB71FB681B6A1A46FB7935
:1056400039680091F868B96800F006F80346184612
:105650001037BD4680BD00BF90B591B002AFF86075
:10566000B9607A60FB7000237B63BB6C002B12D1A6
:1056700000237B62FFF7FCFE02460B46C7E90623C8
:1056800007F0A8FD03463B6107F0F2F903463B62D1
:1056900007F11003BB64FB689B69002B0FD0FB680C
:1056A0009B691B681C68FB689969FB68DA697B6801
:1056B000B86C0090084611461A46BB68A047FB68C4
:1056C0005B69002B03D0FB685B69043B00E00023AF
:1056D0003B631DE03B6B1B6804331C68FB68DA69A5
:1056E0007B68B96C0091386B11461A46BB68A047BD
:1056F00003467A6B13447B633B6B04331846FFF716
:1057000097FA0346002B01D0043B00E000233B63E3
:105710003B6B002BDED1FB7883F00103DBB2002B67
:1057200001D07B6B2CE0184B5B69002B03D0164B30
:105730005B69043B00E00023FB621DE0FB6A1B6821
:1057400004331C68FB68DA697B68B96C0091F86AFD
:1057500011461A46BB68A04703467A6B13447B6325
:10576000FB6A04331846FFF763FA0346002B01D0A7
:10577000043B00E00023FB62FB6A002BDED17B6B65
:1057800018463C37BD4690BD8C14002080B582B0D1
:1057900000AF78607B680A4A1A600A48FFF79AFBF4
:1057A0007B681846FCF75AFC0023002B02D078686F
:1057B000FFF7EEFC7B6818460837BD4680BD00BF8A
:1057C000F82A01081824010880B582B000AF78607B
:1057D0007868FFF7DBFF7868FFF7DAFC7B6818462C
:1057E0000837BD4680BD00BF80B584B000AFF8600B
:1057F000B9607A60FB681846B9680C227B68FFF7CD
:10580000A3FEFB68034A1A60FB6818461037BD46C2
:1058100080BD00BFF82A010880B584B000AFF860F1
:10582000B9607A60FB681846B96840F22E527B680E
:10583000FFF78AFEFB68034A1A60FB6818461037B8
:10584000BD4680BDE82A010880B584B000AFF8608D
:10585000B9607A60FB681846B96804227B68FFF774
:1058600073FEFB68034A1A60FB6818461037BD4692
:1058700080BD00BFD82A010880B582B000AF786033
:1058800039607B68012B4FD13A684FF6FF739A421B
:105890004AD1274827490A22FFF7ECF9244826492C
:1058A000264A08F093FB26480021264AFFF79CFF72
:1058B00023482549214A08F089FB24484FF0FF314D
:1058C000234AFFF7A9FF214822491C4A08F07EFB22
:1058D00021484FF0FF31214AFFF7B6FF1E4820490B
:1058E000164A08F073FB1F484FF0FF311E4AFFF7BE
:1058F000ABFF1C481A49114A08F068FB1B484FF0DF
:10590000FF311B4AFFF7A0FF184815490B4A08F062
:105910005DFB18484FF0FF31174AFFF765FF154848
:105920000949064A08F052FB0837BD4680BD00BF52
:105930007014002028240108B54C000864150020CC
:105940008C1400203C2401088D570008B01400205E
:105950004C240108D9590008D41400205824010807
:105960007D590008F8140020682401081C15002047
:1059700078240108401500208C24010880B582B0ED
:1059800000AF78607B680A4A1A600A48FFF7A2FAFB
:105990007B681846FCF762FB0023002B02D0786876
:1059A000FFF7F6FB7B6818460837BD4680BD00BF91
:1059B000D82A01081824010880B582B000AF7860A9
:1059C0007868FFF7DBFF7868FFF7E2FB7B68184633
:1059D0000837BD4680BD00BF80B582B000AF78609B
:1059E0007B680A4A1A600A48FFF774FA7B6818460F
:1059F000FCF734FB0023002B02D07868FFF7C8FBCC
:105A00007B6818460837BD4680BD00BFE82A0108FC
:105A10001824010880B582B000AF78607868FFF77D
:105A2000DBFF7868FFF7B4FB7B6818460837BD4694
:105A300080BD00BF80B500AF01204FF6FF71FFF7BA
:105A40001BFF80BD80B594B000AF7860396056E22E
:105A5000002387F84E30002387F84D30002387F865
:105A60004C30002387F84B3097F84F30252B0AD065
:105A70007B681B6808331B6897F84F2052B2786820
:105A8000114698473BE23B685A1C3A601B7887F8FE
:105A90004F30002387F84330202387F84230032318
:105AA00087F8413097F84F30302B09D197F84F30B5
:105AB00087F842303B685A1C3A601B7887F84F30B1
:105AC00097F84F302F2B0ED997F84F30392B0AD833
:105AD00097F84F30303B87F843303B685A1C3A60A8
