:020000040800F2
:1000000000000220153800088138000881380008F7
:10001000813800088138000881380008000000009D
:10002000000000000000000000000000A98400089B
:100030008138000800000000BD840008E98700083E
:1000400081380008813800088138000881380008AC
:100050008138000881380008A9400008CD40000818
:10006000F1400008154100083941000881380008B6
:100070009958000881380008C157000881380008E5
:100080005158000879570008813800088138000865
:100090008138000881380008813800085D41000877
:1000A000813800088138000881380008813800084C
:1000B000813800088138000881380008813800083C
:1000C000813800088138000881380008813800082C
:1000D00081380008A1560008B9560008D15600081A
:1000E000B9410008813800088138000881380008CB
:1000F00081380008813800088138000881380008FC
:100100008138000881380008B5850008813800086A
:10011000E95600080157000881380008998900084D
:1001200081380008813800088138000881380008CB
:1001300081380008813800088138000881380008BB
:1001400081380008813800088138000881380008AB
:10015000095800088138000831570008195700086D
:10016000813800088138000881380008813800088B
:10017000813800088138000881380008813800087B
:0C018000813800088138000800000008E9
:1001900081F0004102E000BF83F0004330B54FEA38
:1001A00041044FEA430594EA050F08BF90EA020FA5
:1001B0001FBF54EA000C55EA020C7FEA645C7FEA38
:1001C000655C00F0E2804FEA5454D4EB5555B8BF5B
:1001D0006D420CDD2C4480EA020281EA030382EACC
:1001E000000083EA010180EA020281EA0303362D5E
:1001F00088BF30BD11F0004F4FEA01314FF4801C31
:100200004CEA113102D0404261EB410113F0004F42
:100210004FEA03334CEA133302D0524263EB4303F9
:1002200094EA050F00F0A780A4F10104D5F1200E97
:100230000DDB02FA0EFC22FA05F2801841F10001F2
:1002400003FA0EF2801843FA05F359410EE0A5F1C6
:1002500020050EF1200E012A03FA0EFC28BF4CF0F7
:10026000020C43FA05F3C01851EBE37101F00045AD
:1002700007D54FF0000EDCF1000C7EEB00006EEBBA
:100280000101B1F5801F1BD3B1F5001F0CD3490844
:100290005FEA30004FEA3C0C04F101044FEA44529B
:1002A00012F5800F80F09A80BCF1004F08BF5FEA22
:1002B000500C50F1000041EB045141EA050130BD02
:1002C0005FEA4C0C404141EB010111F4801FA4F1A5
:1002D0000104E9D191F0000F04BF01460020B1FAFA
:1002E00081F308BF2033A3F10B03B3F120020CDA32
:1002F0000C3208DD02F1140CC2F10C0201FA0CF010
:1003000021FA02F10CE002F11402D8BFC2F1200C74
:1003100001FA02F120FA0CFCDCBF41EA0C0190402A
:10032000E41AA2BF01EB0451294330BD6FEA040473
:100330001F3C1CDA0C340EDC04F11404C4F120025E
:1003400020FA04F001FA02F340EA030021FA04F370
:1003500045EA030130BDC4F10C04C4F1200220FAC7
:1003600002F001FA04F340EA0300294630BD21FA05
:1003700004F0294630BD94F0000F83F4801306BFCB
:1003800081F480110134013D4EE77FEA645C18BFBF
:100390007FEA655C29D094EA050F08BF90EA020F56
:1003A00005D054EA000C04BF1946104630BD91EA4E
:1003B000030F1EBF0021002030BD5FEA545C05D151
:1003C0004000494128BF41F0004130BD14F5800490
:1003D0003CBF01F5801130BD01F0004545F0FE4104
:1003E00041F470014FF0000030BD7FEA645C1ABF39
:1003F000194610467FEA655C1CBF0B46024650EA70
:10040000013406BF52EA033591EA030F41F400219B
:1004100030BD00BF90F0000F04BF0021704730B521
:100420004FF4806404F132044FF000054FF00001F6
:1004300050E700BF90F0000F04BF0021704730B5B7
:100440004FF4806404F1320410F0004548BF40428C
:100450004FF000013EE700BF42004FEAE2014FEAE1
:1004600031014FEA02701FBF12F07F4393F07F4FBC
:1004700081F06051704792F0000F14BF93F07F4FEE
:10048000704730B54FF4607401F0004521F0004131
:1004900020E700BF50EA010208BF704730B54FF0B7
:1004A00000050AE050EA010208BF704730B511F0BC
:1004B000004502D5404261EB41014FF4806404F1F4
:1004C00032045FEA915C3FF4DCAE4FF003025FEA76
:1004D000DC0C18BF03325FEADC0C18BF033202EBFE
:1004E000DC02C2F1200300FA03FC20FA02F001FA58
:1004F00003FE40EA0E0021FA02F11444C1E600BFF7
:1005000070B54FF0FF0C4CF4E06C1CEA11541DBFA9
:100510001CEA135594EA0C0F95EA0C0F00F0DEF874
:100520002C4481EA030621EA4C5123EA4C5350EA59
:10053000013518BF52EA033541F4801143F48013AA
:1005400038D0A0FB02CE4FF00005E1FB02E506F03B
:100550000042E0FB03E54FF00006E1FB03569CF090
:10056000000F18BF4EF0010EA4F1FF04B6F5007F96
:1005700064F5407404D25FEA4E0E6D4146EB060608
:1005800042EAC62141EA55514FEAC52040EA5E5091
:100590004FEACE2EB4F1FD0C88BFBCF5E06F1ED83B
:1005A000BEF1004F08BF5FEA500E50F1000041EB72
:1005B000045170BD06F0004646EA010140EA02001F
:1005C00081EA0301B4EB5C04C2BFD4EB0C0541EA41
:1005D000045170BD41F480114FF0000E013C00F356
:1005E000AB8014F1360FDEBF002001F0004170BD7A
:1005F000C4F10004203C35DA0C341BDC04F1140493
:10060000C4F1200500FA05F320FA04F001FA05F21E
:1006100040EA020001F0004221F0004110EBD370EB
:1006200021FA04F642EB06015EEA430E08BF20EA17
:10063000D37070BDC4F10C04C4F1200500FA04F3BA
:1006400020FA05F001FA04F240EA020001F000414C
:1006500010EBD37041F100015EEA430E08BF20EABF
:10066000D37070BDC4F1200500FA05F24EEA020E07
:1006700020FA04F301FA05F243EA020321FA04F036
:1006800001F0004121FA04F220EA020000EBD370ED
:100690005EEA430E08BF20EAD37070BD94F0000FED
:1006A0000FD101F00046400041EB010111F4801F21
:1006B00008BF013CF7D041EA060195F0000F18BFD2
:1006C000704703F00046520043EB030313F4801F0E
:1006D00008BF013DF7D043EA0603704794EA0C0FC8
:1006E0000CEA135518BF95EA0C0F0CD050EA4106DE
:1006F00018BF52EA4306D1D181EA030101F000415B
:100700004FF0000070BD50EA410606BF1046194682
:1007100052EA430619D094EA0C0F02D150EA01368E
:1007200013D195EA0C0F05D152EA03361CBF1046CF
:1007300019460AD181EA030101F0004141F0FE416E
:1007400041F470014FF0000070BD41F0FE4141F4F2
:10075000780170BD70B54FF0FF0C4CF4E06C1CEAF2
:1007600011541DBF1CEA135594EA0C0F95EA0C0FA7
:1007700000F0A7F8A4EB050481EA030E52EA033562
:100780004FEA013100F088804FEA03334FF0805583
:1007900045EA131343EA12634FEA022245EA1115B0
:1007A00045EA10654FEA00260EF000419D4208BF61
:1007B000964244F1FD0404F5407402D25B084FEA0E
:1007C0003202B61A65EB03055B084FEA32024FF4BA
:1007D00080104FF4002CB6EB020E75EB030E22BF17
:1007E000B61A754640EA0C005B084FEA3202B6EBD7
:1007F000020E75EB030E22BFB61A754640EA5C0086
:100800005B084FEA3202B6EB020E75EB030E22BF15
:10081000B61A754640EA9C005B084FEA3202B6EB16
:10082000020E75EB030E22BFB61A754640EADC00D5
:1008300055EA060E18D04FEA051545EA16754FEA37
:1008400006164FEAC30343EA52734FEAC2025FEA55
:100850001C1CC0D111F4801F0BD141EA00014FF0E4
:1008600000004FF0004CB6E711F4801F04BF0143B5
:100870000020B4F1FD0C88BFBCF5E06F3FF6AFAED1
:10088000B5EB030C04BFB6EB020C5FEA500C50F161
:10089000000041EB045170BD0EF0004E4EEA1131E4
:1008A00014EB5C04C2BFD4EB0C0541EA045170BDEB
:1008B00041F480114FF0000E013C90E645EA060E2F
:1008C0008DE60CEA135594EA0C0F08BF95EA0C0F5D
:1008D0003FF43BAF94EA0C0F0AD150EA01347FF4A5
:1008E00034AF95EA0C0F7FF425AF104619462CE77C
:1008F00095EA0C0F06D152EA03353FF4FDAE1046DF
:10090000194622E750EA410618BF52EA43067FF42F
:10091000C5AE50EA41047FF40DAF52EA43057FF4BF
:10092000EBAE12E74FF0FF3C06E000BF4FF0010CCA
:1009300002E000BF4FF0010C4DF804CD4FEA410C2E
:100940007FEA6C5C4FEA430C18BF7FEA6C5C1BD0FB
:1009500001B050EA410C0CBF52EA430C91EA030F7C
:1009600002BF90EA020F0020704710F1000F91EAD9
:10097000030F58BF994208BF90422CBFD8176FEAA7
:10098000E37040F0010070474FEA410C7FEA6C5C75
:1009900002D150EA013C07D14FEA430C7FEA6C5C7C
:1009A000D6D152EA033CD3D05DF8040B704700BFA8
:1009B0008446104662468C461946634600E000BFF6
:1009C00001B5FFF7B7FF002848BF10F1000F01BDC8
:1009D0004DF808EDFFF7F4FF0CBF012000205DF893
:1009E00008FB00BF4DF808EDFFF7EAFF34BF012018
:1009F00000205DF808FB00BF4DF808EDFFF7E0FFB1
:100A000094BF012000205DF808FB00BF4DF808ED01
:100A1000FFF7CEFF94BF012000205DF808FB00BF68
:100A20004DF808EDFFF7C4FF34BF012000205DF84A
:100A300008FB00BF4FEA410212F5001215D211D592
:100A40006FF47873B3EB625212D94FEAC12343F0CB
:100A5000004343EA505311F0004F23FA02F018BF4D
:100A6000404270474FF00000704750EA013005D116
:100A700011F0004008BF6FF0004070474FF00000D9
:100A8000704700BF4A0011D212F5001211D20DD5E5
:100A90006FF47873B3EB62520ED44FEAC12343F084
:100AA000004343EA505323FA02F070474FF000002E
:100AB000704750EA013002D14FF0FF3070474FF0DD
:100AC0000000704773B96AB9002908BF0028BCBF8D
:100AD00000204FF00041C4BF6FF000414FF0FF30E5
:100AE00000F08CB882B0EC462DE9005000F056F8CA
:100AF000DDF804E002B00CBC704700BF4BB942B94E
:100B0000002908BF002802D04FF0FF31084600F04E
:100B100075B882B0EC462DE9005000F057F8DDF8CA
:100B200004E002B00CBC704738B500220023044634
:100B30000D46FFF757FF28B920462946BDE8384043
:100B400000F00AB8204605F1004100F005F84042E7
:100B500061EB410138BD00BF70B500220D4B04466A
:100B60000D46FFF7CDFCFFF78DFF0646FFF752FC61
:100B70000022094BFFF7C4FC02460B4620462946DB
:100B8000FFF70AFBFFF77EFF002242EA000420463F
:100B9000314670BD0000F03D0000F0412DE970438A
:100BA000069E14461D468046894600F029F804FB3F
:100BB00001F300FB0533A4FB00451D44B8EB04041E
:100BC00069EB0505C6E90045BDE870832DE9704372
:100BD000069E1446804689461D4600F05DF900FBDE
:100BE00005F504FB0153A0FB04451D44B8EB0404C8
:100BF00069EB0505C6E90045BDE87083704700BF95
:100C000000292DE9F00FC0F29F800024002BC0F2D4
:100C10009680154606460F46002B3ED18A4257D98C
:100C2000B2FA82F34BB1C3F1200201FA03F720FAC2
:100C300002F29D40174300FA03F6290CB7FBF1F2CC
:100C4000330C01FB127CA8B243EA0C4700FB02F311
:100C5000BB4209D97F1902F1FF3C80F00181BB4200
:100C600040F2FE80023A2F44FF1AB7FBF1F3B6B20E
:100C700001FB137146EA014100FB03F0884208D9E9
:100C8000491903F1FF3780F0ED80884240F2EA8095
:100C9000023B43EA0242002303E08B420AD90023CD
:100CA0001A461046194614B1404261EB4101BDE8B5
:100CB000F00F7047B3FA83F8B8F1000F40F084806A
:100CC0008B4202D3824200F2DE8000230122E8E759
:100CD00012B90123B3FBF2F5B5FA85F2002A39D136
:100CE0007F1B280C1FFA85FC0123B7FBF0F1320CA7
:100CF00000FB117742EA07470CFB01F2BA4207D921
:100D00007F1901F1FF3802D2BA4200F2C180414698
:100D1000BF1AB7FBF0F2B6B200FB127046EA004011
:100D20000CFB02FC844507D9401902F1FF3702D2BF
:100D3000844500F2AB803A4642EA0142B1E7E4431F
:100D4000524263EB430364E7404261EB41014FF0E1
:100D5000FF345BE79540C2F1200327FA03F1280C2A
:100D600026FA03F39740B1FBF0F81F433B0C00FB5E
:100D700018111FFA85FC43EA01410CFB08F38B4272
:100D800006FA02F608D9491908F1FF3279D28B42E6
:100D900077D9A8F102082944C91AB1FBF0F3BFB210
:100DA00000FB131147EA01470CFB03F2BA4207D9D3
:100DB0007F1903F1FF3160D2BA425ED9023B2F4462
:100DC000BF1A43EA084390E7C8F1200203FA08FC7F
:100DD00025FA02F343EA0C0C4FEA1C4921FA02F30C
:100DE00001FA08F720FA02F2B3FBF9F1174309FB05
:100DF00011333A0C1FFA8CFB42EA03430BFB01FA56
:100E00009A4505FA08F008D913EB0C0301F1FF32FB
:100E100035D29A4533D902396344CAEB0303B3FB95
:100E2000F9F209FB1233BFB247EA03470BFB02F9A1
:100E3000B94508D917EB0C0702F1FF331BD2B945AE
:100E400019D9023A674442EA0145A5FB0001C9EB02
:100E500007078F424FF000030AD305D02A4620E748
:100E6000624601E73B4614E706FA08F68642F5D2E9
:100E70006A1E002315E71A46E5E70B46A0E7114670
:100E8000CBE7904688E7434642460AE7023A53E7F3
:100E900002392F443CE700BF2DE9F00F1446054608
:100EA0000E46002B43D18A4253D9B2FA82F757B18A
:100EB000C7F1200620FA06F601FA07F302FA07F452
:100EC0001E4300FA07F5210CB6FBF1F22B0C01FBD7
:100ED0001267A0B243EA074600FB02F3B34209D906
:100EE000361902F1FF3780F0F680B34240F2F3800A
:100EF000023A2644F61AB6FBF1F3ADB201FB1361D8
:100F000045EA014100FB03F0884208D9091903F1C1
:100F1000FF3680F0E280884240F2DF80023B43EA05
:100F20000242002310461946BDE8F00F70478B427D
:100F30004AD8B3FA83F6002E4DD18B4202D38242B7
:100F400000F2D6800023012210461946BDE8F00FBA
:100F5000704712B90124B4FBF2F4B4FA84F2002A07
:100F60007CD1091B260CA7B20123B1FBF6F02A0C99
:100F700006FB101142EA014107FB00F28A4207D941
:100F8000091900F1FF3C02D28A4200F2C380604698
:100F9000891AB1FBF6F2ADB206FB121145EA014522
:100FA00007FB02F7AF4208D92C1902F1FF3180F09C
:100FB0009680A74240F29380023A42EA00421046ED
:100FC0001946BDE8F00F704700231A46104619462F
:100FD000BDE8F00F7047C6F1200522FA05F4B340D2
:100FE0001C434FEA144821FA05F301FA06F720FAE8
:100FF00005F5B3FBF8FC2F4308FB1C333D0C1FFA2F
:1010000084FA45EA03430AFB0CF9994502FA06FB08
:1010100004D91B190CF1FF326DD39446C9EB0303BD
:10102000B3FBF8F508FB1533BFB247EA03470AFBE9
:1010300005F8B84504D93F1905F1FF3361D31D46C2
:1010400045EA0C4CACFB0B23C8EB07079F424FF063
:10105000000549D345D062462B4663E79440C2F170
:10106000200321FA03FC260C20FA03F301FA02F50F
:10107000BCFBF6F843EA05010B0C06FB18CCA7B243
:1010800043EA0C4C07FB08F3634500FA02F509D963
:101090001CEB040C08F1FF323AD2634538D9A8F1B1
:1010A0000208A444C3EB0C0CBCFBF6F389B206FBAC
:1010B00013CC41EA0C4107FB03F28A4207D9091914
:1010C00003F1FF3022D28A4220D9023B2144891AFF
:1010D00043EA084349E73A460CE733461FE70A4626
:1010E0006BE7B0409042B6D20CF1FF32002319E713
:1010F0003346324616E799458FD9ACF1020C2344AA
:101100008CE7B8459BD9023D274499E70346DEE7C3
:101110009046C7E7023821443AE700BF80B582B065
:1011200000AF78607B680A4A1A600A4801F026FB23
:101130007B680433184601F0A1FB0023002B02D08A
:10114000786801F079FC7B6818460837BD4680BD99
:1011500098E80008F0DB000880B582B000AF786046
:101160007868FFF7DBFF786801F066FC7B6818465B
:101170000837BD4680BD00BF80B584B000AFF860C1
:10118000B9607A60FB681846B96864224FF4FA6364
:1011900008F016F8FB68074A1A60F968D7E90623D1
:1011A000C1E91623FB687A681A65FB681846103790
:1011B000BD4680BD80E8000880B582B000AF786091
:1011C0007B681B6D18464FF4E13104F089FB08374A
:1011D000BD4680BD80B5C8B002AF3B1D186000237E
:1011E000C7F814313B1D19683B1D1B68D3E9162352
:1011F000CDE9002308464FF000024FF0000301F054
:10120000DBFC2CE03B1D1B681B6D1B6818331B6847
:101210003A1D1268126D104698470346002B1ED0E7
:101220003B1D1B681A6D07F10803104619464FF461
:10123000807204F0B5FBC7F81401391D07F10802EC
:1012400007F5847308681146D7F8142100F016F8E2
:1012500007F5847308481946012200F04FF83B1D3A
:101260001B68184601F0BEFC0123002BCAD107F50C
:101270008C77BD4680BD00BFD808002080B584B003
:1012800000AFF860B9607A603B607B68062B00DCD9
:1012900014E00C48796802F06BFA3B6818460A497A
:1012A000BA6808F087FF3B689968BB689A1D7B683D
:1012B000063B084611461A4601F058FB1037BD465A
:1012C00080BD00BF00DC00080CDC000880B584B0E5
:1012D00000AFF860B9607A60FB681846B9680C2204
:1012E0007B6801F055FDFB68034A1A60FB681846ED
:1012F0001037BD4680BD00BF70E8000880B584B0DF
:1013000000AFF860B9601346FB71FA68FB791046CC
:10131000B9681A46002301F0ABFD034618461037A2
:10132000BD4680BD80B582B000AF78607B68084A5A
:101330001A607B68184607F0B1FF0023002B02D02B
:10134000786801F079FB7B6818460837BD4680BD98
:1013500080E8000880B582B000AF78607868FFF759
:10136000E1FF786801F068FB7B6818460837BD46E6
:1013700080BD00BF80B582B000AF786039607B6807
:10138000012B0FD13A684FF6FF739A420AD10748F2
:101390004FF0FF31064AFFF799FF04480549064A16
:1013A00008F0FEFE0837BD4680BD00BFD80800200B
:1013B0003CDC0008BD1300082C0E002080B582B074
:1013C00000AF78607B680A4A1A600A4801F0D6F9D3
:1013D0007B681846FFF7A2FE0023002B02D0786836
:1013E00001F02AFB7B6818460837BD4680BD00BF68
:1013F00070E8000840DC000880B582B000AF78607B
:101400007868FFF7DBFF786801F016FB7B68184609
:101410000837BD4680BD00BF80B500AF01204FF644
:10142000FF71FFF7A7FF80BD80B584B000AFF86003
:10143000B9607A60FB681846B96806227B6801F0DB
:10144000A7FCFB68034A1A60FB6818461037BD46C4
:1014500080BD00BFB8E8000880B584B000AFF86078
:10146000B9607A60FB681846B96801227B6801F0B0
:101470008FFCFB68034A1A60FB6818461037BD46AC
:1014800080BD00BFA8E8000880B584B000AFF86058
:10149000B9601346FB71FA68FB791046B9681A46C1
:1014A000002301F0E5FC034618461037BD4680BD19
:1014B00080B582B000AF786039607B68012B30D195
:1014C0003A684FF6FF739A422BD117484FF0FF311D
:1014D000164AFFF7A9FF14481549164A08F060FE9E
:1014E00015484FF0FF31154AFFF79EFF124810498B
:1014F000104A08F055FE12484FF0FF31114AFFF72D
:1015000093FF0F480A490B4A08F04AFE0E484FF075
:10151000FF310E4AFFF7A0FF0B480D49054A08F0BE
:101520003FFE0837BD4680BDFC080020B0DD000846
:10153000B11500082C0E002020090020C0DD000895
:1015400044090020D0DD000868090020D8DD00082B
:101550005515000880B582B000AF78607B680A4AF4
:101560001A600A4801F00AF97B681846FFF7D6FDB1
:101570000023002B02D0786801F05EFA7B681846E1
:101580000837BD4680BD00BFA8E80008E4DD0008BC
:1015900080B582B000AF78607868FFF7DBFF7868CD
:1015A00001F04AFA7B6818460837BD4680BD00BF87
:1015B00080B582B000AF78607B680A4A1A600A483A
:1015C00001F0DCF87B681846FFF7A8FD0023002B2C
:1015D00002D0786801F030FA7B6818460837BD46BB
:1015E00080BD00BFB8E80008E4DD000880B582B027
:1015F00000AF78607868FFF7DBFF786801F01CFACD
:101600007B6818460837BD4680BD00BF80B500AF77
:1016100001204FF6FF71FFF74BFF80BD80B584B00E
:1016200000AFF860B9607A60FB681846B9680422B8
:101630007B6801F0ADFBFB68034A1A60FB68184643
:101640001037BD4680BD00BFC8E8000880B582B035
:1016500000AF786039607B68012B0FD13A684FF694
:10166000FF739A420AD107484FF0FF31064AFFF74D
:10167000D5FF04480549064A08F092FD0837BD46E3
:1016800080BD00BF8C0900200CDF00089516000803
:101690002C0E002080B582B000AF78607B680A4ACB
:1016A0001A600A4801F06AF87B681846FFF736FDB1
:1016B0000023002B02D0786801F0BEF97B68184641
:1016C0000837BD4680BD00BFC8E8000818DF000825
:1016D00080B582B000AF78607868FFF7DBFF78688C
:1016E00001F0AAF97B6818460837BD4680BD00BFE7
:1016F00080B500AF01204FF6FF71FFF7A7FF80BD57
:1017000080B582B000AF78607B68084A1A607B6859
:10171000184607F0C3FD0023002B02D0786801F0C3
:101720008BF97B6818460837BD4680BD08E900087C
:1017300080B582B000AF78607868FFF7E1FF786825
:1017400001F07AF97B6818460837BD4680BD00BFB6
:1017500080B582B000AF78607B68084A1A607B6809
:10176000184607F09BFD0023002B02D0786801F09B
:1017700063F97B6818460837BD4680BD68E90008F4
:1017800080B582B000AF78607868FFF7E1FF7868D5
:1017900001F052F97B6818460837BD4680BD00BF8E
:1017A00080B584B002AF786039607B68012B3CD192
:1017B0003A684FF6FF739A4237D11F481F4940F2EB
:1017C000D17200F0ABFE1C481D491E4A08F0E8FC2F
:1017D0001D48032103F0ECFD1C48032102F042FDEB
:1017E0001B48022102F03EFD11A3D3E90023CDE9FD
:1017F000002318481849144AFFF7BEFC154817493A
:10180000104A08F0CDFC1648164900F03FF914487C
:1018100015490C4A08F0C4FC1448154900F0A8FB0F
:1018200012481449074A08F0BBFC0837BD4680BD82
:1018300000E1F50500000000B009002028DF0008E5
:101840005D2500082C0E0020CC090020E8090020AE
:10185000040A0020200A002034DF000825130008B5
:10186000800A002040DF000801170008D80A002085
:101870004CDF00085117000880B500AF01204FF67B
:10188000FF71FFF78DFF80BD80B582B000AF78603B
:10189000124801210122012302F0F2F9104801212E
:1018A0000122002302F0ECF90E480021012200235E
:1018B00002F0E6F90C4801210122002302F0E0F9D0
:1018C0000A484FF47A71642202F070FE0748322110
:1018D00003F0CEFA0837BD4680BD00BF280B0020BC
:1018E000440B0020600B00207C0B0020980B002094
:1018F00080B582B000AF78600348012102F0CEFAD3
:101900000837BD4680BD00BF7C0B002080B582B08B
:1019100000AF78600448002102F0C0FA034801F0EB
:1019200027FF0837BD4680BD7C0B002058DF00082C
:1019300080B582B000AF78600B46FB70FB78642BFB
:1019400000D904E0FB780348194603F091FA083700
:10195000BD4680BD980B002080B582B000AF786096
:1019600039607B68012B18D13A684FF6FF739A42B1
:1019700013D10B48242102F04FF90A48112102F03B
:101980004BF909483C2102F047F90848422102F08E
:1019900043F907480C2102F0DFFD0837BD4680BD42
:1019A000280B0020440B0020600B00207C0B002043
:1019B000980B002080B500AF01204FF6FF71FFF7B4
:1019C000CBFF80BD80B582B000AF78607B680A4AEB
:1019D0001A600A4800F0D2FE7B680433184600F013
:1019E0004DFF0023002B02D0786801F025F87B68BA
:1019F00018460837BD4680BDB8E9000898DF0008E2
:101A000080B582B000AF78607868FFF7DBFF786858
:101A100001F012F87B6818460837BD4680BD00BF4C
:101A200080B582B000AF78607B68064A1A600023F8
:101A3000002B02D0786800F0FFFF7B68184608375B
:101A4000BD4680BD20E9000880B582B000AF786057
:101A50007868FFF7E5FF786800F0EEFF7B681846CE
:101A60000837BD4680BD00BF80B584B000AFF860C8
:101A7000B9607A603B60044800F080FE002318469D
:101A80001037BD4680BD00BFACDF000880B582B016
:101A900000AF786039607B681846396864224FF47B
:101AA000FA6307F08DFB7B68034A1A607B6818466F
:101AB0000837BD4680BD00BF08E9000800000000EF
:101AC00080B582B000AF78607B6850331846FFF76E
:101AD000DBFE7B6850331846FFF70AFF01F0ECF895
:101AE0000CA3D3E90023121843EB01031046194657
:101AF000002207F0B5FC7B6850331846FFF706FF5D
:101B0000034801F035FE0837BD4680BDAFF30080C5
:101B100034E0000800E40B5402000000AFF3008042
:101B200080B584B000AF786007F10F030A4819460A
:101B30004FF000024FF0000300F052F8FB7B074823
:101B4000194601F015FE7B6803F15002FB7B10463D
:101B50001946FFF7EDFEE7E7D80B002048E0000844
:101B600080B582B000AF78607B68084A1A607B68F5
:101B70001846FFF755FF0023002B02D0786800F0CD
:101B80005BFF7B6818460837BD4680BDF0E800085B
:101B900080B582B000AF78607868FFF7E1FF7868C1
:101BA00000F04AFF7B6818460837BD4680BD00BF7D
:101BB00080B582B000AF78607B68184600F09AF874
:101BC0007B68064A1A607B6800225A617B680022A3
:101BD0009A617B6818460837BD4680BDD8E8000882
:101BE00080B588B000AFF860B960C7E90023002372
:101BF000FB7740F2EB3001F027F803460133BB617D
:101C000034E0FB681846B96800F08CF80346FB77AF
:101C1000FB7F83F00103DBB2002B20D007F0F8FB41
:101C20000246FB685A61D7E9002352EA030107D153
:101C30004FF0FF306FF00041002207F011FC0BE085
:101C400001F03AF8D7E90023121843EB01031046DC
:101C50001946002207F004FCFB6800225A61BB69A8
:101C6000013B184600F0F0FF0023BB61BB69002B6D
:101C7000C7D1FB7F83F00103DBB2002B06D0FB68EA
:101C80001846B96800F04EF80346FB77FB7F002B3F
:101C90001AD040F2EB3000F0D7FF034601337B61EE
:101CA0000FE0FB689B69002B04D0FB689B6918461A
:101CB00007F0BAFB7B69013B184600F0C5FF002323
:101CC0007B617B69002BECD1FB7F18462037BD463A
:101CD00080BD00BF80B483B000AF78607B68044AE9
:101CE0001A607B6818460C37BD465DF8047B704768
:101CF00020E9000880B582B000AF78607B681846A4
:101D0000FFF7E8FF7B68064A1A607B6800221A61C9
:101D10007B680022DA607B6818460837BD4680BDC4
:101D2000F0E8000880B582B000AF786039607B6869
:101D30001A697B68DB689A4214BF00230123DBB277
:101D4000002B01D0002310E07B681B697A681344E4
:101D50001A793B681A707B681B697868194600F02D
:101D600009F802467B681A61012318460837BD4608
:101D700080BD00BF80B483B000AF786039603B683D
:101D8000032B02DC3B68013300E0002318460C37CC
:101D9000BD465DF8047B704780B582B000AF7860C7
:101DA0007B68084A1A607B681846FFF7D9FE002353
:101DB000002B02D0786800F03FFE7B681846083799
:101DC000BD4680BDD8E8000880B582B000AF78601D
:101DD0007868FFF7E1FF786800F02EFE7B68184610
:101DE0000837BD4680BD00BF80B584B002AF7860C3
:101DF00039607B68012B24D13A684FF6FF739A4211
:101E00001FD111484FF0FF31104AFFF725FB0E4854
:101E10000F49104A08F0C4F90F48FFF7C9FE0E48F1
:101E20000E490C4A08F0BCF9002300930C480649FF
:101E3000094A0C4B00F00AFE09480B49054A08F014
:101E4000AFF90837BD4680BDB40B002068E000083C
:101E5000551500082C0E0020D80B0020991D0008F5
:101E6000F40B002078E00008C519000880B586B0A2
:101E700000AFF860B9607A603B607B68012B04D9E1
:101E8000154800F07BFC002322E0FB681846396807
:101E900000F03EF80346FB7440F2EB3000F0D4FE55
:101EA000034601337B610FE0FB685B69002B04D0C4
:101EB000FB685B69184607F0B7FA7B69013B184677
:101EC00000F0C2FE00237B617B69002BECD1FB7C20
:101ED00018461837BD4680BD84E0000880B584B040
:101EE00000AFF860B9607A603B607B68012B04D971
:101EF000064800F043FC002304E0F868396800F06D
:101F000007F8034618461037BD4680BD98E0000824
:101F100080B584B000AF786039607B68DB68786832
:101F20001946FFF727FFF8607B681A69FB689A4239
:101F300014BF00230123DBB2002B01D000230AE0F1
:101F40007B68DB683A68127879680B441A717B68A1
:101F5000FA68DA60012318461037BD4680BD00BF1D
:101F600080B500AF01204FF6FF71FFF73DFF80BD48
:101F700080B582B000AF786039607B681846074949
:101F800064224FF4FA6307F01BF97B68044A1A6075
:101F90007B6818460837BD4680BD00BF54E1000885
:101FA00068E9000880B483B000AF78600C37BD46A4
:101FB0005DF8047B704700BF80B586B000AF7860E5
:101FC00007F10C03084819464FF000024FF00003D8
:101FD00000F0A2F8054801F0CBFB07F10C0378688C
:101FE000194600F005F8EBE7240C002064E1000836
:101FF00080B584B000AF7860396078683968164A77
:1020000000F034F80346002B0FD03B689B6818465D
:1020100008F0CCF80346DBB2FB7307F10F030F485F
:1020200019460122FFF730FA12E0786839680C4A45
:1020300000F01CF80346002B0AD178683968094A79
:1020400000F014F80346002B02D1074801F090FB82
:102050001037BD4680BD00BF7CE10008B40B0020F6
:1020600084E100088CE1000894E1000880B584B0A8
:1020700000AFF860B9607A60BB681846796800F014
:10208000A5FC0346002B14BF00230123DBB2184636
:102090001037BD4680BD00BF80B582B000AF78600C
:1020A0007B68084A1A607B681846FFF7B9FC002372
:1020B000002B02D0786800F0BFFC7B681846083718
:1020C000BD4680BD50E9000880B582B000AF7860A1
:1020D0007868FFF7E1FF786800F0AEFC7B6818468F
:1020E0000837BD4680BD00BF80B582B000AF7860C4
:1020F0007B68184600F08AF87B68064A1A607B689D
:1021000000229A647B680022DA647B6818460837EC
:10211000BD4680BD38E9000880B588B000AFF860E2
:10212000B960C7E900230023FB7740F2EB3000F0F1
:102130008BFD03460133BB6134E0FB681846B96888
:1021400000F07CF80346FB77FB7F83F00103DBB2F2
:10215000002B20D007F05CF90246FB689A64D7E9AF
:10216000002352EA030107D14FF0FF306FF0004126
:10217000002207F075F90BE000F09EFDD7E900237F
:10218000121843EB010310461946002207F068F9C4
:10219000FB6800229A64BB69013B184600F054FDBD
:1021A0000023BB61BB69002BC7D1FB7F83F0010318
:1021B000DBB2002B06D0FB681846B96800F03EF889
:1021C0000346FB77FB7F002B1AD040F2EB3000F088
:1021D0003BFD034601337B610FE0FB68DB6C002BAA
:1021E00004D0FB68DB6C184607F01EF97B69013BE5
:1021F000184600F029FD00237B617B69002BECD1A0
:10220000FB7F18462037BD4680BD00BF80B582B039
:1022100000AF78607B681846FFF75CFD7B68064A74
:102220001A607B6800225A647B6800221A647B680B
:1022300018460837BD4680BD50E9000880B582B019
:1022400000AF786039607B685A6C7B681B6C9A427F
:1022500014BF00230123DBB2002B01D0002317E0C1
:102260007B685A6C3968786813465B0013449B009E
:10227000C2180B46043207CA83E807007B685B6C10
:102280007868194600F008F802467B685A64012312
:1022900018460837BD4680BD80B483B000AF786073
:1022A00039603B68032B02DC3B68013300E000230C
:1022B00018460C37BD465DF8047B704780B582B088
:1022C00000AF78607B68084A1A607B681846FFF7A1
:1022D000E3FE0023002B02D0786800F0ADFB7B68A2
:1022E00018460837BD4680BD38E9000880B582B081
:1022F00000AF78607868FFF7E1FF786800F09CFB3A
:102300007B6818460837BD4680BD00BF80B584B0E5
:1023100002AF786039607B68012B19D13A684FF6BB
:10232000FF739A4214D10C48FFF7DEFE0A480B49AE
:102330000B4A07F035FF002300930A480A49064A72
:102340000A4B00F083FB07480949054A07F028FFBC
:102350000837BD4680BD00BF240C0020BD22000808
:102360002C0E0020740C0020D8080020B0E10008DA
:10237000C519000880B586B000AFF860B9607A6012
:102380003B607B680C2B04D9154800F0F7F900235B
:1023900022E0FB681846396800F03EF80346FB74FB
:1023A00040F2EB3000F050FC034601337B610FE05C
:1023B000FB689B6C002B04D0FB689B6C184607F0F5
:1023C00033F87B69013B184600F03EFC00237B613B
:1023D0007B69002BECD1FB7C18461837BD4680BDCD
:1023E000B4E1000880B584B000AFF860B9607A60ED
:1023F0003B607B680C2B04D9064800F0BFF9002332
:1024000004E0F868396800F007F80346184610370A
:10241000BD4680BDC8E1000880B584B000AF7860DB
:1024200039607B681B6C78681946FFF735FFF860E8
:102430007B685A6CFB689A4214BF00230123DBB20D
:10244000002B01D0002310E07B681A6C79681346DA
:102450005B0013449B000B443A68043307CA83E8CB
:1024600007007B68FA681A64012318461037BD46D6
:1024700080BD00BF80B500AF01204FF6FF71FFF7B0
:1024800045FF80BD80B582B000AF786039607B6861
:10249000012B10D13A684FF6FF739A420BD10748CF
:1024A0003C2101F0B9FB06483D2101F0B5FB054890
:1024B0003E2101F0B1FB0837BD4680BDA40C0020D1
:1024C000C00C0020DC0C002080B500AF01204FF6CE
:1024D000FF71FFF7D7FF80BD80B483B000AF786095
:1024E0007B681B6818460C37BD465DF8047B704757
:1024F00080B483B000AF78607B685B6818460C37A7
:10250000BD465DF8047B704780B483B000AF78604F
:102510000C37BD465DF8047B704700BF80B584B0C2
:1025200000AFF860B9607A60FB6804331846094967
:10253000BA68002300F05AF9FB68074A1A60FB6882
:102540007A685A61FB6801221A76FB6818461037D0
:10255000BD4680BDF80C002080E9000880B582B03F
:1025600000AF78607B680A4A1A600A4800F006F9F2
:102570007B680433184600F081F90023002B02D059
:10258000786800F059FA7B6818460837BD4680BD68
:1025900080E90008D8E1000880B582B000AF78601B
:1025A0007868FFF7DBFF786800F046FA7B6818462A
:1025B0000837BD4680BD00BF80B483B000AF7860EF
:1025C0007B6801221A760C37BD465DF8047B7047A4
:1025D00080B483B000AF78607B6800221A760C3735
:1025E000BD465DF8047B704780B485B000AFF860ED
:1025F000B9607A603B604FF0FF3318461437BD4630
:102600005DF8047B704700BF90B583B000AF154BF9
:102610001B68002B03D0134B1B68043B00E0002316
:102620007B6018E07B685C697B6804331846FFF7C1
:102630005FFF03460C4821461A4600F059F87B68B4
:1026400004331846FFF748FF0346002B01D0043B34
:1026500000E000237B607B68002BE3D10C37BD4694
:1026600090BD00BFF80C0020ECE1000880B582B0FE
:1026700000AF78607B68064A1A600023002B02D006
:10268000786800F0D9F97B6818460837BD4680BDE8
:10269000A0E9000880B582B000AF78607868FFF7E5
:1026A000E5FF786800F0C8F97B6818460837BD4632
:1026B00080BD00BF80B582B000AF78600B46FB7074
:1026C00097F90330184606F095FA0837BD4680BDE5
:1026D00080B483B000AF78607B68044A1A607B687E
:1026E00018460C37BD465DF8047B7047A0E900082A
:1026F0000FB480B582B000AF1C4B1B68002B2FD0ED
:102700003B461846FFF7E4FF07F114037B60184BC4
:102710001B68002B05D0164B1B681648194601F0A4
:1027200027F806F053FC034683F00103DBB2002BCD
:1027300005D03B461846396900F0A8FD0AE00E486E
:1027400006F092FC3B461846396900F09FFD0A48A6
:1027500006F0E8FC06F090FA3B461846FFF786FFC5
:102760000837BD46BDE8804004B070470400002033
:10277000FC0C002008E20008000D002080B582B0AB
:1027800000AF7860074B7A681A6007487968FFF7EE
:10279000AFFF064B1B685A1C044B1A600837BD4636
:1027A00080BD00BF000000201CE20008FC0C0020DF
:1027B00080B582B000AF786039607B68012B07D1AB
:1027C0003A684FF6FF739A4202D1034806F034FC90
:1027D0000837BD4680BD00BF000D002080B500AFAA
:1027E00001204FF6FF71FFF7E3FF80BD80B584B095
:1027F00000AFF860B9607A603B60FB683A68DA6005
:10280000FB687A685A60084B1B68591C064A1160BD
:10281000FA689360F868B96800F008F8FB68184631
:102820001037BD4680BD00BF100D002080B582B0BE
:1028300000AF786039603B681A687B681A603B6853
:102840007A681A600A4B1B68002B0CBF0023012317
:10285000DBB2002B08D00748FFF790FF7B685B686E
:1028600005481946FFF744FF0837BD4680BD00BF45
:102870000420002048E200087CE2000880B582B015
:1028800000AF78600348FFF779FF7B681846083788
:10289000BD4680BDA0E2000880B485B000AF78607E
:1028A0000023FB607B68002B01D100230BE005E0D7
:1028B000FB680133FB607B6801337B607B681B78BE
:1028C000002BF5D1FB6818461437BD465DF8047B34
:1028D000704700BF80B487B000AFF860B9607A601D
:1028E000FB68002B01D1FB6810E0FB687B6109E00D
:1028F000BB68DAB27B691A707B6901337B617B68E4
:10290000013B7B607B68002BF2D1FB6818461C37CB
:10291000BD465DF8047B704780B487B000AFF860B7
:10292000B9607A60FB687B61BB683B617B69002BA7
:1029300002D03B69002B01D1002311E00CE03B6980
:102940001A787B691A707B68013B7B603B690133B5
:102950003B617B6901337B617B68002BEFD1FB68B6
:1029600018461C37BD465DF8047B704780B487B0BD
:1029700000AFF860B9607A60FB687B617B69002B0F
:1029800002D0BB68002B01D1002319E011E0BB6825
:102990001A787B691A70BB681B78002B00D10BE09A
:1029A000BB680133BB607B6901337B617B68013BA2
:1029B0007B607B68002BEAD17B6900221A70FB6880
:1029C00018461C37BD465DF8047B704780B485B05F
:1029D00000AF786039607B68002B07D13B68002B23
:1029E00001D1002301E04FF0FF331FE03B68002BD3
:1029F00001D101231AE07B685A1C7A601B78FB73B3
:102A00003B685A1C3A601B78BB73FA7BBB7B9A42CB
:102A100002D24FF0FF3309E0FA7BBB7B9A4201D927
:102A2000012303E0FB7B002BE5D10023184614377C
:102A3000BD465DF8047B704780B483B000AF78601A
:102A40000C37BD465DF8047B704700BF80B584B08D
:102A500000AFF860B9607A603B60FB6804331846E9
:102A60001049114A0023FFF7C1FEFB680F4A1A60A4
:102A7000FB68BA685A61FB682033184606F0DCFA36
:102A8000FB683A7E1A77FB6801225A77FB683A683E
:102A90009A60FB687A689A61FB6818461037BD46F1
:102AA00080BD00BFC8200020C8E20008B8E90008C7
:102AB00080B485B000AFF860B9607A603B60034BCA
:102AC00018461437BD465DF8047B704715CD5B078B
:102AD00090B587B002AFF860B9607A603B60FB6880
:102AE0005B7F83F00103DBB2002B01D000233DE0CC
:102AF000FB682033184606F0B7FAFB689B69002B89
:102B00000FD0FB689B691B6808331C68FB689A69D7
:102B10007B68396A00911046B9681A463B68A0473D
:102B200018E0FB681B681C683B6A5B690093F868E7
:102B3000B9687A683B68A04702460E4B9A420CBFC0
:102B400000230123DBB2002B04D00B48FFF716FE55
:102B500001230BE0FB682033184606F0E3FAFB681C
:102B60009B69002B01D0012300E000231846143795
:102B7000BD4690BD15CD5B07D4E2000890B58DB081
:102B800002AFF860B9607A603B60FB689B69002B1C
:102B90000FD0FB689B691B6808331C68FB689A6947
:102BA0003B6807F1100100911046B9681A467B682E
:102BB000A0472C37BD4690BD80B485B000AFF8600B
:102BC000C7E90023F968D7E90023C1E90E23F968B2
:102BD000D7E90623C1E910231437BD465DF8047B0D
:102BE000704700BFB0B586B002AF786006E04FF026
:102BF000FF306FF00041002206F032FC7B68D3E921
:102C0000102352EA0301F2D07B68D3E90E23104669
:102C10001946002206F024FC00F04EF8C7E9020134
:102C20007B68D3E90E017B68D3E91023D7E902451D
:102C3000CDE9004500F04AF802460B467968C1E943
:102C40000E231037BD46B0BD80B584B000AF7860AC
:102C500006F0DEFBF860F86806F0C0FBB860F868C4
:102C6000796806F0C7FBBB6818461037BD4680BDC3
:102C700080B483B000AF786079684FF000024FF005
:102C80000003C1E9002379684FF000024FF0000310
:102C9000C1E9022379684FF000024FF00003C1E957
:102CA00004237B680F229A617B6818460C37BD4667
:102CB0005DF8047B704700BF80B500AF05F0DCFE17
:102CC00002460B461046194680BD00BF80B584B051
:102CD00000AFC7E90201C7E90023D7E90223D7E91A
:102CE0000601904271EB030C02DAD7E902232CE0D3
:102CF000D7E9002352EA030104D14FF0FF326FF00D
:102D0000004322E0D7E90601D7E90223821A61EBEA
:102D1000030310461946D7E90023FDF7D3FE024608
:102D20000B46013243F10003396803FB01F0796877
:102D300002FB01F101443868A0FB022319440B4651
:102D4000D7E90201121843EB010310461946103768
:102D5000BD4680BD80B582B000AF786039607B68C9
:102D6000012B07D13A684FF6FF739A4202D103480C
:102D7000FFF77EFF0837BD4680BD00BF180D00205D
:102D800080B500AF01204FF6FF71FFF7E3FF80BD74
:102D900080B586B000AFF860B9607A603B60FB68D0
:102DA000043318462E493A680023FFF71FFDFB68DD
:102DB0002C4A1A60FB6800225A61FB68BA68DA6123
:102DC000FB687A681A62FB6800229A61FB68DB691B
:102DD000B3F1FF3F11D1386806F0D8FD03461A461B
:102DE000FB68DA61FB68DB69B3F57A7F05DAFB68BB
:102DF000DB6903F57A72FB68DA61194B1B68002BFB
:102E000003D0174B1B68043B00E000237B611EE0EE
:102E10007B69DA69BB689A420DD17A69FB689A428C
:102E200009D01148FFF7AAFC7B699B680F48B96875
:102E30003A68FFF75DFC7B6904331846FFF74CFBEB
:102E40000346002B01D0043B00E000237B617B693B
:102E5000002BDDD1FB6818461837BD4680BD00BF8A
:102E6000D820002098E8000834E3000848E3000870
:102E700080B586B002AFF860B9603B601346FB7165
:102E8000FB681B6A1A46FB7939680091F868B968D3
:102E900000F006F8034618461037BD4680BD00BF57
:102EA00090B591B002AFF860B9607A60FB70002312
:102EB0007B63BB6C002B12D100237B62FFF7FCFE0F
:102EC00002460B46C7E9062306F054FE03463B6163
:102ED00006F09EFA03463B6207F11003BB64FB68F1
:102EE0009B69002B0FD0FB689B691B681C68FB6803
:102EF0009969FB68DA697B68B86C009008461146EE
:102F00001A46BB68A047FB685B69002B03D0FB68CF
:102F10005B69043B00E000233B631DE03B6B1B68E7
:102F200004331C68FB68DA697B68B96C0091386B04
:102F300011461A46BB68A04703467A6B13447B636D
:102F40003B6B04331846FFF7C7FA0346002B01D04A
:102F5000043B00E000233B633B6B002BDED1FB789E
:102F600083F00103DBB2002B01D07B6B2CE0184B0C
:102F70005B69002B03D0164B5B69043B00E0002328
:102F8000FB621DE0FB6A1B6804331C68FB68DA699E
:102F90007B68B96C0091F86A11461A46BB68A04775
:102FA00003467A6B13447B63FB6A04331846FFF7CE
:102FB00093FA0346002B01D0043B00E00023FB62A0
:102FC000FB6A002BDED17B6B18463C37BD4690BDBB
:102FD000540D002080B582B000AF78607B680A4A4B
:102FE0001A600A48FFF7CAFB7B681846FEF796F896
:102FF0000023002B02D07868FFF71EFD7B6818467F
:103000000837BD4680BD00BFF8E90008C0E30008EE
:1030100080B582B000AF78607868FFF7DBFF786832
:10302000FFF70AFD7B6818460837BD4680BD00BF24
:1030300080B584B000AFF860B9607A60FB6818466C
:10304000B9680C227B68FFF7A3FEFB68034A1A608D
:10305000FB6818461037BD4680BD00BFF8E9000880
:1030600080B584B000AFF860B9607A60FB6818463C
:10307000B96840F22E527B68FFF78AFEFB68034A6C
:103080001A60FB6818461037BD4680BDE8E90008A5
:1030900080B584B000AFF860B9607A60FB6818460C
:1030A000B96804227B68FFF773FEFB68034A1A6065
:1030B000FB6818461037BD4680BD00BFD8E9000840
:1030C00080B582B000AF786039607B68012B4FD14A
:1030D0003A684FF6FF739A424AD1274827490A2295
:1030E000FFF71CFA24482649264A07F059F82648D3
:1030F0000021264AFFF79CFF23482549214A07F073
:103100004FF824484FF0FF31234AFFF7A9FF214829
:1031100022491C4A07F044F821484FF0FF31214A68
:10312000FFF7B6FF1E482049164A07F039F81F4836
:103130004FF0FF311E4AFFF7ABFF1C481A49114AF6
:1031400007F02EF81B484FF0FF311B4AFFF7A0FF96
:10315000184815490B4A07F023F818484FF0FF317B
:10316000174AFFF765FF15480949064A07F018F89E
:103170000837BD4680BD00BF380D0020D0E30008F1
:103180005D2500082C0E0020540D0020E4E300080B
:10319000D52F0008780D0020F4E300082132000844
:1031A0009C0D002000E40008C5310008C00D00207F
:1031B00010E40008E40D002020E40008080E0020C0
:1031C00034E4000880B582B000AF78607B680A4ABA
:1031D0001A600A48FFF7D2FA7B681846FDF79EFF8F
:1031E0000023002B02D07868FFF726FC7B68184686
:1031F0000837BD4680BD00BFD8E90008C0E300081D
:1032000080B582B000AF78607868FFF7DBFF786840
:10321000FFF712FC7B6818460837BD4680BD00BF2B
:1032200080B582B000AF78607B680A4A1A600A48AD
:10323000FFF7A4FA7B681846FDF770FF0023002B08
:1032400002D07868FFF7F8FB7B6818460837BD4660
:1032500080BD00BFE8E90008C0E3000880B582B087
:1032600000AF78607868FFF7DBFF7868FFF7E4FB72
:103270007B6818460837BD4680BD00BF80B500AFEB
:1032800001204FF6FF71FFF71BFF80BD80B594B0A2
:1032900000AF7860396056E2002387F84E30002393
:1032A00087F84D30002387F84C30002387F84B30E7
:1032B00097F84F30252B0AD07B681B6808331B68B2
:1032C00097F84F2052B27868114698473BE23B6826
:1032D0005A1C3A601B7887F84F30002387F8433038
:1032E000202387F84230032387F8413097F84F3086
:1032F000302B09D197F84F3087F842303B685A1C81
:103300003A601B7887F84F3097F84F302F2B0ED943
:1033100097F84F30392B0AD897F84F30303B87F861
:1033200043303B685A1C3A601B7887F84F3097F857
:103330004F302E2B10D13B685A1C3A601B7887F80F
:103340004F3097F84F30303B87F841303B685A1C7C
:103350003A601B7887F84F3097F84F306C2B08D1C4
:10336000012387F84D303B685A1C3A601B7887F878
:103370004F3097F84F306C2B08D1012387F84C3031
:103380003B685A1C3A601B7887F84F3097F84F30EB
:10339000623B162B38D801A151F823F09534000870
:1033A000F93300087F340008093400087934000834
:1033B00009340008093400080934000809340008F9
:1033C00009340008093400080934000809340008E9
:1033D000633400080934000809340008093400087F
:1033E0001F34000809340008853400080934000837
:1033F000093400088D3400087B685B68191D7A6801
:1034000051601B6887F84F307B681B6808331B6866
:1034100097F84F2052B278681146984793E17B683D
:103420005B68191D7A6851601B687B6409E07B68E2
:103430001B6808331B6897F84F2052B27868114612
:1034400098477B6C5A1C7A641B7887F84F3097F842
:103450004F30002B0CBF00230123DBB2002BE6D141
:1034600071E10823A7F848307B681B6808331B68A4
:1034700078683021984711E0012387F84B30012309
:1034800087F84E300A23A7F8483007E01023A7F842
:10349000483003E00223A7F8483000BF4FF0000295
:1034A0004FF00003C7E90C234FF000024FF0000378
:1034B000C7E90A2397F84B30002B15D07B685B686F
:1034C000073323F0070303F108017A685160D3E959
:1034D0000023C7E90A23D7E90A01FDF725FB0246C5
:1034E0000B46C7E90C232CE097F84C30002B0DD08D
:1034F0007B685B68073323F0070303F108017A68F0
:103500005160D3E90023C7E90C231AE097F84D3046
:10351000002B0BD07B685B68191D7A6851601B68B3
:103520001A464FEAE273C7E90C230AE07B685B683E
:10353000191D7A6851601B681A464FEAE273C7E9A1
:103540000C2397F84E30002B2DD0D7E90C23002AFE
:1035500073F100010ADBD7E90A014FF000024FF0D6
:103560000003FDF73FFA0346002B1CD0D7E90C23DC
:10357000524263EB4303C7E90C23BB6ABB62FB6A9D
:1035800083F00043FB627B681B6808331B68786824
:103590002D21984797F84330002B04D097F84330FB
:1035A000013B87F8433097F84C30002B04D0D7E923
:1035B0000C23C7E90E2310E097F84D30002B06D0FE
:1035C0003B6B1A464FF00003C7E90E2305E03B6B47
:1035D0001A464FF00003C7E90E2307F10C031A3314
:1035E0007B647B6C013B7B647B6C00221A70B7F8B8
:1035F00048204FF00003D7E90E01FDF77FFAD3B260
:103600003033DBB287F8273097F92730392B05DDC7
:1036100097F827300733DBB287F827307B6C013B04
:103620007B6497F827207B6C1A70B7F848204FF01E
:103630000003D7E90E01FDF761FA02460B46C7E920
:103640000E2397F84330002B04D097F84330013B0A
:1036500087F84330D7E90E2352EA0301C7D106E0C9
:103660007B6C013B7B647B6C97F842201A7097F867
:1036700043305A1E87F84320002B0CBF0023012340
:10368000DBB2002BECD109E07B681B6808331B68B8
:1036900097F84F2052B27868114698477B6C5A1CB5
:1036A0007A641B7887F84F3097F84F30002B0CBFA7
:1036B00000230123DBB2002BE6D197F84B30002B1F
:1036C00041D07B681B6808331B6878682E219847B7
:1036D0002DE0D7E90C01FCF7E5FE02460B46D7E9E1
:1036E0000A01FCF759FD02460B46C7E90A23D7E950
:1036F0000A014FF000021D4BFCF702FF02460B4689
:10370000C7E90A23D7E90A01FDF70EFA02460B467C
:10371000C7E90C237B681B6808331B6897F83020C7
:103720003032D2B2D2B252B278681146984797F886
:1037300041305A1E87F84120002B0CBF0023012383
:10374000DBB2002BC5D13B685A1C3A601B7887F866
:103750004F3097F84F30002B0CBF00230123DBB212
:10376000002B7FF499AD5037BD4680BD000024404A
:103770000FB480B582B000AF0C4B1B68002B0FD08C
:103780003B461846FEF7A4FF07F114037B603B4657
:1037900018463969FFF77AFD3B461846FEF766FF83
:1037A0000837BD46BDE8804004B0704704000020E3
:1037B00080B582B000AF0C4B7B6008E07B681B6873
:1037C00098473B6801333B607B6804337B607A68D1
:1037D000064B9A42F2D13B6801333B603B68013BA8
:1037E0003B600837BD4680BD44EE000884EE00080B
:1037F00080B485B000AFF860B9607A6000231846E5
:103800001437BD465DF8047B704700BF80B400AF3D
:10381000FEE700BF002100F004B8124B5B58435094
:1038200004311148114B42189A42FFF4F6AF104A86
:1038300000F003B8002342F8043B0E4B9A42FFF419
:10384000F9AF0D4A00F003B8002342F8043B0B4BDC
:103850009A42FFF4F9AF05F015FAFFF7A9FF06F059
:1038600099FA704784EE000800000020D408002078
:10387000D808002024C10020000000100000001023
:10388000FFF7FEBF80B483B000AF786039603B685B
:1038900018460C37BD465DF8047B70470FB480B402
:1038A00000AF00231846BD465DF8047B04B07047A6
:1038B0000FB480B400AF00231846BD465DF8047B0A
:1038C00004B070470FB480B400AF00231846BD4663
:1038D0005DF8047B04B070470FB480B400AF0023E0
:1038E0001846BD465DF8047B04B070470FB480B441
:1038F00000AF00231846BD465DF8047B04B0704756
:103900000FB480B400AF00231846BD465DF8047BB9
:1039100004B0704780B483B000AF786001231846CC
:103920000C37BD465DF8047B704700BF80B483B0A0
:1039300000AF7860012318460C37BD465DF8047B64
:10394000704700BF80B483B000AF0346FB71084BE3
:1039500097F907205209F97901F01F01012000FAB7
:1039600001F143F822100C37BD465DF8047B704727
:1039700000E100E080B483B000AF0346FB71094B67
:1039800097F907205209F97901F01F01012000FA87
:1039900001F1603243F822100C37BD465DF8047B1C
:1039A000704700BF00E100E080B500AF124B1B780C
:1039B00083F00103DBB2002B1CD00F4B01221A70E5
:1039C0004FF48040012103F007FB0620FFF7BAFF08
:1039D0000720FFF7B7FF0820FFF7B4FF0920FFF724
:1039E000B1FF0A20FFF7AEFF1720FFF7ABFF28203B
:1039F000FFF7A8FF80BD00BF700E002080B582B029
:103A000000AF7860F970BA707B707B68FA781A70D2
:103A10007B68BA781A727B687A785A72786800F094
:103A20001FF8786800F052F87B680C33184603F0F2
:103A3000F9F87B685B891A467B68DA607B6802224A
:103A40005A747B6800221A747B6800221A777B689C
:103A500000225A777B6818460837BD4680BD00BFF4
:103A600080B483B000AF78607B681B7A1A467B68AD
:103A70001B7803F00F031344102B0BDD7B681B78BE
:103A800003F00F034FF6FF7202FA03F39AB27B685A
:103A90005A8116E07B681B7AC3F110034FF6FF7260
:103AA00042FA03F39AB27B685A817B685B891A46B3
:103AB0007B681B7803F00F0302FA03F39AB27B686A
:103AC0005A810C37BD465DF8047B704780B483B0E3
:103AD00000AF78607B681B780F2B06D87B68364A6E
:103AE0005A617B6801229A6160E07B681B781F2B1A
:103AF00006D87B68314A5A617B6802229A6155E098
:103B00007B681B782F2B06D87B682D4A5A617B680F
:103B100004229A614AE07B681B783F2B06D87B68B9
:103B2000284A5A617B6808229A613FE07B681B78CB
:103B30004F2B06D87B68244A5A617B6810229A6111
:103B400034E07B681B785F2B06D87B681F4A5A617C
:103B50007B6820229A6129E07B681B786F2B06D84E
:103B60007B681B4A5A617B6840229A611EE07B6831
:103B70001B78DBB25BB2002B06DB7B68154A5A610F
:103B80007B6880229A6111E07B681B788B2B07D8B9
:103B90007B68114A5A617B684FF480729A6105E034
:103BA0007B6800225A617B6800229A610C37BD460F
:103BB0005DF8047B704700BF000002400004024033
:103BC00000080240000C02400010024000140240B5
:103BD00000180240001C02400020024080B582B064
:103BE00000AF78607B6801225A777B685B681B684E
:103BF00030331B687A68526810469847054B7A68DC
:103C0000127802F00F02012101FA02F25A6108371C
:103C1000BD4680BD003C014090B583B000AF7860E8
:103C20000B46FB707B68184605F002FF7B68134A61
:103C30001A60202006F01CF902467B689A617B68B6
:103C40009B6920201946FFF71DFE0446002C08D072
:103C5000FB782046194601220023FFF7CFFE2346BA
:103C600000E023467A6893617B689B697A685A60B2
:103C70007B6818460C37BD4690BD00BF08EA0008B7
:103C800080B584B000AFF8607A603B600B46FB7291
:103C90007B68002B04D0FB689B697A68D2B21A72E9
:103CA000FB689B69FA7A5A72FB689B691846FFF7B2
:103CB000D7FEFB689B695B69002B02D14FF0FF3395
:103CC0001DE0FB689B699B691846012103F048F9D8
:103CD000FB689B695B7A002B09D0F8680021012200
:103CE00000F012F8F868396800F0D8F804E0F868D5
:103CF0000021002200F008F8FFF756FE00231846C6
:103D00001037BD4680BD00BF80B584B000AFF860FD
:103D10000B467A60FB72FB7A042B00F29B8001A2B7
:103D200052F823F0393D0008793D0008C33D0008F2
:103D3000FF3D00083B3E00087B68002B08D0FB6875
:103D40009B6901225A72FB689B6901221A7407E081
:103D5000FB689B6900225A72FB689B6900221A74F7
:103D6000FB689B695A69FB689B690C3310461946CE
:103D700002F0CAFE00236FE07B68002B1ED07B6838
:103D8000FF2B1BD8FB689B697A68D2B21A72FB685A
:103D90009B691846FFF764FEFB689B69FA689269A5
:103DA0005289DA60FB689B695A69FB689B690C332E
:103DB0001046194602F0A8FE00234DE04FF0FF33F5
:103DC0004AE07B68002B17D07B68002B04D0FB688F
:103DD0009B690122DA7403E0FB689B690022DA74B4
:103DE000FB689B695A69FB689B690C33104619464E
:103DF00002F08AFE00232FE04FF0FF332CE07B68B7
:103E0000002B17D07B68002B04D0FB689B69022233
:103E1000DA7403E0FB689B690022DA74FB689B6933
:103E20005A69FB689B690C331046194602F06CFE18
:103E3000002311E04FF0FF330EE07B68022B06D821
:103E4000FB689B697A68D2B21A77002304E04FF0CE
:103E5000FF3301E04FF0FF3318461037BD4680BDF9
:103E600080B582B000AF78607868002100F070F80B
:103E7000786800210022FFF747FF7B689B695B6938
:103E8000184602F08FFD7B689B699B6918460021EC
:103E900003F066F80837BD4680BD00BF80B584B02A
:103EA00000AF7860396000237B817B689B695B7A17
:103EB000002B3BD040F2EB30FEF7C6FE0346013349
:103EC000FB6030E07B689B695B69184602F0C4FECA
:103ED00003469AB27B689B695B899BB2DB439BB2CA
:103EE00013409BB27B817B689B691B7803F00F03B7
:103EF0003A6802FA03F39AB27B689B695B891340C4
:103F00009AB27B8913437B817B689B695A697B8961
:103F10001046194602F0BCFEFB68013B1846FEF74E
:103F200093FE0023FB60FB68002BCBD11037BD460E
:103F300080BD00BF80B483B000AF78607B689B69B0
:103F40005B7F18460C37BD465DF8047B704700BFA9
:103F500080B586B000AF78600B46FB707B689B69CC
:103F60001B781B09DBB27B617B689B691B7803F0C4
:103F70000F033B613B69FB60FB78002B5DD0464B38
:103F8000FA6853F822207B689B699A4200D17FE04F
:103F9000414BFA6853F82230002B4AD17B689B6969
:103FA0001B7A012B03D93D48FEF7E8FB70E07B69E3
:103FB000DAB23B69DBB21046194603F0BFF87B6802
:103FC0009B691B7F012B04D07B689B691B7F002BA7
:103FD00008D1334B324A916801203A6900FA02F263
:103FE0000A439A607B689B691B7F022B04D07B6825
:103FF0009B691B7F002B08D1294B294AD1680120DE
:104000003A6900FA02F20A43DA607B689969224B46
:10401000FA6843F822107B689B6900225A77204B8C
:104020001F4A116801203A6900FA02F20A431A6035
:104030002EE01C48FEF7A2FB2AE0174BFA6853F863
:1040400022207B689B699A4222D1154B144A116841
:1040500001203A6900FA02F2D2430A401A60104B7A
:104060000F4A916801203A6900FA02F2D2430A40ED
:104070009A600B4B0A4AD16801203A6900FA02F2B1
:10408000D2430A40DA60044BFA68002143F8221058
:104090001837BD4680BD00BF300E002040E4000848
:1040A000003C014064E4000880B500AF064B1B688B
:1040B000002B04D0044B1B681846FFF78FFD062029
:1040C000FFF758FC80BD00BF300E002080B500AF68
:1040D000064B5B68002B04D0044B5B681846FFF767
:1040E0007DFD0720FFF746FC80BD00BF300E00209D
:1040F00080B500AF064B9B68002B04D0044B9B6837
:104100001846FFF76BFD0820FFF734FC80BD00BFA9
:10411000300E002080B500AF064BDB68002B04D0CA
:10412000044BDB681846FFF759FD0920FFF722FC16
:1041300080BD00BF300E002080B500AF064B1B696C
:10414000002B04D0044B1B691846FFF747FD0A20DB
:10415000FFF710FC80BD00BF300E002080B582B09C
:1041600000AF134B5B693B6005237B6017E03A6847
:104170007B6822FA03F303F00103002B0CD00D4BF4
:104180007A6853F82230002B06D00A4B7A6853F82D
:1041900022301846FFF722FD7B6801337B607B6885
:1041A000092BE4DD1720FFF7E5FB0837BD4680BD8E
:1041B000003C0140300E002080B582B000AF134BB0
:1041C0005B693B600A237B6017E03A687B6822FAF0
:1041D00003F303F00103002B0CD00D4B7A6853F866
:1041E0002230002B06D00A4B7A6853F8223018464A
:1041F000FFF7F4FC7B6801337B607B680F2BE4DD09
:104200002820FFF7B7FB0837BD4680BD003C0140C2
:10421000300E002080B483B000AF786000231846D1
:104220000C37BD465DF8047B704700BF80B483B097
:1042300000AF78600B46FB707B68FA781A707B6879
:1042400018460C37BD465DF8047B704780B483B0D8
:1042500000AF78607B6818460C37BD465DF8047B7C
:10426000704700BF90B583B000AF78600B46FB701D
:104270007B68184605F0DCFB7B68664A1A60FB78B1
:10428000002B01D10123FB70FB78032B01D9032301
:10429000FB70FB785A1E13465B0013441B015E4AF9
:1042A000134430201946FFF7EDFA0446002C06D0DF
:1042B000FB7820461946FFF7B9FF234600E0234666
:1042C0007A6893617B689B69012283F82C20FB78D4
:1042D000022B35D0032B65D0012B00D094E07B68F6
:1042E0009B694E4A5A607B689B694FF400129A6042
:1042F0007B689B69042283F825207B689B69484A78
:104300001A617B689B6902225A617B689B69402223
:104310009A817B689B6906221A767B689B69404A72
:10432000DA617B689B6902221A627B689B694FF4A1
:1043300000725A837B689B69092283F8242063E01A
:104340007B689B69374A5A607B689B694FF480029F
:104350009A607B689B69042283F825207B689B69AF
:104360002F4A1A617B689B6902225A617B689B69AC
:104370004FF480629A817B689B690A221A767B6877
:104380009B69274ADA617B689B6902221A627B6813
:104390009B694FF400625A837B689B690B2283F808
:1043A000242031E07B689B691F4A5A607B689B69C7
:1043B0004FF400029A607B689B69042283F82520F1
:1043C0007B689B69194A1A617B689B6901225A6163
:1043D0007B689B694FF480729A817B689B69082295
:1043E0001A767B689B69124ADA617B689B690422B2
:1043F0001A627B689B694FF400725A837B689B69E1
:10440000092283F8242000BF7B6818460C37BD467C
:1044100090BD00BF48EA0008740E00200054004020
:104420000004024000580040005C004000000240D0
:104430000008024080B584B000AF78607B689B695B
:104440005B681846002102F0B1FC7B689B695B68E1
:10445000184602F071FC7B689B699B681846002136
:1044600002F09CFD07F10803184602F0DBFB002375
:104470003B737B689B699B89BB607B689B691A69FE
:1044800007F108031046194602F03EFB7B689B6962
:104490005B8BBB607B689B69DA6907F10803104698
:1044A000194602F031FB1037BD4680BD80B483B0A1
:1044B00000AF7860012318460C37BD465DF8047BD9
:1044C000704700BF80B483B000AF78600123184606
:1044D0000C37BD465DF8047B704700BFB0B582B0B5
:1044E00000AF786039607B68012B10D13A684FF6D5
:1044F000FF739A420BD1074B02241D4604E0284665
:10450000FFF7A4FE3035013CB4F1FF3FF7D1083787
:10451000BD46B0BD740E002080B500AF01204FF63F
:10452000FF71FFF7DBFF80BD80B483B000AF786020
:10453000002318460C37BD465DF8047B704700BF6A
:1045400080B483B000AF7860012318460C37BD46B5
:104550005DF8047B704700BF90B583B000AF786012
:104560000B46FB707B68184605F062FA7B680E4AC2
:104570001A60242005F07CFC034624201946FFF72E
:1045800081F90446002C06D0FB782046194600F03D
:1045900037FD234600E023467A6893617B6818461E
:1045A0000C37BD4690BD00BF88EA000880B58EB0CC
:1045B00000AFF860B9607A60FB689B691B6A002BEA
:1045C00004DBFB689B691B6A0F2B02DD4FF0FF3396
:1045D0001FE3012387F83730002387F8363007F1CF
:1045E0001C03184602F012FC00233B63FB689B6926
:1045F0001A69964B9A4202D1BB6A3B6301E07B6A1F
:104600003B633A6A3B6BB2FBF3F3012B03D9022302
:1046100087F8363002E0012387F83630FB689B6963
:1046200097F83620396B01FB02F25A61FB689B69EF
:10463000BA685A60FB689B695A69FB689B695B684A
:10464000B2FBF3F3FB62FB689B691B6A032B04DD7F
:10465000FB689B691B6A072B06DDFB6AB3F5803F8D
:1046600002DB4FF6FF73FB627A68FB6A9A4201DD58
:10467000FB6A7B60FB689B697A681A60FB689B69D0
:1046800001229A6007F11403184602F0CBFA0123C5
:104690003B760023BB7603237B760023FB76FB6807
:1046A0009B691A69694B9A4240F09480102001215D
:1046B00002F056FC1020002102F0ACFCFB689B6964
:1046C0001B7B032B7ED801A252F823F0DD460008A5
:1046D00017470008514700088B470008FB689B6993
:1046E0004FF400727A617A699A61FB689B69584A53
:1046F000DA61FB689B69DA6907F114031046194611
:1047000002F002FAFB689B69DB6918460921012265
:1047100002F0CCFA56E0FB689B694FF400627A61C4
:104720007A699A61FB689B69494ADA61FB689B690F
:10473000DA6907F114031046194602F0E5F9FB683F
:104740009B69DB6918460B21012202F0AFFA39E0C0
:10475000FB689B694FF400527A617A699A61FB6841
:104760009B693B4ADA61FB689B69DA6907F11403CC
:104770001046194602F0C8F9FB689B69DB691846C8
:104780000D21012202F092FA1CE0FB689B694FF4B4
:1047900080427A617A699A61FB689B692C4ADA6186
:1047A000FB689B69DA6907F114031046194602F0A9
:1047B000ABF9FB689B69DB6918460E21012202F008
:1047C00075FA00BF0120012102F006FC012387F8E1
:1047D0003730E0E1FB689B691B69B3F1804F40F023
:1047E00097800120012102F0BBFB0120002102F093
:1047F00011FCFB689B691B7B032B00F2818001A2EB
:1048000052F823F01548000859480008914800085C
:10481000C9480008FB689B6901227A617A699A613C
:10482000FB689B690B4ADA61FB689B69DA6907F1EF
:1048300014031046194602F067F9FB689B69DB69AF
:1048400018460021012202F031FA59E0000001402F
:104850000010024000000240FB689B6902227A615E
:104860007A699A61FB689B69944ADA61FB689B6983
:10487000DA6907F114031046194602F045F9FB689E
:104880009B69DB6918460121012202F00FFA37E02B
:10489000FB689B6904227A617A699A61FB689B696B
:1048A000864ADA61FB689B69DA6907F114031046EE
:1048B000194602F029F9FB689B69DB691846022159
:1048C000012202F0F3F91BE0FB689B6908227A6180
:1048D0007A699A61FB689B69784ADA61FB689B692F
:1048E000DB6918460321012202F0E0F9FB689B69AD
:1048F000DA6907F114031046194602F005F900BF02
:104900000120012102F04AFB022387F8373042E1FF
:10491000FB689B691A696A4B9A4240F091800720B4
:10492000012102F01DFB0720002102F073FBFB6850
:104930009B691B7B032B7BD801A252F823F000BF9D
:104940005149000889490008C1490008F94900088F
:10495000FB689B6940227A617A699A61FB689B696E
:10496000564ADA61FB689B69DA6907F1140310465D
:10497000194602F0C9F8FB689B69DB6918460621F5
:10498000022202F093F953E0FB689B6980227A616E
:104990007A699A61FB689B694A4ADA61FB689B699C
:1049A000DA6907F114031046194602F0ADF8FB6806
:1049B0009B69DB6918460721022202F077F937E08C
:1049C000FB689B6901227A617A699A61FB689B693D
:1049D0003D4ADA61FB689B69DA6907F11403104606
:1049E000194602F091F8FB689B69DB6918460021C3
:1049F000022202F05BF91BE0FB689B6902227A61EC
:104A00007A699A61FB689B692F4ADA61FB689B6946
:104A1000DA6907F114031046194602F075F8FB68CD
:104A20009B69DB6918460121022202F03FF900BFB1
:104A30000220012102F0B2FA032387F83730AAE0FE
:104A4000FB689B691A69214B9A4240F0A1800820BB
:104A5000012102F085FA0820002102F0DBFAFB6850
:104A60009B691B7B032B00F28B8001A252F823F081
:104A7000814A0008D54A00080D4B0008474B000842
:104A8000FB689B694FF480527A617A699A61FB688E
:104A90009B690F4ADA61FB689B69DA6907F11403C5
:104AA0001046194602F030F8FB689B69DB6918462E
:104AB0000C21022202F0FAF862E000BF000002407E
:104AC00000040040000802400004024000080040CA
:104AD000000C0240FB689B6980227A617A699A61C6
:104AE000FB689B694D4ADA61FB689B69DA6907F1EB
:104AF00014031046194602F007F8FB689B69DB694E
:104B000018460721022202F0D1F839E0FB689B69C0
:104B10004FF480727A617A699A61FB689B693F4AB7
:104B2000DA61FB689B69DA6907F1140310461946DC
:104B300001F0EAFFFB689B69DB6918460821022245
:104B400002F0B4F81CE0FB689B694FF400727A61D4
:104B50007A699A61FB689B69304ADA61FB689B69F4
:104B6000DA6907F114031046194601F0CDFFFB681E
:104B70009B69DB6918460921022202F097F800BF01
:104B80000420012102F00AFA042387F8373002E0FA
:104B90004FF0FF333DE0FB689B69DA69FB689B6976
:104BA0009B699BB21046194602F064F897F93730BA
:104BB000013B1B4AD35C002B0BD1FB689B691B6933
:104BC000184602F0F9FA97F93730013B144A0121EF
:104BD000D154FB689B691A69124B9A4206D1FB6853
:104BE0009B691B691846012102F0A6FFFB689B69BF
:104BF0001B69184603F024F8FB689B69184600F00F
:104C00006FFAFB689B691B691846012102F058FC8A
:104C1000002318463837BD4680BD00BF000402405F
:104C2000040F00200000014080B584B000AF786020
:104C30007B689B691B6A002BC0F208817B689B69BB
:104C40001B6A0F2B00F302817B689B691B69184666
:104C500002F0B2FA07F10803184601F0E3FF00235F
:104C60003B737B689B691A697A4B9A4239D17B689E
:104C70009B691B7B032B00F2E98001A252F823F011
:104C8000914C0008A54C0008B94C0008CD4C000818
:104C90004FF40073BB6007F108036F48194601F039
:104CA00033FF1DE04FF40063BB6007F108036A485F
:104CB000194601F029FF13E04FF40053BB6007F1E0
:104CC00008036548194601F01FFF09E04FF48043CF
:104CD000BB6007F108036048194601F015FF00BFEB
:104CE000B4E07B689B691B69B3F1804F35D17B6869
:104CF0009B691B7B032B00F2A98001A252F823F0D1
:104D0000114D0008234D0008354D0008474D00089F
:104D10000123BB6007F108035048194601F0F4FE77
:104D20001AE00223BB6007F108034C48194601F062
:104D3000EBFE11E00423BB6007F108034748194666
:104D400001F0E2FE08E00823BB6007F108034348D6
:104D5000194601F0D9FE00BF78E07B689B691A69AB
:104D60003F4B9A4235D17B689B691B7B032B6DD8E7
:104D700001A252F823F000BF894D00089B4D0008A6
:104D8000AD4D0008BF4D00084023BB6007F108038C
:104D90003248194601F0B8FE1AE08023BB6007F1E3
:104DA00008033048194601F0AFFE11E00123BB6053
:104DB00007F108032C48194601F0A6FE08E002237B
:104DC000BB6007F108032848194601F09DFE00BFAB
:104DD0003CE07B689B691A69244B9A4236D17B6818
:104DE0009B691B7B032B31D801A252F823F000BF33
:104DF000014E0008134E0008254E0008394E0008E9
:104E00004023BB6007F108031748194601F07CFEF8
:104E10001CE08023BB6007F108031348194601F02A
:104E200073FE13E04FF48073BB6007F108030E4874
:104E3000194601F069FE09E04FF40073BB6007F109
:104E400008030948194601F05FFE00BF1037BD4650
:104E500080BD00BF00000140001002400000024081
:104E60000004004000080240000402400008004026
:104E700080B584B000AF786039607B689B691B6A3D
:104E8000002B04DB7B689B691B6A0F2B02DD4FF054
:104E9000FF33AAE001233B730023BB7303237B731F
:104EA0000023FB737B689B699B69BB607B689B6984
:104EB0001A683B689A4204D87B689B691B68013B6F
:104EC0003B603B68002B15D17B689B69DA6907F171
:104ED00008031046194601F017FE7B689B69DA69E2
:104EE0007B689B699B699BB21046194601F0C2FE24
:104EF00000237AE07B689B693A689A607B689B69CB
:104F00001A693C4B9A4211D07B689B691B69B3F1CB
:104F1000804F0BD07B689B691A69374B9A4205D04A
:104F20007B689B691A69354B9A4244D17B689B69BF
:104F30001B7B032B42D801A252F823F04D4F0008EF
:104F4000674F0008814F00089B4F00087B689B69F2
:104F50001A697B689B6919683B68CB1A1046194629
:104F600002F0DEFC26E07B689B691A697B689B691E
:104F700019683B68CB1A1046194602F0DFFC19E0AD
:104F80007B689B691A697B689B6919683B68CB1AC7
:104F90001046194602F0E0FC0CE07B689B691A6938
:104FA0007B689B6919683B68CB1A1046194602F06A
:104FB000E1FC00BF02E04FF0FF3316E000BF3B68AA
:104FC000002B0AD002233B737B689B69DA6907F1E7
:104FD00008031046194601F097FD7B681B682833CB
:104FE0001B687A6810469847002318461037BD465C
:104FF00080BD00BF000001400004004000080040E8
:1050000080B582B000AF78600B46FB707B680222EF
:105010001A607B6801229A607B6800225A607B6874
:105020004FF0FF321A627B6800221A617B6800220F
:105030001A737B6800225A617B6800229A617B6840
:105040000022DA61FB780F2B03D92048FDF796FB8D
:1050500036E0FA787B681A627B681B6A002B00DAFC
:1050600003339B10032B2AD801A252F823F000BF70
:105070008150000889500008935000089B50000898
:105080007B68134A1A610CE07B684FF080421A611A
:1050900007E07B680F4A1A6103E07B680E4A1A61D9
:1050A00000BF7B681A6A0D4B1340002B03DA013BEB
:1050B00063F003030133DAB27B681A7300E000BFC8
:1050C0007B6818460837BD4680BD00BF98E40008DD
:1050D0000000014000040040000800400300008080
:1050E00080B58CB000AF78607B685B68002B06D120
:1050F0007B681B691846082102F0C6F972E07B68DC
:105100001B691846002102F0BFF97B685A697B6869
:105110005B687968096801FB03F3B2FBF3F3013BB9
:10512000FB62FB6A002B01DA0023FB62FB6A9BB285
:105130003B847B681B687B6200237B8400233B8568
:10514000002387F82A307B681A6907F1200310468C
:10515000194602F00FF907F10C03184602F0BEFBE6
:105160006023BB810123FB817B681A687B689B6895
:10517000D31A7B6102233B837B681B7B032B30D8D4
:1051800001A252F823F000BF99510008AB5100086A
:10519000BD510008CF5100087B681A6907F10C0364
:1051A0001046194602F0ACF91AE07B681A6907F15B
:1051B0000C031046194602F01DFA11E07B681A69CB
:1051C00007F10C031046194602F09CFA08E07B68D0
:1051D0001A6907F10C031046194602F019FB00BFCB
:1051E00000E000BF3037BD4680BD00BF80B483B053
:1051F00000AF78600C37BD465DF8047B704700BF98
:1052000080B483B000AF0346FB71084B97F90720C9
:105210005209F97901F01F01012000FA01F143F868
:1052200022100C37BD465DF8047B704700E100E0BA
:1052300080B483B000AF0346FB71094B97F9072098
:105240005209F97901F01F01012000FA01F1203221
:1052500043F822100C37BD465DF8047B704700BF51
:1052600000E100E080B483B000AF0346FB71094B5E
:1052700097F907205209F97901F01F01012000FA7E
:1052800001F1603243F822100C37BD465DF8047B13
:10529000704700BF00E100E080B582B000AF7860E9
:1052A0007B681846064964224FF4FA6303F088FFCE
:1052B0007B68044A1A607B6818460837BD4680BD83
:1052C00034E50008F8EA000880B582B000AF7860E5
:1052D0007B684833184601F06FF87B6803F5AA73C2
:1052E000184601F069F87B6818460837BD4680BD4E
:1052F00080B586B002AF78600CE0FDF7DDFC29A335
:10530000D3E90023121843EB01031046194600228B
:1053100004F0A6F81E4B1B78DBB283F00103DBB26E
:10532000002BEAD179681B4A4FF00003CDE9002336
:105330000846194A4FF00003FDF73EFC1CE001232C
:10534000FB6016E0154AFB684FF4187101FB03F38C
:10535000134430339B79002B08D0FB685A1E104B46
:1053600053F822301846002101F054FAFB6801334B
:10537000FB60FB68032BE5DD7B681846FDF732FC1C
:105380000123002BDBD11037BD4680BDAFF3008079
:10539000A81F00208096980040420F00080F0020B0
:1053A0001400002000E40B5402000000AFF3008062
:1053B00080B582B000AF78600B46FB707B68184602
:1053C00004F036FB7B688D4A1A60FB78002B02D014
:1053D000FB78062B07D97B68894A9A617B689B69B1
:1053E000FA781A704FE1FB784FF4187202FB03F25F
:1053F000834B1A447B689A617B689B69FA781A70C0
:105400007B689B694FF4E1329A607B689B6901225B
:105410005A607B689B697A68DA607B689B690022C6
:1054200083F836207B689B69002283F837207B68ED
:105430009B69002283F83C20FB78013B072B00F29C
:10544000218101A252F823F069540008B7540008E2
:10545000015500085355000881550008AD55000856
:10546000315600085B5600087B689B69654A5A61A3
:105470007B689B69644A9A617B689B6940229A8336
:105480007B689B69604A1A627B689B6980229A8468
:105490007B689B695D4A9A627B689B694FF4805286
:1054A0009A857B689B69594A1A637B689B694FF4AC
:1054B00000629A86E7E07B689B69554A5A617B687F
:1054C0009B69544A9A617B689B6920229A837B6816
:1054D0009B69504A1A627B689B6940229A847B6868
:1054E0009B694C4A9A627B689B6910229A857B680B
:1054F0009B69484A1A637B689B6908229A86C2E0C6
:105500007B689B69444A5A617B689B69414A9A61FE
:105510007B689B694FF480729A837B689B693D4AE4
:105520001A627B689B694FF400729A847B689B695E
:10553000354A9A627B689B694FF480429A857B6802
:105540009B69344A1A637B689B694FF400629A86B0
:1055500099E07B689B69314A5A617B689B69304A54
:105560009A617B689B694FF480629A837B689B6930
:105570002B4A1A627B689B694FF400629A8482E02E
:105580007B689B69274A5A617B689B69244A9A61B8
:105590007B689B694FF480529A837B689B691D4AA4
:1055A0001A627B689B6904229A846CE07B689B6921
:1055B0001D4A5A617B689B69194A9A617B689B699D
:1055C00040229A837B689B69154A1A627B689B69B3
:1055D00080229A847B689B69144A9A627B689B69E3
:1055E0004FF480729A857B689B69104A1A637B68C6
:1055F0009B694FF400429A8645E000BF10EB00081B
:10560000080F00200010014000040240000002408A
:1056100000440040000C024000480040004C0040A4
:1056200000080240005000400014014000180240F1
:105630007B689B69164A5A617B689B69154A9A6127
:105640007B689B6980229A837B689B69114A1A62F6
:105650007B689B6940229A8415E07B689B690E4AAF
:105660005A617B689B690D4A9A617B689B6902223B
:105670009A837B689B69094A1A627B689B6901224D
:105680009A8400E000BF7B6818460837BD4680BD9D
:105690000078004000140240007C004000100240EE
:1056A00080B500AF034800F0B7FB2520FFF7DAFD17
:1056B00080BD00BF6811002080B500AF034800F036
:1056C000ABFB2620FFF7CEFD80BD00BFC813002036
:1056D00080B500AF034800F09FFB2720FFF7C2FD15
:1056E00080BD00BF2816002080B500AF034800F041
:1056F00093FB3420FFF7B6FD80BD00BF8818002063
:1057000080B500AF034800F087FB3520FFF7AAFD06
:1057100080BD00BFE81A002080B500AF034800F04C
:105720007BFB4720FFF79EFD80BD00BF481D00208A
:1057300080B500AF0D480E4901F0AEF80346002BCE
:105740000CBF00230123DBB2002B0AD00748084915
:1057500001F0FAF84620FFF785FD064800F08CFAC4
:1057600002E04620FFF77EFD80BD00BFB864024026
:10577000008000286811002080B500AF0D480E4958
:1057800001F08AF80346002B0CBF00230123DBB293
:10579000002B0AD00748084901F0D6F81120FFF77E
:1057A00061FD064800F068FA02E01120FFF75AFD9B
:1057B00080BD00BFA060024000802020C8130020F0
:1057C00080B500AF0D480E4901F066F80346002B86
:1057D0000CBF00230123DBB2002B0AD00748084985
:1057E00001F0B2F80E20FFF73DFD064800F044FA44
:1057F00002E00E20FFF736FD80BD00BF586002407A
:10580000008000182816002080B500AF0D480E4912
:1058100001F042F80346002B0CBF00230123DBB24A
:10582000002B0AD00748084901F08EF84420FFF702
:1058300019FD064800F064FA02E04420FFF712FD6B
:1058400080BD00BF886402400088002068110020ED
:1058500080B500AF0D480E4901F01EF80346002B3D
:105860000CBF00230123DBB2002B0AD007480849F4
:1058700001F06AF81020FFF7F5FC064800F040FA46
:1058800002E01020FFF7EEFC80BD00BF8860024000
:1058900000880020C813002080B500AF0D480E49D5
:1058A00000F0FAFF0346002B0CBF00230123DBB2FC
:1058B000002B0AD00748084901F046F80C20FFF7F2
:1058C000D1FC064800F01CFA02E00C20FFF7CAFCED
:1058D00080BD00BF2860024000880010281600200C
:1058E00080B582B000AF786039607B689B691B78B7
:1058F000002B04D07B689B691B78062B02D94FF0E4
:10590000FF3306E07B689B691846396800F05AFC53
:10591000034618460837BD4680BD00BF80B586B037
:1059200000AF78607B689B691B78002B35D07B6863
:105930009B691B78062B30D87B689B695B697B6110
:105940007B689B69184600F011FC03461846FFF778
:105950006FFC786902F0A2FA07F10C03184601F017
:1059600061F900233B747B689B699B8CFB607B68BF
:105970009B691A6A07F10C031046194601F0C4F836
:105980007B689B699B8BFB607B689B699A6907F1CD
:105990000C031046194601F0B7F81837BD4680BD14
:1059A00080B588B000AFF860B9607A60FB689B6929
:1059B0001B78002B04D0FB689B691B78062B02D94F
:1059C0004FF0FF3355E07B68002B01DC002350E0F3
:1059D00000237B610023FB61FB689B6903F14802A4
:1059E00007F114031046194600F0F8FCB861BB69D2
:1059F000002B3DD07A697B689A4201DD7B687B6130
:105A00000023FB610BE0FB69BA681344FA69B969CA
:105A10000A441278D2B21A70FB690133FB617B69C8
:105A2000FA699A42EFDBFB689B6903F148027B69E4
:105A30001046194600F002FDFB689B6993F836306A
:105A4000002B0BD0FB689B6993F83C30DBB283F0F2
:105A50000103DBB2002B01D0012300E00023002B67
:105A600004D0FB689B69184600F0A2F97B6900E04E
:105A7000002318462037BD4680BD00BF80B584B0E6
:105A800000AF78600B46FB707B689B691B78002B2E
:105A900004D07B689B691B78062B02D94FF0FF333B
:105AA0003BE07B689B6903F5AA72FB78FB7307F107
:105AB0000F031046194600F055FD0346002B2AD06F
:105AC0007B689B695B69184640F22661002202F000
:105AD00075FB7B689B6993F83630002B0FD07B6891
