:020000040800F2
:10000000000002206D910008D9910008D9910008E4
:10001000D9910008D9910008D9910008000000008A
:10002000000000000000000000000000C5FE000805
:10003000D991000800000000D9FE0008050201085F
:10004000D9910008D9910008D9910008D9910008E8
:10005000D9910008D9910008BDA10008E1A10008CC
:1000600005A2000829A200084DA20008D9910008A5
:10007000A1C40008D9910008C9C30008D99100089B
:1000800059C40008F54C0008D9910008D99100081E
:10009000D9910008D9910008D991000871A20008EF
:1000A000D9910008D9910008D9910008D991000888
:1000B000D9910008D9910008D9910008D991000878
:1000C000D9910008D9910008D9910008D991000868
:1000D000D9910008F1C2000809C3000821C3000833
:1000E000CDA20008D9910008D9910008D991000843
:1000F000D9910008D9910008D9910008D991000838
:10010000D9910008D9910008D1FF0008D9910008C1
:1001100039C3000851C30008D9910008B50301088C
:10012000D99100082D4D0008D9910008D9910008F7
:10013000D9910008D9910008D9910008D9910008F7
:10014000D9910008D9910008D9910008D9910008E7
:1001500011C40008D991000881C3000869C30008D0
:10016000D9910008D9910008D9910008D9910008C7
:10017000D9910008D9910008954D0008D99100083F
:0C018000D9910008D99100080000000887
:1001900081F0004102E000BF83F0004330B54FEA38
:1001A00041044FEA430594EA050F08BF90EA020FA5
:1001B0001FBF54EA000C55EA020C7FEA645C7FEA38
:1001C000655C00F0E2804FEA5454D4EB5555B8BF5B
:1001D0006D420CDD2C4480EA020281EA030382EACC
:1001E000000083EA010180EA020281EA0303362D5E
:1001F00088BF30BD11F0004F4FEA01314FF4801C31
:100200004CEA113102D0404261EB410113F0004F42
:100210004FEA03334CEA133302D0524263EB4303F9
:1002200094EA050F00F0A780A4F10104D5F1200E97
:100230000DDB02FA0EFC22FA05F2801841F10001F2
:1002400003FA0EF2801843FA05F359410EE0A5F1C6
:1002500020050EF1200E012A03FA0EFC28BF4CF0F7
:10026000020C43FA05F3C01851EBE37101F00045AD
:1002700007D54FF0000EDCF1000C7EEB00006EEBBA
:100280000101B1F5801F1BD3B1F5001F0CD3490844
:100290005FEA30004FEA3C0C04F101044FEA44529B
:1002A00012F5800F80F09A80BCF1004F08BF5FEA22
:1002B000500C50F1000041EB045141EA050130BD02
:1002C0005FEA4C0C404141EB010111F4801FA4F1A5
:1002D0000104E9D191F0000F04BF01460020B1FAFA
:1002E00081F308BF2033A3F10B03B3F120020CDA32
:1002F0000C3208DD02F1140CC2F10C0201FA0CF010
:1003000021FA02F10CE002F11402D8BFC2F1200C74
:1003100001FA02F120FA0CFCDCBF41EA0C0190402A
:10032000E41AA2BF01EB0451294330BD6FEA040473
:100330001F3C1CDA0C340EDC04F11404C4F120025E
:1003400020FA04F001FA02F340EA030021FA04F370
:1003500045EA030130BDC4F10C04C4F1200220FAC7
:1003600002F001FA04F340EA0300294630BD21FA05
:1003700004F0294630BD94F0000F83F4801306BFCB
:1003800081F480110134013D4EE77FEA645C18BFBF
:100390007FEA655C29D094EA050F08BF90EA020F56
:1003A00005D054EA000C04BF1946104630BD91EA4E
:1003B000030F1EBF0021002030BD5FEA545C05D151
:1003C0004000494128BF41F0004130BD14F5800490
:1003D0003CBF01F5801130BD01F0004545F0FE4104
:1003E00041F470014FF0000030BD7FEA645C1ABF39
:1003F000194610467FEA655C1CBF0B46024650EA70
:10040000013406BF52EA033591EA030F41F400219B
:1004100030BD00BF90F0000F04BF0021704730B521
:100420004FF4806404F132044FF000054FF00001F6
:1004300050E700BF90F0000F04BF0021704730B5B7
:100440004FF4806404F1320410F0004548BF40428C
:100450004FF000013EE700BF42004FEAE2014FEAE1
:1004600031014FEA02701FBF12F07F4393F07F4FBC
:1004700081F06051704792F0000F14BF93F07F4FEE
:10048000704730B54FF4607401F0004521F0004131
:1004900020E700BF50EA010208BF704730B54FF0B7
:1004A00000050AE050EA010208BF704730B511F0BC
:1004B000004502D5404261EB41014FF4806404F1F4
:1004C00032045FEA915C3FF4DCAE4FF003025FEA76
:1004D000DC0C18BF03325FEADC0C18BF033202EBFE
:1004E000DC02C2F1200300FA03FC20FA02F001FA58
:1004F00003FE40EA0E0021FA02F11444C1E600BFF7
:1005000070B54FF0FF0C4CF4E06C1CEA11541DBFA9
:100510001CEA135594EA0C0F95EA0C0F00F0DEF874
:100520002C4481EA030621EA4C5123EA4C5350EA59
:10053000013518BF52EA033541F4801143F48013AA
:1005400038D0A0FB02CE4FF00005E1FB02E506F03B
:100550000042E0FB03E54FF00006E1FB03569CF090
:10056000000F18BF4EF0010EA4F1FF04B6F5007F96
:1005700064F5407404D25FEA4E0E6D4146EB060608
:1005800042EAC62141EA55514FEAC52040EA5E5091
:100590004FEACE2EB4F1FD0C88BFBCF5E06F1ED83B
:1005A000BEF1004F08BF5FEA500E50F1000041EB72
:1005B000045170BD06F0004646EA010140EA02001F
:1005C00081EA0301B4EB5C04C2BFD4EB0C0541EA41
:1005D000045170BD41F480114FF0000E013C00F356
:1005E000AB8014F1360FDEBF002001F0004170BD7A
:1005F000C4F10004203C35DA0C341BDC04F1140493
:10060000C4F1200500FA05F320FA04F001FA05F21E
:1006100040EA020001F0004221F0004110EBD370EB
:1006200021FA04F642EB06015EEA430E08BF20EA17
:10063000D37070BDC4F10C04C4F1200500FA04F3BA
:1006400020FA05F001FA04F240EA020001F000414C
:1006500010EBD37041F100015EEA430E08BF20EABF
:10066000D37070BDC4F1200500FA05F24EEA020E07
:1006700020FA04F301FA05F243EA020321FA04F036
:1006800001F0004121FA04F220EA020000EBD370ED
:100690005EEA430E08BF20EAD37070BD94F0000FED
:1006A0000FD101F00046400041EB010111F4801F21
:1006B00008BF013CF7D041EA060195F0000F18BFD2
:1006C000704703F00046520043EB030313F4801F0E
:1006D00008BF013DF7D043EA0603704794EA0C0FC8
:1006E0000CEA135518BF95EA0C0F0CD050EA4106DE
:1006F00018BF52EA4306D1D181EA030101F000415B
:100700004FF0000070BD50EA410606BF1046194682
:1007100052EA430619D094EA0C0F02D150EA01368E
:1007200013D195EA0C0F05D152EA03361CBF1046CF
:1007300019460AD181EA030101F0004141F0FE416E
:1007400041F470014FF0000070BD41F0FE4141F4F2
:10075000780170BD70B54FF0FF0C4CF4E06C1CEAF2
:1007600011541DBF1CEA135594EA0C0F95EA0C0FA7
:1007700000F0A7F8A4EB050481EA030E52EA033562
:100780004FEA013100F088804FEA03334FF0805583
:1007900045EA131343EA12634FEA022245EA1115B0
:1007A00045EA10654FEA00260EF000419D4208BF61
:1007B000964244F1FD0404F5407402D25B084FEA0E
:1007C0003202B61A65EB03055B084FEA32024FF4BA
:1007D00080104FF4002CB6EB020E75EB030E22BF17
:1007E000B61A754640EA0C005B084FEA3202B6EBD7
:1007F000020E75EB030E22BFB61A754640EA5C0086
:100800005B084FEA3202B6EB020E75EB030E22BF15
:10081000B61A754640EA9C005B084FEA3202B6EB16
:10082000020E75EB030E22BFB61A754640EADC00D5
:1008300055EA060E18D04FEA051545EA16754FEA37
:1008400006164FEAC30343EA52734FEAC2025FEA55
:100850001C1CC0D111F4801F0BD141EA00014FF0E4
:1008600000004FF0004CB6E711F4801F04BF0143B5
:100870000020B4F1FD0C88BFBCF5E06F3FF6AFAED1
:10088000B5EB030C04BFB6EB020C5FEA500C50F161
:10089000000041EB045170BD0EF0004E4EEA1131E4
:1008A00014EB5C04C2BFD4EB0C0541EA045170BDEB
:1008B00041F480114FF0000E013C90E645EA060E2F
:1008C0008DE60CEA135594EA0C0F08BF95EA0C0F5D
:1008D0003FF43BAF94EA0C0F0AD150EA01347FF4A5
:1008E00034AF95EA0C0F7FF425AF104619462CE77C
:1008F00095EA0C0F06D152EA03353FF4FDAE1046DF
:10090000194622E750EA410618BF52EA43067FF42F
:10091000C5AE50EA41047FF40DAF52EA43057FF4BF
:10092000EBAE12E74FF0FF3C06E000BF4FF0010CCA
:1009300002E000BF4FF0010C4DF804CD4FEA410C2E
:100940007FEA6C5C4FEA430C18BF7FEA6C5C1BD0FB
:1009500001B050EA410C0CBF52EA430C91EA030F7C
:1009600002BF90EA020F0020704710F1000F91EAD9
:10097000030F58BF994208BF90422CBFD8176FEAA7
:10098000E37040F0010070474FEA410C7FEA6C5C75
:1009900002D150EA013C07D14FEA430C7FEA6C5C7C
:1009A000D6D152EA033CD3D05DF8040B704700BFA8
:1009B0008446104662468C461946634600E000BFF6
:1009C00001B5FFF7B7FF002848BF10F1000F01BDC8
:1009D0004DF808EDFFF7F4FF0CBF012000205DF893
:1009E00008FB00BF4DF808EDFFF7EAFF34BF012018
:1009F00000205DF808FB00BF4DF808EDFFF7E0FFB1
:100A000094BF012000205DF808FB00BF4DF808ED01
:100A1000FFF7CEFF94BF012000205DF808FB00BF68
:100A20004DF808EDFFF7C4FF34BF012000205DF84A
:100A300008FB00BF4FEA410212F5001215D211D592
:100A40006FF47873B3EB625212D94FEAC12343F0CB
:100A5000004343EA505311F0004F23FA02F018BF4D
:100A6000404270474FF00000704750EA013005D116
:100A700011F0004008BF6FF0004070474FF00000D9
:100A8000704700BF4A0011D212F5001211D20DD5E5
:100A90006FF47873B3EB62520ED44FEAC12343F084
:100AA000004343EA505323FA02F070474FF000002E
:100AB000704750EA013002D14FF0FF3070474FF0DD
:100AC000000070474FEA4102B2F1E04324BFB3F5A2
:100AD000001CDCF1FE5C0DD901F0004C4FEAC002B5
:100AE0004CEA5070B2F1004F40EB830008BF20F099
:100AF0000100704711F0804F21D113F13872BCBF53
:100B000001F00040704741F480114FEA5252C2F1A7
:100B10001802C2F1200C10FA0CF320FA02F018BFF0
:100B200040F001004FEAC1234FEAD32303FA0CFC43
:100B300040EA0C0023FA02F34FEA4303CCE77FEAD2
:100B4000625307D150EA01331EBF4FF0FE4040F41C
:100B50004000704701F0004040F0FE4040F40000CB
:100B6000704700BF80F0004002E000BF81F000410C
:100B700042001FBF5FEA410392EA030F7FEA226C43
:100B80007FEA236C6AD04FEA1262D2EB1363C1BFD3
:100B9000D218414048404140B8BF5B42192B88BF42
:100BA000704710F0004F40F4000020F07F4018BF65
:100BB000404211F0004F41F4000121F07F4118BF85
:100BC000494292EA030F3FD0A2F1010241FA03FC2D
:100BD00010EB0C00C3F1200301FA03F100F0004315
:100BE00002D5494260EB4000B0F5000F13D3B0F1DD
:100BF000807F06D340084FEA310102F10102FE2A4C
:100C000051D2B1F1004F40EBC25008BF20F00100BB
:100C100040EA03007047490040EB000010F4000F69
:100C2000A2F10102EDD1B0FA80FCACF1080CB2EBFC
:100C30000C0200FA0CF0AABF00EBC250524218435B
:100C4000BCBFD0401843704792F0000F81F4000100
:100C500006BF80F400000132013BB5E74FEA4103D3
:100C60007FEA226C18BF7FEA236C21D092EA030F3F
:100C700004D092F0000F08BF0846704790EA010FB9
:100C80001CBF0020704712F07F4F04D1400028BFE6
:100C900040F00040704712F100723CBF00F50000C8
:100CA000704700F0004343F0FE4040F400007047FE
:100CB0007FEA226216BF08467FEA236301464202AA
:100CC00006BF5FEA412390EA010F40F480007047BD
:100CD0004FF0000304E000BF10F0004348BF404263
:100CE0005FEA000C08BF704743F0964301464FF09F
:100CF00000001CE050EA010208BF70474FF00003FB
:100D00000AE000BF50EA010208BF704711F000433B
:100D100002D5404261EB41015FEA010C02BF84460B
:100D20000146002043F0B64308BFA3F18053A3F56A
:100D30000003BCFA8CF2083AA3EBC25310DB01FAB1
:100D400002FC634400FA02FCC2F12002BCF1004F35
:100D500020FA02F243EB020008BF20F001007047C6
:100D600002F1200201FA02FCC2F1200250EA4C001A
:100D700021FA02F243EB020008BF20EADC70704760
:100D800073B96AB9002908BF0028BCBF00204FF022
:100D90000041C4BF6FF000414FF0FF3000F08CB84D
:100DA00082B0EC462DE9005000F056F8DDF804E082
:100DB00002B00CBC704700BF4BB942B9002908BF54
:100DC000002802D04FF0FF31084600F075B882B01D
:100DD000EC462DE9005000F057F8DDF804E002B0D1
:100DE0000CBC704738B50022002304460D46FFF7BF
:100DF000F9FD28B920462946BDE8384000F00AB878
:100E0000204605F1004100F005F8404261EB410148
:100E100038BD00BF70B500220D4B04460D46FFF7EC
:100E20006FFBFFF72FFE0646FFF7F4FA0022094B8F
:100E3000FFF766FB02460B4620462946FFF7ACF952
:100E4000FFF720FE002242EA00042046314670BD32
:100E50000000F03D0000F0412DE97043069E14466D
:100E60001D468046894600F029F804FB01F300FB8B
:100E70000533A4FB00451D44B8EB040469EB0505EC
:100E8000C6E90045BDE870832DE97043069E14460F
:100E9000804689461D4600F05DF900FB05F504FB20
:100EA0000153A0FB04451D44B8EB040469EB0505A0
:100EB000C6E90045BDE87083704700BF00292DE9F1
:100EC000F00FC0F29F800024002BC0F296801546E0
:100ED00006460F46002B3ED18A4257D9B2FA82F31A
:100EE0004BB1C3F1200201FA03F720FA02F29D4050
:100EF000174300FA03F6290CB7FBF1F2330C01FBA0
:100F0000127CA8B243EA0C4700FB02F3BB4209D9AA
:100F10007F1902F1FF3C80F00181BB4240F2FE806C
:100F2000023A2F44FF1AB7FBF1F3B6B201FB13717B
:100F300046EA014100FB03F0884208D9491903F150
:100F4000FF3780F0ED80884240F2EA80023B43EABE
:100F50000242002303E08B420AD900231A461046BE
:100F6000194614B1404261EB4101BDE8F00F7047F2
:100F7000B3FA83F8B8F1000F40F084808B4202D3BB
:100F8000824200F2DE8000230122E8E712B9012349
:100F9000B3FBF2F5B5FA85F2002A39D17F1B280C94
:100FA0001FFA85FC0123B7FBF0F1320C00FB11772F
:100FB00042EA07470CFB01F2BA4207D97F1901F157
:100FC000FF3802D2BA4200F2C1804146BF1AB7FBD5
:100FD000F0F2B6B200FB127046EA00400CFB02FCD5
:100FE000844507D9401902F1FF3702D2844500F247
:100FF000AB803A4642EA0142B1E7E443524263EB36
:10100000430364E7404261EB41014FF0FF345BE78B
:101010009540C2F1200327FA03F1280C26FA03F3C6
:101020009740B1FBF0F81F433B0C00FB18111FFA6F
:1010300085FC43EA01410CFB08F38B4206FA02F6F9
:1010400008D9491908F1FF3279D28B4277D9A8F132
:1010500002082944C91AB1FBF0F3BFB200FB131117
:1010600047EA01470CFB03F2BA4207D97F1903F1A3
:10107000FF3160D2BA425ED9023B2F44BF1A43EA25
:10108000084390E7C8F1200203FA08FC25FA02F3AE
:1010900043EA0C0C4FEA1C4921FA02F301FA08F763
:1010A00020FA02F2B3FBF9F1174309FB11333A0CB2
:1010B0001FFA8CFB42EA03430BFB01FA9A4505FA3F
:1010C00008F008D913EB0C0301F1FF3235D29A4531
:1010D00033D902396344CAEB0303B3FBF9F209FBCA
:1010E0001233BFB247EA03470BFB02F9B94508D9EF
:1010F00017EB0C0702F1FF331BD2B94519D9023A9D
:10110000674442EA0145A5FB0001C9EB07078F428E
:101110004FF000030AD305D02A4620E7624601E7D4
:101120003B4614E706FA08F68642F5D26A1E00230B
:1011300015E71A46E5E70B46A0E71146CBE79046D0
:1011400088E7434642460AE7023A53E702392F440A
:101150003CE700BF2DE9F00F144605460E46002B74
:1011600043D18A4253D9B2FA82F757B1C7F1200668
:1011700020FA06F601FA07F302FA07F41E4300FA12
:1011800007F5210CB6FBF1F22B0C01FB1267A0B2A4
:1011900043EA074600FB02F3B34209D9361902F1CC
:1011A000FF3780F0F680B34240F2F380023A2644E3
:1011B000F61AB6FBF1F3ADB201FB136145EA01414A
:1011C00000FB03F0884208D9091903F1FF3680F0CB
:1011D000E280884240F2DF80023B43EA0242002381
:1011E00010461946BDE8F00F70478B424AD8B3FA53
:1011F00083F6002E4DD18B4202D3824200F2D6807C
:101200000023012210461946BDE8F00F704712B9BD
:101210000124B4FBF2F4B4FA84F2002A7CD1091B55
:10122000260CA7B20123B1FBF6F02A0C06FB101125
:1012300042EA014107FB00F28A4207D9091900F18D
:10124000FF3C02D28A4200F2C3806046891AB1FB99
:10125000F6F2ADB206FB121145EA014507FB02F7B3
:10126000AF4208D92C1902F1FF3180F09680A742D5
:1012700040F29380023A42EA004210461946BDE825
:10128000F00F704700231A4610461946BDE8F00FCC
:101290007047C6F1200522FA05F4B3401C434FEA1B
:1012A000144821FA05F301FA06F720FA05F5B3FB15
:1012B000F8FC2F4308FB1C333D0C1FFA84FA45EA67
:1012C00003430AFB0CF9994502FA06FB04D91B19E2
:1012D0000CF1FF326DD39446C9EB0303B3FBF8F571
:1012E00008FB1533BFB247EA03470AFB05F8B845C8
:1012F00004D93F1905F1FF3361D31D4645EA0C4C73
:10130000ACFB0B23C8EB07079F424FF0000549D306
:1013100045D062462B4663E79440C2F1200321FA90
:1013200003FC260C20FA03F301FA02F5BCFBF6F8E5
:1013300043EA05010B0C06FB18CCA7B243EA0C4CA0
:1013400007FB08F3634500FA02F509D91CEB040C0E
:1013500008F1FF323AD2634538D9A8F10208A44413
:10136000C3EB0C0CBCFBF6F389B206FB13CC41EAD1
:101370000C4107FB03F28A4207D9091903F1FF3038
:1013800022D28A4220D9023B2144891A43EA0843E7
:1013900049E73A460CE733461FE70A466BE7B04099
:1013A0009042B6D20CF1FF32002319E733463246A1
:1013B00016E799458FD9ACF1020C23448CE7B84568
:1013C0009BD9023D274499E70346DEE79046C7E7ED
:1013D000023821443AE700BF80B582B000AF7860A0
:1013E00039607B68012B10D13A684FF6FF739A423F
:1013F0000BD107483C2108F099FC06483D2108F034
:1014000095FC05483E2108F091FC0837BD4680BD9B
:10141000380A0020540A0020700A002080B500AF6E
:1014200001204FF6FF71FFF7D7FF80BD80B582B076
:1014300000AF78607B680A4A1A600A4806F0E2FD4D
:101440007B680433184606F05DFE0023002B02D0B3
:10145000786806F06DFF7B6818460837BD4680BD8A
:1014600028890108D06E010880B582B000AF78608D
:101470007868FFF7DBFF786806F05AFF7B6818464C
:101480000837BD4680BD00BF80B582B000AF786030
:101490007B68064A1A600023002B02D0786806F0A9
:1014A00047FF7B6818460837BD4680BD488601085F
:1014B00080B582B000AF78607868FFF7E5FF7868A4
:1014C00006F036FF7B6818460837BD4680BD00BF72
:1014D00080B584B000AFF860B9607A603B600448C2
:1014E00006F090FD002318461037BD4680BD00BFB2
:1014F000E46E010880B483B000AF78607B684FF081
:1015000000021A607B684FF000025A607B684FF05F
:1015100000029A607B68154ADA607B68144A1A6197
:101520007B68144A5A617B68134ADA627B684FF021
:1015300000021A627B684FF000025A627B684FF02B
:1015400000029A617B684FF000029A627B684FF05C
:101550000002DA617B684FF000021A637B6818466C
:101560000C37BD465DF8047B704700BF5C4F0443F9
:10157000E17A943FAE4779C20AD7233C2DE9B04FB8
:101580008AB006AF78607B6830335C48194600F05B
:10159000DBF97B6893ED0C7A7B68D3ED0A7A77EE02
:1015A000677AC7ED037A97ED037ADFED557AB4EEEB
:1015B000E77AF1EE10FA08DD97ED037ADFED517A64
:1015C00077EE677AC7ED037A10E097ED037ADFEDE7
:1015D0004E7AB4EEE77AF1EE10FA07D597ED037A7A
:1015E000DFED487A77EE277AC7ED037AD7ED037AF5
:1015F000B0EEE77AF1EE047AB4EEE77AF1EE10FAA3
:1016000009DD7B6893ED087AD7ED037A77EE277AC8
:101610007B68C3ED087A7B68D3ED067A97ED037A91
:1016200077EE677A7B68C3ED097A7B6893ED037A7E
:10163000D7ED037A67EE277A7B68C3ED007A7B6883
:1016400093ED047A7B68D3ED087A67EE277A7B689E
:10165000C3ED017A7B6893ED057A7B68D3ED097A57
:1016600067EE277A7B68C3ED027A7B6893ED007A98
:101670007B68D3ED017A37EE277A7B68D3ED027A67
:1016800077EE277A7B68C3ED077A7B68FA689A6100
:101690007B68D3ED077AFDEEE77A17EE903A9BB2BE
:1016A0001BB21A48194602F083FC7B68DB691846B6
:1016B000FEF7D2FE04460D46F868FEF7CDFE8246E0
:1016C0008B467B689B6A1846FEF7C6FE80468946B5
:1016D0007B681B6B1846FEF7BFFE02460B46CDE942
:1016E00000ABCDE90289CDE90423094822462B4607
:1016F00007F0EAFC1037BD46BDE8B08F8C0A002029
:10170000000034430000B443000034C3B022002082
:101710006C6F010880B483B000AF78607B68D3ED54
:10172000077AFDEEE77A17EE903A9BB21BB21846A5
:101730000C37BD465DF8047B704700BFB0B584B080
:1017400002AF786039607B683A689A627B68D3ED53
:101750000A7AF5EEC07AF1EE10FA13D509E07B684B
:1017600093ED0A7ADFED227A77EE277A7B68C3ED74
:101770000A7A7B68D3ED0A7AF5EEC07AF1EE10FAB8
:10178000EDD41EE07B6893ED0A7ADFED197AB4EEB2
:10179000E77AF1EE10FA14DD09E07B6893ED0A7A3E
:1017A000DFED137A77EE677A7B68C3ED0A7A7B68A0
:1017B00093ED0A7ADFED0E7AB4EEE77AF1EE10FAE5
:1017C000EBDC7B689B6A1846FEF746FE04460D4636
:1017D0003868FEF741FE02460B46CDE90023054876
:1017E00022462B4607F070FC0837BD46B0BD00BF4F
:1017F0000000B4439C6F010880B483B000AF7860F0
:1018000039607B683A68DA620C37BD465DF8047B64
:10181000704700BF80B582B000AF786039607B68E8
:101820003A681A60084B1B78002B09D07B681B684C
:101830001846FEF711FE02460B46044807F044FC2A
:101840000837BD4680BD00BF64010020BC6F0108A1
:1018500080B582B000AF786039607B683A685A60C2
:10186000084B1B78002B09D07B685B681846FEF795
:10187000F3FD02460B46044807F026FC0837BD4638
:1018800080BD00BF64010020D46F010880B582B024
:1018900000AF786039607B683A689A60084B1B78C3
:1018A000002B09D07B689B681846FEF7D5FD0246E1
:1018B0000B46044807F008FC0837BD4680BD00BF52
:1018C00064010020EC6F010880B483B000AF786041
:1018D0007B689B6918460C37BD465DF8047B7047F2
:1018E00080B483B000AF78607B68DB6918460C3742
:1018F000BD465DF8047B704780B483B000AF78606C
:101900007B68044A1A607B6818460C37BD465DF850
:10191000047B70474886010880B582B000AF7860CC
:101920007B681846FFF7E8FF7B68064A1A607B6809
:101930000022DA617B6800229A617B6818460837CA
:10194000BD4680BD3086010880B582B000AF7860AA
:1019500039607B68DA697B689B699A4214BF00230F
:101960000123DBB2002B01D0002311E07B68DB698F
:101970007A689B0013445A683B681A607B68DB698D
:101980007868194600F008F802467B68DA6101239E
:1019900018460837BD4680BD80B483B000AF78607C
:1019A00039603B68032B02DC3B68013300E0002315
:1019B00018460C37BD465DF8047B704780B582B091
:1019C00000AF78607B68084A1A607B681846FFF7AA
:1019D0005BFD0023002B02D0786806F0A9FC7B6831
:1019E00018460837BD4680BD3086010880B582B0F4
:1019F00000AF78607868FFF7E1FF786806F098FC40
:101A00007B6818460837BD4680BD00BF80B584B0EE
:101A100002AF786039607B68012B19D13A684FF6C4
:101A2000FF739A4214D10C48FFF776FF0A480B491E
:101A30000B4A10F08BF8002300930A480A49064A23
:101A40000A4B06F07FFC07480949054A10F07EF86A
:101A50000837BD4680BD00BF8C0A0020BD190008B4
:101A6000C4C80020AC0A0020080C00200470010843
:101A70002D14000880B584B000AFF860B9607A60BA
:101A80003B607B68042B04D9064806F0BBFA0023B0
:101A900004E0F868396800F007F803461846103784
:101AA000BD4680BD2070010880B584B000AF78606D
:101AB00039607B689B6978681946FFF76DFFF860AD
:101AC0007B68DA69FB689A4214BF00230123DBB20A
:101AD000002B01D000230BE07B689B693A681268F9
:101AE00079689B000B445A607B68FA689A6101230D
:101AF00018461037BD4680BD80B500AF01204FF6B7
:101B0000FF71FFF783FF80BD80B483B000AF7860C2
:101B10007B684FF000021A607B684FF000025A6049
:101B20007B684FF000029A607B68114ADA607B683C
:101B3000104A1A617B68104A5A617B684FF00002B4
:101B40001A627B684FF000025A627B684FF0000215
:101B50009A617B6800221A857B684FF00002DA6187
:101B60007B6818460C37BD465DF8047B704700BFA4
:101B7000FDB6FAC2CE8D85BF984C79422DE9F0436F
:101B80008BB006AF78607B6830334C48194600F064
:101B900067F97B6893ED0E7A7B681B8D1BB206EEAE
:101BA000903AF8EEE67A77EE677AC7ED037AD7EDEA
:101BB000037AB0EEE77AF1EE047AB4EEE77AF1EE6A
:101BC00010FA09DD7B6893ED087AD7ED037A77EE9A
:101BD000277A7B68C3ED087A7B68D3ED067A97EDA8
:101BE000037A77EE677A7B68C3ED097A7B6893EDB9
:101BF000037AD7ED037A67EE277A7B68C3ED007A24
:101C00007B6893ED047A7B68D3ED087A67EE277AD8
:101C10007B68C3ED017A7B6893ED057A7B68D3ED31
:101C2000097A67EE277A7B68C3ED027A7B6893EDC9
:101C3000007A7B68D3ED017A37EE277A7B68D3EDA3
:101C4000027A77EE277A7B68C3ED077A7B68FA68B9
:101C50009A617B68D3ED077AFDEEE77A17EE903A4A
:101C60009BB21BB21648194602F0A2F9154B1B781D
:101C7000002B1FD07B68DB691846FEF7EDFB04469E
:101C80000D46F868FEF7E8FB804689467B681B8DA9
:101C90001EB27B689B6B1846FEF7DEFB02460B46C6
:101CA000CDE900890296CDE90423074822462B4658
:101CB00007F00AFA1437BD46BDE8F083DC0A0020BD
:101CC000B022002064010020CC70010880B582B0F1
:101CD00000AF78600B46FB7097F903309AB27B68CF
:101CE0001A85074B1B78002B06D07B681B8D1BB217
:101CF0000448194607F0E8F90837BD4680BD00BF23
:101D000064010020FC70010880B582B000AF7860EB
:101D100039607B683A681A60084B1B78002B09D041
:101D20007B681B681846FEF797FB02460B46044883
:101D300007F0CAF90837BD4680BD00BF6401002026
:101D40001471010880B582B000AF786039607B689B
:101D50003A685A60084B1B78002B09D07B685B6897
:101D60001846FEF779FB02460B46044807F0ACF92B
:101D70000837BD4680BD00BF640100202C710108FA
:101D800080B582B000AF786039607B683A689A604D
:101D9000084B1B78002B09D07B689B681846FEF720
:101DA0005BFB02460B46044807F08EF90837BD4638
:101DB00080BD00BF640100204471010880B483B07D
:101DC00000AF78607B68D3ED077AFCEEE77A17EE18
:101DD000903A9BB29BB21BB218460C37BD465DF8D9
:101DE000047B704780B483B000AF786039607B6853
:101DF0003A68DA620C37BD465DF8047B704700BF75
:101E000080B483B000AF78607B68DB6918460C371C
:101E1000BD465DF8047B704780B483B000AF786046
:101E20007B689B6918460C37BD465DF8047B70479C
:101E300080B582B000AF78607B681846FFF75CFD24
:101E40007B68064A1A607B6800225A647B6800221D
:101E50001A647B6818460837BD4680BD6086010855
:101E600080B582B000AF786039607B685A6C7B685F
:101E70001B6C9A4214BF00230123DBB2002B01D05C
:101E8000002317E07B685A6C3968786813465B005A
:101E900013449B00C2180B46043207CA83E80700AC
:101EA0007B685B6C7868194600F008F802467B682E
:101EB0005A64012318460837BD4680BD80B483B0FC
:101EC00000AF786039603B68032B02DC3B6801336C
:101ED00000E0002318460C37BD465DF8047B7047D0
:101EE00080B582B000AF78607B68084A1A607B6872
:101EF0001846FFF7C9FA0023002B02D0786806F0D5
:101F000017FA7B6818460837BD4680BD6086010811
:101F100080B582B000AF78607868FFF7E1FF78683D
:101F200006F006FA7B6818460837BD4680BD00BF3C
:101F300080B584B002AF786039607B68012B19D11D
:101F40003A684FF6FF739A4214D10C48FFF770FFBE
:101F50000A480B490B4A0FF0F9FD002300930A4889
:101F60000A49064A0A4B06F0EDF907480949054AAD
:101F70000FF0ECFD0837BD4680BD00BFDC0A002035
:101F8000E11E0008C4C80020240B00209C0B002088
:101F90005C7101082D14000880B584B000AFF860B2
:101FA000B9607A603B607B680C2B04D9064806F068
:101FB00029F8002304E0F868396800F007F80346C0
:101FC00018461037BD4680BD7471010880B584B0D5
:101FD00000AF786039607B681B6C78681946FFF742
:101FE0006DFFF8607B685A6CFB689A4214BF00234F
:101FF0000123DBB2002B01D0002310E07B681A6CB8
:10200000796813465B0013449B000B443A68043321
:1020100007CA83E807007B68FA681A640123184638
:102020001037BD4680BD00BF80B500AF01204FF620
:10203000FF71FFF77DFF80BD0FB480B400AF0023B8
:102040001846BD465DF8047B04B0704780B483B089
:1020500000AF786039603B685A687B685A603B68BB
:102060009A687B689A603B68DA687B68DA603B68EC
:102070001A697B681A613B685A697B685A617B6898
:1020800018460C37BD465DF8047B704780B582B0BA
:1020900000AF786039607A683B6810461946FFF7F0
:1020A000D5FF3B689A697B689A617B681846083758
:1020B000BD4680BD90B58DB002AF78607B681B785F
:1020C00083F00103DBB2002B07D17B680433184691
:1020D000FFF7B2FF0346002B01D1012300E00023EC
:1020E000002B15D07B681C1D07F10C03184620211E
:1020F00007F01CFE07F10C0320461946FFF7C6FF48
:102100007B680433184601210122012307F042FEB7
:102110007B6801221A707B68202283F820207B686C
:10212000572283F821207B6820337A68233200927B
:10213000012201926F481D211A46022308F00CFB70
:1021400002467B681A637B681B6B002B03DA6A48C4
:1021500006F0BAFFCAE07B68242283F820207B685F
:10216000F42283F821207B6820337A68233200929E
:10217000012201925F481D211A46022308F0ECFA61
:1021800002467B681A637B681B6B002B03DA5A4894
:1021900006F09AFFAAE07B680F2283F820207B6874
:1021A00020337A68233200920122019251481D2186
:1021B0001A46012308F0D0FA02467B681A637B684E
:1021C0001B6B002B04DB7B6893F82330492B03D077
:1021D0004A4806F079FF89E07B68252283F82020B1
:1021E0007B68002283F821207B6820337A682332C1
:1021F0000092012201923F481D211A46022308F055
:10220000ABFA02467B681A637B681B6B002B03DA10
:10221000394806F059FF69E07B68262283F82020C0
:102220007B68002283F821207B68203331481D2100
:102230001A46022308F05CFA0346DB0FDBB2002BE0
:1022400003D02C482E4908F073F97B68232283F8C9
:1022500020207B68042283F821207B6820332548D6
:102260001D211A46022308F043FA0346DB0FDBB2B6
:10227000002B03D01F48224908F05AF97B6812222C
:1022800083F820207B68092283F821207B68203393
:1022900018481D211A46022308F02AFA0346DB0FCC
:1022A000DBB2002B03D01348154908F041F97B68D5
:1022B0000022A3F842207B680022A3F844207B6818
:1022C0000022A3F846207B680022A3F84E207B68FA
:1022D0000022A3F850207B680022A3F852207B68DC
:1022E000002283F83A20074806F0EEFE2C37BD4660
:1022F00090BD00BF74200020847101089C7101080A
:10230000A0860100B471010880B584B002AF786086
:102310007B68233318460021062205F047FF7B68BF
:10232000203318460021032205F040FF7B68A822D5
:1023300083F820207B6820337A68233200920622BB
:10234000019260481D211A46012308F005FA024651
:102350007B681A637B681B6B002B0DDA5A4806F00A
:10236000B3FE5848594908F0E3F87B682333184610
:102370000021062205F01AFF7B6893F824301B0227
:102380009AB27B6893F8233019467B68B3F84230E1
:102390009BB2CB1A9BB29BB213439AB27B689A87CB
:1023A0007B6893F826301B029AB27B6893F825303D
:1023B00019467B68B3F844309BB2CB1A9BB29BB2F0
:1023C00013439AB27B68DA877B6893F828301B0244
:1023D0009AB27B6893F8273019467B68B3F8463089
:1023E0009BB2CB1A9BB29BB213439AB27B68A3F801
:1023F00040207B68882283F820207B6820337A681D
:1024000023320092062201922E481D211A460123F2
:1024100008F0A2F902467B681A637B681B6B002BED
:102420000DDA2B4806F050FE2648284908F080F8BF
:102430007B68233318460021062205F0B7FE7B682F
:1024400093F824301B029AB27B6893F82330194624
:102450007B68B3F84E309BB2CB1A9BB29BB213434E
:102460009AB27B68A3F848207B6893F826301B0259
:102470009AB27B6893F8253019467B68B3F85030E0
:102480009BB2CB1A9BB29BB213439AB27B68A3F860
:102490004A207B6893F828301B029AB27B6893F835
:1024A000273019467B68B3F852309BB2CB1A9BB2E7
:1024B0009BB213439AB27B68A3F84C200837BD4601
:1024C00080BD00BF74200020C4710108A0860100F7
:1024D000F471010880B485B000AFF86079813A8169
:1024E000FB807A89FB68A3F842203A89FB68A3F84D
:1024F0004420FA88FB68A3F84620FB68012283F891
:102500003A201437BD465DF8047B704780B483B031
:1025100000AF78607B689B8F9AB27B68B3F84230DB
:102520009BB2D31A9BB29BB21BB218460C37BD4666
:102530005DF8047B704700BF80B483B000AF786063
:102540007B68DB8F9AB27B68B3F844309BB2D31AB6
:102550009BB29BB21BB218460C37BD465DF8047B9C
:10256000704700BF80B483B000AF78607B68B3F879
:1025700040309AB27B68B3F846309BB2D31A9BB214
:102580009BB21BB218460C37BD465DF8047B704702
:1025900080B483B000AF78607B68B3F848309AB2FB
:1025A0007B68B3F84E309BB2D31A9BB29BB21BB27E
:1025B00018460C37BD465DF8047B704780B483B085
:1025C00000AF78607B68B3F84A309AB27B68B3F8A2
:1025D00050309BB2D31A9BB29BB21BB218460C3739
:1025E000BD465DF8047B704780B483B000AF78606F
:1025F0007B68B3F84C309AB27B68B3F852309BB228
:10260000D31A9BB29BB21BB218460C37BD465DF87D
:10261000047B704780B483B000AF78607B68B3F808
:1026200042301BB218460C37BD465DF8047B70473C
:1026300080B483B000AF78607B68B3F844301BB2DD
:1026400018460C37BD465DF8047B704780B483B0F4
:1026500000AF78607B68B3F846301BB218460C3781
:10266000BD465DF8047B704780B483B000AF7860EE
:102670007B68B3F84E301BB218460C37BD465DF888
:10268000047B704780B483B000AF78607B68B3F898
:1026900050301BB218460C37BD465DF8047B7047BE
:1026A00080B483B000AF78607B68B3F852301BB25F
:1026B00018460C37BD465DF8047B704790B58BB06B
:1026C00000AF78607B681B7883F00103DBB2002BDE
:1026D00007D17B6804331846FFF7AEFC0346002B96
:1026E00001D1012300E00023002B15D07B681C1DC5
:1026F00007F10C031846122107F018FB07F10C0331
:1027000020461946FFF7C2FC7B68043318460121B6
:102710000122012307F03EFB7B6801221A707B68CF
:10272000202283F820207B680F2283F821207B68F9
:1027300020333E486B211A46022307F0D9FF034697
:10274000DB0FDBB2002B03D03848394907F0F0FE2D
:102750007B68212283F820207B68002283F82120D7
:102760007B68203331486B211A46022307F0C0FFF3
:102770000346DB0FDBB2002B03D02C482C4907F0BB
:10278000D7FE7B68222283F820207B68002283F812
:1027900021207B68203325486B211A46022307F04D
:1027A000A7FF0346DB0FDBB2002B03D01F482049F5
:1027B00007F0BEFE7B68232283F820207B6820225E
:1027C00083F821207B681B4ADA637B682033174833
:1027D0006B211A46022307F08BFF0346DB0FDBB2A7
:1027E000002B03D01148124907F0A2FE7B68242277
:1027F00083F820207B68002283F821207B68203327
:102800000A486B211A46022307F072FF0346DB0FCA
:10281000DBB2002B03D00548054907F089FE0648C6
:1028200006F052FC2C37BD4690BD00BF742000203E
:10283000A0860100295C8F3D2472010880B485B018
:1028400000AFF86079813A81FB807A89FB68A3F850
:1028500046203A89FB68A3F84820FA88FB68A3F869
:102860004A201437BD465DF8047B704780B584B0BC
:1028700002AF78607B68233318460021062205F0FA
:1028800095FC7B68203318460021032205F08EFC5E
:102890007B68A82283F820207B6820337A68233263
:1028A0000092062201922E486B211A46012307F05E
:1028B00053FF02467B681A637B681B6B002B0DDAA3
:1028C000284806F001FC2648274907F031FE7B68BE
:1028D000233318460021062205F068FC7B6893F834
:1028E00024301B029AB27B6893F8233019467B6828
:1028F000B3F846309BB2CB1A9BB29BB213439AB249
:102900007B68A3F840207B6893F826301B029AB2BC
:102910007B6893F8253019467B68B3F848309BB242
:10292000CB1A9BB29BB213439AB27B68A3F84220A6
:102930007B6893F828301B029AB27B6893F82730A3
:1029400019467B68B3F84A309BB2CB1A9BB29BB254
:1029500013439AB27B68A3F844200837BD4680BD74
:102960007420002054720108A086010080B483B056
:1029700000AF78607B68B3F840301BB206EE903A47
:10298000B8EEE67A7B68D3ED0F7A27EE277A7B687C
:10299000B3F846301BB206EE903AF8EEE67A77EEE0
:1029A000677A17EE903A18460C37BD465DF8047BFF
:1029B000704700BF80B483B000AF78607B68B3F825
:1029C00042301BB206EE903AB8EEE67A7B68D3ED61
:1029D0000F7A27EE277A7B68B3F848301BB206EEF1
:1029E000903AF8EEE67A77EE677A17EE903A184664
:1029F0000C37BD465DF8047B704700BF80B483B0E0
:102A000000AF78607B68B3F844301BB206EE903AB2
:102A1000B8EEE67A7B68D3ED0F7A27EE277A7B68EB
:102A2000B3F84A301BB206EE903AF8EEE67A77EE4B
:102A3000677A17EE903A18460C37BD465DF8047B6E
:102A4000704700BF80B483B000AF78607B68B3F894
:102A500046301BB218460C37BD465DF8047B704704
:102A600080B483B000AF78607B68B3F848301BB2A5
:102A700018460C37BD465DF8047B704780B483B0C0
:102A800000AF78607B68B3F84A301BB218460C3749
:102A9000BD465DF8047B704780B582B000AF7860BA
:102AA0007B680A4A1A600A4805F0ACFA7B6804336E
:102AB000184605F027FB0023002B02D0786805F0AC
:102AC00037FC7B6818460837BD4680BDC0860108C4
:102AD0008472010880B582B000AF78607868FFF733
:102AE000DBFF786805F024FC7B6818460837BD4694
:102AF00080BD00BF80B483B000AF02460B46FA80B1
:102B0000BB80B7F90620B7F904309A4201DDBB88D3
:102B100000E0FB881BB218460C37BD465DF8047B0D
:102B2000704700BF80B483B000AF02460B46FA8006
:102B3000BB80B7F90620B7F904309A4201DDFB8863
:102B400000E0BB881BB218460C37BD465DF8047B1D
:102B5000704700BF80B582B000AF78607B680433F7
:102B60001846002107F0E2F87B6818460837BD4692
:102B700080BD00BF80B582B000AF78607B68043351
:102B80001846002107F0D2F87B6818460837BD4682
:102B900080BD00BF80B584B000AFF860B960C7E900
:102BA0000023FB681846B96864224FF4FA630EF0FC
:102BB00013F8FB68124A1A60FB6858331846002164
:102BC00007F0B4F8FB6874331846002107F0AEF83C
:102BD000FB6890331846FFF7BDFFFB68DC331846EF
:102BE000FFF7C8FFF968D7E90023C1E91423FB68A0
:102BF000002283F83421FB6818461037BD4680BD9B
:102C0000A886010880B483B000AF78600B46FB70E3
:102C10007B68FA7883F834210C37BD465DF8047B75
:102C2000704700BF80B582B000AF786039603B6804
:102C30001A787B681A707B681A1D3B68043310464B
:102C40001946FFF723FA7B683A682033203212686E
:102C5000114619800233120C1A707B683A682333CC
:102C600023321168196092889A807B683A682A3307
:102C70002A321168196092889A807B683A683033EA
:102C8000303292E8030083E803003B681A8F7B68C8
:102C90001A873B68DA6B7B68DA633B68B3F84020DD
:102CA0007B68A3F840203B68B3F842207B68A3F818
:102CB00042203B68B3F844207B68A3F844203B687B
:102CC000B3F846207B68A3F846203B68B3F8482059
:102CD0007B68A3F848203B68B3F84A207B68A3F8D8
:102CE0004A207B6818460837BD4680BD80B582B053
:102CF00000AF786039603B681A787B681A707B682F
:102D00001A1D3B68043310461946FFF7BFF97B686C
:102D10003A68203320321268114619800233120CAF
:102D20001A707B683A6823332332116819609288DD
:102D30009A807B683A682A332A321168196092882F
:102D40009A807B683A683033303292E8030083E837
:102D500003003B681A8F7B681A873B6893F83A2018
:102D60007B6883F83A203B689A8F7B689A873B6838
:102D7000DA8F7B68DA873B68B3F840207B68A3F87A
:102D800040203B68B3F842207B68A3F842203B68B0
:102D9000B3F844207B68A3F844203B68B3F846208E
:102DA0007B68A3F846203B68B3F848207B68A3F80B
:102DB00048203B68B3F84A207B68A3F84A203B6868
:102DC000B3F84C207B68A3F84C203B68B3F84E2046
:102DD0007B68A3F84E203B68B3F850207B68A3F8CB
:102DE00050203B68B3F852207B68A3F852203B6820
:102DF000B3F854207B68A3F854207B681846083742
:102E0000BD4680BD90B5B5B000AF78607B68D3E9B2
:102E10001423324806F058F97B6803F1580407F18F
:102E20000C031846372106F081FF07F10C032046FA
:102E30001946FFF72BF97B68583318460121012208
:102E4000012306F0A7FF2648264907F071FBC7F8C3
:102E5000CC00D7F8CC30002B03D1234806F034F94E
:102E600002E0224806F030F97B6803F1900407F194
:102E700028024C23104600211A4605F097F907F165
:102E800028031846FFF766FE07F128032046194677
:102E9000FFF7C8FE7B6890331846FFF70FFC7B688E
:102EA00003F1DC0407F174025823104600211A468E
:102EB00005F07CF907F174031846FFF75BFE07F194
:102EC000740320461946FFF711FF7B68DC33184670
:102ED000FFF7F0F8D437BD4690BD00BF94720108EB
:102EE00074200020A0860100AC720108D072010895
:102EF000B0B58CB000AF78600023FB620023BB62EA
:102F000000237B6200233B620023FB610023BB6143
:102F100000237B6100233B610023FB600023FB72E5
:102F200088E07B6890331846FFF7A0FC7B689033FD
:102F30001846FFF71BFD07EE100AFB6A06EE903AF3
:102F4000F8EEE67A77EE877AFDEEE77A17EE903ABA
:102F5000FB627B6890331846FFF72CFD07EE100AE2
:102F6000BB6A06EE903AF8EEE67A77EE877AFDEEE7
:102F7000E77A17EE903ABB627B6890331846FFF70A
:102F80003DFD07EE100A7B6A06EE903AF8EEE67A0F
:102F900077EE877AFDEEE77A17EE903A7B627B68F0
:102FA000DC331846FFF7B0F97B68DC331846FFF7CF
:102FB000ADFA03463A6A13443B627B68DC33184639
:102FC000FFF7BAFA0346FA691344FB617B68DC3306
:102FD0001846FFF7C7FA0346BA691344BB617B681A
:102FE000DC331846FFF7D4FA03467A6913447B6151
:102FF0007B68DC331846FFF7E1FA03463A6913446D
:103000003B617B68DC331846FFF7EEFA0346FA684B
:103010001344FB6005F0FCFA4E4A4FF0000312180F
:1030200043EB01031046194600220DF025FFFB7A01
:103030000133FB72FB7A632B7FF673AF7B6803F17E
:103040009000FB6A444A82FB03125211DB17D31A29
:1030500099B2BB6A404A82FB03C25211DB17D31AF2
:103060009AB27B6A3C4C84FB03C46411DB17E31AFD
:103070009BB2FFF7E3FB7B6803F1DC003B6A364A57
:1030800082FB03125211DB17D31A99B2FB69324A41
:1030900082FB03C25211DB17D31A9AB2BB692E4CC2
:1030A00084FB03C46411DB17E31A9BB2FFF712FA27
:1030B0002A4B1B78002B4AD07B6890331846FFF7C9
:1030C000C1FC03461D467B6890331846FFF7C8FCD9
:1030D00003461C467B6890331846FFF7CFFC034637
:1030E0001F482946224605F0EFFF7B68DC3318466F
:1030F000FFF790FA03461D467B68DC331846FFF75E
:1031000097FA03461C467B68DC331846FFF79EFAA5
:10311000034614482946224605F0D6FF7B68DC3377
:103120001846FFF7A1FA03461D467B68DC331846B4
:10313000FFF7A8FA03461C467B68DC331846FFF706
:10314000AFFA034608482946224605F0BDFF30374E
:10315000BD46B0BD809698001F85EB5164010020EC
:1031600014730108307301084C73010880B584B0F2
:1031700000AFF860C7E90023F968D7E90023C1E987
:103180001423064B1B78002B05D0FB68D3E91423CE
:10319000034805F099FF1037BD4680BD640100204B
:1031A00068730108000000002DE9B0438EB004AF41
:1031B00078607868FFF79CFE05F02AFA02460B4615
:1031C000104619467B68D3E91423121843EB010318
:1031D0001046194600220DF04FFE7B6890331846CA
:1031E000FFF744FB7B6890331846FFF7BFFB0346AD
:1031F000BB607B6890331846FFF7DCFB0346FB603F
:103200007B6890331846FFF7F9FB03463B617B6808
:10321000DC331846FFF778F87B68DC331846FFF795
:1032200075F90346BB837B68DC331846FFF784F9E6
:103230000346FB837B68DC331846FFF793F90346AC
:103240003B847B68DC331846FFF7A2F903461A4635
:10325000934B1A807B68DC331846FFF7AFF90346BF
:103260001A468F4B5A807B68DC331846FFF7BCF94F
:1032700003461A468A4B9A807B6893F83431002BB8
:103280006BD0874B1A88874B1B8812B21BB2104633
:103290001946FFF72FFC03461A46824B1A80804BD3
:1032A0005A88804B5B8812B21BB210461946FFF752
:1032B00021FC03461A467B4B5A80794B9A88794BFE
:1032C0009B8812B21BB210461946FFF713FC034647
:1032D0001A46744B9A80724B1A88734B1B8812B231
:1032E0001BB210461946FFF71DFC03461A466E4BEB
:1032F0001A806B4B5A886C4B5B8812B21BB210461B
:103300001946FFF70FFC03461A46674B5A80644B79
:103310009A88654B9B8812B21BB210461946FFF77C
:1033200001FC03461A46604B9A805E4B1B8819B21B
:103330005C4B5B881AB25B4B9B881BB25B4805F009
:10334000C3FE594B1B8819B2574B5B881AB2564BB8
:103350009B881BB2564805F0B7FEBB8A1AB2504B89
:103360001B881BB2D31A002BB8BF5B421E2B2ADC72
:10337000FB8A1AB24A4B5B881BB2D31A002BB8BF28
:103380005B421E2B1FDC3B8B1AB2454B9B881BB24A
:10339000D31A002BB8BF5B421E2B14DC7B68DC33D6
:1033A0001846FFF7F5F80346BB827B68DC33184606
:1033B000FFF704F90346FB827B68DC331846FFF70E
:1033C00013F903463B83D7ED047AFDEEE77A17EE57
:1033D000903A002BB8BF5B42012B3ADD7B689033FB
:1033E0001846FFF70BFB03461846FDF735F8044671
:1033F0000D467B68D3E9142310461946FDF74AF8B9
:1034000002460B461046194623A3D3E90023FDF7D5
:10341000A1F902460B4620462946FDF771F80246FF
:103420000B4614461D46234B1B681846FDF714F83F
:1034300002460B461046194622462B46FCF7AEFEC6
:1034400002460B4610461946FDF73CFB0246194B57
:103450001A6019481749012200F0A2F8174B1B788F
:10346000002B4BD0BB681846FCF7F6FF04460D4610
:10347000FB681846FCF7F0FF804689463B69184612
:10348000FCF7EAFF02460B46CDE90089CDE90223AD
:103490000B4822462B4615E00000000065CDCD41CB
:1034A0002C0C00200000002008000020847301087C
:1034B00098730108340C0020080C00204CC4002034
:1034C000AC73010805F000FEBB8B19B2FB8B1AB27E
:1034D0003B8C1BB20A4805F0F7FDBB8A19B2FB8A88
:1034E0001AB23B8B1BB2074805F0EEFD786AFCF779
:1034F000B3FF02460B46044805F0E6FD5CE600BF5C
:10350000BC730108CC730108DC730108AFF30080C1
:1035100080B584B000AFF860B9607A60FB68184687
:10352000B96806227B6805F0DFF8FB68034A1A6079
:10353000FB6818461037BD4680BD00BF988601085D
:1035400080B584B000AFF860B9607A60FB68184657
:10355000B9680C227B6805F0C7F8FB68034A1A605B
:10356000FB6818461037BD4680BD00BF888601083D
:1035700080B584B000AFF860B9607A60FB68184627
:10358000B96804227B6805F0AFF8FB68034A1A604B
:10359000FB6818461037BD4680BD00BF788601081D
:1035A00080B584B000AFF860B9601346FB71FA686B
:1035B000FB791046B9681A46002305F005F9034661
:1035C00018461037BD4680BD80B582B000AF786028
:1035D0007B68084A1A607B6818460DF06BFB002375
:1035E000002B02D0786804F0A3FE7B6818460837E9
:1035F000BD4680BDA886010880B582B000AF786066
:103600007868FFF7E1FF786804F092FE7B6818465F
:103610000837BD4680BD00BF80B582B000AF78607E
:1036200039607B68012B46D13A684FF6FF739A42A6
:1036300041D122484FF0FF31214AFFF769FF1F486F
:103640002049214A0EF082FA20484FF0FF31204AEB
:10365000FFF75EFF1D481B491B4A0EF077FA1D4815
:103660004FF0FF311C4AFFF76BFF1A481B49164AFF
:103670000EF06CFA1A484FF0FF311A4AFFF778FF44
:1036800017481949104A0EF061FA18484FF0FF31F7
:10369000174AFFF76DFF154813490B4A0EF056FA0B
:1036A00014484FF0FF31144AFFF762FF11480E49EA
:1036B000054A0EF04BFA0837BD4680BD540B00207A
:1036C000E8730108B5370008C4C80020780B002053
:1036D000F87301089C0B0020087401085937000892
:1036E000C00B002010740108FD360008E40B002018
:1036F0001C740108080C00202874010880B582B0F1
:1037000000AF78607B680A4A1A600A4804F07AFCC5
:103710007B681846FFF7C0F90023002B02D07868B9
:1037200004F006FE7B6818460837BD4680BD00BF22
:10373000788601083874010880B582B000AF7860DF
:103740007868FFF7DBFF786804F0F2FD7B681846C5
:103750000837BD4680BD00BF80B582B000AF78603D
:103760007B680A4A1A600A4804F04CFC7B681846D9
:10377000FFF792F90023002B02D0786804F0D8FDFF
:103780007B6818460837BD4680BD00BF88860108A3
:103790003874010880B582B000AF78607868FFF7B0
:1037A000DBFF786804F0C4FD7B6818460837BD4627
:1037B00080BD00BF80B582B000AF78607B680A4AE8
:1037C0001A600A4804F01EFC7B681846FFF764F98B
:1037D0000023002B02D0786804F0AAFD7B6818460D
:1037E0000837BD4680BD00BF9886010838740108BF
:1037F00080B582B000AF78607868FFF7DBFF78684B
:1038000004F096FD7B6818460837BD4680BD00BFB2
:1038100080B500AF01204FF6FF71FFF7FDFE80BDC0
:1038200080B584B000AFF860B9607A60FB68184674
:10383000B96864224FF4FA630DF0CEF9FB68164ABA
:103840001A60FB687A681A65D7E906230EA1D1E9E8
:103850000001994208BF904206D3F9680CA3D3E94E
:103860000023C1E9162304E0F968D7E90623C1E97A
:103870001623FB68012283F86020FB681846103786
:10388000BD4680BDAFF30080FFE0F50500000000FD
:1038900000E1F50500000000E0860108AFF30080BC
:1038A00080B483B000AF78607B68012283F8602029
:1038B0000C37BD465DF8047B704700BF80B483B011
:1038C00000AF78607B68002283F860200C37BD462B
:1038D0005DF8047B704700BF80B58AB002AF7860A6
:1038E0007B681B6D1846254906F022FEF861FB69CE
:1038F000002B03D1224805F0E7FB02E0214805F048
:10390000E3FB00233B7503237B7500233B747B683B
:103910001A6D07F1140307F11001009101210191C3
:10392000104629211A46022306F016FFB8611648F0
:10393000B96905F0C9FB3B7C1A463B7C032B14BFDD
:1039400000230123DBB211481146032205F0BCFB22
:1039500081233B7300237B737B681A6D07F10C0393
:10396000104629211A46022306F0C2FEB861084813
:10397000B96905F0A9FB2037BD4680BDA0860100CE
:10398000587401087874010888740108B07401083B
:10399000D874010880B58CB002AF78600023FB6159
:1039A00000233B6200233B830023BB820023FB8474
:1039B0000023BB84AC233B74AE233B730023BB606A
:1039C00004F026FE02460B46104619467B68D3E9F2
:1039D0001623121843EB01031046194600220DF07E
:1039E0004BFA7B6893F86030002B52D07B681A6DDD
:1039F00007F1100307F1180100910221019110460F
:103A000029211A46012306F0A7FE0346FB617B68C5
:103A10001A6D07F10C0307F11401009102210191C5
:103A2000104629211A46012306F096FE03463B6202
:103A30003B6A002B1FDDFB69002B1CD03B7E1B0269
:103A40009AB27B7E1344FB843B7D1B029AB27B7D42
:103A50001344BB84FA8CBB8C786811461A4600F07C
:103A600021F80346BB6007F108030A481946012202
:103A700000F0DCF80DE0084B1B78002B09D007485C
:103A800005F022FBFA693B6A054811461A4605F023
:103A90001BFB95E7380C002064010020F874010836
:103AA0001875010880B48DB000AF786013460A46DF
:103AB0007A803B8047F217533B627B883A6A02FB6D
:103AC00003F39B0AFB613B883A6A02FB03F39B0A00
:103AD000BB610023FB62FB69002B05D0BB699A0226
:103AE000FB69B2FBF3F3FB62FB6A01335B087B61AA
:103AF0007B69432B06D84FF40173BB6240F2AD13D0
:103B00007B6247E07B69852B06D84FF40A73BB6262
:103B100040F2C1237B623DE07B69C82B06D840F2AE
:103B20005323BB6240F263337B6233E07B69B3F5BE
:103B3000857F06D840F28223BB6240F2DF337B628E
:103B400028E07B69B3F5A77F06D240F27713BB620A
:103B500040F2DD137B621DE07B69B3F5CD7F06D8B3
:103B600040F20113BB6240F227137B6212E07A69D4
:103B700040F29A239A4204D83723BB622B237B62FC
:103B800008E07A6940F29A239A4203D90023BB6283
:103B900000237B62FB69BA6A02FB03F2BB69796AA4
:103BA00001FB03F3D31A3B613B6903F500533B610F
:103BB0003B699B0BFB60FB6818463437BD465DF8DC
:103BC000047B704780B584B000AFF860C7E900237C
:103BD000F968D7E90023C1E91623064B1B78002BAF
:103BE00005D0FB68D3E91623034805F06DFA1037BA
:103BF000BD4680BD640100202C75010880B584B0ED
:103C000000AFF860B9607A60FB681846B9680422B2
:103C10007B6804F069FDFB68034A1A60FB6818467C
:103C20001037BD4680BD00BFD086010880B584B086
:103C300000AFF860B9601346FB71FA68FB79104673
:103C4000B9681A46002304F0BFFD03461846103732
:103C5000BD4680BD80B582B000AF78607B68084A01
:103C60001A607B6818460DF025F80023002B02D05F
:103C7000786804F05DFB7B6818460837BD4680BD58
:103C8000E086010880B582B000AF78607868FFF701
:103C9000E1FF786804F04CFB7B6818460837BD46A6
:103CA00080BD00BF80B582B000AF786039607B68AE
:103CB000012B0FD13A684FF6FF739A420AD1074899
:103CC0004FF0FF31064AFFF799FF04480549064ABD
:103CD0000DF03CFF0837BD4680BD00BF380C00200A
:103CE00050750108ED3C0008C4C8002080B582B0C2
:103CF00000AF78607B680A4A1A600A4804F082F9CB
:103D00007B681846FEF7C8FE0023002B02D07868B7
:103D100004F00EFB7B6818460837BD4680BD00BF27
:103D2000D08601085C75010880B582B000AF78606C
:103D30007868FFF7DBFF786804F0FAFA7B681846CA
:103D40000837BD4680BD00BF80B500AF01204FF6EB
:103D5000FF71FFF7A7FF80BD80B582B000AF78602C
:103D6000124801210122012306F014F81048012114
:103D70000122002306F00EF80E4800210122002344
:103D800006F008F80C4801210122002306F002F891
:103D90000A484FF47A714FF47A7207F02FFA074805
:103DA000322107F08DFE0837BD4680BD5C0C002037
:103DB000780C0020940C0020B00C0020CC0C0020CB
:103DC00080B582B000AF78600448012106F0F0F8B9
:103DD000034B01221A700837BD4680BDB00C00208D
:103DE000E80C002080B582B000AF78600648002162
:103DF00006F0DEF8054B00221A70054805F064F95C
:103E00000837BD4680BD00BFB00C0020E80C002084
:103E10006C75010880B582B000AF78600B467B807E
:103E2000B7F90230002B02DC7868FFF7DBFF124B9A
:103E30001B7883F00103DBB2002B02D07868FFF718
:103E4000BFFFB7F90230B3F57A7F02DD4FF47A7322
:103E50007B80B7F902300948194607F031FE084B5C
:103E60001B78002B05D0B7F902300648194605F03B
:103E70002BF90837BD4680BDE80C0020CC0C002093
:103E8000640100207875010880B582B000AF7860C9
:103E900039607B68012B18D13A684FF6FF739A425C
:103EA00013D10B48242105F041FF0A48112105F0E8
:103EB0003DFF09483C2105F039FF0848422105F043
:103EC00035FF07480C2107F06FF90837BD4680BD64
:103ED0005C0C0020780C0020940C0020B00C00201A
:103EE000CC0C002080B500AF01204FF6FF71FFF72A
:103EF000CBFF80BD80B582B000AF786039607B6851
:103F00001846396864224FF4FA630CF065FE7B684A
:103F1000034A1A607B6818460837BD4680BD00BF5B
:103F20002087010880B582B000AF78607B6850338D
:103F30001846FFF711FF054B1B78002B02D00448F1
:103F400005F0C2F80837BD4680BD00BF64010020FF
:103F5000647601080000000080B584B000AF78608E
:103F600004F056FB0FA3D3E90023121843EB01031F
:103F70001046194600220CF07FFF07F10E03084897
:103F8000194600F067F80346002B05D0FB891BB2E9
:103F90007868194600F00CF8E2E700BFAFF3008044
:103FA000100D0020002D310100000000AFF3008053
:103FB00080B582B000AF78600B467B807B6803F1F0
:103FC00050027B881BB210461946FFF723FFBB1C2B
:103FD00006481946012200F065F87B881BB20448A8
:103FE000194605F071F80837BD4680BDEC0C00207D
:103FF0007476010880B584B000AFF860B9607A606B
:10400000FB681846B96802227B6804F06DFBFB6808
:10401000034A1A60FB6818461037BD4680BD00BFD2
:104020001087010880B582B000AF78607B681846C1
:10403000FDF762FC7B68064A1A607B680022DA6042
:104040007B6800229A607B6818460837BD4680BDB1
:10405000F886010880B582B000AF786039607B686F
:10406000DA687B689B689A4214BF00230123DBB2A5
:10407000002B01D0002311E07B68DB687A685B00CD
:1040800013449A883B681A807B68DB687868194615
:1040900000F01CF802467B68DA60012318460837F6
:1040A000BD4680BD80B584B000AFF860B9601346EE
:1040B000FB71FA68FB791046B9681A46002304F0D0
:1040C00083FB034618461037BD4680BD80B483B0DD
:1040D00000AF786039603B68002B02DC3B6801333D
:1040E00000E0002318460C37BD465DF8047B70479E
:1040F00080B582B000AF78607B68084A1A607B6840
:104100001846FDF7C1F90023002B02D0786804F0AF
:104110000FF97B6818460837BD4680BDF886010850
:1041200080B582B000AF78607868FFF7E1FF78680B
:1041300004F0FEF87B6818460837BD4680BD00BF16
:1041400080B582B000AF78607B68084A1A607B68EF
:1041500018460CF0AFFD0023002B02D0786804F065
:10416000E7F87B6818460837BD4680BD2087010800
:1041700080B582B000AF78607868FFF7E1FF7868BB
:1041800004F0D6F87B6818460837BD4680BD00BFEE
:1041900080B584B002AF786039607B68012B24D190
:1041A0003A684FF6FF739A421FD111484FF0FF3122
:1041B000104AFFF71FFF0E480F49104A0DF0C6FCCA
:1041C0000F48FFF72FFF0E480E490C4A0DF0BEFCBA
:1041D000002300930C480649094A0C4B04F0B2F83E
:1041E00009480B49054A0DF0B1FC0837BD4680BDB2
:1041F000EC0C00208476010849420008C4C8002065
:10420000100D0020F1400008200D002094760108D8
:104210002D14000880B584B000AFF860B9607A60F2
:104220003B607B68022B04D9064803F0EBFE0023B9
:1042300004E0F868396800F035F80346184610378E
:10424000BD4680BDAC76010880B582B000AF786015
:104250007B680A4A1A600A4803F0D4FE7B68184655
:10426000FEF71AFC0023002B02D0786804F060F8F7
:104270007B6818460837BD4680BD00BF108701081F
:10428000BC76010880B582B000AF78607868FFF72F
:10429000DBFF786804F04CF87B6818460837BD46A9
:1042A00080BD00BF80B584B000AF786039607B68A6
:1042B0009B6878681946FFF709FFF8607B68DA6841
:1042C000FB689A4214BF00230123DBB2002B01D00C
:1042D00000230BE07B689B683A68128879685B0072
:1042E0000B449A807B68FA689A600123184610375D
:1042F000BD4680BD80B500AF01204FF6FF71FFF7CE
:1043000047FF80BD80B584B000AFF860B960C7E9F1
:104310000023FB681846B96864224FF4FA630CF076
:104320005BFCFB68094A1A60F968D7E90023C1E918
:104330001623FB68012283F86020FB68BA691A65BE
:10434000FB6818461037BD4680BD00BF388701089E
:1043500080B582B000AF78607B681B6D1846002185
:1043600005F028F80837BD4680BD00BF80B584B091
:1043700000AF78607B6893F86030002B1CD004F0AD
:1043800047F902460B46104619467B68D3E91623C7
:10439000121843EB01031046194600220CF06CFD85
:1043A000786800F01DF80346FB6007F10C03034832
:1043B00019460122FFF7F4F8DCE700BF500D00209A
:1043C00080B582B000AF78607B681B6D1846002115
:1043D00005F0B4F8034618460837BD4680BD00BF57
:1043E00080B582B000AF78607868FFF7E9FF0346D8
:1043F0001846FCF71FF802460B461046194612A352
:10440000D3E90023FCF7A6F902460B4610461946ED
:104410000FA3D3E90023FCF773F802460B461046BE
:1044200019460DA3D3E90023FCF76AF802460B46B0
:1044300010461946FCF746FB034618460837BD46AA
:1044400080BD00BFAFF300800000000000FEAF4061
:104450000000006066660A40000000A099990D40C7
:1044600080B582B000AF78607B68084A1A607B68CC
:1044700018460CF01FFC0023002B02D0786803F0D4
:1044800057FF7B6818460837BD4680BD388701084E
:1044900080B582B000AF78607868FFF7E1FF786898
:1044A00003F046FF7B6818460837BD4680BD00BF55
:1044B00080B582B000AF786039607B68012B0FD186
:1044C0003A684FF6FF739A420AD107484FF0FF311E
:1044D000064AFFF74DF804480549064A0DF036FB39
:1044E0000837BD4680BD00BF500D0020DC760108B6
:1044F000FD360008C4C8002080B500AF01204FF68B
:10450000FF71FFF7D5FF80BD80B584B000AFF860C4
:10451000B9607A60FB681846B96801227B6804F0CC
:10452000E3F8FB68034A1A60FB6818461037BD467B
:1045300080BD00BF5087010880B582B000AF7860B1
:1045400039607B68012B0FD13A684FF6FF739A42AE
:104550000AD1074848F20771064AFFF7D5FF044819
:104560000549064A0DF0F2FA0837BD4680BD00BF86
:10457000740D00201077010881450008C4C8002090
:1045800080B582B000AF78607B680A4A1A600A483A
:1045900003F038FD7B681846FEF77EFA0023002BF7
:1045A00002D0786803F0C4FE7B6818460837BD4621
:1045B00080BD00BF508701081C77010880B582B01C
:1045C00000AF78607868FFF7DBFF786803F0B0FE33
:1045D0007B6818460837BD4680BD00BF80B500AF78
:1045E00001204FF6FF71FFF7A7FF80BD80B483B0B5
:1045F00000AF7860054A7B6843F0BF6343F4003343
:10460000D3600C37BD465DF8047B704700ED00E0D9
:1046100080B485B000AF78600023FB730023BB73C8
:104620000F237B737B68DB78002B37D0254BDB684F
:10463000DB4303F4E0631B0AFB73FB7BC3F104035E
:10464000BB737A7BFB7B42FA03F37B737B685B78FB
:104650001A46BB7B02FA03F3FB737B689A787B7B79
:104660001340DAB2FB7B1343FB73FB7B1B01FB7331
:10467000154A7B681B781344FA7B83F80023124B9E
:104680007A6812785209D2B27968097801F01F016C
:10469000012000FA01F143F822100EE00A4B7A687B
:1046A00012785209D2B27968097801F01F0101200D
:1046B00000FA01F1203243F822101437BD465DF8AC
:1046C000047B704700ED00E000E100E080B485B0BD
:1046D00000AFF860B9607A607B80FB68BA681A60E6
:1046E000FB687A685A60FB687A881A81FB683A8BA3
:1046F0005A81FB6818461437BD465DF8047B704745
:1047000080B584B000AF7860172001210AF018F955
:10471000414806210D2209F081FD3F4804210D2268
:1047200009F07CFD3D4807210D2209F077FD3C484A
:1047300006210D2209F072FD394807210D2209F0EA
:104740006DFD384800210D2209F068FD3548012132
:104750000D2209F063FD334804210D2209F05EFDAE
:104760002E4806210D2209F059FD2E4805210D2263
:1047700009F054FD2B4806210D2209F04FFD50236E
:10478000BB6002233B7303237B730023BB730123B2
:10479000FB7307F108032048194609F06DFCC0239C
:1047A000BB6002233B730023BB7307F108031B4864
:1047B000194609F061FCC023BB6007F108031848E3
:1047C000194609F059FC7323BB6007F1080315482B
:1047D000194609F051FC012001210AF0B1F80E48F8
:1047E0000821002209F01AFD4FF48073BB600223F8
:1047F0003B7303237B730023FB730023BB7307F11D
:1048000008030548194609F037FC0020002109F08B
:10481000CFFF1037BD4680BD0000024000040240BB
:10482000000802400010024080B598B000AF7860E8
:10483000012001210AF0A2F809F030F87B685B89B9
:10484000A7F850300023A7F852302023A7F854309F
:104850008023A7F856304023A7F858307B681B897F
:10486000A7F85A300023A7F85C304FF480000121EC
:104870000AF066F8334809F0F5F84FF00073BB60B2
:10488000314BFB607B685B683B6100237B617B682D
:104890001B689B08BB610023FB614FF480633B6294
:1048A0004FF480537B624FF48043BB624FF48073BC
:1048B000FB624FF440333B6304237B630323BB63FE
:1048C0000023FB6300233B6407F15003184609F003
:1048D00003F807F108031B48194609F095F9194830
:1048E0001021012209F056FA16480421012209F08C
:1048F00051FA4FF4C060FFF779FE4E2387F84C3031
:10490000022387F84D30022387F84E30012387F8C1
:104910004F3007F14C031846FFF77AFE392387F82A
:104920004C30012387F84D30012387F84E300123A6
:1049300087F84F3007F14C031846FFF769FE6037E0
:10494000BD4680BD286402402800055080B582B075
:1049500000AF78600820012109F034F8102001210F
:1049600009F030F80120012109F02CF80220012182
:1049700009F028F80420012109F024F80448012155
:1049800009F098F9012008F0E5FF0837BD4680BD21
:104990002864024080B588B000AF78604FF4001002
:1049A00001210AF009F80220012109F0C9FF07F1ED
:1049B0001803184609F0EEFB4FF44073BB61022365
:1049C0003B7700237B770123BB770123FB7707F13C
:1049D00018031E48194609F04FFB1C480821042201
:1049E00009F01CFC19480921042209F017FC07F101
:1049F0000803184609F054FD154809F055FC144801
:104A0000012109F06BFD0023BB814BF6FF73FB8195
:104A100000233B824FF480637B824FF48043BB8250
:104A20000C4BBB600A484FF48071012209F012FE62
:104A300007F108030648194609F070FC04480121F3
:104A400009F04CFD2037BD4680BD00BF0004024088
:104A500000540040A086010080B584B000AFF8602B
:104A6000B960FA71BB7100E000BFB8684FF4003163
:104A700009F044FE0346002B0CBF00230123DBB2E8
:104A8000002BF1D1B868012109F048FD00E000BF1A
:104A9000B8681C4909F002FE0346002B14BF00232E
:104AA0000123DBB2002BF2D1FA79BB79B868114649
:104AB0001A4609F073FDBB79002B0ED100E000BF50
:104AC000B868114909F0EAFD0346002B14BF002322
:104AD0000123DBB2002BF2D110E0BB79012B0DD109
:104AE00000E000BFB868094909F0D8FD0346002B73
:104AF00014BF00230123DBB2002BF2D11037BD46D7
:104B000080BD00BF01000300820007000200030017
:104B100080B584B000AFF860B9601346FB71FB79D3
:104B2000B868194609F078FD00E000BFB868074989
:104B300009F0B4FD0346002B14BF00230123DBB2B0
:104B4000002BF2D11037BD4680BD00BF84000700A6
:104B500080B584B000AF786039603868002109F012
:104B60003BFD00E000BF38680A4909F097FD0346A5
:104B7000002B14BF00230123DBB2002BF2D13868D5
:104B800009F05AFD0346FB73FB7B18461037BD4600
:104B900080BD00BF4000030080B582B000AF7860E8
:104BA00039603868012109F0D9FC0837BD4680BD5D
:104BB00080B584B000AF78600B46FB700023FB73B8
:104BC00078684FF47A7100F083F8786820494222BF
:104BD0000023FFF741FF78684FF47A7100F078F80E
:104BE000FB7878681A491A46FFF792FF78684FF405
:104BF0007A7100F06DF878681549FFF7CDFF786895
:104C00004FF47A7100F064F8786811494322012367
:104C1000FFF722FF78684FF47A7100F059F878684E
:104C20000B49FFF795FF0346FB7378684FF47A71E1
:104C300000F04EF878680649FFF7AEFF78684FF449
:104C40007A7100F045F8FB7B18461037BD4680BDF1
:104C50000054004080B582B000AF786013460A4629
:104C6000FA70BB7078684FF47A7100F031F87868A8
:104C7000164942220023FFF7EFFE78684FF47A715D
:104C800000F026F8FB78786810491A46FFF740FFD5
:104C900078684FF47A7100F01BF8BB7878680B499C
:104CA0001A46FFF735FF78684FF47A7100F010F874
:104CB00078680649FFF770FF78684FF47A7100F062
:104CC00007F8002318460837BD4680BD0054004051
:104CD00080B483B000AF7860396003E03B68013B8B
:104CE0003B6000BF3B68012BF8D80C37BD465DF830
:104CF000047B704780B500AF094804F0E5F9094826
:104D0000094909F081F80346012B14BF0023012350
:104D1000DBB2002B03D00348034909F00DF880BD36
:104D20002C770108A06002400080202080B500AFF1
:104D30001348144909F068F80346012B14BF0023F7
:104D40000123DBB2002B06D00F4804F0BDF90C485C
:104D50000C4908F0F1FF0A480C4909F055F80346E0
:104D6000012B14BF00230123DBB2002B06D008481F
:104D700004F0AAF90248054908F0DEFF80BD00BF33
:104D800028640240008800103C77010800220010CF
:104D90004C77010880B500AF082008F043FE0346B9
:104DA000012B14BF00230123DBB2002B0ED02F4BAD
:104DB0001B68002B03D12D4B01221A6002E02B4B04
:104DC00000221A60082008F01DFE4DE0102008F0B7
:104DD00029FE0346012B14BF00230123DBB2002B65
:104DE00010D0224B1B68012B05D1214B1B685A1C8C
:104DF0001F4B1A6002E01E4B00221A60102008F0C0
:104E000001FE31E0012008F00DFE0346012B14BF26
:104E100000230123DBB2002B03D0012008F0F2FDB8
:104E200022E0042008F0FEFD0346012B14BF0023FE
:104E30000123DBB2002B06D00E4804F045F9042014
:104E400008F0E0FD10E0022008F0ECFD0346012B25
:104E500014BF00230123DBB2002B05D0064804F069
:104E600033F9022008F0CEFD80BD00BF60010020B4
:104E7000980D0020587701086C77010880B584B040
:104E800002AF786039607B681846396864224FF455
:104E9000FA630BF0A1FE7B681C4A1A607B6803F181
:104EA00050027B68B4330221009110464FF4164142
:104EB0001A460023FFF70AFC7B68603318463D2141
:104EC00004F034FF7B687C3318460A2104F02EFF7F
:104ED0007B6898331846212104F028FF7B6803F58E
:104EE0001643B43300221A607B6803F51643B833C7
:104EF00000221A607B6803F51643C03300221A7043
:104F00007B6818460837BD4680BD00BF7087010822
:104F100080B588B002AF7860354804F0D5F800233A
:104F2000FB8200233B617B685C33184612218022A0
:104F3000FFF790FE03463B617B685C331846122105
:104F40000022FFF787FE03463B613EE0FB8A2948CB
:104F5000194604F0B9F87B6803F15C01FA8A264B24
:104F600013F81220FB8A24485B0003445B78084650
:104F700011461A46FFF76EFE03463B617B6803F15C
:104F80005C02F98A1C4B13F8113010461946FFF7E2
:104F90000FFE0346FB73F98AFA8A174B13F8123097
:104FA0001A46FB8A14485B0003445B78F87B009048
:104FB000124804F089F83B69002B03D01048396986
:104FC00004F082F8FB8A0133FB82FA8A0A4B13F859
:104FD0001230FF2B06D0FB8A074A5B0013445B7834
:104FE000FF2BB3D1074804F06FF81837BD4680BDDA
:104FF00088770108A477010810000020C077010815
:10500000E8770108F877010880B582B000AF7860D2
:10501000364804F059F87B686033184601210122B4
:10502000002304F0B7FE7B687C331846012101227F
:10503000002304F0AFFE7B6898331846012101225B
:10504000002304F0A7FE7B687C331846012104F09E
:10505000AFFF7B6898331846002104F0A9FF24486D
:1050600004F032F87B6850331846FFF749FB2148BB
:1050700004F02AF8204804F027F87B6850331846DB
:10508000FFF7D2FB1B4804F01FF81C4804F01CF883
:1050900078684FF47A7100F0F3F97B685C33184656
:1050A000FFF778FC134804F00FF8154804F00CF8EB
:1050B00078684FF47A7100F0E3F97868FFF728FF19
:1050C0000C4804F001F80F4803F0FEFF78684FF435
:1050D0007A7100F0D5F97B6850331846FFF736FC3B
:1050E000094803F0F1FF0837BD4680BD1478010878
:1050F00028780108387801084078010850780108BC
:105100005C7801086C7801087C78010880B584B06F
:1051100000AF7860164803F0D7FF7B6803F51643AD
:10512000BC331B881BB21348194603F0CDFF7B68C4
:1051300003F51643BE331B881BB20E48194603F015
:10514000C3FF0023FB600BE07A68FB681344B033B5
:105150001B790948194603F0B7FFFB680233FB606F
:10516000FB68B3F5164FEFDB1037BD4680BD00BFBF
:1051700094780108987801089C78010880B582B07D
:1051800000AF7860012008F001FC0837BD4680BD03
:1051900080B5ADF5926D00AF3B1D18600023C7F8D8
:1051A0008C340BE007F5F473D7F88C24002143F816
:1051B0002210D7F88C340133C7F88C34D7F88C34EC
:1051C0009F2BEFDD0023C7F888340BE007F10803BD
:1051D000D7F88824002143F82210D7F88834013307
:1051E000C7F88834D7F88834772BEFDD0023C7F869
:1051F00084345DE00023C7F8803450E0D7F884247D
:1052000013469B0013445B011A46D7F880341344BD
:105210005B003A1D1268134493F8B430FF2B39D168
:1052200007F5F473D7F8802453F82210D7F88424B4
:1052300013469B0013445B011A46D7F8803413448D
:105240005B003A1D1268134493F8B430194407F513
:10525000F473D7F8802443F8221007F10803D7F835
:10526000842453F82210D7F8842413469B00134457
:105270005B011A46D7F8803413445B003A1D12686C
:10528000134493F8B430194407F10803D7F8842481
:1052900043F82210D7F880340133C7F88034D7F8A8
:1052A00080349F2BAADDD7F884340133C7F88434C7
:1052B000D7F88434772B9DDD0023C7F87C34002396
:1052C000C7F878340023C7F874340FE007F5F47397
:1052D000D7F8742453F82230D7F87C241344C7F845
:1052E0007C34D7F874340133C7F87434D7F8743485
:1052F0009F2BEBDD0023C7F870340FE007F5F47344
:10530000D7F8702453F82230D7F878241344C7F81C
:105310007834D7F870340133C7F87034D7F87C3458
:1053200007EE103AF8EEC77A17EE900AFBF794F8FA
:1053300002460B46104619464FF000024FF08043DC
:10534000FBF708FA02460B4610461946FBF772FBBC
:105350000246D7F878349A42D0DC0023C7F87C3470
:105360000023C7F878340023C7F86C340FE007F146
:105370000803D7F86C2453F82230D7F87C24134460
:10538000C7F87C34D7F86C340133C7F86C34D7F8DD
:105390006C34772BEBDD0023C7F868340FE007F19E
:1053A0000803D7F8682453F82230D7F87824134438
:1053B000C7F87834D7F868340133C7F86834D7F8B9
:1053C0007C3407EE103AF8EEC77A17EE900AFBF736
:1053D00043F802460B46104619464FF000024FF0C4
:1053E0008043FBF7B7F902460B4610461946FBF718
:1053F00021FB0246D7F878349A42D0DCD7F87034D3
:105400009AB23B1D1B6803F51643BC331A80D7F8CC
:1054100068349AB23B1D1B6803F51643BE331A80ED
:105420003B1D1B6803F51643BC3304481946012293
:1054300000F070F807F59267BD4680BD9C0D002016
:1054400080B582B000AF78607B6803F51643C03347
:105450001B78002B0CD003F0DBF807A3D3E9002363
:10546000121843EB01031046194600220BF004FD0D
:10547000EAE700BFAFF3008000943577000000003A
:1054800080B483B000AF7860396003E03B68013BD3
:105490003B6000BF3B68012BF8D80C37BD465DF878
:1054A000047B704780B483B000AF78607B6803F5FD
:1054B0001643C03301221A700C37BD465DF8047BD9
:1054C000704700BF80B483B000AF78607B6803F59D
:1054D0001643C03300221A700C37BD465DF8047BBA
:1054E000704700BF80B584B000AFF860B9607A60E3
:1054F000FB681846B96804227B6803F0F5F8FB687E
:10550000034A1A60FB6818461037BD4680BD00BFCD
:105510006087010880B584B000AFF860B9601346B9
:10552000FB71FA68FB791046B9681A46002303F04C
:105530004BF9034618461037BD4680BD80B582B092
:1055400000AF78607B68084A1A607B6818460BF0E9
:10555000B1FB0023002B02D0786802F0E9FE7B68E3
:1055600018460837BD4680BD7087010880B582B0F7
:1055700000AF78607868FFF7E1FF786802F0D8FE46
:105580007B6818460837BD4680BD00BF80B582B035
:1055900000AF786039607B68012B0FD13A684FF615
:1055A000FF739A420AD107484FF0FF31064AFFF7CE
:1055B00099FF04480549064A0CF0C8FA0837BD4669
:1055C00080BD00BF9C0D0020A0780108D5550008C3
:1055D000C4C8002080B582B000AF78607B680A4AFA
:1055E0001A600A4802F00EFD7B681846FDF754FA6F
:1055F0000023002B02D0786802F09AFE7B681846E0
:105600000837BD4680BD00BF60870108B07801083B
:1056100080B582B000AF78607868FFF7DBFF78680C
:1056200002F086FE7B6818460837BD4680BD00BF85
:1056300080B500AF01204FF6FF71FFF7A7FF80BDD7
:1056400080B584B000AFF860B9607A60FB68184636
:10565000B96864224FF4FA630BF0BEFAFB68074A9C
:105660001A60F968D7E90623C1E91623FB687A684E
:105670001A65FB6818461037BD4680BDB087010823
:1056800080B582B000AF78607B681B6D18464FF420
:10569000E13106F029FF0837BD4680BD90B5A9B0BD
:1056A00002AF78600023C7F8943079687B68D3E94B
:1056B0001623CDE9002308464FF000024FF0000307
:1056C00002F026FF60E07B681B6D1B6818331B68C7
:1056D0007A68126D104698470346002B28D07B68E5
:1056E0001A6D07F10C0310461946402206F05CFFC4
:1056F000C7F8940007F10C0207F14C0378681146D3
:10570000D7F8942000F050F80346002B06D007F19C
:105710004C0322481946012200F0FAF807F14C0226
:1057200007F14C0307331E4811461A4603F0CCFC20
:1057300007F14C031B48194600F0FEF80346002B06
:105740001AD007F10C0207F14C03786811461A468B
:10575000002300F087F87B681C6D07F14C030733CA
:10576000184602F0DDFC0346083307F10C02204620
:1057700011461A4606F086FF07F14C0247231046F1
:1057800000211A4602F012FD7B68184602F0D6FE90
:105790000123002B97D19C37BD4690BDC00D002042
:1057A0006C790108080E00202DE9F04389B000AFA4
:1057B000F860B9607A603B60B86802F0B1FC0346FB
:1057C000063BBB613B6818462549BA680CF0CCF92A
:1057D000BB69002B3DD06B461E46BB69591E7961E3
:1057E0000B4601331A464FF000034FEAC30949EA5A
:1057F00052794FEAC2080B4601331A464FF00003B4
:10580000DD0045EA5275D4000B4601330733DB084F
:10581000DB00ADEB030D6B4600333B610023FB77F0
:105820000BE03A69FB7F1344FA7F0632B9680A44F9
:1058300012781A70FB7F0133FB77FA7FBB699A42BB
:10584000EFD33B68DA1D3B691046194602F086FC2F
:10585000B546012318462437BD46BDE8F08300BF96
:105860008479010880B584B000AFF860B9607A60CF
:10587000FB70FB78002B07D07A687B680733B86829
:1058800006490CF071F906E07A687B680733B8685E
:1058900003490CF069F91037BD4680BD8C790108C9
:1058A0009C79010880B584B000AFF860B9607A6077
:1058B000FB681846B96847227B6802F015FFFB6851
:1058C000034A1A60FB6818461037BD4680BD00BF0A
:1058D000A087010880B582B000AF78607B68184669
:1058E000FCF70AF87B68094A1A607B6803F58E5357
:1058F000083300221A607B6803F58E5304330022BC
:105900001A607B6818460837BD4680BD8887010845
:1059100080B584B000AFF860B9601346FB71FA68D7
:10592000FB791046B9681A46002302F04DFF034682
:1059300018461037BD4680BD80B582B000AF786094
:1059400039607B6803F58E5308331A687B6803F56A
:105950008E5304331B689A4214BF00230123DBB229
:10596000002B01D0002323E07B6803F58E5308331E
:105970001A68396878681346DB001344DB009B1A09
:1059800003441A1D4723084611461A4602F030FC0C
:105990007B6803F58E5308331B687868194600F05E
:1059A0000BF802467B6803F58E5308331A60012317
:1059B00018460837BD4680BD80B483B000AF78601C
:1059C00039603B683E2B02DC3B68013300E000237A
:1059D00018460C37BD465DF8047B704780B582B031
:1059E00000AF78607B68084A1A607B681846FBF74E
:1059F0004BFD0023002B02D0786802F099FC7B68F5
:105A000018460837BD4680BD8887010880B582B03A
:105A100000AF78607868FFF7E1FF786802F088FCF3
:105A20007B6818460837BD4680BD00BF80B582B090
:105A300000AF78607B68084A1A607B6818460BF0F4
:105A400039F90023002B02D0786802F071FC7B68E2
:105A500018460837BD4680BDB087010880B582B0C2
:105A600000AF78607868FFF7E1FF786802F060FCCB
:105A70007B6818460837BD4680BD00BF80B584B03E
:105A800002AF786039607B68012B2FD13A684FF6FE
:105A9000FF739A422AD117484FF0FF31164AFFF799
:105AA00001FF14481549164A0CF050F815484FF0FC
:105AB000FF31154AFFF7F6FE12481049104A0CF064
:105AC00045F81248FFF706FF104811490C4A0CF040
:105AD0003DF8002300930F480A490C4A0E4B02F090
