:020000040800F2
:1000000000000220292D0008952D0008952D0008DC
:10001000952D0008952D0008952D00080000000082
:100020000000000000000000000000009D6D0008BE
:10003000952D000800000000B16D0008DD7000087B
:10004000952D0008952D0008952D0008952D000888
:10005000952D0008952D0008BD350008E1350008F4
:1000600005360008293600084D360008952D000891
:10007000994B0008952D0008C14A0008952D0008ED
:10008000514B0008794A0008952D0008952D00086D
:10009000952D0008952D0008952D00087136000853
:1000A000952D0008952D0008952D0008952D000828
:1000B000952D0008952D0008952D0008952D000818
:1000C000952D0008952D0008952D0008952D000808
:1000D000952D0008A1490008B9490008D149000838
:1000E000CD360008952D0008952D0008952D0008A7
:1000F000952D0008952D0008952D0008952D0008D8
:10010000952D0008952D0008A96E0008952D000872
:10011000E9490008014A0008952D00088D72000881
:10012000952D0008952D0008952D0008952D0008A7
:10013000952D0008952D0008952D0008952D000897
:10014000952D0008952D0008952D0008952D000887
:10015000094B0008952D0008314A0008194A00088B
:10016000952D0008952D0008952D0008952D000867
:10017000952D0008952D0008952D0008952D000857
:0C018000952D0008952D000800000008D7
:1001900081F0004102E000BF83F0004330B54FEA38
:1001A00041044FEA430594EA050F08BF90EA020FA5
:1001B0001FBF54EA000C55EA020C7FEA645C7FEA38
:1001C000655C00F0E2804FEA5454D4EB5555B8BF5B
:1001D0006D420CDD2C4480EA020281EA030382EACC
:1001E000000083EA010180EA020281EA0303362D5E
:1001F00088BF30BD11F0004F4FEA01314FF4801C31
:100200004CEA113102D0404261EB410113F0004F42
:100210004FEA03334CEA133302D0524263EB4303F9
:1002200094EA050F00F0A780A4F10104D5F1200E97
:100230000DDB02FA0EFC22FA05F2801841F10001F2
:1002400003FA0EF2801843FA05F359410EE0A5F1C6
:1002500020050EF1200E012A03FA0EFC28BF4CF0F7
:10026000020C43FA05F3C01851EBE37101F00045AD
:1002700007D54FF0000EDCF1000C7EEB00006EEBBA
:100280000101B1F5801F1BD3B1F5001F0CD3490844
:100290005FEA30004FEA3C0C04F101044FEA44529B
:1002A00012F5800F80F09A80BCF1004F08BF5FEA22
:1002B000500C50F1000041EB045141EA050130BD02
:1002C0005FEA4C0C404141EB010111F4801FA4F1A5
:1002D0000104E9D191F0000F04BF01460020B1FAFA
:1002E00081F308BF2033A3F10B03B3F120020CDA32
:1002F0000C3208DD02F1140CC2F10C0201FA0CF010
:1003000021FA02F10CE002F11402D8BFC2F1200C74
:1003100001FA02F120FA0CFCDCBF41EA0C0190402A
:10032000E41AA2BF01EB0451294330BD6FEA040473
:100330001F3C1CDA0C340EDC04F11404C4F120025E
:1003400020FA04F001FA02F340EA030021FA04F370
:1003500045EA030130BDC4F10C04C4F1200220FAC7
:1003600002F001FA04F340EA0300294630BD21FA05
:1003700004F0294630BD94F0000F83F4801306BFCB
:1003800081F480110134013D4EE77FEA645C18BFBF
:100390007FEA655C29D094EA050F08BF90EA020F56
:1003A00005D054EA000C04BF1946104630BD91EA4E
:1003B000030F1EBF0021002030BD5FEA545C05D151
:1003C0004000494128BF41F0004130BD14F5800490
:1003D0003CBF01F5801130BD01F0004545F0FE4104
:1003E00041F470014FF0000030BD7FEA645C1ABF39
:1003F000194610467FEA655C1CBF0B46024650EA70
:10040000013406BF52EA033591EA030F41F400219B
:1004100030BD00BF90F0000F04BF0021704730B521
:100420004FF4806404F132044FF000054FF00001F6
:1004300050E700BF90F0000F04BF0021704730B5B7
:100440004FF4806404F1320410F0004548BF40428C
:100450004FF000013EE700BF42004FEAE2014FEAE1
:1004600031014FEA02701FBF12F07F4393F07F4FBC
:1004700081F06051704792F0000F14BF93F07F4FEE
:10048000704730B54FF4607401F0004521F0004131
:1004900020E700BF50EA010208BF704730B54FF0B7
:1004A00000050AE050EA010208BF704730B511F0BC
:1004B000004502D5404261EB41014FF4806404F1F4
:1004C00032045FEA915C3FF4DCAE4FF003025FEA76
:1004D000DC0C18BF03325FEADC0C18BF033202EBFE
:1004E000DC02C2F1200300FA03FC20FA02F001FA58
:1004F00003FE40EA0E0021FA02F11444C1E600BFF7
:1005000070B54FF0FF0C4CF4E06C1CEA11541DBFA9
:100510001CEA135594EA0C0F95EA0C0F00F0DEF874
:100520002C4481EA030621EA4C5123EA4C5350EA59
:10053000013518BF52EA033541F4801143F48013AA
:1005400038D0A0FB02CE4FF00005E1FB02E506F03B
:100550000042E0FB03E54FF00006E1FB03569CF090
:10056000000F18BF4EF0010EA4F1FF04B6F5007F96
:1005700064F5407404D25FEA4E0E6D4146EB060608
:1005800042EAC62141EA55514FEAC52040EA5E5091
:100590004FEACE2EB4F1FD0C88BFBCF5E06F1ED83B
:1005A000BEF1004F08BF5FEA500E50F1000041EB72
:1005B000045170BD06F0004646EA010140EA02001F
:1005C00081EA0301B4EB5C04C2BFD4EB0C0541EA41
:1005D000045170BD41F480114FF0000E013C00F356
:1005E000AB8014F1360FDEBF002001F0004170BD7A
:1005F000C4F10004203C35DA0C341BDC04F1140493
:10060000C4F1200500FA05F320FA04F001FA05F21E
:1006100040EA020001F0004221F0004110EBD370EB
:1006200021FA04F642EB06015EEA430E08BF20EA17
:10063000D37070BDC4F10C04C4F1200500FA04F3BA
:1006400020FA05F001FA04F240EA020001F000414C
:1006500010EBD37041F100015EEA430E08BF20EABF
:10066000D37070BDC4F1200500FA05F24EEA020E07
:1006700020FA04F301FA05F243EA020321FA04F036
:1006800001F0004121FA04F220EA020000EBD370ED
:100690005EEA430E08BF20EAD37070BD94F0000FED
:1006A0000FD101F00046400041EB010111F4801F21
:1006B00008BF013CF7D041EA060195F0000F18BFD2
:1006C000704703F00046520043EB030313F4801F0E
:1006D00008BF013DF7D043EA0603704794EA0C0FC8
:1006E0000CEA135518BF95EA0C0F0CD050EA4106DE
:1006F00018BF52EA4306D1D181EA030101F000415B
:100700004FF0000070BD50EA410606BF1046194682
:1007100052EA430619D094EA0C0F02D150EA01368E
:1007200013D195EA0C0F05D152EA03361CBF1046CF
:1007300019460AD181EA030101F0004141F0FE416E
:1007400041F470014FF0000070BD41F0FE4141F4F2
:10075000780170BD70B54FF0FF0C4CF4E06C1CEAF2
:1007600011541DBF1CEA135594EA0C0F95EA0C0FA7
:1007700000F0A7F8A4EB050481EA030E52EA033562
:100780004FEA013100F088804FEA03334FF0805583
:1007900045EA131343EA12634FEA022245EA1115B0
:1007A00045EA10654FEA00260EF000419D4208BF61
:1007B000964244F1FD0404F5407402D25B084FEA0E
:1007C0003202B61A65EB03055B084FEA32024FF4BA
:1007D00080104FF4002CB6EB020E75EB030E22BF17
:1007E000B61A754640EA0C005B084FEA3202B6EBD7
:1007F000020E75EB030E22BFB61A754640EA5C0086
:100800005B084FEA3202B6EB020E75EB030E22BF15
:10081000B61A754640EA9C005B084FEA3202B6EB16
:10082000020E75EB030E22BFB61A754640EADC00D5
:1008300055EA060E18D04FEA051545EA16754FEA37
:1008400006164FEAC30343EA52734FEAC2025FEA55
:100850001C1CC0D111F4801F0BD141EA00014FF0E4
:1008600000004FF0004CB6E711F4801F04BF0143B5
:100870000020B4F1FD0C88BFBCF5E06F3FF6AFAED1
:10088000B5EB030C04BFB6EB020C5FEA500C50F161
:10089000000041EB045170BD0EF0004E4EEA1131E4
:1008A00014EB5C04C2BFD4EB0C0541EA045170BDEB
:1008B00041F480114FF0000E013C90E645EA060E2F
:1008C0008DE60CEA135594EA0C0F08BF95EA0C0F5D
:1008D0003FF43BAF94EA0C0F0AD150EA01347FF4A5
:1008E00034AF95EA0C0F7FF425AF104619462CE77C
:1008F00095EA0C0F06D152EA03353FF4FDAE1046DF
:10090000194622E750EA410618BF52EA43067FF42F
:10091000C5AE50EA41047FF40DAF52EA43057FF4BF
:10092000EBAE12E74FF0FF3C06E000BF4FF0010CCA
:1009300002E000BF4FF0010C4DF804CD4FEA410C2E
:100940007FEA6C5C4FEA430C18BF7FEA6C5C1BD0FB
:1009500001B050EA410C0CBF52EA430C91EA030F7C
:1009600002BF90EA020F0020704710F1000F91EAD9
:10097000030F58BF994208BF90422CBFD8176FEAA7
:10098000E37040F0010070474FEA410C7FEA6C5C75
:1009900002D150EA013C07D14FEA430C7FEA6C5C7C
:1009A000D6D152EA033CD3D05DF8040B704700BFA8
:1009B0008446104662468C461946634600E000BFF6
:1009C00001B5FFF7B7FF002848BF10F1000F01BDC8
:1009D0004DF808EDFFF7F4FF0CBF012000205DF893
:1009E00008FB00BF4DF808EDFFF7EAFF34BF012018
:1009F00000205DF808FB00BF4DF808EDFFF7E0FFB1
:100A000094BF012000205DF808FB00BF4DF808ED01
:100A1000FFF7CEFF94BF012000205DF808FB00BF68
:100A20004DF808EDFFF7C4FF34BF012000205DF84A
:100A300008FB00BF4A0011D212F5001211D20DD5E9
:100A40006FF47873B3EB62520ED44FEAC12343F0D4
:100A5000004343EA505323FA02F070474FF000007E
:100A6000704750EA013002D14FF0FF3070474FF02D
:100A70000000704773B96AB9002908BF0028BCBFDD
:100A800000204FF00041C4BF6FF000414FF0FF3035
:100A900000F08CB882B0EC462DE9005000F056F81A
:100AA000DDF804E002B00CBC704700BF4BB942B99E
:100AB000002908BF002802D04FF0FF31084600F09F
:100AC00075B882B0EC462DE9005000F057F8DDF81B
:100AD00004E002B00CBC704738B500220023044685
:100AE0000D46FFF77FFF28B920462946BDE838406C
:100AF00000F00AB8204605F1004100F005F8404238
:100B000061EB410138BD00BF70B500220D4B0446BA
:100B10000D46FFF7F5FCFFF78DFF0646FFF77AFC61
:100B20000022094BFFF7ECFC02460B462046294603
:100B3000FFF732FBFFF77EFF002242EA0004204667
:100B4000314670BD0000F03D0000F0412DE97043DA
:100B5000069E14461D468046894600F029F804FB8F
:100B600001F300FB0533A4FB00451D44B8EB04046E
:100B700069EB0505C6E90045BDE870832DE97043C2
:100B8000069E1446804689461D4600F05DF900FB2E
:100B900005F504FB0153A0FB04451D44B8EB040418
:100BA00069EB0505C6E90045BDE87083704700BFE5
:100BB00000292DE9F00FC0F29F800024002BC0F225
:100BC0009680154606460F46002B3ED18A4257D9DD
:100BD000B2FA82F34BB1C3F1200201FA03F720FA13
:100BE00002F29D40174300FA03F6290CB7FBF1F21D
:100BF000330C01FB127CA8B243EA0C4700FB02F362
:100C0000BB4209D97F1902F1FF3C80F00181BB4250
:100C100040F2FE80023A2F44FF1AB7FBF1F3B6B25E
:100C200001FB137146EA014100FB03F0884208D939
:100C3000491903F1FF3780F0ED80884240F2EA80E5
:100C4000023B43EA0242002303E08B420AD900231D
:100C50001A461046194614B1404261EB4101BDE805
:100C6000F00F7047B3FA83F8B8F1000F40F08480BA
:100C70008B4202D3824200F2DE8000230122E8E7A9
:100C800012B90123B3FBF2F5B5FA85F2002A39D186
:100C90007F1B280C1FFA85FC0123B7FBF0F1320CF7
:100CA00000FB117742EA07470CFB01F2BA4207D971
:100CB0007F1901F1FF3802D2BA4200F2C1804146E9
:100CC000BF1AB7FBF0F2B6B200FB127046EA004062
:100CD0000CFB02FC844507D9401902F1FF3702D210
:100CE000844500F2AB803A4642EA0142B1E7E44370
:100CF000524263EB430364E7404261EB41014FF032
:100D0000FF345BE79540C2F1200327FA03F1280C7A
:100D100026FA03F39740B1FBF0F81F433B0C00FBAE
:100D200018111FFA85FC43EA01410CFB08F38B42C2
:100D300006FA02F608D9491908F1FF3279D28B4236
:100D400077D9A8F102082944C91AB1FBF0F3BFB260
:100D500000FB131147EA01470CFB03F2BA4207D923
:100D60007F1903F1FF3160D2BA425ED9023B2F44B2
:100D7000BF1A43EA084390E7C8F1200203FA08FCCF
:100D800025FA02F343EA0C0C4FEA1C4921FA02F35C
:100D900001FA08F720FA02F2B3FBF9F1174309FB55
:100DA00011333A0C1FFA8CFB42EA03430BFB01FAA6
:100DB0009A4505FA08F008D913EB0C0301F1FF324C
:100DC00035D29A4533D902396344CAEB0303B3FBE6
:100DD000F9F209FB1233BFB247EA03470BFB02F9F2
:100DE000B94508D917EB0C0702F1FF331BD2B945FF
:100DF00019D9023A674442EA0145A5FB0001C9EB53
:100E000007078F424FF000030AD305D02A4620E798
:100E1000624601E73B4614E706FA08F68642F5D239
:100E20006A1E002315E71A46E5E70B46A0E71146C0
:100E3000CBE7904688E7434642460AE7023A53E743
:100E400002392F443CE700BF2DE9F00F1446054658
:100E50000E46002B43D18A4253D9B2FA82F757B1DA
:100E6000C7F1200620FA06F601FA07F302FA07F4A2
:100E70001E4300FA07F5210CB6FBF1F22B0C01FB27
:100E80001267A0B243EA074600FB02F3B34209D956
:100E9000361902F1FF3780F0F680B34240F2F3805A
:100EA000023A2644F61AB6FBF1F3ADB201FB136128
:100EB00045EA014100FB03F0884208D9091903F112
:100EC000FF3680F0E280884240F2DF80023B43EA56
:100ED0000242002310461946BDE8F00F70478B42CE
:100EE0004AD8B3FA83F6002E4DD18B4202D3824208
:100EF00000F2D6800023012210461946BDE8F00F0B
:100F0000704712B90124B4FBF2F4B4FA84F2002A57
:100F10007CD1091B260CA7B20123B1FBF6F02A0CE9
:100F200006FB101142EA014107FB00F28A4207D991
:100F3000091900F1FF3C02D28A4200F2C3806046E8
:100F4000891AB1FBF6F2ADB206FB121145EA014572
:100F500007FB02F7AF4208D92C1902F1FF3180F0EC
:100F60009680A74240F29380023A42EA004210463D
:100F70001946BDE8F00F704700231A46104619467F
:100F8000BDE8F00F7047C6F1200522FA05F4B34022
:100F90001C434FEA144821FA05F301FA06F720FA38
:100FA00005F5B3FBF8FC2F4308FB1C333D0C1FFA7F
:100FB00084FA45EA03430AFB0CF9994502FA06FB59
:100FC00004D91B190CF1FF326DD39446C9EB03030E
:100FD000B3FBF8F508FB1533BFB247EA03470AFB3A
:100FE00005F8B84504D93F1905F1FF3361D31D4613
:100FF00045EA0C4CACFB0B23C8EB07079F424FF0B4
:10100000000549D345D062462B4663E79440C2F1C0
:10101000200321FA03FC260C20FA03F301FA02F55F
:10102000BCFBF6F843EA05010B0C06FB18CCA7B293
:1010300043EA0C4C07FB08F3634500FA02F509D9B3
:101040001CEB040C08F1FF323AD2634538D9A8F101
:101050000208A444C3EB0C0CBCFBF6F389B206FBFC
:1010600013CC41EA0C4107FB03F28A4207D9091964
:1010700003F1FF3022D28A4220D9023B2144891A4F
:1010800043EA084349E73A460CE733461FE70A4676
:101090006BE7B0409042B6D20CF1FF32002319E763
:1010A0003346324616E799458FD9ACF1020C2344FA
:1010B0008CE7B8459BD9023D274499E70346DEE714
:1010C0009046C7E7023821443AE700BF80B582B0B6
:1010D00000AF78607B680A4A1A600A4800F040FF57
:1010E0007B680433184600F0BBFF0023002B02D0BE
:1010F000786800F0E1FF7B6818460837BD4680BD80
:10110000E89A0008C091000880B582B000AF78600E
:101110007868FFF7DBFF786800F0CEFF7B68184641
:101120000837BD4680BD00BF80B584B000AFF86011
:10113000B9607A60FB681846B9680C227B6801F0D8
:10114000B1F8FB68034A1A60FB6818461037BD46C1
:1011500080BD00BFD89A000880B582B000AF78602B
:1011600039607B68012B0FD13A684FF6FF739A42C2
:101170000AD107484FF0FF31064AFFF7D5FF044870
:101180000549064A08F016F80837BD4680BD00BF7D
:1011900058000020FC910008A111000894030020D1
:1011A00080B582B000AF78607B680A4A1A600A484E
:1011B00000F0D6FE7B681846FFF788FF0023002B5F
:1011C00002D0786800F078FF7B6818460837BD4683
:1011D00080BD00BFD89A00080092000880B582B098
:1011E00000AF78607868FFF7DBFF786800F064FF95
:1011F0007B6818460837BD4680BD00BF80B500AF8C
:1012000001204FF6FF71FFF7A7FF80BD80B584B0C6
:1012100000AFF860B9607A60FB6818461149642233
:101220004FF4FA6306F0FEFBFB680F4A1A60FB6896
:1012300054331846002101F079FFFB6870331846DB
:10124000002101F073FFFB688C331846002101F088
:101250006DFFFB687A681A65FB6818461037BD4653
:1012600080BD00BF20920008189B000880B483B0A6
:1012700000AF786039603B685A687B685A603B68A9
:101280009A687B689A603B68DA687B68DA603B68DA
:101290001A697B681A613B685A697B685A617B6886
:1012A00018460C37BD465DF8047B704780B582B0A8
:1012B00000AF786039607A683B6810461946FFF7DE
:1012C000D5FF3B689A697B689A617B681846083746
:1012D000BD4680BD90B59DB002AF78607B6803F1DC
:1012E000540407F110031846372101F01FFF07F1DE
:1012F000100320461946FFF7D9FF7B6803F17004FD
:1013000007F12C031846122101F010FF07F12C03FE
:1013100020461946FFF7CAFF7B6803F18C0407F1EA
:1013200048031846202101F001FF07F14803204639
:101330001946FFF7BBFF7B68543318460121012291
:10134000012301F027FF7B68703318460121012239
:10135000012301F01FFF7B688C3318460121012215
:10136000012301F017FF2B4801F08CFC7B681B6DFB
:101370001846294902F0E8FA78667B6E002B03D103
:10138000264801F07FFC02E0254801F07BFC0023A9
:101390003B737B681B6D07F10C02009201220192E6
:1013A00018466B211F4A012302F0AEFB03461A4682
:1013B0001D4B1A601C4B1B68002B05D03B7BD42BAC
:1013C00002D11A4801F05EFC00233B737B681B6D61
:1013D00007F10C0200920122019218461D21114AC8
:1013E000012302F091FB03461A460F4B1A600E4B85
:1013F0001B68002B05D03B7B492B02D10C4801F028
:1014000041FC786800F048F8786800F001F96C3722
:10141000BD4690BD30920008A086010040920008B1
:1014200064920008289B0008C400002078920008FD
:101430009892000880B586B002AF7860F970BA70F3
:101440007B70BB783B737B787B7300233B727B683C
:10145000196DFA7807F10C0307F1080000900120DC
:101460000190084611461A46022302F04DFB03463E
:101470001A46084B1A60074B1B68002B05D03B7AB5
:101480007A789A4201D1012300E0002318461037F0
:10149000BD4680BDC400002080B5ADF6D83D00AF8C
:1014A0003B1D18603B1D18686B2124228023FFF729
:1014B000C1FF034683F00103DBB2002B03D04B488E
:1014C00001F0E0FB8DE03B1D18686B212722002313
:1014D000FFF7B0FF034683F00103DBB2002B06D019
:1014E000434B1B684348194601F0CCFB79E04FF0B1
:1014F0000002414B414801F0C5FB414801F0C2FBED
:101500000023C7F8D43B0023C7F8D03B0023C7F81B
:10151000CC3B0023C7F8C83B32E03A1D07F53C63DB
:101520001068194600F08EF897F8C03B1A4697F8F5
:10153000C13B083302FA03F3D7F8D42B1344C7F89E
:10154000D43B97F8C23B1A4697F8C33B083302FADC
:1015500003F3D7F8D02B1344C7F8D03B97F8C43B1C
:101560001A4697F8C53B083302FA03F3D7F8CC2B99
:101570001344C7F8CC3BD7F8C83B0133C7F8C83B86
:10158000D7F8C83BB3F5FA7FC7DBD7F8D43B1D4A81
:1015900082FB03125211DB17D31A9AB21A4B1A802C
:1015A000D7F8D03B174A82FB03125211DB17D31A2C
:1015B0009AB2154B5A80D7F8CC3B124A82FB0312E1
:1015C0005211DB17D31A9AB20F4B9A800E4B1B881D
:1015D00019460D4B5B881A460B4B9B880B4801F054
:1015E00051FB07F6D837BD4680BD00BFB492000856
:1015F000C4000020C89200080000FC3FE8920008E8
:10160000F8920008D34D6210C80000201093000823
:1016100080B582B000AF786078681D212022572302
:10162000FFF708FF034683F00103DBB2002B03D072
:10163000034801F027FB00BF0837BD4680BD00BF4F
:101640003093000880B584B002AF786039607B6861
:101650001B6D3A6800920622019218466B21034ADC
:10166000012302F051FA0837BD4680BD2C9B0008CB
:101670002DE9B0439CB004AF7860002387F85F3059
:101680000023BB640023A7F84C3000233B640023F5
:10169000A7F844300023BB630023BB874FF000034F
:1016A000BB654FF000037B654FF000033B650023F3
:1016B00087F84F30796888A3D3E90023CDE9002368
:1016C00008464FF000024FF0000300F0FFFCECE092
:1016D00007F1480378681946FFF7B4FF97F85F20D1
:1016E00097F84830194697F84930083301FA03F360
:1016F00099B2754B1B88CB1A99B213465B00134401
:101700005B0007F160021344483B0A461A8097F8D1
:101710005F2097F84A30194697F84B30083301FAA2
:1017200003F399B2684B5B88CB1A99B213465B00FE
:1017300013445B0007F160021344483B0A465A8099
:1017400097F85F2097F84C30194697F84D300833DA
:1017500001FA03F399B25C4B9B88CB1A99B21346FA
:101760005B0013445B0007F160021344483B0A46E8
:101770009A8097F85F20554BA3FB021399080B46FC
:101780009B000B44D31ADBB2002B40F0898043E06E
:1017900097F84F2013465B0013445B0007F160028B
:1017A0001344483B1B8807EE103AF8EEC77A97EDD2
:1017B000167A77EE277AC7ED167A97F84F201346F8
:1017C0005B0013445B0007F160010B44483B5B88FE
:1017D00007EE103AF8EEC77A97ED157A77EE277A8A
:1017E000C7ED157A97F84F2013465B0013445B0052
:1017F00007F160010B44483B9B8807EE103AF8EE76
:10180000C77A97ED147A77EE277AC7ED147A97F8AE
:101810004F30013387F84F3097F84F30042BB7D94A
:1018200097ED167AF7EE0C7A67EE277AC7ED037A12
:1018300097ED157AF7EE0C7A67EE277AC7ED047A02
:1018400097ED147AF7EE0C7A67EE277AC7ED057AF2
:10185000FB681846FEF700FE04460D463B69184635
:10186000FEF7FAFD804689467B691846FEF7F4FDCF
:1018700002460B46CDE90089CDE9022314482246F1
:101880002B4601F0FFF907F10C031248194601221B
:1018900000F056F8002387F85F30002387F84F30B8
:1018A00097F85F30013387F85F307B68184600F0A7
:1018B00023FC0123002B7FF40BAF6037BD46BDE84E
:1018C000B08300BFAFF30080C8000020CDCCCCCCEB
:1018D00044930008A0000020002D3101000000000A
:1018E00080B584B000AFF860B9607A60FB681846D4
:1018F000B96804227B6800F0D5FCFB68034A1A60D3
:10190000FB6818461037BD4680BD00BF089B000825
:1019100080B584B000AFF860B9607A60FB681846A3
:10192000B9680C227B6800F0BDFCFB68034A1A60B2
:10193000FB6818461037BD4680BD00BFF89A000806
:1019400080B584B000AFF860B9601346FB71FA68E7
:10195000FB791046B9681A46002300F013FD0346D0
:1019600018461037BD4680BD80B582B000AF7860A4
:101970007B68084A1A607B68184606F0C1F80023A5
:10198000002B02D0786800F097FB7B681846083778
:10199000BD4680BD189B000880B582B000AF78605E
:1019A0007868FFF7E1FF786800F086FB7B681846EF
:1019B0000837BD4680BD00BF80B582B000AF7860FB
:1019C00039607B68012B1AD13A684FF6FF739A424F
:1019D00015D10C484FF0FF310B4AFFF781FF094842
:1019E0000A490B4A07F0E6FB0A484FF0FF310A4A62
:1019F000FFF78EFF07480949054A07F0DBFB083768
:101A0000BD4680BD7C000020589300087D1A000868
:101A100094030020A000002064930008211A00080D
:101A200080B582B000AF78607B680A4A1A600A48C5
:101A300000F096FA7B681846FFF748FB0023002B5E
:101A400002D0786800F038FB7B6818460837BD463E
:101A500080BD00BFF89A00087093000880B582B07E
:101A600000AF78607868FFF7DBFF786800F024FB50
:101A70007B6818460837BD4680BD00BF80B582B080
:101A800000AF78607B680A4A1A600A4800F068FA7A
:101A90007B681846FFF71AFB0023002B02D07868FA
:101AA00000F00AFB7B6818460837BD4680BD00BFC2
:101AB000089B00087093000880B582B000AF786082
:101AC0007868FFF7DBFF786800F0F6FA7B68184665
:101AD0000837BD4680BD00BF80B500AF01204FF67E
:101AE000FF71FFF769FF80BD80B584B000AFF8607B
:101AF000B9607A60FB681846B96804227B6800F018
:101B0000D1FBFB68034A1A60FB6818461037BD46D4
:101B100080BD00BF389B000880B582B000AF786000
:101B200039607B68012B0FD13A684FF6FF739A42F8
:101B30000AD107484FF0FF31064AFFF7D5FF0448A6
:101B40000549064A07F036FB0837BD4680BD00BF91
:101B5000D000002098940008611B00089403002026
:101B600080B582B000AF78607B680A4A1A600A4884
:101B700000F0F6F97B681846FFF7A8FA0023002B5F
:101B800002D0786800F098FA7B6818460837BD469E
:101B900080BD00BF389B0008A494000880B582B0C7
:101BA00000AF78607868FFF7DBFF786800F084FAB0
:101BB0007B6818460837BD4680BD00BF80B500AFC2
:101BC00001204FF6FF71FFF7A7FF80BD80B582B0FF
:101BD00000AF786039607B68012B25D13A684FF6F9
:101BE000FF739A4220D11248124940F2D17200F09C
:101BF00087F80F481049114A07F0DCFA1048032112
:101C000002F056FD0F48032101F0B6FD0E480221F7
:101C100001F0B2FD0D480E490B4AFFF7F7FA0B48E9
:101C20000C49064A07F0C6FA0837BD4680BD00BF1A
:101C3000F4000020B4940008411D00089403002023
:101C4000100100202C010020480100206801002024
:101C5000C09400086919000880B500AF01204FF654
:101C6000FF71FFF7B3FF80BD80B582B000AF786031
:101C700039607B68012B10D13A684FF6FF739A42A6
:101C80000BD107483C2101F051FA06483D2101F0F3
:101C90004DFA05483E2101F049FA0837BD4680BD9E
:101CA000100200202C0200204802002080B500AF66
:101CB00001204FF6FF71FFF7D7FF80BD80B483B0DE
:101CC00000AF78607B681B6818460C37BD465DF82E
:101CD000047B704780B483B000AF78607B685B683A
:101CE00018460C37BD465DF8047B704780B483B05E
:101CF00000AF78600C37BD465DF8047B704700BFCD
:101D000080B584B000AFF860B9607A60FB680433D6
:101D100018460949BA68002300F05AF9FB68074AD7
:101D20001A60FB687A685A61FB6801221A76FB68C0
:101D300018461037BD4680BD64020020489B00084D
:101D400080B582B000AF78607B680A4A1A600A48A2
:101D500000F006F97B680433184600F081F900238F
:101D6000002B02D0786800F0A7F97B681846083786
:101D7000BD4680BD489B0008C494000880B582B071
:101D800000AF78607868FFF7DBFF786800F094F9BF
:101D90007B6818460837BD4680BD00BF80B483B05D
:101DA00000AF78607B6801221A760C37BD465DF87B
:101DB000047B704780B483B000AF78607B680022FA
:101DC0001A760C37BD465DF8047B704780B485B049
:101DD00000AFF860B9607A603B604FF0FF3318469F
:101DE0001437BD465DF8047B704700BF90B583B0E3
:101DF00000AF154B1B68002B03D0134B1B68043B33
:101E000000E000237B6018E07B685C697B6804333A
:101E10001846FFF75FFF03460C4821461A4600F0BC
:101E200059F87B6804331846FFF748FF0346002B38
:101E300001D0043B00E000237B607B68002BE3D1F2
:101E40000C37BD4690BD00BF64020020D894000846
:101E500080B582B000AF78607B68064A1A600023C4
:101E6000002B02D0786800F027F97B681846083705
:101E7000BD4680BD689B000880B582B000AF786029
:101E80007868FFF7E5FF786800F016F97B68184678
:101E90000837BD4680BD00BF80B582B000AF786016
:101EA0000B46FB7097F90330184605F0D5FA083752
:101EB000BD4680BD80B483B000AF78607B68044AC3
:101EC0001A607B6818460C37BD465DF8047B704786
:101ED000689B00080FB480B582B000AF1C4B1B6834
:101EE000002B2FD03B461846FFF7E4FF07F1140301
:101EF0007B60184B1B68002B05D0164B1B681648DF
:101F0000194600F0BFFE05F093FC034683F0010381
:101F1000DBB2002B05D03B461846396900F040FC87
:101F20000AE00E4805F0D2FC3B461846396900F03D
:101F300037FC0A4805F028FD05F0D0FA3B46184664
:101F4000FFF786FF0837BD46BDE8804004B0704704
:101F50000400002068020020F49400086C020020B5
:101F600080B582B000AF7860074B7A681A60074886
:101F70007968FFF7AFFF064B1B685A1C044B1A60C9
:101F80000837BD4680BD00BF00000020089500084E
:101F90006802002080B582B000AF786039607B684D
:101FA000012B07D13A684FF6FF739A4202D10348DA
:101FB00005F074FC0837BD4680BD00BF6C020020F0
:101FC00080B500AF01204FF6FF71FFF7E3FF80BD42
:101FD00080B584B000AFF860B9607A603B60FB68A0
:101FE0003A68DA60FB687A685A60084B1B68591CCB
:101FF000064A1160FA689360F868B96800F008F85A
:10200000FB6818461037BD4680BD00BF7C0200202B
:1020100080B582B000AF786039603B681A687B6831
:102020001A603B687A681A600A4B1B68002B0CBF69
:1020300000230123DBB2002B08D00748FFF790FFF5
:102040007B685B6805481946FFF744FF0837BD46C3
:1020500080BD00BF64150020349500086895000815
:1020600080B582B000AF78600348FFF779FF7B68E6
:1020700018460837BD4680BD8C95000880B485B0F1
:1020800000AF78600023FB607B68002B01D1002348
:102090000BE005E0FB680133FB607B6801337B608C
:1020A0007B681B78002BF5D1FB6818461437BD46BA
:1020B0005DF8047B704700BF80B483B000AF7860E8
:1020C0000C37BD465DF8047B704700BF80B485B017
:1020D00000AFF860C7E90023F968D7E90023C1E938
:1020E0000E23F968D7E90623C1E910231437BD464A
:1020F0005DF8047B704700BFB0B586B002AF786072
:1021000006E04FF0FF306FF00041002205F0DAFDED
:102110007B68D3E9102352EA0301F2D07B68D3E94C
:102120000E2310461946002205F0CCFD00F04EF8B3
:10213000C7E902017B68D3E90E017B68D3E910236C
:10214000D7E90245CDE9004500F04AF802460B46C2
:102150007968C1E90E231037BD46B0BD80B584B0A3
:1021600000AF786005F086FDF860F86805F068FD5E
:10217000B860F868796805F06FFDBB6818461037DD
:10218000BD4680BD80B483B000AF786079684FF001
:1021900000024FF00003C1E9002379684FF000020C
:1021A0004FF00003C1E9022379684FF000024FF0BD
:1021B0000003C1E904237B680F229A617B681846FB
:1021C0000C37BD465DF8047B704700BF80B500AF9B
:1021D00005F0CAF802460B461046194680BD00BFFE
:1021E00080B584B000AFC7E90201C7E90023D7E991
:1021F0000223D7E90601904271EB030C02DAD7E91A
:1022000002232CE0D7E9002352EA030104D14FF066
:10221000FF326FF0004322E0D7E90601D7E902233D
:10222000821A61EB030310461946D7E90023FEF733
:1022300021FC02460B46013243F10003396803FBDF
:1022400001F0796802FB01F101443868A0FB022328
:1022500019440B46D7E90201121843EB010310465B
:1022600019461037BD4680BD80B582B000AF78609A
:1022700039607B68012B07D13A684FF6FF739A42A9
:1022800002D10348FFF77EFF0837BD4680BD00BF7F
:102290008002002080B500AF01204FF6FF71FFF7EC
:1022A000E3FF80BD80B586B000AFF860B9607A60AA
:1022B0003B60FB68043318462E493A680023FFF759
:1022C00087FEFB682C4A1A60FB6800225A61FB6893
:1022D000BA68DA61FB687A681A62FB6800229A6160
:1022E000FB68DB69B3F1FF3F11D1386805F082FF6D
:1022F00003461A46FB68DA61FB68DB69B3F57A7F4F
:1023000005DAFB68DB6903F57A72FB68DA61194B61
:102310001B68002B03D0174B1B68043B00E0002315
:102320007B611EE07B69DA69BB689A420DD17A69EC
:10233000FB689A4209D01148FFF712FE7B699B683F
:102340000F48B9683A68FFF7C5FD7B690433184642
:10235000FFF7B4FC0346002B01D0043B00E0002350
:102360007B617B69002BDDD1FB6818461837BD46C1
:1023700080BD00BF38160020E89A0008B09500081C
:10238000C495000880B586B002AFF860B9603B60C4
:102390001346FB71FB681B6A1A46FB79396800918A
:1023A000F868B96800F006F8034618461037BD46CD
:1023B00080BD00BF90B591B002AFF860B9607A609F
:1023C000FB7000237B63BB6C002B12D100237B626C
:1023D000FFF7FCFE02460B46C7E9062305F0FEFFA9
:1023E00003463B6105F046FC03463B6207F11003E0
:1023F000BB64FB689B69002B0FD0FB689B691B6863
:102400001C68FB689969FB68DA697B68B86C0090A6
:10241000084611461A46BB68A047FB685B69002B5B
:1024200003D0FB685B69043B00E000233B631DE0D5
:102430003B6B1B6804331C68FB68DA697B68B96C0A
:102440000091386B11461A46BB68A04703467A6B69
:1024500013447B633B6B04331846FFF72FFC0346A2
:10246000002B01D0043B00E000233B633B6B002BBF
:10247000DED1FB7883F00103DBB2002B01D07B6B54
:102480002CE0184B5B69002B03D0164B5B69043BB7
:1024900000E00023FB621DE0FB6A1B6804331C683C
:1024A000FB68DA697B68B96C0091F86A11461A46D4
:1024B000BB68A04703467A6B13447B63FB6A043313
:1024C0001846FFF7FBFB0346002B01D0043B00E05E
:1024D0000023FB62FB6A002BDED17B6B18463C3786
:1024E000BD4690BDBC02002080B582B000AF7860D0
:1024F0007B680A4A1A600A48FFF732FD7B68184673
:10250000FEF7E4FD0023002B02D07868FFF7D4FD2E
:102510007B6818460837BD4680BD00BFA09B0008F9
:102520003C96000880B582B000AF78607868FFF70D
:10253000DBFF7868FFF7C0FD7B6818460837BD46AB
:1025400080BD00BF80B584B000AFF860B9607A602C
:10255000FB681846B9680C227B68FFF7A3FEFB688E
:10256000034A1A60FB6818461037BD4680BD00BF9D
:10257000A09B000880B584B000AFF860B9607A60B5
:10258000FB681846B96840F22E527B68FFF78AFE56
:10259000FB68034A1A60FB6818461037BD4680BDC9
:1025A000909B000880B584B000AFF860B9607A6095
:1025B000FB681846B96804227B68FFF773FEFB6866
:1025C000034A1A60FB6818461037BD4680BD00BF3D
:1025D000809B000880B582B000AF786039607B686E
:1025E000012B4FD13A684FF6FF739A424AD12748E0
:1025F00027490A22FFF784FB24482649264A06F089
:10260000D9FD26480021264AFFF79CFF234825498B
:10261000214A06F0CFFD24484FF0FF31234AFFF74F
:10262000A9FF214822491C4A06F0C4FD21484FF069
:10263000FF31214AFFF7B6FF1E482049164A06F02F
:10264000B9FD1F484FF0FF311E4AFFF7ABFF1C4892
:102650001A49114A06F0AEFD1B484FF0FF311B4AE4
:10266000FFF7A0FF184815490B4A06F0A3FD1848CC
:102670004FF0FF31174AFFF765FF15480949064A31
:1026800006F098FD0837BD4680BD00BFA0020020BF
:102690004C960008411D000894030020BC02002055
:1026A00060960008E9240008E00200207096000807
:1026B00035270008040300207C960008D92600086E
:1026C000280300208C9600084C0300209C960008EC
:1026D00070030020B096000880B582B000AF78602B
:1026E0007B680A4A1A600A48FFF73AFC7B6818467A
:1026F000FEF7ECFC0023002B02D07868FFF7DCFC2F
:102700007B6818460837BD4680BD00BF809B000827
:102710003C96000880B582B000AF78607868FFF71B
:10272000DBFF7868FFF7C8FC7B6818460837BD46B2
:1027300080BD00BF80B582B000AF78607B680A4A78
:102740001A600A48FFF70CFC7B681846FEF7BEFCCF
:102750000023002B02D07868FFF7AEFC7B68184698
:102760000837BD4680BD00BF909B00083C9600081E
:1027700080B582B000AF78607868FFF7DBFF7868DB
:10278000FFF79AFC7B6818460837BD4680BD00BF3E
:1027900080B500AF01204FF6FF71FFF71BFF80BD32
:1027A00080B594B000AF7860396056E2002387F8B6
:1027B0004E30002387F84D30002387F84C3000233B
:1027C00087F84B3097F84F30252B0AD07B681B6871
:1027D00008331B6897F84F2052B278681146984723
:1027E0003BE23B685A1C3A601B7887F84F30002365
:1027F00087F84330202387F84230032387F841309D
:1028000097F84F30302B09D197F84F3087F8423086
:102810003B685A1C3A601B7887F84F3097F84F3066
:102820002F2B0ED997F84F30392B0AD897F84F3005
:10283000303B87F843303B685A1C3A601B7887F876
:102840004F3097F84F302E2B10D13B685A1C3A600E
:102850001B7887F84F3097F84F30303B87F841307E
:102860003B685A1C3A601B7887F84F3097F84F3016
:102870006C2B08D1012387F84D303B685A1C3A6015
:102880001B7887F84F3097F84F306C2B08D1012315
:1028900087F84C303B685A1C3A601B7887F84F30F9
:1028A00097F84F30623B162B38D801A151F823F02E
:1028B000A92900080D290008932900081D290008EE
:1028C0008D2900081D2900081D2900081D29000860
:1028D0001D2900081D2900081D2900081D290008C0
:1028E0001D290008772900081D2900081D29000856
:1028F0001D290008332900081D290008992900080E
:102900001D2900081D290008A12900087B685B68B3
:10291000191D7A6851601B6887F84F307B681B6807
:1029200008331B6897F84F2052B2786811469847D1
:1029300093E17B685B68191D7A6851601B687B6452
:1029400009E07B681B6808331B6897F84F2052B278
:102950007868114698477B6C5A1C7A641B7887F814
:102960004F3097F84F30002B0CBF00230123DBB210
:10297000002BE6D171E10823A7F848307B681B687B
:1029800008331B6878683021984711E0012387F8E5
:102990004B30012387F84E300A23A7F8483007E070
:1029A0001023A7F8483003E00223A7F8483000BFFF
:1029B0004FF000024FF00003C7E90C234FF0000274
:1029C0004FF00003C7E90A2397F84B30002B15D0CE
:1029D0007B685B68073323F0070303F108017A681B
:1029E0005160D3E90023C7E90A23D7E90A01FEF7BA
:1029F00073F802460B46C7E90C232CE097F84C30DD
:102A0000002B0DD07B685B68073323F0070303F1CD
:102A100008017A685160D3E90023C7E90C231AE062
:102A200097F84D30002B0BD07B685B68191D7A68D6
:102A300051601B681A464FEAE273C7E90C230AE0AB
:102A40007B685B68191D7A6851601B681A464FEAFB
:102A5000E273C7E90C2397F84E30002B2DD0D7E94D
:102A60000C23002A73F100010ADBD7E90A014FF0B9
:102A700000024FF00003FDF7B5FF0346002B1CD00A
:102A8000D7E90C23524263EB4303C7E90C23BB6A2B
:102A9000BB62FB6A83F00043FB627B681B68083300
:102AA0001B6878682D21984797F84330002B04D095
:102AB00097F84330013B87F8433097F84C30002BB0
:102AC00004D0D7E90C23C7E90E2310E097F84D3066
:102AD000002B06D03B6B1A464FF00003C7E90E23CC
:102AE00005E03B6B1A464FF00003C7E90E2307F1E0
:102AF0000C031A337B647B6C013B7B647B6C002290
:102B00001A70B7F848204FF00003D7E90E01FDF71F
:102B1000CDFFD3B23033DBB287F8273097F92730B7
:102B2000392B05DD97F827300733DBB287F82730DC
:102B30007B6C013B7B6497F827207B6C1A70B7F89D
:102B400048204FF00003D7E90E01FDF7AFFF024622
:102B50000B46C7E90E2397F84330002B04D097F8B3
:102B60004330013B87F84330D7E90E2352EA030193
:102B7000C7D106E07B6C013B7B647B6C97F84220FD
:102B80001A7097F843305A1E87F84320002B0CBF69
:102B900000230123DBB2002BECD109E07B681B682A
:102BA00008331B6897F84F2052B27868114698474F
:102BB0007B6C5A1C7A641B7887F84F3097F84F303B
:102BC000002B0CBF00230123DBB2002BE6D197F8CA
:102BD0004B30002B41D07B681B6808331B6878683A
:102BE0002E2198472DE0D7E90C01FDF75BFC02464A
:102BF0000B46D7E90A01FDF7CFFA02460B46C7E9B3
:102C00000A23D7E90A014FF000021D4BFDF778FCBB
:102C100002460B46C7E90A23D7E90A01FDF75CFF24
:102C200002460B46C7E90C237B681B6808331B6808
:102C300097F830203032D2B2D2B252B27868114610
:102C4000984797F841305A1E87F84120002B0CBF57
:102C500000230123DBB2002BC5D13B685A1C3A602C
:102C60001B7887F84F3097F84F30002B0CBF0023AC
:102C70000123DBB2002B7FF499AD5037BD4680BDF8
:102C8000000024400FB480B582B000AF0C4B1B682D
:102C9000002B0FD03B461846FFF70CF907F1140341
:102CA0007B603B4618463969FFF77AFD3B4618467C
:102CB000FFF7CEF80837BD46BDE8804004B0704746
:102CC0000400002080B582B000AF0C4B7B6008E0B0
:102CD0007B681B6898473B6801333B607B68043323
:102CE0007B607A68064B9A42F2D13B6801333B60C5
:102CF0003B68013B3B600837BD4680BD409D0008F6
:102D0000749D000880B485B000AFF860B9607A6047
:102D1000002318461437BD465DF8047B704700BF9A
:102D200080B400AFFEE700BF002100F004B8124BF2
:102D30005B58435004311148114B42189A42FFF43A
:102D4000F6AF104A00F003B8002342F8043B0E4BE4
:102D50009A42FFF4F9AF0D4A00F003B8002342F89D
:102D6000043B0B4B9A42FFF4F9AF04F0BDFBFFF7B5
:102D7000A9FF05F043FC7047749D00080000002087
:102D800058000020580000204CB600200000001021
:102D900000000010FFF7FEBF80B483B000AF786082
:102DA00039603B6818460C37BD465DF8047B7047B8
:102DB0000FB480B400AF00231846BD465DF8047B15
:102DC00004B070470FB480B400AF00231846BD466E
:102DD0005DF8047B04B070470FB480B400AF0023EB
:102DE0001846BD465DF8047B04B070470FB480B44C
:102DF00000AF00231846BD465DF8047B04B0704761
:102E00000FB480B400AF00231846BD465DF8047BC4
:102E100004B070470FB480B400AF00231846BD461D
:102E20005DF8047B04B0704780B483B000AF786075
:102E3000012318460C37BD465DF8047B704700BF80
:102E400080B483B000AF7860012318460C37BD46CC
:102E50005DF8047B704700BF80B483B000AF0346C9
:102E6000FB71084B97F907205209F97901F01F010E
:102E7000012000FA01F143F822100C37BD465DF83D
:102E8000047B704700E100E080B483B000AF0346EC
:102E9000FB71094B97F907205209F97901F01F01DD
:102EA000012000FA01F1603243F822100C37BD46D0
:102EB0005DF8047B704700BF00E100E080B500AF23
:102EC000124B1B7883F00103DBB2002B1CD00F4B9D
:102ED00001221A704FF48040012103F069FB0620A3
:102EE000FFF7BAFF0720FFF7B7FF0820FFF7B4FF8F
:102EF0000920FFF7B1FF0A20FFF7AEFF1720FFF709
:102F0000ABFF2820FFF7A8FF80BD00BFD80300203B
:102F100080B582B000AF7860F970BA707B707B6862
:102F2000FA781A707B68BA781A727B687A785A7263
:102F3000786800F01FF8786800F052F87B680C336E
:102F4000184602F091FF7B685B891A467B68DA605D
:102F50007B6802225A747B6800221A747B68002204
:102F60001A777B6800225A777B6818460837BD4677
:102F700080BD00BF80B483B000AF78607B681B7AEF
:102F80001A467B681B7803F00F031344102B0BDDEC
:102F90007B681B7803F00F034FF6FF7202FA03F30E
:102FA0009AB27B685A8116E07B681B7AC3F11003E2
:102FB0004FF6FF7242FA03F39AB27B685A817B683C
:102FC0005B891A467B681B7803F00F0302FA03F350
:102FD0009AB27B685A810C37BD465DF8047B704716
:102FE00080B483B000AF78607B681B780F2B06D865
:102FF0007B68364A5A617B6801229A6160E07B688F
:103000001B781F2B06D87B68314A5A617B680222E5
:103010009A6155E07B681B782F2B06D87B682D4A78
:103020005A617B6804229A614AE07B681B783F2BD7
:1030300006D87B68284A5A617B6808229A613FE07B
:103040007B681B784F2B06D87B68244A5A617B68C3
:1030500010229A6134E07B681B785F2B06D87B686E
:103060001F4A5A617B6820229A6129E07B681B789D
:103070006F2B06D87B681B4A5A617B6840229A6195
:103080001EE07B681B78DBB25BB2002B06DB7B6843
:10309000154A5A617B6880229A6111E07B681B782F
:1030A0008B2B07D87B68114A5A617B684FF480727A
:1030B0009A6105E07B6800225A617B6800229A6170
:1030C0000C37BD465DF8047B704700BF000002402E
:1030D0000004024000080240000C024000100240C0
:1030E0000014024000180240001C02400020024070
:1030F00080B582B000AF78607B6801225A777B6828
:103100005B681B6830331B687A68526810469847C2
:10311000054B7A68127802F00F02012101FA02F2DF
:103120005A610837BD4680BD003C014090B583B070
:1031300000AF78600B46FB707B68184605F0ACF872
:103140007B68134A1A60202005F0C6FA02467B68A5
:103150009A617B689B6920201946FFF71DFE044693
:10316000002C08D0FB782046194601220023FFF7E7
:10317000CFFE234600E023467A6893617B689B6913
:103180007A685A607B6818460C37BD4690BD00BF10
:10319000B09B000880B584B000AFF8607A603B60F7
:1031A0000B46FB727B68002B04D0FB689B697A6836
:1031B000D2B21A72FB689B69FA7A5A72FB689B69F1
:1031C0001846FFF7D7FEFB689B695B69002B02D1AD
:1031D0004FF0FF331DE0FB689B699B691846012196
:1031E00003F0AAF9FB689B695B7A002B09D0F868A9
:1031F0000021012200F012F8F868396800F0D8F8D0
:1032000004E0F8680021002200F008F8FFF756FEFD
:10321000002318461037BD4680BD00BF80B584B07E
:1032200000AFF8600B467A60FB72FB7A042B00F269
:103230009B8001A252F823F04D3200088D32000825
:10324000D7320008133300084F3300087B68002B87
:1032500008D0FB689B6901225A72FB689B690122B6
:103260001A7407E0FB689B6900225A72FB689B692D
:1032700000221A74FB689B695A69FB689B690C33CE
:103280001046194602F062FD00236FE07B68002BB8
:103290001ED07B68FF2B1BD8FB689B697A68D2B273
:1032A0001A72FB689B691846FFF764FEFB689B690E
:1032B000FA6892695289DA60FB689B695A69FB680F
:1032C0009B690C331046194602F040FD00234DE087
:1032D0004FF0FF334AE07B68002B17D07B68002B50
:1032E00004D0FB689B690122DA7403E0FB689B69E8
:1032F0000022DA74FB689B695A69FB689B690C338E
:103300001046194602F022FD00232FE04FF0FF3354
:103310002CE07B68002B17D07B68002B04D0FB6867
:103320009B690222DA7403E0FB689B690022DA746D
:10333000FB689B695A69FB689B690C331046194608
:1033400002F004FD002311E04FF0FF330EE07B6834
:10335000022B06D8FB689B697A68D2B21A770023E1
:1033600004E04FF0FF3301E04FF0FF331846103711
:10337000BD4680BD80B582B000AF7860786800211E
:1033800000F070F8786800210022FFF747FF7B68A3
:103390009B695B69184602F027FC7B689B699B6907
:1033A0001846002103F0C8F80837BD4680BD00BFAD
:1033B00080B584B000AF7860396000237B817B6882
:1033C0009B695B7A002B3BD040F2EB30FEF7C6FEE8
:1033D00003460133FB6030E07B689B695B691846FC
:1033E00002F05CFD03469AB27B689B695B899BB2E5
:1033F000DB439BB213409BB27B817B689B691B784C
:1034000003F00F033A6802FA03F39AB27B689B69F0
:103410005B8913409AB27B8913437B817B689B69EC
:103420005A697B891046194602F046FDFB68013B4C
:103430001846FEF793FE0023FB60FB68002BCBD100
:103440001037BD4680BD00BF80B483B000AF786048
:103450007B689B695B7F18460C37BD465DF8047B33
:10346000704700BF80B586B000AF78600B46FB7038
:103470007B689B691B781B09DBB27B617B689B695E
:103480001B7803F00F033B613B69FB60FB78002B6B
:103490005DD0464BFA6853F822207B689B699A42BC
:1034A00000D17FE0414BFA6853F82230002B4AD11B
:1034B0007B689B691B7A012B03D93D48FEF750FDC1
:1034C00070E07B69DAB23B69DBB21046194603F063
:1034D00021F97B689B691B7F012B04D07B689B696A
:1034E0001B7F002B08D1334B324A916801203A6987
:1034F00000FA02F20A439A607B689B691B7F022BE9
:1035000004D07B689B691B7F002B08D1294B294A7B
:10351000D16801203A6900FA02F20A43DA607B6856
:103520009969224BFA6843F822107B689B69002254
:103530005A77204B1F4A116801203A6900FA02F2BB
:103540000A431A602EE01C48FEF70AFD2AE0174BDA
:10355000FA6853F822207B689B699A4222D1154B66
:10356000144A116801203A6900FA02F2D2430A4073
:103570001A60104B0F4A916801203A6900FA02F272
:10358000D2430A409A600B4B0A4AD16801203A693B
:1035900000FA02F2D2430A40DA60044BFA680021D2
:1035A00043F822101837BD4680BD00BF98030020A5
:1035B000BC960008003C0140E096000880B500AFD2
:1035C000064B1B68002B04D0044B1B681846FFF702
:1035D0008FFD0620FFF758FC80BD00BF9803002038
:1035E00080B500AF064B5B68002B04D0044B5B68D2
:1035F0001846FFF77DFD0720FFF746FC80BD00BFA2
:103600009803002080B500AF064B9B68002B04D0C8
:10361000044B9B681846FFF76BFD0820FFF734FC4E
:1036200080BD00BF9803002080B500AF064BDB686B
:10363000002B04D0044BDB681846FFF759FD092026
:10364000FFF722FC80BD00BF9803002080B500AFCB
:10365000064B1B69002B04D0044B1B691846FFF76F
:1036600047FD0A20FFF710FC80BD00BF9803002033
:1036700080B582B000AF134B5B693B6005237B6074
:1036800017E03A687B6822FA03F303F00103002B8A
:103690000CD00D4B7A6853F82230002B06D00A4B21
:1036A0007A6853F822301846FFF722FD7B68013311
:1036B0007B607B68092BE4DD1720FFF7E5FB08370B
:1036C000BD4680BD003C01409803002080B582B01B
:1036D00000AF134B5B693B600A237B6017E03A68DD
:1036E0007B6822FA03F303F00103002B0CD00D4B8F
:1036F0007A6853F82230002B06D00A4B7A6853F8C8
:1037000022301846FFF7F4FC7B6801337B607B684E
:103710000F2BE4DD2820FFF7B7FB0837BD4680BD3F
:10372000003C01409803002080B483B000AF786073
:10373000002318460C37BD465DF8047B704700BF78
:1037400080B483B000AF78600B46FB707B68FA787A
:103750001A707B6818460C37BD465DF8047B7047CD
:1037600080B483B000AF78607B6818460C37BD46E4
:103770005DF8047B704700BF90B583B000AF786000
:103780000B46FB707B68184604F086FD7B68664A32
:103790001A60FB78002B01D10123FB70FB78032B0F
:1037A00001D90323FB70FB785A1E13465B001344B8
:1037B0001B015E4A134430201946FFF7EDFA044618
:1037C000002C06D0FB7820461946FFF7B9FF2346A8
:1037D00000E023467A6893617B689B69012283F845
:1037E0002C20FB78022B35D0032B65D0012B00D089
:1037F00094E07B689B694E4A5A607B689B694FF4F2
:1038000000129A607B689B69042283F825207B68FC
:103810009B69484A1A617B689B6902225A617B68EE
:103820009B6940229A817B689B6906221A767B6895
:103830009B69404ADA617B689B6902221A627B6855
:103840009B694FF400725A837B689B69092283F855
:10385000242063E07B689B69374A5A607B689B69D8
:103860004FF480029A607B689B69042283F82520CC
:103870007B689B692F4A1A617B689B6902225A61A7
:103880007B689B694FF480629A817B689B690A22FE
:103890001A767B689B69274ADA617B689B690222FA
:1038A0001A627B689B694FF400625A837B689B694C
:1038B0000B2283F8242031E07B689B691F4A5A6001
:1038C0007B689B694FF400029A607B689B690422C5
:1038D00083F825207B689B69194A1A617B689B697C
:1038E00001225A617B689B694FF480729A817B68E0
:1038F0009B6908221A767B689B69124ADA617B68A9
:103900009B6904221A627B689B694FF400725A8398
:103910007B689B69092283F8242000BF7B681846D6
:103920000C37BD4690BD00BFF09B0008DC030020B3
:10393000005400400004024000580040005C004079
:10394000000002400008024080B588B000AF7860F7
:1039500039607B681B6804331B68786898477B680C
:103960009B693A689A627B689B699B68184601214B
:1039700002F000FE7B689B695A697B689B691B6A41
:1039800013431846012102F0D7FD7B689B69196932
:103990007B689B691B7E1A467B689B6993F8253080
:1039A000084611461A4602F095FA7B689B69D96968
:1039B0007B689B6993F824301A467B689B6993F86F
:1039C0002530084611461A4602F084FA7B689B6946
:1039D0009B89BB6102233B7700237B770123BB7765
:1039E0000023FB777B689B691A6907F1180310466F
:1039F000194602F0ABF97B689B695B8BBB617B6806
:103A00009B69DA6907F118031046194602F09EF91E
:103A10000023BB814BF6FF73FB817B689B69DB8CCA
:103A20003B824FF480637B824FF48043BB827B6890
:103A30009B699B6ABB607B689B695A6807F10803B6
:103A40001046194602F0C6FA7B689B695B68184607
:103A5000012102F081FB002318462037BD4680BDBE
:103A600080B584B000AF78607B689B695B6818465E
:103A7000002102F071FB7B689B695B68184602F0CD
:103A80006FFA7B689B699B681846002102F072FD03
:103A900007F10803184602F0E7F900233B737B683F
:103AA0009B699B89BB607B689B691A6907F1080366
:103AB0001046194602F04AF97B689B695B8BBB6034
:103AC0007B689B69DA6907F108031046194602F022
:103AD0003DF91037BD4680BD80B483B000AF78603B
:103AE000012318460C37BD465DF8047B704700BFC4
:103AF00080B483B000AF7860012318460C37BD4610
:103B00005DF8047B704700BF80B588B000AFF860F7
:103B10007A603B600B46FB720023FB610023BB61B4
:103B2000FB689B6993F82C30002B6CD0FB689A697A
:103B3000FB7A104619467A683B6800F075F8F86120
:103B4000FB69002B08DAFB681B682C331B68FA68DA
:103B500010469847FB695FE0FB689B695B68184605
:103B6000012102F019FBFEF731FBC7E904011CE05B
:103B7000FEF72CFBD7E90423821A61EB03032848E4
:103B80004FF00001904271EB030CACBF0023012306
:103B9000DBB2002B09D0FB681B682C331B68FA686A
:103BA000104698474FF0FF3336E0FB689B695B682F
:103BB00018461C4902F08CFB0346012B0CBF002366
:103BC0000123DBB2002BD3D1FB689A69FB7A104644
:103BD0001946BA6AFB6A00F079F9B861BB69002B33
:103BE00008DAFB681B682C331B68FA681046984794
:103BF000BB6911E0FB681B682C331B68FA68104630
:103C00009847BB6908E0FB681B682C331B68FA689F
:103C1000104698476FF0050318462037BD4680BD13
:103C200040420F000100030080B588B000AFF8608B
:103C30007A603B600B46FB723B68002B01D100238E
:103C40007FE0F86800F08AF80346DB0FDBB2002B58
:103C500002D04FF0FF3374E0FB7AF8681946002277
:103C600000F0E4F80346DB0FDBB2002B02D06FF06C
:103C7000040366E00023FB6135E0FEF7A7FAC7E91D
:103C8000040115E0FEF7A2FAD7E90423821A61EBDA
:103C900003032E484FF00001904271EB030CACBFC0
:103CA00000230123DBB2002B02D06FF0020348E0B7
:103CB000FB685B681846264902F00AFB0346002BA6
:103CC00014BF00230123DBB2002BDBD1FB685A6851
:103CD0007968FB690B441B781046194602F0DAFA42
:103CE000FB690133FB61FA693B689A42C5D3FEF771
:103CF0006DFAC7E9040115E0FEF768FAD7E9042375
:103D0000821A61EB030313484FF00001904271EBFC
:103D1000030CACBF00230123DBB2002B02D06FF0F9
:103D200002030EE0FB685B6818460B4902F0D0FA0C
:103D30000346002B14BF00230123DBB2002BDBD191
:103D40003B6818462037BD4680BD00BF40420F008B
:103D500080000700809698008400070080B584B03A
:103D600000AF7860FEF732FAC7E9020115E0FEF70E
:103D70002DFAD7E90223821A61EB030328484FF09A
:103D80000001904271EB030CACBF00230123DBB2B6
:103D9000002B02D04FF0FF333EE07B685B68184693
:103DA0004FF4003102F0C4FA0346002B0CBF00238D
:103DB0000123DBB2002BDAD17B685B681846012156
:103DC00002F0EAF9FEF702FAC7E9020115E0FEF790
:103DD000FDF9D7E90223821A61EB030311484FF082
:103DE0000001904271EB030CACBF00230123DBB256
:103DF000002B02D04FF0FF330EE07B685B68184663
:103E0000094902F065FA0346012B0CBF0023012388
:103E1000DBB2002BDBD1002318461037BD4680BD36
:103E20008096980040420F000100030080B586B0E4
:103E300000AF786013460A46FA70BB707B68596819
:103E4000FB785B00DAB2BB78084611461A4602F0EE
:103E5000E3F9BB78012B02D1194B7B6101E0194BCF
:103E60007B61FEF7B3F9C7E9020115E0FEF7AEF991
:103E7000D7E90223821A61EB030313484FF00001D4
:103E8000904271EB030CACBF00230123DBB2002B8B
:103E900002D06FF004030EE07B685B681846796916
:103EA00002F016FA0346012B0CBF00230123DBB2FC
:103EB000002BDBD1002318461837BD4680BD00BF5C
:103EC000020003008200070040420F0090B58BB053
:103ED00000AFF8607A603B600B46FB723B68002BDA
:103EE00001D100238BE2FB7AF86819460122FFF723
:103EF0009DFF0346DB0FDBB2002B02D06FF0040303
:103F00007DE23B68012B6FD1FB685B68184600219E
:103F100002F0A0F9FB685B681B8BFB685B681846C6
:103F2000012102F059F9FEF751F9C7E9040115E042
:103F3000FEF74CF9D7E90423821A61EB03039A4890
:103F40004FF00001904271EB030CACBF0023012342
:103F5000DBB2002B02D06FF0030350E2FB685B681A
:103F60001846924902F0E4F90346002B14BF0023DF
:103F70000123DBB2002BDBD1FB685B68184602F043
:103F800099F903461A467B681A70FEF71FF9C7E9CC
:103F9000040115E0FEF71AF9D7E90423821A61EB50
:103FA000030381484FF00001904271EB030CACBF5A
:103FB00000230123DBB2002B02D06FF001031EE2CD
:103FC000FB685B681B889BB203F40073002B0CBF7B
:103FD00000230123DBB2002BDCD1FB685B681846B1
:103FE000012102F037F903E23B68022B40F0B78071
:103FF000FB685B681846002102F02CF9FB685B68DF
:10400000FA685268128892B242F4006292B21A8040
:10401000FB685B681B8BFEF7D9F8C7E9040115E064
:10402000FEF7D4F8D7E90423821A61EB03035E4854
:104030004FF00001904271EB030CACBF0023012351
:10404000DBB2002B02D06FF00303D8E1FB685B68A2
:104050001846574902F06CF90346002B14BF0023A1
:104060000123DBB2002BDBD1FB685B681846012122
:1040700002F0B2F800237B6235E0FEF7A7F8C7E94B
:10408000040115E0FEF7A2F8D7E90423821A61EBD8
:10409000030345484FF00001904271EB030CACBFA5
:1040A00000230123DBB2002B02D06FF00303A6E153
:1040B000FB685B6818463D4902F03AF90346002B5D
:1040C00014BF00230123DBB2002BDBD17A687B6AAB
:1040D000D418FB685B68184602F0ECF803462370BE
:1040E0007B6A01337B627B6A012BC6D9FEF76EF8CF
:1040F000C7E9040115E0FEF769F8D7E90423821A3D
:1041000061EB030328484FF00001904271EB030C70
:10411000ACBF00230123DBB2002B02D06FF0010300
:104120006DE1FB685B681B889BB203F40073002B96
:104130000CBF00230123DBB2002BDCD1FB685B68E2
:104140001846012102F086F8FB685B68FA6852683D
:10415000128892B222F4006292B21A8048E13B685F
:10416000022B40F24581FB685B681B8B00233B629E
:104170003BE0FEF72BF8C7E904011BE0FEF726F849
:10418000D7E90423821A61EB030307484FF00001CB
:10419000904271EB030CACBF00230123DBB2002B78
:1041A00008D06FF003032AE140420F0040000010E6
:1041B00004000010FB685B681846934902F0B8F8E9
:1041C0000346002B14BF00230123DBB2002BD5D103
:1041D0007A683B6AD418FB685B68184602F06AF894
:1041E000034623703B6A01333B623B68DA1E3B6A3D
:1041F0009A42BED8FDF7EAFFC7E9040115E0FDF7D2
:10420000E5FFD7E90423821A61EB03037F484FF0EF
:104210000001904271EB030CACBF00230123DBB221
:10422000002B02D06FF00303E9E0FB685B681846DF
:10423000774902F07DF80346002B14BF00230123C9
:10424000DBB2002BDBD1FB685B681846002102F073
:1042500001F8FDF7BBFFC7E9040115E0FDF7B6FF64
:10426000D7E90423821A61EB030368484FF0000189
:10427000904271EB030CACBF00230123DBB2002B97
:1042800002D06FF00303BAE0FB685B6818465E4932
:1042900002F04EF80346002B14BF00230123DBB2CB
:1042A000002BDBD13B68033B7A68D418FB685B6862
:1042B000184601F0FFFF03462370FDF787FFC7E9AB
:1042C000040115E0FDF782FFD7E90423821A61EBB0
:1042D00003034E484FF00001904271EB030CACBF5A
:1042E00000230123DBB2002B02D06FF0030386E032
:1042F000FB685B681846464902F01AF80346002B33
:1043000014BF00230123DBB2002BDBD1FB685B6809
:104310001846012101F060FF0223FB6137E0FDF741
:1043200055FFC7E9040115E0FDF750FFD7E9042365
:10433000821A61EB030335484FF00001904271EBA4
:10434000030CACBF00230123DBB2002B02D06FF0C3
:10435000030354E0FB685B6818462B4901F0E8FF53
:104360000346002B14BF00230123DBB2002BDBD15B
:104370003A68FB69D31A7A68D418FB685B681846F8
:1043800001F098FF03462370FB69013BFB61FB6969
:10439000002BC4D1FDF71AFFC7E9040115E0FDF7B2
:1043A00015FFD7E90423821A61EB030317484FF086
:1043B0000001904271EB030CACBF00230123DBB280
:1043C000002B02D06FF0010319E0FB685B681B88CB
:1043D0009BB203F40073002B0CBF00230123DBB25C
:1043E000002BDCD1FB685B681846012101F032FF2D
:1043F000FB685B681846074901F0CEFF3B6818462A
:104400002C37BD4690BD00BF4000001040420F0059
:104410000400001000040010B0B582B000AF786056
:1044200039607B68012B10D13A684FF6FF739A42CE
:104430000BD1074B02241D4604E02846FFF790F9F4
:104440003035013CB4F1FF3FF7D10837BD46B0BD70
:10445000DC03002080B500AF01204FF6FF71FFF7AD
:10446000DBFF80BD80B483B000AF78600C37BD4601
:104470005DF8047B704700BF80B582B000AF786004
:104480007B68064A1A600023002B02D07868FDF78B
:1044900013FE7B6818460837BD4680BDB89C0008EF
:1044A00080B582B000AF78607868FFF7E5FF786884
:1044B000FDF702FE7B6818460837BD4680BD00BF89
:1044C00080B584B000AFF860B9607A603B600448A2
:1044D000FDF746FD002318461037BD4680BD00BFDE
:1044E0001497000880B483B000AF786000231846AA
:1044F0000C37BD465DF8047B704700BF80B483B0C5
:1045000000AF0346FB71084B97F907205209F97970
:1045100001F01F01012000FA01F143F822100C37CD
:10452000BD465DF8047B704700E100E080B483B0D5
:1045300000AF0346FB71094B97F907205209F9793F
:1045400001F01F01012000FA01F1203243F822108E
:104550000C37BD465DF8047B704700BF00E100E00A
:1045600080B483B000AF0346FB71094B97F9072075
:104570005209F97901F01F01012000FA01F16032BE
:1045800043F822100C37BD465DF8047B704700BF2E
:1045900000E100E080B582B000AF78607B6818462B
:1045A000064964224FF4FA6303F03CFA7B68044A3C
:1045B0001A607B6818460837BD4680BD9C97000886
:1045C000609C000880B582B000AF78607B6848339B
:1045D000184601F003F87B6803F5AA73184600F04B
:1045E000FDFF7B6818460837BD4680BD000000000F
:1045F00080B586B002AF78600CE0FDF7E7FD29A337
:10460000D3E90023121843EB010310461946002298
:1046100003F058FB1E4B1B78DBB283F00103DBB2C7
:10462000002BEAD179681B4A4FF00003CDE9002343
:104630000846194A4FF00003FDF748FD1CE001232E
:10464000FB6016E0154AFB684FF4187101FB03F399
:10465000134430339B79002B08D0FB685A1E104B53
:1046600053F822301846002101F0F6F9FB680133B7
:10467000FB60FB68032BE5DD7B681846FDF73CFD1E
:104680000123002BDBD11037BD4680BDAFF3008086
:104690000C1500208096980040420F006C0400200A
:1046A0001400002000E40B5402000000AFF300806F
:1046B00080B582B000AF78600B46FB707B6818460F
:1046C00003F0EAFD7B688D4A1A60FB78002B02D06C
:1046D000FB78062B07D97B68894A9A617B689B69BE
:1046E000FA781A704FE1FB784FF4187202FB03F26C
:1046F000834B1A447B689A617B689B69FA781A70CD
:104700007B689B694FF4E1329A607B689B69012268
:104710005A607B689B697A68DA607B689B690022D3
:1047200083F836207B689B69002283F837207B68FA
:104730009B69002283F83C20FB78013B072B00F2A9
:10474000218101A252F823F069470008B747000809
:10475000014800085348000881480008AD48000897
:10476000314900085B4900087B689B69654A5A61CA
:104770007B689B69644A9A617B689B6940229A8343
:104780007B689B69604A1A627B689B6980229A8475
:104790007B689B695D4A9A627B689B694FF4805293
:1047A0009A857B689B69594A1A637B689B694FF4B9
:1047B00000629A86E7E07B689B69554A5A617B688C
:1047C0009B69544A9A617B689B6920229A837B6823
:1047D0009B69504A1A627B689B6940229A847B6875
:1047E0009B694C4A9A627B689B6910229A857B6818
:1047F0009B69484A1A637B689B6908229A86C2E0D3
:104800007B689B69444A5A617B689B69414A9A610B
:104810007B689B694FF480729A837B689B693D4AF1
:104820001A627B689B694FF400729A847B689B696B
:10483000354A9A627B689B694FF480429A857B680F
:104840009B69344A1A637B689B694FF400629A86BD
:1048500099E07B689B69314A5A617B689B69304A61
:104860009A617B689B694FF480629A837B689B693D
:104870002B4A1A627B689B694FF400629A8482E03B
:104880007B689B69274A5A617B689B69244A9A61C5
:104890007B689B694FF480529A837B689B691D4AB1
:1048A0001A627B689B6904229A846CE07B689B692E
:1048B0001D4A5A617B689B69194A9A617B689B69AA
:1048C00040229A837B689B69154A1A627B689B69C0
:1048D00080229A847B689B69144A9A627B689B69F0
:1048E0004FF480729A857B689B69104A1A637B68D3
:1048F0009B694FF400429A8645E000BF789C00080F
:104900006C0400200010014000040240000002403E
:1049100000440040000C024000480040004C0040B1
:1049200000080240005000400014014000180240FE
:104930007B689B69164A5A617B689B69154A9A6134
:104940007B689B6980229A837B689B69114A1A6203
:104950007B689B6940229A8415E07B689B690E4ABC
:104960005A617B689B690D4A9A617B689B69022248
:104970009A837B689B69094A1A627B689B6901225A
:104980009A8400E000BF7B6818460837BD4680BDAA
:104990000078004000140240007C004000100240FB
:1049A00080B500AF034800F049FB2520FFF7D8FD94
:1049B00080BD00BFCC06002080B500AF034800F0EA
:1049C0003DFB2620FFF7CCFD80BD00BF2C09002059
:1049D00080B500AF034800F031FB2720FFF7C0FD92
:1049E00080BD00BF8C0B002080B500AF034800F0F5
:1049F00025FB3420FFF7B4FD80BD00BFEC0D002087
:104A000080B500AF034800F019FB3520FFF7A8FD83
:104A100080BD00BF4C10002080B500AF034800F0FF
:104A20000DFB4720FFF79CFD80BD00BFAC120020AE
:104A300080B500AF0D480E4901F050F80346002B39
:104A40000CBF00230123DBB2002B0AD00748084922
:104A500001F09CF84620FFF783FD064800F01EFA9F
:104A600002E04620FFF77CFD80BD00BFB864024035
:104A700000800028CC06002080B500AF0D480E490C
:104A800001F02CF80346002B0CBF00230123DBB2FE
:104A9000002B0AD00748084901F078F81120FFF7E9
:104AA0005FFD064800F0FAF902E01120FFF758FD1B
:104AB00080BD00BFA0600240008020202C090020A3
:104AC00080B500AF0D480E4901F008F80346002BF1
:104AD0000CBF00230123DBB2002B0AD00748084992
:104AE00001F054F80E20FFF73BFD064800F0D6F920
:104AF00002E00E20FFF734FD80BD00BF5860024089
:104B0000008000188C0B002080B500AF0D480E49C6
:104B100000F0E4FF0346002B0CBF00230123DBB2AF
:104B2000002B0AD00748084901F030F84420FFF76D
:104B300017FD064800F0F6F902E04420FFF710FDEB
:104B400080BD00BF8864024000880020CC060020A1
:104B500080B500AF0D480E4900F0C0FF0346002BA2
:104B60000CBF00230123DBB2002B0AD00748084901
:104B700001F00CF81020FFF7F3FC064800F0D2F922
:104B800002E01020FFF7ECFC80BD00BF886002400F
:104B9000008800202C09002080B500AF0D480E4988
:104BA00000F09CFF0346002B0CBF00230123DBB267
:104BB000002B0AD00748084900F0E8FF0C20FFF757
:104BC000CFFC064800F0AEF902E00C20FFF7C8FC6D
:104BD00080BD00BF28600240008800108C0B0020C0
:104BE00080B582B000AF786039607B689B691B78C4
:104BF000002B04D07B689B691B78062B02D94FF0F1
:104C0000FF3306E07B689B691846396800F0ECFBCF
:104C1000034618460837BD4680BD00BF80B586B044
:104C200000AF78607B689B691B78002B35D07B6870
:104C30009B691B78062B30D87B689B695B697B611D
:104C40007B689B69184600F0A3FB03461846FFF7F4
:104C50006DFC786901F09CFD07F10C03184601F02A
:104C600003F900233B747B689B699B8CFB607B682A
:104C70009B691A6A07F10C031046194601F066F8A1
:104C80007B689B699B8BFB607B689B699A6907F1DA
:104C90000C031046194601F059F81837BD4680BD7F
:104CA00080B584B000AF78600B46FB707B689B6971
:104CB0001B78002B04D07B689B691B78062B02D9DC
:104CC0004FF0FF333BE07B689B6903F5AA72FB78EA
:104CD000FB7307F10F031046194600F055FD03461C
:104CE000002B2AD07B689B695B69184640F22661DD
:104CF000002201F0DDFE7B689B6993F83630002BC3
:104D00000FD07B689B6993F83730DBB283F00103E7
:104D1000DBB2002B0ED07B689B69184600F038F997
:104D200008E07B689B695B69184640F227710122A5
:104D300001F0BEFE97F9033001E04FF0FF33184653
:104D40001037BD4680BD00BF80B582B000AF78602F
:104D50007B689B691B78002B04D07B689B691B7860
:104D6000062B01D9002316E07B689B6903F5AA7323
:104D7000184600F035FD0346002B0BD07B689B697D
:104D80005B691846402101F0DBFE0346012B01D18F
:104D9000012300E0002318460837BD4680BD00BF50
:104DA00080B582B000AF78607B689B691B78002B70
:104DB00004D07B689B691B78062B01D9002309E08E
:104DC0007B689B694833184600F00AFD034683F070
:104DD0000103DBB218460837BD4680BD80B586B0FA
:104DE00000AFF860B9607A60FB681B78002B03D0D5
:104DF000FB681B78032B00D914E0FB681B785A1E54
:104E00000A4B53F822307B617869002100F024FEC0
:104E1000BA687B69DA607A687B695A6078690121CF
:104E200000F01AFE1837BD4680BD00BF0800002004
:104E300080B586B000AFF860B9607A60FB681B7817
:104E4000002B03D0FB681B78032B00D920E0FB6804
:104E50001B785A1E104B53F822307B617869002171
:104E600000F0FAFD00BF786900F020FE0346012B38
:104E700014BF00230123DBB2002BF4D1BA687B6995
:104E8000DA607A687B695A607869012100F0E4FD94
:104E90001837BD4680BD00BF1400002080B586B025
:104EA00000AF78607B681B78002B03D07B681B7891
:104EB000032B00D930E07B681B785A1E184B53F83F
:104EC00022307B61786900F0E3FD03463B617B683B
:104ED0009A6B3B69D31AFB607B6803F5AA7318468B
:104EE000F96800F0BDFB7B6803F5AA73184600F073
:104EF00077FC0346002B0CD07B68002283F8372018
:104F00007B685B69184640F22661012201F0D0FD02
:104F100002E0786800F03CF81837BD4680BD00BF5D
:104F20000800002090B585B000AF78607B681B78E2
:104F3000002B03D07B681B78032B00D923E07B6810
:104F40001B785A1E114B53F82230FB607B681C6C97
:104F5000F86800F09DFD0346E31ABB607B684833A8
:104F60001846B96800F0D0FBBB68002B08DD7B68F1
:104F7000DB681B6830331B687A68D2681046984734
:104F8000786800F027F81437BD4690BD1400002063
:104F900080B584B000AF78607B6803F5AA7207F132
:104FA00008031046194600F02BFBF860FB68002B45
:104FB0000CD0BA687B689A637B68012283F837203B
:104FC000BB687868F9681A46FFF708FF1037BD46D6
:104FD00080BD00BF80B584B000AF78607B6803F10E
:104FE000480207F108031046194600F04DFBF8602F
:104FF000FB68002B15D07B685A6CBB689A4202DABA
:105000007B685B6CBB60BA687B681A647B68012252
:1050100083F83C20BB687868F9681A46FFF708FFF8
:1050200008E07B68002283F83C207B681B695A1CDF
:105030007B681A611037BD4680BD00BF80B584B063
:1050400000AF78607B685B691846082101F078FD45
:105050000346002B0DD17B6893F83630002B0AD025
:105060007B685B691846602101F086FD0346002BD2
:1050700001D0012300E00023002B0AD07B685B698C
:10508000184601F005FD7B681B695A1C7B681A6194
:1050900085E07B685B69184640F2255101F06CFDA4
:1050A0000346002B0CBF00230123DBB2002B25D0CD
:1050B0007B685B69184601F0EBFC0346DBB2FB73CF
:1050C0007B6803F1480207F10F031046194600F010
:1050D0005BFB034683F00103DBB2002B04D07B684B
:1050E0001B695A1C7B681A617B68DB681B6830335C
:1050F0001B687A68D2681046984750E07B685B6905
:10510000184640F2277101F037FD0346002B0CBF13
:1051100000230123DBB2002B21D07B6803F5AA72A8
:1051200007F10F031046194600F002FB0346002B5F
:1051300004D07B685B69FA7B9A8030E07B685B69AE
:10514000184640F22771002201F0B2FC7B685B69CF
:10515000184640F22661012201F0AAFC1FE07B689C
:105160005B69184640F2266101F006FD0346002BFC
:105170000CBF00230123DBB2002B10D07B685B69DE
:10518000184640F22661002201F092FC7B68DB6841
:105190001B6828331B687A68D26810469847103716
:1051A000BD4680BD80B485B000AF78603960002313
:1051B000FB6002E0FB680133FB603B685B083B601F
:1051C0003B68002B0CBF00230123DBB2002BF1D185
:1051D000FB6818461437BD465DF8047B704700BF76
:1051E00080B483B000AF786039603B68264A934250
:1051F00034D0254A934213D8244A934228D0234AD4
:10520000934206D8224A93421ED0224A93421DD08E
:1052100033E0214A93421DD0204A93421CD02CE017
:105220001F4A934220D01E4A934206D81D4A9342F9
:1052300016D01D4A934215D01FE01C4A934216D047
:105240001B4A934216D018E0012317E0022315E011
:10525000042313E0082311E010230FE020230DE0C6
:1052600040230BE0802309E04FF4807306E04FF405
:10527000007303E04FF4806300E0002318460C370E
:10528000BD465DF8047B70470014024000080240F0
:105290000000024000040240000C024000100240E6
:1052A0000020024000180240001C0240002402407E
:1052B0000028024080B483B000AF78607B681B7820
:1052C000013B072B28D801A252F823F0ED52000829
:1052D000F1520008F7520008FD520008035300087D
:1052E000095300080D53000813530008102314E05D
:1052F0004FF4003311E04FF480230EE04FF400230D
:105300000BE04FF4801308E0202306E04FF08043C9
:1053100003E04FF0004300E0002318460C37BD4681
:105320005DF8047B704700BF80B483B000AF786045
:105330007B681B78013B072B22D801A252F823F08F
:105340006153000865530008695300086D53000855
:105350007153000875530008795300087D53000805
:1053600007230EE007230CE007230AE0082308E0E8
:10537000082306E0082304E0082302E0082300E0F5
:10538000002318460C37BD465DF8047B704700BF0C
:1053900080B483B000AF78607B681B78013B052B3D
:1053A0001AD801A252F823F0C1530008C5530008CF
:1053B000C9530008CD530008D1530008D553000845
:1053C00025230AE0262308E0272306E0342304E00F
:1053D000352302E0472300E025235BB218460C3753
:1053E000BD465DF8047B7047B0B588B000AF78600B
:1053F00039607B681B78002B03D07B681B78062BF9
:1054000002D94FF0FF33BDE03A687B689A607B6851
:105410005B69184601F0BCF97B681B78012B03D04F
:105420007B681B78062B08D17868FFF743FF03469B
:105430001846012101F0BCF807E07868FFF73AFF51
:1054400003461846012101F095F87B689B6978684E
:105450001946FFF7C5FE04467B681B6A7868194643
:10546000FFF7BEFE034623431846012101F064F80E
:105470007B689B6978681946FFF7B2FE04467B6833
:105480001B6A78681946FFF7ABFE034623431846AC
:10549000002101F0ABF87B689D697B689B8B786885
:1054A0001946FFF77FFE03469CB27868FFF73CFF82
:1054B0000346284621461A4600F00CFD7B681D6A0B
:1054C0007B689B8C78681946FFF76CFE03469CB29C
:1054D0007868FFF729FF0346284621461A4600F060
:1054E000F9FC07F11803184600F0BEFC02233B77D5
:1054F0007B689B8BBB617B689A6907F11803104638
:10550000194600F023FC07F11803184600F0ACFC24
:1055100002233B777B689B8CBB617B681A6A07F12F
:1055200018031046194600F011FC07F1080318464D
:1055300001F072FA3B68BB607B685A6907F10803A7
:105540001046194601F0AEF97B685B6918460121E7
:1055500001F07EFA7B685B69184640F22551012212
:1055600001F0A6FA7B685B69184640F227710122B8
:1055700001F09EFA7868FFF70BFF03461846FEF726
:10558000BDFF002318462037BD46B0BD80B582B0B0
:1055900000AF78607B68084A1A607B681846FEF79F
:1055A0006BFF0023002B02D07868FCF785FD7B6839
:1055B00018460837BD4680BD489C000880B582B0BB
:1055C00000AF78607868FFF7E1FF7868FCF774FD5A
:1055D0007B6818460837BD4680BD00BF80B582B0E5
:1055E00000AF78607B68184600F020F97B68034ABA
:1055F0001A607B6818460837BD4680BD309C00089D
:1056000080B485B000AF786039607B68D3F808312A
:10561000FB607B68D3F80431BB60FA68BB689A42D0
:1056200004D13B6800221A60002312E0FA68BB68CC
:105630009A4205DABA68FB68D21A3B681A6004E03D
:10564000FB68C3F580723B681A607A68FB68134494
:10565000043318461437BD465DF8047B704700BF1D
:1056600080B582B000AF786039607B68D3F80831CC
:10567000786819463A6800F0F3F802467B68C3F888
:1056800008210837BD4680BD80B584B000AF786082
:1056900039607B68D3F80831FB607B68D3F804314C
:1056A000BB607B681846B96800F0F4F80246FB68F6
:1056B0009A4214BF00230123DBB2002B04D03B68C5
:1056C00000221A6000231BE0FA68BB689A4206DDDC
:1056D000FA68BB68D31A5A1E3B681A600CE0BB68B4
:1056E000C3F580723B681A60FB68002B04D13B68ED
:1056F0001B685A1E3B681A607A68BB6813440433FF
:1057000018461037BD4680BD80B582B000AF7860C6
:1057100039607B68D3F80431786819463A6800F03C
:105720009FF802467B68C3F804210837BD4680BD58
:1057300080B582B000AF786039607B68D3F808210B
:105740007B68D3F804319A4214BF00230123DBB2F3
:10575000002B01D0002313E07B68D3F808317A686E
:1057600013441A793B681A707B68D3F8083178685B
:10577000194600F08FF802467B68C3F80821012320
:1057800018460837BD4680BD80B584B000AF78604C
:1057900039607B68D3F804317868194600F07AF8EC
:1057A000F8607B68D3F80821FB689A4214BF002395
:1057B0000123DBB2002B01D000230CE07B68D3F87F
:1057C00004313A68127879680B441A717B68FA6878
:1057D000C3F80421012318461037BD4680BD00BF21
:1057E00080B483B000AF78607B68D3F808217B6811
:1057F000D3F804319A4214BF00230123DBB21846C8
:105800000C37BD465DF8047B704700BF80B483B0A1
:1058100000AF78607B68044A1A607B6818460C37D2
:10582000BD465DF8047B7047B89C000880B582B027
:1058300000AF78607B681846FFF7E8FF7B68074A8F
:105840001A607B680022C3F808217B680022C3F835
:1058500004217B6818460837BD4680BD489C000877
:1058600080B487B000AFF860B9607A60BA687B68CE
:1058700013447B6103E07B69A3F580737B617B69E3
:10588000FF2BF8DC7B6918461C37BD465DF8047BAE
:10589000704700BF80B483B000AF786039603B6868
:1058A000FE2B02DC3B68013300E0002318460C3776
:1058B000BD465DF8047B704780B582B000AF78606C
:1058C0007B68084A1A607B681846FFF75FFE002372
:1058D000002B02D07868FCF7EFFB7B68184608378E
:1058E000BD4680BD309C000880B582B000AF7860B6
:1058F0007868FFF7E1FF7868FCF7DEFB7B68184605
:105900000837BD4680BD00BF80B582B000AF78606B
:105910007B68084A1A607B68184602F0F1F8002399
:10592000002B02D07868FCF7C7FB7B681846083765
:10593000BD4680BD609C000880B582B000AF786035
:105940007868FFF7E1FF7868FCF7B6FB7B681846DC
:105950000837BD4680BD00BF80B582B000AF78601B
:105960007B6803F5AA731846FFF7A6FF7B684833E8
:105970001846FFF7A1FF7B6818460837BD4680BD73
:1059800090B583B000AF7860064C074B9C4205D0C1
:10599000A4F518742046FFF7DFFFF6E70C37BD4685
:1059A00090BD00BF0C1500206C040020B0B582B083
:1059B00000AF786039607B68012B1ED13A684FF6E2
:1059C000FF739A4219D10E4B06241D4605E0284666
:1059D000FEF7F8FD05F51875013CB4F1FF3FF6D16F
:1059E00000200849084A03F0E5FB0848FEF7D2FD0D
:1059F00006480749044A03F0DDFB0837BD46B0BD41
:105A00006C04002081590008940300201015002028
:105A10000959000880B584B000AFF860B9607A60B9
:105A20003B607B68012B04D90648FCF799FA0023F8
:105A300004E0F8683968FFF7A7FE034618461037F8
:105A4000BD4680BDAC97000880B500AF01204FF681
:105A5000FF71FFF7ABFF80BD80B483B000AF78600B
:105A60000B46FB70FB78002B06D07B681B6843F06D
:105A700001027B681A6005E07B681B6823F0010265
:105A80007B681A600C37BD465DF8047B704700BF29
:105A900080B483B000AF78607B685B689BB21846C7
:105AA0000C37BD465DF8047B704700BF80B485B0FD
:105AB00000AF78600023FB737B681B6803F0010371
:105AC000002B02D00123FB7301E00023FB73FB7B5F
:105AD00018461437BD465DF8047B704780B487B024
