:020000040800F2
:1000000000000220B94A0008254B0008254B0008D3
:10001000254B0008254B0008254B00080000000078
:10002000000000000000000000000000F9A500082A
:10003000254B0008000000000DA6000839A90008A3
:10004000254B0008254B0008254B0008254B0008D0
:10005000254B0008254B0008395300085D53000864
:1000600081530008A5530008C9530008254B000818
:1000700039760008254B000861750008254B0008FB
:10008000F1750008254B0008254B0008254B00089A
:10009000254B0008254B0008254B0008ED530008B0
:1000A000254B0008254B0008254B0008254B000870
:1000B000254B0008254B0008254B0008254B000860
:1000C000254B0008254B0008254B0008254B000850
:1000D000254B000889740008A1740008B974000851
:1000E00049540008254B0008254B0008254B000803
:1000F000254B0008254B0008254B0008254B000820
:10010000254B0008254B000805A70008254B0008D3
:10011000D1740008E9740008254B0008E9AA00081A
:10012000254B0008254B0008254B0008254B0008EF
:10013000254B0008254B0008254B0008254B0008DF
:10014000254B0008254B0008254B0008254B0008CF
:10015000A9750008254B00081975000801750008ED
:10016000254B0008254B0008254B0008254B0008AF
:10017000254B0008254B0008254B0008254B00089F
:0C018000254B0008254B0008000000087B
:1001900081F0004102E000BF83F0004330B54FEA38
:1001A00041044FEA430594EA050F08BF90EA020FA5
:1001B0001FBF54EA000C55EA020C7FEA645C7FEA38
:1001C000655C00F0E2804FEA5454D4EB5555B8BF5B
:1001D0006D420CDD2C4480EA020281EA030382EACC
:1001E000000083EA010180EA020281EA0303362D5E
:1001F00088BF30BD11F0004F4FEA01314FF4801C31
:100200004CEA113102D0404261EB410113F0004F42
:100210004FEA03334CEA133302D0524263EB4303F9
:1002200094EA050F00F0A780A4F10104D5F1200E97
:100230000DDB02FA0EFC22FA05F2801841F10001F2
:1002400003FA0EF2801843FA05F359410EE0A5F1C6
:1002500020050EF1200E012A03FA0EFC28BF4CF0F7
:10026000020C43FA05F3C01851EBE37101F00045AD
:1002700007D54FF0000EDCF1000C7EEB00006EEBBA
:100280000101B1F5801F1BD3B1F5001F0CD3490844
:100290005FEA30004FEA3C0C04F101044FEA44529B
:1002A00012F5800F80F09A80BCF1004F08BF5FEA22
:1002B000500C50F1000041EB045141EA050130BD02
:1002C0005FEA4C0C404141EB010111F4801FA4F1A5
:1002D0000104E9D191F0000F04BF01460020B1FAFA
:1002E00081F308BF2033A3F10B03B3F120020CDA32
:1002F0000C3208DD02F1140CC2F10C0201FA0CF010
:1003000021FA02F10CE002F11402D8BFC2F1200C74
:1003100001FA02F120FA0CFCDCBF41EA0C0190402A
:10032000E41AA2BF01EB0451294330BD6FEA040473
:100330001F3C1CDA0C340EDC04F11404C4F120025E
:1003400020FA04F001FA02F340EA030021FA04F370
:1003500045EA030130BDC4F10C04C4F1200220FAC7
:1003600002F001FA04F340EA0300294630BD21FA05
:1003700004F0294630BD94F0000F83F4801306BFCB
:1003800081F480110134013D4EE77FEA645C18BFBF
:100390007FEA655C29D094EA050F08BF90EA020F56
:1003A00005D054EA000C04BF1946104630BD91EA4E
:1003B000030F1EBF0021002030BD5FEA545C05D151
:1003C0004000494128BF41F0004130BD14F5800490
:1003D0003CBF01F5801130BD01F0004545F0FE4104
:1003E00041F470014FF0000030BD7FEA645C1ABF39
:1003F000194610467FEA655C1CBF0B46024650EA70
:10040000013406BF52EA033591EA030F41F400219B
:1004100030BD00BF90F0000F04BF0021704730B521
:100420004FF4806404F132044FF000054FF00001F6
:1004300050E700BF90F0000F04BF0021704730B5B7
:100440004FF4806404F1320410F0004548BF40428C
:100450004FF000013EE700BF42004FEAE2014FEAE1
:1004600031014FEA02701FBF12F07F4393F07F4FBC
:1004700081F06051704792F0000F14BF93F07F4FEE
:10048000704730B54FF4607401F0004521F0004131
:1004900020E700BF50EA010208BF704730B54FF0B7
:1004A00000050AE050EA010208BF704730B511F0BC
:1004B000004502D5404261EB41014FF4806404F1F4
:1004C00032045FEA915C3FF4DCAE4FF003025FEA76
:1004D000DC0C18BF03325FEADC0C18BF033202EBFE
:1004E000DC02C2F1200300FA03FC20FA02F001FA58
:1004F00003FE40EA0E0021FA02F11444C1E600BFF7
:1005000070B54FF0FF0C4CF4E06C1CEA11541DBFA9
:100510001CEA135594EA0C0F95EA0C0F00F0DEF874
:100520002C4481EA030621EA4C5123EA4C5350EA59
:10053000013518BF52EA033541F4801143F48013AA
:1005400038D0A0FB02CE4FF00005E1FB02E506F03B
:100550000042E0FB03E54FF00006E1FB03569CF090
:10056000000F18BF4EF0010EA4F1FF04B6F5007F96
:1005700064F5407404D25FEA4E0E6D4146EB060608
:1005800042EAC62141EA55514FEAC52040EA5E5091
:100590004FEACE2EB4F1FD0C88BFBCF5E06F1ED83B
:1005A000BEF1004F08BF5FEA500E50F1000041EB72
:1005B000045170BD06F0004646EA010140EA02001F
:1005C00081EA0301B4EB5C04C2BFD4EB0C0541EA41
:1005D000045170BD41F480114FF0000E013C00F356
:1005E000AB8014F1360FDEBF002001F0004170BD7A
:1005F000C4F10004203C35DA0C341BDC04F1140493
:10060000C4F1200500FA05F320FA04F001FA05F21E
:1006100040EA020001F0004221F0004110EBD370EB
:1006200021FA04F642EB06015EEA430E08BF20EA17
:10063000D37070BDC4F10C04C4F1200500FA04F3BA
:1006400020FA05F001FA04F240EA020001F000414C
:1006500010EBD37041F100015EEA430E08BF20EABF
:10066000D37070BDC4F1200500FA05F24EEA020E07
:1006700020FA04F301FA05F243EA020321FA04F036
:1006800001F0004121FA04F220EA020000EBD370ED
:100690005EEA430E08BF20EAD37070BD94F0000FED
:1006A0000FD101F00046400041EB010111F4801F21
:1006B00008BF013CF7D041EA060195F0000F18BFD2
:1006C000704703F00046520043EB030313F4801F0E
:1006D00008BF013DF7D043EA0603704794EA0C0FC8
:1006E0000CEA135518BF95EA0C0F0CD050EA4106DE
:1006F00018BF52EA4306D1D181EA030101F000415B
:100700004FF0000070BD50EA410606BF1046194682
:1007100052EA430619D094EA0C0F02D150EA01368E
:1007200013D195EA0C0F05D152EA03361CBF1046CF
:1007300019460AD181EA030101F0004141F0FE416E
:1007400041F470014FF0000070BD41F0FE4141F4F2
:10075000780170BD70B54FF0FF0C4CF4E06C1CEAF2
:1007600011541DBF1CEA135594EA0C0F95EA0C0FA7
:1007700000F0A7F8A4EB050481EA030E52EA033562
:100780004FEA013100F088804FEA03334FF0805583
:1007900045EA131343EA12634FEA022245EA1115B0
:1007A00045EA10654FEA00260EF000419D4208BF61
:1007B000964244F1FD0404F5407402D25B084FEA0E
:1007C0003202B61A65EB03055B084FEA32024FF4BA
:1007D00080104FF4002CB6EB020E75EB030E22BF17
:1007E000B61A754640EA0C005B084FEA3202B6EBD7
:1007F000020E75EB030E22BFB61A754640EA5C0086
:100800005B084FEA3202B6EB020E75EB030E22BF15
:10081000B61A754640EA9C005B084FEA3202B6EB16
:10082000020E75EB030E22BFB61A754640EADC00D5
:1008300055EA060E18D04FEA051545EA16754FEA37
:1008400006164FEAC30343EA52734FEAC2025FEA55
:100850001C1CC0D111F4801F0BD141EA00014FF0E4
:1008600000004FF0004CB6E711F4801F04BF0143B5
:100870000020B4F1FD0C88BFBCF5E06F3FF6AFAED1
:10088000B5EB030C04BFB6EB020C5FEA500C50F161
:10089000000041EB045170BD0EF0004E4EEA1131E4
:1008A00014EB5C04C2BFD4EB0C0541EA045170BDEB
:1008B00041F480114FF0000E013C90E645EA060E2F
:1008C0008DE60CEA135594EA0C0F08BF95EA0C0F5D
:1008D0003FF43BAF94EA0C0F0AD150EA01347FF4A5
:1008E00034AF95EA0C0F7FF425AF104619462CE77C
:1008F00095EA0C0F06D152EA03353FF4FDAE1046DF
:10090000194622E750EA410618BF52EA43067FF42F
:10091000C5AE50EA41047FF40DAF52EA43057FF4BF
:10092000EBAE12E74FF0FF3C06E000BF4FF0010CCA
:1009300002E000BF4FF0010C4DF804CD4FEA410C2E
:100940007FEA6C5C4FEA430C18BF7FEA6C5C1BD0FB
:1009500001B050EA410C0CBF52EA430C91EA030F7C
:1009600002BF90EA020F0020704710F1000F91EAD9
:10097000030F58BF994208BF90422CBFD8176FEAA7
:10098000E37040F0010070474FEA410C7FEA6C5C75
:1009900002D150EA013C07D14FEA430C7FEA6C5C7C
:1009A000D6D152EA033CD3D05DF8040B704700BFA8
:1009B0008446104662468C461946634600E000BFF6
:1009C00001B5FFF7B7FF002848BF10F1000F01BDC8
:1009D0004DF808EDFFF7F4FF0CBF012000205DF893
:1009E00008FB00BF4DF808EDFFF7EAFF34BF012018
:1009F00000205DF808FB00BF4DF808EDFFF7E0FFB1
:100A000094BF012000205DF808FB00BF4DF808ED01
:100A1000FFF7CEFF94BF012000205DF808FB00BF68
:100A20004DF808EDFFF7C4FF34BF012000205DF84A
:100A300008FB00BF4FEA410212F5001215D211D592
:100A40006FF47873B3EB625212D94FEAC12343F0CB
:100A5000004343EA505311F0004F23FA02F018BF4D
:100A6000404270474FF00000704750EA013005D116
:100A700011F0004008BF6FF0004070474FF00000D9
:100A8000704700BF4A0011D212F5001211D20DD5E5
:100A90006FF47873B3EB62520ED44FEAC12343F084
:100AA000004343EA505323FA02F070474FF000002E
:100AB000704750EA013002D14FF0FF3070474FF0DD
:100AC0000000704773B96AB9002908BF0028BCBF8D
:100AD00000204FF00041C4BF6FF000414FF0FF30E5
:100AE00000F08CB882B0EC462DE9005000F056F8CA
:100AF000DDF804E002B00CBC704700BF4BB942B94E
:100B0000002908BF002802D04FF0FF31084600F04E
:100B100075B882B0EC462DE9005000F057F8DDF8CA
:100B200004E002B00CBC704738B500220023044634
:100B30000D46FFF757FF28B920462946BDE8384043
:100B400000F00AB8204605F1004100F005F84042E7
:100B500061EB410138BD00BF70B500220D4B04466A
:100B60000D46FFF7CDFCFFF78DFF0646FFF752FC61
:100B70000022094BFFF7C4FC02460B4620462946DB
:100B8000FFF70AFBFFF77EFF002242EA000420463F
:100B9000314670BD0000F03D0000F0412DE970438A
:100BA000069E14461D468046894600F029F804FB3F
:100BB00001F300FB0533A4FB00451D44B8EB04041E
:100BC00069EB0505C6E90045BDE870832DE9704372
:100BD000069E1446804689461D4600F05DF900FBDE
:100BE00005F504FB0153A0FB04451D44B8EB0404C8
:100BF00069EB0505C6E90045BDE87083704700BF95
:100C000000292DE9F00FC0F29F800024002BC0F2D4
:100C10009680154606460F46002B3ED18A4257D98C
:100C2000B2FA82F34BB1C3F1200201FA03F720FAC2
:100C300002F29D40174300FA03F6290CB7FBF1F2CC
:100C4000330C01FB127CA8B243EA0C4700FB02F311
:100C5000BB4209D97F1902F1FF3C80F00181BB4200
:100C600040F2FE80023A2F44FF1AB7FBF1F3B6B20E
:100C700001FB137146EA014100FB03F0884208D9E9
:100C8000491903F1FF3780F0ED80884240F2EA8095
:100C9000023B43EA0242002303E08B420AD90023CD
:100CA0001A461046194614B1404261EB4101BDE8B5
:100CB000F00F7047B3FA83F8B8F1000F40F084806A
:100CC0008B4202D3824200F2DE8000230122E8E759
:100CD00012B90123B3FBF2F5B5FA85F2002A39D136
:100CE0007F1B280C1FFA85FC0123B7FBF0F1320CA7
:100CF00000FB117742EA07470CFB01F2BA4207D921
:100D00007F1901F1FF3802D2BA4200F2C180414698
:100D1000BF1AB7FBF0F2B6B200FB127046EA004011
:100D20000CFB02FC844507D9401902F1FF3702D2BF
:100D3000844500F2AB803A4642EA0142B1E7E4431F
:100D4000524263EB430364E7404261EB41014FF0E1
:100D5000FF345BE79540C2F1200327FA03F1280C2A
:100D600026FA03F39740B1FBF0F81F433B0C00FB5E
:100D700018111FFA85FC43EA01410CFB08F38B4272
:100D800006FA02F608D9491908F1FF3279D28B42E6
:100D900077D9A8F102082944C91AB1FBF0F3BFB210
:100DA00000FB131147EA01470CFB03F2BA4207D9D3
:100DB0007F1903F1FF3160D2BA425ED9023B2F4462
:100DC000BF1A43EA084390E7C8F1200203FA08FC7F
:100DD00025FA02F343EA0C0C4FEA1C4921FA02F30C
:100DE00001FA08F720FA02F2B3FBF9F1174309FB05
:100DF00011333A0C1FFA8CFB42EA03430BFB01FA56
:100E00009A4505FA08F008D913EB0C0301F1FF32FB
:100E100035D29A4533D902396344CAEB0303B3FB95
:100E2000F9F209FB1233BFB247EA03470BFB02F9A1
:100E3000B94508D917EB0C0702F1FF331BD2B945AE
:100E400019D9023A674442EA0145A5FB0001C9EB02
:100E500007078F424FF000030AD305D02A4620E748
:100E6000624601E73B4614E706FA08F68642F5D2E9
:100E70006A1E002315E71A46E5E70B46A0E7114670
:100E8000CBE7904688E7434642460AE7023A53E7F3
:100E900002392F443CE700BF2DE9F00F1446054608
:100EA0000E46002B43D18A4253D9B2FA82F757B18A
:100EB000C7F1200620FA06F601FA07F302FA07F452
:100EC0001E4300FA07F5210CB6FBF1F22B0C01FBD7
:100ED0001267A0B243EA074600FB02F3B34209D906
:100EE000361902F1FF3780F0F680B34240F2F3800A
:100EF000023A2644F61AB6FBF1F3ADB201FB1361D8
:100F000045EA014100FB03F0884208D9091903F1C1
:100F1000FF3680F0E280884240F2DF80023B43EA05
:100F20000242002310461946BDE8F00F70478B427D
:100F30004AD8B3FA83F6002E4DD18B4202D38242B7
:100F400000F2D6800023012210461946BDE8F00FBA
:100F5000704712B90124B4FBF2F4B4FA84F2002A07
:100F60007CD1091B260CA7B20123B1FBF6F02A0C99
:100F700006FB101142EA014107FB00F28A4207D941
:100F8000091900F1FF3C02D28A4200F2C380604698
:100F9000891AB1FBF6F2ADB206FB121145EA014522
:100FA00007FB02F7AF4208D92C1902F1FF3180F09C
:100FB0009680A74240F29380023A42EA00421046ED
:100FC0001946BDE8F00F704700231A46104619462F
:100FD000BDE8F00F7047C6F1200522FA05F4B340D2
:100FE0001C434FEA144821FA05F301FA06F720FAE8
:100FF00005F5B3FBF8FC2F4308FB1C333D0C1FFA2F
:1010000084FA45EA03430AFB0CF9994502FA06FB08
:1010100004D91B190CF1FF326DD39446C9EB0303BD
:10102000B3FBF8F508FB1533BFB247EA03470AFBE9
:1010300005F8B84504D93F1905F1FF3361D31D46C2
:1010400045EA0C4CACFB0B23C8EB07079F424FF063
:10105000000549D345D062462B4663E79440C2F170
:10106000200321FA03FC260C20FA03F301FA02F50F
:10107000BCFBF6F843EA05010B0C06FB18CCA7B243
:1010800043EA0C4C07FB08F3634500FA02F509D963
:101090001CEB040C08F1FF323AD2634538D9A8F1B1
:1010A0000208A444C3EB0C0CBCFBF6F389B206FBAC
:1010B00013CC41EA0C4107FB03F28A4207D9091914
:1010C00003F1FF3022D28A4220D9023B2144891AFF
:1010D00043EA084349E73A460CE733461FE70A4626
:1010E0006BE7B0409042B6D20CF1FF32002319E713
:1010F0003346324616E799458FD9ACF1020C2344AA
:101100008CE7B8459BD9023D274499E70346DEE7C3
:101110009046C7E7023821443AE700BF0FB480B4D5
:1011200000AF00231846BD465DF8047B04B070474D
:1011300080B483B000AF786039603B685A687B68E0
:101140005A603B689A687B689A603B68DA687B689B
:10115000DA603B681A697B681A613B685A697B6888
:101160005A617B6818460C37BD465DF8047B7047B2
:1011700080B582B000AF786039607A683B6810460D
:101180001946FFF7D5FF3B689A697B689A617B68CF
:1011900018460837BD4680BD90B58DB002AF786067
:1011A0007B681B7883F00103DBB2002B07D17B68DF
:1011B00004331846FFF7B2FF0346002B01D1012389
:1011C00000E00023002B15D07B681C1D07F10C03E9
:1011D0001846202103F068FE07F10C03204619464B
:1011E000FFF7C6FF7B680433184601210122012363
:1011F00003F08EFE7B6801221A707B68202283F840
:1012000020207B68572283F821207B6820337A686E
:10121000233200920122019239481D211A460223ED
:1012200004F064FB02467B681A637B681B6B002B2F
:1012300003DA344803F0EEFB5FE07B68242283F896
:1012400020207B68C02283F821207B6820337A68C5
:10125000233200920122019229481D211A460223BD
:1012600004F044FB02467B681A637B681B6B002B0F
:1012700003DA244803F0CEFB3FE07B680F2283F8BB
:1012800020207B6820337A68233200920122019269
:101290001B481D211A46012304F028FB02467B68E7
:1012A0001A637B681B6B002B04DB7B6893F823308D
:1012B000492B03D0144803F0ADFB1EE07B680022ED
:1012C000A3F842207B680022A3F844207B68002218
:1012D000A3F846207B680022A3F84E207B680022FA
:1012E000A3F850207B680022A3F852207B680022DC
:1012F00083F83A20054803F08DFB2C37BD4690BD9E
:101300000C0A002040FD000858FD000870FD000890
:1013100080B584B002AF78607B6823331846002123
:10132000062202F02BFC7B682033184600210322A2
:1013300002F024FC7B68A82283F820207B682033FD
:101340007A68233200920622019251481D211A46E2
:10135000012304F0CBFA02467B681A637B681B6B9F
:10136000002B09DA4B4803F055FB7B682333184602
:101370000021062202F002FC7B6893F824301B0255
:101380009AB27B6893F8233013439BB29AB27B687E
:101390009A877B6893F826301B029AB27B6893F891
:1013A000253013439BB29AB27B68DA877B6893F847
:1013B00028301B029AB27B6893F8273013439BB204
:1013C0009AB27B68A3F840207B68882283F82020AB
:1013D0007B6820337A6823320092062201922C48DF
:1013E0001D211A46012304F081FA02467B681A6324
:1013F0007B681B6B002B09DA274803F00BFB7B682B
:10140000233318460021062202F0B8FB7B6893F8CC
:1014100024301B029AB27B6893F8233019467B680C
:10142000B3F84E30CB1A9BB29BB213439BB29AB225
:101430007B68A3F848207B6893F826301B029AB299
:101440007B6893F8253019467B68B3F85030CB1A87
:101450009BB29BB213439BB29AB27B68A3F84A201B
:101460007B6893F828301B029AB27B6893F8273088
:1014700019467B68B3F85230CB1A9BB29BB2134328
:101480009BB29AB27B68A3F84C200837BD4680BD5A
:101490000C0A002080FD0008B0FD000880B485B073
:1014A00000AFF86079813A81FB80FB687A89A3F804
:1014B0004220FB683A89A3F84420FB68FA88A3F825
:1014C0004620FB68012283F83A201437BD465DF8B8
:1014D000047B704780B485B000AFF86079813A81B1
:1014E000FB80FB687A89A3F84E20FB683A89A3F851
:1014F0005020FB68FA88A3F85220FB68012283F889
:101500003A201437BD465DF8047B704780B483B041
:1015100000AF78607B689A8F7B68B3F84230D31A4B
:101520009BB218460C37BD465DF8047B704700BF80
:1015300080B483B000AF78607B68DA8F7B68B3F8E3
:101540004430D31A9BB218460C37BD465DF8047B75
:10155000704700BF80B483B000AF78607B68B3F899
:1015600040207B68B3F84630D31A9BB218460C373C
:10157000BD465DF8047B704780B483B000AF7860EF
:101580007B68B3F848207B68B3F84E30D31A9BB21F
:1015900018460C37BD465DF8047B704780B483B0B5
:1015A00000AF78607B68B3F84A207B68B3F85030AE
:1015B000D31A9BB218460C37BD465DF8047B7047C2
:1015C00080B483B000AF78607B68B3F84C207B6850
:1015D000B3F85230D31A9BB218460C37BD465DF8AB
:1015E000047B704780B483B000AF78607B68B3F849
:1015F000423018460C37BD465DF8047B704700BF8B
:1016000080B483B000AF78607B68B3F8443018468C
:101610000C37BD465DF8047B704700BF80B483B0D3
:1016200000AF78607B68B3F8463018460C37BD468B
:101630005DF8047B704700BF80B483B000AF786072
:101640007B68B3F84E3018460C37BD465DF8047B16
:10165000704700BF80B483B000AF78607B68B3F898
:10166000503018460C37BD465DF8047B704700BF0C
:1016700080B483B000AF78607B68B3F8523018460E
:101680000C37BD465DF8047B704700BF80B582B063
:1016900000AF78607B680A4A1A600A4802F0C2F913
:1016A0007B680433184602F03DFA0023002B02D079
:1016B000786802F015FB7B6818460837BD4680BD88
:1016C000400A0108E0FD000880B582B000AF7860F4
:1016D0007868FFF7DBFF786802F002FB7B6818464A
:1016E0000837BD4680BD00BF80B584B000AFF8604C
:1016F000B9607A60FB681846B96864224FF4FA63EF
:1017000009F006FEFB68074A1A60F968D7E9062364
:10171000C1E91623FB687A681A65FB68184610371A
:10172000BD4680BD280A010880B582B000AF786050
:101730007B681B6D18464FF4E13105F0A1FF0837B7
:10174000BD4680BD80B5C8B002AF3B1D1860002308
:10175000C7F814313B1D19683B1D1B68D3E91623DC
:10176000CDE9002308464FF000024FF0000302F0DD
:1017700075FB2FE03B1D1B681B6D1B6818331B6836
:101780003A1D1268126D104698470346002B21D06F
:101790003B1D1B681A6D07F10803104619464FF4EC
:1017A000807205F0CDFFC7F81401391D07F108025A
:1017B00007F5847308681146D7F8142100F018F86B
:1017C0000346002B06D007F584730848194601220A
:1017D00000F050F83B1D1B68184602F055FB012332
:1017E000002BC7D107F58C77BD4680BDE0080020EF
:1017F00080B584B000AFF860B9607A603B607B6808
:10180000062B07DCB86802F09BF90346062B01D8CB
:10181000002311E03B6818460949BA680AF072FDD6
:101820003B689968BB689A1D7B68063B0846114671
:101830001A4602F0EFF9012318461037BD4680BD65
:10184000F0FD000880B584B000AFF860B9607A6040
:10185000FB681846B9680C227B6802F0EBFBFB685A
:10186000034A1A60FB6818461037BD4680BD00BFAA
:10187000180A010880B584B000AFF860B96013465B
:10188000FB71FA68FB791046B9681A46002302F02A
:1018900041FC034618461037BD4680BD80B582B076
:1018A00000AF78607B68084A1A607B68184609F0C8
:1018B0009DFD0023002B02D0786802F011FA7B68AE
:1018C00018460837BD4680BD280A010880B582B099
:1018D00000AF78607868FFF7E1FF786802F000FAFF
:1018E0007B6818460837BD4680BD00BF80B582B012
:1018F00000AF786039607B68012B0FD13A684FF6F2
:10190000FF739A420AD107484FF0FF31064AFFF7AA
:1019100099FF04480549064A0AF0EAFC0837BD4623
:1019200080BD00BFE008002020FE00083519000837
:101930008C0F002080B582B000AF78607B680A4AC7
:101940001A600A4802F06EF87B681846FFF79EFEA0
:101950000023002B02D0786802F0C2F97B68184699
:101960000837BD4680BD00BF180A010824FE0008E4
:1019700080B582B000AF78607868FFF7DBFF7868E9
:1019800002F0AEF97B6818460837BD4680BD00BF3F
:1019900080B500AF01204FF6FF71FFF7A7FF80BDB4
:1019A00090B58BB000AF78607B681B7883F0010343
:1019B000DBB2002B07D17B6808331846FFF7AEFB7C
:1019C0000346002B01D1012300E00023002B16D099
:1019D0007B6803F1080407F10C031846122103F099
:1019E00063FA07F10C0320461946FFF7C1FB7B6839
:1019F0000833184601210122012303F089FA7B688C
:101A000001221A707B68202283F824207B680F2231
:101A100083F825207B6824333E486B211A46022335
:101A200003F030FF0346DB0FDBB2002B03D0394855
:101A3000394903F047FE7B68212283F824207B6824
:101A4000002283F825207B68243332486B211A4614
:101A5000022303F017FF0346DB0FDBB2002B03D09A
:101A60002C482D4903F02EFE7B68222283F8242087
:101A70007B68882283F825207B68243325486B21E6
:101A80001A46022303F0FEFE0346DB0FDBB2002BF7
:101A900003D02048204903F015FE7B68232283F8F9
:101AA00024207B68002283F825207B682433194892
:101AB0006B211A46022303F0E5FE0346DB0FDBB27F
:101AC000002B03D01348144903F0FCFD7B6824224B
:101AD00083F824207B68002283F825207B68243348
:101AE0000C486B211A46022303F0CCFE0346DB0FA1
:101AF000DBB2002B03D00748074903F0E3FD786809
:101B0000022100F00DF8054802F084FF2C37BD4695
:101B100090BD00BF0C0A0020A086010034FE000822
:101B200080B483B000AF78600B46FB70FB78012B6C
:101B300007D0022B09D0002B0BD17B68074A5A60D3
:101B400007E07B68064A5A6003E07B68054A5A60F2
:101B500000BF0C37BD465DF8047B70470000F53BC5
:101B600000007A3C00007A3D80B485B000AFF86098
:101B700079813A81FB80FB687A89A3F84420FB686D
:101B80003A89A3F84620FB68FA88A3F8482014375E
:101B9000BD465DF8047B704780B584B002AF7860C5
:101BA0007B68273318460021062201F0E7FF7B6897
:101BB000243318460021032201F0E0FF7B68A822AD
:101BC00083F824207B6824337A6827320092062227
:101BD00001922C486B211A46012303F087FE02462E
:101BE0007B685A637B685B6B002B09DA264802F03E
:101BF00011FF7B68273318460021062201F0BEFF43
:101C00007B6893F828301B029AB27B6893F82730E0
:101C100019467B68B3F84430CB1A9BB29BB213438E
:101C20009BB29AB27B68DA877B6893F82A301B02F2
:101C30009AB27B6893F8293019467B68B3F846302E
:101C4000CB1A9BB29BB213439BB29AB27B68A3F8A8
:101C500040207B6893F82C301B029AB27B6893F883
:101C60002B3019467B68B3F84830CB1A9BB29BB235
:101C700013439BB29AB27B68A3F842200837BD4653
:101C800080BD00BF0C0A002094FE000880B483B021
:101C900000AF78607B68DA8F7B68B3F84430D31A82
:101CA0009BB218460C37BD465DF8047B704700BFF9
:101CB00080B483B000AF78607B68B3F840207B6865
:101CC000B3F84630D31A9BB218460C37BD465DF8C0
:101CD000047B704780B483B000AF78607B68B3F852
:101CE00042207B68B3F84830D31A9BB218460C37B1
:101CF000BD465DF8047B704780B483B000AF786068
:101D00007B68B3F8443018460C37BD465DF8047B59
:101D1000704700BF80B483B000AF78607B68B3F8D1
:101D2000463018460C37BD465DF8047B704700BF4F
:101D300080B483B000AF78607B68B3F84830184651
:101D40000C37BD465DF8047B704700BF80B582B09C
:101D500000AF78607B6808331846002103F0A4F8D0
:101D60007B6818460837BD4680BD00BF80B582B08D
:101D700000AF78607B6804331846002103F094F8C4
:101D80007B6818460837BD4680BD00BF80B584B06B
:101D900000AFF860B960C7E90023FB681846B9686E
:101DA00064224FF4FA6309F0B3FAFB68104A1A6030
:101DB000FB6858331846002103F076F8FB6874334B
:101DC0001846002103F070F8FB6890331846FFF7BF
:101DD000BDFFFB68DC331846FFF7C8FFF968D7E999
:101DE0000023C1E91423FB6818461037BD4680BDA7
:101DF000700A010880B582B000AF786039603B6836
:101E00001A787B681A703B685A687B685A607B68EE
:101E100003F108023B68083310461946FFF7A8F99A
:101E20007B683A68243324321268114619800233E1
:101E3000120C1A707B683A682733273211681960D0
:101E400092889A807B683A682E332E321168196026
:101E500092889A807B683A683433343292E803007F
:101E600083E803003B689A8F7B689A873B68DA8F28
:101E70007B68DA873B68B3F840207B68A3F8402092
:101E80003B68B3F842207B68A3F842203B68B3F874
:101E900044207B68A3F844203B68B3F846207B6865
:101EA000A3F846203B68B3F848207B68A3F8482095
:101EB0007B6818460837BD4680BD00BF80B582B03C
:101EC00000AF786039603B681A787B681A707B686D
:101ED0001A1D3B68043310461946FFF749F97B6821
:101EE0003A68203320321268114619800233120CEE
:101EF0001A707B683A68233323321168196092881C
:101F00009A807B683A682A332A321168196092886D
:101F10009A807B683A683033303292E8030083E875
:101F200003003B681A8F7B681A873B6893F83A2056
:101F30007B6883F83A203B689A8F7B689A873B6876
:101F4000DA8F7B68DA873B68B3F840207B68A3F8B8
:101F500040203B68B3F842207B68A3F842203B68EE
:101F6000B3F844207B68A3F844203B68B3F84620CC
:101F70007B68A3F846203B68B3F848207B68A3F849
:101F800048203B68B3F84A207B68A3F84A203B68A6
:101F9000B3F84C207B68A3F84C203B68B3F84E2084
:101FA0007B68A3F84E203B68B3F850207B68A3F809
:101FB00050203B68B3F852207B68A3F852203B685E
:101FC000B3F854207B68A3F854207B681846083780
:101FD000BD4680BD90B5B5B000AF78607B6803F1B9
:101FE000580407F10C031846372102F05DFF07F192
:101FF0000C0320461946FFF7BBF87B685833184698
:1020000001210122012302F083FF2548254903F025
:1020100059FBC7F8CC00D7F8CC30002B03D12248AD
:1020200002F0F8FC02E0214802F0F4FC7B6803F1C6
:10203000900407F128024C23104600211A4601F0B3
:102040009DFD07F128031846FFF780FE07F12803DE
:1020500020461946FFF7CEFE7B6890331846FFF7FF
:102060009FFC7B6803F1DC0407F1740258231046DF
:1020700000211A4601F082FD07F174031846FFF7AC
:1020800075FE07F1740320461946FFF717FF7B68BA
:10209000DC331846FFF780F8D437BD4690BD00BF4B
:1020A0000C0A0020A0860100D4FE0008F8FE0008FB
:1020B000B0B58CB000AF78600023FB620023BB6238
:1020C00000237B6200233B620023FB610023BB6192
:1020D00000237B6100233B610023FB600023FB7234
:1020E0006AE07B6890331846FFF756FD7B689033B3
:1020F0001846FFF7CBFD0346FA6A1344FB627B6880
:1021000090331846FFF7D4FD0346BA6A1344BB6206
:102110007B6890331846FFF7DDFD03467A6A134467
:102120007B627B68DC331846FFF7F2F87B68DC33B0
:102130001846FFF7EBF903463A6A13443B627B68A3
:10214000DC331846FFF7F4F90346FA691344FB61E0
:102150007B68DC331846FFF7FDF90346BA69134480
:10216000BB617B68DC331846FFF706FA03467A69E1
:1021700013447B617B68DC331846FFF70FFA034694
:102180003A6913443B617B68DC331846FFF718FA61
:102190000346FA681344FB6001F0E0FE5A4A4FF030
:1021A0000003121843EB010310461946002209F000
:1021B000FFF9FB7A0133FB72FB7A632B91D97B68C1
:1021C00003F19000FB6A514A82FB03125211DB17A4
:1021D000D31A99B2BB6A4D4A82FB03C25211DB1774
:1021E000D31A9AB27B6A494C84FB03C46411DB178F
:1021F000E31A9BB2FFF7B8FC7B6803F1DC003B6A93
:10220000424A82FB03125211DB17D31A99B2FB69BF
:102210003E4A82FB03C25211DB17D31A9AB2BB6942
:102220003A4C84FB03C46411DB17E31A9BB2FFF73B
:1022300035F97B6803F1DC007B69344A82FB0312C9
:102240005211DB17D31A99B23B69304A82FB03C2A1
:102250005211DB17D31A9AB2FB682C4C84FB03C4CF
:102260006411DB17E31A9BB2FFF734F97B689033F4
:102270001846FFF741FD03461D467B68903318461C
:10228000FFF748FD03461C467B6890331846FFF76E
:102290004FFD03461E482946224602F0BBFB7B68E1
:1022A000DC331846FFF79EF903461D467B68DC3396
:1022B0001846FFF7A5F903461C467B68DC33184631
:1022C000FFF7ACF9034613482946224602F0A2FB69
:1022D0007B68DC331846FFF7AFF903461D467B6881
:1022E000DC331846FFF7B6F903461C467B68DC333F
:1022F0001846FFF7BDF9034607482946224602F073
:1023000089FB3037BD46B0BD809698001F85EB51E4
:102310003CFF000858FF000874FF000880B584B037
:1023200000AFF860C7E90023F968D7E90023C1E9E5
:102330001423FB68D3E91423024802F06BFB103727
:10234000BD4680BD90FF000880B588B000AF7860C2
:102350007868FFF7ADFE01F001FE02460B4610461D
:1023600019467B68D3E91423121843EB0103104686
:102370001946002209F01CF97B6890331846FFF7D4
:102380000BFC7B6890331846FFF780FC03469BB23A
:102390003B837B6890331846FFF78AFC03469BB269
:1023A0007B837B6890331846FFF794FC03469BB20F
:1023B000BB83394B1B78002B08D03B8B19B27B8B2E
:1023C0001AB2BB8B1BB2354802F024FB7B68DC33AE
:1023D0001846FEF79DFF7B68DC331846FFF796F83A
:1023E00003469BB23B827B68DC331846FFF7A0F8BC
:1023F00003469BB27B827B68DC331846FFF7AAF862
:1024000003469BB2BB82244B1B78002B08D03B8A2F
:1024100019B27B8A1AB2BB8A1BB2214802F0FAFABF
:102420007B68DC331846FFF7A7F803469BB23B8175
:102430007B68DC331846FFF7B1F803469BB27B811B
:102440007B68DC331846FFF7BBF803469BB2BB81C1
:10245000114B1B78002B08D03B8919B27B891AB22B
:10246000BB891BB20F4802F0D5FA07F110030E48E2
:102470001946012200F04EF807F118030B481946DF
:10248000012200F047F807F1080309481946012224
:1024900000F040F85FE700BFE00D0020ACFF00084F
:1024A000BCFF0008CCFF0008040900204C090020F4
:1024B0002809002080B584B000AFF860B9607A6068
:1024C000FB681846B96806227B6801F0B3FDFB681B
:1024D000034A1A60FB6818461037BD4680BD00BF2E
:1024E000600A010880B584B000AFF860B9607A6016
:1024F000FB681846B96801227B6801F09BFDFB6808
:10250000034A1A60FB6818461037BD4680BD00BFFD
:10251000500A010880B584B000AFF860B960134676
:10252000FB71FA68FB791046B9681A46002301F07E
:10253000F1FD034618461037BD4680BD80B582B018
:1025400000AF78607B68084A1A607B68184608F01C
:102550004DFF0023002B02D0786801F0C1FB7B689F
:1025600018460837BD4680BD700A010880B582B0A4
:1025700000AF78607868FFF7E1FF786801F0B0FBA2
:102580007B6818460837BD4680BD00BF80B582B065
:1025900000AF786039607B68012B30D13A684FF624
:1025A000FF739A422BD117484FF0FF31164AFFF7BD
:1025B00081FF14481549164A09F09AFE15484FF054
:1025C000FF31154AFFF776FF12481049104A09F00B
:1025D0008FFE12484FF0FF31114AFFF76BFF0F4893
:1025E0000A490B4A09F084FE0E484FF0FF310E4AAB
:1025F000FFF778FF0B480D49054A09F079FE0837C7
:10260000BD4680BD04090020DCFF00088D260008BF
:102610008C0F002028090020ECFF00084C09002046
:10262000FCFF0008700900200400010831260008A2
:1026300080B582B000AF78607B680A4A1A600A48A9
:1026400001F0F0F97B681846FFF720F80023002B13
:1026500002D0786801F044FB7B6818460837BD4615
:1026600080BD00BF500A01081000010880B582B08B
:1026700000AF78607868FFF7DBFF786801F030FB27
:102680007B6818460837BD4680BD00BF80B582B064
:1026900000AF78607B680A4A1A600A4801F0C2F904
:1026A0007B681846FEF7F2FF0023002B02D0786803
:1026B00001F016FB7B6818460837BD4680BD00BF99
:1026C000600A01081000010880B582B000AF786090
:1026D0007868FFF7DBFF786801F002FB7B6818463B
:1026E0000837BD4680BD00BF80B500AF01204FF662
:1026F000FF71FFF74BFF80BD80B584B000AFF8607D
:10270000B9607A60FB681846174964224FF4FA638F
:1027100008F0FEFDFB68154A1A60FB687A681A65C6
:10272000D7E906230CA1D1E90001994208BF9042E4
:1027300006D3F9680AA3D3E90023C1E9162304E00C
:10274000F968D7E90623C1E91623FB681846103754
:10275000BD4680BDAFF30080FFE0F505000000003E
:1027600000E1F5050000000030000108980A0108AA
:1027700080B58AB002AF78607B681B6D184625492A
:1027800002F0A0FFF861FB69002B03D1224802F0A0
:1027900041F902E0214802F03DF900233B75032393
:1027A0007B7500233B747B681A6D07F1140307F1F6
:1027B0001001009101210191104629211A4602239E
:1027C00003F094F8B8611648B96902F023F93B7C2C
:1027D0001A463B7C032B14BF00230123DBB21148B4
:1027E0001146032202F016F981233B7300237B7309
:1027F0007B681A6D07F10C03104629211A46022343
:1028000003F040F8B8610848B96902F003F92037CD
:10281000BD4680BDA086010040000108600001089F
:102820007000010898000108C000010880B58CB054
:1028300002AF78600023FB6100233B6200233B83EF
:102840000023BB820023FB840023BB84AC233B74A6
:10285000AE233B730023BB6079687B68D3E9162302
:10286000CDE9002308464FF000024FF0000301F0CD
:10287000F5FA5BE07B681A6D07F1100307F11801A8
:10288000009102210191104629211A46012303F0EB
:102890002DF80346FB617B681A6D07F10C0307F105
:1028A0001401009102210191104629211A460123A9
:1028B00003F01CF803463B623B6A002B28DDFB69F2
:1028C000002B25D03B7E1B029AB27B7E1344FB84F7
:1028D0003B7D1B029AB27B7D1344BB84FA8CBB8C7C
:1028E000786811461A4600F035F80346BB6007F1D8
:1028F000080313481946012200F0D4F8114B1B7845
:10290000002B04D0BB681048194602F083F80DE094
:102910000C4B1B78002B09D00C4802F07BF8FA69AD
:102920003B6A0B4811461A4602F074F87B68184659
:1029300001F0AAFA0123002B9CD12837BD4680BDA7
:1029400094090020E00D0020E0000108EC000108DF
:102950000C01010880B48DB000AF786013460A46C0
:102960007A803B8047F217533B627B883A6A02FBCE
:1029700003F39B0AFB613B883A6A02FB03F39B0A61
:10298000BB610023FB62FB69002B05D0BB699A0287
:10299000FB69B2FBF3F3FB62FB6A01335B087B610B
:1029A0007B69432B06D84FF40173BB6240F2AD1331
:1029B0007B6247E07B69852B06D84FF40A73BB62C4
:1029C00040F2C1237B623DE07B69C82B06D840F210
:1029D0005323BB6240F263337B6233E07B69B3F520
:1029E000857F06D840F28223BB6240F2DF337B62F0
:1029F00028E07B69B3F5A77F06D240F27713BB626C
:102A000040F2DD137B621DE07B69B3F5CD7F06D814
:102A100040F20113BB6240F227137B6212E07A6935
:102A200040F29A239A4204D83723BB622B237B625D
:102A300008E07A6940F29A239A4203D90023BB62E4
:102A400000237B62FB69BA6A02FB03F2BB69796A05
:102A500001FB03F3D31A3B613B6903F500533B6170
:102A60003B699B0BFB60FB6818463437BD465DF83D
:102A7000047B704780B584B000AFF860B9607A60BD
:102A8000FB681846B96804227B6801F0D3FAFB683A
:102A9000034A1A60FB6818461037BD4680BD00BF68
:102AA000880A010880B584B000AFF860B9601346A9
:102AB000FB71FA68FB791046B9681A46002301F0E9
:102AC00029FB034618461037BD4680BD80B582B04D
:102AD00000AF78607B68084A1A607B68184608F087
:102AE00085FC0023002B02D0786801F0F9F87B68A0
:102AF00018460837BD4680BD980A010880B582B0E7
:102B000000AF78607868FFF7E1FF786801F0E8F8D7
:102B10007B6818460837BD4680BD00BF80B582B0CF
:102B200000AF786039607B68012B0FD13A684FF6AF
:102B3000FF739A420AD107484FF0FF31064AFFF768
:102B400099FF04480549064A09F0D2FB0837BD46FB
:102B500080BD00BF9409002044010108652B0008D6
:102B60008C0F002080B582B000AF78607B680A4A85
:102B70001A600A4800F056FF7B681846FEF786FD8B
:102B80000023002B02D0786801F0AAF87B68184671
:102B90000837BD4680BD00BF880A01085001010802
:102BA00080B582B000AF78607868FFF7DBFF7868A7
:102BB00001F096F87B6818460837BD4680BD00BF17
:102BC00080B500AF01204FF6FF71FFF7A7FF80BD72
:102BD00080B582B000AF78607B680A4A1A600A4804
:102BE00000F020FF7B680433184600F09BFF0023B1
:102BF000002B02D0786801F073F87B68184608371C
:102C0000BD4680BD780B01086001010880B582B027
:102C100000AF78607868FFF7DBFF786801F060F854
:102C20007B6818460837BD4680BD00BF80B582B0BE
:102C300000AF78607B68084A1A607B68184608F025
:102C4000D5FB0023002B02D0786801F049F87B689F
:102C500018460837BD4680BDB00A010880B582B06D
:102C600000AF78607868FFF7E1FF786801F038F826
:102C70007B6818460837BD4680BD00BF80B582B06E
:102C800000AF78607B680C4A1A607B680B4A1A6553
:102C90007B6850331846FFF79BFF7B68184608F0A7
:102CA000A5FB0023002B02D0786801F019F87B689F
:102CB00018460837BD4680BDE00A0108FC0A010835
:102CC000A0F15000FFF7DABF80B582B000AF7860A6
:102CD0007868FFF7D3FF786801F002F87B68184640
:102CE0000837BD4680BD00BFA0F15000ECE700BF33
:102CF00080B584B002AF786039607B68012B5BD10E
:102D00003A684FF6FF739A4256D13148314940F242
:102D1000D17200F057FD2E482F49304A09F0E8FAE9
:102D20002F48032104F038FA2E48032102F0E2FB79
:102D30002D48022102F0DEFB2C482D4920A3D3E9C7
:102D40000023FFF723F829482A49244A09F0D0FA3A
:102D50001DA3D3E90023CDE9002327482749204AB2
:102D6000FEF7C2FC244826491C4A09F0C1FA16A302
:102D7000D3E90023CDE9002322482349194AFFF76C
:102D8000BBFC20482149154A09F0B2FA20482149E4
:102D900000F01AF91E482049104A09F0A9FA1C4B04
:102DA00000931E481E49114A164B00F095F91B4826
:102DB0001C490A4A09F09CFA0837BD4680BD00BF8D
:102DC00080F0FA020000000000E1F50500000000BC
:102DD000B809002074010108053800088C0F002094
:102DE000D4090020F00900200C0A0020280A002045
:102DF000800101083D250008600B002084010108C6
:102E00009D180008C00B002090010108CD2A000881
:102E1000200C00209C0101082D2C0008780C0020BB
:102E2000A80101087D2C000880B500AF01204FF6F5
:102E3000FF71FFF75DFF80BD80B582B000AF7860A5
:102E4000124801210122012302F062F810480121F9
:102E50000122002302F05CF80E4800210122002329
:102E600002F056F80C4801210122002302F050F82C
:102E70000A484FF47A71642203F08AFA0748322133
:102E800003F0E8FE0837BD4680BD00BF080D0020F6
:102E9000240D0020400D00205C0D0020780D002046
:102EA00080B582B000AF78600448012102F03EF99D
:102EB000034B01221A700837BD4680BD5C0D00200F
:102EC000940D002080B582B000AF786006480021E4
:102ED00002F02CF9054B00221A70054801F09AFD0A
:102EE0000837BD4680BD00BF5C0D0020940D00205A
:102EF000B401010880B582B000AF78600B46FB706A
:102F0000FB78642B00D91DE0FB78002B02D1786898
:102F1000FFF7D8FF0D4B1B7883F00103DBB2002BCA
:102F200002D07868FFF7BCFFFB780948194603F028
:102F300091FE084B1B78002B04D0FB7806481946FD
:102F400001F068FD0837BD4680BD00BF940D00202C
:102F5000780D002000000020C001010880B582B07B
:102F600000AF786039607B68012B18D13A684FF662
:102F7000FF739A4213D10B48242101F095FF0A48B0
:102F8000112101F091FF09483C2101F08DFF084813
:102F9000422101F089FF07480C2103F0CFF90837DF
:102FA000BD4680BD080D0020240D0020400D0020EE
:102FB0005C0D0020780D002080B500AF01204FF699
:102FC000FF71FFF7CBFF80BD80B582B000AF7860A6
:102FD00039607B681846396864224FF4FA6308F058
:102FE00097F97B68034A1A607B6818460837BD4624
:102FF00080BD00BFB00A010880B582B000AF786024
:103000007B6850331846FFF717FF7B68503318462C
:10301000FFF746FF044B1B78002B02D0034801F05A
:10302000F9FC0837BD4680BD000000200002010801
:1030300080B582B000AF78604FF0FF306FF0004194
:10304000002208F0B5FAF7E780B582B000AF7860EB
:103050000B46FB707B6803F15002FB781046194663
:10306000FFF748FF0837BD4680BD00BF80B582B07E
:1030700000AF78607B68064A1A600023002B02D0FC
:10308000786800F02DFE7B6818460837BD4680BD85
:10309000180B010880B582B000AF78607868FFF740
:1030A000E5FF786800F01CFE7B6818460837BD46CF
:1030B00080BD00BF80B584B000AFF860B9607A60B1
:1030C0003B60044800F0AEFC002318461037BD46B4
:1030D00080BD00BF2402010880B584B000AFF86055
:1030E000B9607A603B60FB681846124964224FF46D
:1030F000FA6308F00DF9FB68503318460E49BA68B8
:1031000000F0F8FDFB680D4A1A60FB680C4A1A656E
:10311000FB687A68C3F88020FB683A68C3F88420AB
:10312000FB68BA69C3F88820FB6818461037BD46AB
:1031300080BD00BFAC020108E0080020E00A0108E1
:10314000FC0A010880B584B000AFF860B9607A600D
:103150003B600648396800F0A1F9FB68184608F0A2
:103160000BFA012318461037BD4680BD980D00208C
:10317000A0F15000FFF7E6BF80B483B000AF7860E5
:103180000C37BD465DF8047B704700BF80B586B044
:1031900000AF78604FF0FF306FF00041002208F080
:1031A00007FA07F10C030C48194600F0A5F907F1DE
:1031B0000C037868194600F011F8002307F1180293
:1031C0001A44002102F80C1C052B01D00133F5E74D
:1031D00000237B61DEE700BF980D00202DE9F04F52
:1031E00083B000AF78603960734B1B78002B07D039
:1031F0003A683B689B68714811461A4601F00AFC20
:10320000786839686E4A00F0F5F80346002B0ED056
:103210007B68D3F888403B689B68184609F06EF8D5
:103220000346DBB220461946FFF70EFFBFE0786881
:103230003968644A00F0DEF80346002B03D0624888
:1032400001F0E8FBB3E078683968604A00F0D2F832
:103250000346002B03D05C4801F0DCFBA7E0786854
:1032600039685B4A00F0C6F80346002B31D07B6812
:10327000D3F880603B689B68184609F03FF8034626
:1032800018464FEAE07102460B464FEA432B4BEAE1
:10329000D25B4FEA422A52465B465D0145EAD2655F
:1032A0005401A41A65EB0305241845EB01054FEA08
:1032B000851949EA94694FEA8418B8EB040869EB68
:1032C000050918EB000249EB01033046FFF726F829
:1032D0006DE0786839683F4A00F08CF80346002BAF
:1032E0000BD07B68D3F880301B680C331B687A687E
:1032F000D2F880201046984759E078683968364AF5
:1033000000F078F80346002B06D07B68D3F88030B5
:103310001846FEF7CDFE4AE0786839682F4A00F07B
:1033200069F80346002B0BD07B68D3F888301B6804
:103330000C331B687A68D2F888201046984736E02C
:1033400078683968264A00F055F80346002B0FD0FC
:1033500078683968234A00F063F80346002B03D0ED
:10336000214B01221A7022E01F4B00221A701EE02E
:10337000786839681D4A00F03DF80346002B0FD0ED
:1033800078683968174A00F04BF80346002B03D0E1
:10339000094B01221A700AE0074B00221A7006E05E
:1033A000054B1B78002B02D0114801F033FB0C3782
:1033B000BD46BDE8F08F00BF00000020BC02010840
:1033C000D4020108DC020108E4020108F00201084D
:1033D000F8020108000301080803010810030108AE
:1033E0001803010820030108E00D00202403010850
:1033F0002C03010880B584B000AFF860B9607A6032
:10340000BB681846796800F035FC0346002B14BFF2
:1034100000230123DBB218461037BD4680BD00BF34
:1034200080B584B000AFF860B9607A60BB689B6813
:103430001846796800F01EFC0346002B14BF0023D9
:103440000123DBB218461037BD4680BD80B483B07F
:1034500000AF78607B68044A1A607B6818460C37B6
:10346000BD465DF8047B7047180B010880B582B03B
:1034700000AF78607B681846FFF7E8FF7B68064A74
:103480001A607B6800225A647B6800221A647B6899
:1034900018460837BD4680BDC80A010880B584B00B
:1034A00000AF786039607B681B6C7868194600F063
:1034B00051F8F8607B685A6CFB689A4214BF00238D
:1034C0000123DBB2002B01D0002310E07B681A6CD3
:1034D000796813465B0013449B000B443A6804333D
:1034E00007CA83E807007B68FA681A640123184654
:1034F0001037BD4680BD00BF80B582B000AF786098
:1035000039607B685A6C7B681B6C9A4214BF00233D
:103510000123DBB2002B01D0002317E07B685A6C3B
:103520003968786813465B0013449B00C2180B4649
:10353000043207CA83E807007B685B6C7868194629
:1035400000F008F802467B685A64012318460837E1
:10355000BD4680BD80B483B000AF786039603B6801
:10356000032B02DC3B68013300E0002318460C37D4
:10357000BD465DF8047B704780B582B000AF7860CF
:103580007B68084A1A607B681846FFF76FFD0023C6
:10359000002B02D0786800F0A3FB7B681846083740
:1035A000BD4680BDC80A010880B582B000AF786012
:1035B0007868FFF7E1FF786800F092FB7B681846B7
:1035C0000837BD4680BD00BF80B582B000AF7860CF
:1035D00039607B68012B0CD13A684FF6FF739A4231
:1035E00007D10548FFF742FF03480449044A08F0A1
:1035F0007FFE0837BD4680BD980D00207935000854
:103600008C0F002080B584B000AFF860B9607A609C
:103610003B607B680C2B04D9064800F003FA0023BA
:1036200004E0F8683968FFF739FF03461846103799
:10363000BD4680BD4803010880B500AF01204FF6AC
:10364000FF71FFF7C1FF80BD80B582B000AF786029
:1036500039607B68012B10D13A684FF6FF739A42AC
:103660000BD107483C2101F01FFC06483D2101F029
:103670001BFC05483E2101F017FC0837BD4680BD04
:10368000E40D0020000E00201C0E002080B500AFCD
:1036900001204FF6FF71FFF7D7FF80BD80B584B0E2
:1036A00000AFF860B9607A60FB681846B96801221B
:1036B0007B6800F0BFFCFB68034A1A60FB68184691
:1036C0001037BD4680BD00BF300B010880B582B009
:1036D00000AF786039607B68012B0FD13A684FF6F4
:1036E000FF739A420AD1074848F20771064AFFF76A
:1036F000D5FF04480549064A08F0FAFD0837BD46DB
:1037000080BD00BF380E002068030108153700088F
:103710008C0F002080B582B000AF78607B680A4AC9
:103720001A600A4800F07EF97B681846FDF7AEFF84
:103730000023002B02D0786800F0D2FA7B6818468C
:103740000837BD4680BD00BF300B01087403010877
:1037500080B582B000AF78607868FFF7DBFF7868EB
:1037600000F0BEFA7B6818460837BD4680BD00BF32
:1037700080B500AF01204FF6FF71FFF7A7FF80BDB6
:1037800080B483B000AF78607B681B6818460C3744
:10379000BD465DF8047B704780B483B000AF7860AD
:1037A0007B685B6818460C37BD465DF8047B704744
:1037B00080B483B000AF78600C37BD465DF8047B01
:1037C000704700BF80B584B000AFF860B9607A6020
:1037D000FB68043318460949BA68002300F05AF917
:1037E000FB68074A1A60FB687A685A61FB68012225
:1037F0001A76FB6818461037BD4680BD5C0E002067
:10380000400B010880B582B000AF78607B680A4A3F
:103810001A600A4800F006F97B680433184600F085
:1038200081F90023002B02D0786800F059FA7B68F8
:1038300018460837BD4680BD400B010884030108C7
:1038400080B582B000AF78607868FFF7DBFF7868FA
:1038500000F046FA7B6818460837BD4680BD00BFB9
:1038600080B483B000AF78607B6801221A760C3791
:10387000BD465DF8047B704780B483B000AF7860CC
:103880007B6800221A760C37BD465DF8047B7047D2
:1038900080B485B000AFF860B9607A603B604FF0EB
:1038A000FF3318461437BD465DF8047B704700BFF0
:1038B00090B583B000AF154B1B68002B03D0134BA2
:1038C0001B68043B00E000237B6018E07B685C69B8
:1038D0007B6804331846FFF75FFF03460C48214618
:1038E0001A4600F059F87B6804331846FFF748FF82
:1038F0000346002B01D0043B00E000237B607B6883
:10390000002BE3D10C37BD4690BD00BF5C0E0020FC
:103910009803010880B582B000AF78607B68064AE2
:103920001A600023002B02D0786800F0D9F97B6878
:1039300018460837BD4680BD600B010880B582B0CF
:1039400000AF78607868FFF7E5FF786800F0C8F9A5
:103950007B6818460837BD4680BD00BF80B582B081
:1039600000AF78600B46FB7097F90330184607F0FC
:10397000E9F90837BD4680BD80B483B000AF7860F8
:103980007B68044A1A607B6818460C37BD465DF8B0
:10399000047B7047600B01080FB480B582B000AFA4
:1039A0001C4B1B68002B2FD03B461846FFF7E4FF4B
:1039B00007F114037B60184B1B68002B05D0164BD6
:1039C0001B681648194601F025F807F0A7FB0346C7
:1039D00083F00103DBB2002B05D03B461846396962
:1039E00000F0A6FD0AE00E4807F0E6FB3B4618464D
:1039F000396900F09DFD0A4807F03CFC07F0E4F946
:103A00003B461846FFF786FF0837BD46BDE88040B5
:103A100004B0704708000020600E0020B4030108C5
:103A2000640E002080B582B000AF7860074B7A68E2
:103A30001A6007487968FFF7AFFF064B1B685A1CEE
:103A4000044B1A600837BD4680BD00BF040000204B
:103A5000C8030108600E002080B582B000AF786016
:103A600039607B68012B07D13A684FF6FF739A42A1
:103A700002D1034807F088FB0837BD4680BD00BF70
:103A8000640E002080B500AF01204FF6FF71FFF7F4
:103A9000E3FF80BD80B584B000AFF860B9607A60A4
:103AA0003B60FB683A68DA60FB687A685A60084BEA
:103AB0001B68591C064A1160FA689360F868B96877
:103AC00000F008F8FB6818461037BD4680BD00BFFF
:103AD000740E002080B582B000AF786039603B681A
:103AE0001A687B681A603B687A681A600A4B1B6820
:103AF000002B0CBF00230123DBB2002B08D00748AA
:103B0000FFF790FF7B685B6805481946FFF744FFA5
:103B10000837BD4680BD00BF64210020F4030108C2
:103B20002804010880B582B000AF78600348FFF731
:103B300079FF7B6818460837BD4680BD4C040108F4
:103B400080B485B000AF78600023FB607B68002BF9
:103B500001D100230BE005E0FB680133FB607B68CB
:103B600001337B607B681B78002BF5D1FB6818461E
:103B70001437BD465DF8047B704700BF80B487B042
:103B800000AFF860B9607A60FB68002B01D1FB6878
:103B900010E0FB687B6109E0BB68DAB27B691A70F0
:103BA0007B6901337B617B68013B7B607B68002B19
:103BB000F2D1FB6818461C37BD465DF8047B7047A0
:103BC00080B487B000AFF860B9607A60FB687B6151
:103BD000BB683B617B69002B02D03B69002B01D1A4
:103BE000002311E00CE03B691A787B691A707B684E
:103BF000013B7B603B6901333B617B6901337B6146
:103C00007B68002BEFD1FB6818461C37BD465DF87A
:103C1000047B704780B487B000AFF860B9607A6009
:103C2000FB687B617B69002B02D0BB68002B01D154
:103C3000002319E011E0BB681A787B691A70BB6831
:103C40001B78002B00D10BE0BB680133BB607B69A4
:103C500001337B617B68013B7B607B68002BEAD191
:103C60007B6900221A70FB6818461C37BD465DF858
:103C7000047B704780B485B000AF786039607B68A2
:103C8000002B07D13B68002B01D1002301E04FF04E
:103C9000FF331FE03B68002B01D101231AE07B6852
:103CA0005A1C7A601B78FB733B685A1C3A601B787D
:103CB000BB73FA7BBB7B9A4202D24FF0FF3309E021
:103CC000FA7BBB7B9A4201D9012303E0FB7B002BEB
:103CD000E5D1002318461437BD465DF8047B7047D4
:103CE00080B483B000AF78600C37BD465DF8047BCC
:103CF000704700BF80B584B000AFF860B9607A60EB
:103D0000FB68043318461049104A0023FFF7C2FE2F
:103D1000FB680F4A1A60FB68BA685A61FB68203377
:103D2000184607F031FAFB6800221A77FB68012277
:103D30005A77FB687A689A60FB6800229A61FB6890
:103D400018461037BD4680BD2822002074040108A3
:103D5000780B010880B485B000AFF860B9607A6074
:103D60003B60034B18461437BD465DF8047B704733
:103D700015CD5B0790B587B002AFF860B9607A6087
:103D80003B60FB685B7F83F00103DBB2002B01D05B
:103D900000233DE0FB682033184607F00DFAFB686E
:103DA0009B69002B0FD0FB689B691B6808331C685C
:103DB000FB689A697B68396A00911046B9681A46AF
:103DC0003B68A04718E0FB681B681C683B6A5B699E
:103DD0000093F868B9687A683B68A04702460E4BC2
:103DE0009A420CBF00230123DBB2002B04D00B4806
:103DF000FFF718FE01230BE0FB682033184607F09D
:103E000039FAFB689B69002B01D0012300E00023F5
:103E100018461437BD4690BD15CD5B0780040108D8
:103E200090B58DB002AFF860B9607A603B60FB6816
:103E30009B69002B0FD0FB689B691B6808331C68CB
:103E4000FB689A693B6807F1100100911046B96858
:103E50001A467B68A0472C37BD4690BD80B485B01C
:103E600000AFF860C7E90023F968D7E90023C1E98A
:103E70000E23F968D7E90623C1E910231437BD469C
:103E80005DF8047B704700BFB0B586B002AF7860C4
:103E900006E04FF0FF306FF00041002207F088FB92
:103EA0007B68D3E9102352EA0301F2D07B68D3E99F
:103EB0000E2310461946002207F07AFB00F04EF858
:103EC000C7E902017B68D3E90E017B68D3E91023BF
:103ED000D7E90245CDE9004500F04AF802460B4615
:103EE0007968C1E90E231037BD46B0BD80B584B0F6
:103EF00000AF786007F034FBF860F86807F016FB55
:103F0000B860F868796807F01DFBBB681846103781
:103F1000BD4680BD80B483B000AF786079684FF053
:103F200000024FF00003C1E9002379684FF000025E
:103F30004FF00003C1E9022379684FF000024FF00F
:103F40000003C1E904237B680F229A617B6818464D
:103F50000C37BD465DF8047B704700BF80B500AFED
:103F600006F032FE02460B461046194680BD00BFE1
:103F700080B584B000AFC7E90201C7E90023D7E9E3
:103F80000223D7E90601904271EB030C02DAD7E96C
:103F900002232CE0D7E9002352EA030104D14FF0B9
:103FA000FF326FF0004322E0D7E90601D7E9022390
:103FB000821A61EB030310461946D7E90023FCF788
:103FC00081FD02460B46013243F10003396803FBD1
:103FD00001F0796802FB01F101443868A0FB02237B
:103FE00019440B46D7E90201121843EB01031046AE
:103FF00019461037BD4680BD80B582B000AF7860ED
:1040000039607B68012B07D13A684FF6FF739A42FB
:1040100002D10348FFF77EFF0837BD4680BD00BFD1
:10402000780E002080B500AF01204FF6FF71FFF73A
:10403000E3FF80BD80B586B000AFF860B9607A60FC
:104040003B60FB68043318462E493A680023FFF7AB
:1040500021FDFB682C4A1A60FB6800225A61FB684C
:10406000BA68DA61FB687A681A62FB6800229A61B2
:10407000FB68DB69B3F1FF3F11D1386807F02EFD13
:1040800003461A46FB68DA61FB68DB69B3F57A7FA1
:1040900005DAFB68DB6903F57A72FB68DA61194BB4
:1040A0001B68002B03D0174B1B68043B00E0002368
:1040B0007B611EE07B69DA69BB689A420DD17A693F
:1040C000FB689A4209D01148FFF7ACFC7B699B68FA
:1040D0000F48B9683A68FFF75FFC7B6904331846FC
:1040E000FFF74EFB0346002B01D0043B00E000230A
:1040F0007B617B69002BDDD1FB6818461837BD4614
:1041000080BD00BF38220020400A0108E0040108F9
:10411000F404010880B586B002AFF860B9603B6076
:104120001346FB71FB681B6A1A46FB7939680091DC
:10413000F868B96800F006F8034618461037BD461F
:1041400080BD00BF90B591B002AFF860B9607A60F1
:10415000FB7000237B63BB6C002B12D100237B62BE
:10416000FFF7FCFE02460B46C7E9062307F0AAFD4F
:1041700003463B6107F0F4F903463B6207F1100385
:10418000BB64FB689B69002B0FD0FB689B691B68B5
:104190001C68FB689969FB68DA697B68B86C0090F9
:1041A000084611461A46BB68A047FB685B69002BAE
:1041B00003D0FB685B69043B00E000233B631DE028
:1041C0003B6B1B6804331C68FB68DA697B68B96C5D
:1041D0000091386B11461A46BB68A04703467A6BBC
:1041E00013447B633B6B04331846FFF7C9FA03465D
:1041F000002B01D0043B00E000233B633B6B002B12
:10420000DED1FB7883F00103DBB2002B01D07B6BA6
:104210002CE0184B5B69002B03D0164B5B69043B09
:1042200000E00023FB621DE0FB6A1B6804331C688E
:10423000FB68DA697B68B96C0091F86A11461A4626
:10424000BB68A04703467A6B13447B63FB6A043365
:104250001846FFF795FA0346002B01D0043B00E017
:104260000023FB62FB6A002BDED17B6B18463C37D8
:10427000BD4690BDB40E002080B582B000AF78601E
:104280007B680A4A1A600A48FFF7CCFB7B6818462D
:10429000FDF7FCF90023002B02D07868FFF720FD22
:1042A0007B6818460837BD4680BD00BFB80B0108C3
:1042B0006C05010880B582B000AF78607868FFF7C0
:1042C000DBFF7868FFF70CFD7B6818460837BD46B2
:1042D00080BD00BF80B584B000AFF860B9607A607F
:1042E000FB681846B9680C227B68FFF7A3FEFB68E1
:1042F000034A1A60FB6818461037BD4680BD00BFF0
:10430000B80B010880B584B000AFF860B9607A607E
:10431000FB681846B96840F22E527B68FFF78AFEA8
:10432000FB68034A1A60FB6818461037BD4680BD1B
:10433000A80B010880B584B000AFF860B9607A605E
:10434000FB681846B96804227B68FFF773FEFB68B8
:10435000034A1A60FB6818461037BD4680BD00BF8F
:10436000980B010880B582B000AF786039607B6837
:10437000012B4FD13A684FF6FF739A424AD1274832
:1043800027490A22FFF71EFA24482649264A07F041
:10439000AFFF26480021264AFFF79CFF2348254906
:1043A000214A07F0A5FF24484FF0FF31234AFFF7C9
:1043B000A9FF214822491C4A07F09AFF21484FF0E3
:1043C000FF31214AFFF7B6FF1E482049164A07F081
:1043D0008FFF1F484FF0FF311E4AFFF7ABFF1C480D
:1043E0001A49114A07F084FF1B484FF0FF311B4A5E
:1043F000FFF7A0FF184815490B4A07F079FF184846
:104400004FF0FF31174AFFF765FF15480949064A83
:1044100007F06EFF0837BD4680BD00BF980E002034
:104420007C050108053800088C0F0020B40E002020
:104430009005010879420008D80E0020A005010867
:10444000C5440008FC0E0020AC05010869440008C2
:10445000200F0020BC050108440F0020CC050108F6
:10446000680F0020E005010880B582B000AF7860D9
:104470007B680A4A1A600A48FFF7D4FA7B68184634
:10448000FDF704F90023002B02D07868FFF728FC21
:104490007B6818460837BD4680BD00BF980B0108F1
:1044A0006C05010880B582B000AF78607868FFF7CE
:1044B000DBFF7868FFF714FC7B6818460837BD46B9
:1044C00080BD00BF80B582B000AF78607B680A4ACB
:1044D0001A600A48FFF7A6FA7B681846FDF7D6F877
:1044E0000023002B02D07868FFF7FAFB7B681846A0
:1044F0000837BD4680BD00BFA80B01086C05010848
:1045000080B582B000AF78607868FFF7DBFF78682D
:10451000FFF7E6FB7B6818460837BD4680BD00BF45
:1045200080B500AF01204FF6FF71FFF71BFF80BD84
:1045300080B594B000AF7860396056E2002387F808
:104540004E30002387F84D30002387F84C3000238D
:1045500087F84B3097F84F30252B0AD07B681B68C3
:1045600008331B6897F84F2052B278681146984775
:104570003BE23B685A1C3A601B7887F84F300023B7
:1045800087F84330202387F84230032387F84130EF
:1045900097F84F30302B09D197F84F3087F84230D9
:1045A0003B685A1C3A601B7887F84F3097F84F30B9
:1045B0002F2B0ED997F84F30392B0AD897F84F3058
:1045C000303B87F843303B685A1C3A601B7887F8C9
:1045D0004F3097F84F302E2B10D13B685A1C3A6061
:1045E0001B7887F84F3097F84F30303B87F84130D1
:1045F0003B685A1C3A601B7887F84F3097F84F3069
:104600006C2B08D1012387F84D303B685A1C3A6067
:104610001B7887F84F3097F84F306C2B08D1012367
:1046200087F84C303B685A1C3A601B7887F84F304B
:1046300097F84F30623B162B38D801A151F823F080
:10464000394700089D46000823470008AD4600088A
:104650001D470008AD460008AD460008AD460008FD
:10466000AD460008AD460008AD460008AD4600085E
:10467000AD46000807470008AD460008AD460008F3
:10468000AD460008C3460008AD46000829470008AB
:10469000AD460008AD460008314700087B685B68FE
:1046A000191D7A6851601B6887F84F307B681B685A
:1046B00008331B6897F84F2052B278681146984724
:1046C00093E17B685B68191D7A6851601B687B64A5
:1046D00009E07B681B6808331B6897F84F2052B2CB
:1046E0007868114698477B6C5A1C7A641B7887F867
:1046F0004F3097F84F30002B0CBF00230123DBB263
:10470000002BE6D171E10823A7F848307B681B68CD
:1047100008331B6878683021984711E0012387F837
:104720004B30012387F84E300A23A7F8483007E0C2
:104730001023A7F8483003E00223A7F8483000BF51
:104740004FF000024FF00003C7E90C234FF00002C6
:104750004FF00003C7E90A2397F84B30002B15D020
:104760007B685B68073323F0070303F108017A686D
:104770005160D3E90023C7E90A23D7E90A01FCF70E
:10478000D3F902460B46C7E90C232CE097F84C30CE
:10479000002B0DD07B685B68073323F0070303F120
:1047A00008017A685160D3E90023C7E90C231AE0B5
:1047B00097F84D30002B0BD07B685B68191D7A6829
:1047C00051601B681A464FEAE273C7E90C230AE0FE
:1047D0007B685B68191D7A6851601B681A464FEA4E
:1047E000E273C7E90C2397F84E30002B2DD0D7E9A0
:1047F0000C23002A73F100010ADBD7E90A014FF00C
:1048000000024FF00003FCF7EDF80346002B1CD02C
:10481000D7E90C23524263EB4303C7E90C23BB6A7D
:10482000BB62FB6A83F00043FB627B681B68083352
:104830001B6878682D21984797F84330002B04D0E7
:1048400097F84330013B87F8433097F84C30002B02
:1048500004D0D7E90C23C7E90E2310E097F84D30B8
:10486000002B06D03B6B1A464FF00003C7E90E231E
:1048700005E03B6B1A464FF00003C7E90E2307F132
:104880000C031A337B647B6C013B7B647B6C0022E2
:104890001A70B7F848204FF00003D7E90E01FCF773
:1048A0002DF9D3B23033DBB287F8273097F92730B0
:1048B000392B05DD97F827300733DBB287F827302F
:1048C0007B6C013B7B6497F827207B6C1A70B7F8F0
:1048D00048204FF00003D7E90E01FCF70FF902461C
:1048E0000B46C7E90E2397F84330002B04D097F806
:1048F0004330013B87F84330D7E90E2352EA0301E6
:10490000C7D106E07B6C013B7B647B6C97F842204F
:104910001A7097F843305A1E87F84320002B0CBFBB
:1049200000230123DBB2002BECD109E07B681B687C
:1049300008331B6897F84F2052B2786811469847A1
:104940007B6C5A1C7A641B7887F84F3097F84F308D
:10495000002B0CBF00230123DBB2002BE6D197F81C
:104960004B30002B41D07B681B6808331B6878688C
:104970002E2198472DE0D7E90C01FBF793FD024665
:104980000B46D7E90A01FBF707FC02460B46C7E9CD
:104990000A23D7E90A014FF000021D4BFBF7B0FDD7
:1049A00002460B46C7E90A23D7E90A01FCF7BCF81F
:1049B00002460B46C7E90C237B681B6808331B685B
:1049C00097F830203032D2B2D2B252B27868114663
:1049D000984797F841305A1E87F84120002B0CBFAA
:1049E00000230123DBB2002BC5D13B685A1C3A607F
:1049F0001B7887F84F3097F84F30002B0CBF0023FF
:104A00000123DBB2002B7FF499AD5037BD4680BD4A
:104A1000000024400FB480B582B000AF0C4B1B687F
:104A2000002B0FD03B461846FEF7A6FF07F11403F4
:104A30007B603B4618463969FFF77AFD3B461846CE
:104A4000FEF768FF0837BD46BDE8804004B07047F8
:104A50000800002080B582B000AF0C4B7B6008E0FE
:104A60007B681B6898473B6801333B607B68043375
:104A70007B607A68064B9A42F2D13B6801333B6017
:104A80003B68013B3B600837BD4680BD0410010810
:104A90004410010880B485B000AFF860B9607A6056
:104AA000002318461437BD465DF8047B704700BFED
:104AB00080B400AFFEE700BF002100F004B8124B45
:104AC0005B58435004311148114B42189A42FFF48D
:104AD000F6AF104A00F003B8002342F8043B0E4B37
:104AE0009A42FFF4F9AF0D4A00F003B8002342F8F0
:104AF000043B0B4B9A42FFF4F9AF06F06BF9FFF75A
:104B0000A9FF07F0EFF970474410010800000020EA
:104B1000DC080020E008002084C200200000001013
:104B200000000010FFF7FEBF80B483B000AF7860D4
:104B300039603B6818460C37BD465DF8047B70470A
:104B40000FB480B400AF00231846BD465DF8047B67
:104B500004B070470FB480B400AF00231846BD46C0
:104B60005DF8047B04B070470FB480B400AF00233D
:104B70001846BD465DF8047B04B070470FB480B49E
:104B800000AF00231846BD465DF8047B04B07047B3
:104B90000FB480B400AF00231846BD465DF8047B17
:104BA00004B0704780B483B000AF7860012318462A
:104BB0000C37BD465DF8047B704700BF80B483B0FE
:104BC00000AF7860012318460C37BD465DF8047BC2
:104BD000704700BF80B483B000AF0346FB71084B41
:104BE00097F907205209F97901F01F01012000FA15
:104BF00001F143F822100C37BD465DF8047B704785
:104C000000E100E080B483B000AF0346FB71094BC4
:104C100097F907205209F97901F01F01012000FAE4
:104C200001F1603243F822100C37BD465DF8047B79
:104C3000704700BF00E100E080B500AF124B1B7869
:104C400083F00103DBB2002B1CD00F4B01221A7042
:104C50004FF48040012104F067FA0620FFF7BAFF05
:104C60000720FFF7B7FF0820FFF7B4FF0920FFF781
:104C7000B1FF0A20FFF7AEFF1720FFF7ABFF282098
:104C8000FFF7A8FF80BD00BFD00F002080B582B025
:104C900000AF7860F970BA707B707B68FA781A7030
:104CA0007B68BA781A727B687A785A72786800F0F2
:104CB0001FF8786800F052F87B680C33184603F050
:104CC00081FE7B685B891A467B68DA607B6802221A
:104CD0005A747B6800221A747B6800221A777B68FA
:104CE00000225A777B6818460837BD4680BD00BF52
:104CF00080B483B000AF78607B681B7A1A467B680B
:104D00001B7803F00F031344102B0BDD7B681B781B
:104D100003F00F034FF6FF7202FA03F39AB27B68B7
:104D20005A8116E07B681B7AC3F110034FF6FF72BD
:104D300042FA03F39AB27B685A817B685B891A4610
:104D40007B681B7803F00F0302FA03F39AB27B68C7
:104D50005A810C37BD465DF8047B704780B483B040
:104D600000AF78607B681B780F2B06D87B68364ACB
:104D70005A617B6801229A6160E07B681B781F2B77
:104D800006D87B68314A5A617B6802229A6155E0F5
:104D90007B681B782F2B06D87B682D4A5A617B686D
:104DA00004229A614AE07B681B783F2B06D87B6817
:104DB000284A5A617B6808229A613FE07B681B7829
:104DC0004F2B06D87B68244A5A617B6810229A616F
:104DD00034E07B681B785F2B06D87B681F4A5A61DA
:104DE0007B6820229A6129E07B681B786F2B06D8AC
:104DF0007B681B4A5A617B6840229A611EE07B688F
:104E00001B78DBB25BB2002B06DB7B68154A5A616C
:104E10007B6880229A6111E07B681B788B2B07D816
:104E20007B68114A5A617B684FF480729A6105E091
:104E30007B6800225A617B6800229A610C37BD466C
:104E40005DF8047B704700BF000002400004024090
:104E500000080240000C0240001002400014024012
:104E600000180240001C02400020024080B582B0C1
:104E700000AF78607B6801225A777B685B681B68AB
:104E800030331B687A68526810469847054B7A6839
:104E9000127802F00F02012101FA02F25A6108377A
:104EA000BD4680BD003C014090B583B000AF786046
:104EB0000B46FB707B68184606F062FE7B68134A5F
:104EC0001A60202007F07CF802467B689A617B68B4
:104ED0009B6920201946FFF727FE0446002C08D0C6
:104EE000FB782046194601220023FFF7CFFE234618
:104EF00000E023467A6893617B689B697A685A6010
:104F00007B6818460C37BD4690BD00BFC80B010832
:104F100080B584B000AFF8607A603B600B46FB72EE
:104F20007B68002B04D0FB689B697A68D2B21A7246
:104F3000FB689B69FA7A5A72FB689B691846FFF70F
:104F4000D7FEFB689B695B69002B02D14FF0FF33F2
:104F50001DE0FB689B699B691846012104F0A8F8D5
:104F6000FB689B695B7A002B09D0F868002101225D
:104F700000F012F8F868396800F0D8F804E0F86832
:104F80000021002200F008F8FFF756FE0023184623
:104F90001037BD4680BD00BF80B584B000AFF8605B
:104FA0000B467A60FB72FB7A042B00F29B8001A215
:104FB00052F823F0C94F0008095000085350000868
:104FC0008F500008CB5000087B68002B08D0FB688E
:104FD0009B6901225A72FB689B6901221A7407E0DF
:104FE000FB689B6900225A72FB689B6900221A7455
:104FF000FB689B695A69FB689B690C33104619462C
:1050000003F052FC00236FE07B68002B1ED07B680E
:10501000FF2B1BD8FB689B697A68D2B21A72FB68B7
:105020009B691846FFF764FEFB689B69FA68926902
:105030005289DA60FB689B695A69FB689B690C338B
:105040001046194603F030FC00234DE04FF0FF33CB
:105050004AE07B68002B17D07B68002B04D0FB68EC
:105060009B690122DA7403E0FB689B690022DA7411
:10507000FB689B695A69FB689B690C3310461946AB
:1050800003F012FC00232FE04FF0FF332CE07B688D
:10509000002B17D07B68002B04D0FB689B69022291
:1050A000DA7403E0FB689B690022DA74FB689B6991
:1050B0005A69FB689B690C331046194603F0F4FBF0
:1050C000002311E04FF0FF330EE07B68022B06D87F
:1050D000FB689B697A68D2B21A77002304E04FF02C
:1050E000FF3301E04FF0FF3318461037BD4680BD57
:1050F00080B582B000AF78607868002100F070F869
:10510000786800210022FFF747FF7B689B695B6995
:10511000184603F017FB7B689B699B6918460021C2
:1051200003F0C6FF0837BD4680BD00BF80B584B020
:1051300000AF7860396000237B817B689B695B7A74
:10514000002B3BD040F2EB30FEF7D0FE034601339C
:10515000FB6030E07B689B695B69184603F04CFCA0
:1051600003469AB27B689B695B899BB2DB439BB227
:1051700013409BB27B817B689B691B7803F00F0314
:105180003A6802FA03F39AB27B689B695B89134021
:105190009AB27B8913437B817B689B695A697B89BF
:1051A0001046194603F044FCFB68013B1846FEF725
:1051B0009DFE0023FB60FB68002BCBD11037BD4662
:1051C00080BD00BF80B483B000AF78607B689B690E
:1051D0005B7F18460C37BD465DF8047B704700BF07
:1051E00080B586B000AF78600B46FB707B689B692A
:1051F0001B781B09DBB27B617B689B691B7803F022
:105200000F033B613B69FB60FB78002B5DD0464B95
:10521000FA6853F822207B689B699A4200D17FE0AC
:10522000414BFA6853F82230002B4AD17B689B69C6
:105230001B7A012B03D93D48FEF7F4FB70E07B6934
:10524000DAB23B69DBB21046194604F01FF87B68FE
:105250009B691B7F012B04D07B689B691B7F002B04
:1052600008D1334B324A916801203A6900FA02F2C0
:105270000A439A607B689B691B7F022B04D07B6882
:105280009B691B7F002B08D1294B294AD16801203B
:105290003A6900FA02F20A43DA607B689969224BA4
:1052A000FA6843F822107B689B6900225A77204BEA
:1052B0001F4A116801203A6900FA02F20A431A6093
:1052C0002EE01C48FEF7AEFB2AE0174BFA6853F8B5
:1052D00022207B689B699A4222D1154B144A11689F
:1052E00001203A6900FA02F2D2430A401A60104BD8
:1052F0000F4A916801203A6900FA02F2D2430A404B
:105300009A600B4B0A4AD16801203A6900FA02F20E
:10531000D2430A40DA60044BFA68002143F82210B5
:105320001837BD4680BD00BF900F0020EC05010876
:10533000003C01401006010880B500AF064B1B6819
:10534000002B04D0044B1B681846FFF78FFD062086
:10535000FFF758FC80BD00BF900F002080B500AF64
:10536000064B5B68002B04D0044B5B681846FFF7C4
:105370007DFD0720FFF746FC80BD00BF900F002099
:1053800080B500AF064B9B68002B04D0044B9B6894
:105390001846FFF76BFD0820FFF734FC80BD00BF07
:1053A000900F002080B500AF064BDB68002B04D0C7
:1053B000044BDB681846FFF759FD0920FFF722FC74
:1053C00080BD00BF900F002080B500AF064B1B6969
:1053D000002B04D0044B1B691846FFF747FD0A2039
:1053E000FFF710FC80BD00BF900F002080B582B099
:1053F00000AF134B5B693B6005237B6017E03A68A5
:105400007B6822FA03F303F00103002B0CD00D4B51
:105410007A6853F82230002B06D00A4B7A6853F88A
:1054200022301846FFF722FD7B6801337B607B68E2
:10543000092BE4DD1720FFF7E5FB0837BD4680BDEB
:10544000003C0140900F002080B582B000AF134BAC
:105450005B693B600A237B6017E03A687B6822FA4D
:1054600003F303F00103002B0CD00D4B7A6853F8C3
:105470002230002B06D00A4B7A6853F822301846A7
:10548000FFF7F4FC7B6801337B607B680F2BE4DD66
:105490002820FFF7B7FB0837BD4680BD003C014020
:1054A000900F002080B483B000AF786000231846CE
:1054B0000C37BD465DF8047B704700BF80B483B0F5
:1054C00000AF78600B46FB707B68FA781A707B68D7
:1054D00018460C37BD465DF8047B704780B483B036
:1054E00000AF78607B6818460C37BD465DF8047BDA
:1054F000704700BF90B583B000AF78600B46FB707B
:105500007B68184606F03CFB7B68664A1A60FB78AD
:10551000002B01D10123FB70FB78032B01D903235E
:10552000FB70FB785A1E13465B0013441B015E4A56
:10553000134430201946FFF7F7FA0446002C06D032
:10554000FB7820461946FFF7B9FF234600E02346C3
:105550007A6893617B689B69012283F82C20FB7831
:10556000022B35D0032B65D0012B00D094E07B6853
:105570009B694E4A5A607B689B694FF400129A609F
:105580007B689B69042283F825207B689B69484AD5
:105590001A617B689B6902225A617B689B69402281
:1055A0009A817B689B6906221A767B689B69404AD0
:1055B000DA617B689B6902221A627B689B694FF4FF
:1055C00000725A837B689B69092283F8242063E078
:1055D0007B689B69374A5A607B689B694FF48002FD
:1055E0009A607B689B69042283F825207B689B690D
:1055F0002F4A1A617B689B6902225A617B689B690A
:105600004FF480629A817B689B690A221A767B68D4
:105610009B69274ADA617B689B6902221A627B6870
:105620009B694FF400625A837B689B690B2283F865
:10563000242031E07B689B691F4A5A607B689B6924
:105640004FF400029A607B689B69042283F825204E
:105650007B689B69194A1A617B689B6901225A61C0
:105660007B689B694FF480729A817B689B690822F2
:105670001A767B689B69124ADA617B689B6904220F
:105680001A627B689B694FF400725A837B689B693E
:10569000092283F8242000BF7B6818460C37BD46DA
:1056A00090BD00BF080C0108D40F0020005400403A
:1056B0000004024000580040005C0040000002402E
:1056C0000008024080B588B000AF786039607B6820
:1056D0001B6804331B68786898477B689B693A6845
:1056E0009A627B689B699B681846012103F0FEFC67
:1056F0007B689B695A697B689B691B6A13431846E0
:10570000012103F0D5FC7B689B6919697B689B6963
:105710001B7E1A467B689B6993F825300846114624
:105720001A4603F093F97B689B69D9697B689B698A
:1057300093F824301A467B689B6993F82530084615
:1057400011461A4603F082F97B689B699B89BB610D
:1057500002233B7700237B770123BB770023FB7772
:105760007B689B691A6907F118031046194603F014
:105770009BF87B689B695B8BBB617B689B69DA6983
:1057800007F118031046194603F08EF80023BB8179
:105790004BF6FF73FB817B689B69DB8C3B824FF48C
:1057A00080637B824FF48043BB827B689B699B6AEA
:1057B000BB607B689B695A6807F10803104619466D
:1057C00003F0C4F97B689B695B681846012103F00C
:1057D0007FFA002318462037BD4680BD80B584B0CF
:1057E00000AF78607B689B695B681846002103F016
:1057F0006FFA7B689B695B68184603F06DF97B68FC
:105800009B699B681846002103F070FC07F10803B0
:10581000184603F0D7F800233B737B689B699B898C
:10582000BB607B689B691A6907F10803104619463B
:1058300003F03AF87B689B695B8BBB607B689B6974
:10584000DA6907F108031046194603F02DF81037FE
:10585000BD4680BD80B483B000AF78600123184698
:105860000C37BD465DF8047B704700BF80B483B041
:1058700000AF7860012318460C37BD465DF8047B05
:10588000704700BF80B586B000AFF8607A603B60BB
:105890000B46FB723B68002B01D1002321E0FB6823
:1058A0009B6993F82C30002B12D0FB689A69FB7A25
:1058B000104619467A683B6800F042F97861FB6847
:1058C0001B6828331B68FA68104698477B6908E014
:1058D000FB681B6828331B68FA68104698476FF00E
:1058E000050318461837BD4680BD00BF80B588B097
:1058F00000AFF8607A603B600B46FB720023FB61EF
:105900000023BB61FB689B6993F82C30002B6CD0A3
:10591000FB689A69FB7A104619467A683B6800F082
:1059200075F8F861FB69002B08DAFB681B682C33FB
:105930001B68FA6810469847FB695FE0FB689B6943
:105940005B681846012103F0E3F9FEF707FBC7E99E
:1059500004011CE0FEF702FBD7E90423821A61EB85
:10596000030328484FF00001904271EB030CACBFD9
:1059700000230123DBB2002B09D0FB681B682C330A
:105980001B68FA68104698474FF0FF3336E0FB6813
:105990009B695B6818461C4903F056FA0346012BC5
:1059A0000CBF00230123DBB2002BD3D1FB689A6923
:1059B000FB7A10461946BA6AFB6A00F0DBF9B86157
:1059C000BB69002B08DAFB681B682C331B68FA687C
:1059D00010469847BB6911E0FB681B682C331B68B5
:1059E000FA6810469847BB6908E0FB681B682C33CF
:1059F0001B68FA68104698476FF005031846203771
:105A0000BD4680BD40420F000100030080B588B054
:105A100000AFF8607A603B600B46FB723B68002B7E
:105A200001D100237FE0F86800F0B2F80346DB0FF5
:105A3000DBB2002B02D04FF0FF3374E0FB7AF86842
:105A40001946002200F046F90346DB0FDBB2002BBB
:105A500002D06FF0040366E00023FB6135E0FEF73F
:105A60007DFAC7E9040115E0FEF778FAD7E90423C7
:105A7000821A61EB03032E484FF00001904271EB54
:105A8000030CACBF00230123DBB2002B02D06FF06C
:105A9000020348E0FB685B681846264903F0D4F926
:105AA0000346002B14BF00230123DBB2002BDBD104
:105AB000FB685A687968FB690B441B7810461946E5
:105AC00003F0A4F9FB690133FB61FA693B689A4270
:105AD000C5D3FEF743FAC7E9040115E0FEF73EFA25
