:020000040800F2
:1000000000000220DD2500084926000849260008D6
:10001000492600084926000849260008000000007B
:10002000000000000000000000000000AD530008C8
:100030004926000800000000C1530008ED560008E2
:1000400049260008492600084926000849260008D4
:100050004926000849260008CD2C0008F12C00088C
:10006000152D0008392D00085D2D000849260008CF
:10007000693500084926000891340008492600081F
:10008000213500084934000849260008492600089F
:10009000492600084926000849260008812D000845
:1000A0004926000849260008492600084926000874
:1000B0004926000849260008492600084926000864
:1000C0004926000849260008492600084926000854
:1000D000492600087133000889330008A13300085D
:1000E000DD2D000849260008492600084926000899
:1000F0004926000849260008492600084926000824
:100100004926000849260008B95400084926000875
:10011000B9330008D1330008492600089D5800086B
:1001200049260008492600084926000849260008F3
:1001300049260008492600084926000849260008E3
:1001400049260008492600084926000849260008D3
:10015000D93400084926000801340008E9330008B2
:1001600049260008492600084926000849260008B3
:1001700049260008492600084926000849260008A3
:0C0180004926000849260008000000087D
:1001900081F0004102E000BF83F0004330B54FEA38
:1001A00041044FEA430594EA050F08BF90EA020FA5
:1001B0001FBF54EA000C55EA020C7FEA645C7FEA38
:1001C000655C00F0E2804FEA5454D4EB5555B8BF5B
:1001D0006D420CDD2C4480EA020281EA030382EACC
:1001E000000083EA010180EA020281EA0303362D5E
:1001F00088BF30BD11F0004F4FEA01314FF4801C31
:100200004CEA113102D0404261EB410113F0004F42
:100210004FEA03334CEA133302D0524263EB4303F9
:1002200094EA050F00F0A780A4F10104D5F1200E97
:100230000DDB02FA0EFC22FA05F2801841F10001F2
:1002400003FA0EF2801843FA05F359410EE0A5F1C6
:1002500020050EF1200E012A03FA0EFC28BF4CF0F7
:10026000020C43FA05F3C01851EBE37101F00045AD
:1002700007D54FF0000EDCF1000C7EEB00006EEBBA
:100280000101B1F5801F1BD3B1F5001F0CD3490844
:100290005FEA30004FEA3C0C04F101044FEA44529B
:1002A00012F5800F80F09A80BCF1004F08BF5FEA22
:1002B000500C50F1000041EB045141EA050130BD02
:1002C0005FEA4C0C404141EB010111F4801FA4F1A5
:1002D0000104E9D191F0000F04BF01460020B1FAFA
:1002E00081F308BF2033A3F10B03B3F120020CDA32
:1002F0000C3208DD02F1140CC2F10C0201FA0CF010
:1003000021FA02F10CE002F11402D8BFC2F1200C74
:1003100001FA02F120FA0CFCDCBF41EA0C0190402A
:10032000E41AA2BF01EB0451294330BD6FEA040473
:100330001F3C1CDA0C340EDC04F11404C4F120025E
:1003400020FA04F001FA02F340EA030021FA04F370
:1003500045EA030130BDC4F10C04C4F1200220FAC7
:1003600002F001FA04F340EA0300294630BD21FA05
:1003700004F0294630BD94F0000F83F4801306BFCB
:1003800081F480110134013D4EE77FEA645C18BFBF
:100390007FEA655C29D094EA050F08BF90EA020F56
:1003A00005D054EA000C04BF1946104630BD91EA4E
:1003B000030F1EBF0021002030BD5FEA545C05D151
:1003C0004000494128BF41F0004130BD14F5800490
:1003D0003CBF01F5801130BD01F0004545F0FE4104
:1003E00041F470014FF0000030BD7FEA645C1ABF39
:1003F000194610467FEA655C1CBF0B46024650EA70
:10040000013406BF52EA033591EA030F41F400219B
:1004100030BD00BF90F0000F04BF0021704730B521
:100420004FF4806404F132044FF000054FF00001F6
:1004300050E700BF90F0000F04BF0021704730B5B7
:100440004FF4806404F1320410F0004548BF40428C
:100450004FF000013EE700BF42004FEAE2014FEAE1
:1004600031014FEA02701FBF12F07F4393F07F4FBC
:1004700081F06051704792F0000F14BF93F07F4FEE
:10048000704730B54FF4607401F0004521F0004131
:1004900020E700BF50EA010208BF704730B54FF0B7
:1004A00000050AE050EA010208BF704730B511F0BC
:1004B000004502D5404261EB41014FF4806404F1F4
:1004C00032045FEA915C3FF4DCAE4FF003025FEA76
:1004D000DC0C18BF03325FEADC0C18BF033202EBFE
:1004E000DC02C2F1200300FA03FC20FA02F001FA58
:1004F00003FE40EA0E0021FA02F11444C1E600BFF7
:1005000070B54FF0FF0C4CF4E06C1CEA11541DBFA9
:100510001CEA135594EA0C0F95EA0C0F00F0DEF874
:100520002C4481EA030621EA4C5123EA4C5350EA59
:10053000013518BF52EA033541F4801143F48013AA
:1005400038D0A0FB02CE4FF00005E1FB02E506F03B
:100550000042E0FB03E54FF00006E1FB03569CF090
:10056000000F18BF4EF0010EA4F1FF04B6F5007F96
:1005700064F5407404D25FEA4E0E6D4146EB060608
:1005800042EAC62141EA55514FEAC52040EA5E5091
:100590004FEACE2EB4F1FD0C88BFBCF5E06F1ED83B
:1005A000BEF1004F08BF5FEA500E50F1000041EB72
:1005B000045170BD06F0004646EA010140EA02001F
:1005C00081EA0301B4EB5C04C2BFD4EB0C0541EA41
:1005D000045170BD41F480114FF0000E013C00F356
:1005E000AB8014F1360FDEBF002001F0004170BD7A
:1005F000C4F10004203C35DA0C341BDC04F1140493
:10060000C4F1200500FA05F320FA04F001FA05F21E
:1006100040EA020001F0004221F0004110EBD370EB
:1006200021FA04F642EB06015EEA430E08BF20EA17
:10063000D37070BDC4F10C04C4F1200500FA04F3BA
:1006400020FA05F001FA04F240EA020001F000414C
:1006500010EBD37041F100015EEA430E08BF20EABF
:10066000D37070BDC4F1200500FA05F24EEA020E07
:1006700020FA04F301FA05F243EA020321FA04F036
:1006800001F0004121FA04F220EA020000EBD370ED
:100690005EEA430E08BF20EAD37070BD94F0000FED
:1006A0000FD101F00046400041EB010111F4801F21
:1006B00008BF013CF7D041EA060195F0000F18BFD2
:1006C000704703F00046520043EB030313F4801F0E
:1006D00008BF013DF7D043EA0603704794EA0C0FC8
:1006E0000CEA135518BF95EA0C0F0CD050EA4106DE
:1006F00018BF52EA4306D1D181EA030101F000415B
:100700004FF0000070BD50EA410606BF1046194682
:1007100052EA430619D094EA0C0F02D150EA01368E
:1007200013D195EA0C0F05D152EA03361CBF1046CF
:1007300019460AD181EA030101F0004141F0FE416E
:1007400041F470014FF0000070BD41F0FE4141F4F2
:10075000780170BD70B54FF0FF0C4CF4E06C1CEAF2
:1007600011541DBF1CEA135594EA0C0F95EA0C0FA7
:1007700000F0A7F8A4EB050481EA030E52EA033562
:100780004FEA013100F088804FEA03334FF0805583
:1007900045EA131343EA12634FEA022245EA1115B0
:1007A00045EA10654FEA00260EF000419D4208BF61
:1007B000964244F1FD0404F5407402D25B084FEA0E
:1007C0003202B61A65EB03055B084FEA32024FF4BA
:1007D00080104FF4002CB6EB020E75EB030E22BF17
:1007E000B61A754640EA0C005B084FEA3202B6EBD7
:1007F000020E75EB030E22BFB61A754640EA5C0086
:100800005B084FEA3202B6EB020E75EB030E22BF15
:10081000B61A754640EA9C005B084FEA3202B6EB16
:10082000020E75EB030E22BFB61A754640EADC00D5
:1008300055EA060E18D04FEA051545EA16754FEA37
:1008400006164FEAC30343EA52734FEAC2025FEA55
:100850001C1CC0D111F4801F0BD141EA00014FF0E4
:1008600000004FF0004CB6E711F4801F04BF0143B5
:100870000020B4F1FD0C88BFBCF5E06F3FF6AFAED1
:10088000B5EB030C04BFB6EB020C5FEA500C50F161
:10089000000041EB045170BD0EF0004E4EEA1131E4
:1008A00014EB5C04C2BFD4EB0C0541EA045170BDEB
:1008B00041F480114FF0000E013C90E645EA060E2F
:1008C0008DE60CEA135594EA0C0F08BF95EA0C0F5D
:1008D0003FF43BAF94EA0C0F0AD150EA01347FF4A5
:1008E00034AF95EA0C0F7FF425AF104619462CE77C
:1008F00095EA0C0F06D152EA03353FF4FDAE1046DF
:10090000194622E750EA410618BF52EA43067FF42F
:10091000C5AE50EA41047FF40DAF52EA43057FF4BF
:10092000EBAE12E74FF0FF3C06E000BF4FF0010CCA
:1009300002E000BF4FF0010C4DF804CD4FEA410C2E
:100940007FEA6C5C4FEA430C18BF7FEA6C5C1BD0FB
:1009500001B050EA410C0CBF52EA430C91EA030F7C
:1009600002BF90EA020F0020704710F1000F91EAD9
:10097000030F58BF994208BF90422CBFD8176FEAA7
:10098000E37040F0010070474FEA410C7FEA6C5C75
:1009900002D150EA013C07D14FEA430C7FEA6C5C7C
:1009A000D6D152EA033CD3D05DF8040B704700BFA8
:1009B0008446104662468C461946634600E000BFF6
:1009C00001B5FFF7B7FF002848BF10F1000F01BDC8
:1009D0004DF808EDFFF7F4FF0CBF012000205DF893
:1009E00008FB00BF4DF808EDFFF7EAFF34BF012018
:1009F00000205DF808FB00BF4DF808EDFFF7E0FFB1
:100A000094BF012000205DF808FB00BF4DF808ED01
:100A1000FFF7CEFF94BF012000205DF808FB00BF68
:100A20004DF808EDFFF7C4FF34BF012000205DF84A
:100A300008FB00BF4FEA410212F5001215D211D592
:100A40006FF47873B3EB625212D94FEAC12343F0CB
:100A5000004343EA505311F0004F23FA02F018BF4D
:100A6000404270474FF00000704750EA013005D116
:100A700011F0004008BF6FF0004070474FF00000D9
:100A8000704700BF4A0011D212F5001211D20DD5E5
:100A90006FF47873B3EB62520ED44FEAC12343F084
:100AA000004343EA505323FA02F070474FF000002E
:100AB000704750EA013002D14FF0FF3070474FF0DD
:100AC0000000704773B96AB9002908BF0028BCBF8D
:100AD00000204FF00041C4BF6FF000414FF0FF30E5
:100AE00000F08CB882B0EC462DE9005000F056F8CA
:100AF000DDF804E002B00CBC704700BF4BB942B94E
:100B0000002908BF002802D04FF0FF31084600F04E
:100B100075B882B0EC462DE9005000F057F8DDF8CA
:100B200004E002B00CBC704738B500220023044634
:100B30000D46FFF757FF28B920462946BDE8384043
:100B400000F00AB8204605F1004100F005F84042E7
:100B500061EB410138BD00BF70B500220D4B04466A
:100B60000D46FFF7CDFCFFF78DFF0646FFF752FC61
:100B70000022094BFFF7C4FC02460B4620462946DB
:100B8000FFF70AFBFFF77EFF002242EA000420463F
:100B9000314670BD0000F03D0000F0412DE970438A
:100BA000069E14461D468046894600F029F804FB3F
:100BB00001F300FB0533A4FB00451D44B8EB04041E
:100BC00069EB0505C6E90045BDE870832DE9704372
:100BD000069E1446804689461D4600F05DF900FBDE
:100BE00005F504FB0153A0FB04451D44B8EB0404C8
:100BF00069EB0505C6E90045BDE87083704700BF95
:100C000000292DE9F00FC0F29F800024002BC0F2D4
:100C10009680154606460F46002B3ED18A4257D98C
:100C2000B2FA82F34BB1C3F1200201FA03F720FAC2
:100C300002F29D40174300FA03F6290CB7FBF1F2CC
:100C4000330C01FB127CA8B243EA0C4700FB02F311
:100C5000BB4209D97F1902F1FF3C80F00181BB4200
:100C600040F2FE80023A2F44FF1AB7FBF1F3B6B20E
:100C700001FB137146EA014100FB03F0884208D9E9
:100C8000491903F1FF3780F0ED80884240F2EA8095
:100C9000023B43EA0242002303E08B420AD90023CD
:100CA0001A461046194614B1404261EB4101BDE8B5
:100CB000F00F7047B3FA83F8B8F1000F40F084806A
:100CC0008B4202D3824200F2DE8000230122E8E759
:100CD00012B90123B3FBF2F5B5FA85F2002A39D136
:100CE0007F1B280C1FFA85FC0123B7FBF0F1320CA7
:100CF00000FB117742EA07470CFB01F2BA4207D921
:100D00007F1901F1FF3802D2BA4200F2C180414698
:100D1000BF1AB7FBF0F2B6B200FB127046EA004011
:100D20000CFB02FC844507D9401902F1FF3702D2BF
:100D3000844500F2AB803A4642EA0142B1E7E4431F
:100D4000524263EB430364E7404261EB41014FF0E1
:100D5000FF345BE79540C2F1200327FA03F1280C2A
:100D600026FA03F39740B1FBF0F81F433B0C00FB5E
:100D700018111FFA85FC43EA01410CFB08F38B4272
:100D800006FA02F608D9491908F1FF3279D28B42E6
:100D900077D9A8F102082944C91AB1FBF0F3BFB210
:100DA00000FB131147EA01470CFB03F2BA4207D9D3
:100DB0007F1903F1FF3160D2BA425ED9023B2F4462
:100DC000BF1A43EA084390E7C8F1200203FA08FC7F
:100DD00025FA02F343EA0C0C4FEA1C4921FA02F30C
:100DE00001FA08F720FA02F2B3FBF9F1174309FB05
:100DF00011333A0C1FFA8CFB42EA03430BFB01FA56
:100E00009A4505FA08F008D913EB0C0301F1FF32FB
:100E100035D29A4533D902396344CAEB0303B3FB95
:100E2000F9F209FB1233BFB247EA03470BFB02F9A1
:100E3000B94508D917EB0C0702F1FF331BD2B945AE
:100E400019D9023A674442EA0145A5FB0001C9EB02
:100E500007078F424FF000030AD305D02A4620E748
:100E6000624601E73B4614E706FA08F68642F5D2E9
:100E70006A1E002315E71A46E5E70B46A0E7114670
:100E8000CBE7904688E7434642460AE7023A53E7F3
:100E900002392F443CE700BF2DE9F00F1446054608
:100EA0000E46002B43D18A4253D9B2FA82F757B18A
:100EB000C7F1200620FA06F601FA07F302FA07F452
:100EC0001E4300FA07F5210CB6FBF1F22B0C01FBD7
:100ED0001267A0B243EA074600FB02F3B34209D906
:100EE000361902F1FF3780F0F680B34240F2F3800A
:100EF000023A2644F61AB6FBF1F3ADB201FB1361D8
:100F000045EA014100FB03F0884208D9091903F1C1
:100F1000FF3680F0E280884240F2DF80023B43EA05
:100F20000242002310461946BDE8F00F70478B427D
:100F30004AD8B3FA83F6002E4DD18B4202D38242B7
:100F400000F2D6800023012210461946BDE8F00FBA
:100F5000704712B90124B4FBF2F4B4FA84F2002A07
:100F60007CD1091B260CA7B20123B1FBF6F02A0C99
:100F700006FB101142EA014107FB00F28A4207D941
:100F8000091900F1FF3C02D28A4200F2C380604698
:100F9000891AB1FBF6F2ADB206FB121145EA014522
:100FA00007FB02F7AF4208D92C1902F1FF3180F09C
:100FB0009680A74240F29380023A42EA00421046ED
:100FC0001946BDE8F00F704700231A46104619462F
:100FD000BDE8F00F7047C6F1200522FA05F4B340D2
:100FE0001C434FEA144821FA05F301FA06F720FAE8
:100FF00005F5B3FBF8FC2F4308FB1C333D0C1FFA2F
:1010000084FA45EA03430AFB0CF9994502FA06FB08
:1010100004D91B190CF1FF326DD39446C9EB0303BD
:10102000B3FBF8F508FB1533BFB247EA03470AFBE9
:1010300005F8B84504D93F1905F1FF3361D31D46C2
:1010400045EA0C4CACFB0B23C8EB07079F424FF063
:10105000000549D345D062462B4663E79440C2F170
:10106000200321FA03FC260C20FA03F301FA02F50F
:10107000BCFBF6F843EA05010B0C06FB18CCA7B243
:1010800043EA0C4C07FB08F3634500FA02F509D963
:101090001CEB040C08F1FF323AD2634538D9A8F1B1
:1010A0000208A444C3EB0C0CBCFBF6F389B206FBAC
:1010B00013CC41EA0C4107FB03F28A4207D9091914
:1010C00003F1FF3022D28A4220D9023B2144891AFF
:1010D00043EA084349E73A460CE733461FE70A4626
:1010E0006BE7B0409042B6D20CF1FF32002319E713
:1010F0003346324616E799458FD9ACF1020C2344AA
:101100008CE7B8459BD9023D274499E70346DEE7C3
:101110009046C7E7023821443AE700BF80B582B065
:1011200000AF78607B680A4A1A600A4800F0D8FB72
:101130007B680433184600F053FC0023002B02D0D8
:10114000786800F0C5FC7B6818460837BD4680BD4E
:1011500090B8000880B1000880B582B000AF786018
:101160007868FFF7DBFF786800F0B2FC7B68184610
:101170000837BD4680BD00BF80B584B000AFF860C1
:10118000B9607A60FB681846B96864224FF4FA6364
:1011900004F096FFFB68074A1A60F968D7E906234E
:1011A000C1E91623FB687A681A65FB681846103790
:1011B000BD4680BD78B8000880B582B000AF7860C9
:1011C0007B681B6D18464FF4E13102F0F1F90837E6
:1011D000BD4680BD80B5C8B002AF3B1D186007F1A9
:1011E0000803002283F800213B1D19683B1D1B6882
:1011F000D3E91623CDE9002308464FF000024FF053
:10120000000300F06FFC28E03B1D1B681B6D1B6892
:1012100018331B683A1D1268126D10469847034632
:10122000002B1AD0134801F087F93B1D1B681A6D7B
:1012300007F10803104619464FF4807202F018FABD
:10124000391D07F1080207F58673086811461A462A
:1012500000F014F8084801F06FF93B1D1B681846B0
:1012600000F056FC0123002BCED107F58C77BD464C
:1012700080BD00BF90B10008A8B1000890B587B04C
:1012800000AFF860B9607A601348B96801F054F9AA
:10129000B86800F0B3FB03467B611048796901F040
:1012A0004BF97B69052B00DC12E07B6818460C4982
:1012B000BA6806F0DDFA7B689C68F868B9680622AF
:1012C0007B6900F00FF803462046194606F0D0FA75
:1012D0001C37BD4690BD00BFBCB10008D4B10008AA
:1012E000E4B1000880B487B000AFF860B9607A60FC
:1012F0003B6000237B610CE07B693A6913447968A9
:101300007A690A44B9680A4412781A707B69013311
:101310007B617A693B689A42EEDB3B683A69134429
:1013200000221A703B6918461C37BD465DF8047BE5
:10133000704700BF80B584B000AFF860B9607A60D4
:10134000FB681846B9680C227B6800F0B7FCFB68A4
:10135000034A1A60FB6818461037BD4680BD00BFBF
:1013600068B8000880B582B000AF78607B68084A32
:101370001A607B68184604F011FF0023002B02D08E
:10138000786800F0A5FB7B6818460837BD4680BD2D
:1013900078B8000880B582B000AF78607868FFF751
:1013A000E1FF786800F094FB7B6818460837BD467B
:1013B00080BD00BF80B582B000AF786039607B68C7
:1013C000012B0FD13A684FF6FF739A420AD10748B2
:1013D0004FF0FF31064AFFF7ADFF04480549064AC2
:1013E00006F040FA0837BD4680BD00BFD008002097
:1013F00000B20008FD130008340B002080B582B055
:1014000000AF78607B680A4A1A600A4800F068FA00
:101410007B681846FFF782FE0023002B02D0786815
:1014200000F056FB7B6818460837BD4680BD00BFFC
:1014300068B8000804B2000880B582B000AF7860D8
:101440007868FFF7DBFF786800F042FB7B6818469E
:101450000837BD4680BD00BF80B500AF01204FF604
:10146000FF71FFF7A7FF80BD80B584B000AFF860C3
:10147000B9607A60FB681846B96804227B6800F09E
:101480001DFCFB68034A1A60FB6818461037BD460E
:1014900080BD00BFA0B8000880B582B000AF786002
:1014A00039607B68012B0FD13A684FF6FF739A427F
:1014B0000AD107484FF0FF31064AFFF7D5FF04482D
:1014C0000549064A06F0CEF90837BD4680BD00BF83
:1014D000F408002024B20008E1140008340B0020B6
:1014E00080B582B000AF78607B680A4A1A600A480B
:1014F00000F0F6F97B681846FFF710FE0023002B7A
:1015000002D0786800F0E4FA7B6818460837BD46D8
:1015100080BD00BFA0B8000830B2000880B582B01E
:1015200000AF78607868FFF7DBFF786800F0D0FAEA
:101530007B6818460837BD4680BD00BF80B500AF48
:1015400001204FF6FF71FFF7A7FF80BD00000000EC
:1015500080B584B002AF786039607B68012B22D1FE
:101560003A684FF6FF739A421DD11348134940F26F
:10157000D17200F085F810481149124A06F072F94C
:101580001148032101F07CFD09A3D3E90023CDE933
:1015900000230E480E490C4AFFF7EEFD0B480D499B
:1015A000084A06F05FF90837BD4680BDAFF30080FA
:1015B00000E1F505000000001809002040B2000815
:1015C000C1160008340B0020340900205009002007
:1015D0004CB200086513000880B500AF01204FF63B
:1015E000FF71FFF7B5FF80BD80B582B000AF7860B6
:1015F00039607B68012B10D13A684FF6FF739A422D
:101600000BD107483C2101F0A9F906483D2101F022
:10161000A5F905483E2101F0A1F90837BD4680BD76
:10162000B0090020CC090020E809002080B500AFF7
:1016300001204FF6FF71FFF7D7FF80BD80B483B064
:1016400000AF78607B681B6818460C37BD465DF8B4
:10165000047B704780B483B000AF78607B685B68C0
:1016600018460C37BD465DF8047B704780B483B0E4
:1016700000AF78600C37BD465DF8047B704700BF53
:1016800080B584B000AFF860B9607A60FB6804335D
:1016900018460949BA68002300F05AF9FB68074A5E
:1016A0001A60FB687A685A61FB6801221A76FB6847
:1016B00018461037BD4680BD040A0020B0B80008A7
:1016C00080B582B000AF78607B680A4A1A600A4829
:1016D00000F006F97B680433184600F081F9002316
:1016E000002B02D0786800F0F3F97B6818460837C1
:1016F000BD4680BDB0B8000858B2000880B582B0C1
:1017000000AF78607868FFF7DBFF786800F0E0F9F9
:101710007B6818460837BD4680BD00BF80B483B0E3
:1017200000AF78607B6801221A760C37BD465DF801
:10173000047B704780B483B000AF78607B68002280
:101740001A760C37BD465DF8047B704780B485B0CF
:1017500000AFF860B9607A603B604FF0FF33184625
:101760001437BD465DF8047B704700BF90B583B069
:1017700000AF154B1B68002B03D0134B1B68043BB9
:1017800000E000237B6018E07B685C697B680433C1
:101790001846FFF75FFF03460C4821461A4600F043
:1017A00059F87B6804331846FFF748FF0346002BBF
:1017B00001D0043B00E000237B607B68002BE3D179
:1017C0000C37BD4690BD00BF040A00206CB2000873
:1017D00080B582B000AF78607B68064A1A6000234B
:1017E000002B02D0786800F073F97B681846083740
:1017F000BD4680BDD0B8000880B582B000AF78602B
:101800007868FFF7E5FF786800F062F97B681846B2
:101810000837BD4680BD00BF80B582B000AF78609C
:101820000B46FB7097F90330184604F063F908374C
:10183000BD4680BD80B483B000AF78607B68044A49
:101840001A607B6818460C37BD465DF8047B70470C
:10185000D0B800080FB480B582B000AF1C4B1B6835
:10186000002B2FD03B461846FFF7E4FF07F1140387
:101870007B60184B1B68002B05D0164B1B68164865
:10188000194600F059FE04F021FB034683F00103E2
:10189000DBB2002B05D03B461846396900F0DAFB75
:1018A0000AE00E4804F060FB3B461846396900F038
:1018B000D1FB0A4804F0B6FB04F05EF93B4618463B
:1018C000FFF786FF0837BD46BDE8804004B070478B
:1018D00004000020080A002088B200080C0A00203A
:1018E00080B582B000AF7860074B7A681A6007480D
:1018F0007968FFF7AFFF064B1B685A1C044B1A6050
:101900000837BD4680BD00BF000000209CB2000823
:10191000080A002080B582B000AF786039607B682B
:10192000012B07D13A684FF6FF739A4202D1034860
:1019300004F002FB0837BD4680BD00BF0C0A002042
:1019400080B500AF01204FF6FF71FFF7E3FF80BDC8
:1019500080B584B000AFF860B9607A603B60FB6826
:101960003A68DA60FB687A685A60084B1B68591C51
:10197000064A1160FA689360F868B96800F008F8E0
:10198000FB6818461037BD4680BD00BF1C0A00200A
:1019900080B582B000AF786039603B681A687B68B8
:1019A0001A603B687A681A600A4B1B68002B0CBFF0
:1019B00000230123DBB2002B08D00748FFF790FF7C
:1019C0007B685B6805481946FFF744FF0837BD464A
:1019D00080BD00BF741C0020C8B20008FCB2000823
:1019E00080B582B000AF78600348FFF779FF7B686D
:1019F00018460837BD4680BD20B3000880B485B0C6
:101A000000AF78600023FB607B68002B01D10023CE
:101A10000BE005E0FB680133FB607B6801337B6012
:101A20007B681B78002BF5D1FB6818461437BD4640
:101A30005DF8047B704700BF80B487B000AFF860EA
:101A4000B9607A60FB68002B01D1FB6810E0FB688D
:101A50007B6109E0BB68DAB27B691A707B6901338C
:101A60007B617B68013B7B607B68002BF2D1FB686C
:101A700018461C37BD465DF8047B704780B487B0BC
:101A800000AFF860B9607A60FB687B61BB683B615E
:101A90007B69002B02D03B69002B01D1002311E0B0
:101AA0000CE03B691A787B691A707B68013B7B60AC
:101AB0003B6901333B617B6901337B617B68002BB0
:101AC000EFD1FB6818461C37BD465DF8047B7047B4
:101AD00080B483B000AF78600C37BD465DF8047BFE
:101AE000704700BF80B485B000AFF860C7E900233D
:101AF000F968D7E90023C1E90E23F968D7E906237D
:101B0000C1E910231437BD465DF8047B704700BF60
:101B1000B0B586B002AF786006E04FF0FF306FF0EE
:101B20000041002204F01CFC7B68D3E9102352EA38
:101B30000301F2D07B68D3E90E2310461946002238
:101B400004F00EFC00F04EF8C7E902017B68D3E90F
:101B50000E017B68D3E91023D7E90245CDE90045A2
:101B600000F04AF802460B467968C1E90E231037A7
:101B7000BD46B0BD80B584B000AF786004F0C8FB4E
:101B8000F860F86804F0AAFBB860F868796804F0B7
:101B9000B1FBBB6818461037BD4680BD80B483B02A
:101BA00000AF786079684FF000024FF00003C1E9A0
:101BB000002379684FF000024FF00003C1E90223CF
:101BC00079684FF000024FF00003C1E904237B68FD
:101BD0000F229A617B6818460C37BD465DF8047B7E
:101BE000704700BF80B500AF03F0C6FE02460B464B
:101BF0001046194680BD00BF80B584B000AFC7E96C
:101C00000201C7E90023D7E90223D7E90601904280
:101C100071EB030C02DAD7E902232CE0D7E90023A9
:101C200052EA030104D14FF0FF326FF0004322E08B
:101C3000D7E90601D7E90223821A61EB03031046B4
:101C40001946D7E90023FEF73DFF02460B46013255
:101C500043F10003396803FB01F0796802FB01F1ED
:101C600001443868A0FB022319440B46D7E902015E
:101C7000121843EB0103104619461037BD4680BDCC
:101C800080B582B000AF786039607B68012B07D1E6
:101C90003A684FF6FF739A4202D10348FFF77EFF7E
:101CA0000837BD4680BD00BF200A002080B500AFC8
:101CB00001204FF6FF71FFF7E3FF80BD80B586B0CE
:101CC00000AFF860B9607A603B60FB680433184687
:101CD0002E493A680023FFF73BFEFB682C4A1A6046
:101CE000FB6800225A61FB68BA68DA61FB687A68AF
:101CF0001A62FB6800229A61FB68DB69B3F1FF3F5F
:101D000011D1386804F0C2FD03461A46FB68DA6157
:101D1000FB68DB69B3F57A7F05DAFB68DB6903F5FD
:101D20007A72FB68DA61194B1B68002B03D0174BE2
:101D30001B68043B00E000237B611EE07B69DA69DD
:101D4000BB689A420DD17A69FB689A4209D0114862
:101D5000FFF7C6FD7B699B680F48B9683A68FFF7D3
:101D600079FD7B6904331846FFF768FC0346002BB6
:101D700001D0043B00E000237B617B69002BDDD1B7
:101D8000FB6818461837BD4680BD00BF481D0020BF
:101D900090B8000844B3000858B3000880B582B07A
:101DA00000AF78607B680A4A1A600A48FFF798FD1E
:101DB0007B681846FFF7B2F90023002B02D0786841
:101DC000FFF786FE7B6818460837BD4680BD00BF1A
:101DD00008B90008D0B3000880B582B000AF7860C1
:101DE0007868FFF7DBFF7868FFF772FE7B681846BC
:101DF0000837BD4680BD00BF80B584B000AFF86035
:101E0000B9607A60FB681846B9680C227B68FFF7F6
:101E100055FFFB68034A1A60FB6818461037BD4639
:101E200080BD00BF08B9000880B584B000AFF8607D
:101E3000B9607A60FB681846B96840F22E527B6838
:101E4000FFF73CFFFB68034A1A60FB68184610372F
:101E5000BD4680BDF8B8000880B584B000AFF8601A
:101E6000B9607A60FB681846B96804227B68FFF79E
:101E700025FFFB68034A1A60FB6818461037BD4609
:101E800080BD00BFE8B8000880B582B000AF7860C0
:101E900039607B68012B4FD13A684FF6FF739A4245
:101EA0004AD1274827490A22FFF7EAFB2448264956
:101EB000264A05F0D7FC26480021264AFFF79CFF5A
:101EC00023482549214A05F0CDFC24484FF0FF3135
:101ED000234AFFF7A9FF214822491C4A05F0C2FC0A
:101EE00021484FF0FF31214AFFF7B6FF1E48204935
:101EF000164A05F0B7FC1F484FF0FF311E4AFFF7A6
:101F0000ABFF1C481A49114A05F0ACFC1B484FF0C6
:101F1000FF311B4AFFF7A0FF184815490B4A05F08F
:101F2000A1FC18484FF0FF31174AFFF765FF15482D
:101F30000949064A05F096FC0837BD4680BD00BF3A
:101F4000400A0020E0B30008C1160008340B00204E
:101F50005C0A0020F4B300089D1D0008800A0020E0
:101F600004B40008E91F0008A40A002010B4000807
:101F70008D1F0008C80A002020B40008EC0A0020C9
:101F800030B40008100B002044B4000880B582B0C3
:101F900000AF78607B680A4A1A600A48FFF7A0FC25
:101FA0007B681846FFF7BAF80023002B02D0786848
:101FB000FFF78EFD7B6818460837BD4680BD00BF21
:101FC000E8B80008D0B3000880B582B000AF7860F0
:101FD0007868FFF7DBFF7868FFF77AFD7B681846C3
:101FE0000837BD4680BD00BF80B582B000AF7860C5
:101FF0007B680A4A1A600A48FFF772FC7B68184639
:10200000FFF78CF80023002B02D07868FFF760FD03
:102010007B6818460837BD4680BD00BFF8B8000889
:10202000D0B3000880B582B000AF78607868FFF761
:10203000DBFF7868FFF74CFD7B6818460837BD4624
:1020400080BD00BF80B500AF01204FF6FF71FFF7E4
:102050001BFF80BD80B594B000AF7860396056E258
:10206000002387F84E30002387F84D30002387F88F
:102070004C30002387F84B3097F84F30252B0AD08F
:102080007B681B6808331B6897F84F2052B278684A
:10209000114698473BE23B685A1C3A601B7887F828
:1020A0004F30002387F84330202387F84230032342
:1020B00087F8413097F84F30302B09D197F84F30DF
:1020C00087F842303B685A1C3A601B7887F84F30DB
:1020D00097F84F302F2B0ED997F84F30392B0AD85D
:1020E00097F84F30303B87F843303B685A1C3A60D2
:1020F0001B7887F84F3097F84F302E2B10D13B6864
:102100005A1C3A601B7887F84F3097F84F30303BB5
:1021100087F841303B685A1C3A601B7887F84F308B
:1021200097F84F306C2B08D1012387F84D303B686E
:102130005A1C3A601B7887F84F3097F84F306C2B59
:1021400008D1012387F84C303B685A1C3A601B7851
:1021500087F84F3097F84F30623B162B38D801A1E3
:1021600051F823F05D220008C12100084722000831
:10217000D121000841220008D1210008D121000806
:10218000D1210008D1210008D1210008D121000867
:10219000D1210008D12100082B220008D1210008FC
:1021A000D1210008D1210008E7210008D121000831
:1021B0004D220008D1210008D12100085522000835
:1021C0007B685B68191D7A6851601B6887F84F301F
:1021D0007B681B6808331B6897F84F2052B27868F9
:1021E0001146984793E17B685B68191D7A685160D6
:1021F0001B687B6409E07B681B6808331B6897F8E1
:102200004F2052B27868114698477B6C5A1C7A640A
:102210001B7887F84F3097F84F30002B0CBF002306
:102220000123DBB2002BE6D171E10823A7F8483087
:102230007B681B6808331B6878683021984711E079
:10224000012387F84B30012387F84E300A23A7F883
:10225000483007E01023A7F8483003E00223A7F82E
:10226000483000BF4FF000024FF00003C7E90C23D5
:102270004FF000024FF00003C7E90A2397F84B30F4
:10228000002B15D07B685B68073323F0070303F14D
:1022900008017A685160D3E90023C7E90A23D7E926
:1022A0000A01FEF741FC02460B46C7E90C232CE06D
:1022B00097F84C30002B0DD07B685B68073323F018
:1022C000070303F108017A685160D3E90023C7E9E5
:1022D0000C231AE097F84D30002B0BD07B685B681D
:1022E000191D7A6851601B681A464FEAE273C7E904
:1022F0000C230AE07B685B68191D7A6851601B68D3
:102300001A464FEAE273C7E90C2397F84E30002BC8
:102310002DD0D7E90C23002A73F100010ADBD7E99D
:102320000A014FF000024FF00003FEF75BFB03468B
:10233000002B1CD0D7E90C23524263EB4303C7E9BF
:102340000C23BB6ABB62FB6A83F00043FB627B68C1
:102350001B6808331B6878682D21984797F843302D
:10236000002B04D097F84330013B87F8433097F8AF
:102370004C30002B04D0D7E90C23C7E90E2310E022
:1023800097F84D30002B06D03B6B1A464FF00003F8
:10239000C7E90E2305E03B6B1A464FF00003C7E97F
:1023A0000E2307F10C031A337B647B6C013B7B64C7
:1023B0007B6C00221A70B7F848204FF00003D7E971
:1023C0000E01FEF79BFBD3B23033DBB287F8273028
:1023D00097F92730392B05DD97F827300733DBB223
:1023E00087F827307B6C013B7B6497F827207B6C58
:1023F0001A70B7F848204FF00003D7E90E01FEF736
:102400007DFB02460B46C7E90E2397F84330002BAD
:1024100004D097F84330013B87F84330D7E90E23C7
:1024200052EA0301C7D106E07B6C013B7B647B6C05
:1024300097F842201A7097F843305A1E87F84320C5
:10244000002B0CBF00230123DBB2002BECD109E0F1
:102450007B681B6808331B6897F84F2052B2786876
:10246000114698477B6C5A1C7A641B7887F84F306A
:1024700097F84F30002B0CBF00230123DBB2002B59
:10248000E6D197F84B30002B41D07B681B680833AE
:102490001B6878682E2198472DE0D7E90C01FEF7DC
:1024A00001F802460B46D7E90A01FDF775FE024620
:1024B0000B46C7E90A23D7E90A014FF000021D4B7A
:1024C000FEF71EF802460B46C7E90A23D7E90A01C0
:1024D000FEF72AFB02460B46C7E90C237B681B6804
:1024E00008331B6897F830203032D2B2D2B252B2E1
:1024F00078681146984797F841305A1E87F841206E
:10250000002B0CBF00230123DBB2002BC5D13B689D
:102510005A1C3A601B7887F84F3097F84F30002BE1
:102520000CBF00230123DBB2002B7FF499AD5037A1
:10253000BD4680BD000024400FB480B582B000AF1E
:102540000C4B1B68002B0FD03B461846FFF772F967
:1025500007F114037B603B4618463969FFF77AFDA3
:102560003B461846FFF734F90837BD46BDE88040C2
:1025700004B070470400002080B582B000AF0C4B5F
:102580007B6008E07B681B6898473B6801333B60D1
:102590007B6804337B607A68064B9A42F2D13B68D1
:1025A00001333B603B68013B3B600837BD4680BD63
:1025B000ECBB000818BC000880B485B000AFF86020
:1025C000B9607A60002318461437BD465DF8047B75
:1025D000704700BF80B400AFFEE700BF002100F0ED
:1025E00004B8124B5B58435004311148114B421848
:1025F0009A42FFF4F6AF104A00F003B8002342F805
:10260000043B0E4B9A42FFF4F9AF0D4A00F003B8B9
:10261000002342F8043B0B4B9A42FFF4F9AF03F05E
:10262000B1FAFFF7A9FF04F041FB704718BC00089E
:1026300000000020CC080020D008002094BD00201D
:102640000000001000000010FFF7FEBF80B483B050
:1026500000AF786039603B6818460C37BD465DF8BE
:10266000047B70470FB480B400AF00231846BD460A
:102670005DF8047B04B070470FB480B400AF002352
:102680001846BD465DF8047B04B070470FB480B4B3
:1026900000AF00231846BD465DF8047B04B07047C8
:1026A0000FB480B400AF00231846BD465DF8047B2C
:1026B00004B070470FB480B400AF00231846BD4685
:1026C0005DF8047B04B070470FB480B400AF002302
:1026D0001846BD465DF8047B04B0704780B483B0F3
:1026E00000AF7860012318460C37BD465DF8047BC7
:1026F000704700BF80B483B000AF786001231846F4
:102700000C37BD465DF8047B704700BF80B483B0D2
:1027100000AF0346FB71094B97F907205209F9797D
:1027200001F01F01012000FA01F1603243F822108C
:102730000C37BD465DF8047B704700BF00E100E048
:1027400080B582B000AF7860F970BA707B707B683A
:10275000FA781A707B68BA781A727B687A785A723B
:10276000786800F01FF8786800F052F87B680C3346
:10277000184602F0CFF87B685B891A467B68DA60FE
:102780007B6802225A747B6800221A747B680022DC
:102790001A777B6800225A777B6818460837BD464F
:1027A00080BD00BF80B483B000AF78607B681B7AC7
:1027B0001A467B681B7803F00F031344102B0BDDC4
:1027C0007B681B7803F00F034FF6FF7202FA03F3E6
:1027D0009AB27B685A8116E07B681B7AC3F11003BA
:1027E0004FF6FF7242FA03F39AB27B685A817B6814
:1027F0005B891A467B681B7803F00F0302FA03F328
:102800009AB27B685A810C37BD465DF8047B7047ED
:1028100080B483B000AF78607B681B780F2B06D83C
:102820007B68364A5A617B6801229A6160E07B6866
:102830001B781F2B06D87B68314A5A617B680222BD
:102840009A6155E07B681B782F2B06D87B682D4A50
:102850005A617B6804229A614AE07B681B783F2BAF
:1028600006D87B68284A5A617B6808229A613FE053
:102870007B681B784F2B06D87B68244A5A617B689B
:1028800010229A6134E07B681B785F2B06D87B6846
:102890001F4A5A617B6820229A6129E07B681B7875
:1028A0006F2B06D87B681B4A5A617B6840229A616D
:1028B0001EE07B681B78DBB25BB2002B06DB7B681B
:1028C000154A5A617B6880229A6111E07B681B7807
:1028D0008B2B07D87B68114A5A617B684FF4807252
:1028E0009A6105E07B6800225A617B6800229A6148
:1028F0000C37BD465DF8047B704700BF0000024006
:102900000004024000080240000C02400010024097
:102910000014024000180240001C02400020024047
:1029200080B582B000AF78607B6801225A777B68FF
:102930005B681B6830331B687A685268104698479A
:10294000054B7A68127802F00F02012101FA02F2B7
:102950005A610837BD4680BD003C014090B583B048
:1029600000AF78600B46FB707B68184603F0ECFF05
:102970007B68134A1A60202004F006FA02467B683E
:102980009A617B689B6920201946FFF75FFE044629
:10299000002C08D0FB782046194601220023FFF7BF
:1029A000CFFE234600E023467A6893617B689B69EB
:1029B0007A685A607B6818460C37BD4690BD00BFE8
:1029C00018B9000880B584B000AFF8600B467A6093
:1029D000FB72FB7A042B00F29B8001A252F823F0D9
:1029E000F5290008352A00087F2A0008BB2A0008BC
:1029F000F72A00087B68002B08D0FB689B6901223E
:102A00005A72FB689B6901221A7407E0FB689B6994
:102A100000225A72FB689B6900221A74FB689B694A
:102A20005A69FB689B690C331046194601F0E4FEB5
:102A300000236FE07B68002B1ED07B68FF2B1BD828
:102A4000FB689B697A68D2B21A72FB689B69184668
:102A5000FFF7A8FEFB689B69FA6892695289DA6001
:102A6000FB689B695A69FB689B690C3310461946E1
:102A700001F0C2FE00234DE04FF0FF334AE07B68D7
:102A8000002B17D07B68002B04D0FB689B690122C8
:102A9000DA7403E0FB689B690022DA74FB689B69C7
:102AA0005A69FB689B690C331046194601F0A4FE75
:102AB00000232FE04FF0FF332CE07B68002B17D072
:102AC0007B68002B04D0FB689B690222DA7403E068
:102AD000FB689B690022DA74FB689B695A69FB6892
:102AE0009B690C331046194601F086FE002311E065
:102AF0004FF0FF330EE07B68022B06D8FB689B6922
:102B00007A68D2B21A77002304E04FF0FF3301E075
:102B10004FF0FF3318461037BD4680BD80B582B0F8
:102B200000AF78607868002100F024F87868002110
:102B30000022FFF747FF7B689B695B69184601F03D
:102B4000A9FD7B689B699B691846002101F0FCFF89
:102B50000837BD4680BD00BF80B483B000AF786049
:102B60007B689B695B7F18460C37BD465DF8047B2C
:102B7000704700BF80B586B000AF78600B46FB7031
:102B80007B689B691B781B09DBB27B617B689B6957
:102B90001B7803F00F033B613B69FB60FB78002B64
:102BA0005DD0464BFA6853F822207B689B699A42B5
:102BB00000D17FE0414BFA6853F82230002B4AD114
:102BC0007B689B691B7A012B03D93D48FEF788FE81
:102BD00070E07B69DAB23B69DBB21046194602F05D
:102BE000A1F87B689B691B7F012B04D07B689B69E4
:102BF0001B7F002B08D1334B324A916801203A6980
:102C000000FA02F20A439A607B689B691B7F022BE1
:102C100004D07B689B691B7F002B08D1294B294A74
:102C2000D16801203A6900FA02F20A43DA607B684F
:102C30009969224BFA6843F822107B689B6900224D
:102C40005A77204B1F4A116801203A6900FA02F2B4
:102C50000A431A602EE01C48FEF742FE2AE0174B9A
:102C6000FA6853F822207B689B699A4222D1154B5F
:102C7000144A116801203A6900FA02F2D2430A406C
:102C80001A60104B0F4A916801203A6900FA02F26B
:102C9000D2430A409A600B4B0A4AD16801203A6934
:102CA00000FA02F2D2430A40DA60044BFA680021CB
:102CB00043F822101837BD4680BD00BF380B0020F6
:102CC00050B40008003C014074B4000880B500AF67
:102CD000064B1B68002B04D0044B1B681846FFF7FB
:102CE0001FFE0620FFF712FD80BD00BF380B00203D
:102CF00080B500AF064B5B68002B04D0044B5B68CB
:102D00001846FFF70DFE0720FFF700FD80BD00BF4E
:102D1000380B002080B500AF064B9B68002B04D019
:102D2000044B9B681846FFF7FBFD0820FFF7EEFCFD
:102D300080BD00BF380B002080B500AF064BDB68BC
:102D4000002B04D0044BDB681846FFF7E9FD09208F
:102D5000FFF7DCFC80BD00BF380B002080B500AF62
:102D6000064B1B69002B04D0044B1B691846FFF768
:102D7000D7FD0A20FFF7CAFC80BD00BF380B00203A
:102D800080B582B000AF134B5B693B6005237B606D
:102D900017E03A687B6822FA03F303F00103002B83
:102DA0000CD00D4B7A6853F82230002B06D00A4B1A
:102DB0007A6853F822301846FFF7B2FD7B6801337A
:102DC0007B607B68092BE4DD1720FFF79FFC083749
:102DD000BD4680BD003C0140380B002080B582B06C
:102DE00000AF134B5B693B600A237B6017E03A68D6
:102DF0007B6822FA03F303F00103002B0CD00D4B88
:102E00007A6853F82230002B06D00A4B7A6853F8C0
:102E100022301846FFF784FD7B6801337B607B68B6
:102E20000F2BE4DD2820FFF771FC0837BD4680BD7D
:102E3000003C0140380B002080B483B000AF7860C4
:102E40000C37BD465DF8047B704700BF80B582B08B
:102E500000AF78607B68064A1A600023002B02D01E
:102E60007868FEF735FE7B6818460837BD4680BD9A
:102E7000E0B9000880B582B000AF78607868FFF7ED
:102E8000E5FF7868FEF724FE7B6818460837BD46E4
:102E900080BD00BF80B584B000AFF860B9607A60D3
:102EA0003B600448FEF71CFD002318461037BD4662
:102EB00080BD00BFA8B4000880B483B000AF7860C4
:102EC000002318460C37BD465DF8047B704700BFF1
:102ED00080B483B000AF0346FB71084B97F907201D
:102EE0005209F97901F01F01012000FA01F143F8BC
:102EF00022100C37BD465DF8047B704700E100E00E
:102F000080B483B000AF0346FB71094B97F90720EB
:102F10005209F97901F01F01012000FA01F1203274
:102F200043F822100C37BD465DF8047B704700BFA4
:102F300000E100E080B483B000AF0346FB71094BB1
:102F400097F907205209F97901F01F01012000FAD1
:102F500001F1603243F822100C37BD465DF8047B66
:102F6000704700BF00E100E080B582B000AF78603C
:102F70007B681846064964224FF4FA6303F0A0F810
:102F80007B68044A1A607B6818460837BD4680BDD6
:102F900030B5000888B9000880B582B000AF78600D
:102FA0007B684833184601F06FF87B6803F5AA7315
:102FB000184601F069F87B6818460837BD4680BDA1
:102FC00080B586B002AF78600CE0FEF70BFE29A357
:102FD000D3E90023121843EB0103104619460022DF
:102FE00003F0BEF91E4B1B78DBB283F00103DBB2AA
:102FF000002BEAD179681B4A4FF00003CDE900238A
:103000000846194A4FF00003FEF76CFD1CE001234F
:10301000FB6016E0154AFB684FF4187101FB03F3DF
:10302000134430339B79002B08D0FB685A1E104B99
:1030300053F822301846002101F064FAFB6801338E
:10304000FB60FB68032BE5DD7B681846FEF760FD3F
:103050000123002BDBD11037BD4680BDAFF30080CC
:10306000181C00208096980040420F00780B00202A
:103070001400002000E40B5402000000AFF30080B5
:1030800080B582B000AF78600B46FB707B68184655
:1030900003F05AFC7B688D4A1A60FB78002B02D043
:1030A000FB78062B07D97B68894A9A617B689B6904
:1030B000FA781A704FE1FB784FF4187202FB03F2B2
:1030C000834B1A447B689A617B689B69FA781A7013
:1030D0007B689B694FF4E1329A607B689B690122AF
:1030E0005A607B689B697A68DA607B689B6900221A
:1030F00083F836207B689B69002283F837207B6841
:103100009B69002283F83C20FB78013B072B00F2EF
:10311000218101A252F823F03931000887310008DB
:10312000D131000823320008513200087D320008F6
:10313000013300082B3300087B689B69654A5A619C
:103140007B689B69644A9A617B689B6940229A8389
:103150007B689B69604A1A627B689B6980229A84BB
:103160007B689B695D4A9A627B689B694FF48052D9
:103170009A857B689B69594A1A637B689B694FF4FF
:1031800000629A86E7E07B689B69554A5A617B68D2
:103190009B69544A9A617B689B6920229A837B6869
:1031A0009B69504A1A627B689B6940229A847B68BB
:1031B0009B694C4A9A627B689B6910229A857B685E
:1031C0009B69484A1A637B689B6908229A86C2E019
:1031D0007B689B69444A5A617B689B69414A9A6152
:1031E0007B689B694FF480729A837B689B693D4A38
:1031F0001A627B689B694FF400729A847B689B69B2
:10320000354A9A627B689B694FF480429A857B6855
:103210009B69344A1A637B689B694FF400629A8603
:1032200099E07B689B69314A5A617B689B69304AA7
:103230009A617B689B694FF480629A837B689B6983
:103240002B4A1A627B689B694FF400629A8482E081
:103250007B689B69274A5A617B689B69244A9A610B
:103260007B689B694FF480529A837B689B691D4AF7
:103270001A627B689B6904229A846CE07B689B6974
:103280001D4A5A617B689B69194A9A617B689B69F0
:1032900040229A837B689B69154A1A627B689B6906
:1032A00080229A847B689B69144A9A627B689B6936
:1032B0004FF480729A857B689B69104A1A637B6819
:1032C0009B694FF400429A8645E000BFA0B9000810
:1032D000780B002000100140000402400000024072
:1032E00000440040000C024000480040004C0040F8
:1032F0000008024000500040001401400018024045
:103300007B689B69164A5A617B689B69154A9A617A
:103310007B689B6980229A837B689B69114A1A6249
:103320007B689B6940229A8415E07B689B690E4A02
:103330005A617B689B690D4A9A617B689B6902228E
:103340009A837B689B69094A1A627B689B690122A0
:103350009A8400E000BF7B6818460837BD4680BDF0
:103360000078004000140240007C00400010024041
:1033700080B500AF034800F0B7FB2520FFF7DAFD6A
:1033800080BD00BFD80D002080B500AF034800F01D
:10339000ABFB2620FFF7CEFD80BD00BF381000201C
:1033A00080B500AF034800F09FFB2720FFF7C2FD68
:1033B00080BD00BF9812002080B500AF034800F028
:1033C00093FB3420FFF7B6FD80BD00BFF81400204A
:1033D00080B500AF034800F087FB3520FFF7AAFD5A
:1033E00080BD00BF5817002080B500AF034800F033
:1033F0007BFB4720FFF79EFD80BD00BFB819002072
:1034000080B500AF0D480E4901F0BEF80346002B11
:103410000CBF00230123DBB2002B0AD00748084968
:1034200001F00AF94620FFF785FD064800F08CFA06
:1034300002E04620FFF77EFD80BD00BFB864024079
:1034400000800028D80D002080B500AF0D480E493F
:1034500001F09AF80346002B0CBF00230123DBB2D6
:10346000002B0AD00748084901F0E6F81120FFF7C1
:1034700061FD064800F068FA02E01120FFF75AFDEE
:1034800080BD00BFA06002400080202038100020D6
:1034900080B500AF0D480E4901F076F80346002BC9
:1034A0000CBF00230123DBB2002B0AD007480849D8
:1034B00001F0C2F80E20FFF73DFD064800F044FA87
:1034C00002E00E20FFF736FD80BD00BF58600240CD
:1034D000008000189812002080B500AF0D480E49FA
:1034E00001F052F80346002B0CBF00230123DBB28E
:1034F000002B0AD00748084901F09EF84420FFF746
:1035000019FD064800F064FA02E04420FFF712FDBE
:1035100080BD00BF8864024000880020D80D0020D4
:1035200080B500AF0D480E4901F02EF80346002B80
:103530000CBF00230123DBB2002B0AD00748084947
:1035400001F07AF81020FFF7F5FC064800F040FA89
:1035500002E01020FFF7EEFC80BD00BF8860024053
:10356000008800203810002080B500AF0D480E49BB
:1035700001F00AF80346002B0CBF00230123DBB245
:10358000002B0AD00748084901F056F80C20FFF735
:10359000D1FC064800F01CFA02E00C20FFF7CAFC40
:1035A00080BD00BF286002400088001098120020F3
:1035B00080B582B000AF786039607B689B691B780A
:1035C000002B04D07B689B691B78062B02D94FF037
:1035D000FF3306E07B689B691846396800F05AFCA7
:1035E000034618460837BD4680BD00BF80B586B08B
:1035F00000AF78607B689B691B78002B35D07B68B7
:103600009B691B78062B30D87B689B695B697B6163
:103610007B689B69184600F011FC03461846FFF7CB
:103620006FFC786901F0BCFB07F10C03184601F050
:1036300071F900233B747B689B699B8CFB607B6802
:103640009B691A6A07F10C031046194601F0D4F879
:103650007B689B699B8BFB607B689B699A6907F120
:103660000C031046194601F0C7F81837BD4680BD57
:1036700080B588B000AFF860B9607A60FB689B697C
:103680001B78002B04D0FB689B691B78062B02D9A2
:103690004FF0FF3355E07B68002B01DC002350E046
:1036A00000237B610023FB61FB689B6903F14802F7
:1036B00007F114031046194600F0F8FCB861BB6925
:1036C000002B3DD07A697B689A4201DD7B687B6183
:1036D0000023FB610BE0FB69BA681344FA69B9691E
:1036E0000A441278D2B21A70FB690133FB617B691C
:1036F000FA699A42EFDBFB689B6903F148027B6938
:103700001046194600F002FDFB689B6993F83630BD
:10371000002B0BD0FB689B6993F83C30DBB283F045
:103720000103DBB2002B01D0012300E00023002BBA
:1037300004D0FB689B69184600F0A2F97B6900E0A1
:10374000002318462037BD4680BD00BF80B584B039
:1037500000AF78600B46FB707B689B691B78002B81
:1037600004D07B689B691B78062B02D94FF0FF338E
:103770003BE07B689B6903F5AA72FB78FB7307F15A
:103780000F031046194600F055FD0346002B2AD0C2
:103790007B689B695B69184640F22661002201F054
:1037A0008FFC7B689B6993F83630002B0FD07B68C9
:1037B0009B6993F83730DBB283F00103DBB2002B57
:1037C0000ED07B689B69184600F038F908E07B68EA
:1037D0009B695B69184640F22771012201F070FC79
:1037E00097F9033001E04FF0FF3318461037BD461C
:1037F00080BD00BF80B582B000AF78607B689B69F8
:103800001B78002B04D07B689B691B78062B01D9A1
:10381000002316E07B689B6903F5AA73184600F045
:1038200035FD0346002B0BD07B689B695B6918460E
:10383000402101F08DFC0346012B01D1012300E062
:10384000002318460837BD4680BD00BF80B582B052
:1038500000AF78607B689B691B78002B04D07B6885
:103860009B691B78062B01D9002309E07B689B69C3
:103870004833184600F00AFD034683F00103DBB22B
:1038800018460837BD4680BD80B586B000AFF860E9
:10389000B9607A60FB681B78002B03D0FB681B784B
:1038A000032B00D914E0FB681B785A1E0A4B53F80F
:1038B00022307B617869002100F024FEBA687B69C0
:1038C000DA607A687B695A607869012100F01AFE33
:1038D0001837BD4680BD00BF0800002080B586B007
:1038E00000AFF860B9607A60FB681B78002B03D0EA
:1038F000FB681B78032B00D920E0FB681B785A1E5D
:10390000104B53F822307B617869002100F0FAFDFA
:1039100000BF786900F020FE0346012B14BF00238E
:103920000123DBB2002BF4D1BA687B69DA607A68D4
:103930007B695A607869012100F0E4FD1837BD46C3
:1039400080BD00BF1400002080B586B000AF786055
:103950007B681B78002B03D07B681B78032B00D976
:1039600030E07B681B785A1E184B53F822307B617D
:10397000786900F0E3FD03463B617B689A6B3B6925
:10398000D31AFB607B6803F5AA731846F96800F048
:10399000BDFB7B6803F5AA73184600F077FC03466D
:1039A000002B0CD07B68002283F837207B685B6992
:1039B000184640F22661012201F082FB02E078689D
:1039C00000F03CF81837BD4680BD00BF080000205D
:1039D00090B585B000AF78607B681B78002B03D072
:1039E0007B681B78032B00D923E07B681B785A1E69
:1039F000114B53F82230FB607B681C6CF86800F0B8
:103A00009DFD0346E31ABB607B6848331846B968DE
:103A100000F0D0FBBB68002B08DD7B68DB681B680F
:103A200030331B687A68D26810469847786800F08F
:103A300027F81437BD4690BD1400002080B584B02F
:103A400000AF78607B6803F5AA7207F1080310469F
:103A5000194600F02BFBF860FB68002B0CD0BA680D
:103A60007B689A637B68012283F83720BB6878689B
:103A7000F9681A46FFF708FF1037BD4680BD00BF42
:103A800080B584B000AF78607B6803F1480207F12D
:103A900008031046194600F04DFBF860FB68002B48
:103AA00015D07B685A6CBB689A4202DA7B685B6C03
:103AB000BB60BA687B681A647B68012283F83C208B
:103AC000BB687868F9681A46FFF708FF08E07B686A
:103AD000002283F83C207B681B695A1C7B681A61B2
:103AE0001037BD4680BD00BF80B584B000AF7860A0
:103AF0007B685B691846082101F02AFB0346002B0E
:103B00000DD17B6893F83630002B0AD07B685B6957
:103B10001846602101F038FB0346002B01D0012339
:103B200000E00023002B0AD07B685B69184601F097
:103B3000B7FA7B681B695A1C7B681A6185E07B6851
:103B40005B69184640F2255101F01EFB0346002B2D
:103B50000CBF00230123DBB2002B25D07B685B69FF
:103B6000184601F09DFA0346DBB2FB737B6803F154
:103B7000480207F10F031046194600F05BFB0346AD
:103B800083F00103DBB2002B04D07B681B695A1C55
:103B90007B681A617B68DB681B6830331B687A6856
:103BA000D2681046984750E07B685B69184640F23F
:103BB000277101F0E9FA0346002B0CBF0023012313
:103BC000DBB2002B21D07B6803F5AA7207F10F034B
:103BD0001046194600F002FB0346002B04D07B6818
:103BE0005B69FA7B9A8030E07B685B69184640F23B
:103BF0002771002201F064FA7B685B69184640F285
:103C00002661012201F05CFA1FE07B685B691846BF
:103C100040F2266101F0B8FA0346002B0CBF0023E6
:103C20000123DBB2002B10D07B685B69184640F2A1
:103C30002661002201F044FA7B68DB681B682833A8
:103C40001B687A68D268104698471037BD4680BD19
:103C500080B485B000AF786039600023FB6002E07B
:103C6000FB680133FB603B685B083B603B68002BF3
:103C70000CBF00230123DBB2002BF1D1FB681846F7
:103C80001437BD465DF8047B704700BF80B483B035
:103C900000AF786039603B68264A934234D0254AA9
:103CA000934213D8244A934228D0234A934206D8F9
:103CB000224A93421ED0224A93421DD033E0214A29
:103CC00093421DD0204A93421CD02CE01F4A9342BD
:103CD00020D01E4A934206D81D4A934216D01D4A50
:103CE000934215D01FE01C4A934216D01B4A9342C0
:103CF00016D018E0012317E0022315E0042313E097
:103D0000082311E010230FE020230DE040230BE0F7
:103D1000802309E04FF4807306E04FF4007303E062
:103D20004FF4806300E0002318460C37BD465DF871
:103D3000047B70470014024000080240000002406B
:103D400000040240000C024000100240002002402B
:103D500000180240001C02400024024000280240DB
:103D600080B483B000AF78607B681B78013B072B81
:103D700028D801A252F823F0993D00089D3D000883
:103D8000A33D0008A93D0008AF3D0008B53D00086F
:103D9000B93D0008BF3D0008102314E04FF4003384
:103DA00011E04FF480230EE04FF400230BE04FF4BA
:103DB000801308E0202306E04FF0804303E04FF03B
:103DC000004300E0002318460C37BD465DF8047B35
:103DD000704700BF80B483B000AF78607B681B7809
:103DE000013B072B22D801A252F823F00D3E000818
:103DF000113E0008153E0008193E00081D3E00084F
:103E0000213E0008253E0008293E000807230EE059
:103E100007230CE007230AE0082308E0082306E054
:103E2000082304E0082302E0082300E000231846EA
:103E30000C37BD465DF8047B704700BF80B483B08B
:103E400000AF78607B681B78013B052B1AD801A274
:103E500052F823F06D3E0008713E0008753E0008E0
:103E6000793E00087D3E0008813E000825230AE0D7
:103E7000262308E0272306E0342304E0352302E06C
:103E8000472300E025235BB218460C37BD465DF89A
:103E9000047B7047B0B588B000AF786039607B684C
:103EA0001B78002B03D07B681B78062B02D94FF0C0
:103EB000FF33BDE03A687B689A607B685B691846AF
:103EC00000F06EFF7B681B78012B03D07B681B78AA
:103ED000062B08D17868FFF743FF034618460121F7
:103EE00000F06EFE07E07868FFF73AFF03461846D9
:103EF000012100F047FE7B689B6978681946FFF74F
:103F0000C5FE04467B681B6A78681946FFF7BEFE4B
:103F1000034623431846012100F016FE7B689B6987
:103F200078681946FFF7B2FE04467B681B6A78681A
:103F30001946FFF7ABFE034623431846002100F065
:103F40005DFE7B689D697B689B8B78681946FFF7EF
:103F50007FFE03469CB27868FFF73CFF0346284685
:103F600021461A4600F0F0FC7B681D6A7B689B8C3A
:103F700078681946FFF76CFE03469CB27868FFF735
:103F800029FF0346284621461A4600F0DDFC07F1CA
:103F90001803184600F0BEFC02233B777B689B8B1E
:103FA000BB617B689A6907F118031046194600F057
:103FB00023FC07F11803184600F0ACFC02233B7702
:103FC0007B689B8CBB617B681A6A07F118031046FB
:103FD000194600F011FC07F10803184601F024F817
:103FE0003B68BB607B685A6907F1080310461946B5
:103FF00000F060FF7B685B691846012101F030F832
:104000007B685B69184640F22551012201F058F89F
:104010007B685B69184640F22771012201F050F875
:104020007868FFF70BFF03461846FEF751FF0023A1
:1040300018462037BD46B0BD80B582B000AF78606D
:104040007B68084A1A607B681846FEF7FFFE00236B
:10405000002B02D07868FDF73BFD7B6818460837D7
:10406000BD4680BD70B9000880B582B000AF7860F1
:104070007868FFF7E1FF7868FDF72AFD7B6818464E
:104080000837BD4680BD00BF80B582B000AF786004
:104090007B68184600F020F97B68034A1A607B6849
:1040A00018460837BD4680BD58B9000880B485B0B1
:1040B00000AF786039607B68D3F80831FB607B68BB
:1040C000D3F80431BB60FA68BB689A4204D13B68FC
:1040D00000221A60002312E0FA68BB689A4205DAEF
:1040E000BA68FB68D21A3B681A6004E0FB68C3F543
:1040F00080723B681A607A68FB6813440433184680
:104100001437BD465DF8047B704700BF80B582B0B0
:1041100000AF786039607B68D3F808317868194659
:104120003A6800F0F3F802467B68C3F808210837C4
:10413000BD4680BD80B584B000AF786039607B68D3
:10414000D3F80831FB607B68D3F80431BB607B682F
:104150001846B96800F0F4F80246FB689A4214BFAA
:1041600000230123DBB2002B04D03B6800221A603D
:1041700000231BE0FA68BB689A4206DDFA68BB6858
:10418000D31A5A1E3B681A600CE0BB68C3F58072F4
:104190003B681A60FB68002B04D13B681B685A1E01
:1041A0003B681A607A68BB681344043318461037BA
:1041B000BD4680BD80B582B000AF786039607B6855
:1041C000D3F80431786819463A6800F09FF802463F
:1041D0007B68C3F804210837BD4680BD80B582B036
:1041E00000AF786039607B68D3F808217B68D3F82A
:1041F00004319A4214BF00230123DBB2002B01D00B
:10420000002313E07B68D3F808317A6813441A79E5
:104210003B681A707B68D3F808317868194600F05B
:104220008FF802467B68C3F8082101231846083737
:10423000BD4680BD80B584B000AF786039607B68D2
:10424000D3F804317868194600F07AF8F8607B6892
:10425000D3F80821FB689A4214BF00230123DBB284
:10426000002B01D000230CE07B68D3F804313A68BE
:10427000127879680B441A717B68FA68C3F80421D4
:10428000012318461037BD4680BD00BF80B483B0FF
:1042900000AF78607B68D3F808217B68D3F80431DD
:1042A0009A4214BF00230123DBB218460C37BD46E7
:1042B0005DF8047B704700BF80B483B000AF7860C6
:1042C0007B68044A1A607B6818460C37BD465DF867
:1042D000047B7047E0B9000880B582B000AF786019
:1042E0007B681846FFF7E8FF7B68074A1A607B681F
:1042F0000022C3F808217B680022C3F804217B68F0
:1043000018460837BD4680BD70B9000880B487B034
:1043100000AFF860B9607A60BA687B6813447B616B
:1043200003E07B69A3F580737B617B69FF2BF8DC7D
:104330007B6918461C37BD465DF8047B704700BF9B
:1043400080B483B000AF786039603B68FE2B02DC3C
:104350003B68013300E0002318460C37BD465DF88A
:10436000047B704780B582B000AF78607B68084AF4
:104370001A607B681846FFF75FFE0023002B02D00F
:104380007868FDF7A5FB7B6818460837BD4680BDF9
:1043900058B9000880B582B000AF78607868FFF740
:1043A000E1FF7868FDF794FB7B6818460837BD4647
:1043B00080BD00BF80B582B000AF78607B68084ADE
:1043C0001A607B68184601F0E9FE0023002B02D03A
:1043D0007868FDF77DFB7B6818460837BD4680BDD1
:1043E00088B9000880B582B000AF78607868FFF7C0
:1043F000E1FF7868FDF76CFB7B6818460837BD461F
:1044000080BD00BF80B582B000AF78607B6803F5E7
:10441000AA731846FFF7A6FF7B6848331846FFF7D4
:10442000A1FF7B6818460837BD4680BD90B583B0B4
:1044300000AF7860064C074B9C4205D0A4F5187479
:104440002046FFF7DFFFF6E70C37BD4690BD00BF03
:10445000181C0020780B0020B0B582B000AF786047
:1044600039607B68012B1ED13A684FF6FF739A4280
:1044700019D10E4B06241D4605E02846FEF78CFD9B
:1044800005F51875013CB4F1FF3FF6D1002008494D
:10449000084A03F0E7F90848FEF766FD06480749B1
:1044A000044A03F0DFF90837BD46B0BD780B0020A1
:1044B0002D440008340B0020201C0020B5430008C8
:1044C00080B584B000AFF860B9607A603B607B680B
:1044D000012B04D90648FDF703FA002304E0F8682D
:1044E0003968FFF7A7FE034618461037BD4680BD62
:1044F00040B5000880B500AF01204FF6FF71FFF70F
:10450000ABFF80BD80B483B000AF78600B46FB701A
:10451000FB78002B06D07B681B6843F001027B68A8
:104520001A6005E07B681B6823F001027B681A6053
:104530000C37BD465DF8047B704700BF80B483B084
:1045400000AF78607B685B689BB218460C37BD464D
:104550005DF8047B704700BF80B485B000AF786021
:104560000023FB737B681B6803F00103002B02D060
:104570000123FB7301E00023FB73FB7B1846143718
:10458000BD465DF8047B704780B487B000AF7860AB
:1045900039600023FB750023FB600023BB607A6851
:1045A000224B9A4202D8224B3B6101E0214B3B61F6
:1045B0003B6823F0F02323F0C313002B0AD03B68A1
:1045C000DB0A03F01E03FB607B681A68FB6813407C
:1045D000BB6004E07B685B6903F08003BB603B6801
:1045E00003F00053002B03D03B695B68FB6002E0E3
:1045F0003B691B68FB60FB6823F0F02323F0821308
:10460000FB60FA683B681340002B05D0BB68002BA9
:1046100002D00123FB7501E00023FB75FB7D1846EA
:104620001C37BD465DF8047B704700BF0F64024035
:10463000006002400064024080B485B000AF786042
:1046400039607A68104B9A4202D8104BFB6001E047
:104650000F4BFB603B6803F00053002B07D03B6817
:1046600023F0F02323F08213FA68D36006E03B685E
:1046700023F0F02323F08213FA6893601437BD46C9
:104680005DF8047B704700BF0F6402400060024089
:104690000064024080B582B000AF78607A684B4B0E
:1046A0009A4208D10120012100F0A8FA012000213E
:1046B00000F0A4FA86E07A68454B9A4208D10220BD
:1046C000012100F09BFA0220002100F097FA79E026
:1046D0007A68404B9A4208D10420012100F08EFAFA
:1046E0000420002100F08AFA6CE07A683A4B9A4282
:1046F00008D10820012100F081FA0820002100F0F3
:104700007DFA5FE07A68354B9A4208D1102001218A
:1047100000F074FA1020002100F070FA52E07A687C
:104720002F4B9A4208D12020012100F067FA202067
:10473000002100F063FA45E07A682A4B9A4208D1DA
:104740004020012100F05AFA4020002100F056FAE2
:1047500038E07A68244B9A4208D18020012100F089
:104760004DFA8020002100F049FA2BE07A681F4BB7
:104770009A420AD14FF48070012100F03FFA4FF4C1
:104780008070002100F03AFA1CE07A68184B9A42D7
:104790000AD14FF40070012100F030FA4FF400709C
:1047A000002100F02BFA0DE07A68124B9A4209D1F1
:1047B0004FF48060012100F021FA4FF48060002165
:1047C00000F01CFA0837BD4680BD00BF0000024063
:1047D0000004024000080240000C024000100240A9
:1047E0000014024000180240001C02400020024059
:1047F000002402400028024080B487B000AF7860F7
:10480000396000237B6100233B610023FB600023B0
:104810007B6176E07B69012202FA03F33B613B682E
:104820001A683B691340FB60FA683B699A4265D19C
:104830007B681A687B695B00032101FA03F3DB43A1
:104840001A407B681A607B681A683B681B791946B6
:104850007B695B0001FA03F31A437B681A603B68CB
:104860001B79012B03D03B681B79022B2ED17B686F
:104870009A687B695B00032101FA03F3DB431A406A
:104880007B689A607B689A683B685B7919467B69AC
:104890005B0001FA03F31A437B689A607B685A68ED
:1048A0007B699BB2012101FA03F3DB431A407B6869
:1048B0005A607B685A683B689B7919467B699BB252
:1048C00001FA03F39BB21A437B685A607B68DA688B
:1048D0007B699BB25B00032101FA03F3DB431A40BF
:1048E0007B68DA607B68DA683B68DB7919467B694C
:1048F0005B0001FA03F31A437B68DA607B690133DA
:104900007B617B690F2B85D91C37BD465DF8047B25
:10491000704700BF80B483B000AF78607B684FF60B
:10492000FF721A607B6800221A717B6800225A713C
:104930007B6800229A717B680022DA710C37BD46D1
:104940005DF8047B704700BF80B485B000AF78602D
:1049500013460A467A807B700023FB600023BB600D
:104960007A787B8803F007039B0002FA03F3FB606D
:104970007B88DB089BB21A467B88DB089BB2194612
:104980007B68083153F821107B8803F007039B00F4
:104990000F2000FA03F3DB4319407B68083243F829
:1049A00022107B88DB089BB21A467B68083253F8DA
:1049B0002220FB681343BB607B88DB089BB21A464E
:1049C0007B680832B96843F822101437BD465DF899
:1049D000047B704780B483B000AF0346FB71044B87
:1049E000FA791A600C37BD465DF8047B704700BF4A
:1049F000800E474280B489B000AF78600023BB616D
:104A000000237B610023FB6102233B610023FB60E9
:104A10000223BB60484B9B6803F00C03BB61BB697E
:104A2000042B07D0082B09D0002B3FD17B68434AC9
:104A30001A603FE07B68424A1A603BE03E4B5B688D
:104A400003F480039B0DFB603B4B5B6803F03F036B
:104A5000BB60FB68002B0DD0394ABB68B2FBF3F298
:104A6000354B596847F6C0730B409B0903FB02F3B3
:104A7000FB610CE0314ABB68B2FBF3F22E4B596884
:104A800047F6C0730B409B0903FB02F3FB612A4B03
:104A90005B6803F440331B0C01335B003B61FA6934
:104AA0003B69B2FBF3F27B681A6003E07B68234A40
:104AB0001A6000BF204B9B6803F0F003BB61BB6929
:104AC0001B09BB611F4ABB6913441B78DBB27B61C6
:104AD0007B681A687B69DA407B685A60164B9B6872
:104AE00003F4E053BB61BB699B0ABB61154ABB6918
:104AF00013441B78DBB27B617B685A687B69DA40C0
:104B00007B689A600C4B9B6803F46043BB61BB6994
:104B10005B0BBB610B4ABB6913441B78DBB27B6147
:104B20007B685A687B69DA407B68DA602437BD4667
:104B30005DF8047B704700BF003802400024F40099
:104B400000127A002000002080B483B000AF7860AB
:104B50000B46FB70FB78002B06D0094B084A116B03
:104B60007A680A431A6306E0054B054A116B7A68B6
:104B7000D2430A401A630C37BD465DF8047B704788
:104B80000038024080B483B000AF78600B46FB7001
:104B9000FB78002B06D0094B084A116C7A680A434F
:104BA0001A6406E0054B054A116C7A68D2430A4044
:104BB0001A640C37BD465DF8047B7047003802402C
:104BC00080B483B000AF78600B46FB70FB78002B9D
:104BD00006D0094B084A516C7A680A435A6406E0C9
:104BE000054B054A516C7A68D2430A405A640C3727
:104BF000BD465DF8047B70470038024080B483B046
:104C000000AF78600B46FB70FB78002B06D0094B99
:104C1000084A11697A680A431A6106E0054B054A99
:104C200011697A68D2430A401A610C37BD465DF8B3
:104C3000047B70470038024080B483B000AF7860D6
:104C40000B46FB70FB78002B06D0094B084A116A13
:104C50007A680A431A6206E0054B054A116A7A68C7
:104C6000D2430A401A620C37BD465DF8047B704798
:104C70000038024080B483B000AF78600B46FB7010
:104C8000FB78002B06D0094B084A516A7A680A4320
:104C90005A6206E0054B054A516A7A68D2430A40D7
:104CA0005A620C37BD465DF8047B704700380240FD
:104CB00080B487B000AF0346FB710023FB60002384
:104CC0007B610023FB74FB795B09DBB2FB60FB6853
:104CD000012B03D1124B1B687B6109E0FB68022B9F
:104CE00003D10F4B1B6F7B6102E00D4B5B6F7B6150
:104CF000FB7903F01F03FB60FB687A6922FA03F378
:104D000003F00103002B02D00123FB7401E0002318
:104D1000FB74FB7C18461C37BD465DF8047B70476E
:104D20000038024090B484B000AF02460B46FA71DE
:104D3000BB710023FB60BB7903F003039B000F22D0
:104D400002FA03F3FB60154BBA799208D2B2134909
:104D5000B8798008C0B2023051F82000F968C94320
:104D60000140023243F822100C4BBA799208D2B2B9
:104D70000A49B8798008C0B2023051F82000FC79A5
:104D8000B97901F00301890004FA01F1014302320B
:104D900043F822101037BD4690BC704700380140E0
:104DA00080B582B000AF78607A683A4B9A4208D1F9
:104DB00010200121FFF75EFF10200021FFF75AFFAE
:104DC00065E07A68344B9A420AD14FF400300121F1
:104DD000FFF732FF4FF400300021FFF72DFF56E0C0
:104DE0007A682E4B9A420AD14FF480200121FFF7B6
:104DF00023FF4FF480200021FFF71EFF47E07A6871
:104E0000274B9A420AD14FF400200121FFF714FFEB
:104E10004FF400200021FFF70FFF38E07A68214BA4
:104E20009A420AD14FF480100121FFF705FF4FF499
:104E300080100021FFF700FF29E07A681A4B9A42A0
:104E400008D120200121FFF715FF20200021FFF7C6
:104E500011FF1CE07A68154B9A420AD14FF080404E
:104E60000121FFF7E9FE4FF080400021FFF7E4FE4B
:104E70000DE07A680E4B9A4209D14FF000400121B3
:104E8000FFF7DAFE4FF000400021FFF7D5FE0837AC
:104E9000BD4680BD00100140004400400048004075
:104EA000004C0040005000400014014000780040D9
:104EB000007C004080B58AB000AF78603960002384
:104EC0007B6200233B620023FB610023BB617B68A4
:104ED0001B8A9BB27B627B6A23F440537B623B68F4
:104EE000DB887A6A13437B627B6A9AB27B681A8298
:104EF0007B689B899BB27B627B6A23F4B05323F06F
:104F00000C037B623B689A883B681B8913439AB207
:104F10003B685B8913439BB27A6A13437B627B6A6B
:104F20009AB27B689A817B689B8A9BB27B627B6A20
:104F300023F440737B623B689B897A6A13437B62EC
:104F40007B6A9AB27B689A8207F108031846FFF7DA
:104F500051FD7A68314B9A4203D07A68304B9A42BD
:104F600002D17B693B6201E03B693B627B689B89C4
:104F70009BB29BB21BB2002B0CDA3A6A13469B0021
:104F800013449A001A443B681B685B00B2FBF3F3BE
:104F9000FB610BE03A6A13469B0013449A001A44E3
:104FA0003B681B689B00B2FBF3F3FB61FA691D4B86
:104FB000A3FB02135B091B017B627B6A1B09642252
:104FC00002FB03F3FA69D31ABB617B689B899BB22E
:104FD0009BB21BB2002B0DDABB69DB0003F132027E
:104FE000104BA3FB02135B0903F007037A6A134318
:104FF0007B620CE0BB691B0103F13202094BA3FB8E
:1050000002135B0903F00F037A6A13437B627B6A26
:105010009AB27B681A812837BD4680BD00100140D6
:10502000001401401F85EB5180B483B000AF78605D
:105030007B684FF416521A607B6800229A807B6866
:105040000022DA807B6800221A817B680C225A8158
:105050007B6800229A810C37BD465DF8047B70475F
:1050600080B483B000AF78600B46FB70FB78002BF8
:1050700008D07B689B899BB243F400539AB27B684B
:105080009A8107E07B689B899BB223F400539AB214
:105090007B689A810C37BD465DF8047B704700BF82
:1050A00080B483B000AF78607B689B889BB2C3F309
:1050B00008039BB218460C37BD465DF8047B704769
:1050C00080B487B000AF786013460A467A807B7060
:1050D00000233B610023FB600023BB6000237B6156
:1050E0007B687B617B88DBB25B09DBB23B617B88E1
:1050F00003F01F03FB60FB68012202FA03F3BB60AD
:105100003B69012B03D17B690C337B6109E03B696F
:10511000022B03D17B6910337B6102E07B6914337E
:105120007B617B78002B06D07B697A691168BA684D
:105130000A431A6006E07B697A691168BA68D2434B
:105140000A401A601C37BD465DF8047B704700BFFB
:1051500080B485B000AF78600B467B800023FB7382
:105160007B681B889AB27B8813409BB2002B02D0CD
:105170000123FB7301E00023FB73FB7B184614370C
:10518000BD465DF8047B704780B487B000AF78609F
:105190000B467B800023FB6000237B610023BB6008
:1051A0000023FB747B88DBB25B09DBB2BB607B88CE
:1051B00003F01F037B617B69012202FA03F37B6129
:1051C000BB68012B06D17B689B899BB27A6913402F
:1051D0007B610FE0BB68022B06D17B681B8A9BB208
:1051E0007A6913407B6105E07B689B8A9BB27A6990
:1051F00013407B617B881B0A9BB2FB60FB6801222A
:1052000002FA03F3FB607B681B889BB2FA681340C9
:10521000FB607B69002B05D0FB68002B02D00123CB
:10522000FB7401E00023FB74FB7C18461C37BD4671
:105230005DF8047B704700BF80B483B000AF0346C5
:105240003960FB7197F90730002B0BDA0D49FB79B8
:1052500003F00F03043B3A68D2B21201D2B20B44FE
:105260001A7609E0084997F907303A68D2B2120174
:10527000D2B20B4483F800230C37BD465DF8047BA3
:10528000704700BF00ED00E000E100E080B584B0B1
:1052900000AF194B00221A606FF00100FF21FFF7E9
:1052A000CBFF4FF0FF30FF21FFF7C6FF1C20FF218F
:1052B000FFF7C2FF00F0A2FC00F00CF902460F4B12
:1052C0001A600F4B1A680F4B1A600F484FF4E13108
:1052D000FEF76EF900F0FEFA3B461846FFF78AFB30
:1052E0003A680A4BA3FB02139B0C09481946FCF7CA
:1052F000B1FA1037BD4680BD741C0020941C0020FC
:10530000107AFF1F54000020781C002083DE1B430E
:1053100050B5000880B400AF72B6BD465DF8047B9E
:10532000704700BF80B400AF62B6BD465DF8047B35
:10533000704700BF80B483B000AF786039607B688D
:10534000043B7B607B684FF080721A607B68043B93
:105350007B60104A7B681A607B68043B7B607B68DB
:1053600000221A607B68143B7B603A687B681A6095
:105370007B68043B7B607B686FF002021A607B688D
:10538000203B7B607B6818460C37BD465DF8047B8C
:10539000704700BFA564000803480068006880F3F8
:1053A000088862B600DF00BF08ED00E00349086826
:1053B000B0E8F04F80F30988704700BF701C0020F0
:1053C00071B6EFF309801EF0100F08BF20ED108AB0
:1053D00020E9F04F00F008FD06490868B0E8F04FFA
:1053E0001EF0100F08BFB0EC108A80F3098861B678
:1053F000704700BF701C002080B483B000AF78609D
:10540000034B7A681A600C37BD465DF8047B704721
:10541000701C002080B400AF044B044A526842F074
:1054200080525A60BD465DF8047B704700ED00E095
:1054300098B500AF1848102102F08AF80346002BF7
:105440000CBF00230123DBB2002B24D0134B1B68BD
:105450001C46621C114B1A600F4801F0D5FF034631
:105460009AB20F4B23F814200B48102102F09AF83F
:105470000A4B1B68012B0ED9094B5A88084B1B8815
:10548000D31A9BB21A46074B1A60044B00221A60CB
:10549000054B01221A7098BD000C0040A01C002092
:1054A000A41C0020981C00209C1C002080B400AF8D
:1054B000BD465DF8047B704780B500AF044B1B68A8
:1054C000002B02D1FFF7B4FF01E0FFF7EFFF80BD33
:1054D000941C002080B588B000AF414B1B68002BA6
:1054E00002D03F4B1B6876E03E4B00221A603E4BD9
:1054F00000221A703D4B00221A600120FFF76AFA61
:1055000000BF6120FFF7D4FB0346002B14BF00232C
:105510000123DBB2002BF4D108200121FFF732FB7D
:105520003348402102F04EF831480021012201F0B9
:10553000D7FE0C233B8200237B820123BB820C23FA
:10554000FB8200233B8307F110032948194601F031
:1055500007FF32233B7700237B770023BB770123B0
:10556000FB7707F11C03184601F014FD20480121C8
:1055700001F0D6FE1E4B00221A821D481021012286
:1055800001F0C2FF00BF184B1B78DBB283F00103B0
:10559000DBB2002BF7D1164801F05AFD3B46184606
:1055A000FFF728FA134B9B6803F4E053002B14BF5A
:1055B00000230123DBB2002B06D0BA68094B1B681D
:1055C000B2FBF3F3DB0006E0BB685A00054B1B6837
:1055D000B2FBF3F3DB0018462037BD4680BD00BFA9
:1055E000941C0020981C00209C1C0020A01C002063
:1055F000000C00400038024080B582B000AF7860F7
:1056000039607B68012B08D13A684FF6FF739A42E4
:1056100003D103480321FDF733FD0837BD4680BDA4
:10562000781C002080B500AF01204FF6FF71FFF716
:10563000E3FF80BD80B483B000AF0346FB71084B2D
:1056400097F907205209F97901F01F01012000FAAA
:1056500001F143F822100C37BD465DF8047B70471A
:1056600000E100E080B483B000AF0346FB71094B5A
:1056700097F907205209F97901F01F01012000FA7A
:1056800001F1603243F822100C37BD465DF8047B0F
:10569000704700BF00E100E080B483B000AF034674
:1056A0003960FB7197F90730002B0BDA0D49FB7954
:1056B00003F00F03043B3A68D2B21201D2B20B449A
:1056C0001A7609E0084997F907303A68D2B2120110
:1056D000D2B20B4483F800230C37BD465DF8047B3F
:1056E000704700BF00ED00E000E100E080B582B04F
:1056F00000AF144B1B7883F00103DBB2002B00D00A
:105700001CE0FCF76FFAC7E90001D7E9000101F0DE
:1057100085FBFCF767FA0C4BD3E90023904271EB51
:10572000030CACBF00230123DBB2002B00D005E04B
:10573000064B064A526842F080525A600837BD460E
:1057400080BD00BF4C000020D01C002000ED00E018
:1057500080B582B000AF78607B68B3F1807F01D301
:1057600001230EE0094B7A6822F07F42013A5A6029
:105770004FF0FF300F21FFF78FFF044B00229A609C
:10578000002318460837BD4680BD00BF10E000E08A
:1057900080B400AF044B03221A6000231846BD46B4
:1057A0005DF8047B704700BF10E000E080B400AFFC
:1057B000044B00221A6000231846BD465DF8047BA6
:1057C000704700BF10E000E0B0B500AF0F4B1B68A2
:1057D000DB0818464FF000010D4BD3E9002302FB14
:1057E00001F500FB03F42C44A0FB0223E1180B4657
:1057F00010461946074A4FF00003FBF763F90246CB
:105800000B4613461846FFF7A3FFB0BD3800002033
:105810003000002040420F00B0B500AF104B1B68B5
:10582000DB0818464FF000010E4BD3E9002302FBC2
:1058300001F500FB03F42C44A0FB0223E1180B4606
:1058400010461946084A4FF00003FBF73BF90246A1
:105850000B4613461846FFF77BFFFFF799FFB0BDD5
:10586000380000203000002040420F0080B500AF1B
:10587000FFF79CFF80BD00BF80B483B000AFC7E9D5
:1058800000010549D7E90023C1E900230C37BD46D3
:105890005DF8047B704700BF3000002080B500AF8A
:1058A0000948012101F07EFE3720FFF7DBFE074BA0
:1058B000D3E90001064A4FF00003121843EB01033D
:1058C0000249C1E9002380BD00140040A81C00204B
:1058D0008096980080B588B000AF0023FB77202029
:1058E0000121FFF74FF920200021FFF7A5F93B46E2
:1058F0001846FFF77FF81E4801F0AAFB7A68BB68DC
:10590000B2FBF3F3012B02D90223FB7701E0012361
:10591000FB774EF660237B61BB68FA7F02FB03F2E4
:10592000144BA3FB0213DB0C9BB2013B9BB23B82EB
:1059300000237B8200233B830023BB7607F1100307
:105940000B48194601F062FC09480121012201F0CF
:10595000DBFD2020012101F0FFFA0548012101F0C3
:10596000DFFC3720FFF766FE2037BD4680BD00BF55
:1059700000140040819F5E1680B58CB000AF0023FC
:10598000FB624FF000024FF00003C7E90823EFF37A
:105990001383FB60FB68FB610123BB60BB6883F37F
:1059A0001388254801F0B0FC0346FB62234BD3E982
:1059B0000023C7E90823FB697B607B6883F31388B6
:1059C0004FF000024FF00003C7E9042318A3D3E906
:1059D0000023C7E90423FB6A1A464FEAE273796998
:1059E00002FB01F0396903FB01F101443869A0FBB6
:1059F000022319440B46C7E90423C7E90423D7E966
:105A00000423104619460E4A4FF00003FBF75AF8DC
:105A100002460B46C7E90423D7E90801D7E9042366
:105A2000121843EB0103104619463037BD4680BDBE
:105A3000AA21EF090000000000140040A81C00206B
:105A400040420F00AFF3008080B400AF05494FF033
:105A500000024FF00003C1E90023BD465DF8047B5E
:105A6000704700BFA81C002080B485B000AF7860EC
:105A7000144B1B68002B02D1124B134A1A60114BB6
:105A80001B68FB600F4B1A687B681A440F4B1B782E
:105A90005BB259420E4B0B449A4206D900BE0D4BE5
:105AA0000C221A604FF0FF3306E0064B1A687B6841
:105AB0001A44044B1A60FB6818461437BD465DF85B
:105AC000047B7047B01C002094BD0020000400003F
:105AD0000000022090BD002080B582B000AF786049
