:020000040800F2
:10000000000002202D2600089926000899260008E5
:10001000992600089926000899260008000000008B
:100020000000000000000000000000006D720008E9
:10003000992600080000000081720008AD750008D4
:100040009926000899260008992600089926000894
:100050009926000899260008C12E0008E52E000800
:10006000092F00082D2F0008512F0008992600089D
:1000700019470008992600084146000899260008FB
:10008000D1460008F945000899260008992600087D
:10009000992600089926000899260008752F00085F
:1000A0009926000899260008992600089926000834
:1000B0009926000899260008992600089926000824
:1000C0009926000899260008992600089926000814
:1000D00099260008214500083945000851450008C7
:1000E000D12F0008992600089926000899260008B3
:1000F00099260008992600089926000899260008E4
:1001000099260008992600087973000899260008A6
:100110006945000881450008992600085D770008B8
:1001200099260008992600089926000899260008B3
:1001300099260008992600089926000899260008A3
:100140009926000899260008992600089926000893
:100150008946000899260008B1450008994500081D
:100160009926000899260008992600089926000873
:100170009926000899260008992600089926000863
:0C018000992600089926000800000008DD
:1001900081F0004102E000BF83F0004330B54FEA38
:1001A00041044FEA430594EA050F08BF90EA020FA5
:1001B0001FBF54EA000C55EA020C7FEA645C7FEA38
:1001C000655C00F0E2804FEA5454D4EB5555B8BF5B
:1001D0006D420CDD2C4480EA020281EA030382EACC
:1001E000000083EA010180EA020281EA0303362D5E
:1001F00088BF30BD11F0004F4FEA01314FF4801C31
:100200004CEA113102D0404261EB410113F0004F42
:100210004FEA03334CEA133302D0524263EB4303F9
:1002200094EA050F00F0A780A4F10104D5F1200E97
:100230000DDB02FA0EFC22FA05F2801841F10001F2
:1002400003FA0EF2801843FA05F359410EE0A5F1C6
:1002500020050EF1200E012A03FA0EFC28BF4CF0F7
:10026000020C43FA05F3C01851EBE37101F00045AD
:1002700007D54FF0000EDCF1000C7EEB00006EEBBA
:100280000101B1F5801F1BD3B1F5001F0CD3490844
:100290005FEA30004FEA3C0C04F101044FEA44529B
:1002A00012F5800F80F09A80BCF1004F08BF5FEA22
:1002B000500C50F1000041EB045141EA050130BD02
:1002C0005FEA4C0C404141EB010111F4801FA4F1A5
:1002D0000104E9D191F0000F04BF01460020B1FAFA
:1002E00081F308BF2033A3F10B03B3F120020CDA32
:1002F0000C3208DD02F1140CC2F10C0201FA0CF010
:1003000021FA02F10CE002F11402D8BFC2F1200C74
:1003100001FA02F120FA0CFCDCBF41EA0C0190402A
:10032000E41AA2BF01EB0451294330BD6FEA040473
:100330001F3C1CDA0C340EDC04F11404C4F120025E
:1003400020FA04F001FA02F340EA030021FA04F370
:1003500045EA030130BDC4F10C04C4F1200220FAC7
:1003600002F001FA04F340EA0300294630BD21FA05
:1003700004F0294630BD94F0000F83F4801306BFCB
:1003800081F480110134013D4EE77FEA645C18BFBF
:100390007FEA655C29D094EA050F08BF90EA020F56
:1003A00005D054EA000C04BF1946104630BD91EA4E
:1003B000030F1EBF0021002030BD5FEA545C05D151
:1003C0004000494128BF41F0004130BD14F5800490
:1003D0003CBF01F5801130BD01F0004545F0FE4104
:1003E00041F470014FF0000030BD7FEA645C1ABF39
:1003F000194610467FEA655C1CBF0B46024650EA70
:10040000013406BF52EA033591EA030F41F400219B
:1004100030BD00BF90F0000F04BF0021704730B521
:100420004FF4806404F132044FF000054FF00001F6
:1004300050E700BF90F0000F04BF0021704730B5B7
:100440004FF4806404F1320410F0004548BF40428C
:100450004FF000013EE700BF42004FEAE2014FEAE1
:1004600031014FEA02701FBF12F07F4393F07F4FBC
:1004700081F06051704792F0000F14BF93F07F4FEE
:10048000704730B54FF4607401F0004521F0004131
:1004900020E700BF50EA010208BF704730B54FF0B7
:1004A00000050AE050EA010208BF704730B511F0BC
:1004B000004502D5404261EB41014FF4806404F1F4
:1004C00032045FEA915C3FF4DCAE4FF003025FEA76
:1004D000DC0C18BF03325FEADC0C18BF033202EBFE
:1004E000DC02C2F1200300FA03FC20FA02F001FA58
:1004F00003FE40EA0E0021FA02F11444C1E600BFF7
:1005000070B54FF0FF0C4CF4E06C1CEA11541DBFA9
:100510001CEA135594EA0C0F95EA0C0F00F0DEF874
:100520002C4481EA030621EA4C5123EA4C5350EA59
:10053000013518BF52EA033541F4801143F48013AA
:1005400038D0A0FB02CE4FF00005E1FB02E506F03B
:100550000042E0FB03E54FF00006E1FB03569CF090
:10056000000F18BF4EF0010EA4F1FF04B6F5007F96
:1005700064F5407404D25FEA4E0E6D4146EB060608
:1005800042EAC62141EA55514FEAC52040EA5E5091
:100590004FEACE2EB4F1FD0C88BFBCF5E06F1ED83B
:1005A000BEF1004F08BF5FEA500E50F1000041EB72
:1005B000045170BD06F0004646EA010140EA02001F
:1005C00081EA0301B4EB5C04C2BFD4EB0C0541EA41
:1005D000045170BD41F480114FF0000E013C00F356
:1005E000AB8014F1360FDEBF002001F0004170BD7A
:1005F000C4F10004203C35DA0C341BDC04F1140493
:10060000C4F1200500FA05F320FA04F001FA05F21E
:1006100040EA020001F0004221F0004110EBD370EB
:1006200021FA04F642EB06015EEA430E08BF20EA17
:10063000D37070BDC4F10C04C4F1200500FA04F3BA
:1006400020FA05F001FA04F240EA020001F000414C
:1006500010EBD37041F100015EEA430E08BF20EABF
:10066000D37070BDC4F1200500FA05F24EEA020E07
:1006700020FA04F301FA05F243EA020321FA04F036
:1006800001F0004121FA04F220EA020000EBD370ED
:100690005EEA430E08BF20EAD37070BD94F0000FED
:1006A0000FD101F00046400041EB010111F4801F21
:1006B00008BF013CF7D041EA060195F0000F18BFD2
:1006C000704703F00046520043EB030313F4801F0E
:1006D00008BF013DF7D043EA0603704794EA0C0FC8
:1006E0000CEA135518BF95EA0C0F0CD050EA4106DE
:1006F00018BF52EA4306D1D181EA030101F000415B
:100700004FF0000070BD50EA410606BF1046194682
:1007100052EA430619D094EA0C0F02D150EA01368E
:1007200013D195EA0C0F05D152EA03361CBF1046CF
:1007300019460AD181EA030101F0004141F0FE416E
:1007400041F470014FF0000070BD41F0FE4141F4F2
:10075000780170BD70B54FF0FF0C4CF4E06C1CEAF2
:1007600011541DBF1CEA135594EA0C0F95EA0C0FA7
:1007700000F0A7F8A4EB050481EA030E52EA033562
:100780004FEA013100F088804FEA03334FF0805583
:1007900045EA131343EA12634FEA022245EA1115B0
:1007A00045EA10654FEA00260EF000419D4208BF61
:1007B000964244F1FD0404F5407402D25B084FEA0E
:1007C0003202B61A65EB03055B084FEA32024FF4BA
:1007D00080104FF4002CB6EB020E75EB030E22BF17
:1007E000B61A754640EA0C005B084FEA3202B6EBD7
:1007F000020E75EB030E22BFB61A754640EA5C0086
:100800005B084FEA3202B6EB020E75EB030E22BF15
:10081000B61A754640EA9C005B084FEA3202B6EB16
:10082000020E75EB030E22BFB61A754640EADC00D5
:1008300055EA060E18D04FEA051545EA16754FEA37
:1008400006164FEAC30343EA52734FEAC2025FEA55
:100850001C1CC0D111F4801F0BD141EA00014FF0E4
:1008600000004FF0004CB6E711F4801F04BF0143B5
:100870000020B4F1FD0C88BFBCF5E06F3FF6AFAED1
:10088000B5EB030C04BFB6EB020C5FEA500C50F161
:10089000000041EB045170BD0EF0004E4EEA1131E4
:1008A00014EB5C04C2BFD4EB0C0541EA045170BDEB
:1008B00041F480114FF0000E013C90E645EA060E2F
:1008C0008DE60CEA135594EA0C0F08BF95EA0C0F5D
:1008D0003FF43BAF94EA0C0F0AD150EA01347FF4A5
:1008E00034AF95EA0C0F7FF425AF104619462CE77C
:1008F00095EA0C0F06D152EA03353FF4FDAE1046DF
:10090000194622E750EA410618BF52EA43067FF42F
:10091000C5AE50EA41047FF40DAF52EA43057FF4BF
:10092000EBAE12E74FF0FF3C06E000BF4FF0010CCA
:1009300002E000BF4FF0010C4DF804CD4FEA410C2E
:100940007FEA6C5C4FEA430C18BF7FEA6C5C1BD0FB
:1009500001B050EA410C0CBF52EA430C91EA030F7C
:1009600002BF90EA020F0020704710F1000F91EAD9
:10097000030F58BF994208BF90422CBFD8176FEAA7
:10098000E37040F0010070474FEA410C7FEA6C5C75
:1009900002D150EA013C07D14FEA430C7FEA6C5C7C
:1009A000D6D152EA033CD3D05DF8040B704700BFA8
:1009B0008446104662468C461946634600E000BFF6
:1009C00001B5FFF7B7FF002848BF10F1000F01BDC8
:1009D0004DF808EDFFF7F4FF0CBF012000205DF893
:1009E00008FB00BF4DF808EDFFF7EAFF34BF012018
:1009F00000205DF808FB00BF4DF808EDFFF7E0FFB1
:100A000094BF012000205DF808FB00BF4DF808ED01
:100A1000FFF7CEFF94BF012000205DF808FB00BF68
:100A20004DF808EDFFF7C4FF34BF012000205DF84A
:100A300008FB00BF4A0011D212F5001211D20DD5E9
:100A40006FF47873B3EB62520ED44FEAC12343F0D4
:100A5000004343EA505323FA02F070474FF000007E
:100A6000704750EA013002D14FF0FF3070474FF02D
:100A70000000704773B96AB9002908BF0028BCBFDD
:100A800000204FF00041C4BF6FF000414FF0FF3035
:100A900000F08CB882B0EC462DE9005000F056F81A
:100AA000DDF804E002B00CBC704700BF4BB942B99E
:100AB000002908BF002802D04FF0FF31084600F09F
:100AC00075B882B0EC462DE9005000F057F8DDF81B
:100AD00004E002B00CBC704738B500220023044685
:100AE0000D46FFF77FFF28B920462946BDE838406C
:100AF00000F00AB8204605F1004100F005F8404238
:100B000061EB410138BD00BF70B500220D4B0446BA
:100B10000D46FFF7F5FCFFF78DFF0646FFF77AFC61
:100B20000022094BFFF7ECFC02460B462046294603
:100B3000FFF732FBFFF77EFF002242EA0004204667
:100B4000314670BD0000F03D0000F0412DE97043DA
:100B5000069E14461D468046894600F029F804FB8F
:100B600001F300FB0533A4FB00451D44B8EB04046E
:100B700069EB0505C6E90045BDE870832DE97043C2
:100B8000069E1446804689461D4600F05DF900FB2E
:100B900005F504FB0153A0FB04451D44B8EB040418
:100BA00069EB0505C6E90045BDE87083704700BFE5
:100BB00000292DE9F00FC0F29F800024002BC0F225
:100BC0009680154606460F46002B3ED18A4257D9DD
:100BD000B2FA82F34BB1C3F1200201FA03F720FA13
:100BE00002F29D40174300FA03F6290CB7FBF1F21D
:100BF000330C01FB127CA8B243EA0C4700FB02F362
:100C0000BB4209D97F1902F1FF3C80F00181BB4250
:100C100040F2FE80023A2F44FF1AB7FBF1F3B6B25E
:100C200001FB137146EA014100FB03F0884208D939
:100C3000491903F1FF3780F0ED80884240F2EA80E5
:100C4000023B43EA0242002303E08B420AD900231D
:100C50001A461046194614B1404261EB4101BDE805
:100C6000F00F7047B3FA83F8B8F1000F40F08480BA
:100C70008B4202D3824200F2DE8000230122E8E7A9
:100C800012B90123B3FBF2F5B5FA85F2002A39D186
:100C90007F1B280C1FFA85FC0123B7FBF0F1320CF7
:100CA00000FB117742EA07470CFB01F2BA4207D971
:100CB0007F1901F1FF3802D2BA4200F2C1804146E9
:100CC000BF1AB7FBF0F2B6B200FB127046EA004062
:100CD0000CFB02FC844507D9401902F1FF3702D210
:100CE000844500F2AB803A4642EA0142B1E7E44370
:100CF000524263EB430364E7404261EB41014FF032
:100D0000FF345BE79540C2F1200327FA03F1280C7A
:100D100026FA03F39740B1FBF0F81F433B0C00FBAE
:100D200018111FFA85FC43EA01410CFB08F38B42C2
:100D300006FA02F608D9491908F1FF3279D28B4236
:100D400077D9A8F102082944C91AB1FBF0F3BFB260
:100D500000FB131147EA01470CFB03F2BA4207D923
:100D60007F1903F1FF3160D2BA425ED9023B2F44B2
:100D7000BF1A43EA084390E7C8F1200203FA08FCCF
:100D800025FA02F343EA0C0C4FEA1C4921FA02F35C
:100D900001FA08F720FA02F2B3FBF9F1174309FB55
:100DA00011333A0C1FFA8CFB42EA03430BFB01FAA6
:100DB0009A4505FA08F008D913EB0C0301F1FF324C
:100DC00035D29A4533D902396344CAEB0303B3FBE6
:100DD000F9F209FB1233BFB247EA03470BFB02F9F2
:100DE000B94508D917EB0C0702F1FF331BD2B945FF
:100DF00019D9023A674442EA0145A5FB0001C9EB53
:100E000007078F424FF000030AD305D02A4620E798
:100E1000624601E73B4614E706FA08F68642F5D239
:100E20006A1E002315E71A46E5E70B46A0E71146C0
:100E3000CBE7904688E7434642460AE7023A53E743
:100E400002392F443CE700BF2DE9F00F1446054658
:100E50000E46002B43D18A4253D9B2FA82F757B1DA
:100E6000C7F1200620FA06F601FA07F302FA07F4A2
:100E70001E4300FA07F5210CB6FBF1F22B0C01FB27
:100E80001267A0B243EA074600FB02F3B34209D956
:100E9000361902F1FF3780F0F680B34240F2F3805A
:100EA000023A2644F61AB6FBF1F3ADB201FB136128
:100EB00045EA014100FB03F0884208D9091903F112
:100EC000FF3680F0E280884240F2DF80023B43EA56
:100ED0000242002310461946BDE8F00F70478B42CE
:100EE0004AD8B3FA83F6002E4DD18B4202D3824208
:100EF00000F2D6800023012210461946BDE8F00F0B
:100F0000704712B90124B4FBF2F4B4FA84F2002A57
:100F10007CD1091B260CA7B20123B1FBF6F02A0CE9
:100F200006FB101142EA014107FB00F28A4207D991
:100F3000091900F1FF3C02D28A4200F2C3806046E8
:100F4000891AB1FBF6F2ADB206FB121145EA014572
:100F500007FB02F7AF4208D92C1902F1FF3180F0EC
:100F60009680A74240F29380023A42EA004210463D
:100F70001946BDE8F00F704700231A46104619467F
:100F8000BDE8F00F7047C6F1200522FA05F4B34022
:100F90001C434FEA144821FA05F301FA06F720FA38
:100FA00005F5B3FBF8FC2F4308FB1C333D0C1FFA7F
:100FB00084FA45EA03430AFB0CF9994502FA06FB59
:100FC00004D91B190CF1FF326DD39446C9EB03030E
:100FD000B3FBF8F508FB1533BFB247EA03470AFB3A
:100FE00005F8B84504D93F1905F1FF3361D31D4613
:100FF00045EA0C4CACFB0B23C8EB07079F424FF0B4
:10100000000549D345D062462B4663E79440C2F1C0
:10101000200321FA03FC260C20FA03F301FA02F55F
:10102000BCFBF6F843EA05010B0C06FB18CCA7B293
:1010300043EA0C4C07FB08F3634500FA02F509D9B3
:101040001CEB040C08F1FF323AD2634538D9A8F101
:101050000208A444C3EB0C0CBCFBF6F389B206FBFC
:1010600013CC41EA0C4107FB03F28A4207D9091964
:1010700003F1FF3022D28A4220D9023B2144891A4F
:1010800043EA084349E73A460CE733461FE70A4676
:101090006BE7B0409042B6D20CF1FF32002319E763
:1010A0003346324616E799458FD9ACF1020C2344FA
:1010B0008CE7B8459BD9023D274499E70346DEE714
:1010C0009046C7E7023821443AE700BF80B582B0B6
:1010D00000AF78607B680A4A1A600A4800F074FC26
:1010E0007B680433184600F0EFFC0023002B02D08D
:1010F000786800F015FD7B6818460837BD4680BD4E
:1011000080980008E48E000880B582B000AF786057
:101110007868FFF7DBFF786800F002FD7B6818460F
:101120000837BD4680BD00BF80B584B000AFF86011
:10113000B9607A60FB681846B9680C227B6800F0D9
:10114000E5FDFB68034A1A60FB6818461037BD4688
:1011500080BD00BF7098000880B582B000AF786095
:1011600039607B68012B0FD13A684FF6FF739A42C2
:101170000AD107484FF0FF31064AFFF7D5FF044870
:101180000549064A07F0A8FE0837BD4680BD00BFE6
:1011900058000020208F0008A11100080C04002036
:1011A00080B582B000AF78607B680A4A1A600A484E
:1011B00000F00AFC7B681846FFF788FF0023002B2D
:1011C00002D0786800F0ACFC7B6818460837BD4652
:1011D00080BD00BF70980008248F000880B582B0E1
:1011E00000AF78607868FFF7DBFF786800F098FC64
:1011F0007B6818460837BD4680BD00BF80B500AF8C
:1012000001204FF6FF71FFF7A7FF80BD80B584B0C6
:1012100000AFF860B9607A60FB681846B9680622CA
:101220007B6800F073FDFB68034A1A60FB68184690
:101230001037BD4680BD00BFA098000880B584B0BF
:1012400000AFF860B9607A60FB681846B96801229F
:101250007B6800F05BFDFB68034A1A60FB68184678
:101260001037BD4680BD00BF9098000880B582B0A1
:1012700000AF786039607B68012B30D13A684FF657
:10128000FF739A422BD117484FF0FF31164AFFF7F0
:10129000BDFF14481549164A07F01EFE15484FF0C9
:1012A000FF31154AFFF7B2FF12481049104A07F004
:1012B00013FE12484FF0FF31114AFFF7A7FF0F4806
:1012C0000A490B4A07F008FE0E484FF0FF310E4A5C
:1012D000FFF7B4FF0B480D49054A07F0FDFD08373D
:1012E000BD4680BD7C000020B89000086D1300084A
:1012F0000C040020A0000020C8900008C4000020BA
:10130000D8900008E8000020E090000811130008C1
:1013100080B582B000AF78607B680A4A1A600A48DC
:1013200000F052FB7B681846FFF7D0FE0023002B2D
:1013300002D0786800F0F4FB7B6818460837BD4699
:1013400080BD00BF90980008EC90000880B582B086
:1013500000AF78607868FFF7DBFF786800F0E0FBAB
:101360007B6818460837BD4680BD00BF80B582B097
:1013700000AF78607B680A4A1A600A4800F024FBD4
:101380007B681846FFF7A2FE0023002B02D0786886
:1013900000F0C6FB7B6818460837BD4680BD00BF1D
:1013A000A0980008EC90000880B582B000AF78608B
:1013B0007868FFF7DBFF786800F0B2FB7B681846BF
:1013C0000837BD4680BD00BF80B500AF01204FF695
:1013D000FF71FFF74BFF80BD80B584B000AFF860B0
:1013E000B9607A60FB681846B96804227B6800F02F
:1013F0008DFCFB68034A1A60FB6818461037BD462F
:1014000080BD00BFB098000880B582B000AF7860A2
:1014100039607B68012B0FD13A684FF6FF739A420F
:101420000AD107484FF0FF31064AFFF7D5FF0448BD
:101430000549064A07F050FD0837BD4680BD00BF8C
:101440000C01002014920008511400080C04002024
:1014500080B582B000AF78607B680A4A1A600A489B
:1014600000F0B2FA7B681846FFF730FE0023002B2D
:1014700002D0786800F054FB7B6818460837BD46F8
:1014800080BD00BFB09800082092000880B582B0EF
:1014900000AF78607868FFF7DBFF786800F040FB0A
:1014A0007B6818460837BD4680BD00BF80B500AFD9
:1014B00001204FF6FF71FFF7A7FF80BD80B582B016
:1014C00000AF78607B68084A1A607B68184606F0AF
:1014D0007FFD0023002B02D0786800F021FB7B68A1
:1014E00018460837BD4680BDC098000880B582B058
:1014F00000AF78607868FFF7E1FF786800F010FBD4
:101500007B6818460837BD4680BD00BF80B582B0F5
:1015100000AF786039607B68012B24D13A684FF6C0
:10152000FF739A421FD11148114940F2D17200F065
:101530001BF90E480F49104A07F0CEFC0F48032153
:1015400002F076FE0E48032101F098FD0D480221BD
:1015500001F094FD0C480D4900F08CF80A480C4944
:10156000054A07F0B9FC0837BD4680BD30010020B0
:1015700030920008A91700080C0400204C0100203C
:101580006801002084010020A00100203C92000896
:10159000BD14000880B500AF01204FF6FF71FFF7C2
:1015A000B5FF80BD80B582B000AF786012480121E0
:1015B0000122012301F070FA0F48012101220023CA
:1015C00001F06AFA0D4800210122002301F064FABB
:1015D0000B4801210122002301F05EFA09484FF473
:1015E0007A71642201F0EEFE0648192102F048FBF0
:1015F0000837BD4680BD00BFF80100203002002042
:101600004C0200206802002080B582B000AF7860F4
:1016100039607B68012B18D13A684FF6FF739A4204
:1016200013D10B48242101F003FA0A48112101F0DB
:10163000FFF909483C2101F0FBF90848422101F07B
:10164000F7F90748002101F093FE0837BD4680BD39
:10165000F801002014020020300200204C0200207B
:101660006802002080B500AF01204FF6FF71FFF740
:10167000CBFF80BD80B582B000AF786039607B68F9
:101680001846396864224FF4FA6306F033FC7B682D
:10169000034A1A607B6818460837BD4680BD00BF04
:1016A000C098000880B582B000AF78607B68503386
:1016B0001846FFF777FF0837BD4680BD80B483B07A
:1016C00000AF78600C37BD465DF8047B704700BF03
:1016D00080B582B000AF786039607B68012B10D193
:1016E0003A684FF6FF739A420BD107483C2101F04C
:1016F0009FF906483D2101F09BF905483E2101F084
:1017000097F90837BD4680BD84020020A002002062
:10171000BC02002080B500AF01204FF6FF71FFF73B
:10172000D7FF80BD80B483B000AF78607B681B6852
:1017300018460C37BD465DF8047B704780B483B013
:1017400000AF78607B685B6818460C37BD465DF873
:10175000047B704780B483B000AF78600C37BD461F
:101760005DF8047B704700BF80B584B000AFF860BF
:10177000B9607A60FB68043318460949BA680023E7
:1017800000F05AF9FB68074A1A60FB687A685A61E8
:10179000FB6801221A76FB6818461037BD4680BDEB
:1017A000D8020020D898000880B582B000AF7860D9
:1017B0007B680A4A1A600A4800F006F97B6804331D
:1017C000184600F081F90023002B02D0786800F061
:1017D000A7F97B6818460837BD4680BDD898000831
:1017E0004892000880B582B000AF78607868FFF753
:1017F000DBFF786800F094F97B6818460837BD462F
:1018000080BD00BF80B483B000AF78607B680122E8
:101810001A760C37BD465DF8047B704780B483B000
:1018200000AF78607B6800221A760C37BD465DF801
:10183000047B704780B485B000AFF860B9607A600F
:101840003B604FF0FF3318461437BD465DF8047B0C
:10185000704700BF90B583B000AF154B1B68002BDD
:1018600003D0134B1B68043B00E000237B6018E0AF
:101870007B685C697B6804331846FFF75FFF0346AB
:101880000C4821461A4600F059F87B680433184684
:10189000FFF748FF0346002B01D0043B00E0002384
:1018A0007B607B68002BE3D10C37BD4690BD00BF49
:1018B000D80200205C92000880B582B000AF78604A
:1018C0007B68064A1A600023002B02D0786800F07B
:1018D00027F97B6818460837BD4680BDF898000890
:1018E00080B582B000AF78607868FFF7E5FF786870
:1018F00000F016F97B6818460837BD4680BD00BF6A
:1019000080B582B000AF78600B46FB7097F903306A
:10191000184606F009F80837BD4680BD80B483B08C
:1019200000AF78607B68044A1A607B6818460C3701
:10193000BD465DF8047B7047F89800080FB480B589
:1019400082B000AF1C4B1B68002B2FD03B461846C3
:10195000FFF7E4FF07F114037B60184B1B68002BB3
:1019600005D0164B1B681648194600F00DFE06F010
:10197000C7F9034683F00103DBB2002B05D03B46D9
:101980001846396900F08EFB0AE00E4806F006FAA8
:101990003B461846396900F085FB0A4806F05CFAB8
:1019A00006F004F83B461846FFF786FF0837BD46A9
:1019B000BDE8804004B0704704000020DC02002035
:1019C00078920008E002002080B582B000AF786015
:1019D000074B7A681A6007487968FFF7AFFF064B34
:1019E0001B685A1C044B1A600837BD4680BD00BFF7
:1019F000000000208C920008DC02002080B582B03C
:101A000000AF786039607B68012B07D13A684FF6E8
:101A1000FF739A4202D1034806F0A8F90837BD4681
:101A200080BD00BFE002002080B500AF01204FF66E
:101A3000FF71FFF7E3FF80BD80B584B000AFF860B1
:101A4000B9607A603B60FB683A68DA60FB687A6884
:101A50005A60084B1B68591C064A1160FA6893606B
:101A6000F868B96800F008F8FB6818461037BD46FA
:101A700080BD00BFF002002080B582B000AF78606A
:101A800039603B681A687B681A603B687A681A603C
:101A90000A4B1B68002B0CBF00230123DBB2002B79
:101AA00008D00748FFF790FF7B685B680548194638
:101AB000FFF744FF0837BD4680BD00BFE415002096
:101AC000B8920008EC92000880B582B000AF786050
:101AD0000348FFF779FF7B6818460837BD4680BD8D
:101AE0001093000880B485B000AF78600023FB60DD
:101AF0007B68002B01D100230BE005E0FB6801337C
:101B0000FB607B6801337B607B681B78002BF5D121
:101B1000FB6818461437BD465DF8047B704700BF6C
:101B200080B483B000AF78600C37BD465DF8047BAD
:101B3000704700BF80B485B000AFF860C7E90023EC
:101B4000F968D7E90023C1E90E23F968D7E906232C
:101B5000C1E910231437BD465DF8047B704700BF10
:101B6000B0B586B002AF786006E04FF0FF306FF09E
:101B70000041002206F00EFB7B68D3E9102352EAF5
:101B80000301F2D07B68D3E90E23104619460022E8
:101B900006F000FB00F04EF8C7E902017B68D3E9CC
:101BA0000E017B68D3E91023D7E90245CDE9004552
:101BB00000F04AF802460B467968C1E90E23103757
:101BC000BD46B0BD80B584B000AF786006F0BAFA0B
:101BD000F860F86806F09CFAB860F868796806F072
:101BE000A3FABB6818461037BD4680BD80B483B0E9
:101BF00000AF786079684FF000024FF00003C1E950
:101C0000002379684FF000024FF00003C1E902237E
:101C100079684FF000024FF00003C1E904237B68AC
:101C20000F229A617B6818460C37BD465DF8047B2D
:101C3000704700BF80B500AF05F0FEFD02460B46C1
:101C40001046194680BD00BF80B584B000AFC7E91B
:101C50000201C7E90023D7E90223D7E90601904230
:101C600071EB030C02DAD7E902232CE0D7E9002359
:101C700052EA030104D14FF0FF326FF0004322E03B
:101C8000D7E90601D7E90223821A61EB0303104664
:101C90001946D7E90023FEF7EDFE02460B46013256
:101CA00043F10003396803FB01F0796802FB01F19D
:101CB00001443868A0FB022319440B46D7E902010E
:101CC000121843EB0103104619461037BD4680BD7C
:101CD00080B582B000AF786039607B68012B07D196
:101CE0003A684FF6FF739A4202D10348FFF77EFF2E
:101CF0000837BD4680BD00BFF802002080B500AFA8
:101D000001204FF6FF71FFF7E3FF80BD80B586B07D
:101D100000AFF860B9607A603B60FB680433184636
:101D20002E493A680023FFF787FEFB682C4A1A60A9
:101D3000FB6800225A61FB68BA68DA61FB687A685E
:101D40001A62FB6800229A61FB68DB69B3F1FF3F0E
:101D500011D1386806F0B6FC03461A46FB68DA6112
:101D6000FB68DB69B3F57A7F05DAFB68DB6903F5AD
:101D70007A72FB68DA61194B1B68002B03D0174B92
:101D80001B68043B00E000237B611EE07B69DA698D
:101D9000BB689A420DD17A69FB689A4209D0114812
:101DA000FFF712FE7B699B680F48B9683A68FFF736
:101DB000C5FD7B6904331846FFF7B4FC0346002BCE
:101DC00001D0043B00E000237B617B69002BDDD167
:101DD000FB6818461837BD4680BD00BFB816002006
:101DE00080980008349300084893000880B582B0BA
:101DF00000AF78607B680A4A1A600A48FFF7E4FD82
:101E00007B681846FFF762F90023002B02D0786840
:101E1000FFF786FE7B6818460837BD4680BD00BFC9
:101E200030990008C093000880B582B000AF786098
:101E30007868FFF7DBFF7868FFF772FE7B6818466B
:101E40000837BD4680BD00BF80B584B000AFF860E4
:101E5000B9607A60FB681846B9680C227B68FFF7A6
:101E600055FFFB68034A1A60FB6818461037BD46E9
:101E700080BD00BF3099000880B584B000AFF86025
:101E8000B9607A60FB681846B96840F22E527B68E8
:101E9000FFF73CFFFB68034A1A60FB6818461037DF
:101EA000BD4680BD2099000880B584B000AFF860C1
:101EB000B9607A60FB681846B96804227B68FFF74E
:101EC00025FFFB68034A1A60FB6818461037BD46B9
:101ED00080BD00BF1099000880B582B000AF786067
:101EE00039607B68012B4FD13A684FF6FF739A42F5
:101EF0004AD1274827490A22FFF736FC24482649B9
:101F0000264A06F0E9FF26480021264AFFF79CFFF3
:101F100023482549214A06F0DFFF24484FF0FF31CE
:101F2000234AFFF7A9FF214822491C4A06F0D4FFA3
:101F300021484FF0FF31214AFFF7B6FF1E482049E4
:101F4000164A06F0C9FF1F484FF0FF311E4AFFF73F
:101F5000ABFF1C481A49114A06F0BEFF1B484FF060
:101F6000FF311B4AFFF7A0FF184815490B4A06F03E
:101F7000B3FF18484FF0FF31174AFFF765FF1548C8
:101F80000949064A06F0A8FF0837BD4680BD00BFD4
:101F900018030020D0930008A91700080C040020A3
:101FA00034030020E4930008ED1D000858030020CE
:101FB000F4930008392000087C03002000940008F6
:101FC000DD1F0008A003002010940008C4030020B7
:101FD00020940008E80300203494000880B582B003
:101FE00000AF78607B680A4A1A600A48FFF7ECFC89
:101FF0007B681846FFF76AF80023002B02D0786848
:10200000FFF78EFD7B6818460837BD4680BD00BFD0
:1020100010990008C093000880B582B000AF7860C6
:102020007868FFF7DBFF7868FFF77AFD7B68184672
:102030000837BD4680BD00BF80B582B000AF786074
:102040007B680A4A1A600A48FFF7BEFC7B6818469C
:10205000FFF73CF80023002B02D07868FFF760FD03
:102060007B6818460837BD4680BD00BF2099000830
:10207000C093000880B582B000AF78607868FFF741
:10208000DBFF7868FFF74CFD7B6818460837BD46D4
:1020900080BD00BF80B500AF01204FF6FF71FFF794
:1020A0001BFF80BD80B594B000AF7860396056E208
:1020B000002387F84E30002387F84D30002387F83F
:1020C0004C30002387F84B3097F84F30252B0AD03F
:1020D0007B681B6808331B6897F84F2052B27868FA
:1020E000114698473BE23B685A1C3A601B7887F8D8
:1020F0004F30002387F84330202387F842300323F2
:1021000087F8413097F84F30302B09D197F84F308E
:1021100087F842303B685A1C3A601B7887F84F308A
:1021200097F84F302F2B0ED997F84F30392B0AD80C
:1021300097F84F30303B87F843303B685A1C3A6081
:102140001B7887F84F3097F84F302E2B10D13B6813
:102150005A1C3A601B7887F84F3097F84F30303B65
:1021600087F841303B685A1C3A601B7887F84F303B
:1021700097F84F306C2B08D1012387F84D303B681E
:102180005A1C3A601B7887F84F3097F84F306C2B09
:1021900008D1012387F84C303B685A1C3A601B7801
:1021A00087F84F3097F84F30623B162B38D801A193
:1021B00051F823F0AD2200081122000897220008F0
:1021C0002122000891220008212200082122000873
:1021D00021220008212200082122000821220008D3
:1021E00021220008212200087B2200082122000869
:1021F000212200082122000837220008212200089D
:102200009D2200082122000821220008A5220008A2
:102210007B685B68191D7A6851601B6887F84F30CE
:102220007B681B6808331B6897F84F2052B27868A8
:102230001146984793E17B685B68191D7A68516085
:102240001B687B6409E07B681B6808331B6897F890
:102250004F2052B27868114698477B6C5A1C7A64BA
:102260001B7887F84F3097F84F30002B0CBF0023B6
:102270000123DBB2002BE6D171E10823A7F8483037
:102280007B681B6808331B6878683021984711E029
:10229000012387F84B30012387F84E300A23A7F833
:1022A000483007E01023A7F8483003E00223A7F8DE
:1022B000483000BF4FF000024FF00003C7E90C2385
:1022C0004FF000024FF00003C7E90A2397F84B30A4
:1022D000002B15D07B685B68073323F0070303F1FD
:1022E00008017A685160D3E90023C7E90A23D7E9D6
:1022F0000A01FEF7F1FB02460B46C7E90C232CE06E
:1023000097F84C30002B0DD07B685B68073323F0C7
:10231000070303F108017A685160D3E90023C7E994
:102320000C231AE097F84D30002B0BD07B685B68CC
:10233000191D7A6851601B681A464FEAE273C7E9B3
:102340000C230AE07B685B68191D7A6851601B6882
:102350001A464FEAE273C7E90C2397F84E30002B78
:102360002DD0D7E90C23002A73F100010ADBD7E94D
:102370000A014FF000024FF00003FEF733FB034663
:10238000002B1CD0D7E90C23524263EB4303C7E96F
:102390000C23BB6ABB62FB6A83F00043FB627B6871
:1023A0001B6808331B6878682D21984797F84330DD
:1023B000002B04D097F84330013B87F8433097F85F
:1023C0004C30002B04D0D7E90C23C7E90E2310E0D2
:1023D00097F84D30002B06D03B6B1A464FF00003A8
:1023E000C7E90E2305E03B6B1A464FF00003C7E92F
:1023F0000E2307F10C031A337B647B6C013B7B6477
:102400007B6C00221A70B7F848204FF00003D7E920
:102410000E01FEF74BFBD3B23033DBB287F8273027
:1024200097F92730392B05DD97F827300733DBB2D2
:1024300087F827307B6C013B7B6497F827207B6C07
:102440001A70B7F848204FF00003D7E90E01FEF7E5
:102450002DFB02460B46C7E90E2397F84330002BAD
:1024600004D097F84330013B87F84330D7E90E2377
:1024700052EA0301C7D106E07B6C013B7B647B6CB5
:1024800097F842201A7097F843305A1E87F8432075
:10249000002B0CBF00230123DBB2002BECD109E0A1
:1024A0007B681B6808331B6897F84F2052B2786826
:1024B000114698477B6C5A1C7A641B7887F84F301A
:1024C00097F84F30002B0CBF00230123DBB2002B09
:1024D000E6D197F84B30002B41D07B681B6808335E
:1024E0001B6878682E2198472DE0D7E90C01FDF78D
:1024F000D9FF02460B46D7E90A01FDF74DFE024619
:102500000B46C7E90A23D7E90A014FF000021D4B29
:10251000FDF7F6FF02460B46C7E90A23D7E90A0191
:10252000FEF7DAFA02460B46C7E90C237B681B6804
:1025300008331B6897F830203032D2B2D2B252B290
:1025400078681146984797F841305A1E87F841201D
:10255000002B0CBF00230123DBB2002BC5D13B684D
:102560005A1C3A601B7887F84F3097F84F30002B91
:102570000CBF00230123DBB2002B7FF499AD503751
:10258000BD4680BD000024400FB480B582B000AFCE
:102590000C4B1B68002B0FD03B461846FFF7BEF9CB
:1025A00007F114037B603B4618463969FFF77AFD53
:1025B0003B461846FFF780F90837BD46BDE8804026
:1025C00004B070470400002080B582B000AF0C4B0F
:1025D0007B6008E07B681B6898473B6801333B6081
:1025E0007B6804337B607A68064B9A42F2D13B6881
:1025F00001333B603B68013B3B600837BD4680BD13
:10260000109B0008489B000880B485B000AFF860BC
:10261000B9607A60002318461437BD465DF8047B24
:10262000704700BF80B400AFFEE700BF002100F09C
:1026300004B8124B5B58435004311148114B4218F7
:102640009A42FFF4F6AF104A00F003B8002342F8B4
:10265000043B0E4B9A42FFF4F9AF0D4A00F003B869
:10266000002342F8043B0B4B9A42FFF4F9AF05F00C
:10267000A3F9FFF7A9FF06F029FA7047489B000865
:10268000000000205800002058000020CCB6002098
:102690000000001000000010FFF7FEBF80B483B000
:1026A00000AF786039603B6818460C37BD465DF86E
:1026B000047B70470FB480B400AF00231846BD46BA
:1026C0005DF8047B04B070470FB480B400AF002302
:1026D0001846BD465DF8047B04B070470FB480B463
:1026E00000AF00231846BD465DF8047B04B0704778
:1026F0000FB480B400AF00231846BD465DF8047BDC
:1027000004B070470FB480B400AF00231846BD4634
:102710005DF8047B04B070470FB480B400AF0023B1
:102720001846BD465DF8047B04B0704780B483B0A2
:1027300000AF7860012318460C37BD465DF8047B76
:10274000704700BF80B483B000AF786001231846A3
:102750000C37BD465DF8047B704700BF80B483B082
:1027600000AF0346FB71084B97F907205209F9792E
:1027700001F01F01012000FA01F143F822100C378B
:10278000BD465DF8047B704700E100E080B483B093
:1027900000AF0346FB71094B97F907205209F979FD
:1027A00001F01F01012000FA01F1603243F822100C
:1027B0000C37BD465DF8047B704700BF00E100E0C8
:1027C00080B500AF124B1B7883F00103DBB2002B06
:1027D0001CD00F4B01221A704FF48040012103F0EE
:1027E000DDFA0620FFF7BAFF0720FFF7B7FF082042
:1027F000FFF7B4FF0920FFF7B1FF0A20FFF7AEFF94
:102800001720FFF7ABFF2820FFF7A8FF80BD00BF10
:102810005004002080B582B000AF7860F970BA70C3
:102820007B707B68FA781A707B68BA781A727B685A
:102830007A785A72786800F01FF8786800F052F8D9
:102840007B680C33184603F0CFF87B685B891A4627
:102850007B68DA607B6802225A747B6800221A74F3
:102860007B6800221A777B6800225A777B681846BB
:102870000837BD4680BD00BF80B483B000AF78602C
:102880007B681B7A1A467B681B7803F00F0313449E
:10289000102B0BDD7B681B7803F00F034FF6FF72E4
:1028A00002FA03F39AB27B685A8116E07B681B7ABE
:1028B000C3F110034FF6FF7242FA03F39AB27B683A
:1028C0005A817B685B891A467B681B7803F00F038B
:1028D00002FA03F39AB27B685A810C37BD465DF861
:1028E000047B704780B483B000AF78607B681B784E
:1028F0000F2B06D87B68364A5A617B6801229A61A1
:1029000060E07B681B781F2B06D87B68314A5A61D0
:102910007B6802229A6155E07B681B782F2B06D8D2
:102920007B682D4A5A617B6804229A614AE07B6881
:102930001B783F2B06D87B68284A5A617B6808229F
:102940009A613FE07B681B784F2B06D87B68244A4E
:102950005A617B6810229A6134E07B681B785F2B98
:1029600006D87B681F4A5A617B6820229A6129E059
:102970007B681B786F2B06D87B681B4A5A617B6883
:1029800040229A611EE07B681B78DBB25BB2002BB1
:1029900006DB7B68154A5A617B6880229A6111E0E8
:1029A0007B681B788B2B07D87B68114A5A617B6840
:1029B0004FF480729A6105E07B6800225A617B685F
:1029C00000229A610C37BD465DF8047B704700BF5A
:1029D000000002400004024000080240000C0240D7
:1029E000001002400014024000180240001C024087
:1029F0000020024080B582B000AF78607B68012281
:102A00005A777B685B681B6830331B687A6852684A
:102A100010469847054B7A68127802F00F020121A0
:102A200001FA02F25A610837BD4680BD003C014000
:102A300090B583B000AF78600B46FB707B6818469A
:102A400005F092FE7B68134A1A60202006F0ACF86D
:102A500002467B689A617B689B6920201946FFF7D4
:102A60001DFE0446002C08D0FB78204619460122A2
:102A70000023FFF7CFFE234600E023467A689361E8
:102A80007B689B697A685A607B6818460C37BD463C
:102A900090BD00BF4099000880B584B000AFF860D9
:102AA0007A603B600B46FB727B68002B04D0FB68AE
:102AB0009B697A68D2B21A72FB689B69FA7A5A7279
:102AC000FB689B691846FFF7D7FEFB689B695B694B
:102AD000002B02D14FF0FF331DE0FB689B699B691F
:102AE0001846012103F01EF9FB689B695B7A002BF5
:102AF00009D0F8680021012200F012F8F86839685E
:102B000000F0D8F804E0F8680021002200F008F88E
:102B1000FFF756FE002318461037BD4680BD00BFA4
:102B200080B584B000AFF8600B467A60FB72FB7A28
:102B3000042B00F29B8001A252F823F0512B0008D5
:102B4000912B0008DB2B0008172C0008532C0008E1
:102B50007B68002B08D0FB689B6901225A72FB68D6
:102B60009B6901221A7407E0FB689B6900225A7274
:102B7000FB689B6900221A74FB689B695A69FB68B1
:102B80009B690C331046194602F0A0FE00236FE04B
:102B90007B68002B1ED07B68FF2B1BD8FB689B69D2
:102BA0007A68D2B21A72FB689B691846FFF764FE16
:102BB000FB689B69FA6892695289DA60FB689B69D5
:102BC0005A69FB689B690C331046194602F07EFE79
:102BD00000234DE04FF0FF334AE07B68002B17D015
:102BE0007B68002B04D0FB689B690122DA7403E048
:102BF000FB689B690022DA74FB689B695A69FB6871
:102C00009B690C331046194602F060FE00232FE04A
:102C10004FF0FF332CE07B68002B17D07B68002B34
:102C200004D0FB689B690222DA7403E0FB689B69AD
:102C30000022DA74FB689B695A69FB689B690C3354
:102C40001046194602F042FE002311E04FF0FF3318
:102C50000EE07B68022B06D8FB689B697A68D2B2CB
:102C60001A77002304E04FF0FF3301E04FF0FF3309
:102C700018461037BD4680BD80B582B000AF786081
:102C80007868002100F070F8786800210022FFF7D2
:102C900047FF7B689B695B69184602F065FD7B68AE
:102CA0009B699B691846002103F03CF80837BD4634
:102CB00080BD00BF80B584B000AF7860396000236C
:102CC0007B817B689B695B7A002B3BD040F2EB30C9
:102CD000FEF778FF03460133FB6030E07B689B69B9
:102CE0005B69184602F09AFE03469AB27B689B69BC
:102CF0005B899BB2DB439BB213409BB27B817B68B9
:102D00009B691B7803F00F033A6802FA03F39AB247
:102D10007B689B695B8913409AB27B8913437B81F3
:102D20007B689B695A697B891046194602F092FEBE
:102D3000FB68013B1846FEF745FF0023FB60FB687C
:102D4000002BCBD11037BD4680BD00BF80B483B00F
:102D500000AF78607B689B695B7F18460C37BD4687
:102D60005DF8047B704700BF80B586B000AF786027
:102D70000B46FB707B689B691B781B09DBB27B6190
:102D80007B689B691B7803F00F033B613B69FB6029
:102D9000FB78002B5DD0464BFA6853F822207B6805
:102DA0009B699A4200D17FE0414BFA6853F8223088
:102DB000002B4AD17B689B691B7A012B03D93D48C4
:102DC000FEF702FE70E07B69DAB23B69DBB21046C7
:102DD000194603F095F87B689B691B7F012B04D093
:102DE0007B689B691B7F002B08D1334B324A91686B
:102DF00001203A6900FA02F20A439A607B689B69F3
:102E00001B7F022B04D07B689B691B7F002B08D1A2
:102E1000294B294AD16801203A6900FA02F20A4393
:102E2000DA607B689969224BFA6843F822107B6864
:102E30009B6900225A77204B1F4A116801203A698A
:102E400000FA02F20A431A602EE01C48FEF7BCFDAD
:102E50002AE0174BFA6853F822207B689B699A4254
:102E600022D1154B144A116801203A6900FA02F286
:102E7000D2430A401A60104B0F4A916801203A6908
:102E800000FA02F2D2430A409A600B4B0A4AD16818
:102E900001203A6900FA02F2D2430A40DA60044B98
:102EA000FA68002143F822101837BD4680BD00BFE4
:102EB0001004002040940008003C01406494000885
:102EC00080B500AF064B1B68002B04D0044B1B6879
:102ED0001846FFF78FFD0620FFF758FC80BD00BFA6
:102EE0001004002080B500AF064B5B68002B04D0B7
:102EF000044B5B681846FFF77DFD0720FFF746FC93
:102F000080BD00BF1004002080B500AF064B9B6859
:102F1000002B04D0044B9B681846FFF76BFD08207C
:102F2000FFF734FC80BD00BF1004002080B500AF67
:102F3000064BDB68002B04D0044BDB681846FFF718
:102F400059FD0920FFF722FC80BD00BF10040020BE
:102F500080B500AF064B1B69002B04D0044B1B69E6
:102F60001846FFF747FD0A20FFF710FC80BD00BFA1
:102F70001004002080B582B000AF134B5B693B604A
:102F800005237B6017E03A687B6822FA03F303F0BD
:102F90000103002B0CD00D4B7A6853F82230002B24
:102FA00006D00A4B7A6853F822301846FFF722FD04
:102FB0007B6801337B607B68092BE4DD1720FFF71A
:102FC000E5FB0837BD4680BD003C014010040020F1
:102FD00080B582B000AF134B5B693B600A237B6016
:102FE00017E03A687B6822FA03F303F00103002B31
:102FF0000CD00D4B7A6853F82230002B06D00A4BC8
:103000007A6853F822301846FFF7F4FC7B680133E6
:103010007B607B680F2BE4DD2820FFF7B7FB0837C8
:10302000BD4680BD003C01401004002080B483B048
:1030300000AF7860002318460C37BD465DF8047B6E
:10304000704700BF80B483B000AF78600B46FB7060
:103050007B68FA781A707B6818460C37BD465DF8B5
:10306000047B704780B483B000AF78607B681846FB
:103070000C37BD465DF8047B704700BF90B583B048
:1030800000AF78600B46FB707B68184605F06CFB60
:103090007B68664A1A60FB78002B01D10123FB7024
:1030A000FB78032B01D90323FB70FB785A1E1346D0
:1030B0005B0013441B015E4A134430201946FFF79E
:1030C000EDFA0446002C06D0FB7820461946FFF79F
:1030D000B9FF234600E023467A6893617B689B69C9
:1030E000012283F82C20FB78022B35D0032B65D0EE
:1030F000012B00D094E07B689B694E4A5A607B6844
:103100009B694FF400129A607B689B69042283F8E4
:1031100025207B689B69484A1A617B689B6902226B
:103120005A617B689B6940229A817B689B69062271
:103130001A767B689B69404ADA617B689B69022248
:103140001A627B689B694FF400725A837B689B69A3
:10315000092283F8242063E07B689B69374A5A6020
:103160007B689B694FF480029A607B689B690422AC
:1031700083F825207B689B692F4A1A617B689B69CD
:1031800002225A617B689B694FF480629A817B6856
:103190009B690A221A767B689B69274ADA617B68F9
:1031A0009B6902221A627B689B694FF400625A8312
:1031B0007B689B690B2283F8242031E07B689B6944
:1031C0001F4A5A607B689B694FF400029A607B68D3
:1031D0009B69042283F825207B689B69194A1A6140
:1031E0007B689B6901225A617B689B694FF48072FE
:1031F0009A817B689B6908221A767B689B69124AD0
:10320000DA617B689B6904221A627B689B694FF4D0
:1032100000725A837B689B69092283F8242000BFCF
:103220007B6818460C37BD4690BD00BF80990008EA
:1032300054040020005400400004024000580040A4
:10324000005C0040000002400008024080B584B0ED
:1032500000AF78607B689B695B681846002102F0CC
:1032600087FC7B689B695B68184602F047FC7B68BB
:103270009B699B681846002102F072FD07F1080364
:10328000184602F0B1FB00233B737B689B699B8966
:10329000BB607B689B691A6907F1080310461946F1
:1032A00002F014FB7B689B695B8BBB607B689B694E
:1032B000DA6907F108031046194602F007FB1037D8
:1032C000BD4680BD80B483B000AF7860012318464E
:1032D0000C37BD465DF8047B704700BF80B483B0F7
:1032E00000AF7860012318460C37BD465DF8047BBB
:1032F000704700BFB0B582B000AF786039607B68BE
:10330000012B10D13A684FF6FF739A420BD1074B4D
:1033100002241D4604E02846FFF7A4FE3035013C98
:10332000B4F1FF3FF7D10837BD46B0BD54040020CB
:1033300080B500AF01204FF6FF71FFF7DBFF80BDC6
:1033400080B483B000AF7860002318460C37BD46C8
:103350005DF8047B704700BF80B483B000AF786035
:10336000012318460C37BD465DF8047B704700BF4B
:1033700090B583B000AF78600B46FB707B68184651
:1033800005F0F2F97B680E4A1A60242005F00CFC67
:10339000034624201946FFF781F90446002C06D085
:1033A000FB782046194600F033FD234600E0234613
:1033B0007A6893617B6818460C37BD4690BD00BFA4
:1033C000C099000880B58EB000AFF860B9607A602F
:1033D000FB689B691B6A002B04DBFB689B691B6A0B
:1033E0000F2B02DD4FF0FF331BE3012387F837304B
:1033F000002387F8363007F11C03184602F0E8FB7B
:1034000000233B63FB689B691A69964B9A4202D181
:10341000BB6A3B6301E07B6A3B633A6A3B6BB2FB8E
:10342000F3F3012B03D9022387F8363002E001239E
:1034300087F83630FB689B6997F83620396B01FBBB
:1034400002F25A61FB689B69BA685A60FB689B6923
:103450005A69FB689B695B68B2FBF3F3FB62FB682C
:103460009B691B6A032B04DDFB689B691B6A072BA6
:1034700006DDFB6AB3F5803F02DB4FF6FF73FB62AC
:103480007A68FB6A9A4201DDFB6A7B60FB689B6994
:103490007A681A60FB689B6901229A6007F114033D
:1034A000184602F0A1FA01233B760023BB760323E2
:1034B0007B760023FB76FB689B691A69694B9A420D
:1034C00040F094801020012102F02CFC10200021FB
:1034D00002F082FCFB689B691B7B032B7ED801A258
:1034E00052F823F0F53400082F350008693500083C
:1034F000A3350008FB689B694FF400727A617A6912
:103500009A61FB689B69584ADA61FB689B69DA69D2
:1035100007F114031046194602F0D8F9FB689B69BD
:10352000DB6918460921012202F0A2FA56E0FB6885
:103530009B694FF400627A617A699A61FB689B69C2
:10354000494ADA61FB689B69DA6907F1140310469E
:10355000194602F0BBF9FB689B69DB6918460B2131
:10356000012202F085FA39E0FB689B694FF40052B2
:103570007A617A699A61FB689B693B4ADA61FB6808
:103580009B69DA6907F114031046194602F09EF9A7
:10359000FB689B69DB6918460D21012202F068FA7D
:1035A0001CE0FB689B694FF480427A617A699A61FA
:1035B000FB689B692C4ADA61FB689B69DA6907F151
:1035C00014031046194602F081F9FB689B69DB6918
:1035D00018460E21012202F04BFA00BF0120012102
:1035E00002F0DCFB012387F83730DCE1FB689B69E4
:1035F0001B69B3F1804F40F097800120012102F058
:1036000091FB0120002102F0E7FBFB689B691B7B1B
:10361000032B00F2818001A252F823F02D3600081E
:1036200071360008A9360008E1360008FB689B697E
:1036300001227A617A699A61FB689B690B4ADA61B7
:10364000FB689B69DA6907F114031046194602F01A
:103650003DF9FB689B69DB6918460021012202F0F5
:1036600007FA59E00000014000100240000002404B
:10367000FB689B6902227A617A699A61FB689B699F
:10368000A14ADA61FB689B69DA6907F11403104605
:10369000194602F01BF9FB689B69DB69184601219A
:1036A000012202F0E5F937E0FB689B6904227A61A8
:1036B0007A699A61FB689B69934ADA61FB689B6946
:1036C000DA6907F114031046194602F0FFF8FB68A7
:1036D0009B69DB6918460221012202F0C9F91BE04F
:1036E000FB689B6908227A617A699A61FB689B6929
:1036F000854ADA61FB689B69DB6918460321012270
:1037000002F0B6F9FB689B69DA6907F11403104609
:10371000194602F0DBF800BF0120012102F020FB76
:10372000022387F837303EE1FB689B691A69774BC3
:103730009A4240F091800720012102F0F3FA07201D
:10374000002102F049FBFB689B691B7B032B7BD8A4
:1037500001A252F823F000BF69370008A137000822
:10376000D937000811380008FB689B6940227A614C
:103770007A699A61FB689B69634ADA61FB689B69B5
:10378000DA6907F114031046194602F09FF8FB6846
:103790009B69DB6918460621022202F069F953E0B1
:1037A000FB689B6980227A617A699A61FB689B69F0
:1037B000574ADA61FB689B69DA6907F1140310461E
:1037C000194602F083F8FB689B69DB6918460721FC
:1037D000022202F04DF937E0FB689B6901227A6111
:1037E0007A699A61FB689B694A4ADA61FB689B695E
:1037F000DA6907F114031046194602F067F8FB680E
:103800009B69DB6918460021022202F031F91BE0B6
:10381000FB689B6902227A617A699A61FB689B69FD
:103820003C4ADA61FB689B69DA6907F114031046C8
:10383000194602F04BF8FB689B69DB6918460121C9
:10384000022202F015F900BF0220012102F088FADD
:10385000032387F83730A6E0FB689B691A692E4B73
:103860009A4240F09D800220012102F05BFA022082
:10387000002102F0B1FAFB689B691B7B032B00F26D
:10388000878001A252F823F099380008D138000847
:103890001D39000857390008FB689B6940227A618E
:1038A0007A699A61FB689B691A4ADA61FB689B69CD
:1038B000DA6907F114031046194602F007F8FB68AD
:1038C0009B69DB6918460621022202F0D1F85FE00D
:1038D000FB689B6980227A617A699A61FB689B69BF
:1038E0000C4ADA61FB689B69DA6907F11403104638
:1038F000194601F0EBFFFB689B69DB69184607215D
:10390000022202F0B5F843E000000240000400404B
:10391000000802400004024000080040FB689B6968
:103920004FF480727A617A699A61FB689B693F4AB9
:10393000DA61FB689B69DA6907F1140310461946DE
:1039400001F0C4FFFB689B69DB691846082102226D
:1039500002F08EF81CE0FB689B694FF400727A61FC
:103960007A699A61FB689B69304ADA61FB689B69F6
:10397000DA6907F114031046194601F0A7FFFB6846
:103980009B69DB6918460921022202F071F800BF29
:103990000420012102F0E4F9042387F8373002E023
:1039A0004FF0FF333DE0FB689B69DA69FB689B6978
:1039B0009B699BB21046194602F03EF897F93730E2
:1039C000013B1B4AD35C002B0BD1FB689B691B6935
:1039D000184602F0D3FA97F93730013B144A012117
:1039E000D154FB689B691A69124B9A4206D1FB6855
:1039F0009B691B691846012102F080FFFB689B69E7
:103A00001B69184602F0FEFFFB689B69184600F030
:103A10006FFAFB689B691B691846012102F032FCB2
:103A2000002318463837BD4680BD00BF0004024061
:103A3000E40400200000014080B584B000AF78604D
:103A40007B689B691B6A002BC0F208817B689B69BD
:103A50001B6A0F2B00F302817B689B691B69184668
:103A600002F08CFA07F10803184601F0BDFF0023AD
:103A70003B737B689B691A697A4B9A4239D17B68A0
:103A80009B691B7B032B00F2E98001A252F823F013
:103A9000A13A0008B53A0008C93A0008DD3A000822
:103AA0004FF40073BB6007F108036F48194601F03B
:103AB0000DFF1DE04FF40063BB6007F108036A4887
:103AC000194601F003FF13E04FF40053BB6007F108
:103AD00008036548194601F0F9FE09E04FF48043F8
:103AE000BB6007F108036048194601F0EFFE00BF14
:103AF000B4E07B689B691B69B3F1804F35D17B686B
:103B00009B691B7B032B00F2A98001A252F823F0D2
:103B1000213B0008333B0008453B0008573B0008A9
:103B20000123BB6007F108035048194601F0CEFE9F
:103B30001AE00223BB6007F108034C48194601F064
:103B4000C5FE11E00423BB6007F10803474819468E
:103B500001F0BCFE08E00823BB6007F108034348FE
:103B6000194601F0B3FE00BF78E07B689B691A69D3
:103B70003F4B9A4235D17B689B691B7B032B6DD8E9
:103B800001A252F823F000BF993B0008AB3B0008AC
:103B9000BD3B0008CF3B00084023BB6007F1080392
:103BA0003248194601F092FE1AE08023BB6007F10B
:103BB00008033048194601F089FE11E00123BB607B
:103BC00007F108032C48194601F080FE08E00223A3
:103BD000BB6007F108032848194601F077FE00BFD3
:103BE0003CE07B689B691A69244B9A4236D17B681A
:103BF0009B691B7B032B31D801A252F823F000BF35
:103C0000113C0008233C0008353C0008493C0008F2
:103C10004023BB6007F108031748194601F056FE20
:103C20001CE08023BB6007F108031348194601F02C
:103C30004DFE13E04FF48073BB6007F108030E489C
:103C4000194601F043FE09E04FF40073BB6007F131
:103C500008030948194601F039FE00BF1037BD4678
:103C600080BD00BF00000140001002400000024083
:103C70000004004000080240000402400008004028
:103C800080B584B000AF786039607B689B691B6A3F
:103C9000002B04DB7B689B691B6A0F2B02DD4FF056
:103CA000FF33AAE001233B730023BB7303237B7321
:103CB0000023FB737B689B699B69BB607B689B6986
:103CC0001A683B689A4204D87B689B691B68013B71
:103CD0003B603B68002B15D17B689B69DA6907F173
:103CE00008031046194601F0F1FD7B689B69DA690B
:103CF0007B689B699B699BB21046194601F09CFE4C
:103D000000237AE07B689B693A689A607B689B69CC
:103D10001A693C4B9A4211D07B689B691B69B3F1CD
:103D2000804F0BD07B689B691A69374B9A4205D04C
:103D30007B689B691A69354B9A4244D17B689B69C1
:103D40001B7B032B42D801A252F823F05D3D0008F3
:103D5000773D0008913D0008AB3D00087B689B69FA
:103D60001A697B689B6919683B68CB1A104619462B
:103D700002F0B8FC26E07B689B691A697B689B6946
:103D800019683B68CB1A1046194602F0B9FC19E0D5
:103D90007B689B691A697B689B6919683B68CB1AC9
:103DA0001046194602F0BAFC0CE07B689B691A6960
:103DB0007B689B6919683B68CB1A1046194602F06C
:103DC000BBFC00BF02E04FF0FF3316E000BF3B68D2
:103DD000002B0AD002233B737B689B69DA6907F1E9
:103DE00008031046194601F071FD7B681B682833F3
:103DF0001B687A6810469847002318461037BD465E
:103E000080BD00BF000001400004004000080040E9
:103E100080B582B000AF78600B46FB707B680222F1
:103E20001A607B6801229A607B6800225A607B6876
:103E30004FF0FF321A627B6800221A617B68002211
:103E40001A737B6800225A617B6800229A617B6842
:103E50000022DA61FB780F2B03D92048FDF7B4FD6F
:103E600036E0FA787B681A627B681B6A002B00DAFE
:103E700003339B10032B2AD801A252F823F000BF72
:103E8000913E0008993E0008A33E0008AB3E0008A2
:103E90007B68134A1A610CE07B684FF080421A611C
:103EA00007E07B680F4A1A6103E07B680E4A1A61DB
:103EB00000BF7B681A6A0D4B1340002B03DA013BED
:103EC00063F003030133DAB27B681A7300E000BFCA
:103ED0007B6818460837BD4680BD00BF989400082F
:103EE0000000014000040040000800400300008082
:103EF00080B58CB000AF78607B685B68002B06D122
:103F00007B681B691846082102F0A0F972E07B6803
:103F10001B691846002102F099F97B685A697B6891
:103F20005B687968096801FB03F3B2FBF3F3013BBB
:103F3000FB62FB6A002B01DA0023FB62FB6A9BB287
:103F40003B847B681B687B6200237B8400233B856A
:103F5000002387F82A307B681A6907F1200310468E
:103F6000194602F0E9F807F10C03184602F098FB35
:103F70006023BB810123FB817B681A687B689B6897
:103F8000D31A7B6102233B837B681B7B032B30D8D6
:103F900001A252F823F000BFA93F0008BB3F000870
:103FA000CD3F0008DF3F00087B681A6907F10C036A
:103FB0001046194602F086F91AE07B681A6907F183
:103FC0000C031046194602F0F7F911E07B681A69F4
:103FD00007F10C031046194602F076FA08E07B68F8
:103FE0001A6907F10C031046194602F0F3FA00BFF4
:103FF00000E000BF3037BD4680BD00BF80B483B055
:1040000000AF78600C37BD465DF8047B704700BF99
:1040100080B582B000AF78607B68064A1A600023E2
:10402000002B02D07868FDF77BFD7B6818460837C7
:10403000BD4680BD889A000880B582B000AF786028
:104040007868FFF7E5FF7868FDF76AFD7B6818463A
:104050000837BD4680BD00BF80B584B000AFF860B2
:10406000B9607A603B600448FDF7AEFC0023184657
:104070001037BD4680BD00BFAC94000880B483B04B
:1040800000AF0346FB71084B97F907205209F979F5
:1040900001F01F01012000FA01F143F822100C3752
:1040A000BD465DF8047B704700E100E080B483B05A
:1040B00000AF0346FB71094B97F907205209F979C4
:1040C00001F01F01012000FA01F1203243F8221013
:1040D0000C37BD465DF8047B704700BF00E100E08F
:1040E00080B483B000AF0346FB71094B97F90720FA
:1040F0005209F97901F01F01012000FA01F1603243
:1041000043F822100C37BD465DF8047B704700BFB2
:1041100000E100E080B582B000AF78607B681846AF
:10412000064964224FF4FA6303F0E4FE7B68044A14
:104130001A607B6818460837BD4680BD3495000874
:10414000309A000880B582B000AF78607B68483351
:10415000184601F003F87B6803F5AA73184600F0CF
:10416000FDFF7B6818460837BD4680BD0000000093
:1041700080B586B002AF78600CE0FDF75BFD29A347
:10418000D3E90023121843EB01031046194600221D
:1041900004F000F81E4B1B78DBB283F00103DBB2A6
:1041A000002BEAD179681B4A4FF00003CDE90023C8
:1041B0000846194A4FF00003FDF7BCFC1CE0012340
:1041C000FB6016E0154AFB684FF4187101FB03F31E
:1041D000134430339B79002B08D0FB685A1E104BD8
:1041E00053F822301846002101F0F6F9FB6801333C
:1041F000FB60FB68032BE5DD7B681846FDF7B0FC30
:104200000123002BDBD11037BD4680BDAFF300800A
:10421000881500208096980040420F00E804002096
:104220001400002000E40B5402000000AFF30080F3
:1042300080B582B000AF78600B46FB707B68184693
:1042400004F092FA7B688D4A1A60FB78002B02D04A
:10425000FB78062B07D97B68894A9A617B689B6942
:10426000FA781A704FE1FB784FF4187202FB03F2F0
:10427000834B1A447B689A617B689B69FA781A7051
:104280007B689B694FF4E1329A607B689B690122ED
:104290005A607B689B697A68DA607B689B69002258
:1042A00083F836207B689B69002283F837207B687F
:1042B0009B69002283F83C20FB78013B072B00F22E
:1042C000218101A252F823F0E94200083743000897
:1042D00081430008D3430008014400082D4400082E
:1042E000B1440008DB4400087B689B69654A5A6159
:1042F0007B689B69644A9A617B689B6940229A83C8
:104300007B689B69604A1A627B689B6980229A84F9
:104310007B689B695D4A9A627B689B694FF4805217
:104320009A857B689B69594A1A637B689B694FF43D
:1043300000629A86E7E07B689B69554A5A617B6810
:104340009B69544A9A617B689B6920229A837B68A7
:104350009B69504A1A627B689B6940229A847B68F9
:104360009B694C4A9A627B689B6910229A857B689C
:104370009B69484A1A637B689B6908229A86C2E057
:104380007B689B69444A5A617B689B69414A9A6190
:104390007B689B694FF480729A837B689B693D4A76
:1043A0001A627B689B694FF400729A847B689B69F0
:1043B000354A9A627B689B694FF480429A857B6894
:1043C0009B69344A1A637B689B694FF400629A8642
:1043D00099E07B689B69314A5A617B689B69304AE6
:1043E0009A617B689B694FF480629A837B689B69C2
:1043F0002B4A1A627B689B694FF400629A8482E0C0
:104400007B689B69274A5A617B689B69244A9A6149
:104410007B689B694FF480529A837B689B691D4A35
:104420001A627B689B6904229A846CE07B689B69B2
:104430001D4A5A617B689B69194A9A617B689B692E
:1044400040229A837B689B69154A1A627B689B6944
:1044500080229A847B689B69144A9A627B689B6974
:104460004FF480729A857B689B69104A1A637B6857
:104470009B694FF400429A8645E000BF489A0008C5
:10448000E804002000100140000402400000024047
:1044900000440040000C024000480040004C004036
:1044A0000008024000500040001401400018024083
:1044B0007B689B69164A5A617B689B69154A9A61B9
:1044C0007B689B6980229A837B689B69114A1A6288
:1044D0007B689B6940229A8415E07B689B690E4A41
:1044E0005A617B689B690D4A9A617B689B690222CD
:1044F0009A837B689B69094A1A627B689B690122DF
:104500009A8400E000BF7B6818460837BD4680BD2E
:104510000078004000140240007C0040001002407F
:1045200080B500AF034800F049FB2520FFF7D8FD18
:1045300080BD00BF4807002080B500AF034800F0F1
:104540003DFB2620FFF7CCFD80BD00BFA809002061
:1045500080B500AF034800F031FB2720FFF7C0FD16
:1045600080BD00BF080C002080B500AF034800F0FC
:1045700025FB3420FFF7B4FD80BD00BF680E00208E
:1045800080B500AF034800F019FB3520FFF7A8FD08
:1045900080BD00BFC810002080B500AF034800F008
:1045A0000DFB4720FFF79CFD80BD00BF28130020B6
:1045B00080B500AF0D480E4901F050F80346002BBE
:1045C0000CBF00230123DBB2002B0AD007480849A7
:1045D00001F09CF84620FFF783FD064800F01EFA24
:1045E00002E04620FFF77CFD80BD00BFB8640240BA
:1045F000008000284807002080B500AF0D480E4914
:1046000001F02CF80346002B0CBF00230123DBB282
:10461000002B0AD00748084901F078F81120FFF76D
:104620005FFD064800F0FAF902E01120FFF758FD9F
:1046300080BD00BFA060024000802020A8090020AB
:1046400080B500AF0D480E4901F008F80346002B75
:104650000CBF00230123DBB2002B0AD00748084916
:1046600001F054F80E20FFF73BFD064800F0D6F9A4
:1046700002E00E20FFF734FD80BD00BF586002400D
:1046800000800018080C002080B500AF0D480E49CE
:1046900000F0E4FF0346002B0CBF00230123DBB234
:1046A000002B0AD00748084901F030F84420FFF7F2
:1046B00017FD064800F0F6F902E04420FFF710FD70
:1046C00080BD00BF886402400088002048070020A9
:1046D00080B500AF0D480E4900F0C0FF0346002B27
:1046E0000CBF00230123DBB2002B0AD00748084986
:1046F00001F00CF81020FFF7F3FC064800F0D2F9A7
:1047000002E01020FFF7ECFC80BD00BF8860024093
:1047100000880020A809002080B500AF0D480E4990
:1047200000F09CFF0346002B0CBF00230123DBB2EB
:10473000002B0AD00748084900F0E8FF0C20FFF7DB
:10474000CFFC064800F0AEF902E00C20FFF7C8FCF1
:1047500080BD00BF2860024000880010080C0020C7
:1047600080B582B000AF786039607B689B691B7848
:10477000002B04D07B689B691B78062B02D94FF075
:10478000FF3306E07B689B691846396800F0ECFB54
:10479000034618460837BD4680BD00BF80B586B0C9
:1047A00000AF78607B689B691B78002B35D07B68F5
:1047B0009B691B78062B30D87B689B695B697B61A2
:1047C0007B689B69184600F0A3FB03461846FFF779
:1047D0006DFC786902F044FA07F10C03184601F009
:1047E00003F900233B747B689B699B8CFB607B68AF
:1047F0009B691A6A07F10C031046194601F066F826
:104800007B689B699B8BFB607B689B699A6907F15E
:104810000C031046194601F059F81837BD4680BD03
:1048200080B584B000AF78600B46FB707B689B69F5
:104830001B78002B04D07B689B691B78062B02D960
:104840004FF0FF333BE07B689B6903F5AA72FB786E
:10485000FB7307F10F031046194600F055FD0346A0
:10486000002B2AD07B689B695B69184640F2266161
:10487000002202F085FB7B689B6993F83630002BA1
:104880000FD07B689B6993F83730DBB283F001036C
:10489000DBB2002B0ED07B689B69184600F038F91C
:1048A00008E07B689B695B69184640F2277101222A
:1048B00002F066FB97F9033001E04FF0FF33184632
:1048C0001037BD4680BD00BF80B582B000AF7860B4
:1048D0007B689B691B78002B04D07B689B691B78E5
:1048E000062B01D9002316E07B689B6903F5AA73A8
:1048F000184600F035FD0346002B0BD07B689B6902
:104900005B691846402102F083FB0346012B01D16D
:10491000012300E0002318460837BD4680BD00BFD4
:1049200080B582B000AF78607B689B691B78002BF4
:1049300004D07B689B691B78062B01D9002309E012
:104940007B689B694833184600F00AFD034683F0F4
:104950000103DBB218460837BD4680BD80B586B07E
:1049600000AFF860B9607A60FB681B78002B03D059
:10497000FB681B78032B00D914E0FB681B785A1ED8
:104980000A4B53F822307B617869002100F024FE45
:10499000BA687B69DA607A687B695A607869012154
:1049A00000F01AFE1837BD4680BD00BF0800002089
:1049B00080B586B000AFF860B9607A60FB681B789C
:1049C000002B03D0FB681B78032B00D920E0FB6889
:1049D0001B785A1E104B53F822307B6178690021F6
:1049E00000F0FAFD00BF786900F020FE0346012BBD
:1049F00014BF00230123DBB2002BF4D1BA687B691A
:104A0000DA607A687B695A607869012100F0E4FD18
:104A10001837BD4680BD00BF1400002080B586B0A9
:104A200000AF78607B681B78002B03D07B681B7815
:104A3000032B00D930E07B681B785A1E184B53F8C3
:104A400022307B61786900F0E3FD03463B617B68BF
:104A50009A6B3B69D31AFB607B6803F5AA7318460F
:104A6000F96800F0BDFB7B6803F5AA73184600F0F7
:104A700077FC0346002B0CD07B68002283F837209C
:104A80007B685B69184640F22661012202F078FAE1
:104A900002E0786800F03CF81837BD4680BD00BFE2
:104AA0000800002090B585B000AF78607B681B7867
:104AB000002B03D07B681B78032B00D923E07B6895
:104AC0001B785A1E114B53F82230FB607B681C6C1C
:104AD000F86800F09DFD0346E31ABB607B6848332D
:104AE0001846B96800F0D0FBBB68002B08DD7B6876
:104AF000DB681B6830331B687A68D26810469847B9
:104B0000786800F027F81437BD4690BD14000020E7
:104B100080B584B000AF78607B6803F5AA7207F1B6
:104B200008031046194600F02BFBF860FB68002BC9
:104B30000CD0BA687B689A637B68012283F83720BF
:104B4000BB687868F9681A46FFF708FF1037BD465A
:104B500080BD00BF80B584B000AF78607B6803F192
:104B6000480207F108031046194600F04DFBF860B3
:104B7000FB68002B15D07B685A6CBB689A4202DA3E
:104B80007B685B6CBB60BA687B681A647B680122D7
:104B900083F83C20BB687868F9681A46FFF708FF7D
:104BA00008E07B68002283F83C207B681B695A1C64
:104BB0007B681A611037BD4680BD00BF80B584B0E8
:104BC00000AF78607B685B691846082102F020FA24
:104BD0000346002B0DD17B6893F83630002B0AD0AA
:104BE0007B685B691846602102F02EFA0346002BB1
:104BF00001D0012300E00023002B0AD07B685B6911
:104C0000184602F0ADF97B681B695A1C7B681A6173
:104C100085E07B685B69184640F2255102F014FA82
:104C20000346002B0CBF00230123DBB2002B25D051
:104C30007B685B69184602F093F90346DBB2FB73AD
:104C40007B6803F1480207F10F031046194600F094
:104C50005BFB034683F00103DBB2002B04D07B68CF
:104C60001B695A1C7B681A617B68DB681B683033E0
:104C70001B687A68D2681046984750E07B685B6989
:104C8000184640F2277102F0DFF90346002B0CBFF3
:104C900000230123DBB2002B21D07B6803F5AA722D
:104CA00007F10F031046194600F002FB0346002BE4
:104CB00004D07B685B69FA7B9A8030E07B685B6933
:104CC000184640F22771002202F05AF97B685B69AE
:104CD000184640F22661012202F052F91FE07B687B
:104CE0005B69184640F2266102F0AEF90346002BDC
:104CF0000CBF00230123DBB2002B10D07B685B6963
:104D0000184640F22661002202F03AF97B68DB681F
:104D10001B6828331B687A68D2681046984710379A
:104D2000BD4680BD80B485B000AF78603960002397
:104D3000FB6002E0FB680133FB603B685B083B60A3
:104D40003B68002B0CBF00230123DBB2002BF1D109
:104D5000FB6818461437BD465DF8047B704700BFFA
:104D600080B483B000AF786039603B68264A9342D4
:104D700034D0254A934213D8244A934228D0234A58
:104D8000934206D8224A93421ED0224A93421DD013
:104D900033E0214A93421DD0204A93421CD02CE09C
:104DA0001F4A934220D01E4A934206D81D4A93427E
:104DB00016D01D4A934215D01FE01C4A934216D0CC
:104DC0001B4A934216D018E0012317E0022315E096
:104DD000042313E0082311E010230FE020230DE04B
:104DE00040230BE0802309E04FF4807306E04FF48A
:104DF000007303E04FF4806300E0002318460C3793
:104E0000BD465DF8047B7047001402400008024074
:104E10000000024000040240000C0240001002406A
:104E20000020024000180240001C02400024024002
:104E30000028024080B483B000AF78607B681B78A4
:104E4000013B072B28D801A252F823F06D4E000831
:104E5000714E0008774E00087D4E0008834E000812
:104E6000894E00088D4E0008934E0008102314E070
:104E70004FF4003311E04FF480230EE04FF4002391
:104E80000BE04FF4801308E0202306E04FF080434E
:104E900003E04FF0004300E0002318460C37BD4606
:104EA0005DF8047B704700BF80B483B000AF7860CA
:104EB0007B681B78013B072B22D801A252F823F014
:104EC000E14E0008E54E0008E94E0008ED4E0008EE
:104ED000F14E0008F54E0008F94E0008FD4E00089E
:104EE00007230EE007230CE007230AE0082308E06D
:104EF000082306E0082304E0082302E0082300E07A
:104F0000002318460C37BD465DF8047B704700BF90
:104F100080B483B000AF78607B681B78013B052BC1
:104F20001AD801A252F823F0414F0008454F00085B
:104F3000494F00084D4F0008514F0008554F0008D9
:104F400025230AE0262308E0272306E0342304E093
:104F5000352302E0472300E025235BB218460C37D7
:104F6000BD465DF8047B7047B0B588B000AF78608F
:104F700039607B681B78002B03D07B681B78062B7D
:104F800002D94FF0FF33BDE03A687B689A607B68D6
:104F90005B69184601F064FE7B681B78012B03D027
:104FA0007B681B78062B08D17868FFF743FF034620
:104FB0001846012100F0F2FE07E07868FFF73AFF9B
:104FC00003461846012100F0CBFE7B689B69786898
:104FD0001946FFF7C5FE04467B681B6A78681946C8
:104FE000FFF7BEFE034623431846012100F09AFE58
:104FF0007B689B6978681946FFF7B2FE04467B68B8
:105000001B6A78681946FFF7ABFE03462343184630
:10501000002100F0E1FE7B689D697B689B8B7868CE
:105020001946FFF77FFE03469CB27868FFF73CFF06
:105030000346284621461A4600F01AFD7B681D6A81
:105040007B689B8C78681946FFF76CFE03469CB220
:105050007868FFF729FF0346284621461A4600F0E4
:1050600007FD07F11803184600F0BEFC02233B774A
:105070007B689B8BBB617B689A6907F118031046BC
:10508000194600F023FC07F11803184600F0ACFCA9
:1050900002233B777B689B8CBB617B681A6A07F1B4
:1050A00018031046194600F011FC07F108031846D2
:1050B00001F01AFF3B68BB607B685A6907F108037F
:1050C0001046194601F056FE7B685B6918460121BF
:1050D00001F026FF7B685B69184640F225510122EA
:1050E00001F04EFF7B685B69184640F22771012290
:1050F00001F046FF7868FFF70BFF03461846FEF7FE
:10510000BDFF002318462037BD46B0BD80B582B034
:1051100000AF78607B68084A1A607B681846FEF723
:1051200077FF0023002B02D07868FCF7F9FC7B683E
:1051300018460837BD4680BD189A000880B582B071
:1051400000AF78607868FFF7E1FF7868FCF7E8FC6B
:105150007B6818460837BD4680BD00BF80B582B069
:1051600000AF78607B68184600F020F97B68034A3E
:105170001A607B6818460837BD4680BD009A000853
:1051800080B485B000AF786039607B68D3F80831AF
:10519000FB607B68D3F80431BB60FA68BB689A4255
:1051A00004D13B6800221A60002312E0FA68BB6851
:1051B0009A4205DABA68FB68D21A3B681A6004E0C2
:1051C000FB68C3F580723B681A607A68FB68134419
:1051D000043318461437BD465DF8047B704700BFA2
:1051E00080B582B000AF786039607B68D3F8083151
:1051F000786819463A6800F0F3F802467B68C3F80D
:1052000008210837BD4680BD80B584B000AF786006
:1052100039607B68D3F80831FB607B68D3F80431D0
:10522000BB607B681846B96800F0F4F80246FB687A
:105230009A4214BF00230123DBB2002B04D03B6849
:1052400000221A6000231BE0FA68BB689A4206DD60
:10525000FA68BB68D31A5A1E3B681A600CE0BB6838
:10526000C3F580723B681A60FB68002B04D13B6871
:105270001B685A1E3B681A607A68BB681344043383
:1052800018461037BD4680BD80B582B000AF78604B
:1052900039607B68D3F80431786819463A6800F0C1
:1052A0009FF802467B68C3F804210837BD4680BDDD
:1052B00080B582B000AF786039607B68D3F8082190
:1052C0007B68D3F804319A4214BF00230123DBB278
:1052D000002B01D0002313E07B68D3F808317A68F3
:1052E00013441A793B681A707B68D3F808317868E0
:1052F000194600F08FF802467B68C3F808210123A5
:1053000018460837BD4680BD80B584B000AF7860D0
:1053100039607B68D3F804317868194600F07AF870
:10532000F8607B68D3F80821FB689A4214BF002319
:105330000123DBB2002B01D000230CE07B68D3F803
:1053400004313A68127879680B441A717B68FA68FC
:10535000C3F80421012318461037BD4680BD00BFA5
:1053600080B483B000AF78607B68D3F808217B6895
:10537000D3F804319A4214BF00230123DBB218464C
:105380000C37BD465DF8047B704700BF80B483B026
:1053900000AF78607B68044A1A607B6818460C3757
:1053A000BD465DF8047B7047889A000880B582B0DE
:1053B00000AF78607B681846FFF7E8FF7B68074A14
:1053C0001A607B680022C3F808217B680022C3F8BA
:1053D00004217B6818460837BD4680BD189A00082E
:1053E00080B487B000AFF860B9607A60BA687B6853
:1053F00013447B6103E07B69A3F580737B617B6968
:10540000FF2BF8DC7B6918461C37BD465DF8047B32
:10541000704700BF80B483B000AF786039603B68EC
:10542000FE2B02DC3B68013300E0002318460C37FA
:10543000BD465DF8047B704780B582B000AF7860F0
:105440007B68084A1A607B681846FFF75FFE0023F6
:10545000002B02D07868FCF763FB7B68184608379E
:10546000BD4680BD009A000880B582B000AF78606C
:105470007868FFF7E1FF7868FCF752FB7B68184615
:105480000837BD4680BD00BF80B582B000AF7860F0
:105490007B68084A1A607B68184602F099FD002371
:1054A000002B02D07868FCF73BFB7B681846083776
:1054B000BD4680BD309A000880B582B000AF7860EC
:1054C0007868FFF7E1FF7868FCF72AFB7B681846ED
:1054D0000837BD4680BD00BF80B582B000AF7860A0
:1054E0007B6803F5AA731846FFF7A6FF7B6848336D
:1054F0001846FFF7A1FF7B6818460837BD4680BDF8
:1055000090B583B000AF7860064C074B9C4205D045
:10551000A4F518742046FFF7DFFFF6E70C37BD4609
:1055200090BD00BF88150020E8040020B0B582B00F
:1055300000AF786039607B68012B1ED13A684FF666
:10554000FF739A4219D10E4B06241D4605E02846EA
:10555000FEF7F8FD05F51875013CB4F1FF3FF6D1F3
:1055600000200849084A03F0B7FC0848FEF7D2FDBE
:1055700006480749044A03F0AFFC0837BD46B0BDF2
:10558000E8040020015500080C04002090150020BC
:105590008954000880B584B000AFF860B9607A60C3
:1055A0003B607B68012B04D90648FCF70DFA002309
:1055B00004E0F8683968FFF7A7FE0346184610377D
:1055C000BD4680BD4495000880B500AF01204FF670
:1055D000FF71FFF7ABFF80BD80B483B000AF786090
:1055E0000B46FB70FB78002B06D07B681B6843F0F2
:1055F00001027B681A6005E07B681B6823F00102EA
:105600007B681A600C37BD465DF8047B704700BFAD
:1056100080B483B000AF78607B685B689BB218464B
:105620000C37BD465DF8047B704700BF80B485B081
:1056300000AF78600023FB737B681B6803F00103F5
:10564000002B02D00123FB7301E00023FB73FB7BE3
:1056500018461437BD465DF8047B704780B487B0A8
:1056600000AF786039600023FB750023FB600023E6
:10567000BB607A68224B9A4202D8224B3B6101E020
:10568000214B3B613B6823F0F02323F0C313002B35
:105690000AD03B68DB0A03F01E03FB607B681A68D4
:1056A000FB681340BB6004E07B685B6903F0800328
:1056B000BB603B6803F00053002B03D03B695B6881
:1056C000FB6002E03B691B68FB60FB6823F0F02392
:1056D00023F08213FB60FA683B681340002B05D06F
:1056E000BB68002B02D00123FB7501E00023FB7592
:1056F000FB7D18461C37BD465DF8047B704700BF34
:105700000F640240006002400064024080B485B033
:1057100000AF786039607A68104B9A4202D8104B1B
:10572000FB6001E00F4BFB603B6803F00053002B74
:1057300007D03B6823F0F02323F08213FA68D3608C
:1057400006E03B6823F0F02323F08213FA689360AD
:105750001437BD465DF8047B704700BF0F640240FC
:10576000006002400064024080B582B000AF786003
:105770007A684B4B9A4208D10120012100F02CFBA2
:105780000120002100F028FB86E07A68454B9A4210
:1057900008D10220012100F01FFB0220002100F0AF
:1057A0001BFB79E07A68404B9A4208D10420012122
:1057B00000F012FB0420002100F00EFB6CE07A6880
:1057C0003A4B9A4208D10820012100F005FB08203D
:1057D000002100F001FB5FE07A68354B9A4208D166
:1057E0001020012100F0F8FA1020002100F0F4FA56
:1057F00052E07A682F4B9A4208D12020012100F014
:10580000EBFA2020002100F0E7FA45E07A682A4B05
:105810009A4208D14020012100F0DEFA4020002108
:1058200000F0DAFA38E07A68244B9A4208D18020F6
:10583000012100F0D1FA8020002100F0CDFA2BE008
:105840007A681F4B9A420AD14FF48070012100F010
:10585000C3FA4FF48070002100F0BEFA1CE07A68B1
:10586000184B9A420AD14FF40070012100F0B4FAAB
:105870004FF40070002100F0AFFA0DE07A68124B8F
:105880009A4209D14FF48060012100F0A5FA4FF44B
:105890008060002100F0A0FA0837BD4680BD00BF3F
:1058A000000002400004024000080240000C0240D8
:1058B000001002400014024000180240001C024088
:1058C00000200240002402400028024080B487B03B
:1058D00000AF7860396000237B6100233B610023C7
:1058E000FB6000237B6176E07B69012202FA03F30F
:1058F0003B613B681A683B691340FB60FA683B698F
:105900009A4265D17B681A687B695B00032101FAC2
:1059100003F3DB431A407B681A607B681A683B68B4
:105920001B7919467B695B0001FA03F31A437B6814
:105930001A603B681B79012B03D03B681B79022B53
:105940002ED17B689A687B695B00032101FA03F31F
:10595000DB431A407B689A607B689A683B685B7996
:1059600019467B695B0001FA03F31A437B689A606E
:105970007B685A687B699BB2012101FA03F3DB4320
:105980001A407B685A607B685A683B689B79194665
:105990007B699BB201FA03F39BB21A437B685A609E
:1059A0007B68DA687B699BB25B00032101FA03F331
:1059B000DB431A407B68DA607B68DA683B68DB7936
:1059C00019467B695B0001FA03F31A437B68DA60CE
:1059D0007B6901337B617B690F2B85D91C37BD4601
:1059E0005DF8047B704700BF80B483B000AF78607F
:1059F0007B684FF6FF721A607B6800221A717B6821
:105A000000225A717B6800229A717B680022DA7149
:105A10000C37BD465DF8047B704700BF80B483B08F
:105A200000AF78607B685B699BB218460C37BD4657
:105A30005DF8047B704700BF80B483B000AF78602E
:105A40000B467B807B687A885A830C37BD465DF8AD
:105A5000047B704780B483B000AF78600B467B80D6
:105A60007A887B685A610C37BD465DF8047B7047C5
:105A700080B485B000AF786013460A467A807B70A8
:105A80000023FB600023BB607A787B8803F0070368
:105A90009B0002FA03F3FB607B88DB089BB21A468B
:105AA0007B88DB089BB219467B68083153F82110CC
:105AB0007B8803F007039B000F2000FA03F3DB430E
:105AC00019407B68083243F822107B88DB089BB2C0
:105AD0001A467B68083253F82220FB681343BB60E8
