:020000040800F2
:10000000000002208D8D0008F98D0008F98D000890
:10001000F98D0008F98D0008F98D00080000000036
:10002000000000000000000000000000E5EE0008F5
:10003000F98D000800000000F9EE000825F2000824
:10004000F98D0008F98D0008F98D0008F98D000878
:10005000F98D0008F98D0008F98D0008A9950008B0
:10006000CD950008F195000815960008F98D000857
:1000700051B80008F98D000879B70008F98D00081B
:1000800009B80008C54B0008F98D0008F98D000873
:10009000F98D0008F98D0008F98D000839960008DF
:1000A000F98D0008F98D0008F98D0008F98D000818
:1000B000F98D0008F98D0008F98D0008F98D000808
:1000C000F98D0008F98D0008F98D0008F98D0008F8
:1000D000F98D0008A1B60008B9B60008D1B600082D
:1000E00095960008F98D0008F98D0008F98D000833
:1000F000F98D0008F98D0008F98D0008F98D0008C8
:10010000F98D0008F98D0008F1EF0008F98D00085D
:10011000E9B6000801B70008F98D0008D5F300081A
:10012000F98D0008FD4B0008F98D0008F98D0008D5
:10013000F98D0008F98D0008F98D0008F98D000887
:10014000F98D0008F98D0008F98D0008F98D000877
:10015000C1B70008F98D000831B7000819B70008C9
:10016000F98D0008F98D0008F98D0008F98D000857
:10017000F98D0008F98D00087D4C0008F98D000804
:0C018000F98D0008F98D0008000000084F
:1001900081F0004102E000BF83F0004330B54FEA38
:1001A00041044FEA430594EA050F08BF90EA020FA5
:1001B0001FBF54EA000C55EA020C7FEA645C7FEA38
:1001C000655C00F0E2804FEA5454D4EB5555B8BF5B
:1001D0006D420CDD2C4480EA020281EA030382EACC
:1001E000000083EA010180EA020281EA0303362D5E
:1001F00088BF30BD11F0004F4FEA01314FF4801C31
:100200004CEA113102D0404261EB410113F0004F42
:100210004FEA03334CEA133302D0524263EB4303F9
:1002200094EA050F00F0A780A4F10104D5F1200E97
:100230000DDB02FA0EFC22FA05F2801841F10001F2
:1002400003FA0EF2801843FA05F359410EE0A5F1C6
:1002500020050EF1200E012A03FA0EFC28BF4CF0F7
:10026000020C43FA05F3C01851EBE37101F00045AD
:1002700007D54FF0000EDCF1000C7EEB00006EEBBA
:100280000101B1F5801F1BD3B1F5001F0CD3490844
:100290005FEA30004FEA3C0C04F101044FEA44529B
:1002A00012F5800F80F09A80BCF1004F08BF5FEA22
:1002B000500C50F1000041EB045141EA050130BD02
:1002C0005FEA4C0C404141EB010111F4801FA4F1A5
:1002D0000104E9D191F0000F04BF01460020B1FAFA
:1002E00081F308BF2033A3F10B03B3F120020CDA32
:1002F0000C3208DD02F1140CC2F10C0201FA0CF010
:1003000021FA02F10CE002F11402D8BFC2F1200C74
:1003100001FA02F120FA0CFCDCBF41EA0C0190402A
:10032000E41AA2BF01EB0451294330BD6FEA040473
:100330001F3C1CDA0C340EDC04F11404C4F120025E
:1003400020FA04F001FA02F340EA030021FA04F370
:1003500045EA030130BDC4F10C04C4F1200220FAC7
:1003600002F001FA04F340EA0300294630BD21FA05
:1003700004F0294630BD94F0000F83F4801306BFCB
:1003800081F480110134013D4EE77FEA645C18BFBF
:100390007FEA655C29D094EA050F08BF90EA020F56
:1003A00005D054EA000C04BF1946104630BD91EA4E
:1003B000030F1EBF0021002030BD5FEA545C05D151
:1003C0004000494128BF41F0004130BD14F5800490
:1003D0003CBF01F5801130BD01F0004545F0FE4104
:1003E00041F470014FF0000030BD7FEA645C1ABF39
:1003F000194610467FEA655C1CBF0B46024650EA70
:10040000013406BF52EA033591EA030F41F400219B
:1004100030BD00BF90F0000F04BF0021704730B521
:100420004FF4806404F132044FF000054FF00001F6
:1004300050E700BF90F0000F04BF0021704730B5B7
:100440004FF4806404F1320410F0004548BF40428C
:100450004FF000013EE700BF42004FEAE2014FEAE1
:1004600031014FEA02701FBF12F07F4393F07F4FBC
:1004700081F06051704792F0000F14BF93F07F4FEE
:10048000704730B54FF4607401F0004521F0004131
:1004900020E700BF50EA010208BF704730B54FF0B7
:1004A00000050AE050EA010208BF704730B511F0BC
:1004B000004502D5404261EB41014FF4806404F1F4
:1004C00032045FEA915C3FF4DCAE4FF003025FEA76
:1004D000DC0C18BF03325FEADC0C18BF033202EBFE
:1004E000DC02C2F1200300FA03FC20FA02F001FA58
:1004F00003FE40EA0E0021FA02F11444C1E600BFF7
:1005000070B54FF0FF0C4CF4E06C1CEA11541DBFA9
:100510001CEA135594EA0C0F95EA0C0F00F0DEF874
:100520002C4481EA030621EA4C5123EA4C5350EA59
:10053000013518BF52EA033541F4801143F48013AA
:1005400038D0A0FB02CE4FF00005E1FB02E506F03B
:100550000042E0FB03E54FF00006E1FB03569CF090
:10056000000F18BF4EF0010EA4F1FF04B6F5007F96
:1005700064F5407404D25FEA4E0E6D4146EB060608
:1005800042EAC62141EA55514FEAC52040EA5E5091
:100590004FEACE2EB4F1FD0C88BFBCF5E06F1ED83B
:1005A000BEF1004F08BF5FEA500E50F1000041EB72
:1005B000045170BD06F0004646EA010140EA02001F
:1005C00081EA0301B4EB5C04C2BFD4EB0C0541EA41
:1005D000045170BD41F480114FF0000E013C00F356
:1005E000AB8014F1360FDEBF002001F0004170BD7A
:1005F000C4F10004203C35DA0C341BDC04F1140493
:10060000C4F1200500FA05F320FA04F001FA05F21E
:1006100040EA020001F0004221F0004110EBD370EB
:1006200021FA04F642EB06015EEA430E08BF20EA17
:10063000D37070BDC4F10C04C4F1200500FA04F3BA
:1006400020FA05F001FA04F240EA020001F000414C
:1006500010EBD37041F100015EEA430E08BF20EABF
:10066000D37070BDC4F1200500FA05F24EEA020E07
:1006700020FA04F301FA05F243EA020321FA04F036
:1006800001F0004121FA04F220EA020000EBD370ED
:100690005EEA430E08BF20EAD37070BD94F0000FED
:1006A0000FD101F00046400041EB010111F4801F21
:1006B00008BF013CF7D041EA060195F0000F18BFD2
:1006C000704703F00046520043EB030313F4801F0E
:1006D00008BF013DF7D043EA0603704794EA0C0FC8
:1006E0000CEA135518BF95EA0C0F0CD050EA4106DE
:1006F00018BF52EA4306D1D181EA030101F000415B
:100700004FF0000070BD50EA410606BF1046194682
:1007100052EA430619D094EA0C0F02D150EA01368E
:1007200013D195EA0C0F05D152EA03361CBF1046CF
:1007300019460AD181EA030101F0004141F0FE416E
:1007400041F470014FF0000070BD41F0FE4141F4F2
:10075000780170BD70B54FF0FF0C4CF4E06C1CEAF2
:1007600011541DBF1CEA135594EA0C0F95EA0C0FA7
:1007700000F0A7F8A4EB050481EA030E52EA033562
:100780004FEA013100F088804FEA03334FF0805583
:1007900045EA131343EA12634FEA022245EA1115B0
:1007A00045EA10654FEA00260EF000419D4208BF61
:1007B000964244F1FD0404F5407402D25B084FEA0E
:1007C0003202B61A65EB03055B084FEA32024FF4BA
:1007D00080104FF4002CB6EB020E75EB030E22BF17
:1007E000B61A754640EA0C005B084FEA3202B6EBD7
:1007F000020E75EB030E22BFB61A754640EA5C0086
:100800005B084FEA3202B6EB020E75EB030E22BF15
:10081000B61A754640EA9C005B084FEA3202B6EB16
:10082000020E75EB030E22BFB61A754640EADC00D5
:1008300055EA060E18D04FEA051545EA16754FEA37
:1008400006164FEAC30343EA52734FEAC2025FEA55
:100850001C1CC0D111F4801F0BD141EA00014FF0E4
:1008600000004FF0004CB6E711F4801F04BF0143B5
:100870000020B4F1FD0C88BFBCF5E06F3FF6AFAED1
:10088000B5EB030C04BFB6EB020C5FEA500C50F161
:10089000000041EB045170BD0EF0004E4EEA1131E4
:1008A00014EB5C04C2BFD4EB0C0541EA045170BDEB
:1008B00041F480114FF0000E013C90E645EA060E2F
:1008C0008DE60CEA135594EA0C0F08BF95EA0C0F5D
:1008D0003FF43BAF94EA0C0F0AD150EA01347FF4A5
:1008E00034AF95EA0C0F7FF425AF104619462CE77C
:1008F00095EA0C0F06D152EA03353FF4FDAE1046DF
:10090000194622E750EA410618BF52EA43067FF42F
:10091000C5AE50EA41047FF40DAF52EA43057FF4BF
:10092000EBAE12E74FF0FF3C06E000BF4FF0010CCA
:1009300002E000BF4FF0010C4DF804CD4FEA410C2E
:100940007FEA6C5C4FEA430C18BF7FEA6C5C1BD0FB
:1009500001B050EA410C0CBF52EA430C91EA030F7C
:1009600002BF90EA020F0020704710F1000F91EAD9
:10097000030F58BF994208BF90422CBFD8176FEAA7
:10098000E37040F0010070474FEA410C7FEA6C5C75
:1009900002D150EA013C07D14FEA430C7FEA6C5C7C
:1009A000D6D152EA033CD3D05DF8040B704700BFA8
:1009B0008446104662468C461946634600E000BFF6
:1009C00001B5FFF7B7FF002848BF10F1000F01BDC8
:1009D0004DF808EDFFF7F4FF0CBF012000205DF893
:1009E00008FB00BF4DF808EDFFF7EAFF34BF012018
:1009F00000205DF808FB00BF4DF808EDFFF7E0FFB1
:100A000094BF012000205DF808FB00BF4DF808ED01
:100A1000FFF7CEFF94BF012000205DF808FB00BF68
:100A20004DF808EDFFF7C4FF34BF012000205DF84A
:100A300008FB00BF4FEA410212F5001215D211D592
:100A40006FF47873B3EB625212D94FEAC12343F0CB
:100A5000004343EA505311F0004F23FA02F018BF4D
:100A6000404270474FF00000704750EA013005D116
:100A700011F0004008BF6FF0004070474FF00000D9
:100A8000704700BF4A0011D212F5001211D20DD5E5
:100A90006FF47873B3EB62520ED44FEAC12343F084
:100AA000004343EA505323FA02F070474FF000002E
:100AB000704750EA013002D14FF0FF3070474FF0DD
:100AC000000070474FEA4102B2F1E04324BFB3F5A2
:100AD000001CDCF1FE5C0DD901F0004C4FEAC002B5
:100AE0004CEA5070B2F1004F40EB830008BF20F099
:100AF0000100704711F0804F21D113F13872BCBF53
:100B000001F00040704741F480114FEA5252C2F1A7
:100B10001802C2F1200C10FA0CF320FA02F018BFF0
:100B200040F001004FEAC1234FEAD32303FA0CFC43
:100B300040EA0C0023FA02F34FEA4303CCE77FEAD2
:100B4000625307D150EA01331EBF4FF0FE4040F41C
:100B50004000704701F0004040F0FE4040F40000CB
:100B6000704700BF80F0004002E000BF81F000410C
:100B700042001FBF5FEA410392EA030F7FEA226C43
:100B80007FEA236C6AD04FEA1262D2EB1363C1BFD3
:100B9000D218414048404140B8BF5B42192B88BF42
:100BA000704710F0004F40F4000020F07F4018BF65
:100BB000404211F0004F41F4000121F07F4118BF85
:100BC000494292EA030F3FD0A2F1010241FA03FC2D
:100BD00010EB0C00C3F1200301FA03F100F0004315
:100BE00002D5494260EB4000B0F5000F13D3B0F1DD
:100BF000807F06D340084FEA310102F10102FE2A4C
:100C000051D2B1F1004F40EBC25008BF20F00100BB
:100C100040EA03007047490040EB000010F4000F69
:100C2000A2F10102EDD1B0FA80FCACF1080CB2EBFC
:100C30000C0200FA0CF0AABF00EBC250524218435B
:100C4000BCBFD0401843704792F0000F81F4000100
:100C500006BF80F400000132013BB5E74FEA4103D3
:100C60007FEA226C18BF7FEA236C21D092EA030F3F
:100C700004D092F0000F08BF0846704790EA010FB9
:100C80001CBF0020704712F07F4F04D1400028BFE6
:100C900040F00040704712F100723CBF00F50000C8
:100CA000704700F0004343F0FE4040F400007047FE
:100CB0007FEA226216BF08467FEA236301464202AA
:100CC00006BF5FEA412390EA010F40F480007047BD
:100CD0004FF0000304E000BF10F0004348BF404263
:100CE0005FEA000C08BF704743F0964301464FF09F
:100CF00000001CE050EA010208BF70474FF00003FB
:100D00000AE000BF50EA010208BF704711F000433B
:100D100002D5404261EB41015FEA010C02BF84460B
:100D20000146002043F0B64308BFA3F18053A3F56A
:100D30000003BCFA8CF2083AA3EBC25310DB01FAB1
:100D400002FC634400FA02FCC2F12002BCF1004F35
:100D500020FA02F243EB020008BF20F001007047C6
:100D600002F1200201FA02FCC2F1200250EA4C001A
:100D700021FA02F243EB020008BF20EADC70704760
:100D800073B96AB9002908BF0028BCBF00204FF022
:100D90000041C4BF6FF000414FF0FF3000F08CB84D
:100DA00082B0EC462DE9005000F056F8DDF804E082
:100DB00002B00CBC704700BF4BB942B9002908BF54
:100DC000002802D04FF0FF31084600F075B882B01D
:100DD000EC462DE9005000F057F8DDF804E002B0D1
:100DE0000CBC704738B50022002304460D46FFF7BF
:100DF000F9FD28B920462946BDE8384000F00AB878
:100E0000204605F1004100F005F8404261EB410148
:100E100038BD00BF70B500220D4B04460D46FFF7EC
:100E20006FFBFFF72FFE0646FFF7F4FA0022094B8F
:100E3000FFF766FB02460B4620462946FFF7ACF952
:100E4000FFF720FE002242EA00042046314670BD32
:100E50000000F03D0000F0412DE97043069E14466D
:100E60001D468046894600F029F804FB01F300FB8B
:100E70000533A4FB00451D44B8EB040469EB0505EC
:100E8000C6E90045BDE870832DE97043069E14460F
:100E9000804689461D4600F05DF900FB05F504FB20
:100EA0000153A0FB04451D44B8EB040469EB0505A0
:100EB000C6E90045BDE87083704700BF00292DE9F1
:100EC000F00FC0F29F800024002BC0F296801546E0
:100ED00006460F46002B3ED18A4257D9B2FA82F31A
:100EE0004BB1C3F1200201FA03F720FA02F29D4050
:100EF000174300FA03F6290CB7FBF1F2330C01FBA0
:100F0000127CA8B243EA0C4700FB02F3BB4209D9AA
:100F10007F1902F1FF3C80F00181BB4240F2FE806C
:100F2000023A2F44FF1AB7FBF1F3B6B201FB13717B
:100F300046EA014100FB03F0884208D9491903F150
:100F4000FF3780F0ED80884240F2EA80023B43EABE
:100F50000242002303E08B420AD900231A461046BE
:100F6000194614B1404261EB4101BDE8F00F7047F2
:100F7000B3FA83F8B8F1000F40F084808B4202D3BB
:100F8000824200F2DE8000230122E8E712B9012349
:100F9000B3FBF2F5B5FA85F2002A39D17F1B280C94
:100FA0001FFA85FC0123B7FBF0F1320C00FB11772F
:100FB00042EA07470CFB01F2BA4207D97F1901F157
:100FC000FF3802D2BA4200F2C1804146BF1AB7FBD5
:100FD000F0F2B6B200FB127046EA00400CFB02FCD5
:100FE000844507D9401902F1FF3702D2844500F247
:100FF000AB803A4642EA0142B1E7E443524263EB36
:10100000430364E7404261EB41014FF0FF345BE78B
:101010009540C2F1200327FA03F1280C26FA03F3C6
:101020009740B1FBF0F81F433B0C00FB18111FFA6F
:1010300085FC43EA01410CFB08F38B4206FA02F6F9
:1010400008D9491908F1FF3279D28B4277D9A8F132
:1010500002082944C91AB1FBF0F3BFB200FB131117
:1010600047EA01470CFB03F2BA4207D97F1903F1A3
:10107000FF3160D2BA425ED9023B2F44BF1A43EA25
:10108000084390E7C8F1200203FA08FC25FA02F3AE
:1010900043EA0C0C4FEA1C4921FA02F301FA08F763
:1010A00020FA02F2B3FBF9F1174309FB11333A0CB2
:1010B0001FFA8CFB42EA03430BFB01FA9A4505FA3F
:1010C00008F008D913EB0C0301F1FF3235D29A4531
:1010D00033D902396344CAEB0303B3FBF9F209FBCA
:1010E0001233BFB247EA03470BFB02F9B94508D9EF
:1010F00017EB0C0702F1FF331BD2B94519D9023A9D
:10110000674442EA0145A5FB0001C9EB07078F428E
:101110004FF000030AD305D02A4620E7624601E7D4
:101120003B4614E706FA08F68642F5D26A1E00230B
:1011300015E71A46E5E70B46A0E71146CBE79046D0
:1011400088E7434642460AE7023A53E702392F440A
:101150003CE700BF2DE9F00F144605460E46002B74
:1011600043D18A4253D9B2FA82F757B1C7F1200668
:1011700020FA06F601FA07F302FA07F41E4300FA12
:1011800007F5210CB6FBF1F22B0C01FB1267A0B2A4
:1011900043EA074600FB02F3B34209D9361902F1CC
:1011A000FF3780F0F680B34240F2F380023A2644E3
:1011B000F61AB6FBF1F3ADB201FB136145EA01414A
:1011C00000FB03F0884208D9091903F1FF3680F0CB
:1011D000E280884240F2DF80023B43EA0242002381
:1011E00010461946BDE8F00F70478B424AD8B3FA53
:1011F00083F6002E4DD18B4202D3824200F2D6807C
:101200000023012210461946BDE8F00F704712B9BD
:101210000124B4FBF2F4B4FA84F2002A7CD1091B55
:10122000260CA7B20123B1FBF6F02A0C06FB101125
:1012300042EA014107FB00F28A4207D9091900F18D
:10124000FF3C02D28A4200F2C3806046891AB1FB99
:10125000F6F2ADB206FB121145EA014507FB02F7B3
:10126000AF4208D92C1902F1FF3180F09680A742D5
:1012700040F29380023A42EA004210461946BDE825
:10128000F00F704700231A4610461946BDE8F00FCC
:101290007047C6F1200522FA05F4B3401C434FEA1B
:1012A000144821FA05F301FA06F720FA05F5B3FB15
:1012B000F8FC2F4308FB1C333D0C1FFA84FA45EA67
:1012C00003430AFB0CF9994502FA06FB04D91B19E2
:1012D0000CF1FF326DD39446C9EB0303B3FBF8F571
:1012E00008FB1533BFB247EA03470AFB05F8B845C8
:1012F00004D93F1905F1FF3361D31D4645EA0C4C73
:10130000ACFB0B23C8EB07079F424FF0000549D306
:1013100045D062462B4663E79440C2F1200321FA90
:1013200003FC260C20FA03F301FA02F5BCFBF6F8E5
:1013300043EA05010B0C06FB18CCA7B243EA0C4CA0
:1013400007FB08F3634500FA02F509D91CEB040C0E
:1013500008F1FF323AD2634538D9A8F10208A44413
:10136000C3EB0C0CBCFBF6F389B206FB13CC41EAD1
:101370000C4107FB03F28A4207D9091903F1FF3038
:1013800022D28A4220D9023B2144891A43EA0843E7
:1013900049E73A460CE733461FE70A466BE7B04099
:1013A0009042B6D20CF1FF32002319E733463246A1
:1013B00016E799458FD9ACF1020C23448CE7B84568
:1013C0009BD9023D274499E70346DEE79046C7E7ED
:1013D000023821443AE700BF80B582B000AF7860A0
:1013E00039607B68012B10D13A684FF6FF739A423F
:1013F0000BD107483C2107F08FFE06483D2107F03E
:101400008BFE05483E2107F087FE0837BD4680BDAC
:10141000380A0020540A0020700A002080B500AF6E
:1014200001204FF6FF71FFF7D7FF80BD80B582B076
:1014300000AF78607B680A4A1A600A4806F0FCFA36
:101440007B680433184606F06DFC0023002B02D0A5
:10145000786806F07DFD7B6818460837BD4680BD7C
:1014600030760108985D010880B582B000AF7860E1
:101470007868FFF7DBFF786806F06AFD7B6818463E
:101480000837BD4680BD00BF80B582B000AF786030
:101490007B68064A1A600023002B02D0786806F0A9
:1014A00057FD7B6818460837BD4680BD407301086C
:1014B00080B582B000AF78607868FFF7E5FF7868A4
:1014C00006F046FD7B6818460837BD4680BD00BF64
:1014D00080B584B000AFF860B9607A603B600448C2
:1014E00006F0AAFA002318461037BD4680BD00BF9B
:1014F000AC5D010880B483B000AF78607B684FF0CA
:1015000000021A607B684FF000025A607B684FF05F
:1015100000029A607B68154ADA607B68144A1A6197
:101520007B68144A5A617B68134ADA627B684FF021
:1015300000021A627B684FF000025A627B684FF02B
:1015400000029A617B684FF000029A627B684FF05C
:101550000002DA617B684FF000021A637B6818466C
:101560000C37BD465DF8047B704700BF5396EBC156
:10157000D57869BDCE487942CDCCCC3D2DE9B04F70
:101580008AB006AF78607B6830335B48194600F05C
:10159000BDF97B6893ED0C7A7B68D3ED0A7A77EE20
:1015A000677AC7ED037A97ED037ADFED547AB4EEEC
:1015B000E77AF1EE10FA08DD97ED037ADFED507A65
:1015C00077EE677AC7ED037A10E097ED037ADFEDE7
:1015D0004D7AB4EEE77AF1EE10FA07D597ED037A7B
:1015E000DFED477A77EE277AC7ED037AD7ED037AF6
:1015F000B0EEE77AF1EE047AB4EEE77AF1EE10FAA3
:101600000EDD7B6893ED087A7B68D3ED0B6AD7ED2E
:10161000037A66EEA77A77EE277A7B68C3ED087ABD
:101620007B68D3ED067A97ED037A37EE677A7B68AD
:10163000D3ED0B7AC7EE277A7B68C3ED097A7B6816
:1016400093ED037AD7ED037A67EE277A7B68C3EDD3
:10165000007A7B6893ED047A7B68D3ED087A67EEB5
:10166000277A7B68C3ED017A7B6893ED057A7B6806
:10167000D3ED097A67EE277A7B68C3ED027A7B683F
:1016800093ED007A7B68D3ED017A37EE277A7B6899
:10169000D3ED027A77EE277A7B68C3ED077A7B6811
:1016A000FA689A617B68DB691846FEF7D5FE044646
:1016B0000D46F868FEF7D0FE82468B467B689B6A33
:1016C0001846FEF7C9FE804689467B681B6B1846A4
:1016D000FEF7C2FE02460B46CDE900ABCDE902891A
:1016E000CDE90423084822462B4607F0FDFA1037BF
:1016F000BD46BDE8B08F00BF8C0A00200000344317
:101700000000B443000034C3345E010880B483B0E9
:1017100000AF78607B68D3ED077AFCEEE77A17EECE
:10172000903A9BB218460C37BD465DF8047B704773
:10173000B0B584B002AF786039607B683A689A626D
:101740007B68D3ED0A7AF5EEC07AF1EE10FA13D584
:1017500009E07B6893ED0A7ADFED227A77EE277A4B
:101760007B68C3ED0A7A7B68D3ED0A7AF5EEC07A1E
:10177000F1EE10FAEDD41EE07B6893ED0A7ADFED0E
:10178000197AB4EEE77AF1EE10FA14DD09E07B681D
:1017900093ED0A7ADFED137A77EE677A7B68C3ED13
:1017A0000A7A7B6893ED0A7ADFED0E7AB4EEE77A77
:1017B000F1EE10FAEBDC7B689B6A1846FEF74CFEF4
:1017C00004460D463868FEF747FE02460B46CDE953
:1017D0000023054822462B4607F086FA0837BD4607
:1017E000B0BD00BF0000B443645E010880B483B0A4
:1017F00000AF786039607B683A68DA620C37BD46C2
:101800005DF8047B704700BF80B582B000AF7860A0
:1018100039607B683A681A60084B1B78002B09D046
:101820007B681B681846FEF717FE02460B46044805
:1018300007F05AFA0837BD4680BD00BF640100209A
:10184000845E010880B582B000AF786039607B6843
:101850003A685A60084B1B78002B09D07B685B689C
:101860001846FEF7F9FD02460B46044807F03CFA1D
:101870000837BD4680BD00BF640100209C5E0108A2
:1018800080B582B000AF786039607B683A689A6052
:10189000084B1B78002B09D07B689B681846FEF725
:1018A000DBFD02460B46044807F01EFA0837BD462A
:1018B00080BD00BF64010020B45E010880B483B025
:1018C00000AF78607B68044A1A607B6818460C3762
:1018D000BD465DF8047B70474073010880B582B057
:1018E00000AF78607B681846FFF7E8FF7B68064A20
:1018F0001A607B680022DA617B6800229A617B684B
:1019000018460837BD4680BD2873010880B582B0EF
:1019100000AF786039607B68DA697B689B699A42BE
:1019200014BF00230123DBB2002B01D0002311E000
:101930007B68DB697A689B0013445A683B681A60CD
:101940007B68DB697868194600F008F802467B6816
:10195000DA61012318460837BD4680BD80B483B0E4
:1019600000AF786039603B68032B02DC3B680133D1
:1019700000E0002318460C37BD465DF8047B704735
:1019800080B582B000AF78607B68084A1A607B68D7
:101990001846FFF779FD0023002B02D0786806F087
:1019A000D7FA7B6818460837BD4680BD2873010802
:1019B00080B582B000AF78607868FFF7E1FF7868A3
:1019C00006F0C6FA7B6818460837BD4680BD00BFE2
:1019D00080B584B002AF786039607B68012B19D183
:1019E0003A684FF6FF739A4214D10C48FFF776FF1E
:1019F0000A480B490B4A0FF00DF8002300930A48E0
:101A00000A49064A0A4B06F0ADFA07480949054A51
:101A10000FF000F80837BD4680BD00BF8C0A0020DB
:101A20008119000834C60020AC0A0020E40B002015
:101A3000CC5E01082D14000880B584B000AFF860BA
:101A4000B9607A603B607B68042B04D9064805F0D6
:101A5000F3FF002304E0F868396800F007F8034654
:101A600018461037BD4680BDE85E010880B584B0D9
:101A700000AF786039607B689B6978681946FFF72A
:101A80006DFFF8607B68DA69FB689A4214BF002337
:101A90000123DBB2002B01D000230BE07B689B69A4
:101AA0003A68126879689B000B445A607B68FA6850
:101AB0009A61012318461037BD4680BD80B500AF3E
:101AC00001204FF6FF71FFF783FF80BD80B483B024
:101AD00000AF78607B684FF000021A607B684FF0BF
:101AE00000025A607B684FF000029A607B68114ADE
:101AF000DA607B68104A1A617B68104A5A617B6819
:101B00004FF000021A627B684FF000025A627B6855
:101B10004FF000029A617B6800221A857B684FF0C3
:101B20000002DA617B6818460C37BD465DF8047B1D
:101B3000704700BFFDB6FAC2CE8D85BF984C794282
:101B40002DE9F0438BB006AF78607B6830334648B0
:101B5000194600F03FF97B6893ED0E7A7B681B8D88
:101B60001BB206EE903AF8EEE67A77EE677AC7EDAA
:101B7000037AD7ED037AB0EEE77AF1EE047AB4EEA9
:101B8000E77AF1EE10FA09DD7B6893ED087AD7ED7C
:101B9000037A77EE277A7B68C3ED087A7B68D3ED0A
:101BA000067A97ED037A77EE677A7B68C3ED097A58
:101BB0007B6893ED037AD7ED037A67EE277A7B682B
:101BC000C3ED007A7B6893ED047A7B68D3ED087AE5
:101BD00067EE277A7B68C3ED017A7B6893ED057A1F
:101BE0007B68D3ED097A67EE277A7B68C3ED027ACA
:101BF0007B6893ED007A7B68D3ED017A37EE277A24
:101C00007B68D3ED027A77EE277A7B68C3ED077A9B
:101C10007B68FA689A61154B1B78002B1FD07B6894
:101C2000DB691846FEF718FC04460D46F868FEF717
:101C300013FC804689467B681B8D1EB27B689B6BBC
:101C40001846FEF709FC02460B46CDE900890296CC
:101C5000CDE90423064822462B4607F045F8143701
:101C6000BD46BDE8F08300BFDC0A0020640100200F
:101C7000945F010880B582B000AF78600B46FB70BE
:101C800097F903309AB27B681A85074B1B78002BB3
:101C900006D07B681B8D1BB20448194607F024F858
:101CA0000837BD4680BD00BF64010020C45F010845
:101CB00080B582B000AF786039607B683A681A609E
:101CC000084B1B78002B09D07B681B681846FEF771
:101CD000C3FB02460B46044807F006F80837BD462A
:101CE00080BD00BF64010020DC5F010880B582B0C8
:101CF00000AF786039607B683A685A60084B1B789F
:101D0000002B09D07B685B681846FEF7A5FB0246EE
:101D10000B46044806F0E8FF0837BD4680BD00BF0B
:101D200064010020F45F010880B582B000AF7860E4
:101D300039607B683A689A60084B1B78002B09D0A1
:101D40007B689B681846FEF787FB02460B460448F3
:101D500006F0CAFF0837BD4680BD00BF6401002001
:101D60000C60010880B483B000AF78607B68D3ED6D
:101D7000077AFCEEE77A17EE903A9BB218460C37DA
:101D8000BD465DF8047B704780B483B000AF7860D7
:101D900039607B683A68DA620C37BD465DF8047BCF
:101DA000704700BF80B582B000AF78607B6818468E
:101DB000FFF784FD7B68064A1A607B6800225A643C
:101DC0007B6800221A647B6818460837BD4680BDD0
:101DD0005873010880B582B000AF786039607B68C5
:101DE0005A6C7B681B6C9A4214BF00230123DBB240
:101DF000002B01D0002317E07B685A6C39687868A3
:101E000013465B0013449B00C2180B46043207CAFA
:101E100083E807007B685B6C7868194600F008F877
:101E200002467B685A64012318460837BD4680BDC8
:101E300080B483B000AF786039603B68032B02DC6C
:101E40003B68013300E0002318460C37BD465DF8BF
:101E5000047B704780B582B000AF78607B68084A29
:101E60001A607B681846FFF70FFB0023002B02D097
:101E7000786806F06DF87B6818460837BD4680BD67
:101E80005873010880B582B000AF78607868FFF7BA
:101E9000E1FF786806F05CF87B6818460837BD46B5
:101EA00080BD00BF80B584B002AF786039607B68C8
:101EB000012B19D13A684FF6FF739A4214D10C489E
:101EC000FFF770FF0A480B490B4A0EF0A3FD0023F1
:101ED00000930A480A49064A0A4B06F043F80748A5
:101EE0000949054A0EF096FD0837BD4680BD00BF82
:101EF000DC0A0020551E000834C60020240B0020F8
:101F00009C0B0020246001082D14000880B584B0CB
:101F100000AFF860B9607A603B607B680C2B04D935
:101F2000064805F089FD002304E0F868396800F0F0
:101F300007F8034618461037BD4680BD3C600108CF
:101F400080B584B000AF786039607B681B6C7868BE
:101F50001946FFF76DFFF8607B685A6CFB689A4280
:101F600014BF00230123DBB2002B01D0002310E0BB
:101F70007B681A6C796813465B0013449B000B4422
:101F80003A68043307CA83E807007B68FA681A6472
:101F9000012318461037BD4680BD00BF80B500AF95
:101FA00001204FF6FF71FFF77DFF80BD0FB480B4B5
:101FB00000AF00231846BD465DF8047B04B07047AF
:101FC00080B483B000AF786039603B685A687B6842
:101FD0005A603B689A687B689A603B68DA687B68FD
:101FE000DA603B681A697B681A613B685A697B68EA
:101FF0005A617B6818460C37BD465DF8047B704714
:1020000080B582B000AF786039607A683B6810466E
:102010001946FFF7D5FF3B689A697B689A617B6830
:1020200018460837BD4680BD90B58DB002AF7860C8
:102030007B681B7883F00103DBB2002B07D17B6840
:1020400004331846FFF7B2FF0346002B01D10123EA
:1020500000E00023002B15D07B681C1D07F10C034A
:102060001846202107F058F807F10C0320461946BE
:10207000FFF7C6FF7B6804331846012101220123C4
:1020800007F07EF87B6801221A707B68202283F8B3
:1020900020207B68572283F821207B6820337A68D0
:1020A00023320092012201926F481D211A46022319
:1020B00007F036FD02467B681A637B681B6B002BBA
:1020C00003DA6A4806F010FECAE07B68242283F82F
:1020D00020207B68F42283F821207B6820337A68F3
:1020E00023320092012201925F481D211A460223E9
:1020F00007F016FD02467B681A637B681B6B002B9A
:1021000003DA5A4806F0F0FDAAE07B680F2283F854
:1021100020207B6820337A682332009201220192CA
:1021200051481D211A46012307F0FAFC02467B683C
:102130001A637B681B6B002B04DB7B6893F82330EE
:10214000492B03D04A4806F0CFFD89E07B68252261
:1021500083F820207B68002283F821207B682033CD
:102160007A6823320092012201923F481D211A46CB
:10217000022307F0D5FC02467B681A637B681B6B61
:10218000002B03DA394806F0AFFD69E07B682622B0
:1021900083F820207B68002283F821207B6820338D
:1021A00031481D211A46022307F086FC0346DB0F47
:1021B000DBB2002B03D02C482E4907F09DFB7B6837
:1021C000232283F820207B68042283F821207B6867
:1021D000203325481D211A46022307F06DFC0346D3
:1021E000DB0FDBB2002B03D01F48224907F084FB32
:1021F0007B68122283F820207B68092283F8212043
:102200007B68203318481D211A46022307F054FC2E
:102210000346DB0FDBB2002B03D01348154907F050
:102220006BFB7B680022A3F842207B680022A3F8A6
:1022300044207B680022A3F846207B680022A3F894
:102240004E207B680022A3F850207B680022A3F870
:1022500052207B68002283F83A20074806F044FDAC
:102260002C37BD4690BD00BF682000204C6001089F
:1022700064600108A08601007C60010880B584B01C
:1022800002AF78607B68233318460021062205F0F0
:102290009DFD7B68203318460021032205F096FD42
:1022A0007B68A82283F820207B6820337A68233259
:1022B00000920622019260481D211A46012307F070
:1022C0002FFC02467B681A637B681B6B002B0DDAC0
:1022D0005A4806F009FD5848594907F00DFB7B683C
:1022E000233318460021062205F070FD7B6893F821
:1022F00024301B029AB27B6893F8233019467B681E
:10230000B3F842309BB2CB1A9BB29BB213439AB242
:102310007B689A877B6893F826301B029AB27B68A9
:1023200093F8253019467B68B3F844309BB2CB1A3A
:102330009BB29BB213439AB27B68DA877B6893F8AF
:1023400028301B029AB27B6893F8273019467B68C5
:10235000B3F846309BB2CB1A9BB29BB213439AB2EE
:102360007B68A3F840207B68882283F820207B6864
:1023700020337A6823320092062201922E481D21D2
:102380001A46012307F0CCFB02467B681A637B6880
:102390001B6B002B0DDA2B4806F0A6FC26482849BB
:1023A00007F0AAFA7B68233318460021062205F0BD
:1023B0000DFD7B6893F824301B029AB27B6893F87A
:1023C000233019467B68B3F84E309BB2CB1A9BB2D0
:1023D0009BB213439AB27B68A3F848207B6893F8BA
:1023E00026301B029AB27B6893F8253019467B6829
:1023F000B3F850309BB2CB1A9BB29BB213439AB244
:102400007B68A3F84A207B6893F828301B029AB2B5
:102410007B6893F8273019467B68B3F852309BB23B
:10242000CB1A9BB29BB213439AB27B68A3F84C20A1
:102430000837BD4680BD00BF682000208C600108C1
:10244000A0860100BC60010880B485B000AFF860D0
:1024500079813A81FB807A89FB68A3F842203A8926
:10246000FB68A3F84420FA88FB68A3F84620FB68C1
:10247000012283F83A201437BD465DF8047B70478B
:1024800080B483B000AF78607B689B8F9AB27B6822
:10249000B3F842309BB2D31A9BB29BB21BB2184620
:1024A0000C37BD465DF8047B704700BF80B483B035
:1024B00000AF78607B68DB8F9AB27B68B3F84430FA
:1024C0009BB2D31A9BB29BB21BB218460C37BD46C7
:1024D0005DF8047B704700BF80B483B000AF7860C4
:1024E0007B68B3F840309AB27B68B3F846309BB251
:1024F000D31A9BB29BB21BB218460C37BD465DF88F
:10250000047B704780B483B000AF78607B68B3F819
:1025100048309AB27B68B3F84E309BB2D31A9BB264
:102520009BB21BB218460C37BD465DF8047B704762
:1025300080B483B000AF78607B68B3F84A309AB259
:102540007B68B3F850309BB2D31A9BB29BB21BB2DC
:1025500018460C37BD465DF8047B704780B483B0E5
:1025600000AF78607B68B3F84C309AB27B68B3F800
:1025700052309BB2D31A9BB29BB21BB218460C3797
:10258000BD465DF8047B704780B483B000AF7860CF
:102590007B68B3F842301BB218460C37BD465DF875
:1025A000047B704780B483B000AF78607B68B3F879
:1025B00044301BB218460C37BD465DF8047B7047AB
:1025C00080B483B000AF78607B68B3F846301BB24C
:1025D00018460C37BD465DF8047B704780B483B065
:1025E00000AF78607B68B3F84E301BB218460C37EA
:1025F000BD465DF8047B704780B483B000AF78605F
:102600007B68B3F850301BB218460C37BD465DF8F6
:10261000047B704780B483B000AF78607B68B3F808
:1026200052301BB218460C37BD465DF8047B70472C
:1026300090B58BB000AF78607B681B7883F00103A6
:10264000DBB2002B07D17B6804331846FFF7AEFCE2
:102650000346002B01D1012300E00023002B15D0FD
:102660007B681C1D07F10C031846122106F054FD6F
:1026700007F10C0320461946FFF7C2FC7B680433C0
:10268000184601210122012306F07AFD7B68012210
:102690001A707B68202283F820207B680F2283F841
:1026A00021207B6820333E486B211A46022307F025
:1026B00003FA0346DB0FDBB2002B03D0384839495D
:1026C00007F01AF97B68212283F820207B6800221A
:1026D00083F821207B68203331486B211A4602237E
:1026E00007F0EAF90346DB0FDBB2002B03D02C48DE
:1026F0002C4907F001F97B68222283F820207B68AF
:10270000002283F821207B68203325486B211A465C
:10271000022307F0D1F90346DB0FDBB2002B03D015
:102720001F48204907F0E8F87B68232283F820201F
:102730007B68202283F821207B681B4ADA637B6850
:10274000203317486B211A46022307F0B5F90346D8
:10275000DB0FDBB2002B03D01148124907F0CCF895
:102760007B68242283F820207B68002283F82120C4
:102770007B6820330A486B211A46022307F09CF934
:102780000346DB0FDBB2002B03D00548054907F0F9
:10279000B3F8064806F0A8FA2C37BD4690BD00BF36
:1027A00068200020A0860100295C8F3DEC600108B4
:1027B00080B485B000AFF86079813A81FB807A8976
:1027C000FB68A3F846203A89FB68A3F84820FA88FA
:1027D000FB68A3F84A201437BD465DF8047B7047B8
:1027E00080B584B002AF78607B682333184600213F
:1027F000062205F0EBFA7B682033184600210322FD
:1028000005F0E4FA7B68A82283F820207B68203357
:102810007A6823320092062201922E486B211A46D2
:10282000012307F07DF902467B681A637B681B6B06
:10283000002B0DDA284806F057FA2648274907F0FA
:102840005BF87B68233318460021062205F0BEFAA8
:102850007B6893F824301B029AB27B6893F823308C
:1028600019467B68B3F846309BB2CB1A9BB29BB239
:1028700013439AB27B68A3F840207B6893F8263014
:102880001B029AB27B6893F8253019467B68B3F82F
:1028900048309BB2CB1A9BB29BB213439AB27B686F
:1028A000A3F842207B6893F828301B029AB27B6819
:1028B00093F8273019467B68B3F84A309BB2CB1A9D
:1028C0009BB29BB213439AB27B68A3F844200837AB
:1028D000BD4680BD682000201C610108A086010063
:1028E00080B483B000AF78607B68B3F840301BB22F
:1028F00006EE903AB8EEE67A7B68D3ED0F7A27EED3
:10290000277A7B68B3F846301BB206EE903AF8EEB1
:10291000E67A77EE677A17EE903A18460C37BD469E
:102920005DF8047B704700BF80B483B000AF78606F
:102930007B68B3F842301BB206EE903AB8EEE67A06
:102940007B68D3ED0F7A27EE277A7B68B3F848309F
:102950001BB206EE903AF8EEE67A77EE677A17EE5B
:10296000903A18460C37BD465DF8047B704700BFAF
:1029700080B483B000AF78607B68B3F844301BB29A
:1029800006EE903AB8EEE67A7B68D3ED0F7A27EE42
:10299000277A7B68B3F84A301BB206EE903AF8EE1D
:1029A000E67A77EE677A17EE903A18460C37BD460E
:1029B0005DF8047B704700BF80B483B000AF7860DF
:1029C0007B68B3F846301BB218460C37BD465DF83D
:1029D000047B704780B483B000AF78607B68B3F845
:1029E00048301BB218460C37BD465DF8047B704773
:1029F00080B483B000AF78607B68B3F84A301BB214
:102A000018460C37BD465DF8047B704780B582B030
:102A100000AF78607B680A4A1A600A4805F00CF833
:102A20007B680433184605F07DF90023002B02D0A3
:102A3000786805F08DFA7B6818460837BD4680BD7A
:102A4000B87301084C61010880B582B000AF7860AE
:102A50007868FFF7DBFF786805F07AFA7B6818463C
:102A60000837BD4680BD00BF80B483B000AF0246CA
:102A70000B46FA80BB80B7F90620B7F904309A42BA
:102A800001DDBB8800E0FB881BB218460C37BD4651
:102A90005DF8047B704700BF80B483B000AF02468E
:102AA0000B46FA80BB80B7F90620B7F904309A428A
:102AB00001DDFB8800E0BB881BB218460C37BD4621
:102AC0005DF8047B704700BF80B582B000AF7860CE
:102AD0007B6804331846002106F01EFB7B6818460D
:102AE0000837BD4680BD00BF80B582B000AF7860BA
:102AF0007B6804331846002106F00EFB7B681846FD
:102B00000837BD4680BD00BF80B584B000AFF86017
:102B1000B960C7E90023FB681846B96864224FF41E
:102B2000FA630DF069F8FB68124A1A60FB685833C3
:102B30001846002106F0F0FAFB68743318460021AD
:102B400006F0EAFAFB6890331846FFF7BDFFFB6812
:102B5000DC331846FFF7C8FFF968D7E90023C1E95D
:102B60001423FB68002283F83421FB6818461037D1
:102B7000BD4680BDA073010880B483B000AF78600B
:102B80000B46FB707B68FA7883F834210C37BD461E
:102B90005DF8047B704700BF80B582B000AF7860FD
:102BA00039603B681A787B681A707B681A1D3B682D
:102BB000043310461946FFF723FA7B683A6820333E
:102BC00020321268114619800233120C1A707B6889
:102BD0003A68233323321168196092889A807B689F
:102BE0003A682A332A321168196092889A807B6881
:102BF0003A683033303292E8030083E803003B68E0
:102C00001A8F7B681A873B68DA6B7B68DA633B68EC
:102C1000B3F840207B68A3F840203B68B3F842201B
:102C20007B68A3F842203B68B3F844207B68A3F894
:102C300044203B68B3F846207B68A3F846203B68F5
:102C4000B3F848207B68A3F848203B68B3F84A20D3
:102C50007B68A3F84A207B6818460837BD4680BDCC
:102C600080B582B000AF786039603B681A787B68C5
:102C70001A707B681A1D3B68043310461946FFF72B
:102C8000BFF97B683A6820332032126811461980F8
:102C90000233120C1A707B683A68233323321168AE
:102CA000196092889A807B683A682A332A321168C0
:102CB000196092889A807B683A683033303292E8A3
:102CC000030083E803003B681A8F7B681A873B6820
:102CD00093F83A207B6883F83A203B689A8F7B68A8
:102CE0009A873B68DA8F7B68DA873B68B3F84020C5
:102CF0007B68A3F840203B68B3F842207B68A3F8C8
:102D000042203B68B3F844207B68A3F844203B682A
:102D1000B3F846207B68A3F846203B68B3F8482008
:102D20007B68A3F848203B68B3F84A207B68A3F887
:102D30004A203B68B3F84C207B68A3F84C203B68E2
:102D4000B3F84E207B68A3F84E203B68B3F85020C0
:102D50007B68A3F850203B68B3F852207B68A3F847
:102D600052203B68B3F854207B68A3F854207B685A
:102D700018460837BD4680BD90B5B5B000AF786045
:102D80007B68D3E91423324805F0AEFF7B6803F17A
:102D9000580407F10C031846372106F0BDF907F176
:102DA0000C0320461946FFF72BF97B685833184669
:102DB00001210122012306F0E3F92648264906F005
:102DC0009BFDC7F8CC00D7F8CC30002B03D12348AB
:102DD00005F08AFF02E0224805F086FF7B6803F1D8
:102DE000900407F128024C23104600211A4604F0F3
:102DF000EDFF07F128031846FFF766FE07F12803E9
:102E000020461946FFF7C8FE7B6890331846FFF747
:102E10000FFC7B6803F1DC0407F1740258231046B1
:102E200000211A4604F0D2FF07F174031846FFF799
:102E30005BFE07F1740320461946FFF711FF7B681C
:102E4000DC331846FFF7F0F8D437BD4690BD00BF1D
:102E50005C61010868200020A086010074610108FF
:102E600098610108B0B58CB000AF78600023FB62B8
:102E70000023BB6200237B6200233B620023FB61D3
:102E80000023BB6100237B6100233B610023FB60C7
:102E90000023FB7288E07B6890331846FFF7A0FCA4
:102EA0007B6890331846FFF71BFD07EE100AFB6A9C
:102EB00006EE903AF8EEE67A77EE877AFDEEE77A5C
:102EC00017EE903AFB627B6890331846FFF72CFDB3
:102ED00007EE100ABB6A06EE903AF8EEE67A77EE55
:102EE000877AFDEEE77A17EE903ABB627B68903303
:102EF0001846FFF73DFD07EE100A7B6A06EE903A92
:102F0000F8EEE67A77EE877AFDEEE77A17EE903AFA
:102F10007B627B68DC331846FFF7B0F97B68DC33F3
:102F20001846FFF7ADFA03463A6A13443B627B68E2
:102F3000DC331846FFF7BAFA0346FA691344FB611B
:102F40007B68DC331846FFF7C7FA0346BA691344B7
:102F5000BB617B68DC331846FFF7D4FA03467A6915
:102F600013447B617B68DC331846FFF7E1FA0346C4
:102F70003A6913443B617B68DC331846FFF7EEFA8D
:102F80000346FA681344FB6005F052F94E4A4FF0CD
:102F90000003121843EB01031046194600220CF0FF
:102FA0007BFFFB7A0133FB72FB7A632B7FF673AFF7
:102FB0007B6803F19000FB6A444A82FB03125211C2
:102FC000DB17D31A99B2BB6A404A82FB03C2521183
:102FD000DB17D31A9AB27B6A3C4C84FB03C464119E
:102FE000DB17E31A9BB2FFF7E3FB7B6803F1DC001E
:102FF0003B6A364A82FB03125211DB17D31A99B28D
:10300000FB69324A82FB03C25211DB17D31A9AB210
:10301000BB692E4C84FB03C46411DB17E31A9BB21B
:10302000FFF712FA2A4B1B78002B4AD07B689033AB
:103030001846FFF7C1FC03461D467B6890331846CF
:10304000FFF7C8FC03461C467B6890331846FFF721
:10305000CFFC03461F482946224605F045FE7B6803
:10306000DC331846FFF790FA03461D467B68DC33D5
:103070001846FFF797FA03461C467B68DC33184670
:10308000FFF79EFA034614482946224605F02CFE17
:103090007B68DC331846FFF7A1FA03461D467B68C0
:1030A000DC331846FFF7A8FA03461C467B68DC337E
:1030B0001846FFF7AFFA034608482946224605F0AE
:1030C00013FE3037BD46B0BD809698001F85EB518A
:1030D00064010020DC610108F86101081462010844
:1030E00080B584B000AFF860C7E90023F968D7E97C
:1030F0000023C1E91423064B1B78002B05D0FB6885
:10310000D3E91423034805F0EFFD1037BD4680BD19
:1031100064010020306201082DE9B0438EB004AF95
:1031200078607868FFF79EFE05F082F802460B464D
:10313000104619467B68D3E91423121843EB0103A8
:103140001046194600220CF0A7FE7B689033184603
:10315000FFF746FB7B6890331846FFF7C1FB034639
:10316000BB607B6890331846FFF7DEFB0346FB60CD
:103170007B6890331846FFF7FBFB03463B617B6897
:10318000DC331846FFF77AF87B68DC331846FFF724
:1031900077F90346BB837B68DC331846FFF786F973
:1031A0000346FB837B68DC331846FFF795F903463B
:1031B0003B847B68DC331846FFF7A4F903461A46C4
:1031C000934B1A807B68DC331846FFF7B1F903464E
:1031D0001A468F4B5A807B68DC331846FFF7BEF9DE
:1031E00003461A468A4B9A807B6893F83431002B49
:1031F0006BD0874B1A88874B1B8812B21BB21046C4
:103200001946FFF731FC03461A46824B1A80804B61
:103210005A88804B5B8812B21BB210461946FFF7E2
:1032200023FC03461A467B4B5A80794B9A88794B8C
:103230009B8812B21BB210461946FFF715FC0346D5
:103240001A46744B9A80724B1A88734B1B8812B2C1
:103250001BB210461946FFF71FFC03461A466E4B79
:103260001A806B4B5A886C4B5B8812B21BB21046AB
:103270001946FFF711FC03461A46674B5A80644B08
:103280009A88654B9B8812B21BB210461946FFF70D
:1032900003FC03461A46604B9A805E4B1B8819B2AA
:1032A0005C4B5B881AB25B4B9B881BB25B4805F09A
:1032B0001BFD594B1B8819B2574B5B881AB2564BF2
:1032C0009B881BB2564805F00FFDBB8A1AB2504BC3
:1032D0001B881BB2D31A002BB8BF5B421E2B2ADC03
:1032E000FB8A1AB24A4B5B881BB2D31A002BB8BFB9
:1032F0005B421E2B1FDC3B8B1AB2454B9B881BB2DB
:10330000D31A002BB8BF5B421E2B14DC7B68DC3366
:103310001846FFF7F7F80346BB827B68DC33184694
:10332000FFF706F90346FB827B68DC331846FFF79C
:1033300015F903463B83D7ED047AFDEEE77A17EEE5
:10334000903A002BB8BF5B42012B3ADD7B6890338B
:103350001846FFF70DFB03461846FDF77DF80446B7
:103360000D467B68D3E9142310461946FDF792F801
:1033700002460B461046194623A3D3E90023FDF766
:10338000E9F902460B4620462946FDF7B9F8024600
:103390000B4614461D46234B1B681846FDF75CF888
:1033A00002460B461046194622462B46FCF7F6FE0F
:1033B00002460B4610461946FDF784FB0246194BA0
:1033C0001A6019481749012200F0A2F8174B1B7820
:1033D000002B4BD0BB681846FDF73EF804460D465F
:1033E000FB681846FDF738F8804689463B69184661
:1033F000FDF732F802460B46CDE90089CDE90223FC
:103400000B4822462B4615E00000000065CDCD415B
:103410002C0C002000000020080000204C62010855
:1034200060620108340C0020080C002094C20020C7
:103430007462010805F058FCBB8B19B2FB8B1AB201
:103440003B8C1BB20A4805F04FFCBB8A19B2FB8AC1
:103450001AB23B8B1BB2074805F046FC786AFCF7B2
:10346000FBFF02460B46044805F03EFC5CE600BF4D
:103470008462010894620108A4620108AFF300802D
:1034800080B584B000AFF860B9607A60FB68184618
:10349000B96806227B6804F037FFFB68034A1A60AC
:1034A000FB6818461037BD4680BD00BF9073010809
:1034B00080B584B000AFF860B9607A60FB681846E8
:1034C000B9680C227B6804F01FFFFB68034A1A608E
:1034D000FB6818461037BD4680BD00BF80730108E9
:1034E00080B584B000AFF860B9607A60FB681846B8
:1034F000B96804227B6804F007FFFB68034A1A607E
:10350000FB6818461037BD4680BD00BF70730108C8
:1035100080B584B000AFF860B9601346FB71FA68FB
:10352000FB791046B9681A46002304F05DFF034694
:1035300018461037BD4680BD80B582B000AF7860B8
:103540007B68084A1A607B6818460CF0C3FB0023AE
:10355000002B02D0786804F0FBFC7B681846083723
:10356000BD4680BDA073010880B582B000AF786011
:103570007868FFF7E1FF786804F0EAFC7B6818469A
:103580000837BD4680BD00BF80B582B000AF78600F
:1035900039607B68012B46D13A684FF6FF739A4237
:1035A00041D122484FF0FF31214AFFF769FF1F4800
:1035B0002049214A0DF02EFA20484FF0FF31204AD1
:1035C000FFF75EFF1D481B491B4A0DF023FA1D48FB
:1035D0004FF0FF311C4AFFF76BFF1A481B49164A90
:1035E0000DF018FA1A484FF0FF311A4AFFF778FF2A
:1035F00017481949104A0DF00DFA18484FF0FF31DD
:10360000174AFFF76DFF154813490B4A0DF002FAF0
:1036100014484FF0FF31144AFFF762FF11480E497A
:10362000054A0DF0F7F90837BD4680BD540B002060
:10363000B06201082537000834C60020780B00204E
:10364000C06201089C0B0020D0620108C936000846
:10365000C00B0020D86201086D360008E40B002082
:10366000E4620108080C0020F062010880B582B015
:1036700000AF78607B680A4A1A600A4804F0DCF9F7
:103680007B681846FFF7C2F90023002B02D0786848
:1036900004F05EFC7B6818460837BD4680BD00BF5D
:1036A000707301080063010880B582B000AF7860D4
:1036B0007868FFF7DBFF786804F04AFC7B681846FF
:1036C0000837BD4680BD00BF80B582B000AF7860CE
:1036D0007B680A4A1A600A4804F0AEF97B6818460B
:1036E000FFF794F90023002B02D0786804F030FC37
:1036F0007B6818460837BD4680BD00BF807301084F
:103700000063010880B582B000AF78607868FFF789
:10371000DBFF786804F01CFC7B6818460837BD4660
:1037200080BD00BF80B582B000AF78607B680A4A78
:103730001A600A4804F080F97B681846FFF766F9BA
:103740000023002B02D0786804F002FC7B68184646
:103750000837BD4680BD00BF9073010800630108B3
:1037600080B582B000AF78607868FFF7DBFF7868DB
:1037700004F0EEFB7B6818460837BD4680BD00BFED
:1037800080B500AF01204FF6FF71FFF7FDFE80BD51
:1037900080B584B000AFF860B9607A60FB68184605
:1037A000B96864224FF4FA630CF026FAFB68164AF3
:1037B0001A60FB687A681A65D7E906230EA1D1E979
:1037C0000001994208BF904206D3F9680CA3D3E9DF
:1037D0000023C1E9162304E0F968D7E90623C1E90B
:1037E0001623FB68012283F86020FB681846103717
:1037F000BD4680BDAFF30080FFE0F505000000008E
:1038000000E1F50500000000D8730108AFF3008067
:1038100080B483B000AF78607B68012283F86020B9
:103820000C37BD465DF8047B704700BF80B483B0A1
:1038300000AF78607B68002283F860200C37BD46BB
:103840005DF8047B704700BF80B58AB002AF786036
:103850007B681B6D1846254906F04EF8F861FB6938
:10386000002B03D1224805F03FFA02E0214805F081
:103870003BFA00233B7503237B7500233B747B6875
:103880001A6D07F1140307F1100100910121019154
:10389000104629211A46022306F042F9B86116485B
:1038A000B96905F021FA3B7C1A463B7C032B14BF17
:1038B00000230123DBB211481146032205F014FA5C
:1038C00081233B7300237B737B681A6D07F10C0324
:1038D000104629211A46022306F0EEF8B86108487E
:1038E000B96905F001FA2037BD4680BDA086010008
:1038F00020630108406301085063010878630108F0
:10390000A063010880B58CB002AF78600023FB6132
:1039100000233B6200233B830023BB820023FB8404
:103920000023BB84AC233B74AE233B730023BB60FA
:1039300004F07EFC02460B46104619467B68D3E92C
:103940001623121843EB01031046194600220CF00F
:10395000A3FA7B6893F86030002B4CD07B681A6D1B
:1039600007F1100307F1180100910221019110469F
:1039700029211A46012306F0D3F80346FB617B6830
:103980001A6D07F10C0307F1140100910221019156
:10399000104629211A46012306F0C2F803463B626D
:1039A0003B6A002B27DDFB69002B24D03B7E1B02EA
:1039B0009AB27B7E1344FB843B7D1B029AB27B7DD3
:1039C0001344BB84FA8CBB8C786811461A4600F00D
:1039D00019F80346BB6007F108030748194601229E
:1039E00000F0D4F8054B1B78002B04D0BB680448CA
:1039F000194605F079F99BE7380C002094C20020A5
:103A0000C063010880B48DB000AF786013460A46E9
:103A10007A803B8047F217533B627B883A6A02FB0D
:103A200003F39B0AFB613B883A6A02FB03F39B0AA0
:103A3000BB610023FB62FB69002B05D0BB699A02C6
:103A4000FB69B2FBF3F3FB62FB6A01335B087B614A
:103A50007B69432B06D84FF40173BB6240F2AD1370
:103A60007B6247E07B69852B06D84FF40A73BB6203
:103A700040F2C1237B623DE07B69C82B06D840F24F
:103A80005323BB6240F263337B6233E07B69B3F55F
:103A9000857F06D840F28223BB6240F2DF337B622F
:103AA00028E07B69B3F5A77F06D240F27713BB62AB
:103AB00040F2DD137B621DE07B69B3F5CD7F06D854
:103AC00040F20113BB6240F227137B6212E07A6975
:103AD00040F29A239A4204D83723BB622B237B629D
:103AE00008E07A6940F29A239A4203D90023BB6224
:103AF00000237B62FB69BA6A02FB03F2BB69796A45
:103B000001FB03F3D31A3B613B6903F500533B61AF
:103B10003B699B0BFB60FB6818463437BD465DF87C
:103B2000047B704780B584B000AFF860C7E900231C
:103B3000F968D7E90023C1E91623064B1B78002B4F
:103B400005D0FB68D3E91623034805F0CDF81037FC
:103B5000BD4680BD64010020CC63010880B584B0FF
:103B600000AFF860B9607A60FB681846B968042253
:103B70007B6804F0C9FBFB68034A1A60FB681846BF
:103B80001037BD4680BD00BFC873010880B584B042
:103B900000AFF860B9601346FB71FA68FB79104614
:103BA000B9681A46002304F01FFC03461846103774
:103BB000BD4680BD80B582B000AF78607B68084AA2
:103BC0001A607B6818460CF085F80023002B02D0A1
:103BD000786804F0BDF97B6818460837BD4680BD9B
:103BE000D873010880B582B000AF78607868FFF7BD
:103BF000E1FF786804F0ACF97B6818460837BD46E9
:103C000080BD00BF80B582B000AF786039607B684E
:103C1000012B0FD13A684FF6FF739A420AD1074839
:103C20004FF0FF31064AFFF799FF04480549064A5D
:103C30000CF0F0FE0837BD4680BD00BF380C0020F8
:103C4000F06301084D3C000834C6002080B582B006
:103C500000AF78607B680A4A1A600A4803F0ECFEFD
:103C60007B681846FEF7D2FE0023002B02D078684E
:103C700004F06EF97B6818460837BD4680BD00BF6A
:103C8000C8730108FC63010880B582B000AF78609A
:103C90007868FFF7DBFF786804F05AF97B6818460C
:103CA0000837BD4680BD00BF80B500AF01204FF68C
:103CB000FF71FFF7A7FF80BD80B582B000AF7860CD
:103CC000124801210122012305F05AFA104801216E
:103CD0000122002305F054FA0E480021012200239E
:103CE00005F04EFA0C4801210122002305F048FAA4
:103CF0000A484FF47A714FF47A7206F057FC07487D
:103D0000322107F0B5F80837BD4680BD5C0C0020B5
:103D1000780C0020940C0020B00C0020CC0C00206B
:103D200080B582B000AF78600448012105F036FB11
:103D3000034B01221A700837BD4680BDB00C00202D
:103D4000E80C002080B582B000AF78600648002102
:103D500005F024FB054B00221A70054804F0C4FF4F
:103D60000837BD4680BD00BFB00C0020E80C002025
:103D70000C64010880B582B000AF78600B467B8090
:103D80007B88002B02D17868FFF7DCFF104B1B7893
:103D900083F00103DBB2002B02D07868FFF7C0FF8D
:103DA0007B88B3F57A7F02D94FF47A737B807B8866
:103DB0000848194607F05CF8074B1B78002B04D025
:103DC0007B880648194604F08FFF0837BD4680BD42
:103DD000E80C0020CC0C00206401002018640108CD
:103DE00080B582B000AF786039607B68012B18D154
:103DF0003A684FF6FF739A4213D10B48242105F01D
:103E00008BF90A48112105F087F909483C2105F092
:103E100083F90848422105F07FF907480C2106F094
:103E20009BFB0837BD4680BD5C0C0020780C002051
:103E3000940C0020B00C0020CC0C002080B500AF0A
:103E400001204FF6FF71FFF7CBFF80BD80B582B038
:103E500000AF786039607B681846396864224FF497
:103E6000FA630BF0C9FE7B68034A1A607B68184648
:103E70000837BD4680BD00BF3074010880B582B0F0
:103E800000AF78607B6850331846FFF715FF054B8D
:103E90001B78002B02D0044804F026FF0837BD46EB
:103EA00080BD00BF640100200465010880B584B0B6
:103EB00000AF78604FF0FF306FF0004100220BF050
:103EC000EBFF07F10E03074819464FF000024FF0D1
:103ED000000300F073F8FB897868194600F004F8D5
:103EE000E8E700BF100D002080B582B000AF786019
:103EF0000B467B807B6803F150027B881046194695
:103F0000FFF738FF0837BD4680BD00BF80B584B0DD
:103F100000AFF860B9607A60FB681846B9680222A1
:103F20007B6804F0F1F9FB68034A1A60FB681846E5
:103F30001037BD4680BD00BF2074010880B582B037
:103F400000AF78607B68084A1A607B681846FDF706
:103F50009BFA0023002B02D0786803F0F9FF7B68FE
:103F600018460837BD4680BD0874010880B582B088
:103F700000AF78607868FFF7E1FF786803F0E8FF4A
:103F80007B6818460837BD4680BD00BF80B582B04B
:103F900000AF78607B68184600F08AF87B68064AB4
:103FA0001A607B6800221A627B6800225A627B6872
:103FB00018460837BD4680BDF073010880B588B04B
:103FC00000AFF860B960C7E900230023FB7740F237
:103FD000EB3004F0F5F803460133BB6134E0FB68D5
:103FE0001846B96800F07CF80346FB77FB7F83F046
:103FF0000103DBB2002B20D00BF026FF0246FB684A
:104000001A62D7E9002352EA030107D14FF0FF30CB
:104010006FF0004100220BF03FFF0BE004F008F9C5
:10402000D7E90023121843EB01031046194600227A
:104030000BF032FFFB6800221A62BB69013B184695
:1040400004F0BEF80023BB61BB69002BC7D1FB7F26
:1040500083F00103DBB2002B06D0FB681846B96879
:1040600000F03EF80346FB77FB7F002B1AD040F2AE
:10407000EB3004F0A5F8034601337B610FE0FB68E9
:104080005B6A002B04D0FB685B6A18460BF0E8FE05
:104090007B69013B184604F093F800237B617B6940
:1040A000002BECD1FB7F18462037BD4680BD00BFFA
:1040B00080B582B000AF78607B681846FDF7FEFBE4
:1040C0007B68064A1A607B680022DA617B680022FE
:1040D0009A617B6818460837BD4680BD08740108A0
:1040E00080B582B000AF786039607B68DA697B6840
:1040F0009B699A4214BF00230123DBB2002B01D03D
:10410000002311E07B68DB697A685B0013449A88BE
:104110003B681A807B68DB697868194600F008F80C
:1041200002467B68DA61012318460837BD4680BD28
:1041300080B483B000AF786039603B68082B02DC44
:104140003B68013300E0002318460C37BD465DF89C
:10415000047B704780B582B000AF78607B68084A06
:104160001A607B681846FFF7E9FE0023002B02D097
:10417000786803F0EDFE7B6818460837BD4680BDC1
:10418000F073010880B582B000AF78607868FFF7FF
:10419000E1FF786803F0DCFE7B6818460837BD460F
:1041A00080BD00BF80B582B000AF78607B68084AF0
:1041B0001A607B6818460BF08DFD0023002B02D09F
:1041C000786803F0C5FE7B6818460837BD4680BD99
:1041D0003074010880B582B000AF78607868FFF76E
:1041E000E1FF786803F0B4FE7B6818460837BD46E7
:1041F00080BD00BF80B584B002AF786039607B6855
:10420000012B24D13A684FF6FF739A421FD111480F
:104210004FF0FF31104AFFF779FE0E480F49104A60
:104220000CF0F8FB0F48FFF7B1FE0E480E490C4AA0
:104230000CF0F0FB002300930C480649094A0C4B94
:1042400003F090FE09480B49054A0CF0E3FB0837E0
:10425000BD4680BDEC0C0020146501081D4300081C
:1042600034C60020100D002055410008380D0020F4
:10427000246501082D14000880B586B000AFF860F1
:10428000B9607A603B607B68022B04D9154803F063
:10429000D3FB002322E0FB681846396800F06CF875
:1042A0000346FB7440F2EB3003F08AFF0346013310
:1042B0007B610FE0FB681B6A002B04D0FB681B6A64
:1042C00018460BF0CDFD7B69013B184603F078FFE3
:1042D00000237B617B69002BECD1FB7C18461837EF
:1042E000BD4680BD3C65010880B584B000AFF86074
:1042F000B9607A603B607B68022B04D9064803F002
:104300009BFB002304E0F868396800F035F80346A9
:1043100018461037BD4680BD5065010880B582B093
:1043200000AF78607B680A4A1A600A4803F084FB91
:104330007B681846FEF76AFB0023002B02D07868E2
:1043400003F006FE7B6818460837BD4680BD00BFF7
:10435000207401086065010880B582B000AF786004
:104360007868FFF7DBFF786803F0F2FD7B6818469A
:104370000837BD4680BD00BF80B584B000AF78600F
:1043800039607B689B6978681946FFF7D1FEF86051
:104390007B68DA69FB689A4214BF00230123DBB211
:1043A000002B01D000230BE07B689B693A681288E0
:1043B00079685B000B449A807B68FA689A610123F4
:1043C00018461037BD4680BD80B500AF01204FF6BE
:1043D000FF71FFF70FFF80BD80B584B000AFF860BC
:1043E000B9607A60FB681846B96801227B6803F0FF
:1043F0008BFFFB68034A1A60FB6818461037BD46FE
:1044000080BD00BF4874010880B582B000AF7860FD
:1044100039607B68012B0FD13A684FF6FF739A42DF
:104420000AD1074848F20771064AFFF7D5FF04484A
:104430000549064A0CF0EEFA0837BD4680BD00BFBC
:10444000680D0020806501085144000834C6002032
:1044500080B582B000AF78607B680A4A1A600A486B
:1044600003F0EAFA7B681846FEF7D0FA0023002B27
:1044700002D0786803F06CFD7B6818460837BD46AB
:1044800080BD00BF487401088C65010880B582B00A
:1044900000AF78607868FFF7DBFF786803F058FDBD
:1044A0007B6818460837BD4680BD00BF80B500AFA9
:1044B00001204FF6FF71FFF7A7FF80BD80B483B0E6
:1044C00000AF7860054A7B6843F0BF6343F4003374
:1044D000D3600C37BD465DF8047B704700ED00E00B
:1044E00080B485B000AF78600023FB730023BB73FA
:1044F0000F237B737B68DB78002B37D0254BDB6881
:10450000DB4303F4E0631B0AFB73FB7BC3F104038F
:10451000BB737A7BFB7B42FA03F37B737B685B782C
:104520001A46BB7B02FA03F3FB737B689A787B7BAA
:104530001340DAB2FB7B1343FB73FB7B1B01FB7362
:10454000154A7B681B781344FA7B83F80023124BCF
:104550007A6812785209D2B27968097801F01F019D
:10456000012000FA01F143F822100EE00A4B7A68AC
:1045700012785209D2B27968097801F01F0101203E
:1045800000FA01F1203243F822101437BD465DF8DD
:10459000047B704700ED00E000E100E080B485B0EE
:1045A00000AFF860B9607A607B80FB68BA681A6017
:1045B000FB687A685A60FB687A881A81FB683A8BD4
:1045C0005A81FB6818461437BD465DF8047B704776
:1045D00080B584B000AF78601720012109F0C0F9E0
:1045E000414806210D2208F029FE3F4804210D22F2
:1045F00008F024FE3D4807210D2208F01FFE3C482C
:1046000006210D2208F01AFE394807210D2208F074
:1046100015FE384800210D2208F010FE3548012112
:104620000D2208F00BFE334804210D2208F006FE8F
:104630002E4806210D2208F001FE2E4805210D22EC
:1046400008F0FCFD2B4806210D2208F0F7FD502351
:10465000BB6002233B7303237B730023BB730123E3
:10466000FB7307F108032048194608F015FDC02325
:10467000BB6002233B730023BB7307F108031B4895
:10468000194608F009FDC023BB6007F1080318486C
:10469000194608F001FD7323BB6007F108031548B4
:1046A000194608F0F9FC0120012109F059F90E48DA
:1046B0000821002208F0C2FD4FF48073BB60022382
:1046C0003B7303237B730023FB730023BB7307F14E
:1046D00008030548194608F0DFFC0020002109F016
:1046E00077F81037BD4680BD00000240000402404C
:1046F000000802400010024080B598B000AF78601A
:104700000120012109F04AF908F0D8F87B685B899B
:10471000A7F850300023A7F852302023A7F85430D0
:104720008023A7F856304023A7F858307B681B89B0
:10473000A7F85A300023A7F85C304FF4800001211D
:1047400009F00EF9334808F09DF94FF00073BB6093
:10475000314BFB607B685B683B6100237B617B685E
:104760001B689B08BB610023FB614FF480633B62C5
:104770004FF480537B624FF48043BB624FF48073ED
:10478000FB624FF440333B6304237B630323BB632F
:104790000023FB6300233B6407F15003184608F035
:1047A000ABF807F108031B48194608F03DFA194811
:1047B0001021012208F0FEFA16480421012208F017
:1047C000F9FA4FF4C060FFF779FE4E2387F84C30BA
:1047D000022387F84D30022387F84E30012387F8F3
:1047E0004F3007F14C031846FFF77AFE392387F85C
:1047F0004C30012387F84D30012387F84E300123D8
:1048000087F84F3007F14C031846FFF769FE603711
:10481000BD4680BD286402402800055080B582B0A6
:1048200000AF78600820012108F0DCF81020012199
:1048300008F0D8F80120012108F0D4F80220012165
:1048400008F0D0F80420012108F0CCF80448012138
:1048500008F040FA012008F08DF80837BD4680BD09
:104860002864024080B588B000AF78604FF4001033
:10487000012109F0B1F80220012109F071F807F1D6
:104880001803184608F096FC4FF44073BB610223EE
:104890003B7700237B770123BB770123FB7707F16D
:1048A00018031E48194608F0F7FB1C48082104228B
:1048B00008F0C4FC19480921042208F0BFFC07F1E4
:1048C0000803184608F0FCFD154808F0FDFC1448E4
:1048D000012108F013FE0023BB814BF6FF73FB811F
:1048E00000233B824FF480637B824FF48043BB8282
:1048F0000C4BBB600A484FF48071012208F0BAFEED
:1049000007F108030648194608F018FD044801217C
:1049100008F0F4FD2037BD4680BD00BF0004024012
:1049200000540040A086010080B584B000AFF8605C
:10493000B960FA71BB7100E000BFB8684FF4003194
:1049400008F0ECFE0346002B0CBF00230123DBB272
:10495000002BF1D1B868012108F0F0FD00E000BFA4
:10496000B8681C4908F0AAFE0346002B14BF0023B8
:104970000123DBB2002BF2D1FA79BB79B86811467A
:104980001A4608F01BFEBB79002B0ED100E000BFD9
:10499000B868114908F092FE0346002B14BF0023AB
:1049A0000123DBB2002BF2D110E0BB79012B0DD13A
:1049B00000E000BFB868094908F080FE0346002BFC
:1049C00014BF00230123DBB2002BF2D11037BD4608
:1049D00080BD00BF01000300820007000200030049
:1049E00080B584B000AFF860B9601346FB71FB7905
:1049F000B868194608F020FE00E000BFB868074913
:104A000008F05CFE0346002B14BF00230123DBB239
:104A1000002BF2D11037BD4680BD00BF84000700D7
:104A200080B584B000AF786039603868002108F044
:104A3000E3FD00E000BF38680A4908F03FFE034686
:104A4000002B14BF00230123DBB2002BF2D1386806
:104A500008F002FE0346FB73FB7B18461037BD4689
:104A600080BD00BF4000030080B582B000AF786019
:104A700039603868012108F081FD0837BD4680BDE6
:104A800080B584B000AF78600B46FB700023FB73E9
:104A900078684FF47A7100F083F8786820494222F0
:104AA0000023FFF741FF78684FF47A7100F078F83F
:104AB000FB7878681A491A46FFF792FF78684FF436
:104AC0007A7100F06DF878681549FFF7CDFF7868C6
:104AD0004FF47A7100F064F8786811494322012399
:104AE000FFF722FF78684FF47A7100F059F8786880
:104AF0000B49FFF795FF0346FB7378684FF47A7113
:104B000000F04EF878680649FFF7AEFF78684FF47A
:104B10007A7100F045F8FB7B18461037BD4680BD22
:104B20000054004080B582B000AF786013460A465A
:104B3000FA70BB7078684FF47A7100F031F87868D9
:104B4000164942220023FFF7EFFE78684FF47A718E
:104B500000F026F8FB78786810491A46FFF740FF06
:104B600078684FF47A7100F01BF8BB7878680B49CD
:104B70001A46FFF735FF78684FF47A7100F010F8A5
:104B800078680649FFF770FF78684FF47A7100F093
:104B900007F8002318460837BD4680BD0054004082
:104BA00080B483B000AF7860396003E03B68013BBC
:104BB0003B6000BF3B68012BF8D80C37BD465DF861
:104BC000047B704780B500AF094804F08DF80948B0
:104BD000094908F029F90346012B14BF00230123DA
:104BE000DBB2002B03D00348034908F0B5F880BDC1
:104BF0009C650108A06002400080202080B500AFC5
:104C00001648174908F010F90346012B14BF00237A
:104C10000123DBB2002B0DD0124804F065F81248D6
:104C200000F0A4FB1148124908F096F80B480C4913
:104C300008F092F809480F4908F0F6F80346012BEE
:104C400014BF00230123DBB2002B06D00A4804F076
:104C50004BF80248074908F07FF880BD28640240FD
:104C600000880010AC650108E0220020A06002402E
:104C70000080202000220010D465010880B500AF1C
:104C8000082007F0DFFE0346012B14BF0023012399
:104C9000DBB2002B0ED02F4B1B68002B03D12D4B0A
:104CA00001221A6002E02B4B00221A60082007F054
:104CB000B9FE4DE0102007F0C5FE0346012B14BFDE
:104CC00000230123DBB2002B10D0224B1B68012BE9
:104CD00005D1214B1B685A1C1F4B1A6002E01E4B6A
:104CE00000221A60102007F09DFE31E0012007F03D
:104CF000A9FE0346012B14BF00230123DBB2002BC6
:104D000003D0012007F08EFE22E0042007F09AFE77
:104D10000346012B14BF00230123DBB2002B06D076
:104D20000E4803F0E1FF042007F07CFE10E00220B3
:104D300007F088FE0346012B14BF00230123DBB2DA
:104D4000002B05D0064803F0CFFF022007F06AFED3
:104D500080BD00BF600100208C0D0020E0650108CF
:104D6000F465010880B584B002AF786039607B6873
:104D70001846396864224FF4FA630AF03DFF7B68F5
:104D8000194A1A607B6803F150027B68B433022130
:104D9000009110464FF416411A460023FFF7FEFB20
:104DA0007B68603318463D2104F0B6F97B687C339C
:104DB00018460A2104F0B0F97B689833184621217F
:104DC00004F0AAF97B6803F51643B83300221A7081
:104DD0007B6803F51643B93300221A707B681846C6
:104DE0000837BD4680BD00BF6874010880B588B033
:104DF00002AF7860354803F077FF0023FB82002381
:104E00003B617B685C33184612218022FFF78AFEE3
:104E100003463B617B685C33184612210022FFF792
:104E200081FE03463B613EE0FB8A2948194603F0B8
:104E30005BFF7B6803F15C01FA8A264B13F81220B2
:104E4000FB8A24485B0003445B78084611461A46F7
:104E5000FFF768FE03463B617B6803F15C02F98A59
:104E60001C4B13F8113010461946FFF709FE034694
:104E7000FB73F98AFA8A174B13F812301A46FB8A29
:104E800014485B0003445B78F87B0090124803F001
:104E90002BFF3B69002B03D01048396903F024FF36
:104EA000FB8A0133FB82FA8A0A4B13F81230FF2B7C
:104EB00006D0FB8A074A5B0013445B78FF2BB3D113
:104EC000074803F011FF1837BD4680BD1066010882
:104ED0002C66010810000020486601087066010871
:104EE0008066010880B582B000AF7860364803F074
:104EF000FBFE7B686033184601210122002304F089
:104F00003FF97B687C33184601210122002304F01D
:104F100037F97B689833184601210122002304F0F9
:104F20002FF97B687C331846012104F037FA7B683F
:104F300098331846002104F031FA244803F0D4FED7
:104F40007B6850331846FFF743FB214803F0CCFE43
:104F5000204803F0C9FE7B6850331846FFF7CCFBAE
:104F60001B4803F0C1FE1C4803F0BEFE78684FF4F6
:104F70007A7100F03DFA7B685C331846FFF772FCEB
:104F8000134803F0B1FE154803F0AEFE78684FF405
:104F90007A7100F02DFA7868FFF728FF0C4803F0CB
:104FA000A3FE0F4803F0A0FE78684FF47A7100F07A
:104FB0001FFA7B6850331846FFF730FC094803F0AE
:104FC00093FE0837BD4680BD9C660108B0660108A7
:104FD000C0660108C8660108D8660108E4660108D1
:104FE000F46601080467010880B584B000AF7860FA
:104FF0003960294801F06CFF38682849012206F021
:1050000019FD7B6803F51643B4331B881BB207F107
:105010000802104622491A460BF00AFD07F1080360
:1050200038681946022206F005FD7B6803F5164331
:10503000B6331B881BB207F10802104618491A46FE
:105040000BF0F6FC07F1080338681946022206F057
:10505000F1FC0023FB6015E07A68FB681344B03371
:105060001B7907F1080210460E491A460BF0E0FCC6
:1050700007F1080338681946022206F0DBFCFB68DA
:105080000233FB60FB68B3F5164FE5DB024801F025
:1050900011FF1037BD4680BDA0B900201C67010874
:1050A000206701082467010880B582B000AF7860EE
:1050B000012007F07BFC0837BD4680BD80B5ADF50B
:1050C000926D00AF3B1D18600023C7F88C340BE0D5
:1050D00007F5F473D7F88C24002143F82210D7F891
:1050E0008C340133C7F88C34D7F88C349F2BEFDD28
:1050F0000023C7F888340BE007F10803D7F88824A9
:10510000002143F82210D7F888340133C7F88834D7
:10511000D7F88834772BEFDD0023C7F884345DE0BF
:105120000023C7F8803450E0D7F8842413469B004E
:1051300013445B011A46D7F8803413445B003A1DD0
:105140001268134493F8B430FF2B39D107F5F47388
:10515000D7F8802453F82210D7F8842413469B00F4
:1051600013445B011A46D7F8803413445B003A1DA0
:105170001268134493F8B430194407F5F473D7F860
:10518000802443F8221007F10803D7F8842453F849
:105190002210D7F8842413469B0013445B011A465F
:1051A000D7F8803413445B003A1D1268134493F817
:1051B000B430194407F10803D7F8842443F82210C7
:1051C000D7F880340133C7F88034D7F880349F2B68
:1051D000AADDD7F884340133C7F88434D7F884348F
:1051E000772B9DDD0023C7F87C340023C7F8783483
:1051F0000023C7F874340FE007F5F473D7F874246C
:1052000053F82230D7F87C241344C7F87C34D7F8FD
:1052100074340133C7F87434D7F874349F2BEBDD42
:105220000023C7F870340FE007F5F473D7F8702443
:1052300053F82230D7F878241344C7F87834D7F8D5
:1052400070340133C7F87034D7F87C3407EE103A65
:10525000F8EEC77A17EE900AFBF7FEF802460B4607
:10526000104619464FF000024FF08043FBF772FAE8
:1052700002460B4610461946FBF7DCFB0246D7F800
:1052800078349A42D0DC0023C7F87C340023C7F876
:1052900078340023C7F86C340FE007F10803D7F81F
:1052A0006C2453F82230D7F87C241344C7F87C349C
:1052B000D7F86C340133C7F86C34D7F86C34772BDB
:1052C000EBDD0023C7F868340FE007F10803D7F8D7
:1052D000682453F82230D7F878241344C7F8783478
:1052E000D7F868340133C7F86834D7F87C3407EE50
:1052F000103AF8EEC77A17EE900AFBF7ADF80246BF
:105300000B46104619464FF000024FF08043FBF762
:1053100021FA02460B4610461946FBF78BFB024664
:10532000D7F878349A42D0DCD7F870349AB23B1D63
:105330001B6803F51643B4331A80D7F868349AB261
:105340003B1D1B6803F51643B6331A803B1D1B68D3
:1053500003F51643B43304481946012200F09AF8C5
:1053600007F59267BD4680BD900D002080B483B0E4
:1053700000AF78607B6803F51643B93301221A70D9
:105380000C37BD465DF8047B704700BF000000008D
:1053900080B582B000AF78607B6803F51643B933FF
:1053A0001B78002B1FD07B6803F51643B93300220E
:1053B0001A707868FFF782FE7B6803F51643B833EE
:1053C0001B78002B02D07868FFF76EFE02F030FFEA
:1053D00005A3D3E90023121843EB01031046194635
:1053E00000220AF059FDD7E700E1F50500000000B2
:1053F00080B483B000AF7860396003E03B68013B64
:105400003B6000BF3B68012BF8D80C37BD465DF808
:10541000047B704780B582B000AF78607B6803F58D
:105420001643B83301221A70044803F05DFC786813
:10543000FFF73AFE0837BD4680BD00BF2867010868
:1054400080B582B000AF78607B6803F51643B8334F
:1054500000221A70024803F047FC0837BD4680BDA1
:105460003467010880B584B000AFF860B9607A6035
:10547000FB681846B96804227B6802F045FFFB68A8
:10548000034A1A60FB6818461037BD4680BD00BF4E
:105490005874010880B584B000AFF860B960134655
:1054A000FB71FA68FB791046B9681A46002302F0CE
:1054B0009BFF034618461037BD4680BD80B582B0BD
:1054C00000AF78607B68084A1A607B6818460AF06B
:1054D00001FC0023002B02D0786802F039FD7B68C4
:1054E00018460837BD4680BD6874010880B582B093
:1054F00000AF78607868FFF7E1FF786802F028FD78
:105500007B6818460837BD4680BD00BF80B582B0B5
:1055100000AF786039607B68012B0FD13A684FF695
:10552000FF739A420AD107484FF0FF31064AFFF74E
:1055300099FF04480549064A0BF06CFA0837BD4646
:1055400080BD00BF900D002044670108555500083C
:1055500034C6002080B582B000AF78607B680A4A0C
:105560001A600A4802F068FA7B681846FDF74EFA9E
:105570000023002B02D0786802F0EAFC7B68184612
:105580000837BD4680BD00BF587401085467010844
:1055900080B582B000AF78607868FFF7DBFF78688D
:1055A00002F0D6FC7B6818460837BD4680BD00BFB8
:1055B00080B500AF01204FF6FF71FFF7A7FF80BD58
:1055C00080B584B000AFF860B9607A60FB681846B7
:1055D000B96864224FF4FA630AF00EFBFB68074ACD
:1055E0001A60F968D7E90623C1E91623FB687A68CF
:1055F0001A65FB6818461037BD4680BDA8740108BF
:1056000080B582B000AF78607B681B6D18464FF4A0
:10561000E13106F041F90837BD4680BD90B5A9B02B
:1056200002AF78600023C7F8943079687B68D3E9CB
:105630001623CDE9002308464FF000024FF0000387
:1056400002F076FD56E07B681B6D1B6818331B6803
:105650007A68126D104698470346002B1ED07B686F
:105660001A6D07F10C0310461946402206F074F932
:10567000C7F8940007F10C0207F14C037868114653
:10568000D7F8942000F094F80346002B06D007F1D9
:105690004C031D481946012200F03EF907F14C0366
:1056A0001A48194600F04CF90346002B1AD007F1AE
:1056B0000C0207F14C03786811461A46002300F0EB
:1056C000D5F87B681C6D07F14C030733184602F0D0
:1056D00037FB0346083307F10C02204611461A46F1
:1056E00006F0A8F907F14C024723104600211A469C
:1056F00002F06CFB7B68184602F030FD0123002BA2
:10570000A1D19C37BD4690BDB40D0020FC0D0020FA
:1057100080B483B000AF786039607B680E4A1A604D
:105720003B685A687B685A603B689A687B689A60F5
:105730003B68DA687B68DA603B681A697B681A61E3
:105740003B685A697B685A617B6818460C37BD46CE
:105750005DF8047B704700BFF075010880B582B02A
:1057600000AF786039607A683B6810461946FFF7E9
:10577000CFFF7B68054A1A603B689A697B689A612B
:105780007B6818460837BD4680BD00BF8877010892
:1057900080B582B000AF786039603B681B6D786877
:1057A0001946FFF7DBFF78680837BD4680BD00BFAC
:1057B0002DE9F04389B000AFF860B9607A603B60D2
:1057C000B86802F0BDFA0346063BBB613B68184669
:1057D0002549BA680BF02CF9BB69002B3DD06B460C
:1057E0001E46BB69591E79610B4601331A464FF0BC
:1057F00000034FEAC30949EA52794FEAC2080B464F
:1058000001331A464FF00003DD0045EA5275D4001B
:105810000B4601330733DB08DB00ADEB030D6B46B2
:1058200000333B610023FB770BE03A69FB7F1344B5
:10583000FA7F0632B9680A4412781A70FB7F013386
:10584000FB77FA7FBB699A42EFD33B68DA1D3B696D
:105850001046194602F092FAB5460123184624373D
:10586000BD46BDE8F08300BF1068010880B584B074
:1058700000AFF860B9607A60FB70FB78002B07D04E
:105880007A687B680733B86806490BF0D1F806E000
:105890007A687B680733B86803490BF0C9F810379A
:1058A000BD4680BD186801082868010880B584B02D
:1058B00000AFF860B9607A60FB681846B9684722A3
:1058C0007B6802F021FDFB68034A1A60FB681846FA
:1058D0001037BD4680BD00BF9874010880B582B006
:1058E00000AF78607B681846FBF7E8FF7B68094AE1
:1058F0001A607B6803F58E53083300221A607B68B8
:1059000003F58E53043300221A607B68184608376B
:10591000BD4680BD8074010880B584B000AFF860DA
:10592000B9601346FB71FA68FB791046B9681A46EC
:10593000002302F059FD034618461037BD4680BDCE
:1059400080B582B000AF786039607B6803F58E5314
:1059500008331A687B6803F58E5304331B689A4238
:1059600014BF00230123DBB2002B01D0002323E06E
:105970007B6803F58E5308331A68396878681346D4
:10598000DB001344DB009B1A03441A1D472308461F
:1059900011461A4602F03CFA7B6803F58E53083331
:1059A0001B687868194600F00BF802467B6803F51F
:1059B0008E5308331A60012318460837BD4680BD50
:1059C00080B483B000AF786039603B683E2B02DC66
:1059D0003B68013300E0002318460C37BD465DF8F4
:1059E000047B704780B582B000AF78607B68084A5E
:1059F0001A607B681846FBF747FD0023002B02D096
:105A0000786802F0A5FA7B6818460837BD4680BD65
:105A10008074010880B582B000AF78607868FFF7C5
:105A2000E1FF786802F094FA7B6818460837BD46B3
:105A300080BD00BF80B582B000AF78607B68084A47
:105A40001A607B6818460AF045F90023002B02D043
:105A5000786802F07DFA7B6818460837BD4680BD3D
:105A6000A874010880B582B000AF78607868FFF74D
:105A7000E1FF786802F06CFA7B6818460837BD468B
:105A800080BD00BF80B584B002AF786039607B68AC
:105A9000012B2FD13A684FF6FF739A422AD117484B
:105AA0004FF0FF31164AFFF701FF14481549164A17
:105AB0000AF0B0FF15484FF0FF31154AFFF7F6FE28
:105AC00012481049104A0AF0A5FF1248FFF706FFD6
:105AD000104811490C4A0AF09DFF002300930F481B
